{
	"contracts/SgAML.sol": {
		"SgAML": {
			"abi": [
				{
					"inputs": [
						{
							"internalType": "address payable",
							"name": "sender",
							"type": "address"
						},
						{
							"internalType": "uint256",
							"name": "amount",
							"type": "uint256"
						}
					],
					"name": "checkAmt",
					"outputs": [
						{
							"internalType": "bool",
							"name": "",
							"type": "bool"
						}
					],
					"stateMutability": "payable",
					"type": "function"
				},
				{
					"inputs": [
						{
							"internalType": "string",
							"name": "userNationality",
							"type": "string"
						}
					],
					"name": "checkNationality",
					"outputs": [
						{
							"internalType": "bool",
							"name": "",
							"type": "bool"
						}
					],
					"stateMutability": "view",
					"type": "function"
				},
				{
					"inputs": [
						{
							"internalType": "bool",
							"name": "isPoliticallyExposed",
							"type": "bool"
						}
					],
					"name": "checkPoliticalStatus",
					"outputs": [
						{
							"internalType": "bool",
							"name": "",
							"type": "bool"
						}
					],
					"stateMutability": "pure",
					"type": "function"
				}
			],
			"devdoc": {
				"kind": "dev",
				"methods": {},
				"version": 1
			},
			"evm": {
				"assembly": "    /* \"contracts/SgAML.sol\":60:925  contract SgAML{... */\n  mstore(0x40, 0x80)\n    /* \"contracts/SgAML.sol\":83:141  string[] bannedCountries = [\"Iraq\",\"North Korea\",\"Russia\"] */\n  mload(0x40)\n  dup1\n  0x60\n  add\n  0x40\n  mstore\n  dup1\n  mload(0x40)\n  dup1\n  0x40\n  add\n  0x40\n  mstore\n  dup1\n  0x04\n  dup2\n  mstore\n  0x20\n  add\n  0x4972617100000000000000000000000000000000000000000000000000000000\n  dup2\n  mstore\n  pop\n  dup2\n  mstore\n  0x20\n  add\n  mload(0x40)\n  dup1\n  0x40\n  add\n  0x40\n  mstore\n  dup1\n  0x0b\n  dup2\n  mstore\n  0x20\n  add\n  0x4e6f727468204b6f726561000000000000000000000000000000000000000000\n  dup2\n  mstore\n  pop\n  dup2\n  mstore\n  0x20\n  add\n  mload(0x40)\n  dup1\n  0x40\n  add\n  0x40\n  mstore\n  dup1\n  0x06\n  dup2\n  mstore\n  0x20\n  add\n  0x5275737369610000000000000000000000000000000000000000000000000000\n  dup2\n  mstore\n  pop\n  dup2\n  mstore\n  pop\n  0x00\n  swap1\n  0x03\n  tag_1\n  swap3\n  swap2\n  swap1\n  tag_2\n  jump\t// in\ntag_1:\n  pop\n    /* \"contracts/SgAML.sol\":167:169  30 */\n  0x1e\n    /* \"contracts/SgAML.sol\":150:169  uint maxAmount = 30 */\n  0x01\n  sstore\n    /* \"contracts/SgAML.sol\":60:925  contract SgAML{... */\n  callvalue\n  dup1\n  iszero\n  tag_3\n  jumpi\n  0x00\n  dup1\n  revert\ntag_3:\n  pop\n  jump(tag_4)\ntag_2:\n  dup3\n  dup1\n  sload\n  dup3\n  dup3\n  sstore\n  swap1\n  0x00\n  mstore\n  keccak256(0x00, 0x20)\n  swap1\n  dup2\n  add\n  swap3\n  dup3\n  iszero\n  tag_5\n  jumpi\n  swap2\n  0x20\n  mul\n  dup3\n  add\ntag_6:\n  dup3\n  dup2\n  gt\n  iszero\n  tag_7\n  jumpi\n  dup3\n  mload\n  dup3\n  swap1\n  dup2\n  tag_8\n  swap2\n  swap1\n  tag_9\n  jump\t// in\ntag_8:\n  pop\n  swap2\n  0x20\n  add\n  swap2\n  swap1\n  0x01\n  add\n  swap1\n  jump(tag_6)\ntag_7:\ntag_5:\n  pop\n  swap1\n  pop\n  tag_10\n  swap2\n  swap1\n  tag_11\n  jump\t// in\ntag_10:\n  pop\n  swap1\n  jump\t// out\ntag_11:\ntag_12:\n  dup1\n  dup3\n  gt\n  iszero\n  tag_13\n  jumpi\n  0x00\n  dup2\n  dup2\n  tag_14\n  swap2\n  swap1\n  tag_15\n  jump\t// in\ntag_14:\n  pop\n  0x01\n  add\n  jump(tag_12)\ntag_13:\n  pop\n  swap1\n  jump\t// out\ntag_15:\n  pop\n  dup1\n  sload\n  tag_16\n  swap1\n  tag_17\n  jump\t// in\ntag_16:\n  0x00\n  dup3\n  sstore\n  dup1\n  0x1f\n  lt\n  tag_19\n  jumpi\n  pop\n  jump(tag_18)\ntag_19:\n  0x1f\n  add\n  0x20\n  swap1\n  div\n  swap1\n  0x00\n  mstore\n  keccak256(0x00, 0x20)\n  swap1\n  dup2\n  add\n  swap1\n  tag_20\n  swap2\n  swap1\n  tag_21\n  jump\t// in\ntag_20:\ntag_18:\n  pop\n  jump\t// out\ntag_21:\ntag_22:\n  dup1\n  dup3\n  gt\n  iszero\n  tag_23\n  jumpi\n  0x00\n  dup2\n  0x00\n  swap1\n  sstore\n  pop\n  0x01\n  add\n  jump(tag_22)\ntag_23:\n  pop\n  swap1\n  jump\t// out\n    /* \"#utility.yul\":7:106   */\ntag_24:\n    /* \"#utility.yul\":59:65   */\n  0x00\n    /* \"#utility.yul\":93:98   */\n  dup2\n    /* \"#utility.yul\":87:99   */\n  mload\n    /* \"#utility.yul\":77:99   */\n  swap1\n  pop\n    /* \"#utility.yul\":7:106   */\n  swap2\n  swap1\n  pop\n  jump\t// out\n    /* \"#utility.yul\":112:292   */\ntag_25:\n    /* \"#utility.yul\":160:237   */\n  0x4e487b7100000000000000000000000000000000000000000000000000000000\n    /* \"#utility.yul\":157:158   */\n  0x00\n    /* \"#utility.yul\":150:238   */\n  mstore\n    /* \"#utility.yul\":257:261   */\n  0x41\n    /* \"#utility.yul\":254:255   */\n  0x04\n    /* \"#utility.yul\":247:262   */\n  mstore\n    /* \"#utility.yul\":281:285   */\n  0x24\n    /* \"#utility.yul\":278:279   */\n  0x00\n    /* \"#utility.yul\":271:286   */\n  revert\n    /* \"#utility.yul\":298:478   */\ntag_26:\n    /* \"#utility.yul\":346:423   */\n  0x4e487b7100000000000000000000000000000000000000000000000000000000\n    /* \"#utility.yul\":343:344   */\n  0x00\n    /* \"#utility.yul\":336:424   */\n  mstore\n    /* \"#utility.yul\":443:447   */\n  0x22\n    /* \"#utility.yul\":440:441   */\n  0x04\n    /* \"#utility.yul\":433:448   */\n  mstore\n    /* \"#utility.yul\":467:471   */\n  0x24\n    /* \"#utility.yul\":464:465   */\n  0x00\n    /* \"#utility.yul\":457:472   */\n  revert\n    /* \"#utility.yul\":484:804   */\ntag_17:\n    /* \"#utility.yul\":528:534   */\n  0x00\n    /* \"#utility.yul\":565:566   */\n  0x02\n    /* \"#utility.yul\":559:563   */\n  dup3\n    /* \"#utility.yul\":555:567   */\n  div\n    /* \"#utility.yul\":545:567   */\n  swap1\n  pop\n    /* \"#utility.yul\":612:613   */\n  0x01\n    /* \"#utility.yul\":606:610   */\n  dup3\n    /* \"#utility.yul\":602:614   */\n  and\n    /* \"#utility.yul\":633:651   */\n  dup1\n    /* \"#utility.yul\":623:704   */\n  tag_48\n  jumpi\n    /* \"#utility.yul\":689:693   */\n  0x7f\n    /* \"#utility.yul\":681:687   */\n  dup3\n    /* \"#utility.yul\":677:694   */\n  and\n    /* \"#utility.yul\":667:694   */\n  swap2\n  pop\n    /* \"#utility.yul\":623:704   */\ntag_48:\n    /* \"#utility.yul\":751:753   */\n  0x20\n    /* \"#utility.yul\":743:749   */\n  dup3\n    /* \"#utility.yul\":740:754   */\n  lt\n    /* \"#utility.yul\":720:738   */\n  dup2\n    /* \"#utility.yul\":717:755   */\n  sub\n    /* \"#utility.yul\":714:798   */\n  tag_49\n  jumpi\n    /* \"#utility.yul\":770:788   */\n  tag_50\n  tag_26\n  jump\t// in\ntag_50:\n    /* \"#utility.yul\":714:798   */\ntag_49:\n    /* \"#utility.yul\":535:804   */\n  pop\n    /* \"#utility.yul\":484:804   */\n  swap2\n  swap1\n  pop\n  jump\t// out\n    /* \"#utility.yul\":810:951   */\ntag_27:\n    /* \"#utility.yul\":859:863   */\n  0x00\n    /* \"#utility.yul\":882:885   */\n  dup2\n    /* \"#utility.yul\":874:885   */\n  swap1\n  pop\n    /* \"#utility.yul\":905:908   */\n  dup2\n    /* \"#utility.yul\":902:903   */\n  0x00\n    /* \"#utility.yul\":895:909   */\n  mstore\n    /* \"#utility.yul\":939:943   */\n  0x20\n    /* \"#utility.yul\":936:937   */\n  0x00\n    /* \"#utility.yul\":926:944   */\n  keccak256\n    /* \"#utility.yul\":918:944   */\n  swap1\n  pop\n    /* \"#utility.yul\":810:951   */\n  swap2\n  swap1\n  pop\n  jump\t// out\n    /* \"#utility.yul\":957:1050   */\ntag_28:\n    /* \"#utility.yul\":994:1000   */\n  0x00\n    /* \"#utility.yul\":1041:1043   */\n  0x20\n    /* \"#utility.yul\":1036:1038   */\n  0x1f\n    /* \"#utility.yul\":1029:1034   */\n  dup4\n    /* \"#utility.yul\":1025:1039   */\n  add\n    /* \"#utility.yul\":1021:1044   */\n  div\n    /* \"#utility.yul\":1011:1044   */\n  swap1\n  pop\n    /* \"#utility.yul\":957:1050   */\n  swap2\n  swap1\n  pop\n  jump\t// out\n    /* \"#utility.yul\":1056:1163   */\ntag_29:\n    /* \"#utility.yul\":1100:1108   */\n  0x00\n    /* \"#utility.yul\":1150:1155   */\n  dup3\n    /* \"#utility.yul\":1144:1148   */\n  dup3\n    /* \"#utility.yul\":1140:1156   */\n  shl\n    /* \"#utility.yul\":1119:1156   */\n  swap1\n  pop\n    /* \"#utility.yul\":1056:1163   */\n  swap3\n  swap2\n  pop\n  pop\n  jump\t// out\n    /* \"#utility.yul\":1169:1562   */\ntag_30:\n    /* \"#utility.yul\":1238:1244   */\n  0x00\n    /* \"#utility.yul\":1288:1289   */\n  0x08\n    /* \"#utility.yul\":1276:1286   */\n  dup4\n    /* \"#utility.yul\":1272:1290   */\n  mul\n    /* \"#utility.yul\":1311:1408   */\n  tag_55\n    /* \"#utility.yul\":1341:1407   */\n  0xffffffffffffffffffffffffffffffffffffffffffffffffffffffffffffffff\n    /* \"#utility.yul\":1330:1339   */\n  dup3\n    /* \"#utility.yul\":1311:1408   */\n  tag_29\n  jump\t// in\ntag_55:\n    /* \"#utility.yul\":1429:1468   */\n  tag_56\n    /* \"#utility.yul\":1459:1467   */\n  dup7\n    /* \"#utility.yul\":1448:1457   */\n  dup4\n    /* \"#utility.yul\":1429:1468   */\n  tag_29\n  jump\t// in\ntag_56:\n    /* \"#utility.yul\":1417:1468   */\n  swap6\n  pop\n    /* \"#utility.yul\":1501:1505   */\n  dup1\n    /* \"#utility.yul\":1497:1506   */\n  not\n    /* \"#utility.yul\":1490:1495   */\n  dup5\n    /* \"#utility.yul\":1486:1507   */\n  and\n    /* \"#utility.yul\":1477:1507   */\n  swap4\n  pop\n    /* \"#utility.yul\":1550:1554   */\n  dup1\n    /* \"#utility.yul\":1540:1548   */\n  dup7\n    /* \"#utility.yul\":1536:1555   */\n  and\n    /* \"#utility.yul\":1529:1534   */\n  dup5\n    /* \"#utility.yul\":1526:1556   */\n  or\n    /* \"#utility.yul\":1516:1556   */\n  swap3\n  pop\n    /* \"#utility.yul\":1245:1562   */\n  pop\n  pop\n    /* \"#utility.yul\":1169:1562   */\n  swap4\n  swap3\n  pop\n  pop\n  pop\n  jump\t// out\n    /* \"#utility.yul\":1568:1645   */\ntag_31:\n    /* \"#utility.yul\":1605:1612   */\n  0x00\n    /* \"#utility.yul\":1634:1639   */\n  dup2\n    /* \"#utility.yul\":1623:1639   */\n  swap1\n  pop\n    /* \"#utility.yul\":1568:1645   */\n  swap2\n  swap1\n  pop\n  jump\t// out\n    /* \"#utility.yul\":1651:1711   */\ntag_32:\n    /* \"#utility.yul\":1679:1682   */\n  0x00\n    /* \"#utility.yul\":1700:1705   */\n  dup2\n    /* \"#utility.yul\":1693:1705   */\n  swap1\n  pop\n    /* \"#utility.yul\":1651:1711   */\n  swap2\n  swap1\n  pop\n  jump\t// out\n    /* \"#utility.yul\":1717:1859   */\ntag_33:\n    /* \"#utility.yul\":1767:1776   */\n  0x00\n    /* \"#utility.yul\":1800:1853   */\n  tag_60\n    /* \"#utility.yul\":1818:1852   */\n  tag_61\n    /* \"#utility.yul\":1827:1851   */\n  tag_62\n    /* \"#utility.yul\":1845:1850   */\n  dup5\n    /* \"#utility.yul\":1827:1851   */\n  tag_31\n  jump\t// in\ntag_62:\n    /* \"#utility.yul\":1818:1852   */\n  tag_32\n  jump\t// in\ntag_61:\n    /* \"#utility.yul\":1800:1853   */\n  tag_31\n  jump\t// in\ntag_60:\n    /* \"#utility.yul\":1787:1853   */\n  swap1\n  pop\n    /* \"#utility.yul\":1717:1859   */\n  swap2\n  swap1\n  pop\n  jump\t// out\n    /* \"#utility.yul\":1865:1940   */\ntag_34:\n    /* \"#utility.yul\":1908:1911   */\n  0x00\n    /* \"#utility.yul\":1929:1934   */\n  dup2\n    /* \"#utility.yul\":1922:1934   */\n  swap1\n  pop\n    /* \"#utility.yul\":1865:1940   */\n  swap2\n  swap1\n  pop\n  jump\t// out\n    /* \"#utility.yul\":1946:2215   */\ntag_35:\n    /* \"#utility.yul\":2056:2095   */\n  tag_65\n    /* \"#utility.yul\":2087:2094   */\n  dup4\n    /* \"#utility.yul\":2056:2095   */\n  tag_33\n  jump\t// in\ntag_65:\n    /* \"#utility.yul\":2117:2208   */\n  tag_66\n    /* \"#utility.yul\":2166:2207   */\n  tag_67\n    /* \"#utility.yul\":2190:2206   */\n  dup3\n    /* \"#utility.yul\":2166:2207   */\n  tag_34\n  jump\t// in\ntag_67:\n    /* \"#utility.yul\":2158:2164   */\n  dup5\n    /* \"#utility.yul\":2151:2155   */\n  dup5\n    /* \"#utility.yul\":2145:2156   */\n  sload\n    /* \"#utility.yul\":2117:2208   */\n  tag_30\n  jump\t// in\ntag_66:\n    /* \"#utility.yul\":2111:2115   */\n  dup3\n    /* \"#utility.yul\":2104:2209   */\n  sstore\n    /* \"#utility.yul\":2022:2215   */\n  pop\n    /* \"#utility.yul\":1946:2215   */\n  pop\n  pop\n  pop\n  jump\t// out\n    /* \"#utility.yul\":2221:2294   */\ntag_36:\n    /* \"#utility.yul\":2266:2269   */\n  0x00\n    /* \"#utility.yul\":2221:2294   */\n  swap1\n  jump\t// out\n    /* \"#utility.yul\":2300:2489   */\ntag_37:\n    /* \"#utility.yul\":2377:2409   */\n  tag_70\n  tag_36\n  jump\t// in\ntag_70:\n    /* \"#utility.yul\":2418:2483   */\n  tag_71\n    /* \"#utility.yul\":2476:2482   */\n  dup2\n    /* \"#utility.yul\":2468:2474   */\n  dup5\n    /* \"#utility.yul\":2462:2466   */\n  dup5\n    /* \"#utility.yul\":2418:2483   */\n  tag_35\n  jump\t// in\ntag_71:\n    /* \"#utility.yul\":2353:2489   */\n  pop\n    /* \"#utility.yul\":2300:2489   */\n  pop\n  pop\n  jump\t// out\n    /* \"#utility.yul\":2495:2681   */\ntag_38:\n    /* \"#utility.yul\":2555:2675   */\ntag_73:\n    /* \"#utility.yul\":2572:2575   */\n  dup2\n    /* \"#utility.yul\":2565:2570   */\n  dup2\n    /* \"#utility.yul\":2562:2576   */\n  lt\n    /* \"#utility.yul\":2555:2675   */\n  iszero\n  tag_75\n  jumpi\n    /* \"#utility.yul\":2626:2665   */\n  tag_76\n    /* \"#utility.yul\":2663:2664   */\n  0x00\n    /* \"#utility.yul\":2656:2661   */\n  dup3\n    /* \"#utility.yul\":2626:2665   */\n  tag_37\n  jump\t// in\ntag_76:\n    /* \"#utility.yul\":2599:2600   */\n  0x01\n    /* \"#utility.yul\":2592:2597   */\n  dup2\n    /* \"#utility.yul\":2588:2601   */\n  add\n    /* \"#utility.yul\":2579:2601   */\n  swap1\n  pop\n    /* \"#utility.yul\":2555:2675   */\n  jump(tag_73)\ntag_75:\n    /* \"#utility.yul\":2495:2681   */\n  pop\n  pop\n  jump\t// out\n    /* \"#utility.yul\":2687:3230   */\ntag_39:\n    /* \"#utility.yul\":2788:2790   */\n  0x1f\n    /* \"#utility.yul\":2783:2786   */\n  dup3\n    /* \"#utility.yul\":2780:2791   */\n  gt\n    /* \"#utility.yul\":2777:3223   */\n  iszero\n  tag_78\n  jumpi\n    /* \"#utility.yul\":2822:2860   */\n  tag_79\n    /* \"#utility.yul\":2854:2859   */\n  dup2\n    /* \"#utility.yul\":2822:2860   */\n  tag_27\n  jump\t// in\ntag_79:\n    /* \"#utility.yul\":2906:2935   */\n  tag_80\n    /* \"#utility.yul\":2924:2934   */\n  dup5\n    /* \"#utility.yul\":2906:2935   */\n  tag_28\n  jump\t// in\ntag_80:\n    /* \"#utility.yul\":2896:2904   */\n  dup2\n    /* \"#utility.yul\":2892:2936   */\n  add\n    /* \"#utility.yul\":3089:3091   */\n  0x20\n    /* \"#utility.yul\":3077:3087   */\n  dup6\n    /* \"#utility.yul\":3074:3092   */\n  lt\n    /* \"#utility.yul\":3071:3120   */\n  iszero\n  tag_81\n  jumpi\n    /* \"#utility.yul\":3110:3118   */\n  dup2\n    /* \"#utility.yul\":3095:3118   */\n  swap1\n  pop\n    /* \"#utility.yul\":3071:3120   */\ntag_81:\n    /* \"#utility.yul\":3133:3213   */\n  tag_82\n    /* \"#utility.yul\":3189:3211   */\n  tag_83\n    /* \"#utility.yul\":3207:3210   */\n  dup6\n    /* \"#utility.yul\":3189:3211   */\n  tag_28\n  jump\t// in\ntag_83:\n    /* \"#utility.yul\":3179:3187   */\n  dup4\n    /* \"#utility.yul\":3175:3212   */\n  add\n    /* \"#utility.yul\":3162:3173   */\n  dup3\n    /* \"#utility.yul\":3133:3213   */\n  tag_38\n  jump\t// in\ntag_82:\n    /* \"#utility.yul\":2792:3223   */\n  pop\n  pop\n    /* \"#utility.yul\":2777:3223   */\ntag_78:\n    /* \"#utility.yul\":2687:3230   */\n  pop\n  pop\n  pop\n  jump\t// out\n    /* \"#utility.yul\":3236:3353   */\ntag_40:\n    /* \"#utility.yul\":3290:3298   */\n  0x00\n    /* \"#utility.yul\":3340:3345   */\n  dup3\n    /* \"#utility.yul\":3334:3338   */\n  dup3\n    /* \"#utility.yul\":3330:3346   */\n  shr\n    /* \"#utility.yul\":3309:3346   */\n  swap1\n  pop\n    /* \"#utility.yul\":3236:3353   */\n  swap3\n  swap2\n  pop\n  pop\n  jump\t// out\n    /* \"#utility.yul\":3359:3528   */\ntag_41:\n    /* \"#utility.yul\":3403:3409   */\n  0x00\n    /* \"#utility.yul\":3436:3487   */\n  tag_86\n    /* \"#utility.yul\":3484:3485   */\n  0x00\n    /* \"#utility.yul\":3480:3486   */\n  not\n    /* \"#utility.yul\":3472:3477   */\n  dup5\n    /* \"#utility.yul\":3469:3470   */\n  0x08\n    /* \"#utility.yul\":3465:3478   */\n  mul\n    /* \"#utility.yul\":3436:3487   */\n  tag_40\n  jump\t// in\ntag_86:\n    /* \"#utility.yul\":3432:3488   */\n  not\n    /* \"#utility.yul\":3517:3521   */\n  dup1\n    /* \"#utility.yul\":3511:3515   */\n  dup4\n    /* \"#utility.yul\":3507:3522   */\n  and\n    /* \"#utility.yul\":3497:3522   */\n  swap2\n  pop\n    /* \"#utility.yul\":3410:3528   */\n  pop\n    /* \"#utility.yul\":3359:3528   */\n  swap3\n  swap2\n  pop\n  pop\n  jump\t// out\n    /* \"#utility.yul\":3533:3828   */\ntag_42:\n    /* \"#utility.yul\":3609:3613   */\n  0x00\n    /* \"#utility.yul\":3755:3784   */\n  tag_88\n    /* \"#utility.yul\":3780:3783   */\n  dup4\n    /* \"#utility.yul\":3774:3778   */\n  dup4\n    /* \"#utility.yul\":3755:3784   */\n  tag_41\n  jump\t// in\ntag_88:\n    /* \"#utility.yul\":3747:3784   */\n  swap2\n  pop\n    /* \"#utility.yul\":3817:3820   */\n  dup3\n    /* \"#utility.yul\":3814:3815   */\n  0x02\n    /* \"#utility.yul\":3810:3821   */\n  mul\n    /* \"#utility.yul\":3804:3808   */\n  dup3\n    /* \"#utility.yul\":3801:3822   */\n  or\n    /* \"#utility.yul\":3793:3822   */\n  swap1\n  pop\n    /* \"#utility.yul\":3533:3828   */\n  swap3\n  swap2\n  pop\n  pop\n  jump\t// out\n    /* \"#utility.yul\":3833:5228   */\ntag_9:\n    /* \"#utility.yul\":3950:3987   */\n  tag_90\n    /* \"#utility.yul\":3983:3986   */\n  dup3\n    /* \"#utility.yul\":3950:3987   */\n  tag_24\n  jump\t// in\ntag_90:\n    /* \"#utility.yul\":4052:4070   */\n  0xffffffffffffffff\n    /* \"#utility.yul\":4044:4050   */\n  dup2\n    /* \"#utility.yul\":4041:4071   */\n  gt\n    /* \"#utility.yul\":4038:4094   */\n  iszero\n  tag_91\n  jumpi\n    /* \"#utility.yul\":4074:4092   */\n  tag_92\n  tag_25\n  jump\t// in\ntag_92:\n    /* \"#utility.yul\":4038:4094   */\ntag_91:\n    /* \"#utility.yul\":4118:4156   */\n  tag_93\n    /* \"#utility.yul\":4150:4154   */\n  dup3\n    /* \"#utility.yul\":4144:4155   */\n  sload\n    /* \"#utility.yul\":4118:4156   */\n  tag_17\n  jump\t// in\ntag_93:\n    /* \"#utility.yul\":4203:4270   */\n  tag_94\n    /* \"#utility.yul\":4263:4269   */\n  dup3\n    /* \"#utility.yul\":4255:4261   */\n  dup3\n    /* \"#utility.yul\":4249:4253   */\n  dup6\n    /* \"#utility.yul\":4203:4270   */\n  tag_39\n  jump\t// in\ntag_94:\n    /* \"#utility.yul\":4297:4298   */\n  0x00\n    /* \"#utility.yul\":4321:4325   */\n  0x20\n    /* \"#utility.yul\":4308:4325   */\n  swap1\n  pop\n    /* \"#utility.yul\":4353:4355   */\n  0x1f\n    /* \"#utility.yul\":4345:4351   */\n  dup4\n    /* \"#utility.yul\":4342:4356   */\n  gt\n    /* \"#utility.yul\":4370:4371   */\n  0x01\n    /* \"#utility.yul\":4365:4983   */\n  dup2\n  eq\n  tag_96\n  jumpi\n    /* \"#utility.yul\":5027:5028   */\n  0x00\n    /* \"#utility.yul\":5044:5050   */\n  dup5\n    /* \"#utility.yul\":5041:5118   */\n  iszero\n  tag_97\n  jumpi\n    /* \"#utility.yul\":5093:5102   */\n  dup3\n    /* \"#utility.yul\":5088:5091   */\n  dup8\n    /* \"#utility.yul\":5084:5103   */\n  add\n    /* \"#utility.yul\":5078:5104   */\n  mload\n    /* \"#utility.yul\":5069:5104   */\n  swap1\n  pop\n    /* \"#utility.yul\":5041:5118   */\ntag_97:\n    /* \"#utility.yul\":5144:5211   */\n  tag_98\n    /* \"#utility.yul\":5204:5210   */\n  dup6\n    /* \"#utility.yul\":5197:5202   */\n  dup3\n    /* \"#utility.yul\":5144:5211   */\n  tag_42\n  jump\t// in\ntag_98:\n    /* \"#utility.yul\":5138:5142   */\n  dup7\n    /* \"#utility.yul\":5131:5212   */\n  sstore\n    /* \"#utility.yul\":5000:5222   */\n  pop\n    /* \"#utility.yul\":4335:5222   */\n  jump(tag_95)\n    /* \"#utility.yul\":4365:4983   */\ntag_96:\n    /* \"#utility.yul\":4417:4421   */\n  0x1f\n    /* \"#utility.yul\":4413:4422   */\n  not\n    /* \"#utility.yul\":4405:4411   */\n  dup5\n    /* \"#utility.yul\":4401:4423   */\n  and\n    /* \"#utility.yul\":4451:4488   */\n  tag_99\n    /* \"#utility.yul\":4483:4487   */\n  dup7\n    /* \"#utility.yul\":4451:4488   */\n  tag_27\n  jump\t// in\ntag_99:\n    /* \"#utility.yul\":4510:4511   */\n  0x00\n    /* \"#utility.yul\":4524:4732   */\ntag_100:\n    /* \"#utility.yul\":4538:4545   */\n  dup3\n    /* \"#utility.yul\":4535:4536   */\n  dup2\n    /* \"#utility.yul\":4532:4546   */\n  lt\n    /* \"#utility.yul\":4524:4732   */\n  iszero\n  tag_102\n  jumpi\n    /* \"#utility.yul\":4617:4626   */\n  dup5\n    /* \"#utility.yul\":4612:4615   */\n  dup10\n    /* \"#utility.yul\":4608:4627   */\n  add\n    /* \"#utility.yul\":4602:4628   */\n  mload\n    /* \"#utility.yul\":4594:4600   */\n  dup3\n    /* \"#utility.yul\":4587:4629   */\n  sstore\n    /* \"#utility.yul\":4668:4669   */\n  0x01\n    /* \"#utility.yul\":4660:4666   */\n  dup3\n    /* \"#utility.yul\":4656:4670   */\n  add\n    /* \"#utility.yul\":4646:4670   */\n  swap2\n  pop\n    /* \"#utility.yul\":4715:4717   */\n  0x20\n    /* \"#utility.yul\":4704:4713   */\n  dup6\n    /* \"#utility.yul\":4700:4718   */\n  add\n    /* \"#utility.yul\":4687:4718   */\n  swap5\n  pop\n    /* \"#utility.yul\":4561:4565   */\n  0x20\n    /* \"#utility.yul\":4558:4559   */\n  dup2\n    /* \"#utility.yul\":4554:4566   */\n  add\n    /* \"#utility.yul\":4549:4566   */\n  swap1\n  pop\n    /* \"#utility.yul\":4524:4732   */\n  jump(tag_100)\ntag_102:\n    /* \"#utility.yul\":4760:4766   */\n  dup7\n    /* \"#utility.yul\":4751:4758   */\n  dup4\n    /* \"#utility.yul\":4748:4767   */\n  lt\n    /* \"#utility.yul\":4745:4924   */\n  iszero\n  tag_103\n  jumpi\n    /* \"#utility.yul\":4818:4827   */\n  dup5\n    /* \"#utility.yul\":4813:4816   */\n  dup10\n    /* \"#utility.yul\":4809:4828   */\n  add\n    /* \"#utility.yul\":4803:4829   */\n  mload\n    /* \"#utility.yul\":4861:4909   */\n  tag_104\n    /* \"#utility.yul\":4903:4907   */\n  0x1f\n    /* \"#utility.yul\":4895:4901   */\n  dup10\n    /* \"#utility.yul\":4891:4908   */\n  and\n    /* \"#utility.yul\":4880:4889   */\n  dup3\n    /* \"#utility.yul\":4861:4909   */\n  tag_41\n  jump\t// in\ntag_104:\n    /* \"#utility.yul\":4853:4859   */\n  dup4\n    /* \"#utility.yul\":4846:4910   */\n  sstore\n    /* \"#utility.yul\":4768:4924   */\n  pop\n    /* \"#utility.yul\":4745:4924   */\ntag_103:\n    /* \"#utility.yul\":4970:4971   */\n  0x01\n    /* \"#utility.yul\":4966:4967   */\n  0x02\n    /* \"#utility.yul\":4958:4964   */\n  dup9\n    /* \"#utility.yul\":4954:4968   */\n  mul\n    /* \"#utility.yul\":4950:4972   */\n  add\n    /* \"#utility.yul\":4944:4948   */\n  dup9\n    /* \"#utility.yul\":4937:4973   */\n  sstore\n    /* \"#utility.yul\":4372:4983   */\n  pop\n  pop\n  pop\n    /* \"#utility.yul\":4335:5222   */\ntag_95:\n  pop\n    /* \"#utility.yul\":3925:5228   */\n  pop\n  pop\n  pop\n    /* \"#utility.yul\":3833:5228   */\n  pop\n  pop\n  jump\t// out\n    /* \"contracts/SgAML.sol\":60:925  contract SgAML{... */\ntag_4:\n  dataSize(sub_0)\n  dup1\n  dataOffset(sub_0)\n  0x00\n  codecopy\n  0x00\n  return\nstop\n\nsub_0: assembly {\n        /* \"contracts/SgAML.sol\":60:925  contract SgAML{... */\n      mstore(0x40, 0x80)\n      jumpi(tag_1, lt(calldatasize, 0x04))\n      shr(0xe0, calldataload(0x00))\n      dup1\n      0x708c079d\n      eq\n      tag_2\n      jumpi\n      dup1\n      0x7b0b53f0\n      eq\n      tag_3\n      jumpi\n      dup1\n      0xbd799295\n      eq\n      tag_4\n      jumpi\n    tag_1:\n      0x00\n      dup1\n      revert\n        /* \"contracts/SgAML.sol\":586:717  function checkPoliticalStatus(bool isPoliticallyExposed) public pure returns(bool){... */\n    tag_2:\n      callvalue\n      dup1\n      iszero\n      tag_5\n      jumpi\n      0x00\n      dup1\n      revert\n    tag_5:\n      pop\n      tag_6\n      0x04\n      dup1\n      calldatasize\n      sub\n      dup2\n      add\n      swap1\n      tag_7\n      swap2\n      swap1\n      tag_8\n      jump\t// in\n    tag_7:\n      tag_9\n      jump\t// in\n    tag_6:\n      mload(0x40)\n      tag_10\n      swap2\n      swap1\n      tag_11\n      jump\t// in\n    tag_10:\n      mload(0x40)\n      dup1\n      swap2\n      sub\n      swap1\n      return\n        /* \"contracts/SgAML.sol\":179:578  function checkNationality(string memory userNationality) public view returns(bool){... */\n    tag_3:\n      callvalue\n      dup1\n      iszero\n      tag_12\n      jumpi\n      0x00\n      dup1\n      revert\n    tag_12:\n      pop\n      tag_13\n      0x04\n      dup1\n      calldatasize\n      sub\n      dup2\n      add\n      swap1\n      tag_14\n      swap2\n      swap1\n      tag_15\n      jump\t// in\n    tag_14:\n      tag_16\n      jump\t// in\n    tag_13:\n      mload(0x40)\n      tag_17\n      swap2\n      swap1\n      tag_11\n      jump\t// in\n    tag_17:\n      mload(0x40)\n      dup1\n      swap2\n      sub\n      swap1\n      return\n        /* \"contracts/SgAML.sol\":725:910  function checkAmt(address payable sender, uint amount) public payable returns(bool) {... */\n    tag_4:\n      tag_18\n      0x04\n      dup1\n      calldatasize\n      sub\n      dup2\n      add\n      swap1\n      tag_19\n      swap2\n      swap1\n      tag_20\n      jump\t// in\n    tag_19:\n      tag_21\n      jump\t// in\n    tag_18:\n      mload(0x40)\n      tag_22\n      swap2\n      swap1\n      tag_11\n      jump\t// in\n    tag_22:\n      mload(0x40)\n      dup1\n      swap2\n      sub\n      swap1\n      return\n        /* \"contracts/SgAML.sol\":586:717  function checkPoliticalStatus(bool isPoliticallyExposed) public pure returns(bool){... */\n    tag_9:\n        /* \"contracts/SgAML.sol\":663:667  bool */\n      0x00\n        /* \"contracts/SgAML.sol\":689:709  isPoliticallyExposed */\n      dup2\n        /* \"contracts/SgAML.sol\":681:709  return  isPoliticallyExposed */\n      swap1\n      pop\n        /* \"contracts/SgAML.sol\":586:717  function checkPoliticalStatus(bool isPoliticallyExposed) public pure returns(bool){... */\n      swap2\n      swap1\n      pop\n      jump\t// out\n        /* \"contracts/SgAML.sol\":179:578  function checkNationality(string memory userNationality) public view returns(bool){... */\n    tag_16:\n        /* \"contracts/SgAML.sol\":256:260  bool */\n      0x00\n        /* \"contracts/SgAML.sol\":334:340  uint i */\n      dup1\n        /* \"contracts/SgAML.sol\":343:344  0 */\n      0x00\n        /* \"contracts/SgAML.sol\":334:344  uint i = 0 */\n      swap1\n      pop\n        /* \"contracts/SgAML.sol\":329:548  for (uint i = 0; i < bannedCountries.length; i++) {... */\n    tag_25:\n        /* \"contracts/SgAML.sol\":350:365  bannedCountries */\n      0x00\n        /* \"contracts/SgAML.sol\":350:372  bannedCountries.length */\n      dup1\n      sload\n      swap1\n      pop\n        /* \"contracts/SgAML.sol\":346:347  i */\n      dup2\n        /* \"contracts/SgAML.sol\":346:372  i < bannedCountries.length */\n      lt\n        /* \"contracts/SgAML.sol\":329:548  for (uint i = 0; i < bannedCountries.length; i++) {... */\n      iszero\n      tag_26\n      jumpi\n        /* \"contracts/SgAML.sol\":476:491  userNationality */\n      dup3\n        /* \"contracts/SgAML.sol\":459:492  abi.encodePacked(userNationality) */\n      add(0x20, mload(0x40))\n      tag_28\n      swap2\n      swap1\n      tag_29\n      jump\t// in\n    tag_28:\n      mload(0x40)\n      0x20\n      dup2\n      dup4\n      sub\n      sub\n      dup2\n      mstore\n      swap1\n      0x40\n      mstore\n        /* \"contracts/SgAML.sol\":449:493  keccak256(abi.encodePacked(userNationality)) */\n      dup1\n      mload\n      swap1\n      0x20\n      add\n      keccak256\n        /* \"contracts/SgAML.sol\":425:440  bannedCountries */\n      0x00\n        /* \"contracts/SgAML.sol\":441:442  i */\n      dup3\n        /* \"contracts/SgAML.sol\":425:443  bannedCountries[i] */\n      dup2\n      sload\n      dup2\n      lt\n      tag_30\n      jumpi\n      tag_31\n      tag_32\n      jump\t// in\n    tag_31:\n    tag_30:\n      swap1\n      0x00\n      mstore\n      keccak256(0x00, 0x20)\n      add\n        /* \"contracts/SgAML.sol\":408:444  abi.encodePacked(bannedCountries[i]) */\n      add(0x20, mload(0x40))\n      tag_34\n      swap2\n      swap1\n      tag_35\n      jump\t// in\n    tag_34:\n      mload(0x40)\n      0x20\n      dup2\n      dup4\n      sub\n      sub\n      dup2\n      mstore\n      swap1\n      0x40\n      mstore\n        /* \"contracts/SgAML.sol\":398:445  keccak256(abi.encodePacked(bannedCountries[i])) */\n      dup1\n      mload\n      swap1\n      0x20\n      add\n      keccak256\n        /* \"contracts/SgAML.sol\":398:493  keccak256(abi.encodePacked(bannedCountries[i])) == keccak256(abi.encodePacked(userNationality)) */\n      sub\n        /* \"contracts/SgAML.sol\":394:537  if (keccak256(abi.encodePacked(bannedCountries[i])) == keccak256(abi.encodePacked(userNationality))) {... */\n      tag_36\n      jumpi\n        /* \"contracts/SgAML.sol\":517:521  true */\n      0x01\n        /* \"contracts/SgAML.sol\":510:521  return true */\n      swap2\n      pop\n      pop\n      jump(tag_24)\n        /* \"contracts/SgAML.sol\":394:537  if (keccak256(abi.encodePacked(bannedCountries[i])) == keccak256(abi.encodePacked(userNationality))) {... */\n    tag_36:\n        /* \"contracts/SgAML.sol\":374:377  i++ */\n      dup1\n      dup1\n      tag_37\n      swap1\n      tag_38\n      jump\t// in\n    tag_37:\n      swap2\n      pop\n      pop\n        /* \"contracts/SgAML.sol\":329:548  for (uint i = 0; i < bannedCountries.length; i++) {... */\n      jump(tag_25)\n    tag_26:\n      pop\n        /* \"contracts/SgAML.sol\":565:570  false */\n      0x00\n        /* \"contracts/SgAML.sol\":558:570  return false */\n      swap1\n      pop\n        /* \"contracts/SgAML.sol\":179:578  function checkNationality(string memory userNationality) public view returns(bool){... */\n    tag_24:\n      swap2\n      swap1\n      pop\n      jump\t// out\n        /* \"contracts/SgAML.sol\":725:910  function checkAmt(address payable sender, uint amount) public payable returns(bool) {... */\n    tag_21:\n        /* \"contracts/SgAML.sol\":803:807  bool */\n      0x00\n        /* \"contracts/SgAML.sol\":830:839  maxAmount */\n      sload(0x01)\n        /* \"contracts/SgAML.sol\":823:829  amount */\n      dup3\n        /* \"contracts/SgAML.sol\":823:839  amount>maxAmount */\n      gt\n        /* \"contracts/SgAML.sol\":820:880  if(amount>maxAmount){... */\n      iszero\n      tag_40\n      jumpi\n        /* \"contracts/SgAML.sol\":862:867  false */\n      0x00\n        /* \"contracts/SgAML.sol\":855:867  return false */\n      swap1\n      pop\n      jump(tag_39)\n        /* \"contracts/SgAML.sol\":820:880  if(amount>maxAmount){... */\n    tag_40:\n        /* \"contracts/SgAML.sol\":897:901  true */\n      0x01\n        /* \"contracts/SgAML.sol\":890:901  return true */\n      swap1\n      pop\n        /* \"contracts/SgAML.sol\":725:910  function checkAmt(address payable sender, uint amount) public payable returns(bool) {... */\n    tag_39:\n      swap3\n      swap2\n      pop\n      pop\n      jump\t// out\n        /* \"#utility.yul\":7:82   */\n    tag_41:\n        /* \"#utility.yul\":40:46   */\n      0x00\n        /* \"#utility.yul\":73:75   */\n      0x40\n        /* \"#utility.yul\":67:76   */\n      mload\n        /* \"#utility.yul\":57:76   */\n      swap1\n      pop\n        /* \"#utility.yul\":7:82   */\n      swap1\n      jump\t// out\n        /* \"#utility.yul\":88:205   */\n    tag_42:\n        /* \"#utility.yul\":197:198   */\n      0x00\n        /* \"#utility.yul\":194:195   */\n      dup1\n        /* \"#utility.yul\":187:199   */\n      revert\n        /* \"#utility.yul\":211:328   */\n    tag_43:\n        /* \"#utility.yul\":320:321   */\n      0x00\n        /* \"#utility.yul\":317:318   */\n      dup1\n        /* \"#utility.yul\":310:322   */\n      revert\n        /* \"#utility.yul\":334:424   */\n    tag_44:\n        /* \"#utility.yul\":368:375   */\n      0x00\n        /* \"#utility.yul\":411:416   */\n      dup2\n        /* \"#utility.yul\":404:417   */\n      iszero\n        /* \"#utility.yul\":397:418   */\n      iszero\n        /* \"#utility.yul\":386:418   */\n      swap1\n      pop\n        /* \"#utility.yul\":334:424   */\n      swap2\n      swap1\n      pop\n      jump\t// out\n        /* \"#utility.yul\":430:546   */\n    tag_45:\n        /* \"#utility.yul\":500:521   */\n      tag_80\n        /* \"#utility.yul\":515:520   */\n      dup2\n        /* \"#utility.yul\":500:521   */\n      tag_44\n      jump\t// in\n    tag_80:\n        /* \"#utility.yul\":493:498   */\n      dup2\n        /* \"#utility.yul\":490:522   */\n      eq\n        /* \"#utility.yul\":480:540   */\n      tag_81\n      jumpi\n        /* \"#utility.yul\":536:537   */\n      0x00\n        /* \"#utility.yul\":533:534   */\n      dup1\n        /* \"#utility.yul\":526:538   */\n      revert\n        /* \"#utility.yul\":480:540   */\n    tag_81:\n        /* \"#utility.yul\":430:546   */\n      pop\n      jump\t// out\n        /* \"#utility.yul\":552:685   */\n    tag_46:\n        /* \"#utility.yul\":595:600   */\n      0x00\n        /* \"#utility.yul\":633:639   */\n      dup2\n        /* \"#utility.yul\":620:640   */\n      calldataload\n        /* \"#utility.yul\":611:640   */\n      swap1\n      pop\n        /* \"#utility.yul\":649:679   */\n      tag_83\n        /* \"#utility.yul\":673:678   */\n      dup2\n        /* \"#utility.yul\":649:679   */\n      tag_45\n      jump\t// in\n    tag_83:\n        /* \"#utility.yul\":552:685   */\n      swap3\n      swap2\n      pop\n      pop\n      jump\t// out\n        /* \"#utility.yul\":691:1014   */\n    tag_8:\n        /* \"#utility.yul\":747:753   */\n      0x00\n        /* \"#utility.yul\":796:798   */\n      0x20\n        /* \"#utility.yul\":784:793   */\n      dup3\n        /* \"#utility.yul\":775:782   */\n      dup5\n        /* \"#utility.yul\":771:794   */\n      sub\n        /* \"#utility.yul\":767:799   */\n      slt\n        /* \"#utility.yul\":764:883   */\n      iszero\n      tag_85\n      jumpi\n        /* \"#utility.yul\":802:881   */\n      tag_86\n      tag_42\n      jump\t// in\n    tag_86:\n        /* \"#utility.yul\":764:883   */\n    tag_85:\n        /* \"#utility.yul\":922:923   */\n      0x00\n        /* \"#utility.yul\":947:997   */\n      tag_87\n        /* \"#utility.yul\":989:996   */\n      dup5\n        /* \"#utility.yul\":980:986   */\n      dup3\n        /* \"#utility.yul\":969:978   */\n      dup6\n        /* \"#utility.yul\":965:987   */\n      add\n        /* \"#utility.yul\":947:997   */\n      tag_46\n      jump\t// in\n    tag_87:\n        /* \"#utility.yul\":937:997   */\n      swap2\n      pop\n        /* \"#utility.yul\":893:1007   */\n      pop\n        /* \"#utility.yul\":691:1014   */\n      swap3\n      swap2\n      pop\n      pop\n      jump\t// out\n        /* \"#utility.yul\":1020:1129   */\n    tag_47:\n        /* \"#utility.yul\":1101:1122   */\n      tag_89\n        /* \"#utility.yul\":1116:1121   */\n      dup2\n        /* \"#utility.yul\":1101:1122   */\n      tag_44\n      jump\t// in\n    tag_89:\n        /* \"#utility.yul\":1096:1099   */\n      dup3\n        /* \"#utility.yul\":1089:1123   */\n      mstore\n        /* \"#utility.yul\":1020:1129   */\n      pop\n      pop\n      jump\t// out\n        /* \"#utility.yul\":1135:1345   */\n    tag_11:\n        /* \"#utility.yul\":1222:1226   */\n      0x00\n        /* \"#utility.yul\":1260:1262   */\n      0x20\n        /* \"#utility.yul\":1249:1258   */\n      dup3\n        /* \"#utility.yul\":1245:1263   */\n      add\n        /* \"#utility.yul\":1237:1263   */\n      swap1\n      pop\n        /* \"#utility.yul\":1273:1338   */\n      tag_91\n        /* \"#utility.yul\":1335:1336   */\n      0x00\n        /* \"#utility.yul\":1324:1333   */\n      dup4\n        /* \"#utility.yul\":1320:1337   */\n      add\n        /* \"#utility.yul\":1311:1317   */\n      dup5\n        /* \"#utility.yul\":1273:1338   */\n      tag_47\n      jump\t// in\n    tag_91:\n        /* \"#utility.yul\":1135:1345   */\n      swap3\n      swap2\n      pop\n      pop\n      jump\t// out\n        /* \"#utility.yul\":1351:1468   */\n    tag_48:\n        /* \"#utility.yul\":1460:1461   */\n      0x00\n        /* \"#utility.yul\":1457:1458   */\n      dup1\n        /* \"#utility.yul\":1450:1462   */\n      revert\n        /* \"#utility.yul\":1474:1591   */\n    tag_49:\n        /* \"#utility.yul\":1583:1584   */\n      0x00\n        /* \"#utility.yul\":1580:1581   */\n      dup1\n        /* \"#utility.yul\":1573:1585   */\n      revert\n        /* \"#utility.yul\":1597:1699   */\n    tag_50:\n        /* \"#utility.yul\":1638:1644   */\n      0x00\n        /* \"#utility.yul\":1689:1691   */\n      0x1f\n        /* \"#utility.yul\":1685:1692   */\n      not\n        /* \"#utility.yul\":1680:1682   */\n      0x1f\n        /* \"#utility.yul\":1673:1678   */\n      dup4\n        /* \"#utility.yul\":1669:1683   */\n      add\n        /* \"#utility.yul\":1665:1693   */\n      and\n        /* \"#utility.yul\":1655:1693   */\n      swap1\n      pop\n        /* \"#utility.yul\":1597:1699   */\n      swap2\n      swap1\n      pop\n      jump\t// out\n        /* \"#utility.yul\":1705:1885   */\n    tag_51:\n        /* \"#utility.yul\":1753:1830   */\n      0x4e487b7100000000000000000000000000000000000000000000000000000000\n        /* \"#utility.yul\":1750:1751   */\n      0x00\n        /* \"#utility.yul\":1743:1831   */\n      mstore\n        /* \"#utility.yul\":1850:1854   */\n      0x41\n        /* \"#utility.yul\":1847:1848   */\n      0x04\n        /* \"#utility.yul\":1840:1855   */\n      mstore\n        /* \"#utility.yul\":1874:1878   */\n      0x24\n        /* \"#utility.yul\":1871:1872   */\n      0x00\n        /* \"#utility.yul\":1864:1879   */\n      revert\n        /* \"#utility.yul\":1891:2172   */\n    tag_52:\n        /* \"#utility.yul\":1974:2001   */\n      tag_97\n        /* \"#utility.yul\":1996:2000   */\n      dup3\n        /* \"#utility.yul\":1974:2001   */\n      tag_50\n      jump\t// in\n    tag_97:\n        /* \"#utility.yul\":1966:1972   */\n      dup2\n        /* \"#utility.yul\":1962:2002   */\n      add\n        /* \"#utility.yul\":2104:2110   */\n      dup2\n        /* \"#utility.yul\":2092:2102   */\n      dup2\n        /* \"#utility.yul\":2089:2111   */\n      lt\n        /* \"#utility.yul\":2068:2086   */\n      0xffffffffffffffff\n        /* \"#utility.yul\":2056:2066   */\n      dup3\n        /* \"#utility.yul\":2053:2087   */\n      gt\n        /* \"#utility.yul\":2050:2112   */\n      or\n        /* \"#utility.yul\":2047:2135   */\n      iszero\n      tag_98\n      jumpi\n        /* \"#utility.yul\":2115:2133   */\n      tag_99\n      tag_51\n      jump\t// in\n    tag_99:\n        /* \"#utility.yul\":2047:2135   */\n    tag_98:\n        /* \"#utility.yul\":2155:2165   */\n      dup1\n        /* \"#utility.yul\":2151:2153   */\n      0x40\n        /* \"#utility.yul\":2144:2166   */\n      mstore\n        /* \"#utility.yul\":1934:2172   */\n      pop\n        /* \"#utility.yul\":1891:2172   */\n      pop\n      pop\n      jump\t// out\n        /* \"#utility.yul\":2178:2307   */\n    tag_53:\n        /* \"#utility.yul\":2212:2218   */\n      0x00\n        /* \"#utility.yul\":2239:2259   */\n      tag_101\n      tag_41\n      jump\t// in\n    tag_101:\n        /* \"#utility.yul\":2229:2259   */\n      swap1\n      pop\n        /* \"#utility.yul\":2268:2301   */\n      tag_102\n        /* \"#utility.yul\":2296:2300   */\n      dup3\n        /* \"#utility.yul\":2288:2294   */\n      dup3\n        /* \"#utility.yul\":2268:2301   */\n      tag_52\n      jump\t// in\n    tag_102:\n        /* \"#utility.yul\":2178:2307   */\n      swap2\n      swap1\n      pop\n      jump\t// out\n        /* \"#utility.yul\":2313:2621   */\n    tag_54:\n        /* \"#utility.yul\":2375:2379   */\n      0x00\n        /* \"#utility.yul\":2465:2483   */\n      0xffffffffffffffff\n        /* \"#utility.yul\":2457:2463   */\n      dup3\n        /* \"#utility.yul\":2454:2484   */\n      gt\n        /* \"#utility.yul\":2451:2507   */\n      iszero\n      tag_104\n      jumpi\n        /* \"#utility.yul\":2487:2505   */\n      tag_105\n      tag_51\n      jump\t// in\n    tag_105:\n        /* \"#utility.yul\":2451:2507   */\n    tag_104:\n        /* \"#utility.yul\":2525:2554   */\n      tag_106\n        /* \"#utility.yul\":2547:2553   */\n      dup3\n        /* \"#utility.yul\":2525:2554   */\n      tag_50\n      jump\t// in\n    tag_106:\n        /* \"#utility.yul\":2517:2554   */\n      swap1\n      pop\n        /* \"#utility.yul\":2609:2613   */\n      0x20\n        /* \"#utility.yul\":2603:2607   */\n      dup2\n        /* \"#utility.yul\":2599:2614   */\n      add\n        /* \"#utility.yul\":2591:2614   */\n      swap1\n      pop\n        /* \"#utility.yul\":2313:2621   */\n      swap2\n      swap1\n      pop\n      jump\t// out\n        /* \"#utility.yul\":2627:2773   */\n    tag_55:\n        /* \"#utility.yul\":2724:2730   */\n      dup3\n        /* \"#utility.yul\":2719:2722   */\n      dup2\n        /* \"#utility.yul\":2714:2717   */\n      dup4\n        /* \"#utility.yul\":2701:2731   */\n      calldatacopy\n        /* \"#utility.yul\":2765:2766   */\n      0x00\n        /* \"#utility.yul\":2756:2762   */\n      dup4\n        /* \"#utility.yul\":2751:2754   */\n      dup4\n        /* \"#utility.yul\":2747:2763   */\n      add\n        /* \"#utility.yul\":2740:2767   */\n      mstore\n        /* \"#utility.yul\":2627:2773   */\n      pop\n      pop\n      pop\n      jump\t// out\n        /* \"#utility.yul\":2779:3204   */\n    tag_56:\n        /* \"#utility.yul\":2857:2862   */\n      0x00\n        /* \"#utility.yul\":2882:2948   */\n      tag_109\n        /* \"#utility.yul\":2898:2947   */\n      tag_110\n        /* \"#utility.yul\":2940:2946   */\n      dup5\n        /* \"#utility.yul\":2898:2947   */\n      tag_54\n      jump\t// in\n    tag_110:\n        /* \"#utility.yul\":2882:2948   */\n      tag_53\n      jump\t// in\n    tag_109:\n        /* \"#utility.yul\":2873:2948   */\n      swap1\n      pop\n        /* \"#utility.yul\":2971:2977   */\n      dup3\n        /* \"#utility.yul\":2964:2969   */\n      dup2\n        /* \"#utility.yul\":2957:2978   */\n      mstore\n        /* \"#utility.yul\":3009:3013   */\n      0x20\n        /* \"#utility.yul\":3002:3007   */\n      dup2\n        /* \"#utility.yul\":2998:3014   */\n      add\n        /* \"#utility.yul\":3047:3050   */\n      dup5\n        /* \"#utility.yul\":3038:3044   */\n      dup5\n        /* \"#utility.yul\":3033:3036   */\n      dup5\n        /* \"#utility.yul\":3029:3045   */\n      add\n        /* \"#utility.yul\":3026:3051   */\n      gt\n        /* \"#utility.yul\":3023:3135   */\n      iszero\n      tag_111\n      jumpi\n        /* \"#utility.yul\":3054:3133   */\n      tag_112\n      tag_49\n      jump\t// in\n    tag_112:\n        /* \"#utility.yul\":3023:3135   */\n    tag_111:\n        /* \"#utility.yul\":3144:3198   */\n      tag_113\n        /* \"#utility.yul\":3191:3197   */\n      dup5\n        /* \"#utility.yul\":3186:3189   */\n      dup3\n        /* \"#utility.yul\":3181:3184   */\n      dup6\n        /* \"#utility.yul\":3144:3198   */\n      tag_55\n      jump\t// in\n    tag_113:\n        /* \"#utility.yul\":2863:3204   */\n      pop\n        /* \"#utility.yul\":2779:3204   */\n      swap4\n      swap3\n      pop\n      pop\n      pop\n      jump\t// out\n        /* \"#utility.yul\":3224:3564   */\n    tag_57:\n        /* \"#utility.yul\":3280:3285   */\n      0x00\n        /* \"#utility.yul\":3329:3332   */\n      dup3\n        /* \"#utility.yul\":3322:3326   */\n      0x1f\n        /* \"#utility.yul\":3314:3320   */\n      dup4\n        /* \"#utility.yul\":3310:3327   */\n      add\n        /* \"#utility.yul\":3306:3333   */\n      slt\n        /* \"#utility.yul\":3296:3418   */\n      tag_115\n      jumpi\n        /* \"#utility.yul\":3337:3416   */\n      tag_116\n      tag_48\n      jump\t// in\n    tag_116:\n        /* \"#utility.yul\":3296:3418   */\n    tag_115:\n        /* \"#utility.yul\":3454:3460   */\n      dup2\n        /* \"#utility.yul\":3441:3461   */\n      calldataload\n        /* \"#utility.yul\":3479:3558   */\n      tag_117\n        /* \"#utility.yul\":3554:3557   */\n      dup5\n        /* \"#utility.yul\":3546:3552   */\n      dup3\n        /* \"#utility.yul\":3539:3543   */\n      0x20\n        /* \"#utility.yul\":3531:3537   */\n      dup7\n        /* \"#utility.yul\":3527:3544   */\n      add\n        /* \"#utility.yul\":3479:3558   */\n      tag_56\n      jump\t// in\n    tag_117:\n        /* \"#utility.yul\":3470:3558   */\n      swap2\n      pop\n        /* \"#utility.yul\":3286:3564   */\n      pop\n        /* \"#utility.yul\":3224:3564   */\n      swap3\n      swap2\n      pop\n      pop\n      jump\t// out\n        /* \"#utility.yul\":3570:4079   */\n    tag_15:\n        /* \"#utility.yul\":3639:3645   */\n      0x00\n        /* \"#utility.yul\":3688:3690   */\n      0x20\n        /* \"#utility.yul\":3676:3685   */\n      dup3\n        /* \"#utility.yul\":3667:3674   */\n      dup5\n        /* \"#utility.yul\":3663:3686   */\n      sub\n        /* \"#utility.yul\":3659:3691   */\n      slt\n        /* \"#utility.yul\":3656:3775   */\n      iszero\n      tag_119\n      jumpi\n        /* \"#utility.yul\":3694:3773   */\n      tag_120\n      tag_42\n      jump\t// in\n    tag_120:\n        /* \"#utility.yul\":3656:3775   */\n    tag_119:\n        /* \"#utility.yul\":3842:3843   */\n      0x00\n        /* \"#utility.yul\":3831:3840   */\n      dup3\n        /* \"#utility.yul\":3827:3844   */\n      add\n        /* \"#utility.yul\":3814:3845   */\n      calldataload\n        /* \"#utility.yul\":3872:3890   */\n      0xffffffffffffffff\n        /* \"#utility.yul\":3864:3870   */\n      dup2\n        /* \"#utility.yul\":3861:3891   */\n      gt\n        /* \"#utility.yul\":3858:3975   */\n      iszero\n      tag_121\n      jumpi\n        /* \"#utility.yul\":3894:3973   */\n      tag_122\n      tag_43\n      jump\t// in\n    tag_122:\n        /* \"#utility.yul\":3858:3975   */\n    tag_121:\n        /* \"#utility.yul\":3999:4062   */\n      tag_123\n        /* \"#utility.yul\":4054:4061   */\n      dup5\n        /* \"#utility.yul\":4045:4051   */\n      dup3\n        /* \"#utility.yul\":4034:4043   */\n      dup6\n        /* \"#utility.yul\":4030:4052   */\n      add\n        /* \"#utility.yul\":3999:4062   */\n      tag_57\n      jump\t// in\n    tag_123:\n        /* \"#utility.yul\":3989:4062   */\n      swap2\n      pop\n        /* \"#utility.yul\":3785:4072   */\n      pop\n        /* \"#utility.yul\":3570:4079   */\n      swap3\n      swap2\n      pop\n      pop\n      jump\t// out\n        /* \"#utility.yul\":4085:4211   */\n    tag_58:\n        /* \"#utility.yul\":4122:4129   */\n      0x00\n        /* \"#utility.yul\":4162:4204   */\n      0xffffffffffffffffffffffffffffffffffffffff\n        /* \"#utility.yul\":4155:4160   */\n      dup3\n        /* \"#utility.yul\":4151:4205   */\n      and\n        /* \"#utility.yul\":4140:4205   */\n      swap1\n      pop\n        /* \"#utility.yul\":4085:4211   */\n      swap2\n      swap1\n      pop\n      jump\t// out\n        /* \"#utility.yul\":4217:4321   */\n    tag_59:\n        /* \"#utility.yul\":4262:4269   */\n      0x00\n        /* \"#utility.yul\":4291:4315   */\n      tag_126\n        /* \"#utility.yul\":4309:4314   */\n      dup3\n        /* \"#utility.yul\":4291:4315   */\n      tag_58\n      jump\t// in\n    tag_126:\n        /* \"#utility.yul\":4280:4315   */\n      swap1\n      pop\n        /* \"#utility.yul\":4217:4321   */\n      swap2\n      swap1\n      pop\n      jump\t// out\n        /* \"#utility.yul\":4327:4465   */\n    tag_60:\n        /* \"#utility.yul\":4408:4440   */\n      tag_128\n        /* \"#utility.yul\":4434:4439   */\n      dup2\n        /* \"#utility.yul\":4408:4440   */\n      tag_59\n      jump\t// in\n    tag_128:\n        /* \"#utility.yul\":4401:4406   */\n      dup2\n        /* \"#utility.yul\":4398:4441   */\n      eq\n        /* \"#utility.yul\":4388:4459   */\n      tag_129\n      jumpi\n        /* \"#utility.yul\":4455:4456   */\n      0x00\n        /* \"#utility.yul\":4452:4453   */\n      dup1\n        /* \"#utility.yul\":4445:4457   */\n      revert\n        /* \"#utility.yul\":4388:4459   */\n    tag_129:\n        /* \"#utility.yul\":4327:4465   */\n      pop\n      jump\t// out\n        /* \"#utility.yul\":4471:4626   */\n    tag_61:\n        /* \"#utility.yul\":4525:4530   */\n      0x00\n        /* \"#utility.yul\":4563:4569   */\n      dup2\n        /* \"#utility.yul\":4550:4570   */\n      calldataload\n        /* \"#utility.yul\":4541:4570   */\n      swap1\n      pop\n        /* \"#utility.yul\":4579:4620   */\n      tag_131\n        /* \"#utility.yul\":4614:4619   */\n      dup2\n        /* \"#utility.yul\":4579:4620   */\n      tag_60\n      jump\t// in\n    tag_131:\n        /* \"#utility.yul\":4471:4626   */\n      swap3\n      swap2\n      pop\n      pop\n      jump\t// out\n        /* \"#utility.yul\":4632:4709   */\n    tag_62:\n        /* \"#utility.yul\":4669:4676   */\n      0x00\n        /* \"#utility.yul\":4698:4703   */\n      dup2\n        /* \"#utility.yul\":4687:4703   */\n      swap1\n      pop\n        /* \"#utility.yul\":4632:4709   */\n      swap2\n      swap1\n      pop\n      jump\t// out\n        /* \"#utility.yul\":4715:4837   */\n    tag_63:\n        /* \"#utility.yul\":4788:4812   */\n      tag_134\n        /* \"#utility.yul\":4806:4811   */\n      dup2\n        /* \"#utility.yul\":4788:4812   */\n      tag_62\n      jump\t// in\n    tag_134:\n        /* \"#utility.yul\":4781:4786   */\n      dup2\n        /* \"#utility.yul\":4778:4813   */\n      eq\n        /* \"#utility.yul\":4768:4831   */\n      tag_135\n      jumpi\n        /* \"#utility.yul\":4827:4828   */\n      0x00\n        /* \"#utility.yul\":4824:4825   */\n      dup1\n        /* \"#utility.yul\":4817:4829   */\n      revert\n        /* \"#utility.yul\":4768:4831   */\n    tag_135:\n        /* \"#utility.yul\":4715:4837   */\n      pop\n      jump\t// out\n        /* \"#utility.yul\":4843:4982   */\n    tag_64:\n        /* \"#utility.yul\":4889:4894   */\n      0x00\n        /* \"#utility.yul\":4927:4933   */\n      dup2\n        /* \"#utility.yul\":4914:4934   */\n      calldataload\n        /* \"#utility.yul\":4905:4934   */\n      swap1\n      pop\n        /* \"#utility.yul\":4943:4976   */\n      tag_137\n        /* \"#utility.yul\":4970:4975   */\n      dup2\n        /* \"#utility.yul\":4943:4976   */\n      tag_63\n      jump\t// in\n    tag_137:\n        /* \"#utility.yul\":4843:4982   */\n      swap3\n      swap2\n      pop\n      pop\n      jump\t// out\n        /* \"#utility.yul\":4988:5478   */\n    tag_20:\n        /* \"#utility.yul\":5064:5070   */\n      0x00\n        /* \"#utility.yul\":5072:5078   */\n      dup1\n        /* \"#utility.yul\":5121:5123   */\n      0x40\n        /* \"#utility.yul\":5109:5118   */\n      dup4\n        /* \"#utility.yul\":5100:5107   */\n      dup6\n        /* \"#utility.yul\":5096:5119   */\n      sub\n        /* \"#utility.yul\":5092:5124   */\n      slt\n        /* \"#utility.yul\":5089:5208   */\n      iszero\n      tag_139\n      jumpi\n        /* \"#utility.yul\":5127:5206   */\n      tag_140\n      tag_42\n      jump\t// in\n    tag_140:\n        /* \"#utility.yul\":5089:5208   */\n    tag_139:\n        /* \"#utility.yul\":5247:5248   */\n      0x00\n        /* \"#utility.yul\":5272:5333   */\n      tag_141\n        /* \"#utility.yul\":5325:5332   */\n      dup6\n        /* \"#utility.yul\":5316:5322   */\n      dup3\n        /* \"#utility.yul\":5305:5314   */\n      dup7\n        /* \"#utility.yul\":5301:5323   */\n      add\n        /* \"#utility.yul\":5272:5333   */\n      tag_61\n      jump\t// in\n    tag_141:\n        /* \"#utility.yul\":5262:5333   */\n      swap3\n      pop\n        /* \"#utility.yul\":5218:5343   */\n      pop\n        /* \"#utility.yul\":5382:5384   */\n      0x20\n        /* \"#utility.yul\":5408:5461   */\n      tag_142\n        /* \"#utility.yul\":5453:5460   */\n      dup6\n        /* \"#utility.yul\":5444:5450   */\n      dup3\n        /* \"#utility.yul\":5433:5442   */\n      dup7\n        /* \"#utility.yul\":5429:5451   */\n      add\n        /* \"#utility.yul\":5408:5461   */\n      tag_64\n      jump\t// in\n    tag_142:\n        /* \"#utility.yul\":5398:5461   */\n      swap2\n      pop\n        /* \"#utility.yul\":5353:5471   */\n      pop\n        /* \"#utility.yul\":4988:5478   */\n      swap3\n      pop\n      swap3\n      swap1\n      pop\n      jump\t// out\n        /* \"#utility.yul\":5484:5583   */\n    tag_65:\n        /* \"#utility.yul\":5536:5542   */\n      0x00\n        /* \"#utility.yul\":5570:5575   */\n      dup2\n        /* \"#utility.yul\":5564:5576   */\n      mload\n        /* \"#utility.yul\":5554:5576   */\n      swap1\n      pop\n        /* \"#utility.yul\":5484:5583   */\n      swap2\n      swap1\n      pop\n      jump\t// out\n        /* \"#utility.yul\":5589:5737   */\n    tag_66:\n        /* \"#utility.yul\":5691:5702   */\n      0x00\n        /* \"#utility.yul\":5728:5731   */\n      dup2\n        /* \"#utility.yul\":5713:5731   */\n      swap1\n      pop\n        /* \"#utility.yul\":5589:5737   */\n      swap3\n      swap2\n      pop\n      pop\n      jump\t// out\n        /* \"#utility.yul\":5743:5989   */\n    tag_67:\n        /* \"#utility.yul\":5824:5825   */\n      0x00\n        /* \"#utility.yul\":5834:5947   */\n    tag_146:\n        /* \"#utility.yul\":5848:5854   */\n      dup4\n        /* \"#utility.yul\":5845:5846   */\n      dup2\n        /* \"#utility.yul\":5842:5855   */\n      lt\n        /* \"#utility.yul\":5834:5947   */\n      iszero\n      tag_148\n      jumpi\n        /* \"#utility.yul\":5933:5934   */\n      dup1\n        /* \"#utility.yul\":5928:5931   */\n      dup3\n        /* \"#utility.yul\":5924:5935   */\n      add\n        /* \"#utility.yul\":5918:5936   */\n      mload\n        /* \"#utility.yul\":5914:5915   */\n      dup2\n        /* \"#utility.yul\":5909:5912   */\n      dup5\n        /* \"#utility.yul\":5905:5916   */\n      add\n        /* \"#utility.yul\":5898:5937   */\n      mstore\n        /* \"#utility.yul\":5870:5872   */\n      0x20\n        /* \"#utility.yul\":5867:5868   */\n      dup2\n        /* \"#utility.yul\":5863:5873   */\n      add\n        /* \"#utility.yul\":5858:5873   */\n      swap1\n      pop\n        /* \"#utility.yul\":5834:5947   */\n      jump(tag_146)\n    tag_148:\n        /* \"#utility.yul\":5981:5982   */\n      0x00\n        /* \"#utility.yul\":5972:5978   */\n      dup5\n        /* \"#utility.yul\":5967:5970   */\n      dup5\n        /* \"#utility.yul\":5963:5979   */\n      add\n        /* \"#utility.yul\":5956:5983   */\n      mstore\n        /* \"#utility.yul\":5805:5989   */\n      pop\n        /* \"#utility.yul\":5743:5989   */\n      pop\n      pop\n      pop\n      jump\t// out\n        /* \"#utility.yul\":5995:6385   */\n    tag_68:\n        /* \"#utility.yul\":6101:6104   */\n      0x00\n        /* \"#utility.yul\":6129:6168   */\n      tag_150\n        /* \"#utility.yul\":6162:6167   */\n      dup3\n        /* \"#utility.yul\":6129:6168   */\n      tag_65\n      jump\t// in\n    tag_150:\n        /* \"#utility.yul\":6184:6273   */\n      tag_151\n        /* \"#utility.yul\":6266:6272   */\n      dup2\n        /* \"#utility.yul\":6261:6264   */\n      dup6\n        /* \"#utility.yul\":6184:6273   */\n      tag_66\n      jump\t// in\n    tag_151:\n        /* \"#utility.yul\":6177:6273   */\n      swap4\n      pop\n        /* \"#utility.yul\":6282:6347   */\n      tag_152\n        /* \"#utility.yul\":6340:6346   */\n      dup2\n        /* \"#utility.yul\":6335:6338   */\n      dup6\n        /* \"#utility.yul\":6328:6332   */\n      0x20\n        /* \"#utility.yul\":6321:6326   */\n      dup7\n        /* \"#utility.yul\":6317:6333   */\n      add\n        /* \"#utility.yul\":6282:6347   */\n      tag_67\n      jump\t// in\n    tag_152:\n        /* \"#utility.yul\":6372:6378   */\n      dup1\n        /* \"#utility.yul\":6367:6370   */\n      dup5\n        /* \"#utility.yul\":6363:6379   */\n      add\n        /* \"#utility.yul\":6356:6379   */\n      swap2\n      pop\n        /* \"#utility.yul\":6105:6385   */\n      pop\n        /* \"#utility.yul\":5995:6385   */\n      swap3\n      swap2\n      pop\n      pop\n      jump\t// out\n        /* \"#utility.yul\":6391:6666   */\n    tag_29:\n        /* \"#utility.yul\":6523:6526   */\n      0x00\n        /* \"#utility.yul\":6545:6640   */\n      tag_154\n        /* \"#utility.yul\":6636:6639   */\n      dup3\n        /* \"#utility.yul\":6627:6633   */\n      dup5\n        /* \"#utility.yul\":6545:6640   */\n      tag_68\n      jump\t// in\n    tag_154:\n        /* \"#utility.yul\":6538:6640   */\n      swap2\n      pop\n        /* \"#utility.yul\":6657:6660   */\n      dup2\n        /* \"#utility.yul\":6650:6660   */\n      swap1\n      pop\n        /* \"#utility.yul\":6391:6666   */\n      swap3\n      swap2\n      pop\n      pop\n      jump\t// out\n        /* \"#utility.yul\":6672:6852   */\n    tag_32:\n        /* \"#utility.yul\":6720:6797   */\n      0x4e487b7100000000000000000000000000000000000000000000000000000000\n        /* \"#utility.yul\":6717:6718   */\n      0x00\n        /* \"#utility.yul\":6710:6798   */\n      mstore\n        /* \"#utility.yul\":6817:6821   */\n      0x32\n        /* \"#utility.yul\":6814:6815   */\n      0x04\n        /* \"#utility.yul\":6807:6822   */\n      mstore\n        /* \"#utility.yul\":6841:6845   */\n      0x24\n        /* \"#utility.yul\":6838:6839   */\n      0x00\n        /* \"#utility.yul\":6831:6846   */\n      revert\n        /* \"#utility.yul\":6858:7038   */\n    tag_69:\n        /* \"#utility.yul\":6906:6983   */\n      0x4e487b7100000000000000000000000000000000000000000000000000000000\n        /* \"#utility.yul\":6903:6904   */\n      0x00\n        /* \"#utility.yul\":6896:6984   */\n      mstore\n        /* \"#utility.yul\":7003:7007   */\n      0x22\n        /* \"#utility.yul\":7000:7001   */\n      0x04\n        /* \"#utility.yul\":6993:7008   */\n      mstore\n        /* \"#utility.yul\":7027:7031   */\n      0x24\n        /* \"#utility.yul\":7024:7025   */\n      0x00\n        /* \"#utility.yul\":7017:7032   */\n      revert\n        /* \"#utility.yul\":7044:7364   */\n    tag_70:\n        /* \"#utility.yul\":7088:7094   */\n      0x00\n        /* \"#utility.yul\":7125:7126   */\n      0x02\n        /* \"#utility.yul\":7119:7123   */\n      dup3\n        /* \"#utility.yul\":7115:7127   */\n      div\n        /* \"#utility.yul\":7105:7127   */\n      swap1\n      pop\n        /* \"#utility.yul\":7172:7173   */\n      0x01\n        /* \"#utility.yul\":7166:7170   */\n      dup3\n        /* \"#utility.yul\":7162:7174   */\n      and\n        /* \"#utility.yul\":7193:7211   */\n      dup1\n        /* \"#utility.yul\":7183:7264   */\n      tag_158\n      jumpi\n        /* \"#utility.yul\":7249:7253   */\n      0x7f\n        /* \"#utility.yul\":7241:7247   */\n      dup3\n        /* \"#utility.yul\":7237:7254   */\n      and\n        /* \"#utility.yul\":7227:7254   */\n      swap2\n      pop\n        /* \"#utility.yul\":7183:7264   */\n    tag_158:\n        /* \"#utility.yul\":7311:7313   */\n      0x20\n        /* \"#utility.yul\":7303:7309   */\n      dup3\n        /* \"#utility.yul\":7300:7314   */\n      lt\n        /* \"#utility.yul\":7280:7298   */\n      dup2\n        /* \"#utility.yul\":7277:7315   */\n      sub\n        /* \"#utility.yul\":7274:7358   */\n      tag_159\n      jumpi\n        /* \"#utility.yul\":7330:7348   */\n      tag_160\n      tag_69\n      jump\t// in\n    tag_160:\n        /* \"#utility.yul\":7274:7358   */\n    tag_159:\n        /* \"#utility.yul\":7095:7364   */\n      pop\n        /* \"#utility.yul\":7044:7364   */\n      swap2\n      swap1\n      pop\n      jump\t// out\n        /* \"#utility.yul\":7370:7511   */\n    tag_71:\n        /* \"#utility.yul\":7419:7423   */\n      0x00\n        /* \"#utility.yul\":7442:7445   */\n      dup2\n        /* \"#utility.yul\":7434:7445   */\n      swap1\n      pop\n        /* \"#utility.yul\":7465:7468   */\n      dup2\n        /* \"#utility.yul\":7462:7463   */\n      0x00\n        /* \"#utility.yul\":7455:7469   */\n      mstore\n        /* \"#utility.yul\":7499:7503   */\n      0x20\n        /* \"#utility.yul\":7496:7497   */\n      0x00\n        /* \"#utility.yul\":7486:7504   */\n      keccak256\n        /* \"#utility.yul\":7478:7504   */\n      swap1\n      pop\n        /* \"#utility.yul\":7370:7511   */\n      swap2\n      swap1\n      pop\n      jump\t// out\n        /* \"#utility.yul\":7541:8415   */\n    tag_72:\n        /* \"#utility.yul\":7644:7647   */\n      0x00\n        /* \"#utility.yul\":7681:7686   */\n      dup2\n        /* \"#utility.yul\":7675:7687   */\n      sload\n        /* \"#utility.yul\":7710:7746   */\n      tag_163\n        /* \"#utility.yul\":7736:7745   */\n      dup2\n        /* \"#utility.yul\":7710:7746   */\n      tag_70\n      jump\t// in\n    tag_163:\n        /* \"#utility.yul\":7762:7851   */\n      tag_164\n        /* \"#utility.yul\":7844:7850   */\n      dup2\n        /* \"#utility.yul\":7839:7842   */\n      dup7\n        /* \"#utility.yul\":7762:7851   */\n      tag_66\n      jump\t// in\n    tag_164:\n        /* \"#utility.yul\":7755:7851   */\n      swap5\n      pop\n        /* \"#utility.yul\":7882:7883   */\n      0x01\n        /* \"#utility.yul\":7871:7880   */\n      dup3\n        /* \"#utility.yul\":7867:7884   */\n      and\n        /* \"#utility.yul\":7898:7899   */\n      0x00\n        /* \"#utility.yul\":7893:8059   */\n      dup2\n      eq\n      tag_166\n      jumpi\n        /* \"#utility.yul\":8073:8074   */\n      0x01\n        /* \"#utility.yul\":8068:8409   */\n      dup2\n      eq\n      tag_167\n      jumpi\n        /* \"#utility.yul\":7860:8409   */\n      jump(tag_165)\n        /* \"#utility.yul\":7893:8059   */\n    tag_166:\n        /* \"#utility.yul\":7977:7981   */\n      0xff\n        /* \"#utility.yul\":7973:7982   */\n      not\n        /* \"#utility.yul\":7962:7971   */\n      dup4\n        /* \"#utility.yul\":7958:7983   */\n      and\n        /* \"#utility.yul\":7953:7956   */\n      dup7\n        /* \"#utility.yul\":7946:7984   */\n      mstore\n        /* \"#utility.yul\":8039:8045   */\n      dup2\n        /* \"#utility.yul\":8032:8046   */\n      iszero\n        /* \"#utility.yul\":8025:8047   */\n      iszero\n        /* \"#utility.yul\":8017:8023   */\n      dup3\n        /* \"#utility.yul\":8013:8048   */\n      mul\n        /* \"#utility.yul\":8008:8011   */\n      dup7\n        /* \"#utility.yul\":8004:8049   */\n      add\n        /* \"#utility.yul\":7997:8049   */\n      swap4\n      pop\n        /* \"#utility.yul\":7893:8059   */\n      jump(tag_165)\n        /* \"#utility.yul\":8068:8409   */\n    tag_167:\n        /* \"#utility.yul\":8135:8173   */\n      tag_168\n        /* \"#utility.yul\":8167:8172   */\n      dup6\n        /* \"#utility.yul\":8135:8173   */\n      tag_71\n      jump\t// in\n    tag_168:\n        /* \"#utility.yul\":8195:8196   */\n      0x00\n        /* \"#utility.yul\":8209:8363   */\n    tag_169:\n        /* \"#utility.yul\":8223:8229   */\n      dup4\n        /* \"#utility.yul\":8220:8221   */\n      dup2\n        /* \"#utility.yul\":8217:8230   */\n      lt\n        /* \"#utility.yul\":8209:8363   */\n      iszero\n      tag_171\n      jumpi\n        /* \"#utility.yul\":8297:8304   */\n      dup2\n        /* \"#utility.yul\":8291:8305   */\n      sload\n        /* \"#utility.yul\":8287:8288   */\n      dup2\n        /* \"#utility.yul\":8282:8285   */\n      dup10\n        /* \"#utility.yul\":8278:8289   */\n      add\n        /* \"#utility.yul\":8271:8306   */\n      mstore\n        /* \"#utility.yul\":8347:8348   */\n      0x01\n        /* \"#utility.yul\":8338:8345   */\n      dup3\n        /* \"#utility.yul\":8334:8349   */\n      add\n        /* \"#utility.yul\":8323:8349   */\n      swap2\n      pop\n        /* \"#utility.yul\":8245:8249   */\n      0x20\n        /* \"#utility.yul\":8242:8243   */\n      dup2\n        /* \"#utility.yul\":8238:8250   */\n      add\n        /* \"#utility.yul\":8233:8250   */\n      swap1\n      pop\n        /* \"#utility.yul\":8209:8363   */\n      jump(tag_169)\n    tag_171:\n        /* \"#utility.yul\":8392:8398   */\n      dup4\n        /* \"#utility.yul\":8387:8390   */\n      dup9\n        /* \"#utility.yul\":8383:8399   */\n      add\n        /* \"#utility.yul\":8376:8399   */\n      swap6\n      pop\n        /* \"#utility.yul\":8075:8409   */\n      pop\n      pop\n        /* \"#utility.yul\":7860:8409   */\n    tag_165:\n      pop\n        /* \"#utility.yul\":7648:8415   */\n      pop\n      pop\n        /* \"#utility.yul\":7541:8415   */\n      swap3\n      swap2\n      pop\n      pop\n      jump\t// out\n        /* \"#utility.yul\":8421:8690   */\n    tag_35:\n        /* \"#utility.yul\":8550:8553   */\n      0x00\n        /* \"#utility.yul\":8572:8664   */\n      tag_173\n        /* \"#utility.yul\":8660:8663   */\n      dup3\n        /* \"#utility.yul\":8651:8657   */\n      dup5\n        /* \"#utility.yul\":8572:8664   */\n      tag_72\n      jump\t// in\n    tag_173:\n        /* \"#utility.yul\":8565:8664   */\n      swap2\n      pop\n        /* \"#utility.yul\":8681:8684   */\n      dup2\n        /* \"#utility.yul\":8674:8684   */\n      swap1\n      pop\n        /* \"#utility.yul\":8421:8690   */\n      swap3\n      swap2\n      pop\n      pop\n      jump\t// out\n        /* \"#utility.yul\":8696:8876   */\n    tag_73:\n        /* \"#utility.yul\":8744:8821   */\n      0x4e487b7100000000000000000000000000000000000000000000000000000000\n        /* \"#utility.yul\":8741:8742   */\n      0x00\n        /* \"#utility.yul\":8734:8822   */\n      mstore\n        /* \"#utility.yul\":8841:8845   */\n      0x11\n        /* \"#utility.yul\":8838:8839   */\n      0x04\n        /* \"#utility.yul\":8831:8846   */\n      mstore\n        /* \"#utility.yul\":8865:8869   */\n      0x24\n        /* \"#utility.yul\":8862:8863   */\n      0x00\n        /* \"#utility.yul\":8855:8870   */\n      revert\n        /* \"#utility.yul\":8882:9115   */\n    tag_38:\n        /* \"#utility.yul\":8921:8924   */\n      0x00\n        /* \"#utility.yul\":8944:8968   */\n      tag_176\n        /* \"#utility.yul\":8962:8967   */\n      dup3\n        /* \"#utility.yul\":8944:8968   */\n      tag_62\n      jump\t// in\n    tag_176:\n        /* \"#utility.yul\":8935:8968   */\n      swap2\n      pop\n        /* \"#utility.yul\":8990:9056   */\n      0xffffffffffffffffffffffffffffffffffffffffffffffffffffffffffffffff\n        /* \"#utility.yul\":8983:8988   */\n      dup3\n        /* \"#utility.yul\":8980:9057   */\n      sub\n        /* \"#utility.yul\":8977:9080   */\n      tag_177\n      jumpi\n        /* \"#utility.yul\":9060:9078   */\n      tag_178\n      tag_73\n      jump\t// in\n    tag_178:\n        /* \"#utility.yul\":8977:9080   */\n    tag_177:\n        /* \"#utility.yul\":9107:9108   */\n      0x01\n        /* \"#utility.yul\":9100:9105   */\n      dup3\n        /* \"#utility.yul\":9096:9109   */\n      add\n        /* \"#utility.yul\":9089:9109   */\n      swap1\n      pop\n        /* \"#utility.yul\":8882:9115   */\n      swap2\n      swap1\n      pop\n      jump\t// out\n\n    auxdata: 0xa264697066735822122014616fb30a1fbfb36ba1b15cd1eaae9d003c9f8dec9361d8a46f22146a3455dc64736f6c63430008110033\n}\n",
				"bytecode": {
					"linkReferences": {},
					"object": "608060405260405180606001604052806040518060400160405280600481526020017f497261710000000000000000000000000000000000000000000000000000000081525081526020016040518060400160405280600b81526020017f4e6f727468204b6f72656100000000000000000000000000000000000000000081525081526020016040518060400160405280600681526020017f52757373696100000000000000000000000000000000000000000000000000008152508152506000906003620000d0929190620000ea565b50601e600155348015620000e357600080fd5b5062000538565b82805482825590600052602060002090810192821562000137579160200282015b828111156200013657825182908162000125919062000451565b50916020019190600101906200010b565b5b5090506200014691906200014a565b5090565b5b808211156200016e576000818162000164919062000172565b506001016200014b565b5090565b508054620001809062000240565b6000825580601f10620001945750620001b5565b601f016020900490600052602060002090810190620001b49190620001b8565b5b50565b5b80821115620001d3576000816000905550600101620001b9565b5090565b600081519050919050565b7f4e487b7100000000000000000000000000000000000000000000000000000000600052604160045260246000fd5b7f4e487b7100000000000000000000000000000000000000000000000000000000600052602260045260246000fd5b600060028204905060018216806200025957607f821691505b6020821081036200026f576200026e62000211565b5b50919050565b60008190508160005260206000209050919050565b60006020601f8301049050919050565b600082821b905092915050565b600060088302620002d97fffffffffffffffffffffffffffffffffffffffffffffffffffffffffffffffff826200029a565b620002e586836200029a565b95508019841693508086168417925050509392505050565b6000819050919050565b6000819050919050565b6000620003326200032c6200032684620002fd565b62000307565b620002fd565b9050919050565b6000819050919050565b6200034e8362000311565b620003666200035d8262000339565b848454620002a7565b825550505050565b600090565b6200037d6200036e565b6200038a81848462000343565b505050565b5b81811015620003b257620003a660008262000373565b60018101905062000390565b5050565b601f8211156200040157620003cb8162000275565b620003d6846200028a565b81016020851015620003e6578190505b620003fe620003f5856200028a565b8301826200038f565b50505b505050565b600082821c905092915050565b6000620004266000198460080262000406565b1980831691505092915050565b600062000441838362000413565b9150826002028217905092915050565b6200045c82620001d7565b67ffffffffffffffff811115620004785762000477620001e2565b5b62000484825462000240565b62000491828285620003b6565b600060209050601f831160018114620004c95760008415620004b4578287015190505b620004c0858262000433565b86555062000530565b601f198416620004d98662000275565b60005b828110156200050357848901518255600182019150602085019450602081019050620004dc565b868310156200052357848901516200051f601f89168262000413565b8355505b6001600288020188555050505b505050505050565b61073380620005486000396000f3fe6080604052600436106100345760003560e01c8063708c079d146100395780637b0b53f014610076578063bd799295146100b3575b600080fd5b34801561004557600080fd5b50610060600480360381019061005b9190610206565b6100e3565b60405161006d9190610242565b60405180910390f35b34801561008257600080fd5b5061009d600480360381019061009891906103a3565b6100ed565b6040516100aa9190610242565b60405180910390f35b6100cd60048036038101906100c89190610480565b61019a565b6040516100da9190610242565b60405180910390f35b6000819050919050565b600080600090505b60008054905081101561018f57826040516020016101139190610531565b604051602081830303815290604052805190602001206000828154811061013d5761013c610548565b5b90600052602060002001604051602001610157919061066f565b604051602081830303815290604052805190602001200361017c576001915050610195565b8080610187906106b5565b9150506100f5565b50600090505b919050565b60006001548211156101af57600090506101b4565b600190505b92915050565b6000604051905090565b600080fd5b600080fd5b60008115159050919050565b6101e3816101ce565b81146101ee57600080fd5b50565b600081359050610200816101da565b92915050565b60006020828403121561021c5761021b6101c4565b5b600061022a848285016101f1565b91505092915050565b61023c816101ce565b82525050565b60006020820190506102576000830184610233565b92915050565b600080fd5b600080fd5b6000601f19601f8301169050919050565b7f4e487b7100000000000000000000000000000000000000000000000000000000600052604160045260246000fd5b6102b082610267565b810181811067ffffffffffffffff821117156102cf576102ce610278565b5b80604052505050565b60006102e26101ba565b90506102ee82826102a7565b919050565b600067ffffffffffffffff82111561030e5761030d610278565b5b61031782610267565b9050602081019050919050565b82818337600083830152505050565b6000610346610341846102f3565b6102d8565b90508281526020810184848401111561036257610361610262565b5b61036d848285610324565b509392505050565b600082601f83011261038a5761038961025d565b5b813561039a848260208601610333565b91505092915050565b6000602082840312156103b9576103b86101c4565b5b600082013567ffffffffffffffff8111156103d7576103d66101c9565b5b6103e384828501610375565b91505092915050565b600073ffffffffffffffffffffffffffffffffffffffff82169050919050565b6000610417826103ec565b9050919050565b6104278161040c565b811461043257600080fd5b50565b6000813590506104448161041e565b92915050565b6000819050919050565b61045d8161044a565b811461046857600080fd5b50565b60008135905061047a81610454565b92915050565b60008060408385031215610497576104966101c4565b5b60006104a585828601610435565b92505060206104b68582860161046b565b9150509250929050565b600081519050919050565b600081905092915050565b60005b838110156104f45780820151818401526020810190506104d9565b60008484015250505050565b600061050b826104c0565b61051581856104cb565b93506105258185602086016104d6565b80840191505092915050565b600061053d8284610500565b915081905092915050565b7f4e487b7100000000000000000000000000000000000000000000000000000000600052603260045260246000fd5b7f4e487b7100000000000000000000000000000000000000000000000000000000600052602260045260246000fd5b600060028204905060018216806105be57607f821691505b6020821081036105d1576105d0610577565b5b50919050565b60008190508160005260206000209050919050565b600081546105f9816105a6565b61060381866104cb565b9450600182166000811461061e576001811461063357610666565b60ff1983168652811515820286019350610666565b61063c856105d7565b60005b8381101561065e5781548189015260018201915060208101905061063f565b838801955050505b50505092915050565b600061067b82846105ec565b915081905092915050565b7f4e487b7100000000000000000000000000000000000000000000000000000000600052601160045260246000fd5b60006106c08261044a565b91507fffffffffffffffffffffffffffffffffffffffffffffffffffffffffffffffff82036106f2576106f1610686565b5b60018201905091905056fea264697066735822122014616fb30a1fbfb36ba1b15cd1eaae9d003c9f8dec9361d8a46f22146a3455dc64736f6c63430008110033",
					"opcodes": "PUSH1 0x80 PUSH1 0x40 MSTORE PUSH1 0x40 MLOAD DUP1 PUSH1 0x60 ADD PUSH1 0x40 MSTORE DUP1 PUSH1 0x40 MLOAD DUP1 PUSH1 0x40 ADD PUSH1 0x40 MSTORE DUP1 PUSH1 0x4 DUP2 MSTORE PUSH1 0x20 ADD PUSH32 0x4972617100000000000000000000000000000000000000000000000000000000 DUP2 MSTORE POP DUP2 MSTORE PUSH1 0x20 ADD PUSH1 0x40 MLOAD DUP1 PUSH1 0x40 ADD PUSH1 0x40 MSTORE DUP1 PUSH1 0xB DUP2 MSTORE PUSH1 0x20 ADD PUSH32 0x4E6F727468204B6F726561000000000000000000000000000000000000000000 DUP2 MSTORE POP DUP2 MSTORE PUSH1 0x20 ADD PUSH1 0x40 MLOAD DUP1 PUSH1 0x40 ADD PUSH1 0x40 MSTORE DUP1 PUSH1 0x6 DUP2 MSTORE PUSH1 0x20 ADD PUSH32 0x5275737369610000000000000000000000000000000000000000000000000000 DUP2 MSTORE POP DUP2 MSTORE POP PUSH1 0x0 SWAP1 PUSH1 0x3 PUSH3 0xD0 SWAP3 SWAP2 SWAP1 PUSH3 0xEA JUMP JUMPDEST POP PUSH1 0x1E PUSH1 0x1 SSTORE CALLVALUE DUP1 ISZERO PUSH3 0xE3 JUMPI PUSH1 0x0 DUP1 REVERT JUMPDEST POP PUSH3 0x538 JUMP JUMPDEST DUP3 DUP1 SLOAD DUP3 DUP3 SSTORE SWAP1 PUSH1 0x0 MSTORE PUSH1 0x20 PUSH1 0x0 KECCAK256 SWAP1 DUP2 ADD SWAP3 DUP3 ISZERO PUSH3 0x137 JUMPI SWAP2 PUSH1 0x20 MUL DUP3 ADD JUMPDEST DUP3 DUP2 GT ISZERO PUSH3 0x136 JUMPI DUP3 MLOAD DUP3 SWAP1 DUP2 PUSH3 0x125 SWAP2 SWAP1 PUSH3 0x451 JUMP JUMPDEST POP SWAP2 PUSH1 0x20 ADD SWAP2 SWAP1 PUSH1 0x1 ADD SWAP1 PUSH3 0x10B JUMP JUMPDEST JUMPDEST POP SWAP1 POP PUSH3 0x146 SWAP2 SWAP1 PUSH3 0x14A JUMP JUMPDEST POP SWAP1 JUMP JUMPDEST JUMPDEST DUP1 DUP3 GT ISZERO PUSH3 0x16E JUMPI PUSH1 0x0 DUP2 DUP2 PUSH3 0x164 SWAP2 SWAP1 PUSH3 0x172 JUMP JUMPDEST POP PUSH1 0x1 ADD PUSH3 0x14B JUMP JUMPDEST POP SWAP1 JUMP JUMPDEST POP DUP1 SLOAD PUSH3 0x180 SWAP1 PUSH3 0x240 JUMP JUMPDEST PUSH1 0x0 DUP3 SSTORE DUP1 PUSH1 0x1F LT PUSH3 0x194 JUMPI POP PUSH3 0x1B5 JUMP JUMPDEST PUSH1 0x1F ADD PUSH1 0x20 SWAP1 DIV SWAP1 PUSH1 0x0 MSTORE PUSH1 0x20 PUSH1 0x0 KECCAK256 SWAP1 DUP2 ADD SWAP1 PUSH3 0x1B4 SWAP2 SWAP1 PUSH3 0x1B8 JUMP JUMPDEST JUMPDEST POP JUMP JUMPDEST JUMPDEST DUP1 DUP3 GT ISZERO PUSH3 0x1D3 JUMPI PUSH1 0x0 DUP2 PUSH1 0x0 SWAP1 SSTORE POP PUSH1 0x1 ADD PUSH3 0x1B9 JUMP JUMPDEST POP SWAP1 JUMP JUMPDEST PUSH1 0x0 DUP2 MLOAD SWAP1 POP SWAP2 SWAP1 POP JUMP JUMPDEST PUSH32 0x4E487B7100000000000000000000000000000000000000000000000000000000 PUSH1 0x0 MSTORE PUSH1 0x41 PUSH1 0x4 MSTORE PUSH1 0x24 PUSH1 0x0 REVERT JUMPDEST PUSH32 0x4E487B7100000000000000000000000000000000000000000000000000000000 PUSH1 0x0 MSTORE PUSH1 0x22 PUSH1 0x4 MSTORE PUSH1 0x24 PUSH1 0x0 REVERT JUMPDEST PUSH1 0x0 PUSH1 0x2 DUP3 DIV SWAP1 POP PUSH1 0x1 DUP3 AND DUP1 PUSH3 0x259 JUMPI PUSH1 0x7F DUP3 AND SWAP2 POP JUMPDEST PUSH1 0x20 DUP3 LT DUP2 SUB PUSH3 0x26F JUMPI PUSH3 0x26E PUSH3 0x211 JUMP JUMPDEST JUMPDEST POP SWAP2 SWAP1 POP JUMP JUMPDEST PUSH1 0x0 DUP2 SWAP1 POP DUP2 PUSH1 0x0 MSTORE PUSH1 0x20 PUSH1 0x0 KECCAK256 SWAP1 POP SWAP2 SWAP1 POP JUMP JUMPDEST PUSH1 0x0 PUSH1 0x20 PUSH1 0x1F DUP4 ADD DIV SWAP1 POP SWAP2 SWAP1 POP JUMP JUMPDEST PUSH1 0x0 DUP3 DUP3 SHL SWAP1 POP SWAP3 SWAP2 POP POP JUMP JUMPDEST PUSH1 0x0 PUSH1 0x8 DUP4 MUL PUSH3 0x2D9 PUSH32 0xFFFFFFFFFFFFFFFFFFFFFFFFFFFFFFFFFFFFFFFFFFFFFFFFFFFFFFFFFFFFFFFF DUP3 PUSH3 0x29A JUMP JUMPDEST PUSH3 0x2E5 DUP7 DUP4 PUSH3 0x29A JUMP JUMPDEST SWAP6 POP DUP1 NOT DUP5 AND SWAP4 POP DUP1 DUP7 AND DUP5 OR SWAP3 POP POP POP SWAP4 SWAP3 POP POP POP JUMP JUMPDEST PUSH1 0x0 DUP2 SWAP1 POP SWAP2 SWAP1 POP JUMP JUMPDEST PUSH1 0x0 DUP2 SWAP1 POP SWAP2 SWAP1 POP JUMP JUMPDEST PUSH1 0x0 PUSH3 0x332 PUSH3 0x32C PUSH3 0x326 DUP5 PUSH3 0x2FD JUMP JUMPDEST PUSH3 0x307 JUMP JUMPDEST PUSH3 0x2FD JUMP JUMPDEST SWAP1 POP SWAP2 SWAP1 POP JUMP JUMPDEST PUSH1 0x0 DUP2 SWAP1 POP SWAP2 SWAP1 POP JUMP JUMPDEST PUSH3 0x34E DUP4 PUSH3 0x311 JUMP JUMPDEST PUSH3 0x366 PUSH3 0x35D DUP3 PUSH3 0x339 JUMP JUMPDEST DUP5 DUP5 SLOAD PUSH3 0x2A7 JUMP JUMPDEST DUP3 SSTORE POP POP POP POP JUMP JUMPDEST PUSH1 0x0 SWAP1 JUMP JUMPDEST PUSH3 0x37D PUSH3 0x36E JUMP JUMPDEST PUSH3 0x38A DUP2 DUP5 DUP5 PUSH3 0x343 JUMP JUMPDEST POP POP POP JUMP JUMPDEST JUMPDEST DUP2 DUP2 LT ISZERO PUSH3 0x3B2 JUMPI PUSH3 0x3A6 PUSH1 0x0 DUP3 PUSH3 0x373 JUMP JUMPDEST PUSH1 0x1 DUP2 ADD SWAP1 POP PUSH3 0x390 JUMP JUMPDEST POP POP JUMP JUMPDEST PUSH1 0x1F DUP3 GT ISZERO PUSH3 0x401 JUMPI PUSH3 0x3CB DUP2 PUSH3 0x275 JUMP JUMPDEST PUSH3 0x3D6 DUP5 PUSH3 0x28A JUMP JUMPDEST DUP2 ADD PUSH1 0x20 DUP6 LT ISZERO PUSH3 0x3E6 JUMPI DUP2 SWAP1 POP JUMPDEST PUSH3 0x3FE PUSH3 0x3F5 DUP6 PUSH3 0x28A JUMP JUMPDEST DUP4 ADD DUP3 PUSH3 0x38F JUMP JUMPDEST POP POP JUMPDEST POP POP POP JUMP JUMPDEST PUSH1 0x0 DUP3 DUP3 SHR SWAP1 POP SWAP3 SWAP2 POP POP JUMP JUMPDEST PUSH1 0x0 PUSH3 0x426 PUSH1 0x0 NOT DUP5 PUSH1 0x8 MUL PUSH3 0x406 JUMP JUMPDEST NOT DUP1 DUP4 AND SWAP2 POP POP SWAP3 SWAP2 POP POP JUMP JUMPDEST PUSH1 0x0 PUSH3 0x441 DUP4 DUP4 PUSH3 0x413 JUMP JUMPDEST SWAP2 POP DUP3 PUSH1 0x2 MUL DUP3 OR SWAP1 POP SWAP3 SWAP2 POP POP JUMP JUMPDEST PUSH3 0x45C DUP3 PUSH3 0x1D7 JUMP JUMPDEST PUSH8 0xFFFFFFFFFFFFFFFF DUP2 GT ISZERO PUSH3 0x478 JUMPI PUSH3 0x477 PUSH3 0x1E2 JUMP JUMPDEST JUMPDEST PUSH3 0x484 DUP3 SLOAD PUSH3 0x240 JUMP JUMPDEST PUSH3 0x491 DUP3 DUP3 DUP6 PUSH3 0x3B6 JUMP JUMPDEST PUSH1 0x0 PUSH1 0x20 SWAP1 POP PUSH1 0x1F DUP4 GT PUSH1 0x1 DUP2 EQ PUSH3 0x4C9 JUMPI PUSH1 0x0 DUP5 ISZERO PUSH3 0x4B4 JUMPI DUP3 DUP8 ADD MLOAD SWAP1 POP JUMPDEST PUSH3 0x4C0 DUP6 DUP3 PUSH3 0x433 JUMP JUMPDEST DUP7 SSTORE POP PUSH3 0x530 JUMP JUMPDEST PUSH1 0x1F NOT DUP5 AND PUSH3 0x4D9 DUP7 PUSH3 0x275 JUMP JUMPDEST PUSH1 0x0 JUMPDEST DUP3 DUP2 LT ISZERO PUSH3 0x503 JUMPI DUP5 DUP10 ADD MLOAD DUP3 SSTORE PUSH1 0x1 DUP3 ADD SWAP2 POP PUSH1 0x20 DUP6 ADD SWAP5 POP PUSH1 0x20 DUP2 ADD SWAP1 POP PUSH3 0x4DC JUMP JUMPDEST DUP7 DUP4 LT ISZERO PUSH3 0x523 JUMPI DUP5 DUP10 ADD MLOAD PUSH3 0x51F PUSH1 0x1F DUP10 AND DUP3 PUSH3 0x413 JUMP JUMPDEST DUP4 SSTORE POP JUMPDEST PUSH1 0x1 PUSH1 0x2 DUP9 MUL ADD DUP9 SSTORE POP POP POP JUMPDEST POP POP POP POP POP POP JUMP JUMPDEST PUSH2 0x733 DUP1 PUSH3 0x548 PUSH1 0x0 CODECOPY PUSH1 0x0 RETURN INVALID PUSH1 0x80 PUSH1 0x40 MSTORE PUSH1 0x4 CALLDATASIZE LT PUSH2 0x34 JUMPI PUSH1 0x0 CALLDATALOAD PUSH1 0xE0 SHR DUP1 PUSH4 0x708C079D EQ PUSH2 0x39 JUMPI DUP1 PUSH4 0x7B0B53F0 EQ PUSH2 0x76 JUMPI DUP1 PUSH4 0xBD799295 EQ PUSH2 0xB3 JUMPI JUMPDEST PUSH1 0x0 DUP1 REVERT JUMPDEST CALLVALUE DUP1 ISZERO PUSH2 0x45 JUMPI PUSH1 0x0 DUP1 REVERT JUMPDEST POP PUSH2 0x60 PUSH1 0x4 DUP1 CALLDATASIZE SUB DUP2 ADD SWAP1 PUSH2 0x5B SWAP2 SWAP1 PUSH2 0x206 JUMP JUMPDEST PUSH2 0xE3 JUMP JUMPDEST PUSH1 0x40 MLOAD PUSH2 0x6D SWAP2 SWAP1 PUSH2 0x242 JUMP JUMPDEST PUSH1 0x40 MLOAD DUP1 SWAP2 SUB SWAP1 RETURN JUMPDEST CALLVALUE DUP1 ISZERO PUSH2 0x82 JUMPI PUSH1 0x0 DUP1 REVERT JUMPDEST POP PUSH2 0x9D PUSH1 0x4 DUP1 CALLDATASIZE SUB DUP2 ADD SWAP1 PUSH2 0x98 SWAP2 SWAP1 PUSH2 0x3A3 JUMP JUMPDEST PUSH2 0xED JUMP JUMPDEST PUSH1 0x40 MLOAD PUSH2 0xAA SWAP2 SWAP1 PUSH2 0x242 JUMP JUMPDEST PUSH1 0x40 MLOAD DUP1 SWAP2 SUB SWAP1 RETURN JUMPDEST PUSH2 0xCD PUSH1 0x4 DUP1 CALLDATASIZE SUB DUP2 ADD SWAP1 PUSH2 0xC8 SWAP2 SWAP1 PUSH2 0x480 JUMP JUMPDEST PUSH2 0x19A JUMP JUMPDEST PUSH1 0x40 MLOAD PUSH2 0xDA SWAP2 SWAP1 PUSH2 0x242 JUMP JUMPDEST PUSH1 0x40 MLOAD DUP1 SWAP2 SUB SWAP1 RETURN JUMPDEST PUSH1 0x0 DUP2 SWAP1 POP SWAP2 SWAP1 POP JUMP JUMPDEST PUSH1 0x0 DUP1 PUSH1 0x0 SWAP1 POP JUMPDEST PUSH1 0x0 DUP1 SLOAD SWAP1 POP DUP2 LT ISZERO PUSH2 0x18F JUMPI DUP3 PUSH1 0x40 MLOAD PUSH1 0x20 ADD PUSH2 0x113 SWAP2 SWAP1 PUSH2 0x531 JUMP JUMPDEST PUSH1 0x40 MLOAD PUSH1 0x20 DUP2 DUP4 SUB SUB DUP2 MSTORE SWAP1 PUSH1 0x40 MSTORE DUP1 MLOAD SWAP1 PUSH1 0x20 ADD KECCAK256 PUSH1 0x0 DUP3 DUP2 SLOAD DUP2 LT PUSH2 0x13D JUMPI PUSH2 0x13C PUSH2 0x548 JUMP JUMPDEST JUMPDEST SWAP1 PUSH1 0x0 MSTORE PUSH1 0x20 PUSH1 0x0 KECCAK256 ADD PUSH1 0x40 MLOAD PUSH1 0x20 ADD PUSH2 0x157 SWAP2 SWAP1 PUSH2 0x66F JUMP JUMPDEST PUSH1 0x40 MLOAD PUSH1 0x20 DUP2 DUP4 SUB SUB DUP2 MSTORE SWAP1 PUSH1 0x40 MSTORE DUP1 MLOAD SWAP1 PUSH1 0x20 ADD KECCAK256 SUB PUSH2 0x17C JUMPI PUSH1 0x1 SWAP2 POP POP PUSH2 0x195 JUMP JUMPDEST DUP1 DUP1 PUSH2 0x187 SWAP1 PUSH2 0x6B5 JUMP JUMPDEST SWAP2 POP POP PUSH2 0xF5 JUMP JUMPDEST POP PUSH1 0x0 SWAP1 POP JUMPDEST SWAP2 SWAP1 POP JUMP JUMPDEST PUSH1 0x0 PUSH1 0x1 SLOAD DUP3 GT ISZERO PUSH2 0x1AF JUMPI PUSH1 0x0 SWAP1 POP PUSH2 0x1B4 JUMP JUMPDEST PUSH1 0x1 SWAP1 POP JUMPDEST SWAP3 SWAP2 POP POP JUMP JUMPDEST PUSH1 0x0 PUSH1 0x40 MLOAD SWAP1 POP SWAP1 JUMP JUMPDEST PUSH1 0x0 DUP1 REVERT JUMPDEST PUSH1 0x0 DUP1 REVERT JUMPDEST PUSH1 0x0 DUP2 ISZERO ISZERO SWAP1 POP SWAP2 SWAP1 POP JUMP JUMPDEST PUSH2 0x1E3 DUP2 PUSH2 0x1CE JUMP JUMPDEST DUP2 EQ PUSH2 0x1EE JUMPI PUSH1 0x0 DUP1 REVERT JUMPDEST POP JUMP JUMPDEST PUSH1 0x0 DUP2 CALLDATALOAD SWAP1 POP PUSH2 0x200 DUP2 PUSH2 0x1DA JUMP JUMPDEST SWAP3 SWAP2 POP POP JUMP JUMPDEST PUSH1 0x0 PUSH1 0x20 DUP3 DUP5 SUB SLT ISZERO PUSH2 0x21C JUMPI PUSH2 0x21B PUSH2 0x1C4 JUMP JUMPDEST JUMPDEST PUSH1 0x0 PUSH2 0x22A DUP5 DUP3 DUP6 ADD PUSH2 0x1F1 JUMP JUMPDEST SWAP2 POP POP SWAP3 SWAP2 POP POP JUMP JUMPDEST PUSH2 0x23C DUP2 PUSH2 0x1CE JUMP JUMPDEST DUP3 MSTORE POP POP JUMP JUMPDEST PUSH1 0x0 PUSH1 0x20 DUP3 ADD SWAP1 POP PUSH2 0x257 PUSH1 0x0 DUP4 ADD DUP5 PUSH2 0x233 JUMP JUMPDEST SWAP3 SWAP2 POP POP JUMP JUMPDEST PUSH1 0x0 DUP1 REVERT JUMPDEST PUSH1 0x0 DUP1 REVERT JUMPDEST PUSH1 0x0 PUSH1 0x1F NOT PUSH1 0x1F DUP4 ADD AND SWAP1 POP SWAP2 SWAP1 POP JUMP JUMPDEST PUSH32 0x4E487B7100000000000000000000000000000000000000000000000000000000 PUSH1 0x0 MSTORE PUSH1 0x41 PUSH1 0x4 MSTORE PUSH1 0x24 PUSH1 0x0 REVERT JUMPDEST PUSH2 0x2B0 DUP3 PUSH2 0x267 JUMP JUMPDEST DUP2 ADD DUP2 DUP2 LT PUSH8 0xFFFFFFFFFFFFFFFF DUP3 GT OR ISZERO PUSH2 0x2CF JUMPI PUSH2 0x2CE PUSH2 0x278 JUMP JUMPDEST JUMPDEST DUP1 PUSH1 0x40 MSTORE POP POP POP JUMP JUMPDEST PUSH1 0x0 PUSH2 0x2E2 PUSH2 0x1BA JUMP JUMPDEST SWAP1 POP PUSH2 0x2EE DUP3 DUP3 PUSH2 0x2A7 JUMP JUMPDEST SWAP2 SWAP1 POP JUMP JUMPDEST PUSH1 0x0 PUSH8 0xFFFFFFFFFFFFFFFF DUP3 GT ISZERO PUSH2 0x30E JUMPI PUSH2 0x30D PUSH2 0x278 JUMP JUMPDEST JUMPDEST PUSH2 0x317 DUP3 PUSH2 0x267 JUMP JUMPDEST SWAP1 POP PUSH1 0x20 DUP2 ADD SWAP1 POP SWAP2 SWAP1 POP JUMP JUMPDEST DUP3 DUP2 DUP4 CALLDATACOPY PUSH1 0x0 DUP4 DUP4 ADD MSTORE POP POP POP JUMP JUMPDEST PUSH1 0x0 PUSH2 0x346 PUSH2 0x341 DUP5 PUSH2 0x2F3 JUMP JUMPDEST PUSH2 0x2D8 JUMP JUMPDEST SWAP1 POP DUP3 DUP2 MSTORE PUSH1 0x20 DUP2 ADD DUP5 DUP5 DUP5 ADD GT ISZERO PUSH2 0x362 JUMPI PUSH2 0x361 PUSH2 0x262 JUMP JUMPDEST JUMPDEST PUSH2 0x36D DUP5 DUP3 DUP6 PUSH2 0x324 JUMP JUMPDEST POP SWAP4 SWAP3 POP POP POP JUMP JUMPDEST PUSH1 0x0 DUP3 PUSH1 0x1F DUP4 ADD SLT PUSH2 0x38A JUMPI PUSH2 0x389 PUSH2 0x25D JUMP JUMPDEST JUMPDEST DUP2 CALLDATALOAD PUSH2 0x39A DUP5 DUP3 PUSH1 0x20 DUP7 ADD PUSH2 0x333 JUMP JUMPDEST SWAP2 POP POP SWAP3 SWAP2 POP POP JUMP JUMPDEST PUSH1 0x0 PUSH1 0x20 DUP3 DUP5 SUB SLT ISZERO PUSH2 0x3B9 JUMPI PUSH2 0x3B8 PUSH2 0x1C4 JUMP JUMPDEST JUMPDEST PUSH1 0x0 DUP3 ADD CALLDATALOAD PUSH8 0xFFFFFFFFFFFFFFFF DUP2 GT ISZERO PUSH2 0x3D7 JUMPI PUSH2 0x3D6 PUSH2 0x1C9 JUMP JUMPDEST JUMPDEST PUSH2 0x3E3 DUP5 DUP3 DUP6 ADD PUSH2 0x375 JUMP JUMPDEST SWAP2 POP POP SWAP3 SWAP2 POP POP JUMP JUMPDEST PUSH1 0x0 PUSH20 0xFFFFFFFFFFFFFFFFFFFFFFFFFFFFFFFFFFFFFFFF DUP3 AND SWAP1 POP SWAP2 SWAP1 POP JUMP JUMPDEST PUSH1 0x0 PUSH2 0x417 DUP3 PUSH2 0x3EC JUMP JUMPDEST SWAP1 POP SWAP2 SWAP1 POP JUMP JUMPDEST PUSH2 0x427 DUP2 PUSH2 0x40C JUMP JUMPDEST DUP2 EQ PUSH2 0x432 JUMPI PUSH1 0x0 DUP1 REVERT JUMPDEST POP JUMP JUMPDEST PUSH1 0x0 DUP2 CALLDATALOAD SWAP1 POP PUSH2 0x444 DUP2 PUSH2 0x41E JUMP JUMPDEST SWAP3 SWAP2 POP POP JUMP JUMPDEST PUSH1 0x0 DUP2 SWAP1 POP SWAP2 SWAP1 POP JUMP JUMPDEST PUSH2 0x45D DUP2 PUSH2 0x44A JUMP JUMPDEST DUP2 EQ PUSH2 0x468 JUMPI PUSH1 0x0 DUP1 REVERT JUMPDEST POP JUMP JUMPDEST PUSH1 0x0 DUP2 CALLDATALOAD SWAP1 POP PUSH2 0x47A DUP2 PUSH2 0x454 JUMP JUMPDEST SWAP3 SWAP2 POP POP JUMP JUMPDEST PUSH1 0x0 DUP1 PUSH1 0x40 DUP4 DUP6 SUB SLT ISZERO PUSH2 0x497 JUMPI PUSH2 0x496 PUSH2 0x1C4 JUMP JUMPDEST JUMPDEST PUSH1 0x0 PUSH2 0x4A5 DUP6 DUP3 DUP7 ADD PUSH2 0x435 JUMP JUMPDEST SWAP3 POP POP PUSH1 0x20 PUSH2 0x4B6 DUP6 DUP3 DUP7 ADD PUSH2 0x46B JUMP JUMPDEST SWAP2 POP POP SWAP3 POP SWAP3 SWAP1 POP JUMP JUMPDEST PUSH1 0x0 DUP2 MLOAD SWAP1 POP SWAP2 SWAP1 POP JUMP JUMPDEST PUSH1 0x0 DUP2 SWAP1 POP SWAP3 SWAP2 POP POP JUMP JUMPDEST PUSH1 0x0 JUMPDEST DUP4 DUP2 LT ISZERO PUSH2 0x4F4 JUMPI DUP1 DUP3 ADD MLOAD DUP2 DUP5 ADD MSTORE PUSH1 0x20 DUP2 ADD SWAP1 POP PUSH2 0x4D9 JUMP JUMPDEST PUSH1 0x0 DUP5 DUP5 ADD MSTORE POP POP POP POP JUMP JUMPDEST PUSH1 0x0 PUSH2 0x50B DUP3 PUSH2 0x4C0 JUMP JUMPDEST PUSH2 0x515 DUP2 DUP6 PUSH2 0x4CB JUMP JUMPDEST SWAP4 POP PUSH2 0x525 DUP2 DUP6 PUSH1 0x20 DUP7 ADD PUSH2 0x4D6 JUMP JUMPDEST DUP1 DUP5 ADD SWAP2 POP POP SWAP3 SWAP2 POP POP JUMP JUMPDEST PUSH1 0x0 PUSH2 0x53D DUP3 DUP5 PUSH2 0x500 JUMP JUMPDEST SWAP2 POP DUP2 SWAP1 POP SWAP3 SWAP2 POP POP JUMP JUMPDEST PUSH32 0x4E487B7100000000000000000000000000000000000000000000000000000000 PUSH1 0x0 MSTORE PUSH1 0x32 PUSH1 0x4 MSTORE PUSH1 0x24 PUSH1 0x0 REVERT JUMPDEST PUSH32 0x4E487B7100000000000000000000000000000000000000000000000000000000 PUSH1 0x0 MSTORE PUSH1 0x22 PUSH1 0x4 MSTORE PUSH1 0x24 PUSH1 0x0 REVERT JUMPDEST PUSH1 0x0 PUSH1 0x2 DUP3 DIV SWAP1 POP PUSH1 0x1 DUP3 AND DUP1 PUSH2 0x5BE JUMPI PUSH1 0x7F DUP3 AND SWAP2 POP JUMPDEST PUSH1 0x20 DUP3 LT DUP2 SUB PUSH2 0x5D1 JUMPI PUSH2 0x5D0 PUSH2 0x577 JUMP JUMPDEST JUMPDEST POP SWAP2 SWAP1 POP JUMP JUMPDEST PUSH1 0x0 DUP2 SWAP1 POP DUP2 PUSH1 0x0 MSTORE PUSH1 0x20 PUSH1 0x0 KECCAK256 SWAP1 POP SWAP2 SWAP1 POP JUMP JUMPDEST PUSH1 0x0 DUP2 SLOAD PUSH2 0x5F9 DUP2 PUSH2 0x5A6 JUMP JUMPDEST PUSH2 0x603 DUP2 DUP7 PUSH2 0x4CB JUMP JUMPDEST SWAP5 POP PUSH1 0x1 DUP3 AND PUSH1 0x0 DUP2 EQ PUSH2 0x61E JUMPI PUSH1 0x1 DUP2 EQ PUSH2 0x633 JUMPI PUSH2 0x666 JUMP JUMPDEST PUSH1 0xFF NOT DUP4 AND DUP7 MSTORE DUP2 ISZERO ISZERO DUP3 MUL DUP7 ADD SWAP4 POP PUSH2 0x666 JUMP JUMPDEST PUSH2 0x63C DUP6 PUSH2 0x5D7 JUMP JUMPDEST PUSH1 0x0 JUMPDEST DUP4 DUP2 LT ISZERO PUSH2 0x65E JUMPI DUP2 SLOAD DUP2 DUP10 ADD MSTORE PUSH1 0x1 DUP3 ADD SWAP2 POP PUSH1 0x20 DUP2 ADD SWAP1 POP PUSH2 0x63F JUMP JUMPDEST DUP4 DUP9 ADD SWAP6 POP POP POP JUMPDEST POP POP POP SWAP3 SWAP2 POP POP JUMP JUMPDEST PUSH1 0x0 PUSH2 0x67B DUP3 DUP5 PUSH2 0x5EC JUMP JUMPDEST SWAP2 POP DUP2 SWAP1 POP SWAP3 SWAP2 POP POP JUMP JUMPDEST PUSH32 0x4E487B7100000000000000000000000000000000000000000000000000000000 PUSH1 0x0 MSTORE PUSH1 0x11 PUSH1 0x4 MSTORE PUSH1 0x24 PUSH1 0x0 REVERT JUMPDEST PUSH1 0x0 PUSH2 0x6C0 DUP3 PUSH2 0x44A JUMP JUMPDEST SWAP2 POP PUSH32 0xFFFFFFFFFFFFFFFFFFFFFFFFFFFFFFFFFFFFFFFFFFFFFFFFFFFFFFFFFFFFFFFF DUP3 SUB PUSH2 0x6F2 JUMPI PUSH2 0x6F1 PUSH2 0x686 JUMP JUMPDEST JUMPDEST PUSH1 0x1 DUP3 ADD SWAP1 POP SWAP2 SWAP1 POP JUMP INVALID LOG2 PUSH5 0x6970667358 0x22 SLT KECCAK256 EQ PUSH2 0x6FB3 EXP 0x1F 0xBF 0xB3 PUSH12 0xA1B15CD1EAAE9D003C9F8DEC SWAP4 PUSH2 0xD8A4 PUSH16 0x22146A3455DC64736F6C634300081100 CALLER "
				},
				"gasEstimates": {
					"creation": {
						"codeDepositCost": "368600",
						"executionCost": "infinite",
						"totalCost": "infinite"
					},
					"external": {
						"checkAmt(address,uint256)": "2965",
						"checkNationality(string)": "infinite",
						"checkPoliticalStatus(bool)": "infinite"
					}
				},
				"methodIdentifiers": {
					"checkAmt(address,uint256)": "bd799295",
					"checkNationality(string)": "7b0b53f0",
					"checkPoliticalStatus(bool)": "708c079d"
				}
			},
			"storageLayout": {
				"storage": [
					{
						"astId": 8,
						"contract": "contracts/SgAML.sol:SgAML",
						"label": "bannedCountries",
						"offset": 0,
						"slot": "0",
						"type": "t_array(t_string_storage)dyn_storage"
					},
					{
						"astId": 11,
						"contract": "contracts/SgAML.sol:SgAML",
						"label": "maxAmount",
						"offset": 0,
						"slot": "1",
						"type": "t_uint256"
					}
				],
				"types": {
					"t_array(t_string_storage)dyn_storage": {
						"base": "t_string_storage",
						"encoding": "dynamic_array",
						"label": "string[]",
						"numberOfBytes": "32"
					},
					"t_string_storage": {
						"encoding": "bytes",
						"label": "string",
						"numberOfBytes": "32"
					},
					"t_uint256": {
						"encoding": "inplace",
						"label": "uint256",
						"numberOfBytes": "32"
					}
				}
			},
			"userdoc": {
				"kind": "user",
				"methods": {},
				"version": 1
			}
		}
	}
}