{
	"contracts/TransactionProcessing.sol": {
		"TransactionProcessing": {
			"abi": [
				{
					"inputs": [
						{
							"internalType": "address payable",
							"name": "_receiver",
							"type": "address"
						}
					],
					"stateMutability": "payable",
					"type": "constructor"
				},
				{
					"anonymous": false,
					"inputs": [
						{
							"indexed": false,
							"internalType": "string",
							"name": "firstName",
							"type": "string"
						},
						{
							"indexed": false,
							"internalType": "uint256",
							"name": "timestamp",
							"type": "uint256"
						}
					],
					"name": "CreateLog",
					"type": "event"
				},
				{
					"inputs": [],
					"name": "getBalance",
					"outputs": [
						{
							"internalType": "uint256",
							"name": "",
							"type": "uint256"
						}
					],
					"stateMutability": "view",
					"type": "function"
				},
				{
					"inputs": [],
					"name": "processing",
					"outputs": [],
					"stateMutability": "nonpayable",
					"type": "function"
				},
				{
					"inputs": [],
					"name": "receiver",
					"outputs": [
						{
							"internalType": "address payable",
							"name": "",
							"type": "address"
						}
					],
					"stateMutability": "view",
					"type": "function"
				},
				{
					"inputs": [],
					"name": "sendViaCall",
					"outputs": [],
					"stateMutability": "payable",
					"type": "function"
				},
				{
					"inputs": [],
					"name": "sender",
					"outputs": [
						{
							"internalType": "address payable",
							"name": "",
							"type": "address"
						}
					],
					"stateMutability": "view",
					"type": "function"
				}
			],
			"devdoc": {
				"kind": "dev",
				"methods": {},
				"version": 1
			},
			"evm": {
				"assembly": "    /* \"contracts/TransactionProcessing.sol\":81:1129  contract TransactionProcessing{... */\n  mstore(0x40, 0x80)\n    /* \"contracts/TransactionProcessing.sol\":269:464  constructor(address payable _receiver) payable {... */\n  mload(0x40)\n  sub(codesize, bytecodeSize)\n  dup1\n  bytecodeSize\n  dup4\n  codecopy\n  dup2\n  dup2\n  add\n  0x40\n  mstore\n  dup2\n  add\n  swap1\n  tag_1\n  swap2\n  swap1\n  tag_2\n  jump\t// in\ntag_1:\n    /* \"contracts/TransactionProcessing.sol\":356:357  0 */\n  0x00\n    /* \"contracts/TransactionProcessing.sol\":335:358  _receiver != address(0) */\n  0xffffffffffffffffffffffffffffffffffffffff\n  and\n    /* \"contracts/TransactionProcessing.sol\":335:344  _receiver */\n  dup2\n    /* \"contracts/TransactionProcessing.sol\":335:358  _receiver != address(0) */\n  0xffffffffffffffffffffffffffffffffffffffff\n  and\n  sub\n    /* \"contracts/TransactionProcessing.sol\":327:386  require(_receiver != address(0), \"receiver = zero address\") */\n  tag_5\n  jumpi\n  mload(0x40)\n  0x08c379a000000000000000000000000000000000000000000000000000000000\n  dup2\n  mstore\n  0x04\n  add\n  tag_6\n  swap1\n  tag_7\n  jump\t// in\ntag_6:\n  mload(0x40)\n  dup1\n  swap2\n  sub\n  swap1\n  revert\ntag_5:\n    /* \"contracts/TransactionProcessing.sol\":414:424  msg.sender */\n  caller\n    /* \"contracts/TransactionProcessing.sol\":397:403  sender */\n  0x00\n  dup1\n    /* \"contracts/TransactionProcessing.sol\":397:425  sender = payable(msg.sender) */\n  0x0100\n  exp\n  dup2\n  sload\n  dup2\n  0xffffffffffffffffffffffffffffffffffffffff\n  mul\n  not\n  and\n  swap1\n  dup4\n  0xffffffffffffffffffffffffffffffffffffffff\n  and\n  mul\n  or\n  swap1\n  sstore\n  pop\n    /* \"contracts/TransactionProcessing.sol\":447:456  _receiver */\n  dup1\n    /* \"contracts/TransactionProcessing.sol\":436:444  receiver */\n  0x01\n  0x00\n    /* \"contracts/TransactionProcessing.sol\":436:456  receiver = _receiver */\n  0x0100\n  exp\n  dup2\n  sload\n  dup2\n  0xffffffffffffffffffffffffffffffffffffffff\n  mul\n  not\n  and\n  swap1\n  dup4\n  0xffffffffffffffffffffffffffffffffffffffff\n  and\n  mul\n  or\n  swap1\n  sstore\n  pop\n    /* \"contracts/TransactionProcessing.sol\":269:464  constructor(address payable _receiver) payable {... */\n  pop\n    /* \"contracts/TransactionProcessing.sol\":81:1129  contract TransactionProcessing{... */\n  jump(tag_8)\n    /* \"#utility.yul\":88:205   */\ntag_10:\n    /* \"#utility.yul\":197:198   */\n  0x00\n    /* \"#utility.yul\":194:195   */\n  dup1\n    /* \"#utility.yul\":187:199   */\n  revert\n    /* \"#utility.yul\":334:460   */\ntag_12:\n    /* \"#utility.yul\":371:378   */\n  0x00\n    /* \"#utility.yul\":411:453   */\n  0xffffffffffffffffffffffffffffffffffffffff\n    /* \"#utility.yul\":404:409   */\n  dup3\n    /* \"#utility.yul\":400:454   */\n  and\n    /* \"#utility.yul\":389:454   */\n  swap1\n  pop\n    /* \"#utility.yul\":334:460   */\n  swap2\n  swap1\n  pop\n  jump\t// out\n    /* \"#utility.yul\":466:570   */\ntag_13:\n    /* \"#utility.yul\":511:518   */\n  0x00\n    /* \"#utility.yul\":540:564   */\n  tag_25\n    /* \"#utility.yul\":558:563   */\n  dup3\n    /* \"#utility.yul\":540:564   */\n  tag_12\n  jump\t// in\ntag_25:\n    /* \"#utility.yul\":529:564   */\n  swap1\n  pop\n    /* \"#utility.yul\":466:570   */\n  swap2\n  swap1\n  pop\n  jump\t// out\n    /* \"#utility.yul\":576:714   */\ntag_14:\n    /* \"#utility.yul\":657:689   */\n  tag_27\n    /* \"#utility.yul\":683:688   */\n  dup2\n    /* \"#utility.yul\":657:689   */\n  tag_13\n  jump\t// in\ntag_27:\n    /* \"#utility.yul\":650:655   */\n  dup2\n    /* \"#utility.yul\":647:690   */\n  eq\n    /* \"#utility.yul\":637:708   */\n  tag_28\n  jumpi\n    /* \"#utility.yul\":704:705   */\n  0x00\n    /* \"#utility.yul\":701:702   */\n  dup1\n    /* \"#utility.yul\":694:706   */\n  revert\n    /* \"#utility.yul\":637:708   */\ntag_28:\n    /* \"#utility.yul\":576:714   */\n  pop\n  jump\t// out\n    /* \"#utility.yul\":720:879   */\ntag_15:\n    /* \"#utility.yul\":785:790   */\n  0x00\n    /* \"#utility.yul\":816:822   */\n  dup2\n    /* \"#utility.yul\":810:823   */\n  mload\n    /* \"#utility.yul\":801:823   */\n  swap1\n  pop\n    /* \"#utility.yul\":832:873   */\n  tag_30\n    /* \"#utility.yul\":867:872   */\n  dup2\n    /* \"#utility.yul\":832:873   */\n  tag_14\n  jump\t// in\ntag_30:\n    /* \"#utility.yul\":720:879   */\n  swap3\n  swap2\n  pop\n  pop\n  jump\t// out\n    /* \"#utility.yul\":885:1252   */\ntag_2:\n    /* \"#utility.yul\":963:969   */\n  0x00\n    /* \"#utility.yul\":1012:1014   */\n  0x20\n    /* \"#utility.yul\":1000:1009   */\n  dup3\n    /* \"#utility.yul\":991:998   */\n  dup5\n    /* \"#utility.yul\":987:1010   */\n  sub\n    /* \"#utility.yul\":983:1015   */\n  slt\n    /* \"#utility.yul\":980:1099   */\n  iszero\n  tag_32\n  jumpi\n    /* \"#utility.yul\":1018:1097   */\n  tag_33\n  tag_10\n  jump\t// in\ntag_33:\n    /* \"#utility.yul\":980:1099   */\ntag_32:\n    /* \"#utility.yul\":1138:1139   */\n  0x00\n    /* \"#utility.yul\":1163:1235   */\n  tag_34\n    /* \"#utility.yul\":1227:1234   */\n  dup5\n    /* \"#utility.yul\":1218:1224   */\n  dup3\n    /* \"#utility.yul\":1207:1216   */\n  dup6\n    /* \"#utility.yul\":1203:1225   */\n  add\n    /* \"#utility.yul\":1163:1235   */\n  tag_15\n  jump\t// in\ntag_34:\n    /* \"#utility.yul\":1153:1235   */\n  swap2\n  pop\n    /* \"#utility.yul\":1109:1245   */\n  pop\n    /* \"#utility.yul\":885:1252   */\n  swap3\n  swap2\n  pop\n  pop\n  jump\t// out\n    /* \"#utility.yul\":1258:1427   */\ntag_16:\n    /* \"#utility.yul\":1342:1353   */\n  0x00\n    /* \"#utility.yul\":1376:1382   */\n  dup3\n    /* \"#utility.yul\":1371:1374   */\n  dup3\n    /* \"#utility.yul\":1364:1383   */\n  mstore\n    /* \"#utility.yul\":1416:1420   */\n  0x20\n    /* \"#utility.yul\":1411:1414   */\n  dup3\n    /* \"#utility.yul\":1407:1421   */\n  add\n    /* \"#utility.yul\":1392:1421   */\n  swap1\n  pop\n    /* \"#utility.yul\":1258:1427   */\n  swap3\n  swap2\n  pop\n  pop\n  jump\t// out\n    /* \"#utility.yul\":1433:1606   */\ntag_17:\n    /* \"#utility.yul\":1573:1598   */\n  0x7265636569766572203d207a65726f2061646472657373000000000000000000\n    /* \"#utility.yul\":1569:1570   */\n  0x00\n    /* \"#utility.yul\":1561:1567   */\n  dup3\n    /* \"#utility.yul\":1557:1571   */\n  add\n    /* \"#utility.yul\":1550:1599   */\n  mstore\n    /* \"#utility.yul\":1433:1606   */\n  pop\n  jump\t// out\n    /* \"#utility.yul\":1612:1978   */\ntag_18:\n    /* \"#utility.yul\":1754:1757   */\n  0x00\n    /* \"#utility.yul\":1775:1842   */\n  tag_38\n    /* \"#utility.yul\":1839:1841   */\n  0x17\n    /* \"#utility.yul\":1834:1837   */\n  dup4\n    /* \"#utility.yul\":1775:1842   */\n  tag_16\n  jump\t// in\ntag_38:\n    /* \"#utility.yul\":1768:1842   */\n  swap2\n  pop\n    /* \"#utility.yul\":1851:1944   */\n  tag_39\n    /* \"#utility.yul\":1940:1943   */\n  dup3\n    /* \"#utility.yul\":1851:1944   */\n  tag_17\n  jump\t// in\ntag_39:\n    /* \"#utility.yul\":1969:1971   */\n  0x20\n    /* \"#utility.yul\":1964:1967   */\n  dup3\n    /* \"#utility.yul\":1960:1972   */\n  add\n    /* \"#utility.yul\":1953:1972   */\n  swap1\n  pop\n    /* \"#utility.yul\":1612:1978   */\n  swap2\n  swap1\n  pop\n  jump\t// out\n    /* \"#utility.yul\":1984:2403   */\ntag_7:\n    /* \"#utility.yul\":2150:2154   */\n  0x00\n    /* \"#utility.yul\":2188:2190   */\n  0x20\n    /* \"#utility.yul\":2177:2186   */\n  dup3\n    /* \"#utility.yul\":2173:2191   */\n  add\n    /* \"#utility.yul\":2165:2191   */\n  swap1\n  pop\n    /* \"#utility.yul\":2237:2246   */\n  dup2\n    /* \"#utility.yul\":2231:2235   */\n  dup2\n    /* \"#utility.yul\":2227:2247   */\n  sub\n    /* \"#utility.yul\":2223:2224   */\n  0x00\n    /* \"#utility.yul\":2212:2221   */\n  dup4\n    /* \"#utility.yul\":2208:2225   */\n  add\n    /* \"#utility.yul\":2201:2248   */\n  mstore\n    /* \"#utility.yul\":2265:2396   */\n  tag_41\n    /* \"#utility.yul\":2391:2395   */\n  dup2\n    /* \"#utility.yul\":2265:2396   */\n  tag_18\n  jump\t// in\ntag_41:\n    /* \"#utility.yul\":2257:2396   */\n  swap1\n  pop\n    /* \"#utility.yul\":1984:2403   */\n  swap2\n  swap1\n  pop\n  jump\t// out\n    /* \"contracts/TransactionProcessing.sol\":81:1129  contract TransactionProcessing{... */\ntag_8:\n  dataSize(sub_0)\n  dup1\n  dataOffset(sub_0)\n  0x00\n  codecopy\n  0x00\n  return\nstop\n\nsub_0: assembly {\n        /* \"contracts/TransactionProcessing.sol\":81:1129  contract TransactionProcessing{... */\n      mstore(0x40, 0x80)\n      jumpi(tag_1, lt(calldatasize, 0x04))\n      shr(0xe0, calldataload(0x00))\n      dup1\n      0x12065fe0\n      eq\n      tag_2\n      jumpi\n      dup1\n      0x3d6cfcd1\n      eq\n      tag_3\n      jumpi\n      dup1\n      0x67e404ce\n      eq\n      tag_4\n      jumpi\n      dup1\n      0xdbd81fc1\n      eq\n      tag_5\n      jumpi\n      dup1\n      0xf7260d3e\n      eq\n      tag_6\n      jumpi\n    tag_1:\n      0x00\n      dup1\n      revert\n        /* \"contracts/TransactionProcessing.sol\":1030:1126  function getBalance() public view returns (uint) {... */\n    tag_2:\n      callvalue\n      dup1\n      iszero\n      tag_7\n      jumpi\n      0x00\n      dup1\n      revert\n    tag_7:\n      pop\n      tag_8\n      tag_9\n      jump\t// in\n    tag_8:\n      mload(0x40)\n      tag_10\n      swap2\n      swap1\n      tag_11\n      jump\t// in\n    tag_10:\n      mload(0x40)\n      dup1\n      swap2\n      sub\n      swap1\n      return\n        /* \"contracts/TransactionProcessing.sol\":472:707  function processing() public {... */\n    tag_3:\n      callvalue\n      dup1\n      iszero\n      tag_12\n      jumpi\n      0x00\n      dup1\n      revert\n    tag_12:\n      pop\n      tag_13\n      tag_14\n      jump\t// in\n    tag_13:\n      stop\n        /* \"contracts/TransactionProcessing.sol\":177:206  address payable public sender */\n    tag_4:\n      callvalue\n      dup1\n      iszero\n      tag_15\n      jumpi\n      0x00\n      dup1\n      revert\n    tag_15:\n      pop\n      tag_16\n      tag_17\n      jump\t// in\n    tag_16:\n      mload(0x40)\n      tag_18\n      swap2\n      swap1\n      tag_19\n      jump\t// in\n    tag_18:\n      mload(0x40)\n      dup1\n      swap2\n      sub\n      swap1\n      return\n        /* \"contracts/TransactionProcessing.sol\":715:1022  function sendViaCall() public payable {... */\n    tag_5:\n      tag_20\n      tag_21\n      jump\t// in\n    tag_20:\n      stop\n        /* \"contracts/TransactionProcessing.sol\":213:244  address payable public receiver */\n    tag_6:\n      callvalue\n      dup1\n      iszero\n      tag_22\n      jumpi\n      0x00\n      dup1\n      revert\n    tag_22:\n      pop\n      tag_23\n      tag_24\n      jump\t// in\n    tag_23:\n      mload(0x40)\n      tag_25\n      swap2\n      swap1\n      tag_19\n      jump\t// in\n    tag_25:\n      mload(0x40)\n      dup1\n      swap2\n      sub\n      swap1\n      return\n        /* \"contracts/TransactionProcessing.sol\":1030:1126  function getBalance() public view returns (uint) {... */\n    tag_9:\n        /* \"contracts/TransactionProcessing.sol\":1073:1077  uint */\n      0x00\n        /* \"contracts/TransactionProcessing.sol\":1097:1118  address(this).balance */\n      selfbalance\n        /* \"contracts/TransactionProcessing.sol\":1090:1118  return address(this).balance */\n      swap1\n      pop\n        /* \"contracts/TransactionProcessing.sol\":1030:1126  function getBalance() public view returns (uint) {... */\n      swap1\n      jump\t// out\n        /* \"contracts/TransactionProcessing.sol\":472:707  function processing() public {... */\n    tag_14:\n        /* \"contracts/TransactionProcessing.sol\":553:576  string memory firstName */\n      0x00\n        /* \"contracts/TransactionProcessing.sol\":579:582  kyc */\n      0x02\n      0x00\n      swap1\n      sload\n      swap1\n      0x0100\n      exp\n      swap1\n      div\n      0xffffffffffffffffffffffffffffffffffffffff\n      and\n        /* \"contracts/TransactionProcessing.sol\":579:594  kyc.getUserInfo */\n      0xffffffffffffffffffffffffffffffffffffffff\n      and\n      0x6386c1c7\n        /* \"contracts/TransactionProcessing.sol\":595:601  sender */\n      0x00\n      dup1\n      sload\n      swap1\n      0x0100\n      exp\n      swap1\n      div\n      0xffffffffffffffffffffffffffffffffffffffff\n      and\n        /* \"contracts/TransactionProcessing.sol\":579:602  kyc.getUserInfo(sender) */\n      mload(0x40)\n      dup3\n      0xffffffff\n      and\n      0xe0\n      shl\n      dup2\n      mstore\n      0x04\n      add\n      tag_28\n      swap2\n      swap1\n      tag_19\n      jump\t// in\n    tag_28:\n      0x00\n      mload(0x40)\n      dup1\n      dup4\n      sub\n      dup2\n      dup7\n      gas\n      staticcall\n      iszero\n      dup1\n      iszero\n      tag_30\n      jumpi\n      returndatasize\n      0x00\n      dup1\n      returndatacopy\n      revert(0x00, returndatasize)\n    tag_30:\n      pop\n      pop\n      pop\n      pop\n      mload(0x40)\n      returndatasize\n      0x00\n      dup3\n      returndatacopy\n      returndatasize\n      not(0x1f)\n      0x1f\n      dup3\n      add\n      and\n      dup3\n      add\n      dup1\n      0x40\n      mstore\n      pop\n      dup2\n      add\n      swap1\n      tag_31\n      swap2\n      swap1\n      tag_32\n      jump\t// in\n    tag_31:\n        /* \"contracts/TransactionProcessing.sol\":603:604  0 */\n      0x00\n        /* \"contracts/TransactionProcessing.sol\":579:605  kyc.getUserInfo(sender)[0] */\n      dup2\n      mload\n      dup2\n      lt\n      tag_33\n      jumpi\n      tag_34\n      tag_35\n      jump\t// in\n    tag_34:\n    tag_33:\n      0x20\n      mul\n      0x20\n      add\n      add\n      mload\n        /* \"contracts/TransactionProcessing.sol\":579:615  kyc.getUserInfo(sender)[0].firstName */\n      0x40\n      add\n      mload\n        /* \"contracts/TransactionProcessing.sol\":553:615  string memory firstName = kyc.getUserInfo(sender)[0].firstName */\n      swap1\n      pop\n        /* \"contracts/TransactionProcessing.sol\":631:668  CreateLog(firstName, block.timestamp) */\n      0xc35d6dbbad810bb0fb26d3fd7c07a09c5afd64d647208c93d211dcac94b8349b\n        /* \"contracts/TransactionProcessing.sol\":641:650  firstName */\n      dup2\n        /* \"contracts/TransactionProcessing.sol\":652:667  block.timestamp */\n      timestamp\n        /* \"contracts/TransactionProcessing.sol\":631:668  CreateLog(firstName, block.timestamp) */\n      mload(0x40)\n      tag_36\n      swap3\n      swap2\n      swap1\n      tag_37\n      jump\t// in\n    tag_36:\n      mload(0x40)\n      dup1\n      swap2\n      sub\n      swap1\n      log1\n        /* \"contracts/TransactionProcessing.sol\":501:707  {... */\n      pop\n        /* \"contracts/TransactionProcessing.sol\":472:707  function processing() public {... */\n      jump\t// out\n        /* \"contracts/TransactionProcessing.sol\":177:206  address payable public sender */\n    tag_17:\n      0x00\n      dup1\n      sload\n      swap1\n      0x0100\n      exp\n      swap1\n      div\n      0xffffffffffffffffffffffffffffffffffffffff\n      and\n      dup2\n      jump\t// out\n        /* \"contracts/TransactionProcessing.sol\":715:1022  function sendViaCall() public payable {... */\n    tag_21:\n        /* \"contracts/TransactionProcessing.sol\":896:905  bool sent */\n      0x00\n        /* \"contracts/TransactionProcessing.sol\":907:924  bytes memory data */\n      dup1\n        /* \"contracts/TransactionProcessing.sol\":928:936  receiver */\n      0x01\n      0x00\n      swap1\n      sload\n      swap1\n      0x0100\n      exp\n      swap1\n      div\n      0xffffffffffffffffffffffffffffffffffffffff\n      and\n        /* \"contracts/TransactionProcessing.sol\":928:941  receiver.call */\n      0xffffffffffffffffffffffffffffffffffffffff\n      and\n        /* \"contracts/TransactionProcessing.sol\":949:961  getBalance() */\n      tag_39\n        /* \"contracts/TransactionProcessing.sol\":949:959  getBalance */\n      tag_9\n        /* \"contracts/TransactionProcessing.sol\":949:961  getBalance() */\n      jump\t// in\n    tag_39:\n        /* \"contracts/TransactionProcessing.sol\":928:966  receiver.call{value: getBalance()}(\"\") */\n      mload(0x40)\n      tag_40\n      swap1\n      tag_41\n      jump\t// in\n    tag_40:\n      0x00\n      mload(0x40)\n      dup1\n      dup4\n      sub\n      dup2\n      dup6\n      dup8\n      gas\n      call\n      swap3\n      pop\n      pop\n      pop\n      returndatasize\n      dup1\n      0x00\n      dup2\n      eq\n      tag_44\n      jumpi\n      mload(0x40)\n      swap2\n      pop\n      and(add(returndatasize, 0x3f), not(0x1f))\n      dup3\n      add\n      0x40\n      mstore\n      returndatasize\n      dup3\n      mstore\n      returndatasize\n      0x00\n      0x20\n      dup5\n      add\n      returndatacopy\n      jump(tag_43)\n    tag_44:\n      0x60\n      swap2\n      pop\n    tag_43:\n      pop\n        /* \"contracts/TransactionProcessing.sol\":895:966  (bool sent, bytes memory data) = receiver.call{value: getBalance()}(\"\") */\n      swap2\n      pop\n      swap2\n      pop\n        /* \"contracts/TransactionProcessing.sol\":985:989  sent */\n      dup2\n        /* \"contracts/TransactionProcessing.sol\":977:1014  require(sent, \"Failed to send Ether\") */\n      tag_45\n      jumpi\n      mload(0x40)\n      0x08c379a000000000000000000000000000000000000000000000000000000000\n      dup2\n      mstore\n      0x04\n      add\n      tag_46\n      swap1\n      tag_47\n      jump\t// in\n    tag_46:\n      mload(0x40)\n      dup1\n      swap2\n      sub\n      swap1\n      revert\n    tag_45:\n        /* \"contracts/TransactionProcessing.sol\":753:1022  {... */\n      pop\n      pop\n        /* \"contracts/TransactionProcessing.sol\":715:1022  function sendViaCall() public payable {... */\n      jump\t// out\n        /* \"contracts/TransactionProcessing.sol\":213:244  address payable public receiver */\n    tag_24:\n      0x01\n      0x00\n      swap1\n      sload\n      swap1\n      0x0100\n      exp\n      swap1\n      div\n      0xffffffffffffffffffffffffffffffffffffffff\n      and\n      dup2\n      jump\t// out\n        /* \"#utility.yul\":7:84   */\n    tag_48:\n        /* \"#utility.yul\":44:51   */\n      0x00\n        /* \"#utility.yul\":73:78   */\n      dup2\n        /* \"#utility.yul\":62:78   */\n      swap1\n      pop\n        /* \"#utility.yul\":7:84   */\n      swap2\n      swap1\n      pop\n      jump\t// out\n        /* \"#utility.yul\":90:208   */\n    tag_49:\n        /* \"#utility.yul\":177:201   */\n      tag_87\n        /* \"#utility.yul\":195:200   */\n      dup2\n        /* \"#utility.yul\":177:201   */\n      tag_48\n      jump\t// in\n    tag_87:\n        /* \"#utility.yul\":172:175   */\n      dup3\n        /* \"#utility.yul\":165:202   */\n      mstore\n        /* \"#utility.yul\":90:208   */\n      pop\n      pop\n      jump\t// out\n        /* \"#utility.yul\":214:436   */\n    tag_11:\n        /* \"#utility.yul\":307:311   */\n      0x00\n        /* \"#utility.yul\":345:347   */\n      0x20\n        /* \"#utility.yul\":334:343   */\n      dup3\n        /* \"#utility.yul\":330:348   */\n      add\n        /* \"#utility.yul\":322:348   */\n      swap1\n      pop\n        /* \"#utility.yul\":358:429   */\n      tag_89\n        /* \"#utility.yul\":426:427   */\n      0x00\n        /* \"#utility.yul\":415:424   */\n      dup4\n        /* \"#utility.yul\":411:428   */\n      add\n        /* \"#utility.yul\":402:408   */\n      dup5\n        /* \"#utility.yul\":358:429   */\n      tag_49\n      jump\t// in\n    tag_89:\n        /* \"#utility.yul\":214:436   */\n      swap3\n      swap2\n      pop\n      pop\n      jump\t// out\n        /* \"#utility.yul\":442:568   */\n    tag_50:\n        /* \"#utility.yul\":479:486   */\n      0x00\n        /* \"#utility.yul\":519:561   */\n      0xffffffffffffffffffffffffffffffffffffffff\n        /* \"#utility.yul\":512:517   */\n      dup3\n        /* \"#utility.yul\":508:562   */\n      and\n        /* \"#utility.yul\":497:562   */\n      swap1\n      pop\n        /* \"#utility.yul\":442:568   */\n      swap2\n      swap1\n      pop\n      jump\t// out\n        /* \"#utility.yul\":574:678   */\n    tag_51:\n        /* \"#utility.yul\":619:626   */\n      0x00\n        /* \"#utility.yul\":648:672   */\n      tag_92\n        /* \"#utility.yul\":666:671   */\n      dup3\n        /* \"#utility.yul\":648:672   */\n      tag_50\n      jump\t// in\n    tag_92:\n        /* \"#utility.yul\":637:672   */\n      swap1\n      pop\n        /* \"#utility.yul\":574:678   */\n      swap2\n      swap1\n      pop\n      jump\t// out\n        /* \"#utility.yul\":684:826   */\n    tag_52:\n        /* \"#utility.yul\":787:819   */\n      tag_94\n        /* \"#utility.yul\":813:818   */\n      dup2\n        /* \"#utility.yul\":787:819   */\n      tag_51\n      jump\t// in\n    tag_94:\n        /* \"#utility.yul\":782:785   */\n      dup3\n        /* \"#utility.yul\":775:820   */\n      mstore\n        /* \"#utility.yul\":684:826   */\n      pop\n      pop\n      jump\t// out\n        /* \"#utility.yul\":832:1086   */\n    tag_19:\n        /* \"#utility.yul\":941:945   */\n      0x00\n        /* \"#utility.yul\":979:981   */\n      0x20\n        /* \"#utility.yul\":968:977   */\n      dup3\n        /* \"#utility.yul\":964:982   */\n      add\n        /* \"#utility.yul\":956:982   */\n      swap1\n      pop\n        /* \"#utility.yul\":992:1079   */\n      tag_96\n        /* \"#utility.yul\":1076:1077   */\n      0x00\n        /* \"#utility.yul\":1065:1074   */\n      dup4\n        /* \"#utility.yul\":1061:1078   */\n      add\n        /* \"#utility.yul\":1052:1058   */\n      dup5\n        /* \"#utility.yul\":992:1079   */\n      tag_52\n      jump\t// in\n    tag_96:\n        /* \"#utility.yul\":832:1086   */\n      swap3\n      swap2\n      pop\n      pop\n      jump\t// out\n        /* \"#utility.yul\":1092:1167   */\n    tag_53:\n        /* \"#utility.yul\":1125:1131   */\n      0x00\n        /* \"#utility.yul\":1158:1160   */\n      0x40\n        /* \"#utility.yul\":1152:1161   */\n      mload\n        /* \"#utility.yul\":1142:1161   */\n      swap1\n      pop\n        /* \"#utility.yul\":1092:1167   */\n      swap1\n      jump\t// out\n        /* \"#utility.yul\":1173:1290   */\n    tag_54:\n        /* \"#utility.yul\":1282:1283   */\n      0x00\n        /* \"#utility.yul\":1279:1280   */\n      dup1\n        /* \"#utility.yul\":1272:1284   */\n      revert\n        /* \"#utility.yul\":1296:1413   */\n    tag_55:\n        /* \"#utility.yul\":1405:1406   */\n      0x00\n        /* \"#utility.yul\":1402:1403   */\n      dup1\n        /* \"#utility.yul\":1395:1407   */\n      revert\n        /* \"#utility.yul\":1419:1536   */\n    tag_56:\n        /* \"#utility.yul\":1528:1529   */\n      0x00\n        /* \"#utility.yul\":1525:1526   */\n      dup1\n        /* \"#utility.yul\":1518:1530   */\n      revert\n        /* \"#utility.yul\":1542:1644   */\n    tag_57:\n        /* \"#utility.yul\":1583:1589   */\n      0x00\n        /* \"#utility.yul\":1634:1636   */\n      0x1f\n        /* \"#utility.yul\":1630:1637   */\n      not\n        /* \"#utility.yul\":1625:1627   */\n      0x1f\n        /* \"#utility.yul\":1618:1623   */\n      dup4\n        /* \"#utility.yul\":1614:1628   */\n      add\n        /* \"#utility.yul\":1610:1638   */\n      and\n        /* \"#utility.yul\":1600:1638   */\n      swap1\n      pop\n        /* \"#utility.yul\":1542:1644   */\n      swap2\n      swap1\n      pop\n      jump\t// out\n        /* \"#utility.yul\":1650:1830   */\n    tag_58:\n        /* \"#utility.yul\":1698:1775   */\n      0x4e487b7100000000000000000000000000000000000000000000000000000000\n        /* \"#utility.yul\":1695:1696   */\n      0x00\n        /* \"#utility.yul\":1688:1776   */\n      mstore\n        /* \"#utility.yul\":1795:1799   */\n      0x41\n        /* \"#utility.yul\":1792:1793   */\n      0x04\n        /* \"#utility.yul\":1785:1800   */\n      mstore\n        /* \"#utility.yul\":1819:1823   */\n      0x24\n        /* \"#utility.yul\":1816:1817   */\n      0x00\n        /* \"#utility.yul\":1809:1824   */\n      revert\n        /* \"#utility.yul\":1836:2117   */\n    tag_59:\n        /* \"#utility.yul\":1919:1946   */\n      tag_104\n        /* \"#utility.yul\":1941:1945   */\n      dup3\n        /* \"#utility.yul\":1919:1946   */\n      tag_57\n      jump\t// in\n    tag_104:\n        /* \"#utility.yul\":1911:1917   */\n      dup2\n        /* \"#utility.yul\":1907:1947   */\n      add\n        /* \"#utility.yul\":2049:2055   */\n      dup2\n        /* \"#utility.yul\":2037:2047   */\n      dup2\n        /* \"#utility.yul\":2034:2056   */\n      lt\n        /* \"#utility.yul\":2013:2031   */\n      0xffffffffffffffff\n        /* \"#utility.yul\":2001:2011   */\n      dup3\n        /* \"#utility.yul\":1998:2032   */\n      gt\n        /* \"#utility.yul\":1995:2057   */\n      or\n        /* \"#utility.yul\":1992:2080   */\n      iszero\n      tag_105\n      jumpi\n        /* \"#utility.yul\":2060:2078   */\n      tag_106\n      tag_58\n      jump\t// in\n    tag_106:\n        /* \"#utility.yul\":1992:2080   */\n    tag_105:\n        /* \"#utility.yul\":2100:2110   */\n      dup1\n        /* \"#utility.yul\":2096:2098   */\n      0x40\n        /* \"#utility.yul\":2089:2111   */\n      mstore\n        /* \"#utility.yul\":1879:2117   */\n      pop\n        /* \"#utility.yul\":1836:2117   */\n      pop\n      pop\n      jump\t// out\n        /* \"#utility.yul\":2123:2252   */\n    tag_60:\n        /* \"#utility.yul\":2157:2163   */\n      0x00\n        /* \"#utility.yul\":2184:2204   */\n      tag_108\n      tag_53\n      jump\t// in\n    tag_108:\n        /* \"#utility.yul\":2174:2204   */\n      swap1\n      pop\n        /* \"#utility.yul\":2213:2246   */\n      tag_109\n        /* \"#utility.yul\":2241:2245   */\n      dup3\n        /* \"#utility.yul\":2233:2239   */\n      dup3\n        /* \"#utility.yul\":2213:2246   */\n      tag_59\n      jump\t// in\n    tag_109:\n        /* \"#utility.yul\":2123:2252   */\n      swap2\n      swap1\n      pop\n      jump\t// out\n        /* \"#utility.yul\":2258:2599   */\n    tag_61:\n        /* \"#utility.yul\":2365:2369   */\n      0x00\n        /* \"#utility.yul\":2455:2473   */\n      0xffffffffffffffff\n        /* \"#utility.yul\":2447:2453   */\n      dup3\n        /* \"#utility.yul\":2444:2474   */\n      gt\n        /* \"#utility.yul\":2441:2497   */\n      iszero\n      tag_111\n      jumpi\n        /* \"#utility.yul\":2477:2495   */\n      tag_112\n      tag_58\n      jump\t// in\n    tag_112:\n        /* \"#utility.yul\":2441:2497   */\n    tag_111:\n        /* \"#utility.yul\":2527:2531   */\n      0x20\n        /* \"#utility.yul\":2519:2525   */\n      dup3\n        /* \"#utility.yul\":2515:2532   */\n      mul\n        /* \"#utility.yul\":2507:2532   */\n      swap1\n      pop\n        /* \"#utility.yul\":2587:2591   */\n      0x20\n        /* \"#utility.yul\":2581:2585   */\n      dup2\n        /* \"#utility.yul\":2577:2592   */\n      add\n        /* \"#utility.yul\":2569:2592   */\n      swap1\n      pop\n        /* \"#utility.yul\":2258:2599   */\n      swap2\n      swap1\n      pop\n      jump\t// out\n        /* \"#utility.yul\":2605:2722   */\n    tag_62:\n        /* \"#utility.yul\":2714:2715   */\n      0x00\n        /* \"#utility.yul\":2711:2712   */\n      dup1\n        /* \"#utility.yul\":2704:2716   */\n      revert\n        /* \"#utility.yul\":2728:2845   */\n    tag_63:\n        /* \"#utility.yul\":2837:2838   */\n      0x00\n        /* \"#utility.yul\":2834:2835   */\n      dup1\n        /* \"#utility.yul\":2827:2839   */\n      revert\n        /* \"#utility.yul\":2851:2968   */\n    tag_64:\n        /* \"#utility.yul\":2960:2961   */\n      0x00\n        /* \"#utility.yul\":2957:2958   */\n      dup1\n        /* \"#utility.yul\":2950:2962   */\n      revert\n        /* \"#utility.yul\":2974:3070   */\n    tag_65:\n        /* \"#utility.yul\":3011:3018   */\n      0x00\n        /* \"#utility.yul\":3040:3064   */\n      tag_117\n        /* \"#utility.yul\":3058:3063   */\n      dup3\n        /* \"#utility.yul\":3040:3064   */\n      tag_50\n      jump\t// in\n    tag_117:\n        /* \"#utility.yul\":3029:3064   */\n      swap1\n      pop\n        /* \"#utility.yul\":2974:3070   */\n      swap2\n      swap1\n      pop\n      jump\t// out\n        /* \"#utility.yul\":3076:3198   */\n    tag_66:\n        /* \"#utility.yul\":3149:3173   */\n      tag_119\n        /* \"#utility.yul\":3167:3172   */\n      dup2\n        /* \"#utility.yul\":3149:3173   */\n      tag_65\n      jump\t// in\n    tag_119:\n        /* \"#utility.yul\":3142:3147   */\n      dup2\n        /* \"#utility.yul\":3139:3174   */\n      eq\n        /* \"#utility.yul\":3129:3192   */\n      tag_120\n      jumpi\n        /* \"#utility.yul\":3188:3189   */\n      0x00\n        /* \"#utility.yul\":3185:3186   */\n      dup1\n        /* \"#utility.yul\":3178:3190   */\n      revert\n        /* \"#utility.yul\":3129:3192   */\n    tag_120:\n        /* \"#utility.yul\":3076:3198   */\n      pop\n      jump\t// out\n        /* \"#utility.yul\":3204:3347   */\n    tag_67:\n        /* \"#utility.yul\":3261:3266   */\n      0x00\n        /* \"#utility.yul\":3292:3298   */\n      dup2\n        /* \"#utility.yul\":3286:3299   */\n      mload\n        /* \"#utility.yul\":3277:3299   */\n      swap1\n      pop\n        /* \"#utility.yul\":3308:3341   */\n      tag_122\n        /* \"#utility.yul\":3335:3340   */\n      dup2\n        /* \"#utility.yul\":3308:3341   */\n      tag_66\n      jump\t// in\n    tag_122:\n        /* \"#utility.yul\":3204:3347   */\n      swap3\n      swap2\n      pop\n      pop\n      jump\t// out\n        /* \"#utility.yul\":3353:3470   */\n    tag_68:\n        /* \"#utility.yul\":3462:3463   */\n      0x00\n        /* \"#utility.yul\":3459:3460   */\n      dup1\n        /* \"#utility.yul\":3452:3464   */\n      revert\n        /* \"#utility.yul\":3476:3784   */\n    tag_69:\n        /* \"#utility.yul\":3538:3542   */\n      0x00\n        /* \"#utility.yul\":3628:3646   */\n      0xffffffffffffffff\n        /* \"#utility.yul\":3620:3626   */\n      dup3\n        /* \"#utility.yul\":3617:3647   */\n      gt\n        /* \"#utility.yul\":3614:3670   */\n      iszero\n      tag_125\n      jumpi\n        /* \"#utility.yul\":3650:3668   */\n      tag_126\n      tag_58\n      jump\t// in\n    tag_126:\n        /* \"#utility.yul\":3614:3670   */\n    tag_125:\n        /* \"#utility.yul\":3688:3717   */\n      tag_127\n        /* \"#utility.yul\":3710:3716   */\n      dup3\n        /* \"#utility.yul\":3688:3717   */\n      tag_57\n      jump\t// in\n    tag_127:\n        /* \"#utility.yul\":3680:3717   */\n      swap1\n      pop\n        /* \"#utility.yul\":3772:3776   */\n      0x20\n        /* \"#utility.yul\":3766:3770   */\n      dup2\n        /* \"#utility.yul\":3762:3777   */\n      add\n        /* \"#utility.yul\":3754:3777   */\n      swap1\n      pop\n        /* \"#utility.yul\":3476:3784   */\n      swap2\n      swap1\n      pop\n      jump\t// out\n        /* \"#utility.yul\":3790:4036   */\n    tag_70:\n        /* \"#utility.yul\":3871:3872   */\n      0x00\n        /* \"#utility.yul\":3881:3994   */\n    tag_129:\n        /* \"#utility.yul\":3895:3901   */\n      dup4\n        /* \"#utility.yul\":3892:3893   */\n      dup2\n        /* \"#utility.yul\":3889:3902   */\n      lt\n        /* \"#utility.yul\":3881:3994   */\n      iszero\n      tag_131\n      jumpi\n        /* \"#utility.yul\":3980:3981   */\n      dup1\n        /* \"#utility.yul\":3975:3978   */\n      dup3\n        /* \"#utility.yul\":3971:3982   */\n      add\n        /* \"#utility.yul\":3965:3983   */\n      mload\n        /* \"#utility.yul\":3961:3962   */\n      dup2\n        /* \"#utility.yul\":3956:3959   */\n      dup5\n        /* \"#utility.yul\":3952:3963   */\n      add\n        /* \"#utility.yul\":3945:3984   */\n      mstore\n        /* \"#utility.yul\":3917:3919   */\n      0x20\n        /* \"#utility.yul\":3914:3915   */\n      dup2\n        /* \"#utility.yul\":3910:3920   */\n      add\n        /* \"#utility.yul\":3905:3920   */\n      swap1\n      pop\n        /* \"#utility.yul\":3881:3994   */\n      jump(tag_129)\n    tag_131:\n        /* \"#utility.yul\":4028:4029   */\n      0x00\n        /* \"#utility.yul\":4019:4025   */\n      dup5\n        /* \"#utility.yul\":4014:4017   */\n      dup5\n        /* \"#utility.yul\":4010:4026   */\n      add\n        /* \"#utility.yul\":4003:4030   */\n      mstore\n        /* \"#utility.yul\":3852:4036   */\n      pop\n        /* \"#utility.yul\":3790:4036   */\n      pop\n      pop\n      pop\n      jump\t// out\n        /* \"#utility.yul\":4042:4476   */\n    tag_71:\n        /* \"#utility.yul\":4131:4136   */\n      0x00\n        /* \"#utility.yul\":4156:4222   */\n      tag_133\n        /* \"#utility.yul\":4172:4221   */\n      tag_134\n        /* \"#utility.yul\":4214:4220   */\n      dup5\n        /* \"#utility.yul\":4172:4221   */\n      tag_69\n      jump\t// in\n    tag_134:\n        /* \"#utility.yul\":4156:4222   */\n      tag_60\n      jump\t// in\n    tag_133:\n        /* \"#utility.yul\":4147:4222   */\n      swap1\n      pop\n        /* \"#utility.yul\":4245:4251   */\n      dup3\n        /* \"#utility.yul\":4238:4243   */\n      dup2\n        /* \"#utility.yul\":4231:4252   */\n      mstore\n        /* \"#utility.yul\":4283:4287   */\n      0x20\n        /* \"#utility.yul\":4276:4281   */\n      dup2\n        /* \"#utility.yul\":4272:4288   */\n      add\n        /* \"#utility.yul\":4321:4324   */\n      dup5\n        /* \"#utility.yul\":4312:4318   */\n      dup5\n        /* \"#utility.yul\":4307:4310   */\n      dup5\n        /* \"#utility.yul\":4303:4319   */\n      add\n        /* \"#utility.yul\":4300:4325   */\n      gt\n        /* \"#utility.yul\":4297:4409   */\n      iszero\n      tag_135\n      jumpi\n        /* \"#utility.yul\":4328:4407   */\n      tag_136\n      tag_68\n      jump\t// in\n    tag_136:\n        /* \"#utility.yul\":4297:4409   */\n    tag_135:\n        /* \"#utility.yul\":4418:4470   */\n      tag_137\n        /* \"#utility.yul\":4463:4469   */\n      dup5\n        /* \"#utility.yul\":4458:4461   */\n      dup3\n        /* \"#utility.yul\":4453:4456   */\n      dup6\n        /* \"#utility.yul\":4418:4470   */\n      tag_70\n      jump\t// in\n    tag_137:\n        /* \"#utility.yul\":4137:4476   */\n      pop\n        /* \"#utility.yul\":4042:4476   */\n      swap4\n      swap3\n      pop\n      pop\n      pop\n      jump\t// out\n        /* \"#utility.yul\":4496:4851   */\n    tag_72:\n        /* \"#utility.yul\":4563:4568   */\n      0x00\n        /* \"#utility.yul\":4612:4615   */\n      dup3\n        /* \"#utility.yul\":4605:4609   */\n      0x1f\n        /* \"#utility.yul\":4597:4603   */\n      dup4\n        /* \"#utility.yul\":4593:4610   */\n      add\n        /* \"#utility.yul\":4589:4616   */\n      slt\n        /* \"#utility.yul\":4579:4701   */\n      tag_139\n      jumpi\n        /* \"#utility.yul\":4620:4699   */\n      tag_140\n      tag_56\n      jump\t// in\n    tag_140:\n        /* \"#utility.yul\":4579:4701   */\n    tag_139:\n        /* \"#utility.yul\":4730:4736   */\n      dup2\n        /* \"#utility.yul\":4724:4737   */\n      mload\n        /* \"#utility.yul\":4755:4845   */\n      tag_141\n        /* \"#utility.yul\":4841:4844   */\n      dup5\n        /* \"#utility.yul\":4833:4839   */\n      dup3\n        /* \"#utility.yul\":4826:4830   */\n      0x20\n        /* \"#utility.yul\":4818:4824   */\n      dup7\n        /* \"#utility.yul\":4814:4831   */\n      add\n        /* \"#utility.yul\":4755:4845   */\n      tag_71\n      jump\t// in\n    tag_141:\n        /* \"#utility.yul\":4746:4845   */\n      swap2\n      pop\n        /* \"#utility.yul\":4569:4851   */\n      pop\n        /* \"#utility.yul\":4496:4851   */\n      swap3\n      swap2\n      pop\n      pop\n      jump\t// out\n        /* \"#utility.yul\":4890:6351   */\n    tag_73:\n        /* \"#utility.yul\":4980:4985   */\n      0x00\n        /* \"#utility.yul\":5024:5028   */\n      0x80\n        /* \"#utility.yul\":5012:5021   */\n      dup3\n        /* \"#utility.yul\":5007:5010   */\n      dup5\n        /* \"#utility.yul\":5003:5022   */\n      sub\n        /* \"#utility.yul\":4999:5029   */\n      slt\n        /* \"#utility.yul\":4996:5113   */\n      iszero\n      tag_143\n      jumpi\n        /* \"#utility.yul\":5032:5111   */\n      tag_144\n      tag_63\n      jump\t// in\n    tag_144:\n        /* \"#utility.yul\":4996:5113   */\n    tag_143:\n        /* \"#utility.yul\":5131:5152   */\n      tag_145\n        /* \"#utility.yul\":5147:5151   */\n      0x80\n        /* \"#utility.yul\":5131:5152   */\n      tag_60\n      jump\t// in\n    tag_145:\n        /* \"#utility.yul\":5122:5152   */\n      swap1\n      pop\n        /* \"#utility.yul\":5218:5219   */\n      0x00\n        /* \"#utility.yul\":5258:5318   */\n      tag_146\n        /* \"#utility.yul\":5314:5317   */\n      dup5\n        /* \"#utility.yul\":5305:5311   */\n      dup3\n        /* \"#utility.yul\":5294:5303   */\n      dup6\n        /* \"#utility.yul\":5290:5312   */\n      add\n        /* \"#utility.yul\":5258:5318   */\n      tag_67\n      jump\t// in\n    tag_146:\n        /* \"#utility.yul\":5251:5255   */\n      0x00\n        /* \"#utility.yul\":5244:5249   */\n      dup4\n        /* \"#utility.yul\":5240:5256   */\n      add\n        /* \"#utility.yul\":5233:5319   */\n      mstore\n        /* \"#utility.yul\":5162:5330   */\n      pop\n        /* \"#utility.yul\":5410:5412   */\n      0x20\n        /* \"#utility.yul\":5399:5408   */\n      dup3\n        /* \"#utility.yul\":5395:5413   */\n      add\n        /* \"#utility.yul\":5389:5414   */\n      mload\n        /* \"#utility.yul\":5441:5459   */\n      0xffffffffffffffff\n        /* \"#utility.yul\":5433:5439   */\n      dup2\n        /* \"#utility.yul\":5430:5460   */\n      gt\n        /* \"#utility.yul\":5427:5544   */\n      iszero\n      tag_147\n      jumpi\n        /* \"#utility.yul\":5463:5542   */\n      tag_148\n      tag_64\n      jump\t// in\n    tag_148:\n        /* \"#utility.yul\":5427:5544   */\n    tag_147:\n        /* \"#utility.yul\":5583:5653   */\n      tag_149\n        /* \"#utility.yul\":5649:5652   */\n      dup5\n        /* \"#utility.yul\":5640:5646   */\n      dup3\n        /* \"#utility.yul\":5629:5638   */\n      dup6\n        /* \"#utility.yul\":5625:5647   */\n      add\n        /* \"#utility.yul\":5583:5653   */\n      tag_72\n      jump\t// in\n    tag_149:\n        /* \"#utility.yul\":5576:5580   */\n      0x20\n        /* \"#utility.yul\":5569:5574   */\n      dup4\n        /* \"#utility.yul\":5565:5581   */\n      add\n        /* \"#utility.yul\":5558:5654   */\n      mstore\n        /* \"#utility.yul\":5340:5665   */\n      pop\n        /* \"#utility.yul\":5750:5752   */\n      0x40\n        /* \"#utility.yul\":5739:5748   */\n      dup3\n        /* \"#utility.yul\":5735:5753   */\n      add\n        /* \"#utility.yul\":5729:5754   */\n      mload\n        /* \"#utility.yul\":5781:5799   */\n      0xffffffffffffffff\n        /* \"#utility.yul\":5773:5779   */\n      dup2\n        /* \"#utility.yul\":5770:5800   */\n      gt\n        /* \"#utility.yul\":5767:5884   */\n      iszero\n      tag_150\n      jumpi\n        /* \"#utility.yul\":5803:5882   */\n      tag_151\n      tag_64\n      jump\t// in\n    tag_151:\n        /* \"#utility.yul\":5767:5884   */\n    tag_150:\n        /* \"#utility.yul\":5923:5993   */\n      tag_152\n        /* \"#utility.yul\":5989:5992   */\n      dup5\n        /* \"#utility.yul\":5980:5986   */\n      dup3\n        /* \"#utility.yul\":5969:5978   */\n      dup6\n        /* \"#utility.yul\":5965:5987   */\n      add\n        /* \"#utility.yul\":5923:5993   */\n      tag_72\n      jump\t// in\n    tag_152:\n        /* \"#utility.yul\":5916:5920   */\n      0x40\n        /* \"#utility.yul\":5909:5914   */\n      dup4\n        /* \"#utility.yul\":5905:5921   */\n      add\n        /* \"#utility.yul\":5898:5994   */\n      mstore\n        /* \"#utility.yul\":5675:6005   */\n      pop\n        /* \"#utility.yul\":6089:6091   */\n      0x60\n        /* \"#utility.yul\":6078:6087   */\n      dup3\n        /* \"#utility.yul\":6074:6092   */\n      add\n        /* \"#utility.yul\":6068:6093   */\n      mload\n        /* \"#utility.yul\":6120:6138   */\n      0xffffffffffffffff\n        /* \"#utility.yul\":6112:6118   */\n      dup2\n        /* \"#utility.yul\":6109:6139   */\n      gt\n        /* \"#utility.yul\":6106:6223   */\n      iszero\n      tag_153\n      jumpi\n        /* \"#utility.yul\":6142:6221   */\n      tag_154\n      tag_64\n      jump\t// in\n    tag_154:\n        /* \"#utility.yul\":6106:6223   */\n    tag_153:\n        /* \"#utility.yul\":6262:6332   */\n      tag_155\n        /* \"#utility.yul\":6328:6331   */\n      dup5\n        /* \"#utility.yul\":6319:6325   */\n      dup3\n        /* \"#utility.yul\":6308:6317   */\n      dup6\n        /* \"#utility.yul\":6304:6326   */\n      add\n        /* \"#utility.yul\":6262:6332   */\n      tag_72\n      jump\t// in\n    tag_155:\n        /* \"#utility.yul\":6255:6259   */\n      0x60\n        /* \"#utility.yul\":6248:6253   */\n      dup4\n        /* \"#utility.yul\":6244:6260   */\n      add\n        /* \"#utility.yul\":6237:6333   */\n      mstore\n        /* \"#utility.yul\":6015:6344   */\n      pop\n        /* \"#utility.yul\":4890:6351   */\n      swap3\n      swap2\n      pop\n      pop\n      jump\t// out\n        /* \"#utility.yul\":6392:7412   */\n    tag_74:\n        /* \"#utility.yul\":6529:6534   */\n      0x00\n        /* \"#utility.yul\":6554:6665   */\n      tag_157\n        /* \"#utility.yul\":6570:6664   */\n      tag_158\n        /* \"#utility.yul\":6657:6663   */\n      dup5\n        /* \"#utility.yul\":6570:6664   */\n      tag_61\n      jump\t// in\n    tag_158:\n        /* \"#utility.yul\":6554:6665   */\n      tag_60\n      jump\t// in\n    tag_157:\n        /* \"#utility.yul\":6545:6665   */\n      swap1\n      pop\n        /* \"#utility.yul\":6685:6690   */\n      dup1\n        /* \"#utility.yul\":6714:6720   */\n      dup4\n        /* \"#utility.yul\":6707:6712   */\n      dup3\n        /* \"#utility.yul\":6700:6721   */\n      mstore\n        /* \"#utility.yul\":6748:6752   */\n      0x20\n        /* \"#utility.yul\":6741:6746   */\n      dup3\n        /* \"#utility.yul\":6737:6753   */\n      add\n        /* \"#utility.yul\":6730:6753   */\n      swap1\n      pop\n        /* \"#utility.yul\":6801:6805   */\n      0x20\n        /* \"#utility.yul\":6793:6799   */\n      dup5\n        /* \"#utility.yul\":6789:6806   */\n      mul\n        /* \"#utility.yul\":6781:6787   */\n      dup4\n        /* \"#utility.yul\":6777:6807   */\n      add\n        /* \"#utility.yul\":6830:6833   */\n      dup6\n        /* \"#utility.yul\":6822:6828   */\n      dup2\n        /* \"#utility.yul\":6819:6834   */\n      gt\n        /* \"#utility.yul\":6816:6938   */\n      iszero\n      tag_159\n      jumpi\n        /* \"#utility.yul\":6849:6928   */\n      tag_160\n      tag_62\n      jump\t// in\n    tag_160:\n        /* \"#utility.yul\":6816:6938   */\n    tag_159:\n        /* \"#utility.yul\":6964:6970   */\n      dup4\n        /* \"#utility.yul\":6947:7406   */\n    tag_161:\n        /* \"#utility.yul\":6981:6987   */\n      dup2\n        /* \"#utility.yul\":6976:6979   */\n      dup2\n        /* \"#utility.yul\":6973:6988   */\n      lt\n        /* \"#utility.yul\":6947:7406   */\n      iszero\n      tag_163\n      jumpi\n        /* \"#utility.yul\":7063:7066   */\n      dup1\n        /* \"#utility.yul\":7057:7067   */\n      mload\n        /* \"#utility.yul\":7099:7117   */\n      0xffffffffffffffff\n        /* \"#utility.yul\":7086:7097   */\n      dup2\n        /* \"#utility.yul\":7083:7118   */\n      gt\n        /* \"#utility.yul\":7080:7202   */\n      iszero\n      tag_164\n      jumpi\n        /* \"#utility.yul\":7121:7200   */\n      tag_165\n      tag_56\n      jump\t// in\n    tag_165:\n        /* \"#utility.yul\":7080:7202   */\n    tag_164:\n        /* \"#utility.yul\":7245:7256   */\n      dup1\n        /* \"#utility.yul\":7237:7243   */\n      dup7\n        /* \"#utility.yul\":7233:7257   */\n      add\n        /* \"#utility.yul\":7283:7361   */\n      tag_166\n        /* \"#utility.yul\":7357:7360   */\n      dup10\n        /* \"#utility.yul\":7345:7355   */\n      dup3\n        /* \"#utility.yul\":7283:7361   */\n      tag_73\n      jump\t// in\n    tag_166:\n        /* \"#utility.yul\":7278:7281   */\n      dup6\n        /* \"#utility.yul\":7271:7362   */\n      mstore\n        /* \"#utility.yul\":7391:7395   */\n      0x20\n        /* \"#utility.yul\":7386:7389   */\n      dup6\n        /* \"#utility.yul\":7382:7396   */\n      add\n        /* \"#utility.yul\":7375:7396   */\n      swap5\n      pop\n        /* \"#utility.yul\":7023:7406   */\n      pop\n      pop\n        /* \"#utility.yul\":7007:7011   */\n      0x20\n        /* \"#utility.yul\":7002:7005   */\n      dup2\n        /* \"#utility.yul\":6998:7012   */\n      add\n        /* \"#utility.yul\":6991:7012   */\n      swap1\n      pop\n        /* \"#utility.yul\":6947:7406   */\n      jump(tag_161)\n    tag_163:\n        /* \"#utility.yul\":6951:6972   */\n      pop\n        /* \"#utility.yul\":6535:7412   */\n      pop\n      pop\n        /* \"#utility.yul\":6392:7412   */\n      swap4\n      swap3\n      pop\n      pop\n      pop\n      jump\t// out\n        /* \"#utility.yul\":7453:7898   */\n    tag_75:\n        /* \"#utility.yul\":7565:7570   */\n      0x00\n        /* \"#utility.yul\":7614:7617   */\n      dup3\n        /* \"#utility.yul\":7607:7611   */\n      0x1f\n        /* \"#utility.yul\":7599:7605   */\n      dup4\n        /* \"#utility.yul\":7595:7612   */\n      add\n        /* \"#utility.yul\":7591:7618   */\n      slt\n        /* \"#utility.yul\":7581:7703   */\n      tag_168\n      jumpi\n        /* \"#utility.yul\":7622:7701   */\n      tag_169\n      tag_56\n      jump\t// in\n    tag_169:\n        /* \"#utility.yul\":7581:7703   */\n    tag_168:\n        /* \"#utility.yul\":7732:7738   */\n      dup2\n        /* \"#utility.yul\":7726:7739   */\n      mload\n        /* \"#utility.yul\":7757:7892   */\n      tag_170\n        /* \"#utility.yul\":7888:7891   */\n      dup5\n        /* \"#utility.yul\":7880:7886   */\n      dup3\n        /* \"#utility.yul\":7873:7877   */\n      0x20\n        /* \"#utility.yul\":7865:7871   */\n      dup7\n        /* \"#utility.yul\":7861:7878   */\n      add\n        /* \"#utility.yul\":7757:7892   */\n      tag_74\n      jump\t// in\n    tag_170:\n        /* \"#utility.yul\":7748:7892   */\n      swap2\n      pop\n        /* \"#utility.yul\":7571:7898   */\n      pop\n        /* \"#utility.yul\":7453:7898   */\n      swap3\n      swap2\n      pop\n      pop\n      jump\t// out\n        /* \"#utility.yul\":7904:8518   */\n    tag_32:\n        /* \"#utility.yul\":8029:8035   */\n      0x00\n        /* \"#utility.yul\":8078:8080   */\n      0x20\n        /* \"#utility.yul\":8066:8075   */\n      dup3\n        /* \"#utility.yul\":8057:8064   */\n      dup5\n        /* \"#utility.yul\":8053:8076   */\n      sub\n        /* \"#utility.yul\":8049:8081   */\n      slt\n        /* \"#utility.yul\":8046:8165   */\n      iszero\n      tag_172\n      jumpi\n        /* \"#utility.yul\":8084:8163   */\n      tag_173\n      tag_54\n      jump\t// in\n    tag_173:\n        /* \"#utility.yul\":8046:8165   */\n    tag_172:\n        /* \"#utility.yul\":8225:8226   */\n      0x00\n        /* \"#utility.yul\":8214:8223   */\n      dup3\n        /* \"#utility.yul\":8210:8227   */\n      add\n        /* \"#utility.yul\":8204:8228   */\n      mload\n        /* \"#utility.yul\":8255:8273   */\n      0xffffffffffffffff\n        /* \"#utility.yul\":8247:8253   */\n      dup2\n        /* \"#utility.yul\":8244:8274   */\n      gt\n        /* \"#utility.yul\":8241:8358   */\n      iszero\n      tag_174\n      jumpi\n        /* \"#utility.yul\":8277:8356   */\n      tag_175\n      tag_55\n      jump\t// in\n    tag_175:\n        /* \"#utility.yul\":8241:8358   */\n    tag_174:\n        /* \"#utility.yul\":8382:8501   */\n      tag_176\n        /* \"#utility.yul\":8493:8500   */\n      dup5\n        /* \"#utility.yul\":8484:8490   */\n      dup3\n        /* \"#utility.yul\":8473:8482   */\n      dup6\n        /* \"#utility.yul\":8469:8491   */\n      add\n        /* \"#utility.yul\":8382:8501   */\n      tag_75\n      jump\t// in\n    tag_176:\n        /* \"#utility.yul\":8372:8501   */\n      swap2\n      pop\n        /* \"#utility.yul\":8175:8511   */\n      pop\n        /* \"#utility.yul\":7904:8518   */\n      swap3\n      swap2\n      pop\n      pop\n      jump\t// out\n        /* \"#utility.yul\":8524:8704   */\n    tag_35:\n        /* \"#utility.yul\":8572:8649   */\n      0x4e487b7100000000000000000000000000000000000000000000000000000000\n        /* \"#utility.yul\":8569:8570   */\n      0x00\n        /* \"#utility.yul\":8562:8650   */\n      mstore\n        /* \"#utility.yul\":8669:8673   */\n      0x32\n        /* \"#utility.yul\":8666:8667   */\n      0x04\n        /* \"#utility.yul\":8659:8674   */\n      mstore\n        /* \"#utility.yul\":8693:8697   */\n      0x24\n        /* \"#utility.yul\":8690:8691   */\n      0x00\n        /* \"#utility.yul\":8683:8698   */\n      revert\n        /* \"#utility.yul\":8710:8809   */\n    tag_76:\n        /* \"#utility.yul\":8762:8768   */\n      0x00\n        /* \"#utility.yul\":8796:8801   */\n      dup2\n        /* \"#utility.yul\":8790:8802   */\n      mload\n        /* \"#utility.yul\":8780:8802   */\n      swap1\n      pop\n        /* \"#utility.yul\":8710:8809   */\n      swap2\n      swap1\n      pop\n      jump\t// out\n        /* \"#utility.yul\":8815:8984   */\n    tag_77:\n        /* \"#utility.yul\":8899:8910   */\n      0x00\n        /* \"#utility.yul\":8933:8939   */\n      dup3\n        /* \"#utility.yul\":8928:8931   */\n      dup3\n        /* \"#utility.yul\":8921:8940   */\n      mstore\n        /* \"#utility.yul\":8973:8977   */\n      0x20\n        /* \"#utility.yul\":8968:8971   */\n      dup3\n        /* \"#utility.yul\":8964:8978   */\n      add\n        /* \"#utility.yul\":8949:8978   */\n      swap1\n      pop\n        /* \"#utility.yul\":8815:8984   */\n      swap3\n      swap2\n      pop\n      pop\n      jump\t// out\n        /* \"#utility.yul\":8990:9367   */\n    tag_78:\n        /* \"#utility.yul\":9078:9081   */\n      0x00\n        /* \"#utility.yul\":9106:9145   */\n      tag_181\n        /* \"#utility.yul\":9139:9144   */\n      dup3\n        /* \"#utility.yul\":9106:9145   */\n      tag_76\n      jump\t// in\n    tag_181:\n        /* \"#utility.yul\":9161:9232   */\n      tag_182\n        /* \"#utility.yul\":9225:9231   */\n      dup2\n        /* \"#utility.yul\":9220:9223   */\n      dup6\n        /* \"#utility.yul\":9161:9232   */\n      tag_77\n      jump\t// in\n    tag_182:\n        /* \"#utility.yul\":9154:9232   */\n      swap4\n      pop\n        /* \"#utility.yul\":9241:9306   */\n      tag_183\n        /* \"#utility.yul\":9299:9305   */\n      dup2\n        /* \"#utility.yul\":9294:9297   */\n      dup6\n        /* \"#utility.yul\":9287:9291   */\n      0x20\n        /* \"#utility.yul\":9280:9285   */\n      dup7\n        /* \"#utility.yul\":9276:9292   */\n      add\n        /* \"#utility.yul\":9241:9306   */\n      tag_70\n      jump\t// in\n    tag_183:\n        /* \"#utility.yul\":9331:9360   */\n      tag_184\n        /* \"#utility.yul\":9353:9359   */\n      dup2\n        /* \"#utility.yul\":9331:9360   */\n      tag_57\n      jump\t// in\n    tag_184:\n        /* \"#utility.yul\":9326:9329   */\n      dup5\n        /* \"#utility.yul\":9322:9361   */\n      add\n        /* \"#utility.yul\":9315:9361   */\n      swap2\n      pop\n        /* \"#utility.yul\":9082:9367   */\n      pop\n        /* \"#utility.yul\":8990:9367   */\n      swap3\n      swap2\n      pop\n      pop\n      jump\t// out\n        /* \"#utility.yul\":9373:9796   */\n    tag_37:\n        /* \"#utility.yul\":9514:9518   */\n      0x00\n        /* \"#utility.yul\":9552:9554   */\n      0x40\n        /* \"#utility.yul\":9541:9550   */\n      dup3\n        /* \"#utility.yul\":9537:9555   */\n      add\n        /* \"#utility.yul\":9529:9555   */\n      swap1\n      pop\n        /* \"#utility.yul\":9601:9610   */\n      dup2\n        /* \"#utility.yul\":9595:9599   */\n      dup2\n        /* \"#utility.yul\":9591:9611   */\n      sub\n        /* \"#utility.yul\":9587:9588   */\n      0x00\n        /* \"#utility.yul\":9576:9585   */\n      dup4\n        /* \"#utility.yul\":9572:9589   */\n      add\n        /* \"#utility.yul\":9565:9612   */\n      mstore\n        /* \"#utility.yul\":9629:9707   */\n      tag_186\n        /* \"#utility.yul\":9702:9706   */\n      dup2\n        /* \"#utility.yul\":9693:9699   */\n      dup6\n        /* \"#utility.yul\":9629:9707   */\n      tag_78\n      jump\t// in\n    tag_186:\n        /* \"#utility.yul\":9621:9707   */\n      swap1\n      pop\n        /* \"#utility.yul\":9717:9789   */\n      tag_187\n        /* \"#utility.yul\":9785:9787   */\n      0x20\n        /* \"#utility.yul\":9774:9783   */\n      dup4\n        /* \"#utility.yul\":9770:9788   */\n      add\n        /* \"#utility.yul\":9761:9767   */\n      dup5\n        /* \"#utility.yul\":9717:9789   */\n      tag_49\n      jump\t// in\n    tag_187:\n        /* \"#utility.yul\":9373:9796   */\n      swap4\n      swap3\n      pop\n      pop\n      pop\n      jump\t// out\n        /* \"#utility.yul\":9802:9949   */\n    tag_79:\n        /* \"#utility.yul\":9903:9914   */\n      0x00\n        /* \"#utility.yul\":9940:9943   */\n      dup2\n        /* \"#utility.yul\":9925:9943   */\n      swap1\n      pop\n        /* \"#utility.yul\":9802:9949   */\n      swap3\n      swap2\n      pop\n      pop\n      jump\t// out\n        /* \"#utility.yul\":9955:10069   */\n    tag_80:\n      pop\n      jump\t// out\n        /* \"#utility.yul\":10075:10473   */\n    tag_81:\n        /* \"#utility.yul\":10234:10237   */\n      0x00\n        /* \"#utility.yul\":10255:10338   */\n      tag_191\n        /* \"#utility.yul\":10336:10337   */\n      0x00\n        /* \"#utility.yul\":10331:10334   */\n      dup4\n        /* \"#utility.yul\":10255:10338   */\n      tag_79\n      jump\t// in\n    tag_191:\n        /* \"#utility.yul\":10248:10338   */\n      swap2\n      pop\n        /* \"#utility.yul\":10347:10440   */\n      tag_192\n        /* \"#utility.yul\":10436:10439   */\n      dup3\n        /* \"#utility.yul\":10347:10440   */\n      tag_80\n      jump\t// in\n    tag_192:\n        /* \"#utility.yul\":10465:10466   */\n      0x00\n        /* \"#utility.yul\":10460:10463   */\n      dup3\n        /* \"#utility.yul\":10456:10467   */\n      add\n        /* \"#utility.yul\":10449:10467   */\n      swap1\n      pop\n        /* \"#utility.yul\":10075:10473   */\n      swap2\n      swap1\n      pop\n      jump\t// out\n        /* \"#utility.yul\":10479:10858   */\n    tag_41:\n        /* \"#utility.yul\":10663:10666   */\n      0x00\n        /* \"#utility.yul\":10685:10832   */\n      tag_194\n        /* \"#utility.yul\":10828:10831   */\n      dup3\n        /* \"#utility.yul\":10685:10832   */\n      tag_81\n      jump\t// in\n    tag_194:\n        /* \"#utility.yul\":10678:10832   */\n      swap2\n      pop\n        /* \"#utility.yul\":10849:10852   */\n      dup2\n        /* \"#utility.yul\":10842:10852   */\n      swap1\n      pop\n        /* \"#utility.yul\":10479:10858   */\n      swap2\n      swap1\n      pop\n      jump\t// out\n        /* \"#utility.yul\":10864:11034   */\n    tag_82:\n        /* \"#utility.yul\":11004:11026   */\n      0x4661696c656420746f2073656e64204574686572000000000000000000000000\n        /* \"#utility.yul\":11000:11001   */\n      0x00\n        /* \"#utility.yul\":10992:10998   */\n      dup3\n        /* \"#utility.yul\":10988:11002   */\n      add\n        /* \"#utility.yul\":10981:11027   */\n      mstore\n        /* \"#utility.yul\":10864:11034   */\n      pop\n      jump\t// out\n        /* \"#utility.yul\":11040:11406   */\n    tag_83:\n        /* \"#utility.yul\":11182:11185   */\n      0x00\n        /* \"#utility.yul\":11203:11270   */\n      tag_197\n        /* \"#utility.yul\":11267:11269   */\n      0x14\n        /* \"#utility.yul\":11262:11265   */\n      dup4\n        /* \"#utility.yul\":11203:11270   */\n      tag_77\n      jump\t// in\n    tag_197:\n        /* \"#utility.yul\":11196:11270   */\n      swap2\n      pop\n        /* \"#utility.yul\":11279:11372   */\n      tag_198\n        /* \"#utility.yul\":11368:11371   */\n      dup3\n        /* \"#utility.yul\":11279:11372   */\n      tag_82\n      jump\t// in\n    tag_198:\n        /* \"#utility.yul\":11397:11399   */\n      0x20\n        /* \"#utility.yul\":11392:11395   */\n      dup3\n        /* \"#utility.yul\":11388:11400   */\n      add\n        /* \"#utility.yul\":11381:11400   */\n      swap1\n      pop\n        /* \"#utility.yul\":11040:11406   */\n      swap2\n      swap1\n      pop\n      jump\t// out\n        /* \"#utility.yul\":11412:11831   */\n    tag_47:\n        /* \"#utility.yul\":11578:11582   */\n      0x00\n        /* \"#utility.yul\":11616:11618   */\n      0x20\n        /* \"#utility.yul\":11605:11614   */\n      dup3\n        /* \"#utility.yul\":11601:11619   */\n      add\n        /* \"#utility.yul\":11593:11619   */\n      swap1\n      pop\n        /* \"#utility.yul\":11665:11674   */\n      dup2\n        /* \"#utility.yul\":11659:11663   */\n      dup2\n        /* \"#utility.yul\":11655:11675   */\n      sub\n        /* \"#utility.yul\":11651:11652   */\n      0x00\n        /* \"#utility.yul\":11640:11649   */\n      dup4\n        /* \"#utility.yul\":11636:11653   */\n      add\n        /* \"#utility.yul\":11629:11676   */\n      mstore\n        /* \"#utility.yul\":11693:11824   */\n      tag_200\n        /* \"#utility.yul\":11819:11823   */\n      dup2\n        /* \"#utility.yul\":11693:11824   */\n      tag_83\n      jump\t// in\n    tag_200:\n        /* \"#utility.yul\":11685:11824   */\n      swap1\n      pop\n        /* \"#utility.yul\":11412:11831   */\n      swap2\n      swap1\n      pop\n      jump\t// out\n\n    auxdata: 0xa2646970667358221220650d0a158efcf47e8952e78b5c0dc5c3867d9d8c8abe874b02afdce958127ea264736f6c63430008110033\n}\n",
				"bytecode": {
					"linkReferences": {},
					"object": "6080604052604051610b59380380610b598339818101604052810190610025919061017e565b600073ffffffffffffffffffffffffffffffffffffffff168173ffffffffffffffffffffffffffffffffffffffff1603610094576040517f08c379a000000000000000000000000000000000000000000000000000000000815260040161008b90610208565b60405180910390fd5b336000806101000a81548173ffffffffffffffffffffffffffffffffffffffff021916908373ffffffffffffffffffffffffffffffffffffffff16021790555080600160006101000a81548173ffffffffffffffffffffffffffffffffffffffff021916908373ffffffffffffffffffffffffffffffffffffffff16021790555050610228565b600080fd5b600073ffffffffffffffffffffffffffffffffffffffff82169050919050565b600061014b82610120565b9050919050565b61015b81610140565b811461016657600080fd5b50565b60008151905061017881610152565b92915050565b6000602082840312156101945761019361011b565b5b60006101a284828501610169565b91505092915050565b600082825260208201905092915050565b7f7265636569766572203d207a65726f2061646472657373000000000000000000600082015250565b60006101f26017836101ab565b91506101fd826101bc565b602082019050919050565b60006020820190508181036000830152610221816101e5565b9050919050565b610922806102376000396000f3fe60806040526004361061004a5760003560e01c806312065fe01461004f5780633d6cfcd11461007a57806367e404ce14610091578063dbd81fc1146100bc578063f7260d3e146100c6575b600080fd5b34801561005b57600080fd5b506100646100f1565b6040516100719190610357565b60405180910390f35b34801561008657600080fd5b5061008f6100f9565b005b34801561009d57600080fd5b506100a6610219565b6040516100b391906103b3565b60405180910390f35b6100c461023d565b005b3480156100d257600080fd5b506100db610318565b6040516100e891906103b3565b60405180910390f35b600047905090565b6000600260009054906101000a900473ffffffffffffffffffffffffffffffffffffffff1673ffffffffffffffffffffffffffffffffffffffff16636386c1c760008054906101000a900473ffffffffffffffffffffffffffffffffffffffff166040518263ffffffff1660e01b815260040161017691906103b3565b600060405180830381865afa158015610193573d6000803e3d6000fd5b505050506040513d6000823e3d601f19601f820116820180604052508101906101bc919061073d565b6000815181106101cf576101ce610786565b5b60200260200101516040015190507fc35d6dbbad810bb0fb26d3fd7c07a09c5afd64d647208c93d211dcac94b8349b814260405161020e92919061080a565b60405180910390a150565b60008054906101000a900473ffffffffffffffffffffffffffffffffffffffff1681565b600080600160009054906101000a900473ffffffffffffffffffffffffffffffffffffffff1673ffffffffffffffffffffffffffffffffffffffff166102816100f1565b60405161028d9061086b565b60006040518083038185875af1925050503d80600081146102ca576040519150601f19603f3d011682016040523d82523d6000602084013e6102cf565b606091505b509150915081610314576040517f08c379a000000000000000000000000000000000000000000000000000000000815260040161030b906108cc565b60405180910390fd5b5050565b600160009054906101000a900473ffffffffffffffffffffffffffffffffffffffff1681565b6000819050919050565b6103518161033e565b82525050565b600060208201905061036c6000830184610348565b92915050565b600073ffffffffffffffffffffffffffffffffffffffff82169050919050565b600061039d82610372565b9050919050565b6103ad81610392565b82525050565b60006020820190506103c860008301846103a4565b92915050565b6000604051905090565b600080fd5b600080fd5b600080fd5b6000601f19601f8301169050919050565b7f4e487b7100000000000000000000000000000000000000000000000000000000600052604160045260246000fd5b610430826103e7565b810181811067ffffffffffffffff8211171561044f5761044e6103f8565b5b80604052505050565b60006104626103ce565b905061046e8282610427565b919050565b600067ffffffffffffffff82111561048e5761048d6103f8565b5b602082029050602081019050919050565b600080fd5b600080fd5b600080fd5b60006104b982610372565b9050919050565b6104c9816104ae565b81146104d457600080fd5b50565b6000815190506104e6816104c0565b92915050565b600080fd5b600067ffffffffffffffff82111561050c5761050b6103f8565b5b610515826103e7565b9050602081019050919050565b60005b83811015610540578082015181840152602081019050610525565b60008484015250505050565b600061055f61055a846104f1565b610458565b90508281526020810184848401111561057b5761057a6104ec565b5b610586848285610522565b509392505050565b600082601f8301126105a3576105a26103e2565b5b81516105b384826020860161054c565b91505092915050565b6000608082840312156105d2576105d16104a4565b5b6105dc6080610458565b905060006105ec848285016104d7565b600083015250602082015167ffffffffffffffff8111156106105761060f6104a9565b5b61061c8482850161058e565b602083015250604082015167ffffffffffffffff8111156106405761063f6104a9565b5b61064c8482850161058e565b604083015250606082015167ffffffffffffffff8111156106705761066f6104a9565b5b61067c8482850161058e565b60608301525092915050565b600061069b61069684610473565b610458565b905080838252602082019050602084028301858111156106be576106bd61049f565b5b835b8181101561070557805167ffffffffffffffff8111156106e3576106e26103e2565b5b8086016106f089826105bc565b855260208501945050506020810190506106c0565b5050509392505050565b600082601f830112610724576107236103e2565b5b8151610734848260208601610688565b91505092915050565b600060208284031215610753576107526103d8565b5b600082015167ffffffffffffffff811115610771576107706103dd565b5b61077d8482850161070f565b91505092915050565b7f4e487b7100000000000000000000000000000000000000000000000000000000600052603260045260246000fd5b600081519050919050565b600082825260208201905092915050565b60006107dc826107b5565b6107e681856107c0565b93506107f6818560208601610522565b6107ff816103e7565b840191505092915050565b6000604082019050818103600083015261082481856107d1565b90506108336020830184610348565b9392505050565b600081905092915050565b50565b600061085560008361083a565b915061086082610845565b600082019050919050565b600061087682610848565b9150819050919050565b7f4661696c656420746f2073656e64204574686572000000000000000000000000600082015250565b60006108b66014836107c0565b91506108c182610880565b602082019050919050565b600060208201905081810360008301526108e5816108a9565b905091905056fea2646970667358221220650d0a158efcf47e8952e78b5c0dc5c3867d9d8c8abe874b02afdce958127ea264736f6c63430008110033",
					"opcodes": "PUSH1 0x80 PUSH1 0x40 MSTORE PUSH1 0x40 MLOAD PUSH2 0xB59 CODESIZE SUB DUP1 PUSH2 0xB59 DUP4 CODECOPY DUP2 DUP2 ADD PUSH1 0x40 MSTORE DUP2 ADD SWAP1 PUSH2 0x25 SWAP2 SWAP1 PUSH2 0x17E JUMP JUMPDEST PUSH1 0x0 PUSH20 0xFFFFFFFFFFFFFFFFFFFFFFFFFFFFFFFFFFFFFFFF AND DUP2 PUSH20 0xFFFFFFFFFFFFFFFFFFFFFFFFFFFFFFFFFFFFFFFF AND SUB PUSH2 0x94 JUMPI PUSH1 0x40 MLOAD PUSH32 0x8C379A000000000000000000000000000000000000000000000000000000000 DUP2 MSTORE PUSH1 0x4 ADD PUSH2 0x8B SWAP1 PUSH2 0x208 JUMP JUMPDEST PUSH1 0x40 MLOAD DUP1 SWAP2 SUB SWAP1 REVERT JUMPDEST CALLER PUSH1 0x0 DUP1 PUSH2 0x100 EXP DUP2 SLOAD DUP2 PUSH20 0xFFFFFFFFFFFFFFFFFFFFFFFFFFFFFFFFFFFFFFFF MUL NOT AND SWAP1 DUP4 PUSH20 0xFFFFFFFFFFFFFFFFFFFFFFFFFFFFFFFFFFFFFFFF AND MUL OR SWAP1 SSTORE POP DUP1 PUSH1 0x1 PUSH1 0x0 PUSH2 0x100 EXP DUP2 SLOAD DUP2 PUSH20 0xFFFFFFFFFFFFFFFFFFFFFFFFFFFFFFFFFFFFFFFF MUL NOT AND SWAP1 DUP4 PUSH20 0xFFFFFFFFFFFFFFFFFFFFFFFFFFFFFFFFFFFFFFFF AND MUL OR SWAP1 SSTORE POP POP PUSH2 0x228 JUMP JUMPDEST PUSH1 0x0 DUP1 REVERT JUMPDEST PUSH1 0x0 PUSH20 0xFFFFFFFFFFFFFFFFFFFFFFFFFFFFFFFFFFFFFFFF DUP3 AND SWAP1 POP SWAP2 SWAP1 POP JUMP JUMPDEST PUSH1 0x0 PUSH2 0x14B DUP3 PUSH2 0x120 JUMP JUMPDEST SWAP1 POP SWAP2 SWAP1 POP JUMP JUMPDEST PUSH2 0x15B DUP2 PUSH2 0x140 JUMP JUMPDEST DUP2 EQ PUSH2 0x166 JUMPI PUSH1 0x0 DUP1 REVERT JUMPDEST POP JUMP JUMPDEST PUSH1 0x0 DUP2 MLOAD SWAP1 POP PUSH2 0x178 DUP2 PUSH2 0x152 JUMP JUMPDEST SWAP3 SWAP2 POP POP JUMP JUMPDEST PUSH1 0x0 PUSH1 0x20 DUP3 DUP5 SUB SLT ISZERO PUSH2 0x194 JUMPI PUSH2 0x193 PUSH2 0x11B JUMP JUMPDEST JUMPDEST PUSH1 0x0 PUSH2 0x1A2 DUP5 DUP3 DUP6 ADD PUSH2 0x169 JUMP JUMPDEST SWAP2 POP POP SWAP3 SWAP2 POP POP JUMP JUMPDEST PUSH1 0x0 DUP3 DUP3 MSTORE PUSH1 0x20 DUP3 ADD SWAP1 POP SWAP3 SWAP2 POP POP JUMP JUMPDEST PUSH32 0x7265636569766572203D207A65726F2061646472657373000000000000000000 PUSH1 0x0 DUP3 ADD MSTORE POP JUMP JUMPDEST PUSH1 0x0 PUSH2 0x1F2 PUSH1 0x17 DUP4 PUSH2 0x1AB JUMP JUMPDEST SWAP2 POP PUSH2 0x1FD DUP3 PUSH2 0x1BC JUMP JUMPDEST PUSH1 0x20 DUP3 ADD SWAP1 POP SWAP2 SWAP1 POP JUMP JUMPDEST PUSH1 0x0 PUSH1 0x20 DUP3 ADD SWAP1 POP DUP2 DUP2 SUB PUSH1 0x0 DUP4 ADD MSTORE PUSH2 0x221 DUP2 PUSH2 0x1E5 JUMP JUMPDEST SWAP1 POP SWAP2 SWAP1 POP JUMP JUMPDEST PUSH2 0x922 DUP1 PUSH2 0x237 PUSH1 0x0 CODECOPY PUSH1 0x0 RETURN INVALID PUSH1 0x80 PUSH1 0x40 MSTORE PUSH1 0x4 CALLDATASIZE LT PUSH2 0x4A JUMPI PUSH1 0x0 CALLDATALOAD PUSH1 0xE0 SHR DUP1 PUSH4 0x12065FE0 EQ PUSH2 0x4F JUMPI DUP1 PUSH4 0x3D6CFCD1 EQ PUSH2 0x7A JUMPI DUP1 PUSH4 0x67E404CE EQ PUSH2 0x91 JUMPI DUP1 PUSH4 0xDBD81FC1 EQ PUSH2 0xBC JUMPI DUP1 PUSH4 0xF7260D3E EQ PUSH2 0xC6 JUMPI JUMPDEST PUSH1 0x0 DUP1 REVERT JUMPDEST CALLVALUE DUP1 ISZERO PUSH2 0x5B JUMPI PUSH1 0x0 DUP1 REVERT JUMPDEST POP PUSH2 0x64 PUSH2 0xF1 JUMP JUMPDEST PUSH1 0x40 MLOAD PUSH2 0x71 SWAP2 SWAP1 PUSH2 0x357 JUMP JUMPDEST PUSH1 0x40 MLOAD DUP1 SWAP2 SUB SWAP1 RETURN JUMPDEST CALLVALUE DUP1 ISZERO PUSH2 0x86 JUMPI PUSH1 0x0 DUP1 REVERT JUMPDEST POP PUSH2 0x8F PUSH2 0xF9 JUMP JUMPDEST STOP JUMPDEST CALLVALUE DUP1 ISZERO PUSH2 0x9D JUMPI PUSH1 0x0 DUP1 REVERT JUMPDEST POP PUSH2 0xA6 PUSH2 0x219 JUMP JUMPDEST PUSH1 0x40 MLOAD PUSH2 0xB3 SWAP2 SWAP1 PUSH2 0x3B3 JUMP JUMPDEST PUSH1 0x40 MLOAD DUP1 SWAP2 SUB SWAP1 RETURN JUMPDEST PUSH2 0xC4 PUSH2 0x23D JUMP JUMPDEST STOP JUMPDEST CALLVALUE DUP1 ISZERO PUSH2 0xD2 JUMPI PUSH1 0x0 DUP1 REVERT JUMPDEST POP PUSH2 0xDB PUSH2 0x318 JUMP JUMPDEST PUSH1 0x40 MLOAD PUSH2 0xE8 SWAP2 SWAP1 PUSH2 0x3B3 JUMP JUMPDEST PUSH1 0x40 MLOAD DUP1 SWAP2 SUB SWAP1 RETURN JUMPDEST PUSH1 0x0 SELFBALANCE SWAP1 POP SWAP1 JUMP JUMPDEST PUSH1 0x0 PUSH1 0x2 PUSH1 0x0 SWAP1 SLOAD SWAP1 PUSH2 0x100 EXP SWAP1 DIV PUSH20 0xFFFFFFFFFFFFFFFFFFFFFFFFFFFFFFFFFFFFFFFF AND PUSH20 0xFFFFFFFFFFFFFFFFFFFFFFFFFFFFFFFFFFFFFFFF AND PUSH4 0x6386C1C7 PUSH1 0x0 DUP1 SLOAD SWAP1 PUSH2 0x100 EXP SWAP1 DIV PUSH20 0xFFFFFFFFFFFFFFFFFFFFFFFFFFFFFFFFFFFFFFFF AND PUSH1 0x40 MLOAD DUP3 PUSH4 0xFFFFFFFF AND PUSH1 0xE0 SHL DUP2 MSTORE PUSH1 0x4 ADD PUSH2 0x176 SWAP2 SWAP1 PUSH2 0x3B3 JUMP JUMPDEST PUSH1 0x0 PUSH1 0x40 MLOAD DUP1 DUP4 SUB DUP2 DUP7 GAS STATICCALL ISZERO DUP1 ISZERO PUSH2 0x193 JUMPI RETURNDATASIZE PUSH1 0x0 DUP1 RETURNDATACOPY RETURNDATASIZE PUSH1 0x0 REVERT JUMPDEST POP POP POP POP PUSH1 0x40 MLOAD RETURNDATASIZE PUSH1 0x0 DUP3 RETURNDATACOPY RETURNDATASIZE PUSH1 0x1F NOT PUSH1 0x1F DUP3 ADD AND DUP3 ADD DUP1 PUSH1 0x40 MSTORE POP DUP2 ADD SWAP1 PUSH2 0x1BC SWAP2 SWAP1 PUSH2 0x73D JUMP JUMPDEST PUSH1 0x0 DUP2 MLOAD DUP2 LT PUSH2 0x1CF JUMPI PUSH2 0x1CE PUSH2 0x786 JUMP JUMPDEST JUMPDEST PUSH1 0x20 MUL PUSH1 0x20 ADD ADD MLOAD PUSH1 0x40 ADD MLOAD SWAP1 POP PUSH32 0xC35D6DBBAD810BB0FB26D3FD7C07A09C5AFD64D647208C93D211DCAC94B8349B DUP2 TIMESTAMP PUSH1 0x40 MLOAD PUSH2 0x20E SWAP3 SWAP2 SWAP1 PUSH2 0x80A JUMP JUMPDEST PUSH1 0x40 MLOAD DUP1 SWAP2 SUB SWAP1 LOG1 POP JUMP JUMPDEST PUSH1 0x0 DUP1 SLOAD SWAP1 PUSH2 0x100 EXP SWAP1 DIV PUSH20 0xFFFFFFFFFFFFFFFFFFFFFFFFFFFFFFFFFFFFFFFF AND DUP2 JUMP JUMPDEST PUSH1 0x0 DUP1 PUSH1 0x1 PUSH1 0x0 SWAP1 SLOAD SWAP1 PUSH2 0x100 EXP SWAP1 DIV PUSH20 0xFFFFFFFFFFFFFFFFFFFFFFFFFFFFFFFFFFFFFFFF AND PUSH20 0xFFFFFFFFFFFFFFFFFFFFFFFFFFFFFFFFFFFFFFFF AND PUSH2 0x281 PUSH2 0xF1 JUMP JUMPDEST PUSH1 0x40 MLOAD PUSH2 0x28D SWAP1 PUSH2 0x86B JUMP JUMPDEST PUSH1 0x0 PUSH1 0x40 MLOAD DUP1 DUP4 SUB DUP2 DUP6 DUP8 GAS CALL SWAP3 POP POP POP RETURNDATASIZE DUP1 PUSH1 0x0 DUP2 EQ PUSH2 0x2CA JUMPI PUSH1 0x40 MLOAD SWAP2 POP PUSH1 0x1F NOT PUSH1 0x3F RETURNDATASIZE ADD AND DUP3 ADD PUSH1 0x40 MSTORE RETURNDATASIZE DUP3 MSTORE RETURNDATASIZE PUSH1 0x0 PUSH1 0x20 DUP5 ADD RETURNDATACOPY PUSH2 0x2CF JUMP JUMPDEST PUSH1 0x60 SWAP2 POP JUMPDEST POP SWAP2 POP SWAP2 POP DUP2 PUSH2 0x314 JUMPI PUSH1 0x40 MLOAD PUSH32 0x8C379A000000000000000000000000000000000000000000000000000000000 DUP2 MSTORE PUSH1 0x4 ADD PUSH2 0x30B SWAP1 PUSH2 0x8CC JUMP JUMPDEST PUSH1 0x40 MLOAD DUP1 SWAP2 SUB SWAP1 REVERT JUMPDEST POP POP JUMP JUMPDEST PUSH1 0x1 PUSH1 0x0 SWAP1 SLOAD SWAP1 PUSH2 0x100 EXP SWAP1 DIV PUSH20 0xFFFFFFFFFFFFFFFFFFFFFFFFFFFFFFFFFFFFFFFF AND DUP2 JUMP JUMPDEST PUSH1 0x0 DUP2 SWAP1 POP SWAP2 SWAP1 POP JUMP JUMPDEST PUSH2 0x351 DUP2 PUSH2 0x33E JUMP JUMPDEST DUP3 MSTORE POP POP JUMP JUMPDEST PUSH1 0x0 PUSH1 0x20 DUP3 ADD SWAP1 POP PUSH2 0x36C PUSH1 0x0 DUP4 ADD DUP5 PUSH2 0x348 JUMP JUMPDEST SWAP3 SWAP2 POP POP JUMP JUMPDEST PUSH1 0x0 PUSH20 0xFFFFFFFFFFFFFFFFFFFFFFFFFFFFFFFFFFFFFFFF DUP3 AND SWAP1 POP SWAP2 SWAP1 POP JUMP JUMPDEST PUSH1 0x0 PUSH2 0x39D DUP3 PUSH2 0x372 JUMP JUMPDEST SWAP1 POP SWAP2 SWAP1 POP JUMP JUMPDEST PUSH2 0x3AD DUP2 PUSH2 0x392 JUMP JUMPDEST DUP3 MSTORE POP POP JUMP JUMPDEST PUSH1 0x0 PUSH1 0x20 DUP3 ADD SWAP1 POP PUSH2 0x3C8 PUSH1 0x0 DUP4 ADD DUP5 PUSH2 0x3A4 JUMP JUMPDEST SWAP3 SWAP2 POP POP JUMP JUMPDEST PUSH1 0x0 PUSH1 0x40 MLOAD SWAP1 POP SWAP1 JUMP JUMPDEST PUSH1 0x0 DUP1 REVERT JUMPDEST PUSH1 0x0 DUP1 REVERT JUMPDEST PUSH1 0x0 DUP1 REVERT JUMPDEST PUSH1 0x0 PUSH1 0x1F NOT PUSH1 0x1F DUP4 ADD AND SWAP1 POP SWAP2 SWAP1 POP JUMP JUMPDEST PUSH32 0x4E487B7100000000000000000000000000000000000000000000000000000000 PUSH1 0x0 MSTORE PUSH1 0x41 PUSH1 0x4 MSTORE PUSH1 0x24 PUSH1 0x0 REVERT JUMPDEST PUSH2 0x430 DUP3 PUSH2 0x3E7 JUMP JUMPDEST DUP2 ADD DUP2 DUP2 LT PUSH8 0xFFFFFFFFFFFFFFFF DUP3 GT OR ISZERO PUSH2 0x44F JUMPI PUSH2 0x44E PUSH2 0x3F8 JUMP JUMPDEST JUMPDEST DUP1 PUSH1 0x40 MSTORE POP POP POP JUMP JUMPDEST PUSH1 0x0 PUSH2 0x462 PUSH2 0x3CE JUMP JUMPDEST SWAP1 POP PUSH2 0x46E DUP3 DUP3 PUSH2 0x427 JUMP JUMPDEST SWAP2 SWAP1 POP JUMP JUMPDEST PUSH1 0x0 PUSH8 0xFFFFFFFFFFFFFFFF DUP3 GT ISZERO PUSH2 0x48E JUMPI PUSH2 0x48D PUSH2 0x3F8 JUMP JUMPDEST JUMPDEST PUSH1 0x20 DUP3 MUL SWAP1 POP PUSH1 0x20 DUP2 ADD SWAP1 POP SWAP2 SWAP1 POP JUMP JUMPDEST PUSH1 0x0 DUP1 REVERT JUMPDEST PUSH1 0x0 DUP1 REVERT JUMPDEST PUSH1 0x0 DUP1 REVERT JUMPDEST PUSH1 0x0 PUSH2 0x4B9 DUP3 PUSH2 0x372 JUMP JUMPDEST SWAP1 POP SWAP2 SWAP1 POP JUMP JUMPDEST PUSH2 0x4C9 DUP2 PUSH2 0x4AE JUMP JUMPDEST DUP2 EQ PUSH2 0x4D4 JUMPI PUSH1 0x0 DUP1 REVERT JUMPDEST POP JUMP JUMPDEST PUSH1 0x0 DUP2 MLOAD SWAP1 POP PUSH2 0x4E6 DUP2 PUSH2 0x4C0 JUMP JUMPDEST SWAP3 SWAP2 POP POP JUMP JUMPDEST PUSH1 0x0 DUP1 REVERT JUMPDEST PUSH1 0x0 PUSH8 0xFFFFFFFFFFFFFFFF DUP3 GT ISZERO PUSH2 0x50C JUMPI PUSH2 0x50B PUSH2 0x3F8 JUMP JUMPDEST JUMPDEST PUSH2 0x515 DUP3 PUSH2 0x3E7 JUMP JUMPDEST SWAP1 POP PUSH1 0x20 DUP2 ADD SWAP1 POP SWAP2 SWAP1 POP JUMP JUMPDEST PUSH1 0x0 JUMPDEST DUP4 DUP2 LT ISZERO PUSH2 0x540 JUMPI DUP1 DUP3 ADD MLOAD DUP2 DUP5 ADD MSTORE PUSH1 0x20 DUP2 ADD SWAP1 POP PUSH2 0x525 JUMP JUMPDEST PUSH1 0x0 DUP5 DUP5 ADD MSTORE POP POP POP POP JUMP JUMPDEST PUSH1 0x0 PUSH2 0x55F PUSH2 0x55A DUP5 PUSH2 0x4F1 JUMP JUMPDEST PUSH2 0x458 JUMP JUMPDEST SWAP1 POP DUP3 DUP2 MSTORE PUSH1 0x20 DUP2 ADD DUP5 DUP5 DUP5 ADD GT ISZERO PUSH2 0x57B JUMPI PUSH2 0x57A PUSH2 0x4EC JUMP JUMPDEST JUMPDEST PUSH2 0x586 DUP5 DUP3 DUP6 PUSH2 0x522 JUMP JUMPDEST POP SWAP4 SWAP3 POP POP POP JUMP JUMPDEST PUSH1 0x0 DUP3 PUSH1 0x1F DUP4 ADD SLT PUSH2 0x5A3 JUMPI PUSH2 0x5A2 PUSH2 0x3E2 JUMP JUMPDEST JUMPDEST DUP2 MLOAD PUSH2 0x5B3 DUP5 DUP3 PUSH1 0x20 DUP7 ADD PUSH2 0x54C JUMP JUMPDEST SWAP2 POP POP SWAP3 SWAP2 POP POP JUMP JUMPDEST PUSH1 0x0 PUSH1 0x80 DUP3 DUP5 SUB SLT ISZERO PUSH2 0x5D2 JUMPI PUSH2 0x5D1 PUSH2 0x4A4 JUMP JUMPDEST JUMPDEST PUSH2 0x5DC PUSH1 0x80 PUSH2 0x458 JUMP JUMPDEST SWAP1 POP PUSH1 0x0 PUSH2 0x5EC DUP5 DUP3 DUP6 ADD PUSH2 0x4D7 JUMP JUMPDEST PUSH1 0x0 DUP4 ADD MSTORE POP PUSH1 0x20 DUP3 ADD MLOAD PUSH8 0xFFFFFFFFFFFFFFFF DUP2 GT ISZERO PUSH2 0x610 JUMPI PUSH2 0x60F PUSH2 0x4A9 JUMP JUMPDEST JUMPDEST PUSH2 0x61C DUP5 DUP3 DUP6 ADD PUSH2 0x58E JUMP JUMPDEST PUSH1 0x20 DUP4 ADD MSTORE POP PUSH1 0x40 DUP3 ADD MLOAD PUSH8 0xFFFFFFFFFFFFFFFF DUP2 GT ISZERO PUSH2 0x640 JUMPI PUSH2 0x63F PUSH2 0x4A9 JUMP JUMPDEST JUMPDEST PUSH2 0x64C DUP5 DUP3 DUP6 ADD PUSH2 0x58E JUMP JUMPDEST PUSH1 0x40 DUP4 ADD MSTORE POP PUSH1 0x60 DUP3 ADD MLOAD PUSH8 0xFFFFFFFFFFFFFFFF DUP2 GT ISZERO PUSH2 0x670 JUMPI PUSH2 0x66F PUSH2 0x4A9 JUMP JUMPDEST JUMPDEST PUSH2 0x67C DUP5 DUP3 DUP6 ADD PUSH2 0x58E JUMP JUMPDEST PUSH1 0x60 DUP4 ADD MSTORE POP SWAP3 SWAP2 POP POP JUMP JUMPDEST PUSH1 0x0 PUSH2 0x69B PUSH2 0x696 DUP5 PUSH2 0x473 JUMP JUMPDEST PUSH2 0x458 JUMP JUMPDEST SWAP1 POP DUP1 DUP4 DUP3 MSTORE PUSH1 0x20 DUP3 ADD SWAP1 POP PUSH1 0x20 DUP5 MUL DUP4 ADD DUP6 DUP2 GT ISZERO PUSH2 0x6BE JUMPI PUSH2 0x6BD PUSH2 0x49F JUMP JUMPDEST JUMPDEST DUP4 JUMPDEST DUP2 DUP2 LT ISZERO PUSH2 0x705 JUMPI DUP1 MLOAD PUSH8 0xFFFFFFFFFFFFFFFF DUP2 GT ISZERO PUSH2 0x6E3 JUMPI PUSH2 0x6E2 PUSH2 0x3E2 JUMP JUMPDEST JUMPDEST DUP1 DUP7 ADD PUSH2 0x6F0 DUP10 DUP3 PUSH2 0x5BC JUMP JUMPDEST DUP6 MSTORE PUSH1 0x20 DUP6 ADD SWAP5 POP POP POP PUSH1 0x20 DUP2 ADD SWAP1 POP PUSH2 0x6C0 JUMP JUMPDEST POP POP POP SWAP4 SWAP3 POP POP POP JUMP JUMPDEST PUSH1 0x0 DUP3 PUSH1 0x1F DUP4 ADD SLT PUSH2 0x724 JUMPI PUSH2 0x723 PUSH2 0x3E2 JUMP JUMPDEST JUMPDEST DUP2 MLOAD PUSH2 0x734 DUP5 DUP3 PUSH1 0x20 DUP7 ADD PUSH2 0x688 JUMP JUMPDEST SWAP2 POP POP SWAP3 SWAP2 POP POP JUMP JUMPDEST PUSH1 0x0 PUSH1 0x20 DUP3 DUP5 SUB SLT ISZERO PUSH2 0x753 JUMPI PUSH2 0x752 PUSH2 0x3D8 JUMP JUMPDEST JUMPDEST PUSH1 0x0 DUP3 ADD MLOAD PUSH8 0xFFFFFFFFFFFFFFFF DUP2 GT ISZERO PUSH2 0x771 JUMPI PUSH2 0x770 PUSH2 0x3DD JUMP JUMPDEST JUMPDEST PUSH2 0x77D DUP5 DUP3 DUP6 ADD PUSH2 0x70F JUMP JUMPDEST SWAP2 POP POP SWAP3 SWAP2 POP POP JUMP JUMPDEST PUSH32 0x4E487B7100000000000000000000000000000000000000000000000000000000 PUSH1 0x0 MSTORE PUSH1 0x32 PUSH1 0x4 MSTORE PUSH1 0x24 PUSH1 0x0 REVERT JUMPDEST PUSH1 0x0 DUP2 MLOAD SWAP1 POP SWAP2 SWAP1 POP JUMP JUMPDEST PUSH1 0x0 DUP3 DUP3 MSTORE PUSH1 0x20 DUP3 ADD SWAP1 POP SWAP3 SWAP2 POP POP JUMP JUMPDEST PUSH1 0x0 PUSH2 0x7DC DUP3 PUSH2 0x7B5 JUMP JUMPDEST PUSH2 0x7E6 DUP2 DUP6 PUSH2 0x7C0 JUMP JUMPDEST SWAP4 POP PUSH2 0x7F6 DUP2 DUP6 PUSH1 0x20 DUP7 ADD PUSH2 0x522 JUMP JUMPDEST PUSH2 0x7FF DUP2 PUSH2 0x3E7 JUMP JUMPDEST DUP5 ADD SWAP2 POP POP SWAP3 SWAP2 POP POP JUMP JUMPDEST PUSH1 0x0 PUSH1 0x40 DUP3 ADD SWAP1 POP DUP2 DUP2 SUB PUSH1 0x0 DUP4 ADD MSTORE PUSH2 0x824 DUP2 DUP6 PUSH2 0x7D1 JUMP JUMPDEST SWAP1 POP PUSH2 0x833 PUSH1 0x20 DUP4 ADD DUP5 PUSH2 0x348 JUMP JUMPDEST SWAP4 SWAP3 POP POP POP JUMP JUMPDEST PUSH1 0x0 DUP2 SWAP1 POP SWAP3 SWAP2 POP POP JUMP JUMPDEST POP JUMP JUMPDEST PUSH1 0x0 PUSH2 0x855 PUSH1 0x0 DUP4 PUSH2 0x83A JUMP JUMPDEST SWAP2 POP PUSH2 0x860 DUP3 PUSH2 0x845 JUMP JUMPDEST PUSH1 0x0 DUP3 ADD SWAP1 POP SWAP2 SWAP1 POP JUMP JUMPDEST PUSH1 0x0 PUSH2 0x876 DUP3 PUSH2 0x848 JUMP JUMPDEST SWAP2 POP DUP2 SWAP1 POP SWAP2 SWAP1 POP JUMP JUMPDEST PUSH32 0x4661696C656420746F2073656E64204574686572000000000000000000000000 PUSH1 0x0 DUP3 ADD MSTORE POP JUMP JUMPDEST PUSH1 0x0 PUSH2 0x8B6 PUSH1 0x14 DUP4 PUSH2 0x7C0 JUMP JUMPDEST SWAP2 POP PUSH2 0x8C1 DUP3 PUSH2 0x880 JUMP JUMPDEST PUSH1 0x20 DUP3 ADD SWAP1 POP SWAP2 SWAP1 POP JUMP JUMPDEST PUSH1 0x0 PUSH1 0x20 DUP3 ADD SWAP1 POP DUP2 DUP2 SUB PUSH1 0x0 DUP4 ADD MSTORE PUSH2 0x8E5 DUP2 PUSH2 0x8A9 JUMP JUMPDEST SWAP1 POP SWAP2 SWAP1 POP JUMP INVALID LOG2 PUSH5 0x6970667358 0x22 SLT KECCAK256 PUSH6 0xD0A158EFCF4 PUSH31 0x8952E78B5C0DC5C3867D9D8C8ABE874B02AFDCE958127EA264736F6C634300 ADDMOD GT STOP CALLER "
				},
				"gasEstimates": {
					"creation": {
						"codeDepositCost": "467600",
						"executionCost": "infinite",
						"totalCost": "infinite"
					},
					"external": {
						"getBalance()": "317",
						"processing()": "infinite",
						"receiver()": "2580",
						"sendViaCall()": "infinite",
						"sender()": "2533"
					}
				},
				"methodIdentifiers": {
					"getBalance()": "12065fe0",
					"processing()": "3d6cfcd1",
					"receiver()": "f7260d3e",
					"sendViaCall()": "dbd81fc1",
					"sender()": "67e404ce"
				}
			},
			"storageLayout": {
				"storage": [
					{
						"astId": 96,
						"contract": "contracts/TransactionProcessing.sol:TransactionProcessing",
						"label": "sender",
						"offset": 0,
						"slot": "0",
						"type": "t_address_payable"
					},
					{
						"astId": 98,
						"contract": "contracts/TransactionProcessing.sol:TransactionProcessing",
						"label": "receiver",
						"offset": 0,
						"slot": "1",
						"type": "t_address_payable"
					},
					{
						"astId": 101,
						"contract": "contracts/TransactionProcessing.sol:TransactionProcessing",
						"label": "kyc",
						"offset": 0,
						"slot": "2",
						"type": "t_contract(KYC)85"
					}
				],
				"types": {
					"t_address_payable": {
						"encoding": "inplace",
						"label": "address payable",
						"numberOfBytes": "20"
					},
					"t_contract(KYC)85": {
						"encoding": "inplace",
						"label": "contract KYC",
						"numberOfBytes": "20"
					}
				}
			},
			"userdoc": {
				"kind": "user",
				"methods": {},
				"version": 1
			}
		}
	}
}