{
	"contracts/KYC.sol": {
		"KYC": {
			"abi": [
				{
					"inputs": [],
					"name": "getTransactionCount",
					"outputs": [
						{
							"internalType": "uint256",
							"name": "",
							"type": "uint256"
						}
					],
					"stateMutability": "view",
					"type": "function"
				},
				{
					"inputs": [
						{
							"internalType": "address payable",
							"name": "userAddress",
							"type": "address"
						}
					],
					"name": "getUserInfo",
					"outputs": [
						{
							"components": [
								{
									"internalType": "address",
									"name": "userAddress",
									"type": "address"
								},
								{
									"internalType": "string",
									"name": "role",
									"type": "string"
								},
								{
									"internalType": "string",
									"name": "firstName",
									"type": "string"
								},
								{
									"internalType": "string",
									"name": "lastName",
									"type": "string"
								}
							],
							"internalType": "struct KYC.UserInfoStruct[]",
							"name": "",
							"type": "tuple[]"
						}
					],
					"stateMutability": "view",
					"type": "function"
				},
				{
					"inputs": [
						{
							"internalType": "address payable",
							"name": "userAddress",
							"type": "address"
						},
						{
							"internalType": "string",
							"name": "role",
							"type": "string"
						},
						{
							"internalType": "string",
							"name": "firstName",
							"type": "string"
						},
						{
							"internalType": "string",
							"name": "lastName",
							"type": "string"
						}
					],
					"name": "onboarding",
					"outputs": [],
					"stateMutability": "nonpayable",
					"type": "function"
				}
			],
			"devdoc": {
				"kind": "dev",
				"methods": {},
				"version": 1
			},
			"evm": {
				"assembly": "    /* \"contracts/KYC.sol\":109:1439  contract KYC{... */\n  mstore(0x40, 0x80)\n  callvalue\n  dup1\n  iszero\n  tag_1\n  jumpi\n  0x00\n  dup1\n  revert\ntag_1:\n  pop\n  dataSize(sub_0)\n  dup1\n  dataOffset(sub_0)\n  0x00\n  codecopy\n  0x00\n  return\nstop\n\nsub_0: assembly {\n        /* \"contracts/KYC.sol\":109:1439  contract KYC{... */\n      mstore(0x40, 0x80)\n      callvalue\n      dup1\n      iszero\n      tag_1\n      jumpi\n      0x00\n      dup1\n      revert\n    tag_1:\n      pop\n      jumpi(tag_2, lt(calldatasize, 0x04))\n      shr(0xe0, calldataload(0x00))\n      dup1\n      0x2e7700f0\n      eq\n      tag_3\n      jumpi\n      dup1\n      0x6386c1c7\n      eq\n      tag_4\n      jumpi\n      dup1\n      0x88721931\n      eq\n      tag_5\n      jumpi\n    tag_2:\n      0x00\n      dup1\n      revert\n        /* \"contracts/KYC.sol\":1335:1436  function getTransactionCount() public view returns(uint256){... */\n    tag_3:\n      tag_6\n      tag_7\n      jump\t// in\n    tag_6:\n      mload(0x40)\n      tag_8\n      swap2\n      swap1\n      tag_9\n      jump\t// in\n    tag_8:\n      mload(0x40)\n      dup1\n      swap2\n      sub\n      swap1\n      return\n        /* \"contracts/KYC.sol\":1084:1327  function getUserInfo(address payable userAddress) public view returns(UserInfoStruct[] memory){... */\n    tag_4:\n      tag_10\n      0x04\n      dup1\n      calldatasize\n      sub\n      dup2\n      add\n      swap1\n      tag_11\n      swap2\n      swap1\n      tag_12\n      jump\t// in\n    tag_11:\n      tag_13\n      jump\t// in\n    tag_10:\n      mload(0x40)\n      tag_14\n      swap2\n      swap1\n      tag_15\n      jump\t// in\n    tag_14:\n      mload(0x40)\n      dup1\n      swap2\n      sub\n      swap1\n      return\n        /* \"contracts/KYC.sol\":623:1076  function onboarding(address payable userAddress, string memory role, string memory firstName, string memory lastName) public {... */\n    tag_5:\n      tag_16\n      0x04\n      dup1\n      calldatasize\n      sub\n      dup2\n      add\n      swap1\n      tag_17\n      swap2\n      swap1\n      tag_18\n      jump\t// in\n    tag_17:\n      tag_19\n      jump\t// in\n    tag_16:\n      stop\n        /* \"contracts/KYC.sol\":1335:1436  function getTransactionCount() public view returns(uint256){... */\n    tag_7:\n        /* \"contracts/KYC.sol\":1386:1393  uint256 */\n      0x00\n        /* \"contracts/KYC.sol\":1412:1428  transactionCount */\n      dup1\n      sload\n        /* \"contracts/KYC.sol\":1405:1428  return transactionCount */\n      swap1\n      pop\n        /* \"contracts/KYC.sol\":1335:1436  function getTransactionCount() public view returns(uint256){... */\n      swap1\n      jump\t// out\n        /* \"contracts/KYC.sol\":1084:1327  function getUserInfo(address payable userAddress) public view returns(UserInfoStruct[] memory){... */\n    tag_13:\n        /* \"contracts/KYC.sol\":1154:1177  UserInfoStruct[] memory */\n      0x60\n        /* \"contracts/KYC.sol\":1189:1221  UserInfoStruct[] memory userInfo */\n      0x00\n        /* \"contracts/KYC.sol\":1245:1246  1 */\n      0x01\n        /* \"contracts/KYC.sol\":1224:1247  new UserInfoStruct[](1) */\n      0xffffffffffffffff\n      dup2\n      gt\n      iszero\n      tag_22\n      jumpi\n      tag_23\n      tag_24\n      jump\t// in\n    tag_23:\n    tag_22:\n      mload(0x40)\n      swap1\n      dup1\n      dup3\n      mstore\n      dup1\n      0x20\n      mul\n      0x20\n      add\n      dup3\n      add\n      0x40\n      mstore\n      dup1\n      iszero\n      tag_25\n      jumpi\n      dup2\n      0x20\n      add\n    tag_26:\n      tag_27\n      tag_28\n      jump\t// in\n    tag_27:\n      dup2\n      mstore\n      0x20\n      add\n      swap1\n      0x01\n      swap1\n      sub\n      swap1\n      dup2\n      tag_26\n      jumpi\n      swap1\n      pop\n    tag_25:\n      pop\n        /* \"contracts/KYC.sol\":1189:1247  UserInfoStruct[] memory userInfo = new UserInfoStruct[](1) */\n      swap1\n      pop\n        /* \"contracts/KYC.sol\":1272:1280  userDict */\n      0x01\n        /* \"contracts/KYC.sol\":1272:1293  userDict[userAddress] */\n      0x00\n        /* \"contracts/KYC.sol\":1281:1292  userAddress */\n      dup5\n        /* \"contracts/KYC.sol\":1272:1293  userDict[userAddress] */\n      0xffffffffffffffffffffffffffffffffffffffff\n      and\n      0xffffffffffffffffffffffffffffffffffffffff\n      and\n      dup2\n      mstore\n      0x20\n      add\n      swap1\n      dup2\n      mstore\n      0x20\n      add\n      0x00\n      keccak256\n        /* \"contracts/KYC.sol\":1258:1293  userInfo[0] = userDict[userAddress] */\n      mload(0x40)\n      dup1\n      0x80\n      add\n      0x40\n      mstore\n      swap1\n      dup2\n      0x00\n      dup3\n      add\n      0x00\n      swap1\n      sload\n      swap1\n      0x0100\n      exp\n      swap1\n      div\n      0xffffffffffffffffffffffffffffffffffffffff\n      and\n      0xffffffffffffffffffffffffffffffffffffffff\n      and\n      0xffffffffffffffffffffffffffffffffffffffff\n      and\n      dup2\n      mstore\n      0x20\n      add\n      0x01\n      dup3\n      add\n      dup1\n      sload\n      tag_29\n      swap1\n      tag_30\n      jump\t// in\n    tag_29:\n      dup1\n      0x1f\n      add\n      0x20\n      dup1\n      swap2\n      div\n      mul\n      0x20\n      add\n      mload(0x40)\n      swap1\n      dup2\n      add\n      0x40\n      mstore\n      dup1\n      swap3\n      swap2\n      swap1\n      dup2\n      dup2\n      mstore\n      0x20\n      add\n      dup3\n      dup1\n      sload\n      tag_31\n      swap1\n      tag_30\n      jump\t// in\n    tag_31:\n      dup1\n      iszero\n      tag_32\n      jumpi\n      dup1\n      0x1f\n      lt\n      tag_33\n      jumpi\n      0x0100\n      dup1\n      dup4\n      sload\n      div\n      mul\n      dup4\n      mstore\n      swap2\n      0x20\n      add\n      swap2\n      jump(tag_32)\n    tag_33:\n      dup3\n      add\n      swap2\n      swap1\n      0x00\n      mstore\n      keccak256(0x00, 0x20)\n      swap1\n    tag_34:\n      dup2\n      sload\n      dup2\n      mstore\n      swap1\n      0x01\n      add\n      swap1\n      0x20\n      add\n      dup1\n      dup4\n      gt\n      tag_34\n      jumpi\n      dup3\n      swap1\n      sub\n      0x1f\n      and\n      dup3\n      add\n      swap2\n    tag_32:\n      pop\n      pop\n      pop\n      pop\n      pop\n      dup2\n      mstore\n      0x20\n      add\n      0x02\n      dup3\n      add\n      dup1\n      sload\n      tag_35\n      swap1\n      tag_30\n      jump\t// in\n    tag_35:\n      dup1\n      0x1f\n      add\n      0x20\n      dup1\n      swap2\n      div\n      mul\n      0x20\n      add\n      mload(0x40)\n      swap1\n      dup2\n      add\n      0x40\n      mstore\n      dup1\n      swap3\n      swap2\n      swap1\n      dup2\n      dup2\n      mstore\n      0x20\n      add\n      dup3\n      dup1\n      sload\n      tag_36\n      swap1\n      tag_30\n      jump\t// in\n    tag_36:\n      dup1\n      iszero\n      tag_37\n      jumpi\n      dup1\n      0x1f\n      lt\n      tag_38\n      jumpi\n      0x0100\n      dup1\n      dup4\n      sload\n      div\n      mul\n      dup4\n      mstore\n      swap2\n      0x20\n      add\n      swap2\n      jump(tag_37)\n    tag_38:\n      dup3\n      add\n      swap2\n      swap1\n      0x00\n      mstore\n      keccak256(0x00, 0x20)\n      swap1\n    tag_39:\n      dup2\n      sload\n      dup2\n      mstore\n      swap1\n      0x01\n      add\n      swap1\n      0x20\n      add\n      dup1\n      dup4\n      gt\n      tag_39\n      jumpi\n      dup3\n      swap1\n      sub\n      0x1f\n      and\n      dup3\n      add\n      swap2\n    tag_37:\n      pop\n      pop\n      pop\n      pop\n      pop\n      dup2\n      mstore\n      0x20\n      add\n      0x03\n      dup3\n      add\n      dup1\n      sload\n      tag_40\n      swap1\n      tag_30\n      jump\t// in\n    tag_40:\n      dup1\n      0x1f\n      add\n      0x20\n      dup1\n      swap2\n      div\n      mul\n      0x20\n      add\n      mload(0x40)\n      swap1\n      dup2\n      add\n      0x40\n      mstore\n      dup1\n      swap3\n      swap2\n      swap1\n      dup2\n      dup2\n      mstore\n      0x20\n      add\n      dup3\n      dup1\n      sload\n      tag_41\n      swap1\n      tag_30\n      jump\t// in\n    tag_41:\n      dup1\n      iszero\n      tag_42\n      jumpi\n      dup1\n      0x1f\n      lt\n      tag_43\n      jumpi\n      0x0100\n      dup1\n      dup4\n      sload\n      div\n      mul\n      dup4\n      mstore\n      swap2\n      0x20\n      add\n      swap2\n      jump(tag_42)\n    tag_43:\n      dup3\n      add\n      swap2\n      swap1\n      0x00\n      mstore\n      keccak256(0x00, 0x20)\n      swap1\n    tag_44:\n      dup2\n      sload\n      dup2\n      mstore\n      swap1\n      0x01\n      add\n      swap1\n      0x20\n      add\n      dup1\n      dup4\n      gt\n      tag_44\n      jumpi\n      dup3\n      swap1\n      sub\n      0x1f\n      and\n      dup3\n      add\n      swap2\n    tag_42:\n      pop\n      pop\n      pop\n      pop\n      pop\n      dup2\n      mstore\n      pop\n      pop\n        /* \"contracts/KYC.sol\":1258:1266  userInfo */\n      dup2\n        /* \"contracts/KYC.sol\":1267:1268  0 */\n      0x00\n        /* \"contracts/KYC.sol\":1258:1269  userInfo[0] */\n      dup2\n      mload\n      dup2\n      lt\n      tag_45\n      jumpi\n      tag_46\n      tag_47\n      jump\t// in\n    tag_46:\n    tag_45:\n      0x20\n      mul\n      0x20\n      add\n      add\n        /* \"contracts/KYC.sol\":1258:1293  userInfo[0] = userDict[userAddress] */\n      dup2\n      swap1\n      mstore\n      pop\n        /* \"contracts/KYC.sol\":1311:1319  userInfo */\n      dup1\n        /* \"contracts/KYC.sol\":1304:1319  return userInfo */\n      swap2\n      pop\n      pop\n        /* \"contracts/KYC.sol\":1084:1327  function getUserInfo(address payable userAddress) public view returns(UserInfoStruct[] memory){... */\n      swap2\n      swap1\n      pop\n      jump\t// out\n        /* \"contracts/KYC.sol\":623:1076  function onboarding(address payable userAddress, string memory role, string memory firstName, string memory lastName) public {... */\n    tag_19:\n        /* \"contracts/KYC.sol\":778:779  1 */\n      0x01\n        /* \"contracts/KYC.sol\":759:775  transactionCount */\n      0x00\n      dup1\n        /* \"contracts/KYC.sol\":759:779  transactionCount +=1 */\n      dup3\n      dup3\n      sload\n      tag_49\n      swap2\n      swap1\n      tag_50\n      jump\t// in\n    tag_49:\n      swap3\n      pop\n      pop\n      dup2\n      swap1\n      sstore\n      pop\n        /* \"contracts/KYC.sol\":922:976  UserInfoStruct(userAddress, role, firstName, lastName) */\n      mload(0x40)\n      dup1\n      0x80\n      add\n      0x40\n      mstore\n      dup1\n        /* \"contracts/KYC.sol\":937:948  userAddress */\n      dup6\n        /* \"contracts/KYC.sol\":922:976  UserInfoStruct(userAddress, role, firstName, lastName) */\n      0xffffffffffffffffffffffffffffffffffffffff\n      and\n      dup2\n      mstore\n      0x20\n      add\n        /* \"contracts/KYC.sol\":950:954  role */\n      dup5\n        /* \"contracts/KYC.sol\":922:976  UserInfoStruct(userAddress, role, firstName, lastName) */\n      dup2\n      mstore\n      0x20\n      add\n        /* \"contracts/KYC.sol\":956:965  firstName */\n      dup4\n        /* \"contracts/KYC.sol\":922:976  UserInfoStruct(userAddress, role, firstName, lastName) */\n      dup2\n      mstore\n      0x20\n      add\n        /* \"contracts/KYC.sol\":967:975  lastName */\n      dup3\n        /* \"contracts/KYC.sol\":922:976  UserInfoStruct(userAddress, role, firstName, lastName) */\n      dup2\n      mstore\n      pop\n        /* \"contracts/KYC.sol\":898:906  userDict */\n      0x01\n        /* \"contracts/KYC.sol\":898:919  userDict[userAddress] */\n      0x00\n        /* \"contracts/KYC.sol\":907:918  userAddress */\n      dup7\n        /* \"contracts/KYC.sol\":898:919  userDict[userAddress] */\n      0xffffffffffffffffffffffffffffffffffffffff\n      and\n      0xffffffffffffffffffffffffffffffffffffffff\n      and\n      dup2\n      mstore\n      0x20\n      add\n      swap1\n      dup2\n      mstore\n      0x20\n      add\n      0x00\n      keccak256\n        /* \"contracts/KYC.sol\":898:976  userDict[userAddress] = UserInfoStruct(userAddress, role, firstName, lastName) */\n      0x00\n      dup3\n      add\n      mload\n      dup2\n      0x00\n      add\n      exp(0x0100, 0x00)\n      dup2\n      sload\n      dup2\n      0xffffffffffffffffffffffffffffffffffffffff\n      mul\n      not\n      and\n      swap1\n      dup4\n      0xffffffffffffffffffffffffffffffffffffffff\n      and\n      mul\n      or\n      swap1\n      sstore\n      pop\n      0x20\n      dup3\n      add\n      mload\n      dup2\n      0x01\n      add\n      swap1\n      dup2\n      tag_51\n      swap2\n      swap1\n      tag_52\n      jump\t// in\n    tag_51:\n      pop\n      0x40\n      dup3\n      add\n      mload\n      dup2\n      0x02\n      add\n      swap1\n      dup2\n      tag_53\n      swap2\n      swap1\n      tag_52\n      jump\t// in\n    tag_53:\n      pop\n      0x60\n      dup3\n      add\n      mload\n      dup2\n      0x03\n      add\n      swap1\n      dup2\n      tag_54\n      swap2\n      swap1\n      tag_52\n      jump\t// in\n    tag_54:\n      pop\n      swap1\n      pop\n      pop\n        /* \"contracts/KYC.sol\":623:1076  function onboarding(address payable userAddress, string memory role, string memory firstName, string memory lastName) public {... */\n      pop\n      pop\n      pop\n      pop\n      jump\t// out\n    tag_28:\n      mload(0x40)\n      dup1\n      0x80\n      add\n      0x40\n      mstore\n      dup1\n      and(0xffffffffffffffffffffffffffffffffffffffff, 0x00)\n      dup2\n      mstore\n      0x20\n      add\n      0x60\n      dup2\n      mstore\n      0x20\n      add\n      0x60\n      dup2\n      mstore\n      0x20\n      add\n      0x60\n      dup2\n      mstore\n      pop\n      swap1\n      jump\t// out\n        /* \"#utility.yul\":7:84   */\n    tag_55:\n        /* \"#utility.yul\":44:51   */\n      0x00\n        /* \"#utility.yul\":73:78   */\n      dup2\n        /* \"#utility.yul\":62:78   */\n      swap1\n      pop\n        /* \"#utility.yul\":7:84   */\n      swap2\n      swap1\n      pop\n      jump\t// out\n        /* \"#utility.yul\":90:208   */\n    tag_56:\n        /* \"#utility.yul\":177:201   */\n      tag_106\n        /* \"#utility.yul\":195:200   */\n      dup2\n        /* \"#utility.yul\":177:201   */\n      tag_55\n      jump\t// in\n    tag_106:\n        /* \"#utility.yul\":172:175   */\n      dup3\n        /* \"#utility.yul\":165:202   */\n      mstore\n        /* \"#utility.yul\":90:208   */\n      pop\n      pop\n      jump\t// out\n        /* \"#utility.yul\":214:436   */\n    tag_9:\n        /* \"#utility.yul\":307:311   */\n      0x00\n        /* \"#utility.yul\":345:347   */\n      0x20\n        /* \"#utility.yul\":334:343   */\n      dup3\n        /* \"#utility.yul\":330:348   */\n      add\n        /* \"#utility.yul\":322:348   */\n      swap1\n      pop\n        /* \"#utility.yul\":358:429   */\n      tag_108\n        /* \"#utility.yul\":426:427   */\n      0x00\n        /* \"#utility.yul\":415:424   */\n      dup4\n        /* \"#utility.yul\":411:428   */\n      add\n        /* \"#utility.yul\":402:408   */\n      dup5\n        /* \"#utility.yul\":358:429   */\n      tag_56\n      jump\t// in\n    tag_108:\n        /* \"#utility.yul\":214:436   */\n      swap3\n      swap2\n      pop\n      pop\n      jump\t// out\n        /* \"#utility.yul\":442:517   */\n    tag_57:\n        /* \"#utility.yul\":475:481   */\n      0x00\n        /* \"#utility.yul\":508:510   */\n      0x40\n        /* \"#utility.yul\":502:511   */\n      mload\n        /* \"#utility.yul\":492:511   */\n      swap1\n      pop\n        /* \"#utility.yul\":442:517   */\n      swap1\n      jump\t// out\n        /* \"#utility.yul\":523:640   */\n    tag_58:\n        /* \"#utility.yul\":632:633   */\n      0x00\n        /* \"#utility.yul\":629:630   */\n      dup1\n        /* \"#utility.yul\":622:634   */\n      revert\n        /* \"#utility.yul\":646:763   */\n    tag_59:\n        /* \"#utility.yul\":755:756   */\n      0x00\n        /* \"#utility.yul\":752:753   */\n      dup1\n        /* \"#utility.yul\":745:757   */\n      revert\n        /* \"#utility.yul\":769:895   */\n    tag_60:\n        /* \"#utility.yul\":806:813   */\n      0x00\n        /* \"#utility.yul\":846:888   */\n      0xffffffffffffffffffffffffffffffffffffffff\n        /* \"#utility.yul\":839:844   */\n      dup3\n        /* \"#utility.yul\":835:889   */\n      and\n        /* \"#utility.yul\":824:889   */\n      swap1\n      pop\n        /* \"#utility.yul\":769:895   */\n      swap2\n      swap1\n      pop\n      jump\t// out\n        /* \"#utility.yul\":901:1005   */\n    tag_61:\n        /* \"#utility.yul\":946:953   */\n      0x00\n        /* \"#utility.yul\":975:999   */\n      tag_114\n        /* \"#utility.yul\":993:998   */\n      dup3\n        /* \"#utility.yul\":975:999   */\n      tag_60\n      jump\t// in\n    tag_114:\n        /* \"#utility.yul\":964:999   */\n      swap1\n      pop\n        /* \"#utility.yul\":901:1005   */\n      swap2\n      swap1\n      pop\n      jump\t// out\n        /* \"#utility.yul\":1011:1149   */\n    tag_62:\n        /* \"#utility.yul\":1092:1124   */\n      tag_116\n        /* \"#utility.yul\":1118:1123   */\n      dup2\n        /* \"#utility.yul\":1092:1124   */\n      tag_61\n      jump\t// in\n    tag_116:\n        /* \"#utility.yul\":1085:1090   */\n      dup2\n        /* \"#utility.yul\":1082:1125   */\n      eq\n        /* \"#utility.yul\":1072:1143   */\n      tag_117\n      jumpi\n        /* \"#utility.yul\":1139:1140   */\n      0x00\n        /* \"#utility.yul\":1136:1137   */\n      dup1\n        /* \"#utility.yul\":1129:1141   */\n      revert\n        /* \"#utility.yul\":1072:1143   */\n    tag_117:\n        /* \"#utility.yul\":1011:1149   */\n      pop\n      jump\t// out\n        /* \"#utility.yul\":1155:1310   */\n    tag_63:\n        /* \"#utility.yul\":1209:1214   */\n      0x00\n        /* \"#utility.yul\":1247:1253   */\n      dup2\n        /* \"#utility.yul\":1234:1254   */\n      calldataload\n        /* \"#utility.yul\":1225:1254   */\n      swap1\n      pop\n        /* \"#utility.yul\":1263:1304   */\n      tag_119\n        /* \"#utility.yul\":1298:1303   */\n      dup2\n        /* \"#utility.yul\":1263:1304   */\n      tag_62\n      jump\t// in\n    tag_119:\n        /* \"#utility.yul\":1155:1310   */\n      swap3\n      swap2\n      pop\n      pop\n      jump\t// out\n        /* \"#utility.yul\":1316:1661   */\n    tag_12:\n        /* \"#utility.yul\":1383:1389   */\n      0x00\n        /* \"#utility.yul\":1432:1434   */\n      0x20\n        /* \"#utility.yul\":1420:1429   */\n      dup3\n        /* \"#utility.yul\":1411:1418   */\n      dup5\n        /* \"#utility.yul\":1407:1430   */\n      sub\n        /* \"#utility.yul\":1403:1435   */\n      slt\n        /* \"#utility.yul\":1400:1519   */\n      iszero\n      tag_121\n      jumpi\n        /* \"#utility.yul\":1438:1517   */\n      tag_122\n      tag_58\n      jump\t// in\n    tag_122:\n        /* \"#utility.yul\":1400:1519   */\n    tag_121:\n        /* \"#utility.yul\":1558:1559   */\n      0x00\n        /* \"#utility.yul\":1583:1644   */\n      tag_123\n        /* \"#utility.yul\":1636:1643   */\n      dup5\n        /* \"#utility.yul\":1627:1633   */\n      dup3\n        /* \"#utility.yul\":1616:1625   */\n      dup6\n        /* \"#utility.yul\":1612:1634   */\n      add\n        /* \"#utility.yul\":1583:1644   */\n      tag_63\n      jump\t// in\n    tag_123:\n        /* \"#utility.yul\":1573:1644   */\n      swap2\n      pop\n        /* \"#utility.yul\":1529:1654   */\n      pop\n        /* \"#utility.yul\":1316:1661   */\n      swap3\n      swap2\n      pop\n      pop\n      jump\t// out\n        /* \"#utility.yul\":1667:1811   */\n    tag_64:\n        /* \"#utility.yul\":1764:1770   */\n      0x00\n        /* \"#utility.yul\":1798:1803   */\n      dup2\n        /* \"#utility.yul\":1792:1804   */\n      mload\n        /* \"#utility.yul\":1782:1804   */\n      swap1\n      pop\n        /* \"#utility.yul\":1667:1811   */\n      swap2\n      swap1\n      pop\n      jump\t// out\n        /* \"#utility.yul\":1817:2031   */\n    tag_65:\n        /* \"#utility.yul\":1946:1957   */\n      0x00\n        /* \"#utility.yul\":1980:1986   */\n      dup3\n        /* \"#utility.yul\":1975:1978   */\n      dup3\n        /* \"#utility.yul\":1968:1987   */\n      mstore\n        /* \"#utility.yul\":2020:2024   */\n      0x20\n        /* \"#utility.yul\":2015:2018   */\n      dup3\n        /* \"#utility.yul\":2011:2025   */\n      add\n        /* \"#utility.yul\":1996:2025   */\n      swap1\n      pop\n        /* \"#utility.yul\":1817:2031   */\n      swap3\n      swap2\n      pop\n      pop\n      jump\t// out\n        /* \"#utility.yul\":2037:2199   */\n    tag_66:\n        /* \"#utility.yul\":2134:2138   */\n      0x00\n        /* \"#utility.yul\":2157:2160   */\n      dup2\n        /* \"#utility.yul\":2149:2160   */\n      swap1\n      pop\n        /* \"#utility.yul\":2187:2191   */\n      0x20\n        /* \"#utility.yul\":2182:2185   */\n      dup3\n        /* \"#utility.yul\":2178:2192   */\n      add\n        /* \"#utility.yul\":2170:2192   */\n      swap1\n      pop\n        /* \"#utility.yul\":2037:2199   */\n      swap2\n      swap1\n      pop\n      jump\t// out\n        /* \"#utility.yul\":2205:2301   */\n    tag_67:\n        /* \"#utility.yul\":2242:2249   */\n      0x00\n        /* \"#utility.yul\":2271:2295   */\n      tag_128\n        /* \"#utility.yul\":2289:2294   */\n      dup3\n        /* \"#utility.yul\":2271:2295   */\n      tag_60\n      jump\t// in\n    tag_128:\n        /* \"#utility.yul\":2260:2295   */\n      swap1\n      pop\n        /* \"#utility.yul\":2205:2301   */\n      swap2\n      swap1\n      pop\n      jump\t// out\n        /* \"#utility.yul\":2307:2415   */\n    tag_68:\n        /* \"#utility.yul\":2384:2408   */\n      tag_130\n        /* \"#utility.yul\":2402:2407   */\n      dup2\n        /* \"#utility.yul\":2384:2408   */\n      tag_67\n      jump\t// in\n    tag_130:\n        /* \"#utility.yul\":2379:2382   */\n      dup3\n        /* \"#utility.yul\":2372:2409   */\n      mstore\n        /* \"#utility.yul\":2307:2415   */\n      pop\n      pop\n      jump\t// out\n        /* \"#utility.yul\":2421:2520   */\n    tag_69:\n        /* \"#utility.yul\":2473:2479   */\n      0x00\n        /* \"#utility.yul\":2507:2512   */\n      dup2\n        /* \"#utility.yul\":2501:2513   */\n      mload\n        /* \"#utility.yul\":2491:2513   */\n      swap1\n      pop\n        /* \"#utility.yul\":2421:2520   */\n      swap2\n      swap1\n      pop\n      jump\t// out\n        /* \"#utility.yul\":2526:2685   */\n    tag_70:\n        /* \"#utility.yul\":2600:2611   */\n      0x00\n        /* \"#utility.yul\":2634:2640   */\n      dup3\n        /* \"#utility.yul\":2629:2632   */\n      dup3\n        /* \"#utility.yul\":2622:2641   */\n      mstore\n        /* \"#utility.yul\":2674:2678   */\n      0x20\n        /* \"#utility.yul\":2669:2672   */\n      dup3\n        /* \"#utility.yul\":2665:2679   */\n      add\n        /* \"#utility.yul\":2650:2679   */\n      swap1\n      pop\n        /* \"#utility.yul\":2526:2685   */\n      swap3\n      swap2\n      pop\n      pop\n      jump\t// out\n        /* \"#utility.yul\":2691:2937   */\n    tag_71:\n        /* \"#utility.yul\":2772:2773   */\n      0x00\n        /* \"#utility.yul\":2782:2895   */\n    tag_134:\n        /* \"#utility.yul\":2796:2802   */\n      dup4\n        /* \"#utility.yul\":2793:2794   */\n      dup2\n        /* \"#utility.yul\":2790:2803   */\n      lt\n        /* \"#utility.yul\":2782:2895   */\n      iszero\n      tag_136\n      jumpi\n        /* \"#utility.yul\":2881:2882   */\n      dup1\n        /* \"#utility.yul\":2876:2879   */\n      dup3\n        /* \"#utility.yul\":2872:2883   */\n      add\n        /* \"#utility.yul\":2866:2884   */\n      mload\n        /* \"#utility.yul\":2862:2863   */\n      dup2\n        /* \"#utility.yul\":2857:2860   */\n      dup5\n        /* \"#utility.yul\":2853:2864   */\n      add\n        /* \"#utility.yul\":2846:2885   */\n      mstore\n        /* \"#utility.yul\":2818:2820   */\n      0x20\n        /* \"#utility.yul\":2815:2816   */\n      dup2\n        /* \"#utility.yul\":2811:2821   */\n      add\n        /* \"#utility.yul\":2806:2821   */\n      swap1\n      pop\n        /* \"#utility.yul\":2782:2895   */\n      jump(tag_134)\n    tag_136:\n        /* \"#utility.yul\":2929:2930   */\n      0x00\n        /* \"#utility.yul\":2920:2926   */\n      dup5\n        /* \"#utility.yul\":2915:2918   */\n      dup5\n        /* \"#utility.yul\":2911:2927   */\n      add\n        /* \"#utility.yul\":2904:2931   */\n      mstore\n        /* \"#utility.yul\":2753:2937   */\n      pop\n        /* \"#utility.yul\":2691:2937   */\n      pop\n      pop\n      pop\n      jump\t// out\n        /* \"#utility.yul\":2943:3045   */\n    tag_72:\n        /* \"#utility.yul\":2984:2990   */\n      0x00\n        /* \"#utility.yul\":3035:3037   */\n      0x1f\n        /* \"#utility.yul\":3031:3038   */\n      not\n        /* \"#utility.yul\":3026:3028   */\n      0x1f\n        /* \"#utility.yul\":3019:3024   */\n      dup4\n        /* \"#utility.yul\":3015:3029   */\n      add\n        /* \"#utility.yul\":3011:3039   */\n      and\n        /* \"#utility.yul\":3001:3039   */\n      swap1\n      pop\n        /* \"#utility.yul\":2943:3045   */\n      swap2\n      swap1\n      pop\n      jump\t// out\n        /* \"#utility.yul\":3051:3408   */\n    tag_73:\n        /* \"#utility.yul\":3129:3132   */\n      0x00\n        /* \"#utility.yul\":3157:3196   */\n      tag_139\n        /* \"#utility.yul\":3190:3195   */\n      dup3\n        /* \"#utility.yul\":3157:3196   */\n      tag_69\n      jump\t// in\n    tag_139:\n        /* \"#utility.yul\":3212:3273   */\n      tag_140\n        /* \"#utility.yul\":3266:3272   */\n      dup2\n        /* \"#utility.yul\":3261:3264   */\n      dup6\n        /* \"#utility.yul\":3212:3273   */\n      tag_70\n      jump\t// in\n    tag_140:\n        /* \"#utility.yul\":3205:3273   */\n      swap4\n      pop\n        /* \"#utility.yul\":3282:3347   */\n      tag_141\n        /* \"#utility.yul\":3340:3346   */\n      dup2\n        /* \"#utility.yul\":3335:3338   */\n      dup6\n        /* \"#utility.yul\":3328:3332   */\n      0x20\n        /* \"#utility.yul\":3321:3326   */\n      dup7\n        /* \"#utility.yul\":3317:3333   */\n      add\n        /* \"#utility.yul\":3282:3347   */\n      tag_71\n      jump\t// in\n    tag_141:\n        /* \"#utility.yul\":3372:3401   */\n      tag_142\n        /* \"#utility.yul\":3394:3400   */\n      dup2\n        /* \"#utility.yul\":3372:3401   */\n      tag_72\n      jump\t// in\n    tag_142:\n        /* \"#utility.yul\":3367:3370   */\n      dup5\n        /* \"#utility.yul\":3363:3402   */\n      add\n        /* \"#utility.yul\":3356:3402   */\n      swap2\n      pop\n        /* \"#utility.yul\":3133:3408   */\n      pop\n        /* \"#utility.yul\":3051:3408   */\n      swap3\n      swap2\n      pop\n      pop\n      jump\t// out\n        /* \"#utility.yul\":3476:4588   */\n    tag_74:\n        /* \"#utility.yul\":3595:3598   */\n      0x00\n        /* \"#utility.yul\":3631:3635   */\n      0x80\n        /* \"#utility.yul\":3626:3629   */\n      dup4\n        /* \"#utility.yul\":3622:3636   */\n      add\n        /* \"#utility.yul\":3725:3729   */\n      0x00\n        /* \"#utility.yul\":3718:3723   */\n      dup4\n        /* \"#utility.yul\":3714:3730   */\n      add\n        /* \"#utility.yul\":3708:3731   */\n      mload\n        /* \"#utility.yul\":3744:3807   */\n      tag_144\n        /* \"#utility.yul\":3801:3805   */\n      0x00\n        /* \"#utility.yul\":3796:3799   */\n      dup7\n        /* \"#utility.yul\":3792:3806   */\n      add\n        /* \"#utility.yul\":3778:3790   */\n      dup3\n        /* \"#utility.yul\":3744:3807   */\n      tag_68\n      jump\t// in\n    tag_144:\n        /* \"#utility.yul\":3646:3817   */\n      pop\n        /* \"#utility.yul\":3899:3903   */\n      0x20\n        /* \"#utility.yul\":3892:3897   */\n      dup4\n        /* \"#utility.yul\":3888:3904   */\n      add\n        /* \"#utility.yul\":3882:3905   */\n      mload\n        /* \"#utility.yul\":3952:3955   */\n      dup5\n        /* \"#utility.yul\":3946:3950   */\n      dup3\n        /* \"#utility.yul\":3942:3956   */\n      sub\n        /* \"#utility.yul\":3935:3939   */\n      0x20\n        /* \"#utility.yul\":3930:3933   */\n      dup7\n        /* \"#utility.yul\":3926:3940   */\n      add\n        /* \"#utility.yul\":3919:3957   */\n      mstore\n        /* \"#utility.yul\":3978:4051   */\n      tag_145\n        /* \"#utility.yul\":4046:4050   */\n      dup3\n        /* \"#utility.yul\":4032:4044   */\n      dup3\n        /* \"#utility.yul\":3978:4051   */\n      tag_73\n      jump\t// in\n    tag_145:\n        /* \"#utility.yul\":3970:4051   */\n      swap2\n      pop\n        /* \"#utility.yul\":3827:4062   */\n      pop\n        /* \"#utility.yul\":4149:4153   */\n      0x40\n        /* \"#utility.yul\":4142:4147   */\n      dup4\n        /* \"#utility.yul\":4138:4154   */\n      add\n        /* \"#utility.yul\":4132:4155   */\n      mload\n        /* \"#utility.yul\":4202:4205   */\n      dup5\n        /* \"#utility.yul\":4196:4200   */\n      dup3\n        /* \"#utility.yul\":4192:4206   */\n      sub\n        /* \"#utility.yul\":4185:4189   */\n      0x40\n        /* \"#utility.yul\":4180:4183   */\n      dup7\n        /* \"#utility.yul\":4176:4190   */\n      add\n        /* \"#utility.yul\":4169:4207   */\n      mstore\n        /* \"#utility.yul\":4228:4301   */\n      tag_146\n        /* \"#utility.yul\":4296:4300   */\n      dup3\n        /* \"#utility.yul\":4282:4294   */\n      dup3\n        /* \"#utility.yul\":4228:4301   */\n      tag_73\n      jump\t// in\n    tag_146:\n        /* \"#utility.yul\":4220:4301   */\n      swap2\n      pop\n        /* \"#utility.yul\":4072:4312   */\n      pop\n        /* \"#utility.yul\":4398:4402   */\n      0x60\n        /* \"#utility.yul\":4391:4396   */\n      dup4\n        /* \"#utility.yul\":4387:4403   */\n      add\n        /* \"#utility.yul\":4381:4404   */\n      mload\n        /* \"#utility.yul\":4451:4454   */\n      dup5\n        /* \"#utility.yul\":4445:4449   */\n      dup3\n        /* \"#utility.yul\":4441:4455   */\n      sub\n        /* \"#utility.yul\":4434:4438   */\n      0x60\n        /* \"#utility.yul\":4429:4432   */\n      dup7\n        /* \"#utility.yul\":4425:4439   */\n      add\n        /* \"#utility.yul\":4418:4456   */\n      mstore\n        /* \"#utility.yul\":4477:4550   */\n      tag_147\n        /* \"#utility.yul\":4545:4549   */\n      dup3\n        /* \"#utility.yul\":4531:4543   */\n      dup3\n        /* \"#utility.yul\":4477:4550   */\n      tag_73\n      jump\t// in\n    tag_147:\n        /* \"#utility.yul\":4469:4550   */\n      swap2\n      pop\n        /* \"#utility.yul\":4322:4561   */\n      pop\n        /* \"#utility.yul\":4578:4582   */\n      dup1\n        /* \"#utility.yul\":4571:4582   */\n      swap2\n      pop\n        /* \"#utility.yul\":3600:4588   */\n      pop\n        /* \"#utility.yul\":3476:4588   */\n      swap3\n      swap2\n      pop\n      pop\n      jump\t// out\n        /* \"#utility.yul\":4594:4870   */\n    tag_75:\n        /* \"#utility.yul\":4723:4733   */\n      0x00\n        /* \"#utility.yul\":4758:4864   */\n      tag_149\n        /* \"#utility.yul\":4860:4863   */\n      dup4\n        /* \"#utility.yul\":4852:4858   */\n      dup4\n        /* \"#utility.yul\":4758:4864   */\n      tag_74\n      jump\t// in\n    tag_149:\n        /* \"#utility.yul\":4744:4864   */\n      swap1\n      pop\n        /* \"#utility.yul\":4594:4870   */\n      swap3\n      swap2\n      pop\n      pop\n      jump\t// out\n        /* \"#utility.yul\":4876:5019   */\n    tag_76:\n        /* \"#utility.yul\":4976:4980   */\n      0x00\n        /* \"#utility.yul\":5008:5012   */\n      0x20\n        /* \"#utility.yul\":5003:5006   */\n      dup3\n        /* \"#utility.yul\":4999:5013   */\n      add\n        /* \"#utility.yul\":4991:5013   */\n      swap1\n      pop\n        /* \"#utility.yul\":4876:5019   */\n      swap2\n      swap1\n      pop\n      jump\t// out\n        /* \"#utility.yul\":5091:6242   */\n    tag_77:\n        /* \"#utility.yul\":5270:5273   */\n      0x00\n        /* \"#utility.yul\":5299:5383   */\n      tag_152\n        /* \"#utility.yul\":5377:5382   */\n      dup3\n        /* \"#utility.yul\":5299:5383   */\n      tag_64\n      jump\t// in\n    tag_152:\n        /* \"#utility.yul\":5399:5515   */\n      tag_153\n        /* \"#utility.yul\":5508:5514   */\n      dup2\n        /* \"#utility.yul\":5503:5506   */\n      dup6\n        /* \"#utility.yul\":5399:5515   */\n      tag_65\n      jump\t// in\n    tag_153:\n        /* \"#utility.yul\":5392:5515   */\n      swap4\n      pop\n        /* \"#utility.yul\":5541:5544   */\n      dup4\n        /* \"#utility.yul\":5586:5590   */\n      0x20\n        /* \"#utility.yul\":5578:5584   */\n      dup3\n        /* \"#utility.yul\":5574:5591   */\n      mul\n        /* \"#utility.yul\":5569:5572   */\n      dup6\n        /* \"#utility.yul\":5565:5592   */\n      add\n        /* \"#utility.yul\":5616:5702   */\n      tag_154\n        /* \"#utility.yul\":5696:5701   */\n      dup6\n        /* \"#utility.yul\":5616:5702   */\n      tag_66\n      jump\t// in\n    tag_154:\n        /* \"#utility.yul\":5725:5732   */\n      dup1\n        /* \"#utility.yul\":5756:5757   */\n      0x00\n        /* \"#utility.yul\":5741:6197   */\n    tag_155:\n        /* \"#utility.yul\":5766:5772   */\n      dup6\n        /* \"#utility.yul\":5763:5764   */\n      dup2\n        /* \"#utility.yul\":5760:5773   */\n      lt\n        /* \"#utility.yul\":5741:6197   */\n      iszero\n      tag_157\n      jumpi\n        /* \"#utility.yul\":5837:5846   */\n      dup5\n        /* \"#utility.yul\":5831:5835   */\n      dup5\n        /* \"#utility.yul\":5827:5847   */\n      sub\n        /* \"#utility.yul\":5822:5825   */\n      dup10\n        /* \"#utility.yul\":5815:5848   */\n      mstore\n        /* \"#utility.yul\":5888:5894   */\n      dup2\n        /* \"#utility.yul\":5882:5895   */\n      mload\n        /* \"#utility.yul\":5916:6040   */\n      tag_158\n        /* \"#utility.yul\":6035:6039   */\n      dup6\n        /* \"#utility.yul\":6020:6033   */\n      dup3\n        /* \"#utility.yul\":5916:6040   */\n      tag_75\n      jump\t// in\n    tag_158:\n        /* \"#utility.yul\":5908:6040   */\n      swap5\n      pop\n        /* \"#utility.yul\":6063:6153   */\n      tag_159\n        /* \"#utility.yul\":6146:6152   */\n      dup4\n        /* \"#utility.yul\":6063:6153   */\n      tag_76\n      jump\t// in\n    tag_159:\n        /* \"#utility.yul\":6053:6153   */\n      swap3\n      pop\n        /* \"#utility.yul\":6182:6186   */\n      0x20\n        /* \"#utility.yul\":6177:6180   */\n      dup11\n        /* \"#utility.yul\":6173:6187   */\n      add\n        /* \"#utility.yul\":6166:6187   */\n      swap10\n      pop\n        /* \"#utility.yul\":5801:6197   */\n      pop\n        /* \"#utility.yul\":5788:5789   */\n      0x01\n        /* \"#utility.yul\":5785:5786   */\n      dup2\n        /* \"#utility.yul\":5781:5790   */\n      add\n        /* \"#utility.yul\":5776:5790   */\n      swap1\n      pop\n        /* \"#utility.yul\":5741:6197   */\n      jump(tag_155)\n    tag_157:\n        /* \"#utility.yul\":5745:5759   */\n      pop\n        /* \"#utility.yul\":6213:6217   */\n      dup3\n        /* \"#utility.yul\":6206:6217   */\n      swap8\n      pop\n        /* \"#utility.yul\":6233:6236   */\n      dup8\n        /* \"#utility.yul\":6226:6236   */\n      swap6\n      pop\n        /* \"#utility.yul\":5275:6242   */\n      pop\n      pop\n      pop\n      pop\n      pop\n        /* \"#utility.yul\":5091:6242   */\n      swap3\n      swap2\n      pop\n      pop\n      jump\t// out\n        /* \"#utility.yul\":6248:6741   */\n    tag_15:\n        /* \"#utility.yul\":6451:6455   */\n      0x00\n        /* \"#utility.yul\":6489:6491   */\n      0x20\n        /* \"#utility.yul\":6478:6487   */\n      dup3\n        /* \"#utility.yul\":6474:6492   */\n      add\n        /* \"#utility.yul\":6466:6492   */\n      swap1\n      pop\n        /* \"#utility.yul\":6538:6547   */\n      dup2\n        /* \"#utility.yul\":6532:6536   */\n      dup2\n        /* \"#utility.yul\":6528:6548   */\n      sub\n        /* \"#utility.yul\":6524:6525   */\n      0x00\n        /* \"#utility.yul\":6513:6522   */\n      dup4\n        /* \"#utility.yul\":6509:6526   */\n      add\n        /* \"#utility.yul\":6502:6549   */\n      mstore\n        /* \"#utility.yul\":6566:6734   */\n      tag_161\n        /* \"#utility.yul\":6729:6733   */\n      dup2\n        /* \"#utility.yul\":6720:6726   */\n      dup5\n        /* \"#utility.yul\":6566:6734   */\n      tag_77\n      jump\t// in\n    tag_161:\n        /* \"#utility.yul\":6558:6734   */\n      swap1\n      pop\n        /* \"#utility.yul\":6248:6741   */\n      swap3\n      swap2\n      pop\n      pop\n      jump\t// out\n        /* \"#utility.yul\":6747:6864   */\n    tag_78:\n        /* \"#utility.yul\":6856:6857   */\n      0x00\n        /* \"#utility.yul\":6853:6854   */\n      dup1\n        /* \"#utility.yul\":6846:6858   */\n      revert\n        /* \"#utility.yul\":6870:6987   */\n    tag_79:\n        /* \"#utility.yul\":6979:6980   */\n      0x00\n        /* \"#utility.yul\":6976:6977   */\n      dup1\n        /* \"#utility.yul\":6969:6981   */\n      revert\n        /* \"#utility.yul\":6993:7173   */\n    tag_24:\n        /* \"#utility.yul\":7041:7118   */\n      0x4e487b7100000000000000000000000000000000000000000000000000000000\n        /* \"#utility.yul\":7038:7039   */\n      0x00\n        /* \"#utility.yul\":7031:7119   */\n      mstore\n        /* \"#utility.yul\":7138:7142   */\n      0x41\n        /* \"#utility.yul\":7135:7136   */\n      0x04\n        /* \"#utility.yul\":7128:7143   */\n      mstore\n        /* \"#utility.yul\":7162:7166   */\n      0x24\n        /* \"#utility.yul\":7159:7160   */\n      0x00\n        /* \"#utility.yul\":7152:7167   */\n      revert\n        /* \"#utility.yul\":7179:7460   */\n    tag_80:\n        /* \"#utility.yul\":7262:7289   */\n      tag_166\n        /* \"#utility.yul\":7284:7288   */\n      dup3\n        /* \"#utility.yul\":7262:7289   */\n      tag_72\n      jump\t// in\n    tag_166:\n        /* \"#utility.yul\":7254:7260   */\n      dup2\n        /* \"#utility.yul\":7250:7290   */\n      add\n        /* \"#utility.yul\":7392:7398   */\n      dup2\n        /* \"#utility.yul\":7380:7390   */\n      dup2\n        /* \"#utility.yul\":7377:7399   */\n      lt\n        /* \"#utility.yul\":7356:7374   */\n      0xffffffffffffffff\n        /* \"#utility.yul\":7344:7354   */\n      dup3\n        /* \"#utility.yul\":7341:7375   */\n      gt\n        /* \"#utility.yul\":7338:7400   */\n      or\n        /* \"#utility.yul\":7335:7423   */\n      iszero\n      tag_167\n      jumpi\n        /* \"#utility.yul\":7403:7421   */\n      tag_168\n      tag_24\n      jump\t// in\n    tag_168:\n        /* \"#utility.yul\":7335:7423   */\n    tag_167:\n        /* \"#utility.yul\":7443:7453   */\n      dup1\n        /* \"#utility.yul\":7439:7441   */\n      0x40\n        /* \"#utility.yul\":7432:7454   */\n      mstore\n        /* \"#utility.yul\":7222:7460   */\n      pop\n        /* \"#utility.yul\":7179:7460   */\n      pop\n      pop\n      jump\t// out\n        /* \"#utility.yul\":7466:7595   */\n    tag_81:\n        /* \"#utility.yul\":7500:7506   */\n      0x00\n        /* \"#utility.yul\":7527:7547   */\n      tag_170\n      tag_57\n      jump\t// in\n    tag_170:\n        /* \"#utility.yul\":7517:7547   */\n      swap1\n      pop\n        /* \"#utility.yul\":7556:7589   */\n      tag_171\n        /* \"#utility.yul\":7584:7588   */\n      dup3\n        /* \"#utility.yul\":7576:7582   */\n      dup3\n        /* \"#utility.yul\":7556:7589   */\n      tag_80\n      jump\t// in\n    tag_171:\n        /* \"#utility.yul\":7466:7595   */\n      swap2\n      swap1\n      pop\n      jump\t// out\n        /* \"#utility.yul\":7601:7909   */\n    tag_82:\n        /* \"#utility.yul\":7663:7667   */\n      0x00\n        /* \"#utility.yul\":7753:7771   */\n      0xffffffffffffffff\n        /* \"#utility.yul\":7745:7751   */\n      dup3\n        /* \"#utility.yul\":7742:7772   */\n      gt\n        /* \"#utility.yul\":7739:7795   */\n      iszero\n      tag_173\n      jumpi\n        /* \"#utility.yul\":7775:7793   */\n      tag_174\n      tag_24\n      jump\t// in\n    tag_174:\n        /* \"#utility.yul\":7739:7795   */\n    tag_173:\n        /* \"#utility.yul\":7813:7842   */\n      tag_175\n        /* \"#utility.yul\":7835:7841   */\n      dup3\n        /* \"#utility.yul\":7813:7842   */\n      tag_72\n      jump\t// in\n    tag_175:\n        /* \"#utility.yul\":7805:7842   */\n      swap1\n      pop\n        /* \"#utility.yul\":7897:7901   */\n      0x20\n        /* \"#utility.yul\":7891:7895   */\n      dup2\n        /* \"#utility.yul\":7887:7902   */\n      add\n        /* \"#utility.yul\":7879:7902   */\n      swap1\n      pop\n        /* \"#utility.yul\":7601:7909   */\n      swap2\n      swap1\n      pop\n      jump\t// out\n        /* \"#utility.yul\":7915:8061   */\n    tag_83:\n        /* \"#utility.yul\":8012:8018   */\n      dup3\n        /* \"#utility.yul\":8007:8010   */\n      dup2\n        /* \"#utility.yul\":8002:8005   */\n      dup4\n        /* \"#utility.yul\":7989:8019   */\n      calldatacopy\n        /* \"#utility.yul\":8053:8054   */\n      0x00\n        /* \"#utility.yul\":8044:8050   */\n      dup4\n        /* \"#utility.yul\":8039:8042   */\n      dup4\n        /* \"#utility.yul\":8035:8051   */\n      add\n        /* \"#utility.yul\":8028:8055   */\n      mstore\n        /* \"#utility.yul\":7915:8061   */\n      pop\n      pop\n      pop\n      jump\t// out\n        /* \"#utility.yul\":8067:8492   */\n    tag_84:\n        /* \"#utility.yul\":8145:8150   */\n      0x00\n        /* \"#utility.yul\":8170:8236   */\n      tag_178\n        /* \"#utility.yul\":8186:8235   */\n      tag_179\n        /* \"#utility.yul\":8228:8234   */\n      dup5\n        /* \"#utility.yul\":8186:8235   */\n      tag_82\n      jump\t// in\n    tag_179:\n        /* \"#utility.yul\":8170:8236   */\n      tag_81\n      jump\t// in\n    tag_178:\n        /* \"#utility.yul\":8161:8236   */\n      swap1\n      pop\n        /* \"#utility.yul\":8259:8265   */\n      dup3\n        /* \"#utility.yul\":8252:8257   */\n      dup2\n        /* \"#utility.yul\":8245:8266   */\n      mstore\n        /* \"#utility.yul\":8297:8301   */\n      0x20\n        /* \"#utility.yul\":8290:8295   */\n      dup2\n        /* \"#utility.yul\":8286:8302   */\n      add\n        /* \"#utility.yul\":8335:8338   */\n      dup5\n        /* \"#utility.yul\":8326:8332   */\n      dup5\n        /* \"#utility.yul\":8321:8324   */\n      dup5\n        /* \"#utility.yul\":8317:8333   */\n      add\n        /* \"#utility.yul\":8314:8339   */\n      gt\n        /* \"#utility.yul\":8311:8423   */\n      iszero\n      tag_180\n      jumpi\n        /* \"#utility.yul\":8342:8421   */\n      tag_181\n      tag_79\n      jump\t// in\n    tag_181:\n        /* \"#utility.yul\":8311:8423   */\n    tag_180:\n        /* \"#utility.yul\":8432:8486   */\n      tag_182\n        /* \"#utility.yul\":8479:8485   */\n      dup5\n        /* \"#utility.yul\":8474:8477   */\n      dup3\n        /* \"#utility.yul\":8469:8472   */\n      dup6\n        /* \"#utility.yul\":8432:8486   */\n      tag_83\n      jump\t// in\n    tag_182:\n        /* \"#utility.yul\":8151:8492   */\n      pop\n        /* \"#utility.yul\":8067:8492   */\n      swap4\n      swap3\n      pop\n      pop\n      pop\n      jump\t// out\n        /* \"#utility.yul\":8512:8852   */\n    tag_85:\n        /* \"#utility.yul\":8568:8573   */\n      0x00\n        /* \"#utility.yul\":8617:8620   */\n      dup3\n        /* \"#utility.yul\":8610:8614   */\n      0x1f\n        /* \"#utility.yul\":8602:8608   */\n      dup4\n        /* \"#utility.yul\":8598:8615   */\n      add\n        /* \"#utility.yul\":8594:8621   */\n      slt\n        /* \"#utility.yul\":8584:8706   */\n      tag_184\n      jumpi\n        /* \"#utility.yul\":8625:8704   */\n      tag_185\n      tag_78\n      jump\t// in\n    tag_185:\n        /* \"#utility.yul\":8584:8706   */\n    tag_184:\n        /* \"#utility.yul\":8742:8748   */\n      dup2\n        /* \"#utility.yul\":8729:8749   */\n      calldataload\n        /* \"#utility.yul\":8767:8846   */\n      tag_186\n        /* \"#utility.yul\":8842:8845   */\n      dup5\n        /* \"#utility.yul\":8834:8840   */\n      dup3\n        /* \"#utility.yul\":8827:8831   */\n      0x20\n        /* \"#utility.yul\":8819:8825   */\n      dup7\n        /* \"#utility.yul\":8815:8832   */\n      add\n        /* \"#utility.yul\":8767:8846   */\n      tag_84\n      jump\t// in\n    tag_186:\n        /* \"#utility.yul\":8758:8846   */\n      swap2\n      pop\n        /* \"#utility.yul\":8574:8852   */\n      pop\n        /* \"#utility.yul\":8512:8852   */\n      swap3\n      swap2\n      pop\n      pop\n      jump\t// out\n        /* \"#utility.yul\":8858:10179   */\n    tag_18:\n        /* \"#utility.yul\":8982:8988   */\n      0x00\n        /* \"#utility.yul\":8990:8996   */\n      dup1\n        /* \"#utility.yul\":8998:9004   */\n      0x00\n        /* \"#utility.yul\":9006:9012   */\n      dup1\n        /* \"#utility.yul\":9055:9058   */\n      0x80\n        /* \"#utility.yul\":9043:9052   */\n      dup6\n        /* \"#utility.yul\":9034:9041   */\n      dup8\n        /* \"#utility.yul\":9030:9053   */\n      sub\n        /* \"#utility.yul\":9026:9059   */\n      slt\n        /* \"#utility.yul\":9023:9143   */\n      iszero\n      tag_188\n      jumpi\n        /* \"#utility.yul\":9062:9141   */\n      tag_189\n      tag_58\n      jump\t// in\n    tag_189:\n        /* \"#utility.yul\":9023:9143   */\n    tag_188:\n        /* \"#utility.yul\":9182:9183   */\n      0x00\n        /* \"#utility.yul\":9207:9268   */\n      tag_190\n        /* \"#utility.yul\":9260:9267   */\n      dup8\n        /* \"#utility.yul\":9251:9257   */\n      dup3\n        /* \"#utility.yul\":9240:9249   */\n      dup9\n        /* \"#utility.yul\":9236:9258   */\n      add\n        /* \"#utility.yul\":9207:9268   */\n      tag_63\n      jump\t// in\n    tag_190:\n        /* \"#utility.yul\":9197:9268   */\n      swap5\n      pop\n        /* \"#utility.yul\":9153:9278   */\n      pop\n        /* \"#utility.yul\":9345:9347   */\n      0x20\n        /* \"#utility.yul\":9334:9343   */\n      dup6\n        /* \"#utility.yul\":9330:9348   */\n      add\n        /* \"#utility.yul\":9317:9349   */\n      calldataload\n        /* \"#utility.yul\":9376:9394   */\n      0xffffffffffffffff\n        /* \"#utility.yul\":9368:9374   */\n      dup2\n        /* \"#utility.yul\":9365:9395   */\n      gt\n        /* \"#utility.yul\":9362:9479   */\n      iszero\n      tag_191\n      jumpi\n        /* \"#utility.yul\":9398:9477   */\n      tag_192\n      tag_59\n      jump\t// in\n    tag_192:\n        /* \"#utility.yul\":9362:9479   */\n    tag_191:\n        /* \"#utility.yul\":9503:9566   */\n      tag_193\n        /* \"#utility.yul\":9558:9565   */\n      dup8\n        /* \"#utility.yul\":9549:9555   */\n      dup3\n        /* \"#utility.yul\":9538:9547   */\n      dup9\n        /* \"#utility.yul\":9534:9556   */\n      add\n        /* \"#utility.yul\":9503:9566   */\n      tag_85\n      jump\t// in\n    tag_193:\n        /* \"#utility.yul\":9493:9566   */\n      swap4\n      pop\n        /* \"#utility.yul\":9288:9576   */\n      pop\n        /* \"#utility.yul\":9643:9645   */\n      0x40\n        /* \"#utility.yul\":9632:9641   */\n      dup6\n        /* \"#utility.yul\":9628:9646   */\n      add\n        /* \"#utility.yul\":9615:9647   */\n      calldataload\n        /* \"#utility.yul\":9674:9692   */\n      0xffffffffffffffff\n        /* \"#utility.yul\":9666:9672   */\n      dup2\n        /* \"#utility.yul\":9663:9693   */\n      gt\n        /* \"#utility.yul\":9660:9777   */\n      iszero\n      tag_194\n      jumpi\n        /* \"#utility.yul\":9696:9775   */\n      tag_195\n      tag_59\n      jump\t// in\n    tag_195:\n        /* \"#utility.yul\":9660:9777   */\n    tag_194:\n        /* \"#utility.yul\":9801:9864   */\n      tag_196\n        /* \"#utility.yul\":9856:9863   */\n      dup8\n        /* \"#utility.yul\":9847:9853   */\n      dup3\n        /* \"#utility.yul\":9836:9845   */\n      dup9\n        /* \"#utility.yul\":9832:9854   */\n      add\n        /* \"#utility.yul\":9801:9864   */\n      tag_85\n      jump\t// in\n    tag_196:\n        /* \"#utility.yul\":9791:9864   */\n      swap3\n      pop\n        /* \"#utility.yul\":9586:9874   */\n      pop\n        /* \"#utility.yul\":9941:9943   */\n      0x60\n        /* \"#utility.yul\":9930:9939   */\n      dup6\n        /* \"#utility.yul\":9926:9944   */\n      add\n        /* \"#utility.yul\":9913:9945   */\n      calldataload\n        /* \"#utility.yul\":9972:9990   */\n      0xffffffffffffffff\n        /* \"#utility.yul\":9964:9970   */\n      dup2\n        /* \"#utility.yul\":9961:9991   */\n      gt\n        /* \"#utility.yul\":9958:10075   */\n      iszero\n      tag_197\n      jumpi\n        /* \"#utility.yul\":9994:10073   */\n      tag_198\n      tag_59\n      jump\t// in\n    tag_198:\n        /* \"#utility.yul\":9958:10075   */\n    tag_197:\n        /* \"#utility.yul\":10099:10162   */\n      tag_199\n        /* \"#utility.yul\":10154:10161   */\n      dup8\n        /* \"#utility.yul\":10145:10151   */\n      dup3\n        /* \"#utility.yul\":10134:10143   */\n      dup9\n        /* \"#utility.yul\":10130:10152   */\n      add\n        /* \"#utility.yul\":10099:10162   */\n      tag_85\n      jump\t// in\n    tag_199:\n        /* \"#utility.yul\":10089:10162   */\n      swap2\n      pop\n        /* \"#utility.yul\":9884:10172   */\n      pop\n        /* \"#utility.yul\":8858:10179   */\n      swap3\n      swap6\n      swap2\n      swap5\n      pop\n      swap3\n      pop\n      jump\t// out\n        /* \"#utility.yul\":10185:10365   */\n    tag_86:\n        /* \"#utility.yul\":10233:10310   */\n      0x4e487b7100000000000000000000000000000000000000000000000000000000\n        /* \"#utility.yul\":10230:10231   */\n      0x00\n        /* \"#utility.yul\":10223:10311   */\n      mstore\n        /* \"#utility.yul\":10330:10334   */\n      0x22\n        /* \"#utility.yul\":10327:10328   */\n      0x04\n        /* \"#utility.yul\":10320:10335   */\n      mstore\n        /* \"#utility.yul\":10354:10358   */\n      0x24\n        /* \"#utility.yul\":10351:10352   */\n      0x00\n        /* \"#utility.yul\":10344:10359   */\n      revert\n        /* \"#utility.yul\":10371:10691   */\n    tag_30:\n        /* \"#utility.yul\":10415:10421   */\n      0x00\n        /* \"#utility.yul\":10452:10453   */\n      0x02\n        /* \"#utility.yul\":10446:10450   */\n      dup3\n        /* \"#utility.yul\":10442:10454   */\n      div\n        /* \"#utility.yul\":10432:10454   */\n      swap1\n      pop\n        /* \"#utility.yul\":10499:10500   */\n      0x01\n        /* \"#utility.yul\":10493:10497   */\n      dup3\n        /* \"#utility.yul\":10489:10501   */\n      and\n        /* \"#utility.yul\":10520:10538   */\n      dup1\n        /* \"#utility.yul\":10510:10591   */\n      tag_202\n      jumpi\n        /* \"#utility.yul\":10576:10580   */\n      0x7f\n        /* \"#utility.yul\":10568:10574   */\n      dup3\n        /* \"#utility.yul\":10564:10581   */\n      and\n        /* \"#utility.yul\":10554:10581   */\n      swap2\n      pop\n        /* \"#utility.yul\":10510:10591   */\n    tag_202:\n        /* \"#utility.yul\":10638:10640   */\n      0x20\n        /* \"#utility.yul\":10630:10636   */\n      dup3\n        /* \"#utility.yul\":10627:10641   */\n      lt\n        /* \"#utility.yul\":10607:10625   */\n      dup2\n        /* \"#utility.yul\":10604:10642   */\n      sub\n        /* \"#utility.yul\":10601:10685   */\n      tag_203\n      jumpi\n        /* \"#utility.yul\":10657:10675   */\n      tag_204\n      tag_86\n      jump\t// in\n    tag_204:\n        /* \"#utility.yul\":10601:10685   */\n    tag_203:\n        /* \"#utility.yul\":10422:10691   */\n      pop\n        /* \"#utility.yul\":10371:10691   */\n      swap2\n      swap1\n      pop\n      jump\t// out\n        /* \"#utility.yul\":10697:10877   */\n    tag_47:\n        /* \"#utility.yul\":10745:10822   */\n      0x4e487b7100000000000000000000000000000000000000000000000000000000\n        /* \"#utility.yul\":10742:10743   */\n      0x00\n        /* \"#utility.yul\":10735:10823   */\n      mstore\n        /* \"#utility.yul\":10842:10846   */\n      0x32\n        /* \"#utility.yul\":10839:10840   */\n      0x04\n        /* \"#utility.yul\":10832:10847   */\n      mstore\n        /* \"#utility.yul\":10866:10870   */\n      0x24\n        /* \"#utility.yul\":10863:10864   */\n      0x00\n        /* \"#utility.yul\":10856:10871   */\n      revert\n        /* \"#utility.yul\":10883:11063   */\n    tag_87:\n        /* \"#utility.yul\":10931:11008   */\n      0x4e487b7100000000000000000000000000000000000000000000000000000000\n        /* \"#utility.yul\":10928:10929   */\n      0x00\n        /* \"#utility.yul\":10921:11009   */\n      mstore\n        /* \"#utility.yul\":11028:11032   */\n      0x11\n        /* \"#utility.yul\":11025:11026   */\n      0x04\n        /* \"#utility.yul\":11018:11033   */\n      mstore\n        /* \"#utility.yul\":11052:11056   */\n      0x24\n        /* \"#utility.yul\":11049:11050   */\n      0x00\n        /* \"#utility.yul\":11042:11057   */\n      revert\n        /* \"#utility.yul\":11069:11260   */\n    tag_50:\n        /* \"#utility.yul\":11109:11112   */\n      0x00\n        /* \"#utility.yul\":11128:11148   */\n      tag_208\n        /* \"#utility.yul\":11146:11147   */\n      dup3\n        /* \"#utility.yul\":11128:11148   */\n      tag_55\n      jump\t// in\n    tag_208:\n        /* \"#utility.yul\":11123:11148   */\n      swap2\n      pop\n        /* \"#utility.yul\":11162:11182   */\n      tag_209\n        /* \"#utility.yul\":11180:11181   */\n      dup4\n        /* \"#utility.yul\":11162:11182   */\n      tag_55\n      jump\t// in\n    tag_209:\n        /* \"#utility.yul\":11157:11182   */\n      swap3\n      pop\n        /* \"#utility.yul\":11205:11206   */\n      dup3\n        /* \"#utility.yul\":11202:11203   */\n      dup3\n        /* \"#utility.yul\":11198:11207   */\n      add\n        /* \"#utility.yul\":11191:11207   */\n      swap1\n      pop\n        /* \"#utility.yul\":11226:11229   */\n      dup1\n        /* \"#utility.yul\":11223:11224   */\n      dup3\n        /* \"#utility.yul\":11220:11230   */\n      gt\n        /* \"#utility.yul\":11217:11253   */\n      iszero\n      tag_210\n      jumpi\n        /* \"#utility.yul\":11233:11251   */\n      tag_211\n      tag_87\n      jump\t// in\n    tag_211:\n        /* \"#utility.yul\":11217:11253   */\n    tag_210:\n        /* \"#utility.yul\":11069:11260   */\n      swap3\n      swap2\n      pop\n      pop\n      jump\t// out\n        /* \"#utility.yul\":11266:11407   */\n    tag_88:\n        /* \"#utility.yul\":11315:11319   */\n      0x00\n        /* \"#utility.yul\":11338:11341   */\n      dup2\n        /* \"#utility.yul\":11330:11341   */\n      swap1\n      pop\n        /* \"#utility.yul\":11361:11364   */\n      dup2\n        /* \"#utility.yul\":11358:11359   */\n      0x00\n        /* \"#utility.yul\":11351:11365   */\n      mstore\n        /* \"#utility.yul\":11395:11399   */\n      0x20\n        /* \"#utility.yul\":11392:11393   */\n      0x00\n        /* \"#utility.yul\":11382:11400   */\n      keccak256\n        /* \"#utility.yul\":11374:11400   */\n      swap1\n      pop\n        /* \"#utility.yul\":11266:11407   */\n      swap2\n      swap1\n      pop\n      jump\t// out\n        /* \"#utility.yul\":11413:11506   */\n    tag_89:\n        /* \"#utility.yul\":11450:11456   */\n      0x00\n        /* \"#utility.yul\":11497:11499   */\n      0x20\n        /* \"#utility.yul\":11492:11494   */\n      0x1f\n        /* \"#utility.yul\":11485:11490   */\n      dup4\n        /* \"#utility.yul\":11481:11495   */\n      add\n        /* \"#utility.yul\":11477:11500   */\n      div\n        /* \"#utility.yul\":11467:11500   */\n      swap1\n      pop\n        /* \"#utility.yul\":11413:11506   */\n      swap2\n      swap1\n      pop\n      jump\t// out\n        /* \"#utility.yul\":11512:11619   */\n    tag_90:\n        /* \"#utility.yul\":11556:11564   */\n      0x00\n        /* \"#utility.yul\":11606:11611   */\n      dup3\n        /* \"#utility.yul\":11600:11604   */\n      dup3\n        /* \"#utility.yul\":11596:11612   */\n      shl\n        /* \"#utility.yul\":11575:11612   */\n      swap1\n      pop\n        /* \"#utility.yul\":11512:11619   */\n      swap3\n      swap2\n      pop\n      pop\n      jump\t// out\n        /* \"#utility.yul\":11625:12018   */\n    tag_91:\n        /* \"#utility.yul\":11694:11700   */\n      0x00\n        /* \"#utility.yul\":11744:11745   */\n      0x08\n        /* \"#utility.yul\":11732:11742   */\n      dup4\n        /* \"#utility.yul\":11728:11746   */\n      mul\n        /* \"#utility.yul\":11767:11864   */\n      tag_216\n        /* \"#utility.yul\":11797:11863   */\n      0xffffffffffffffffffffffffffffffffffffffffffffffffffffffffffffffff\n        /* \"#utility.yul\":11786:11795   */\n      dup3\n        /* \"#utility.yul\":11767:11864   */\n      tag_90\n      jump\t// in\n    tag_216:\n        /* \"#utility.yul\":11885:11924   */\n      tag_217\n        /* \"#utility.yul\":11915:11923   */\n      dup7\n        /* \"#utility.yul\":11904:11913   */\n      dup4\n        /* \"#utility.yul\":11885:11924   */\n      tag_90\n      jump\t// in\n    tag_217:\n        /* \"#utility.yul\":11873:11924   */\n      swap6\n      pop\n        /* \"#utility.yul\":11957:11961   */\n      dup1\n        /* \"#utility.yul\":11953:11962   */\n      not\n        /* \"#utility.yul\":11946:11951   */\n      dup5\n        /* \"#utility.yul\":11942:11963   */\n      and\n        /* \"#utility.yul\":11933:11963   */\n      swap4\n      pop\n        /* \"#utility.yul\":12006:12010   */\n      dup1\n        /* \"#utility.yul\":11996:12004   */\n      dup7\n        /* \"#utility.yul\":11992:12011   */\n      and\n        /* \"#utility.yul\":11985:11990   */\n      dup5\n        /* \"#utility.yul\":11982:12012   */\n      or\n        /* \"#utility.yul\":11972:12012   */\n      swap3\n      pop\n        /* \"#utility.yul\":11701:12018   */\n      pop\n      pop\n        /* \"#utility.yul\":11625:12018   */\n      swap4\n      swap3\n      pop\n      pop\n      pop\n      jump\t// out\n        /* \"#utility.yul\":12024:12084   */\n    tag_92:\n        /* \"#utility.yul\":12052:12055   */\n      0x00\n        /* \"#utility.yul\":12073:12078   */\n      dup2\n        /* \"#utility.yul\":12066:12078   */\n      swap1\n      pop\n        /* \"#utility.yul\":12024:12084   */\n      swap2\n      swap1\n      pop\n      jump\t// out\n        /* \"#utility.yul\":12090:12232   */\n    tag_93:\n        /* \"#utility.yul\":12140:12149   */\n      0x00\n        /* \"#utility.yul\":12173:12226   */\n      tag_220\n        /* \"#utility.yul\":12191:12225   */\n      tag_221\n        /* \"#utility.yul\":12200:12224   */\n      tag_222\n        /* \"#utility.yul\":12218:12223   */\n      dup5\n        /* \"#utility.yul\":12200:12224   */\n      tag_55\n      jump\t// in\n    tag_222:\n        /* \"#utility.yul\":12191:12225   */\n      tag_92\n      jump\t// in\n    tag_221:\n        /* \"#utility.yul\":12173:12226   */\n      tag_55\n      jump\t// in\n    tag_220:\n        /* \"#utility.yul\":12160:12226   */\n      swap1\n      pop\n        /* \"#utility.yul\":12090:12232   */\n      swap2\n      swap1\n      pop\n      jump\t// out\n        /* \"#utility.yul\":12238:12313   */\n    tag_94:\n        /* \"#utility.yul\":12281:12284   */\n      0x00\n        /* \"#utility.yul\":12302:12307   */\n      dup2\n        /* \"#utility.yul\":12295:12307   */\n      swap1\n      pop\n        /* \"#utility.yul\":12238:12313   */\n      swap2\n      swap1\n      pop\n      jump\t// out\n        /* \"#utility.yul\":12319:12588   */\n    tag_95:\n        /* \"#utility.yul\":12429:12468   */\n      tag_225\n        /* \"#utility.yul\":12460:12467   */\n      dup4\n        /* \"#utility.yul\":12429:12468   */\n      tag_93\n      jump\t// in\n    tag_225:\n        /* \"#utility.yul\":12490:12581   */\n      tag_226\n        /* \"#utility.yul\":12539:12580   */\n      tag_227\n        /* \"#utility.yul\":12563:12579   */\n      dup3\n        /* \"#utility.yul\":12539:12580   */\n      tag_94\n      jump\t// in\n    tag_227:\n        /* \"#utility.yul\":12531:12537   */\n      dup5\n        /* \"#utility.yul\":12524:12528   */\n      dup5\n        /* \"#utility.yul\":12518:12529   */\n      sload\n        /* \"#utility.yul\":12490:12581   */\n      tag_91\n      jump\t// in\n    tag_226:\n        /* \"#utility.yul\":12484:12488   */\n      dup3\n        /* \"#utility.yul\":12477:12582   */\n      sstore\n        /* \"#utility.yul\":12395:12588   */\n      pop\n        /* \"#utility.yul\":12319:12588   */\n      pop\n      pop\n      pop\n      jump\t// out\n        /* \"#utility.yul\":12594:12667   */\n    tag_96:\n        /* \"#utility.yul\":12639:12642   */\n      0x00\n        /* \"#utility.yul\":12594:12667   */\n      swap1\n      jump\t// out\n        /* \"#utility.yul\":12673:12862   */\n    tag_97:\n        /* \"#utility.yul\":12750:12782   */\n      tag_230\n      tag_96\n      jump\t// in\n    tag_230:\n        /* \"#utility.yul\":12791:12856   */\n      tag_231\n        /* \"#utility.yul\":12849:12855   */\n      dup2\n        /* \"#utility.yul\":12841:12847   */\n      dup5\n        /* \"#utility.yul\":12835:12839   */\n      dup5\n        /* \"#utility.yul\":12791:12856   */\n      tag_95\n      jump\t// in\n    tag_231:\n        /* \"#utility.yul\":12726:12862   */\n      pop\n        /* \"#utility.yul\":12673:12862   */\n      pop\n      pop\n      jump\t// out\n        /* \"#utility.yul\":12868:13054   */\n    tag_98:\n        /* \"#utility.yul\":12928:13048   */\n    tag_233:\n        /* \"#utility.yul\":12945:12948   */\n      dup2\n        /* \"#utility.yul\":12938:12943   */\n      dup2\n        /* \"#utility.yul\":12935:12949   */\n      lt\n        /* \"#utility.yul\":12928:13048   */\n      iszero\n      tag_235\n      jumpi\n        /* \"#utility.yul\":12999:13038   */\n      tag_236\n        /* \"#utility.yul\":13036:13037   */\n      0x00\n        /* \"#utility.yul\":13029:13034   */\n      dup3\n        /* \"#utility.yul\":12999:13038   */\n      tag_97\n      jump\t// in\n    tag_236:\n        /* \"#utility.yul\":12972:12973   */\n      0x01\n        /* \"#utility.yul\":12965:12970   */\n      dup2\n        /* \"#utility.yul\":12961:12974   */\n      add\n        /* \"#utility.yul\":12952:12974   */\n      swap1\n      pop\n        /* \"#utility.yul\":12928:13048   */\n      jump(tag_233)\n    tag_235:\n        /* \"#utility.yul\":12868:13054   */\n      pop\n      pop\n      jump\t// out\n        /* \"#utility.yul\":13060:13603   */\n    tag_99:\n        /* \"#utility.yul\":13161:13163   */\n      0x1f\n        /* \"#utility.yul\":13156:13159   */\n      dup3\n        /* \"#utility.yul\":13153:13164   */\n      gt\n        /* \"#utility.yul\":13150:13596   */\n      iszero\n      tag_238\n      jumpi\n        /* \"#utility.yul\":13195:13233   */\n      tag_239\n        /* \"#utility.yul\":13227:13232   */\n      dup2\n        /* \"#utility.yul\":13195:13233   */\n      tag_88\n      jump\t// in\n    tag_239:\n        /* \"#utility.yul\":13279:13308   */\n      tag_240\n        /* \"#utility.yul\":13297:13307   */\n      dup5\n        /* \"#utility.yul\":13279:13308   */\n      tag_89\n      jump\t// in\n    tag_240:\n        /* \"#utility.yul\":13269:13277   */\n      dup2\n        /* \"#utility.yul\":13265:13309   */\n      add\n        /* \"#utility.yul\":13462:13464   */\n      0x20\n        /* \"#utility.yul\":13450:13460   */\n      dup6\n        /* \"#utility.yul\":13447:13465   */\n      lt\n        /* \"#utility.yul\":13444:13493   */\n      iszero\n      tag_241\n      jumpi\n        /* \"#utility.yul\":13483:13491   */\n      dup2\n        /* \"#utility.yul\":13468:13491   */\n      swap1\n      pop\n        /* \"#utility.yul\":13444:13493   */\n    tag_241:\n        /* \"#utility.yul\":13506:13586   */\n      tag_242\n        /* \"#utility.yul\":13562:13584   */\n      tag_243\n        /* \"#utility.yul\":13580:13583   */\n      dup6\n        /* \"#utility.yul\":13562:13584   */\n      tag_89\n      jump\t// in\n    tag_243:\n        /* \"#utility.yul\":13552:13560   */\n      dup4\n        /* \"#utility.yul\":13548:13585   */\n      add\n        /* \"#utility.yul\":13535:13546   */\n      dup3\n        /* \"#utility.yul\":13506:13586   */\n      tag_98\n      jump\t// in\n    tag_242:\n        /* \"#utility.yul\":13165:13596   */\n      pop\n      pop\n        /* \"#utility.yul\":13150:13596   */\n    tag_238:\n        /* \"#utility.yul\":13060:13603   */\n      pop\n      pop\n      pop\n      jump\t// out\n        /* \"#utility.yul\":13609:13726   */\n    tag_100:\n        /* \"#utility.yul\":13663:13671   */\n      0x00\n        /* \"#utility.yul\":13713:13718   */\n      dup3\n        /* \"#utility.yul\":13707:13711   */\n      dup3\n        /* \"#utility.yul\":13703:13719   */\n      shr\n        /* \"#utility.yul\":13682:13719   */\n      swap1\n      pop\n        /* \"#utility.yul\":13609:13726   */\n      swap3\n      swap2\n      pop\n      pop\n      jump\t// out\n        /* \"#utility.yul\":13732:13901   */\n    tag_101:\n        /* \"#utility.yul\":13776:13782   */\n      0x00\n        /* \"#utility.yul\":13809:13860   */\n      tag_246\n        /* \"#utility.yul\":13857:13858   */\n      0x00\n        /* \"#utility.yul\":13853:13859   */\n      not\n        /* \"#utility.yul\":13845:13850   */\n      dup5\n        /* \"#utility.yul\":13842:13843   */\n      0x08\n        /* \"#utility.yul\":13838:13851   */\n      mul\n        /* \"#utility.yul\":13809:13860   */\n      tag_100\n      jump\t// in\n    tag_246:\n        /* \"#utility.yul\":13805:13861   */\n      not\n        /* \"#utility.yul\":13890:13894   */\n      dup1\n        /* \"#utility.yul\":13884:13888   */\n      dup4\n        /* \"#utility.yul\":13880:13895   */\n      and\n        /* \"#utility.yul\":13870:13895   */\n      swap2\n      pop\n        /* \"#utility.yul\":13783:13901   */\n      pop\n        /* \"#utility.yul\":13732:13901   */\n      swap3\n      swap2\n      pop\n      pop\n      jump\t// out\n        /* \"#utility.yul\":13906:14201   */\n    tag_102:\n        /* \"#utility.yul\":13982:13986   */\n      0x00\n        /* \"#utility.yul\":14128:14157   */\n      tag_248\n        /* \"#utility.yul\":14153:14156   */\n      dup4\n        /* \"#utility.yul\":14147:14151   */\n      dup4\n        /* \"#utility.yul\":14128:14157   */\n      tag_101\n      jump\t// in\n    tag_248:\n        /* \"#utility.yul\":14120:14157   */\n      swap2\n      pop\n        /* \"#utility.yul\":14190:14193   */\n      dup3\n        /* \"#utility.yul\":14187:14188   */\n      0x02\n        /* \"#utility.yul\":14183:14194   */\n      mul\n        /* \"#utility.yul\":14177:14181   */\n      dup3\n        /* \"#utility.yul\":14174:14195   */\n      or\n        /* \"#utility.yul\":14166:14195   */\n      swap1\n      pop\n        /* \"#utility.yul\":13906:14201   */\n      swap3\n      swap2\n      pop\n      pop\n      jump\t// out\n        /* \"#utility.yul\":14206:15601   */\n    tag_52:\n        /* \"#utility.yul\":14323:14360   */\n      tag_250\n        /* \"#utility.yul\":14356:14359   */\n      dup3\n        /* \"#utility.yul\":14323:14360   */\n      tag_69\n      jump\t// in\n    tag_250:\n        /* \"#utility.yul\":14425:14443   */\n      0xffffffffffffffff\n        /* \"#utility.yul\":14417:14423   */\n      dup2\n        /* \"#utility.yul\":14414:14444   */\n      gt\n        /* \"#utility.yul\":14411:14467   */\n      iszero\n      tag_251\n      jumpi\n        /* \"#utility.yul\":14447:14465   */\n      tag_252\n      tag_24\n      jump\t// in\n    tag_252:\n        /* \"#utility.yul\":14411:14467   */\n    tag_251:\n        /* \"#utility.yul\":14491:14529   */\n      tag_253\n        /* \"#utility.yul\":14523:14527   */\n      dup3\n        /* \"#utility.yul\":14517:14528   */\n      sload\n        /* \"#utility.yul\":14491:14529   */\n      tag_30\n      jump\t// in\n    tag_253:\n        /* \"#utility.yul\":14576:14643   */\n      tag_254\n        /* \"#utility.yul\":14636:14642   */\n      dup3\n        /* \"#utility.yul\":14628:14634   */\n      dup3\n        /* \"#utility.yul\":14622:14626   */\n      dup6\n        /* \"#utility.yul\":14576:14643   */\n      tag_99\n      jump\t// in\n    tag_254:\n        /* \"#utility.yul\":14670:14671   */\n      0x00\n        /* \"#utility.yul\":14694:14698   */\n      0x20\n        /* \"#utility.yul\":14681:14698   */\n      swap1\n      pop\n        /* \"#utility.yul\":14726:14728   */\n      0x1f\n        /* \"#utility.yul\":14718:14724   */\n      dup4\n        /* \"#utility.yul\":14715:14729   */\n      gt\n        /* \"#utility.yul\":14743:14744   */\n      0x01\n        /* \"#utility.yul\":14738:15356   */\n      dup2\n      eq\n      tag_256\n      jumpi\n        /* \"#utility.yul\":15400:15401   */\n      0x00\n        /* \"#utility.yul\":15417:15423   */\n      dup5\n        /* \"#utility.yul\":15414:15491   */\n      iszero\n      tag_257\n      jumpi\n        /* \"#utility.yul\":15466:15475   */\n      dup3\n        /* \"#utility.yul\":15461:15464   */\n      dup8\n        /* \"#utility.yul\":15457:15476   */\n      add\n        /* \"#utility.yul\":15451:15477   */\n      mload\n        /* \"#utility.yul\":15442:15477   */\n      swap1\n      pop\n        /* \"#utility.yul\":15414:15491   */\n    tag_257:\n        /* \"#utility.yul\":15517:15584   */\n      tag_258\n        /* \"#utility.yul\":15577:15583   */\n      dup6\n        /* \"#utility.yul\":15570:15575   */\n      dup3\n        /* \"#utility.yul\":15517:15584   */\n      tag_102\n      jump\t// in\n    tag_258:\n        /* \"#utility.yul\":15511:15515   */\n      dup7\n        /* \"#utility.yul\":15504:15585   */\n      sstore\n        /* \"#utility.yul\":15373:15595   */\n      pop\n        /* \"#utility.yul\":14708:15595   */\n      jump(tag_255)\n        /* \"#utility.yul\":14738:15356   */\n    tag_256:\n        /* \"#utility.yul\":14790:14794   */\n      0x1f\n        /* \"#utility.yul\":14786:14795   */\n      not\n        /* \"#utility.yul\":14778:14784   */\n      dup5\n        /* \"#utility.yul\":14774:14796   */\n      and\n        /* \"#utility.yul\":14824:14861   */\n      tag_259\n        /* \"#utility.yul\":14856:14860   */\n      dup7\n        /* \"#utility.yul\":14824:14861   */\n      tag_88\n      jump\t// in\n    tag_259:\n        /* \"#utility.yul\":14883:14884   */\n      0x00\n        /* \"#utility.yul\":14897:15105   */\n    tag_260:\n        /* \"#utility.yul\":14911:14918   */\n      dup3\n        /* \"#utility.yul\":14908:14909   */\n      dup2\n        /* \"#utility.yul\":14905:14919   */\n      lt\n        /* \"#utility.yul\":14897:15105   */\n      iszero\n      tag_262\n      jumpi\n        /* \"#utility.yul\":14990:14999   */\n      dup5\n        /* \"#utility.yul\":14985:14988   */\n      dup10\n        /* \"#utility.yul\":14981:15000   */\n      add\n        /* \"#utility.yul\":14975:15001   */\n      mload\n        /* \"#utility.yul\":14967:14973   */\n      dup3\n        /* \"#utility.yul\":14960:15002   */\n      sstore\n        /* \"#utility.yul\":15041:15042   */\n      0x01\n        /* \"#utility.yul\":15033:15039   */\n      dup3\n        /* \"#utility.yul\":15029:15043   */\n      add\n        /* \"#utility.yul\":15019:15043   */\n      swap2\n      pop\n        /* \"#utility.yul\":15088:15090   */\n      0x20\n        /* \"#utility.yul\":15077:15086   */\n      dup6\n        /* \"#utility.yul\":15073:15091   */\n      add\n        /* \"#utility.yul\":15060:15091   */\n      swap5\n      pop\n        /* \"#utility.yul\":14934:14938   */\n      0x20\n        /* \"#utility.yul\":14931:14932   */\n      dup2\n        /* \"#utility.yul\":14927:14939   */\n      add\n        /* \"#utility.yul\":14922:14939   */\n      swap1\n      pop\n        /* \"#utility.yul\":14897:15105   */\n      jump(tag_260)\n    tag_262:\n        /* \"#utility.yul\":15133:15139   */\n      dup7\n        /* \"#utility.yul\":15124:15131   */\n      dup4\n        /* \"#utility.yul\":15121:15140   */\n      lt\n        /* \"#utility.yul\":15118:15297   */\n      iszero\n      tag_263\n      jumpi\n        /* \"#utility.yul\":15191:15200   */\n      dup5\n        /* \"#utility.yul\":15186:15189   */\n      dup10\n        /* \"#utility.yul\":15182:15201   */\n      add\n        /* \"#utility.yul\":15176:15202   */\n      mload\n        /* \"#utility.yul\":15234:15282   */\n      tag_264\n        /* \"#utility.yul\":15276:15280   */\n      0x1f\n        /* \"#utility.yul\":15268:15274   */\n      dup10\n        /* \"#utility.yul\":15264:15281   */\n      and\n        /* \"#utility.yul\":15253:15262   */\n      dup3\n        /* \"#utility.yul\":15234:15282   */\n      tag_101\n      jump\t// in\n    tag_264:\n        /* \"#utility.yul\":15226:15232   */\n      dup4\n        /* \"#utility.yul\":15219:15283   */\n      sstore\n        /* \"#utility.yul\":15141:15297   */\n      pop\n        /* \"#utility.yul\":15118:15297   */\n    tag_263:\n        /* \"#utility.yul\":15343:15344   */\n      0x01\n        /* \"#utility.yul\":15339:15340   */\n      0x02\n        /* \"#utility.yul\":15331:15337   */\n      dup9\n        /* \"#utility.yul\":15327:15341   */\n      mul\n        /* \"#utility.yul\":15323:15345   */\n      add\n        /* \"#utility.yul\":15317:15321   */\n      dup9\n        /* \"#utility.yul\":15310:15346   */\n      sstore\n        /* \"#utility.yul\":14745:15356   */\n      pop\n      pop\n      pop\n        /* \"#utility.yul\":14708:15595   */\n    tag_255:\n      pop\n        /* \"#utility.yul\":14298:15601   */\n      pop\n      pop\n      pop\n        /* \"#utility.yul\":14206:15601   */\n      pop\n      pop\n      jump\t// out\n\n    auxdata: 0xa2646970667358221220dff1a996299540ee9fd7403298cf48e269eae321e06a0d921c27626292fb22fe64736f6c63430008110033\n}\n",
				"bytecode": {
					"linkReferences": {},
					"object": "608060405234801561001057600080fd5b50610d60806100206000396000f3fe608060405234801561001057600080fd5b50600436106100415760003560e01c80632e7700f0146100465780636386c1c7146100645780638872193114610094575b600080fd5b61004e6100b0565b60405161005b919061050a565b60405180910390f35b61007e60048036038101906100799190610597565b6100b9565b60405161008b91906107a8565b60405180910390f35b6100ae60048036038101906100a991906108ff565b610392565b005b60008054905090565b60606000600167ffffffffffffffff8111156100d8576100d76107d4565b5b60405190808252806020026020018201604052801561011157816020015b6100fe6104b3565b8152602001906001900390816100f65790505b509050600160008473ffffffffffffffffffffffffffffffffffffffff1673ffffffffffffffffffffffffffffffffffffffff1681526020019081526020016000206040518060800160405290816000820160009054906101000a900473ffffffffffffffffffffffffffffffffffffffff1673ffffffffffffffffffffffffffffffffffffffff1673ffffffffffffffffffffffffffffffffffffffff1681526020016001820180546101c4906109e9565b80601f01602080910402602001604051908101604052809291908181526020018280546101f0906109e9565b801561023d5780601f106102125761010080835404028352916020019161023d565b820191906000526020600020905b81548152906001019060200180831161022057829003601f168201915b50505050508152602001600282018054610256906109e9565b80601f0160208091040260200160405190810160405280929190818152602001828054610282906109e9565b80156102cf5780601f106102a4576101008083540402835291602001916102cf565b820191906000526020600020905b8154815290600101906020018083116102b257829003601f168201915b505050505081526020016003820180546102e8906109e9565b80601f0160208091040260200160405190810160405280929190818152602001828054610314906109e9565b80156103615780601f1061033657610100808354040283529160200191610361565b820191906000526020600020905b81548152906001019060200180831161034457829003601f168201915b5050505050815250508160008151811061037e5761037d610a1a565b5b602002602001018190525080915050919050565b60016000808282546103a49190610a78565b9250508190555060405180608001604052808573ffffffffffffffffffffffffffffffffffffffff16815260200184815260200183815260200182815250600160008673ffffffffffffffffffffffffffffffffffffffff1673ffffffffffffffffffffffffffffffffffffffff16815260200190815260200160002060008201518160000160006101000a81548173ffffffffffffffffffffffffffffffffffffffff021916908373ffffffffffffffffffffffffffffffffffffffff160217905550602082015181600101908161047d9190610c58565b5060408201518160020190816104939190610c58565b5060608201518160030190816104a99190610c58565b5090505050505050565b6040518060800160405280600073ffffffffffffffffffffffffffffffffffffffff1681526020016060815260200160608152602001606081525090565b6000819050919050565b610504816104f1565b82525050565b600060208201905061051f60008301846104fb565b92915050565b6000604051905090565b600080fd5b600080fd5b600073ffffffffffffffffffffffffffffffffffffffff82169050919050565b600061056482610539565b9050919050565b61057481610559565b811461057f57600080fd5b50565b6000813590506105918161056b565b92915050565b6000602082840312156105ad576105ac61052f565b5b60006105bb84828501610582565b91505092915050565b600081519050919050565b600082825260208201905092915050565b6000819050602082019050919050565b60006105fb82610539565b9050919050565b61060b816105f0565b82525050565b600081519050919050565b600082825260208201905092915050565b60005b8381101561064b578082015181840152602081019050610630565b60008484015250505050565b6000601f19601f8301169050919050565b600061067382610611565b61067d818561061c565b935061068d81856020860161062d565b61069681610657565b840191505092915050565b60006080830160008301516106b96000860182610602565b50602083015184820360208601526106d18282610668565b915050604083015184820360408601526106eb8282610668565b915050606083015184820360608601526107058282610668565b9150508091505092915050565b600061071e83836106a1565b905092915050565b6000602082019050919050565b600061073e826105c4565b61074881856105cf565b93508360208202850161075a856105e0565b8060005b8581101561079657848403895281516107778582610712565b945061078283610726565b925060208a0199505060018101905061075e565b50829750879550505050505092915050565b600060208201905081810360008301526107c28184610733565b905092915050565b600080fd5b600080fd5b7f4e487b7100000000000000000000000000000000000000000000000000000000600052604160045260246000fd5b61080c82610657565b810181811067ffffffffffffffff8211171561082b5761082a6107d4565b5b80604052505050565b600061083e610525565b905061084a8282610803565b919050565b600067ffffffffffffffff82111561086a576108696107d4565b5b61087382610657565b9050602081019050919050565b82818337600083830152505050565b60006108a261089d8461084f565b610834565b9050828152602081018484840111156108be576108bd6107cf565b5b6108c9848285610880565b509392505050565b600082601f8301126108e6576108e56107ca565b5b81356108f684826020860161088f565b91505092915050565b600080600080608085870312156109195761091861052f565b5b600061092787828801610582565b945050602085013567ffffffffffffffff81111561094857610947610534565b5b610954878288016108d1565b935050604085013567ffffffffffffffff81111561097557610974610534565b5b610981878288016108d1565b925050606085013567ffffffffffffffff8111156109a2576109a1610534565b5b6109ae878288016108d1565b91505092959194509250565b7f4e487b7100000000000000000000000000000000000000000000000000000000600052602260045260246000fd5b60006002820490506001821680610a0157607f821691505b602082108103610a1457610a136109ba565b5b50919050565b7f4e487b7100000000000000000000000000000000000000000000000000000000600052603260045260246000fd5b7f4e487b7100000000000000000000000000000000000000000000000000000000600052601160045260246000fd5b6000610a83826104f1565b9150610a8e836104f1565b9250828201905080821115610aa657610aa5610a49565b5b92915050565b60008190508160005260206000209050919050565b60006020601f8301049050919050565b600082821b905092915050565b600060088302610b0e7fffffffffffffffffffffffffffffffffffffffffffffffffffffffffffffffff82610ad1565b610b188683610ad1565b95508019841693508086168417925050509392505050565b6000819050919050565b6000610b55610b50610b4b846104f1565b610b30565b6104f1565b9050919050565b6000819050919050565b610b6f83610b3a565b610b83610b7b82610b5c565b848454610ade565b825550505050565b600090565b610b98610b8b565b610ba3818484610b66565b505050565b5b81811015610bc757610bbc600082610b90565b600181019050610ba9565b5050565b601f821115610c0c57610bdd81610aac565b610be684610ac1565b81016020851015610bf5578190505b610c09610c0185610ac1565b830182610ba8565b50505b505050565b600082821c905092915050565b6000610c2f60001984600802610c11565b1980831691505092915050565b6000610c488383610c1e565b9150826002028217905092915050565b610c6182610611565b67ffffffffffffffff811115610c7a57610c796107d4565b5b610c8482546109e9565b610c8f828285610bcb565b600060209050601f831160018114610cc25760008415610cb0578287015190505b610cba8582610c3c565b865550610d22565b601f198416610cd086610aac565b60005b82811015610cf857848901518255600182019150602085019450602081019050610cd3565b86831015610d155784890151610d11601f891682610c1e565b8355505b6001600288020188555050505b50505050505056fea2646970667358221220dff1a996299540ee9fd7403298cf48e269eae321e06a0d921c27626292fb22fe64736f6c63430008110033",
					"opcodes": "PUSH1 0x80 PUSH1 0x40 MSTORE CALLVALUE DUP1 ISZERO PUSH2 0x10 JUMPI PUSH1 0x0 DUP1 REVERT JUMPDEST POP PUSH2 0xD60 DUP1 PUSH2 0x20 PUSH1 0x0 CODECOPY PUSH1 0x0 RETURN INVALID PUSH1 0x80 PUSH1 0x40 MSTORE CALLVALUE DUP1 ISZERO PUSH2 0x10 JUMPI PUSH1 0x0 DUP1 REVERT JUMPDEST POP PUSH1 0x4 CALLDATASIZE LT PUSH2 0x41 JUMPI PUSH1 0x0 CALLDATALOAD PUSH1 0xE0 SHR DUP1 PUSH4 0x2E7700F0 EQ PUSH2 0x46 JUMPI DUP1 PUSH4 0x6386C1C7 EQ PUSH2 0x64 JUMPI DUP1 PUSH4 0x88721931 EQ PUSH2 0x94 JUMPI JUMPDEST PUSH1 0x0 DUP1 REVERT JUMPDEST PUSH2 0x4E PUSH2 0xB0 JUMP JUMPDEST PUSH1 0x40 MLOAD PUSH2 0x5B SWAP2 SWAP1 PUSH2 0x50A JUMP JUMPDEST PUSH1 0x40 MLOAD DUP1 SWAP2 SUB SWAP1 RETURN JUMPDEST PUSH2 0x7E PUSH1 0x4 DUP1 CALLDATASIZE SUB DUP2 ADD SWAP1 PUSH2 0x79 SWAP2 SWAP1 PUSH2 0x597 JUMP JUMPDEST PUSH2 0xB9 JUMP JUMPDEST PUSH1 0x40 MLOAD PUSH2 0x8B SWAP2 SWAP1 PUSH2 0x7A8 JUMP JUMPDEST PUSH1 0x40 MLOAD DUP1 SWAP2 SUB SWAP1 RETURN JUMPDEST PUSH2 0xAE PUSH1 0x4 DUP1 CALLDATASIZE SUB DUP2 ADD SWAP1 PUSH2 0xA9 SWAP2 SWAP1 PUSH2 0x8FF JUMP JUMPDEST PUSH2 0x392 JUMP JUMPDEST STOP JUMPDEST PUSH1 0x0 DUP1 SLOAD SWAP1 POP SWAP1 JUMP JUMPDEST PUSH1 0x60 PUSH1 0x0 PUSH1 0x1 PUSH8 0xFFFFFFFFFFFFFFFF DUP2 GT ISZERO PUSH2 0xD8 JUMPI PUSH2 0xD7 PUSH2 0x7D4 JUMP JUMPDEST JUMPDEST PUSH1 0x40 MLOAD SWAP1 DUP1 DUP3 MSTORE DUP1 PUSH1 0x20 MUL PUSH1 0x20 ADD DUP3 ADD PUSH1 0x40 MSTORE DUP1 ISZERO PUSH2 0x111 JUMPI DUP2 PUSH1 0x20 ADD JUMPDEST PUSH2 0xFE PUSH2 0x4B3 JUMP JUMPDEST DUP2 MSTORE PUSH1 0x20 ADD SWAP1 PUSH1 0x1 SWAP1 SUB SWAP1 DUP2 PUSH2 0xF6 JUMPI SWAP1 POP JUMPDEST POP SWAP1 POP PUSH1 0x1 PUSH1 0x0 DUP5 PUSH20 0xFFFFFFFFFFFFFFFFFFFFFFFFFFFFFFFFFFFFFFFF AND PUSH20 0xFFFFFFFFFFFFFFFFFFFFFFFFFFFFFFFFFFFFFFFF AND DUP2 MSTORE PUSH1 0x20 ADD SWAP1 DUP2 MSTORE PUSH1 0x20 ADD PUSH1 0x0 KECCAK256 PUSH1 0x40 MLOAD DUP1 PUSH1 0x80 ADD PUSH1 0x40 MSTORE SWAP1 DUP2 PUSH1 0x0 DUP3 ADD PUSH1 0x0 SWAP1 SLOAD SWAP1 PUSH2 0x100 EXP SWAP1 DIV PUSH20 0xFFFFFFFFFFFFFFFFFFFFFFFFFFFFFFFFFFFFFFFF AND PUSH20 0xFFFFFFFFFFFFFFFFFFFFFFFFFFFFFFFFFFFFFFFF AND PUSH20 0xFFFFFFFFFFFFFFFFFFFFFFFFFFFFFFFFFFFFFFFF AND DUP2 MSTORE PUSH1 0x20 ADD PUSH1 0x1 DUP3 ADD DUP1 SLOAD PUSH2 0x1C4 SWAP1 PUSH2 0x9E9 JUMP JUMPDEST DUP1 PUSH1 0x1F ADD PUSH1 0x20 DUP1 SWAP2 DIV MUL PUSH1 0x20 ADD PUSH1 0x40 MLOAD SWAP1 DUP2 ADD PUSH1 0x40 MSTORE DUP1 SWAP3 SWAP2 SWAP1 DUP2 DUP2 MSTORE PUSH1 0x20 ADD DUP3 DUP1 SLOAD PUSH2 0x1F0 SWAP1 PUSH2 0x9E9 JUMP JUMPDEST DUP1 ISZERO PUSH2 0x23D JUMPI DUP1 PUSH1 0x1F LT PUSH2 0x212 JUMPI PUSH2 0x100 DUP1 DUP4 SLOAD DIV MUL DUP4 MSTORE SWAP2 PUSH1 0x20 ADD SWAP2 PUSH2 0x23D JUMP JUMPDEST DUP3 ADD SWAP2 SWAP1 PUSH1 0x0 MSTORE PUSH1 0x20 PUSH1 0x0 KECCAK256 SWAP1 JUMPDEST DUP2 SLOAD DUP2 MSTORE SWAP1 PUSH1 0x1 ADD SWAP1 PUSH1 0x20 ADD DUP1 DUP4 GT PUSH2 0x220 JUMPI DUP3 SWAP1 SUB PUSH1 0x1F AND DUP3 ADD SWAP2 JUMPDEST POP POP POP POP POP DUP2 MSTORE PUSH1 0x20 ADD PUSH1 0x2 DUP3 ADD DUP1 SLOAD PUSH2 0x256 SWAP1 PUSH2 0x9E9 JUMP JUMPDEST DUP1 PUSH1 0x1F ADD PUSH1 0x20 DUP1 SWAP2 DIV MUL PUSH1 0x20 ADD PUSH1 0x40 MLOAD SWAP1 DUP2 ADD PUSH1 0x40 MSTORE DUP1 SWAP3 SWAP2 SWAP1 DUP2 DUP2 MSTORE PUSH1 0x20 ADD DUP3 DUP1 SLOAD PUSH2 0x282 SWAP1 PUSH2 0x9E9 JUMP JUMPDEST DUP1 ISZERO PUSH2 0x2CF JUMPI DUP1 PUSH1 0x1F LT PUSH2 0x2A4 JUMPI PUSH2 0x100 DUP1 DUP4 SLOAD DIV MUL DUP4 MSTORE SWAP2 PUSH1 0x20 ADD SWAP2 PUSH2 0x2CF JUMP JUMPDEST DUP3 ADD SWAP2 SWAP1 PUSH1 0x0 MSTORE PUSH1 0x20 PUSH1 0x0 KECCAK256 SWAP1 JUMPDEST DUP2 SLOAD DUP2 MSTORE SWAP1 PUSH1 0x1 ADD SWAP1 PUSH1 0x20 ADD DUP1 DUP4 GT PUSH2 0x2B2 JUMPI DUP3 SWAP1 SUB PUSH1 0x1F AND DUP3 ADD SWAP2 JUMPDEST POP POP POP POP POP DUP2 MSTORE PUSH1 0x20 ADD PUSH1 0x3 DUP3 ADD DUP1 SLOAD PUSH2 0x2E8 SWAP1 PUSH2 0x9E9 JUMP JUMPDEST DUP1 PUSH1 0x1F ADD PUSH1 0x20 DUP1 SWAP2 DIV MUL PUSH1 0x20 ADD PUSH1 0x40 MLOAD SWAP1 DUP2 ADD PUSH1 0x40 MSTORE DUP1 SWAP3 SWAP2 SWAP1 DUP2 DUP2 MSTORE PUSH1 0x20 ADD DUP3 DUP1 SLOAD PUSH2 0x314 SWAP1 PUSH2 0x9E9 JUMP JUMPDEST DUP1 ISZERO PUSH2 0x361 JUMPI DUP1 PUSH1 0x1F LT PUSH2 0x336 JUMPI PUSH2 0x100 DUP1 DUP4 SLOAD DIV MUL DUP4 MSTORE SWAP2 PUSH1 0x20 ADD SWAP2 PUSH2 0x361 JUMP JUMPDEST DUP3 ADD SWAP2 SWAP1 PUSH1 0x0 MSTORE PUSH1 0x20 PUSH1 0x0 KECCAK256 SWAP1 JUMPDEST DUP2 SLOAD DUP2 MSTORE SWAP1 PUSH1 0x1 ADD SWAP1 PUSH1 0x20 ADD DUP1 DUP4 GT PUSH2 0x344 JUMPI DUP3 SWAP1 SUB PUSH1 0x1F AND DUP3 ADD SWAP2 JUMPDEST POP POP POP POP POP DUP2 MSTORE POP POP DUP2 PUSH1 0x0 DUP2 MLOAD DUP2 LT PUSH2 0x37E JUMPI PUSH2 0x37D PUSH2 0xA1A JUMP JUMPDEST JUMPDEST PUSH1 0x20 MUL PUSH1 0x20 ADD ADD DUP2 SWAP1 MSTORE POP DUP1 SWAP2 POP POP SWAP2 SWAP1 POP JUMP JUMPDEST PUSH1 0x1 PUSH1 0x0 DUP1 DUP3 DUP3 SLOAD PUSH2 0x3A4 SWAP2 SWAP1 PUSH2 0xA78 JUMP JUMPDEST SWAP3 POP POP DUP2 SWAP1 SSTORE POP PUSH1 0x40 MLOAD DUP1 PUSH1 0x80 ADD PUSH1 0x40 MSTORE DUP1 DUP6 PUSH20 0xFFFFFFFFFFFFFFFFFFFFFFFFFFFFFFFFFFFFFFFF AND DUP2 MSTORE PUSH1 0x20 ADD DUP5 DUP2 MSTORE PUSH1 0x20 ADD DUP4 DUP2 MSTORE PUSH1 0x20 ADD DUP3 DUP2 MSTORE POP PUSH1 0x1 PUSH1 0x0 DUP7 PUSH20 0xFFFFFFFFFFFFFFFFFFFFFFFFFFFFFFFFFFFFFFFF AND PUSH20 0xFFFFFFFFFFFFFFFFFFFFFFFFFFFFFFFFFFFFFFFF AND DUP2 MSTORE PUSH1 0x20 ADD SWAP1 DUP2 MSTORE PUSH1 0x20 ADD PUSH1 0x0 KECCAK256 PUSH1 0x0 DUP3 ADD MLOAD DUP2 PUSH1 0x0 ADD PUSH1 0x0 PUSH2 0x100 EXP DUP2 SLOAD DUP2 PUSH20 0xFFFFFFFFFFFFFFFFFFFFFFFFFFFFFFFFFFFFFFFF MUL NOT AND SWAP1 DUP4 PUSH20 0xFFFFFFFFFFFFFFFFFFFFFFFFFFFFFFFFFFFFFFFF AND MUL OR SWAP1 SSTORE POP PUSH1 0x20 DUP3 ADD MLOAD DUP2 PUSH1 0x1 ADD SWAP1 DUP2 PUSH2 0x47D SWAP2 SWAP1 PUSH2 0xC58 JUMP JUMPDEST POP PUSH1 0x40 DUP3 ADD MLOAD DUP2 PUSH1 0x2 ADD SWAP1 DUP2 PUSH2 0x493 SWAP2 SWAP1 PUSH2 0xC58 JUMP JUMPDEST POP PUSH1 0x60 DUP3 ADD MLOAD DUP2 PUSH1 0x3 ADD SWAP1 DUP2 PUSH2 0x4A9 SWAP2 SWAP1 PUSH2 0xC58 JUMP JUMPDEST POP SWAP1 POP POP POP POP POP POP JUMP JUMPDEST PUSH1 0x40 MLOAD DUP1 PUSH1 0x80 ADD PUSH1 0x40 MSTORE DUP1 PUSH1 0x0 PUSH20 0xFFFFFFFFFFFFFFFFFFFFFFFFFFFFFFFFFFFFFFFF AND DUP2 MSTORE PUSH1 0x20 ADD PUSH1 0x60 DUP2 MSTORE PUSH1 0x20 ADD PUSH1 0x60 DUP2 MSTORE PUSH1 0x20 ADD PUSH1 0x60 DUP2 MSTORE POP SWAP1 JUMP JUMPDEST PUSH1 0x0 DUP2 SWAP1 POP SWAP2 SWAP1 POP JUMP JUMPDEST PUSH2 0x504 DUP2 PUSH2 0x4F1 JUMP JUMPDEST DUP3 MSTORE POP POP JUMP JUMPDEST PUSH1 0x0 PUSH1 0x20 DUP3 ADD SWAP1 POP PUSH2 0x51F PUSH1 0x0 DUP4 ADD DUP5 PUSH2 0x4FB JUMP JUMPDEST SWAP3 SWAP2 POP POP JUMP JUMPDEST PUSH1 0x0 PUSH1 0x40 MLOAD SWAP1 POP SWAP1 JUMP JUMPDEST PUSH1 0x0 DUP1 REVERT JUMPDEST PUSH1 0x0 DUP1 REVERT JUMPDEST PUSH1 0x0 PUSH20 0xFFFFFFFFFFFFFFFFFFFFFFFFFFFFFFFFFFFFFFFF DUP3 AND SWAP1 POP SWAP2 SWAP1 POP JUMP JUMPDEST PUSH1 0x0 PUSH2 0x564 DUP3 PUSH2 0x539 JUMP JUMPDEST SWAP1 POP SWAP2 SWAP1 POP JUMP JUMPDEST PUSH2 0x574 DUP2 PUSH2 0x559 JUMP JUMPDEST DUP2 EQ PUSH2 0x57F JUMPI PUSH1 0x0 DUP1 REVERT JUMPDEST POP JUMP JUMPDEST PUSH1 0x0 DUP2 CALLDATALOAD SWAP1 POP PUSH2 0x591 DUP2 PUSH2 0x56B JUMP JUMPDEST SWAP3 SWAP2 POP POP JUMP JUMPDEST PUSH1 0x0 PUSH1 0x20 DUP3 DUP5 SUB SLT ISZERO PUSH2 0x5AD JUMPI PUSH2 0x5AC PUSH2 0x52F JUMP JUMPDEST JUMPDEST PUSH1 0x0 PUSH2 0x5BB DUP5 DUP3 DUP6 ADD PUSH2 0x582 JUMP JUMPDEST SWAP2 POP POP SWAP3 SWAP2 POP POP JUMP JUMPDEST PUSH1 0x0 DUP2 MLOAD SWAP1 POP SWAP2 SWAP1 POP JUMP JUMPDEST PUSH1 0x0 DUP3 DUP3 MSTORE PUSH1 0x20 DUP3 ADD SWAP1 POP SWAP3 SWAP2 POP POP JUMP JUMPDEST PUSH1 0x0 DUP2 SWAP1 POP PUSH1 0x20 DUP3 ADD SWAP1 POP SWAP2 SWAP1 POP JUMP JUMPDEST PUSH1 0x0 PUSH2 0x5FB DUP3 PUSH2 0x539 JUMP JUMPDEST SWAP1 POP SWAP2 SWAP1 POP JUMP JUMPDEST PUSH2 0x60B DUP2 PUSH2 0x5F0 JUMP JUMPDEST DUP3 MSTORE POP POP JUMP JUMPDEST PUSH1 0x0 DUP2 MLOAD SWAP1 POP SWAP2 SWAP1 POP JUMP JUMPDEST PUSH1 0x0 DUP3 DUP3 MSTORE PUSH1 0x20 DUP3 ADD SWAP1 POP SWAP3 SWAP2 POP POP JUMP JUMPDEST PUSH1 0x0 JUMPDEST DUP4 DUP2 LT ISZERO PUSH2 0x64B JUMPI DUP1 DUP3 ADD MLOAD DUP2 DUP5 ADD MSTORE PUSH1 0x20 DUP2 ADD SWAP1 POP PUSH2 0x630 JUMP JUMPDEST PUSH1 0x0 DUP5 DUP5 ADD MSTORE POP POP POP POP JUMP JUMPDEST PUSH1 0x0 PUSH1 0x1F NOT PUSH1 0x1F DUP4 ADD AND SWAP1 POP SWAP2 SWAP1 POP JUMP JUMPDEST PUSH1 0x0 PUSH2 0x673 DUP3 PUSH2 0x611 JUMP JUMPDEST PUSH2 0x67D DUP2 DUP6 PUSH2 0x61C JUMP JUMPDEST SWAP4 POP PUSH2 0x68D DUP2 DUP6 PUSH1 0x20 DUP7 ADD PUSH2 0x62D JUMP JUMPDEST PUSH2 0x696 DUP2 PUSH2 0x657 JUMP JUMPDEST DUP5 ADD SWAP2 POP POP SWAP3 SWAP2 POP POP JUMP JUMPDEST PUSH1 0x0 PUSH1 0x80 DUP4 ADD PUSH1 0x0 DUP4 ADD MLOAD PUSH2 0x6B9 PUSH1 0x0 DUP7 ADD DUP3 PUSH2 0x602 JUMP JUMPDEST POP PUSH1 0x20 DUP4 ADD MLOAD DUP5 DUP3 SUB PUSH1 0x20 DUP7 ADD MSTORE PUSH2 0x6D1 DUP3 DUP3 PUSH2 0x668 JUMP JUMPDEST SWAP2 POP POP PUSH1 0x40 DUP4 ADD MLOAD DUP5 DUP3 SUB PUSH1 0x40 DUP7 ADD MSTORE PUSH2 0x6EB DUP3 DUP3 PUSH2 0x668 JUMP JUMPDEST SWAP2 POP POP PUSH1 0x60 DUP4 ADD MLOAD DUP5 DUP3 SUB PUSH1 0x60 DUP7 ADD MSTORE PUSH2 0x705 DUP3 DUP3 PUSH2 0x668 JUMP JUMPDEST SWAP2 POP POP DUP1 SWAP2 POP POP SWAP3 SWAP2 POP POP JUMP JUMPDEST PUSH1 0x0 PUSH2 0x71E DUP4 DUP4 PUSH2 0x6A1 JUMP JUMPDEST SWAP1 POP SWAP3 SWAP2 POP POP JUMP JUMPDEST PUSH1 0x0 PUSH1 0x20 DUP3 ADD SWAP1 POP SWAP2 SWAP1 POP JUMP JUMPDEST PUSH1 0x0 PUSH2 0x73E DUP3 PUSH2 0x5C4 JUMP JUMPDEST PUSH2 0x748 DUP2 DUP6 PUSH2 0x5CF JUMP JUMPDEST SWAP4 POP DUP4 PUSH1 0x20 DUP3 MUL DUP6 ADD PUSH2 0x75A DUP6 PUSH2 0x5E0 JUMP JUMPDEST DUP1 PUSH1 0x0 JUMPDEST DUP6 DUP2 LT ISZERO PUSH2 0x796 JUMPI DUP5 DUP5 SUB DUP10 MSTORE DUP2 MLOAD PUSH2 0x777 DUP6 DUP3 PUSH2 0x712 JUMP JUMPDEST SWAP5 POP PUSH2 0x782 DUP4 PUSH2 0x726 JUMP JUMPDEST SWAP3 POP PUSH1 0x20 DUP11 ADD SWAP10 POP POP PUSH1 0x1 DUP2 ADD SWAP1 POP PUSH2 0x75E JUMP JUMPDEST POP DUP3 SWAP8 POP DUP8 SWAP6 POP POP POP POP POP POP SWAP3 SWAP2 POP POP JUMP JUMPDEST PUSH1 0x0 PUSH1 0x20 DUP3 ADD SWAP1 POP DUP2 DUP2 SUB PUSH1 0x0 DUP4 ADD MSTORE PUSH2 0x7C2 DUP2 DUP5 PUSH2 0x733 JUMP JUMPDEST SWAP1 POP SWAP3 SWAP2 POP POP JUMP JUMPDEST PUSH1 0x0 DUP1 REVERT JUMPDEST PUSH1 0x0 DUP1 REVERT JUMPDEST PUSH32 0x4E487B7100000000000000000000000000000000000000000000000000000000 PUSH1 0x0 MSTORE PUSH1 0x41 PUSH1 0x4 MSTORE PUSH1 0x24 PUSH1 0x0 REVERT JUMPDEST PUSH2 0x80C DUP3 PUSH2 0x657 JUMP JUMPDEST DUP2 ADD DUP2 DUP2 LT PUSH8 0xFFFFFFFFFFFFFFFF DUP3 GT OR ISZERO PUSH2 0x82B JUMPI PUSH2 0x82A PUSH2 0x7D4 JUMP JUMPDEST JUMPDEST DUP1 PUSH1 0x40 MSTORE POP POP POP JUMP JUMPDEST PUSH1 0x0 PUSH2 0x83E PUSH2 0x525 JUMP JUMPDEST SWAP1 POP PUSH2 0x84A DUP3 DUP3 PUSH2 0x803 JUMP JUMPDEST SWAP2 SWAP1 POP JUMP JUMPDEST PUSH1 0x0 PUSH8 0xFFFFFFFFFFFFFFFF DUP3 GT ISZERO PUSH2 0x86A JUMPI PUSH2 0x869 PUSH2 0x7D4 JUMP JUMPDEST JUMPDEST PUSH2 0x873 DUP3 PUSH2 0x657 JUMP JUMPDEST SWAP1 POP PUSH1 0x20 DUP2 ADD SWAP1 POP SWAP2 SWAP1 POP JUMP JUMPDEST DUP3 DUP2 DUP4 CALLDATACOPY PUSH1 0x0 DUP4 DUP4 ADD MSTORE POP POP POP JUMP JUMPDEST PUSH1 0x0 PUSH2 0x8A2 PUSH2 0x89D DUP5 PUSH2 0x84F JUMP JUMPDEST PUSH2 0x834 JUMP JUMPDEST SWAP1 POP DUP3 DUP2 MSTORE PUSH1 0x20 DUP2 ADD DUP5 DUP5 DUP5 ADD GT ISZERO PUSH2 0x8BE JUMPI PUSH2 0x8BD PUSH2 0x7CF JUMP JUMPDEST JUMPDEST PUSH2 0x8C9 DUP5 DUP3 DUP6 PUSH2 0x880 JUMP JUMPDEST POP SWAP4 SWAP3 POP POP POP JUMP JUMPDEST PUSH1 0x0 DUP3 PUSH1 0x1F DUP4 ADD SLT PUSH2 0x8E6 JUMPI PUSH2 0x8E5 PUSH2 0x7CA JUMP JUMPDEST JUMPDEST DUP2 CALLDATALOAD PUSH2 0x8F6 DUP5 DUP3 PUSH1 0x20 DUP7 ADD PUSH2 0x88F JUMP JUMPDEST SWAP2 POP POP SWAP3 SWAP2 POP POP JUMP JUMPDEST PUSH1 0x0 DUP1 PUSH1 0x0 DUP1 PUSH1 0x80 DUP6 DUP8 SUB SLT ISZERO PUSH2 0x919 JUMPI PUSH2 0x918 PUSH2 0x52F JUMP JUMPDEST JUMPDEST PUSH1 0x0 PUSH2 0x927 DUP8 DUP3 DUP9 ADD PUSH2 0x582 JUMP JUMPDEST SWAP5 POP POP PUSH1 0x20 DUP6 ADD CALLDATALOAD PUSH8 0xFFFFFFFFFFFFFFFF DUP2 GT ISZERO PUSH2 0x948 JUMPI PUSH2 0x947 PUSH2 0x534 JUMP JUMPDEST JUMPDEST PUSH2 0x954 DUP8 DUP3 DUP9 ADD PUSH2 0x8D1 JUMP JUMPDEST SWAP4 POP POP PUSH1 0x40 DUP6 ADD CALLDATALOAD PUSH8 0xFFFFFFFFFFFFFFFF DUP2 GT ISZERO PUSH2 0x975 JUMPI PUSH2 0x974 PUSH2 0x534 JUMP JUMPDEST JUMPDEST PUSH2 0x981 DUP8 DUP3 DUP9 ADD PUSH2 0x8D1 JUMP JUMPDEST SWAP3 POP POP PUSH1 0x60 DUP6 ADD CALLDATALOAD PUSH8 0xFFFFFFFFFFFFFFFF DUP2 GT ISZERO PUSH2 0x9A2 JUMPI PUSH2 0x9A1 PUSH2 0x534 JUMP JUMPDEST JUMPDEST PUSH2 0x9AE DUP8 DUP3 DUP9 ADD PUSH2 0x8D1 JUMP JUMPDEST SWAP2 POP POP SWAP3 SWAP6 SWAP2 SWAP5 POP SWAP3 POP JUMP JUMPDEST PUSH32 0x4E487B7100000000000000000000000000000000000000000000000000000000 PUSH1 0x0 MSTORE PUSH1 0x22 PUSH1 0x4 MSTORE PUSH1 0x24 PUSH1 0x0 REVERT JUMPDEST PUSH1 0x0 PUSH1 0x2 DUP3 DIV SWAP1 POP PUSH1 0x1 DUP3 AND DUP1 PUSH2 0xA01 JUMPI PUSH1 0x7F DUP3 AND SWAP2 POP JUMPDEST PUSH1 0x20 DUP3 LT DUP2 SUB PUSH2 0xA14 JUMPI PUSH2 0xA13 PUSH2 0x9BA JUMP JUMPDEST JUMPDEST POP SWAP2 SWAP1 POP JUMP JUMPDEST PUSH32 0x4E487B7100000000000000000000000000000000000000000000000000000000 PUSH1 0x0 MSTORE PUSH1 0x32 PUSH1 0x4 MSTORE PUSH1 0x24 PUSH1 0x0 REVERT JUMPDEST PUSH32 0x4E487B7100000000000000000000000000000000000000000000000000000000 PUSH1 0x0 MSTORE PUSH1 0x11 PUSH1 0x4 MSTORE PUSH1 0x24 PUSH1 0x0 REVERT JUMPDEST PUSH1 0x0 PUSH2 0xA83 DUP3 PUSH2 0x4F1 JUMP JUMPDEST SWAP2 POP PUSH2 0xA8E DUP4 PUSH2 0x4F1 JUMP JUMPDEST SWAP3 POP DUP3 DUP3 ADD SWAP1 POP DUP1 DUP3 GT ISZERO PUSH2 0xAA6 JUMPI PUSH2 0xAA5 PUSH2 0xA49 JUMP JUMPDEST JUMPDEST SWAP3 SWAP2 POP POP JUMP JUMPDEST PUSH1 0x0 DUP2 SWAP1 POP DUP2 PUSH1 0x0 MSTORE PUSH1 0x20 PUSH1 0x0 KECCAK256 SWAP1 POP SWAP2 SWAP1 POP JUMP JUMPDEST PUSH1 0x0 PUSH1 0x20 PUSH1 0x1F DUP4 ADD DIV SWAP1 POP SWAP2 SWAP1 POP JUMP JUMPDEST PUSH1 0x0 DUP3 DUP3 SHL SWAP1 POP SWAP3 SWAP2 POP POP JUMP JUMPDEST PUSH1 0x0 PUSH1 0x8 DUP4 MUL PUSH2 0xB0E PUSH32 0xFFFFFFFFFFFFFFFFFFFFFFFFFFFFFFFFFFFFFFFFFFFFFFFFFFFFFFFFFFFFFFFF DUP3 PUSH2 0xAD1 JUMP JUMPDEST PUSH2 0xB18 DUP7 DUP4 PUSH2 0xAD1 JUMP JUMPDEST SWAP6 POP DUP1 NOT DUP5 AND SWAP4 POP DUP1 DUP7 AND DUP5 OR SWAP3 POP POP POP SWAP4 SWAP3 POP POP POP JUMP JUMPDEST PUSH1 0x0 DUP2 SWAP1 POP SWAP2 SWAP1 POP JUMP JUMPDEST PUSH1 0x0 PUSH2 0xB55 PUSH2 0xB50 PUSH2 0xB4B DUP5 PUSH2 0x4F1 JUMP JUMPDEST PUSH2 0xB30 JUMP JUMPDEST PUSH2 0x4F1 JUMP JUMPDEST SWAP1 POP SWAP2 SWAP1 POP JUMP JUMPDEST PUSH1 0x0 DUP2 SWAP1 POP SWAP2 SWAP1 POP JUMP JUMPDEST PUSH2 0xB6F DUP4 PUSH2 0xB3A JUMP JUMPDEST PUSH2 0xB83 PUSH2 0xB7B DUP3 PUSH2 0xB5C JUMP JUMPDEST DUP5 DUP5 SLOAD PUSH2 0xADE JUMP JUMPDEST DUP3 SSTORE POP POP POP POP JUMP JUMPDEST PUSH1 0x0 SWAP1 JUMP JUMPDEST PUSH2 0xB98 PUSH2 0xB8B JUMP JUMPDEST PUSH2 0xBA3 DUP2 DUP5 DUP5 PUSH2 0xB66 JUMP JUMPDEST POP POP POP JUMP JUMPDEST JUMPDEST DUP2 DUP2 LT ISZERO PUSH2 0xBC7 JUMPI PUSH2 0xBBC PUSH1 0x0 DUP3 PUSH2 0xB90 JUMP JUMPDEST PUSH1 0x1 DUP2 ADD SWAP1 POP PUSH2 0xBA9 JUMP JUMPDEST POP POP JUMP JUMPDEST PUSH1 0x1F DUP3 GT ISZERO PUSH2 0xC0C JUMPI PUSH2 0xBDD DUP2 PUSH2 0xAAC JUMP JUMPDEST PUSH2 0xBE6 DUP5 PUSH2 0xAC1 JUMP JUMPDEST DUP2 ADD PUSH1 0x20 DUP6 LT ISZERO PUSH2 0xBF5 JUMPI DUP2 SWAP1 POP JUMPDEST PUSH2 0xC09 PUSH2 0xC01 DUP6 PUSH2 0xAC1 JUMP JUMPDEST DUP4 ADD DUP3 PUSH2 0xBA8 JUMP JUMPDEST POP POP JUMPDEST POP POP POP JUMP JUMPDEST PUSH1 0x0 DUP3 DUP3 SHR SWAP1 POP SWAP3 SWAP2 POP POP JUMP JUMPDEST PUSH1 0x0 PUSH2 0xC2F PUSH1 0x0 NOT DUP5 PUSH1 0x8 MUL PUSH2 0xC11 JUMP JUMPDEST NOT DUP1 DUP4 AND SWAP2 POP POP SWAP3 SWAP2 POP POP JUMP JUMPDEST PUSH1 0x0 PUSH2 0xC48 DUP4 DUP4 PUSH2 0xC1E JUMP JUMPDEST SWAP2 POP DUP3 PUSH1 0x2 MUL DUP3 OR SWAP1 POP SWAP3 SWAP2 POP POP JUMP JUMPDEST PUSH2 0xC61 DUP3 PUSH2 0x611 JUMP JUMPDEST PUSH8 0xFFFFFFFFFFFFFFFF DUP2 GT ISZERO PUSH2 0xC7A JUMPI PUSH2 0xC79 PUSH2 0x7D4 JUMP JUMPDEST JUMPDEST PUSH2 0xC84 DUP3 SLOAD PUSH2 0x9E9 JUMP JUMPDEST PUSH2 0xC8F DUP3 DUP3 DUP6 PUSH2 0xBCB JUMP JUMPDEST PUSH1 0x0 PUSH1 0x20 SWAP1 POP PUSH1 0x1F DUP4 GT PUSH1 0x1 DUP2 EQ PUSH2 0xCC2 JUMPI PUSH1 0x0 DUP5 ISZERO PUSH2 0xCB0 JUMPI DUP3 DUP8 ADD MLOAD SWAP1 POP JUMPDEST PUSH2 0xCBA DUP6 DUP3 PUSH2 0xC3C JUMP JUMPDEST DUP7 SSTORE POP PUSH2 0xD22 JUMP JUMPDEST PUSH1 0x1F NOT DUP5 AND PUSH2 0xCD0 DUP7 PUSH2 0xAAC JUMP JUMPDEST PUSH1 0x0 JUMPDEST DUP3 DUP2 LT ISZERO PUSH2 0xCF8 JUMPI DUP5 DUP10 ADD MLOAD DUP3 SSTORE PUSH1 0x1 DUP3 ADD SWAP2 POP PUSH1 0x20 DUP6 ADD SWAP5 POP PUSH1 0x20 DUP2 ADD SWAP1 POP PUSH2 0xCD3 JUMP JUMPDEST DUP7 DUP4 LT ISZERO PUSH2 0xD15 JUMPI DUP5 DUP10 ADD MLOAD PUSH2 0xD11 PUSH1 0x1F DUP10 AND DUP3 PUSH2 0xC1E JUMP JUMPDEST DUP4 SSTORE POP JUMPDEST PUSH1 0x1 PUSH1 0x2 DUP9 MUL ADD DUP9 SSTORE POP POP POP JUMPDEST POP POP POP POP POP POP JUMP INVALID LOG2 PUSH5 0x6970667358 0x22 SLT KECCAK256 0xDF CALL 0xA9 SWAP7 0x29 SWAP6 BLOCKHASH 0xEE SWAP16 0xD7 BLOCKHASH ORIGIN SWAP9 0xCF BASEFEE 0xE2 PUSH10 0xEAE321E06A0D921C2762 PUSH3 0x92FB22 INVALID PUSH5 0x736F6C6343 STOP ADDMOD GT STOP CALLER "
				},
				"gasEstimates": {
					"creation": {
						"codeDepositCost": "684800",
						"executionCost": "715",
						"totalCost": "685515"
					},
					"external": {
						"getTransactionCount()": "2415",
						"getUserInfo(address)": "infinite",
						"onboarding(address,string,string,string)": "infinite"
					}
				},
				"methodIdentifiers": {
					"getTransactionCount()": "2e7700f0",
					"getUserInfo(address)": "6386c1c7",
					"onboarding(address,string,string,string)": "88721931"
				}
			},
			"storageLayout": {
				"storage": [
					{
						"astId": 3,
						"contract": "contracts/KYC.sol:KYC",
						"label": "transactionCount",
						"offset": 0,
						"slot": "0",
						"type": "t_uint256"
					},
					{
						"astId": 8,
						"contract": "contracts/KYC.sol:KYC",
						"label": "userDict",
						"offset": 0,
						"slot": "1",
						"type": "t_mapping(t_address,t_struct(UserInfoStruct)17_storage)"
					}
				],
				"types": {
					"t_address": {
						"encoding": "inplace",
						"label": "address",
						"numberOfBytes": "20"
					},
					"t_mapping(t_address,t_struct(UserInfoStruct)17_storage)": {
						"encoding": "mapping",
						"key": "t_address",
						"label": "mapping(address => struct KYC.UserInfoStruct)",
						"numberOfBytes": "32",
						"value": "t_struct(UserInfoStruct)17_storage"
					},
					"t_string_storage": {
						"encoding": "bytes",
						"label": "string",
						"numberOfBytes": "32"
					},
					"t_struct(UserInfoStruct)17_storage": {
						"encoding": "inplace",
						"label": "struct KYC.UserInfoStruct",
						"members": [
							{
								"astId": 10,
								"contract": "contracts/KYC.sol:KYC",
								"label": "userAddress",
								"offset": 0,
								"slot": "0",
								"type": "t_address"
							},
							{
								"astId": 12,
								"contract": "contracts/KYC.sol:KYC",
								"label": "role",
								"offset": 0,
								"slot": "1",
								"type": "t_string_storage"
							},
							{
								"astId": 14,
								"contract": "contracts/KYC.sol:KYC",
								"label": "firstName",
								"offset": 0,
								"slot": "2",
								"type": "t_string_storage"
							},
							{
								"astId": 16,
								"contract": "contracts/KYC.sol:KYC",
								"label": "lastName",
								"offset": 0,
								"slot": "3",
								"type": "t_string_storage"
							}
						],
						"numberOfBytes": "128"
					},
					"t_uint256": {
						"encoding": "inplace",
						"label": "uint256",
						"numberOfBytes": "32"
					}
				}
			},
			"userdoc": {
				"kind": "user",
				"methods": {},
				"version": 1
			}
		}
	}
}