{
	"contracts/AusAML.sol": {
		"AusAML": {
			"abi": [
				{
					"anonymous": false,
					"inputs": [
						{
							"indexed": false,
							"internalType": "string",
							"name": "exceedAmt",
							"type": "string"
						},
						{
							"indexed": false,
							"internalType": "uint256",
							"name": "timestamp",
							"type": "uint256"
						}
					],
					"name": "CreateExceededMaxAmtErrorLog",
					"type": "event"
				},
				{
					"anonymous": false,
					"inputs": [
						{
							"indexed": false,
							"internalType": "string",
							"name": "nationality",
							"type": "string"
						},
						{
							"indexed": false,
							"internalType": "uint256",
							"name": "timestamp",
							"type": "uint256"
						}
					],
					"name": "CreateNationalityErrorLog",
					"type": "event"
				},
				{
					"anonymous": false,
					"inputs": [
						{
							"indexed": false,
							"internalType": "string",
							"name": "politicallyExposed",
							"type": "string"
						},
						{
							"indexed": false,
							"internalType": "uint256",
							"name": "timestamp",
							"type": "uint256"
						}
					],
					"name": "CreatePoliticallyExposedErrorLog",
					"type": "event"
				},
				{
					"anonymous": false,
					"inputs": [
						{
							"indexed": false,
							"internalType": "string",
							"name": "wantedInd",
							"type": "string"
						},
						{
							"indexed": false,
							"internalType": "uint256",
							"name": "timestamp",
							"type": "uint256"
						}
					],
					"name": "CreateWantedIndividualErrorLog",
					"type": "event"
				},
				{
					"inputs": [
						{
							"internalType": "address payable",
							"name": "sender",
							"type": "address"
						},
						{
							"internalType": "uint256",
							"name": "amount",
							"type": "uint256"
						}
					],
					"name": "checkAmt",
					"outputs": [
						{
							"internalType": "bool",
							"name": "",
							"type": "bool"
						}
					],
					"stateMutability": "payable",
					"type": "function"
				},
				{
					"inputs": [
						{
							"components": [
								{
									"internalType": "address",
									"name": "userAddress",
									"type": "address"
								},
								{
									"internalType": "string",
									"name": "role",
									"type": "string"
								},
								{
									"internalType": "string",
									"name": "firstName",
									"type": "string"
								},
								{
									"internalType": "string",
									"name": "lastName",
									"type": "string"
								},
								{
									"internalType": "string",
									"name": "country",
									"type": "string"
								},
								{
									"internalType": "string",
									"name": "location",
									"type": "string"
								},
								{
									"internalType": "string",
									"name": "nationality",
									"type": "string"
								},
								{
									"internalType": "bool",
									"name": "isPoliticallyExposed",
									"type": "bool"
								}
							],
							"internalType": "struct UserInfoLibrary.UserInfoStruct",
							"name": "senderUserInfo",
							"type": "tuple"
						},
						{
							"components": [
								{
									"internalType": "address",
									"name": "userAddress",
									"type": "address"
								},
								{
									"internalType": "string",
									"name": "role",
									"type": "string"
								},
								{
									"internalType": "string",
									"name": "firstName",
									"type": "string"
								},
								{
									"internalType": "string",
									"name": "lastName",
									"type": "string"
								},
								{
									"internalType": "string",
									"name": "country",
									"type": "string"
								},
								{
									"internalType": "string",
									"name": "location",
									"type": "string"
								},
								{
									"internalType": "string",
									"name": "nationality",
									"type": "string"
								},
								{
									"internalType": "bool",
									"name": "isPoliticallyExposed",
									"type": "bool"
								}
							],
							"internalType": "struct UserInfoLibrary.UserInfoStruct",
							"name": "receiverUserInfo",
							"type": "tuple"
						}
					],
					"name": "checkNationality",
					"outputs": [
						{
							"internalType": "bool",
							"name": "",
							"type": "bool"
						}
					],
					"stateMutability": "nonpayable",
					"type": "function"
				},
				{
					"inputs": [
						{
							"components": [
								{
									"internalType": "address",
									"name": "userAddress",
									"type": "address"
								},
								{
									"internalType": "string",
									"name": "role",
									"type": "string"
								},
								{
									"internalType": "string",
									"name": "firstName",
									"type": "string"
								},
								{
									"internalType": "string",
									"name": "lastName",
									"type": "string"
								},
								{
									"internalType": "string",
									"name": "country",
									"type": "string"
								},
								{
									"internalType": "string",
									"name": "location",
									"type": "string"
								},
								{
									"internalType": "string",
									"name": "nationality",
									"type": "string"
								},
								{
									"internalType": "bool",
									"name": "isPoliticallyExposed",
									"type": "bool"
								}
							],
							"internalType": "struct UserInfoLibrary.UserInfoStruct",
							"name": "senderUserInfo",
							"type": "tuple"
						},
						{
							"components": [
								{
									"internalType": "address",
									"name": "userAddress",
									"type": "address"
								},
								{
									"internalType": "string",
									"name": "role",
									"type": "string"
								},
								{
									"internalType": "string",
									"name": "firstName",
									"type": "string"
								},
								{
									"internalType": "string",
									"name": "lastName",
									"type": "string"
								},
								{
									"internalType": "string",
									"name": "country",
									"type": "string"
								},
								{
									"internalType": "string",
									"name": "location",
									"type": "string"
								},
								{
									"internalType": "string",
									"name": "nationality",
									"type": "string"
								},
								{
									"internalType": "bool",
									"name": "isPoliticallyExposed",
									"type": "bool"
								}
							],
							"internalType": "struct UserInfoLibrary.UserInfoStruct",
							"name": "receiverUserInfo",
							"type": "tuple"
						}
					],
					"name": "checkPoliticalStatus",
					"outputs": [
						{
							"internalType": "bool",
							"name": "",
							"type": "bool"
						}
					],
					"stateMutability": "nonpayable",
					"type": "function"
				},
				{
					"inputs": [
						{
							"components": [
								{
									"internalType": "address",
									"name": "userAddress",
									"type": "address"
								},
								{
									"internalType": "string",
									"name": "role",
									"type": "string"
								},
								{
									"internalType": "string",
									"name": "firstName",
									"type": "string"
								},
								{
									"internalType": "string",
									"name": "lastName",
									"type": "string"
								},
								{
									"internalType": "string",
									"name": "country",
									"type": "string"
								},
								{
									"internalType": "string",
									"name": "location",
									"type": "string"
								},
								{
									"internalType": "string",
									"name": "nationality",
									"type": "string"
								},
								{
									"internalType": "bool",
									"name": "isPoliticallyExposed",
									"type": "bool"
								}
							],
							"internalType": "struct UserInfoLibrary.UserInfoStruct",
							"name": "senderUserInfo",
							"type": "tuple"
						},
						{
							"components": [
								{
									"internalType": "address",
									"name": "userAddress",
									"type": "address"
								},
								{
									"internalType": "string",
									"name": "role",
									"type": "string"
								},
								{
									"internalType": "string",
									"name": "firstName",
									"type": "string"
								},
								{
									"internalType": "string",
									"name": "lastName",
									"type": "string"
								},
								{
									"internalType": "string",
									"name": "country",
									"type": "string"
								},
								{
									"internalType": "string",
									"name": "location",
									"type": "string"
								},
								{
									"internalType": "string",
									"name": "nationality",
									"type": "string"
								},
								{
									"internalType": "bool",
									"name": "isPoliticallyExposed",
									"type": "bool"
								}
							],
							"internalType": "struct UserInfoLibrary.UserInfoStruct",
							"name": "receiverUserInfo",
							"type": "tuple"
						}
					],
					"name": "checkWantedIndividual",
					"outputs": [
						{
							"internalType": "bool",
							"name": "",
							"type": "bool"
						}
					],
					"stateMutability": "nonpayable",
					"type": "function"
				}
			],
			"devdoc": {
				"kind": "dev",
				"methods": {},
				"version": 1
			},
			"evm": {
				"assembly": "    /* \"contracts/AusAML.sol\":93:2963  contract AusAML{... */\n  mstore(0x40, 0x80)\n    /* \"contracts/AusAML.sol\":443:519  string[] bannedCountries = [\"Iran\",\"Afganistan\",\"Turkmenistan\",\"Kyrgyzstan\"] */\n  mload(0x40)\n  dup1\n  0x80\n  add\n  0x40\n  mstore\n  dup1\n  mload(0x40)\n  dup1\n  0x40\n  add\n  0x40\n  mstore\n  dup1\n  0x04\n  dup2\n  mstore\n  0x20\n  add\n  0x4972616e00000000000000000000000000000000000000000000000000000000\n  dup2\n  mstore\n  pop\n  dup2\n  mstore\n  0x20\n  add\n  mload(0x40)\n  dup1\n  0x40\n  add\n  0x40\n  mstore\n  dup1\n  0x0a\n  dup2\n  mstore\n  0x20\n  add\n  0x416667616e697374616e00000000000000000000000000000000000000000000\n  dup2\n  mstore\n  pop\n  dup2\n  mstore\n  0x20\n  add\n  mload(0x40)\n  dup1\n  0x40\n  add\n  0x40\n  mstore\n  dup1\n  0x0c\n  dup2\n  mstore\n  0x20\n  add\n  0x5475726b6d656e697374616e0000000000000000000000000000000000000000\n  dup2\n  mstore\n  pop\n  dup2\n  mstore\n  0x20\n  add\n  mload(0x40)\n  dup1\n  0x40\n  add\n  0x40\n  mstore\n  dup1\n  0x0a\n  dup2\n  mstore\n  0x20\n  add\n  0x4b797267797a7374616e00000000000000000000000000000000000000000000\n  dup2\n  mstore\n  pop\n  dup2\n  mstore\n  pop\n  0x00\n  swap1\n  0x04\n  tag_1\n  swap3\n  swap2\n  swap1\n  tag_2\n  jump\t// in\ntag_1:\n  pop\n    /* \"contracts/AusAML.sol\":526:600  address[] wantedIndividuals = [0x72A4Bbe493FC0A724460C9940eE6FAE5f9209D61] */\n  mload(0x40)\n  dup1\n  0x20\n  add\n  0x40\n  mstore\n  dup1\n    /* \"contracts/AusAML.sol\":557:599  0x72A4Bbe493FC0A724460C9940eE6FAE5f9209D61 */\n  0x72a4bbe493fc0a724460c9940ee6fae5f9209d61\n    /* \"contracts/AusAML.sol\":526:600  address[] wantedIndividuals = [0x72A4Bbe493FC0A724460C9940eE6FAE5f9209D61] */\n  0xffffffffffffffffffffffffffffffffffffffff\n  and\n  0xffffffffffffffffffffffffffffffffffffffff\n  and\n  dup2\n  mstore\n  pop\n  0x01\n  swap1\n  0x01\n  tag_3\n  swap3\n  swap2\n  swap1\n  tag_4\n  jump\t// in\ntag_3:\n  pop\n    /* \"contracts/AusAML.sol\":627:629  40 */\n  0x28\n    /* \"contracts/AusAML.sol\":607:629  uint256 maxAmount = 40 */\n  0x02\n  sstore\n    /* \"contracts/AusAML.sol\":93:2963  contract AusAML{... */\n  callvalue\n  dup1\n  iszero\n  tag_5\n  jumpi\n  0x00\n  dup1\n  revert\ntag_5:\n  pop\n  jump(tag_6)\ntag_2:\n  dup3\n  dup1\n  sload\n  dup3\n  dup3\n  sstore\n  swap1\n  0x00\n  mstore\n  keccak256(0x00, 0x20)\n  swap1\n  dup2\n  add\n  swap3\n  dup3\n  iszero\n  tag_7\n  jumpi\n  swap2\n  0x20\n  mul\n  dup3\n  add\ntag_8:\n  dup3\n  dup2\n  gt\n  iszero\n  tag_9\n  jumpi\n  dup3\n  mload\n  dup3\n  swap1\n  dup2\n  tag_10\n  swap2\n  swap1\n  tag_11\n  jump\t// in\ntag_10:\n  pop\n  swap2\n  0x20\n  add\n  swap2\n  swap1\n  0x01\n  add\n  swap1\n  jump(tag_8)\ntag_9:\ntag_7:\n  pop\n  swap1\n  pop\n  tag_12\n  swap2\n  swap1\n  tag_13\n  jump\t// in\ntag_12:\n  pop\n  swap1\n  jump\t// out\ntag_4:\n  dup3\n  dup1\n  sload\n  dup3\n  dup3\n  sstore\n  swap1\n  0x00\n  mstore\n  keccak256(0x00, 0x20)\n  swap1\n  dup2\n  add\n  swap3\n  dup3\n  iszero\n  tag_14\n  jumpi\n  swap2\n  0x20\n  mul\n  dup3\n  add\ntag_15:\n  dup3\n  dup2\n  gt\n  iszero\n  tag_16\n  jumpi\n  dup3\n  mload\n  dup3\n  exp(0x0100, 0x00)\n  dup2\n  sload\n  dup2\n  0xffffffffffffffffffffffffffffffffffffffff\n  mul\n  not\n  and\n  swap1\n  dup4\n  0xffffffffffffffffffffffffffffffffffffffff\n  and\n  mul\n  or\n  swap1\n  sstore\n  pop\n  swap2\n  0x20\n  add\n  swap2\n  swap1\n  0x01\n  add\n  swap1\n  jump(tag_15)\ntag_16:\ntag_14:\n  pop\n  swap1\n  pop\n  tag_17\n  swap2\n  swap1\n  tag_18\n  jump\t// in\ntag_17:\n  pop\n  swap1\n  jump\t// out\ntag_13:\ntag_19:\n  dup1\n  dup3\n  gt\n  iszero\n  tag_20\n  jumpi\n  0x00\n  dup2\n  dup2\n  tag_21\n  swap2\n  swap1\n  tag_22\n  jump\t// in\ntag_21:\n  pop\n  0x01\n  add\n  jump(tag_19)\ntag_20:\n  pop\n  swap1\n  jump\t// out\ntag_18:\ntag_23:\n  dup1\n  dup3\n  gt\n  iszero\n  tag_24\n  jumpi\n  0x00\n  dup2\n  0x00\n  swap1\n  sstore\n  pop\n  0x01\n  add\n  jump(tag_23)\ntag_24:\n  pop\n  swap1\n  jump\t// out\ntag_22:\n  pop\n  dup1\n  sload\n  tag_25\n  swap1\n  tag_26\n  jump\t// in\ntag_25:\n  0x00\n  dup3\n  sstore\n  dup1\n  0x1f\n  lt\n  tag_28\n  jumpi\n  pop\n  jump(tag_27)\ntag_28:\n  0x1f\n  add\n  0x20\n  swap1\n  div\n  swap1\n  0x00\n  mstore\n  keccak256(0x00, 0x20)\n  swap1\n  dup2\n  add\n  swap1\n  tag_29\n  swap2\n  swap1\n  tag_18\n  jump\t// in\ntag_29:\ntag_27:\n  pop\n  jump\t// out\n    /* \"#utility.yul\":7:106   */\ntag_30:\n    /* \"#utility.yul\":59:65   */\n  0x00\n    /* \"#utility.yul\":93:98   */\n  dup2\n    /* \"#utility.yul\":87:99   */\n  mload\n    /* \"#utility.yul\":77:99   */\n  swap1\n  pop\n    /* \"#utility.yul\":7:106   */\n  swap2\n  swap1\n  pop\n  jump\t// out\n    /* \"#utility.yul\":112:292   */\ntag_31:\n    /* \"#utility.yul\":160:237   */\n  0x4e487b7100000000000000000000000000000000000000000000000000000000\n    /* \"#utility.yul\":157:158   */\n  0x00\n    /* \"#utility.yul\":150:238   */\n  mstore\n    /* \"#utility.yul\":257:261   */\n  0x41\n    /* \"#utility.yul\":254:255   */\n  0x04\n    /* \"#utility.yul\":247:262   */\n  mstore\n    /* \"#utility.yul\":281:285   */\n  0x24\n    /* \"#utility.yul\":278:279   */\n  0x00\n    /* \"#utility.yul\":271:286   */\n  revert\n    /* \"#utility.yul\":298:478   */\ntag_32:\n    /* \"#utility.yul\":346:423   */\n  0x4e487b7100000000000000000000000000000000000000000000000000000000\n    /* \"#utility.yul\":343:344   */\n  0x00\n    /* \"#utility.yul\":336:424   */\n  mstore\n    /* \"#utility.yul\":443:447   */\n  0x22\n    /* \"#utility.yul\":440:441   */\n  0x04\n    /* \"#utility.yul\":433:448   */\n  mstore\n    /* \"#utility.yul\":467:471   */\n  0x24\n    /* \"#utility.yul\":464:465   */\n  0x00\n    /* \"#utility.yul\":457:472   */\n  revert\n    /* \"#utility.yul\":484:804   */\ntag_26:\n    /* \"#utility.yul\":528:534   */\n  0x00\n    /* \"#utility.yul\":565:566   */\n  0x02\n    /* \"#utility.yul\":559:563   */\n  dup3\n    /* \"#utility.yul\":555:567   */\n  div\n    /* \"#utility.yul\":545:567   */\n  swap1\n  pop\n    /* \"#utility.yul\":612:613   */\n  0x01\n    /* \"#utility.yul\":606:610   */\n  dup3\n    /* \"#utility.yul\":602:614   */\n  and\n    /* \"#utility.yul\":633:651   */\n  dup1\n    /* \"#utility.yul\":623:704   */\n  tag_54\n  jumpi\n    /* \"#utility.yul\":689:693   */\n  0x7f\n    /* \"#utility.yul\":681:687   */\n  dup3\n    /* \"#utility.yul\":677:694   */\n  and\n    /* \"#utility.yul\":667:694   */\n  swap2\n  pop\n    /* \"#utility.yul\":623:704   */\ntag_54:\n    /* \"#utility.yul\":751:753   */\n  0x20\n    /* \"#utility.yul\":743:749   */\n  dup3\n    /* \"#utility.yul\":740:754   */\n  lt\n    /* \"#utility.yul\":720:738   */\n  dup2\n    /* \"#utility.yul\":717:755   */\n  sub\n    /* \"#utility.yul\":714:798   */\n  tag_55\n  jumpi\n    /* \"#utility.yul\":770:788   */\n  tag_56\n  tag_32\n  jump\t// in\ntag_56:\n    /* \"#utility.yul\":714:798   */\ntag_55:\n    /* \"#utility.yul\":535:804   */\n  pop\n    /* \"#utility.yul\":484:804   */\n  swap2\n  swap1\n  pop\n  jump\t// out\n    /* \"#utility.yul\":810:951   */\ntag_33:\n    /* \"#utility.yul\":859:863   */\n  0x00\n    /* \"#utility.yul\":882:885   */\n  dup2\n    /* \"#utility.yul\":874:885   */\n  swap1\n  pop\n    /* \"#utility.yul\":905:908   */\n  dup2\n    /* \"#utility.yul\":902:903   */\n  0x00\n    /* \"#utility.yul\":895:909   */\n  mstore\n    /* \"#utility.yul\":939:943   */\n  0x20\n    /* \"#utility.yul\":936:937   */\n  0x00\n    /* \"#utility.yul\":926:944   */\n  keccak256\n    /* \"#utility.yul\":918:944   */\n  swap1\n  pop\n    /* \"#utility.yul\":810:951   */\n  swap2\n  swap1\n  pop\n  jump\t// out\n    /* \"#utility.yul\":957:1050   */\ntag_34:\n    /* \"#utility.yul\":994:1000   */\n  0x00\n    /* \"#utility.yul\":1041:1043   */\n  0x20\n    /* \"#utility.yul\":1036:1038   */\n  0x1f\n    /* \"#utility.yul\":1029:1034   */\n  dup4\n    /* \"#utility.yul\":1025:1039   */\n  add\n    /* \"#utility.yul\":1021:1044   */\n  div\n    /* \"#utility.yul\":1011:1044   */\n  swap1\n  pop\n    /* \"#utility.yul\":957:1050   */\n  swap2\n  swap1\n  pop\n  jump\t// out\n    /* \"#utility.yul\":1056:1163   */\ntag_35:\n    /* \"#utility.yul\":1100:1108   */\n  0x00\n    /* \"#utility.yul\":1150:1155   */\n  dup3\n    /* \"#utility.yul\":1144:1148   */\n  dup3\n    /* \"#utility.yul\":1140:1156   */\n  shl\n    /* \"#utility.yul\":1119:1156   */\n  swap1\n  pop\n    /* \"#utility.yul\":1056:1163   */\n  swap3\n  swap2\n  pop\n  pop\n  jump\t// out\n    /* \"#utility.yul\":1169:1562   */\ntag_36:\n    /* \"#utility.yul\":1238:1244   */\n  0x00\n    /* \"#utility.yul\":1288:1289   */\n  0x08\n    /* \"#utility.yul\":1276:1286   */\n  dup4\n    /* \"#utility.yul\":1272:1290   */\n  mul\n    /* \"#utility.yul\":1311:1408   */\n  tag_61\n    /* \"#utility.yul\":1341:1407   */\n  0xffffffffffffffffffffffffffffffffffffffffffffffffffffffffffffffff\n    /* \"#utility.yul\":1330:1339   */\n  dup3\n    /* \"#utility.yul\":1311:1408   */\n  tag_35\n  jump\t// in\ntag_61:\n    /* \"#utility.yul\":1429:1468   */\n  tag_62\n    /* \"#utility.yul\":1459:1467   */\n  dup7\n    /* \"#utility.yul\":1448:1457   */\n  dup4\n    /* \"#utility.yul\":1429:1468   */\n  tag_35\n  jump\t// in\ntag_62:\n    /* \"#utility.yul\":1417:1468   */\n  swap6\n  pop\n    /* \"#utility.yul\":1501:1505   */\n  dup1\n    /* \"#utility.yul\":1497:1506   */\n  not\n    /* \"#utility.yul\":1490:1495   */\n  dup5\n    /* \"#utility.yul\":1486:1507   */\n  and\n    /* \"#utility.yul\":1477:1507   */\n  swap4\n  pop\n    /* \"#utility.yul\":1550:1554   */\n  dup1\n    /* \"#utility.yul\":1540:1548   */\n  dup7\n    /* \"#utility.yul\":1536:1555   */\n  and\n    /* \"#utility.yul\":1529:1534   */\n  dup5\n    /* \"#utility.yul\":1526:1556   */\n  or\n    /* \"#utility.yul\":1516:1556   */\n  swap3\n  pop\n    /* \"#utility.yul\":1245:1562   */\n  pop\n  pop\n    /* \"#utility.yul\":1169:1562   */\n  swap4\n  swap3\n  pop\n  pop\n  pop\n  jump\t// out\n    /* \"#utility.yul\":1568:1645   */\ntag_37:\n    /* \"#utility.yul\":1605:1612   */\n  0x00\n    /* \"#utility.yul\":1634:1639   */\n  dup2\n    /* \"#utility.yul\":1623:1639   */\n  swap1\n  pop\n    /* \"#utility.yul\":1568:1645   */\n  swap2\n  swap1\n  pop\n  jump\t// out\n    /* \"#utility.yul\":1651:1711   */\ntag_38:\n    /* \"#utility.yul\":1679:1682   */\n  0x00\n    /* \"#utility.yul\":1700:1705   */\n  dup2\n    /* \"#utility.yul\":1693:1705   */\n  swap1\n  pop\n    /* \"#utility.yul\":1651:1711   */\n  swap2\n  swap1\n  pop\n  jump\t// out\n    /* \"#utility.yul\":1717:1859   */\ntag_39:\n    /* \"#utility.yul\":1767:1776   */\n  0x00\n    /* \"#utility.yul\":1800:1853   */\n  tag_66\n    /* \"#utility.yul\":1818:1852   */\n  tag_67\n    /* \"#utility.yul\":1827:1851   */\n  tag_68\n    /* \"#utility.yul\":1845:1850   */\n  dup5\n    /* \"#utility.yul\":1827:1851   */\n  tag_37\n  jump\t// in\ntag_68:\n    /* \"#utility.yul\":1818:1852   */\n  tag_38\n  jump\t// in\ntag_67:\n    /* \"#utility.yul\":1800:1853   */\n  tag_37\n  jump\t// in\ntag_66:\n    /* \"#utility.yul\":1787:1853   */\n  swap1\n  pop\n    /* \"#utility.yul\":1717:1859   */\n  swap2\n  swap1\n  pop\n  jump\t// out\n    /* \"#utility.yul\":1865:1940   */\ntag_40:\n    /* \"#utility.yul\":1908:1911   */\n  0x00\n    /* \"#utility.yul\":1929:1934   */\n  dup2\n    /* \"#utility.yul\":1922:1934   */\n  swap1\n  pop\n    /* \"#utility.yul\":1865:1940   */\n  swap2\n  swap1\n  pop\n  jump\t// out\n    /* \"#utility.yul\":1946:2215   */\ntag_41:\n    /* \"#utility.yul\":2056:2095   */\n  tag_71\n    /* \"#utility.yul\":2087:2094   */\n  dup4\n    /* \"#utility.yul\":2056:2095   */\n  tag_39\n  jump\t// in\ntag_71:\n    /* \"#utility.yul\":2117:2208   */\n  tag_72\n    /* \"#utility.yul\":2166:2207   */\n  tag_73\n    /* \"#utility.yul\":2190:2206   */\n  dup3\n    /* \"#utility.yul\":2166:2207   */\n  tag_40\n  jump\t// in\ntag_73:\n    /* \"#utility.yul\":2158:2164   */\n  dup5\n    /* \"#utility.yul\":2151:2155   */\n  dup5\n    /* \"#utility.yul\":2145:2156   */\n  sload\n    /* \"#utility.yul\":2117:2208   */\n  tag_36\n  jump\t// in\ntag_72:\n    /* \"#utility.yul\":2111:2115   */\n  dup3\n    /* \"#utility.yul\":2104:2209   */\n  sstore\n    /* \"#utility.yul\":2022:2215   */\n  pop\n    /* \"#utility.yul\":1946:2215   */\n  pop\n  pop\n  pop\n  jump\t// out\n    /* \"#utility.yul\":2221:2294   */\ntag_42:\n    /* \"#utility.yul\":2266:2269   */\n  0x00\n    /* \"#utility.yul\":2221:2294   */\n  swap1\n  jump\t// out\n    /* \"#utility.yul\":2300:2489   */\ntag_43:\n    /* \"#utility.yul\":2377:2409   */\n  tag_76\n  tag_42\n  jump\t// in\ntag_76:\n    /* \"#utility.yul\":2418:2483   */\n  tag_77\n    /* \"#utility.yul\":2476:2482   */\n  dup2\n    /* \"#utility.yul\":2468:2474   */\n  dup5\n    /* \"#utility.yul\":2462:2466   */\n  dup5\n    /* \"#utility.yul\":2418:2483   */\n  tag_41\n  jump\t// in\ntag_77:\n    /* \"#utility.yul\":2353:2489   */\n  pop\n    /* \"#utility.yul\":2300:2489   */\n  pop\n  pop\n  jump\t// out\n    /* \"#utility.yul\":2495:2681   */\ntag_44:\n    /* \"#utility.yul\":2555:2675   */\ntag_79:\n    /* \"#utility.yul\":2572:2575   */\n  dup2\n    /* \"#utility.yul\":2565:2570   */\n  dup2\n    /* \"#utility.yul\":2562:2576   */\n  lt\n    /* \"#utility.yul\":2555:2675   */\n  iszero\n  tag_81\n  jumpi\n    /* \"#utility.yul\":2626:2665   */\n  tag_82\n    /* \"#utility.yul\":2663:2664   */\n  0x00\n    /* \"#utility.yul\":2656:2661   */\n  dup3\n    /* \"#utility.yul\":2626:2665   */\n  tag_43\n  jump\t// in\ntag_82:\n    /* \"#utility.yul\":2599:2600   */\n  0x01\n    /* \"#utility.yul\":2592:2597   */\n  dup2\n    /* \"#utility.yul\":2588:2601   */\n  add\n    /* \"#utility.yul\":2579:2601   */\n  swap1\n  pop\n    /* \"#utility.yul\":2555:2675   */\n  jump(tag_79)\ntag_81:\n    /* \"#utility.yul\":2495:2681   */\n  pop\n  pop\n  jump\t// out\n    /* \"#utility.yul\":2687:3230   */\ntag_45:\n    /* \"#utility.yul\":2788:2790   */\n  0x1f\n    /* \"#utility.yul\":2783:2786   */\n  dup3\n    /* \"#utility.yul\":2780:2791   */\n  gt\n    /* \"#utility.yul\":2777:3223   */\n  iszero\n  tag_84\n  jumpi\n    /* \"#utility.yul\":2822:2860   */\n  tag_85\n    /* \"#utility.yul\":2854:2859   */\n  dup2\n    /* \"#utility.yul\":2822:2860   */\n  tag_33\n  jump\t// in\ntag_85:\n    /* \"#utility.yul\":2906:2935   */\n  tag_86\n    /* \"#utility.yul\":2924:2934   */\n  dup5\n    /* \"#utility.yul\":2906:2935   */\n  tag_34\n  jump\t// in\ntag_86:\n    /* \"#utility.yul\":2896:2904   */\n  dup2\n    /* \"#utility.yul\":2892:2936   */\n  add\n    /* \"#utility.yul\":3089:3091   */\n  0x20\n    /* \"#utility.yul\":3077:3087   */\n  dup6\n    /* \"#utility.yul\":3074:3092   */\n  lt\n    /* \"#utility.yul\":3071:3120   */\n  iszero\n  tag_87\n  jumpi\n    /* \"#utility.yul\":3110:3118   */\n  dup2\n    /* \"#utility.yul\":3095:3118   */\n  swap1\n  pop\n    /* \"#utility.yul\":3071:3120   */\ntag_87:\n    /* \"#utility.yul\":3133:3213   */\n  tag_88\n    /* \"#utility.yul\":3189:3211   */\n  tag_89\n    /* \"#utility.yul\":3207:3210   */\n  dup6\n    /* \"#utility.yul\":3189:3211   */\n  tag_34\n  jump\t// in\ntag_89:\n    /* \"#utility.yul\":3179:3187   */\n  dup4\n    /* \"#utility.yul\":3175:3212   */\n  add\n    /* \"#utility.yul\":3162:3173   */\n  dup3\n    /* \"#utility.yul\":3133:3213   */\n  tag_44\n  jump\t// in\ntag_88:\n    /* \"#utility.yul\":2792:3223   */\n  pop\n  pop\n    /* \"#utility.yul\":2777:3223   */\ntag_84:\n    /* \"#utility.yul\":2687:3230   */\n  pop\n  pop\n  pop\n  jump\t// out\n    /* \"#utility.yul\":3236:3353   */\ntag_46:\n    /* \"#utility.yul\":3290:3298   */\n  0x00\n    /* \"#utility.yul\":3340:3345   */\n  dup3\n    /* \"#utility.yul\":3334:3338   */\n  dup3\n    /* \"#utility.yul\":3330:3346   */\n  shr\n    /* \"#utility.yul\":3309:3346   */\n  swap1\n  pop\n    /* \"#utility.yul\":3236:3353   */\n  swap3\n  swap2\n  pop\n  pop\n  jump\t// out\n    /* \"#utility.yul\":3359:3528   */\ntag_47:\n    /* \"#utility.yul\":3403:3409   */\n  0x00\n    /* \"#utility.yul\":3436:3487   */\n  tag_92\n    /* \"#utility.yul\":3484:3485   */\n  0x00\n    /* \"#utility.yul\":3480:3486   */\n  not\n    /* \"#utility.yul\":3472:3477   */\n  dup5\n    /* \"#utility.yul\":3469:3470   */\n  0x08\n    /* \"#utility.yul\":3465:3478   */\n  mul\n    /* \"#utility.yul\":3436:3487   */\n  tag_46\n  jump\t// in\ntag_92:\n    /* \"#utility.yul\":3432:3488   */\n  not\n    /* \"#utility.yul\":3517:3521   */\n  dup1\n    /* \"#utility.yul\":3511:3515   */\n  dup4\n    /* \"#utility.yul\":3507:3522   */\n  and\n    /* \"#utility.yul\":3497:3522   */\n  swap2\n  pop\n    /* \"#utility.yul\":3410:3528   */\n  pop\n    /* \"#utility.yul\":3359:3528   */\n  swap3\n  swap2\n  pop\n  pop\n  jump\t// out\n    /* \"#utility.yul\":3533:3828   */\ntag_48:\n    /* \"#utility.yul\":3609:3613   */\n  0x00\n    /* \"#utility.yul\":3755:3784   */\n  tag_94\n    /* \"#utility.yul\":3780:3783   */\n  dup4\n    /* \"#utility.yul\":3774:3778   */\n  dup4\n    /* \"#utility.yul\":3755:3784   */\n  tag_47\n  jump\t// in\ntag_94:\n    /* \"#utility.yul\":3747:3784   */\n  swap2\n  pop\n    /* \"#utility.yul\":3817:3820   */\n  dup3\n    /* \"#utility.yul\":3814:3815   */\n  0x02\n    /* \"#utility.yul\":3810:3821   */\n  mul\n    /* \"#utility.yul\":3804:3808   */\n  dup3\n    /* \"#utility.yul\":3801:3822   */\n  or\n    /* \"#utility.yul\":3793:3822   */\n  swap1\n  pop\n    /* \"#utility.yul\":3533:3828   */\n  swap3\n  swap2\n  pop\n  pop\n  jump\t// out\n    /* \"#utility.yul\":3833:5228   */\ntag_11:\n    /* \"#utility.yul\":3950:3987   */\n  tag_96\n    /* \"#utility.yul\":3983:3986   */\n  dup3\n    /* \"#utility.yul\":3950:3987   */\n  tag_30\n  jump\t// in\ntag_96:\n    /* \"#utility.yul\":4052:4070   */\n  0xffffffffffffffff\n    /* \"#utility.yul\":4044:4050   */\n  dup2\n    /* \"#utility.yul\":4041:4071   */\n  gt\n    /* \"#utility.yul\":4038:4094   */\n  iszero\n  tag_97\n  jumpi\n    /* \"#utility.yul\":4074:4092   */\n  tag_98\n  tag_31\n  jump\t// in\ntag_98:\n    /* \"#utility.yul\":4038:4094   */\ntag_97:\n    /* \"#utility.yul\":4118:4156   */\n  tag_99\n    /* \"#utility.yul\":4150:4154   */\n  dup3\n    /* \"#utility.yul\":4144:4155   */\n  sload\n    /* \"#utility.yul\":4118:4156   */\n  tag_26\n  jump\t// in\ntag_99:\n    /* \"#utility.yul\":4203:4270   */\n  tag_100\n    /* \"#utility.yul\":4263:4269   */\n  dup3\n    /* \"#utility.yul\":4255:4261   */\n  dup3\n    /* \"#utility.yul\":4249:4253   */\n  dup6\n    /* \"#utility.yul\":4203:4270   */\n  tag_45\n  jump\t// in\ntag_100:\n    /* \"#utility.yul\":4297:4298   */\n  0x00\n    /* \"#utility.yul\":4321:4325   */\n  0x20\n    /* \"#utility.yul\":4308:4325   */\n  swap1\n  pop\n    /* \"#utility.yul\":4353:4355   */\n  0x1f\n    /* \"#utility.yul\":4345:4351   */\n  dup4\n    /* \"#utility.yul\":4342:4356   */\n  gt\n    /* \"#utility.yul\":4370:4371   */\n  0x01\n    /* \"#utility.yul\":4365:4983   */\n  dup2\n  eq\n  tag_102\n  jumpi\n    /* \"#utility.yul\":5027:5028   */\n  0x00\n    /* \"#utility.yul\":5044:5050   */\n  dup5\n    /* \"#utility.yul\":5041:5118   */\n  iszero\n  tag_103\n  jumpi\n    /* \"#utility.yul\":5093:5102   */\n  dup3\n    /* \"#utility.yul\":5088:5091   */\n  dup8\n    /* \"#utility.yul\":5084:5103   */\n  add\n    /* \"#utility.yul\":5078:5104   */\n  mload\n    /* \"#utility.yul\":5069:5104   */\n  swap1\n  pop\n    /* \"#utility.yul\":5041:5118   */\ntag_103:\n    /* \"#utility.yul\":5144:5211   */\n  tag_104\n    /* \"#utility.yul\":5204:5210   */\n  dup6\n    /* \"#utility.yul\":5197:5202   */\n  dup3\n    /* \"#utility.yul\":5144:5211   */\n  tag_48\n  jump\t// in\ntag_104:\n    /* \"#utility.yul\":5138:5142   */\n  dup7\n    /* \"#utility.yul\":5131:5212   */\n  sstore\n    /* \"#utility.yul\":5000:5222   */\n  pop\n    /* \"#utility.yul\":4335:5222   */\n  jump(tag_101)\n    /* \"#utility.yul\":4365:4983   */\ntag_102:\n    /* \"#utility.yul\":4417:4421   */\n  0x1f\n    /* \"#utility.yul\":4413:4422   */\n  not\n    /* \"#utility.yul\":4405:4411   */\n  dup5\n    /* \"#utility.yul\":4401:4423   */\n  and\n    /* \"#utility.yul\":4451:4488   */\n  tag_105\n    /* \"#utility.yul\":4483:4487   */\n  dup7\n    /* \"#utility.yul\":4451:4488   */\n  tag_33\n  jump\t// in\ntag_105:\n    /* \"#utility.yul\":4510:4511   */\n  0x00\n    /* \"#utility.yul\":4524:4732   */\ntag_106:\n    /* \"#utility.yul\":4538:4545   */\n  dup3\n    /* \"#utility.yul\":4535:4536   */\n  dup2\n    /* \"#utility.yul\":4532:4546   */\n  lt\n    /* \"#utility.yul\":4524:4732   */\n  iszero\n  tag_108\n  jumpi\n    /* \"#utility.yul\":4617:4626   */\n  dup5\n    /* \"#utility.yul\":4612:4615   */\n  dup10\n    /* \"#utility.yul\":4608:4627   */\n  add\n    /* \"#utility.yul\":4602:4628   */\n  mload\n    /* \"#utility.yul\":4594:4600   */\n  dup3\n    /* \"#utility.yul\":4587:4629   */\n  sstore\n    /* \"#utility.yul\":4668:4669   */\n  0x01\n    /* \"#utility.yul\":4660:4666   */\n  dup3\n    /* \"#utility.yul\":4656:4670   */\n  add\n    /* \"#utility.yul\":4646:4670   */\n  swap2\n  pop\n    /* \"#utility.yul\":4715:4717   */\n  0x20\n    /* \"#utility.yul\":4704:4713   */\n  dup6\n    /* \"#utility.yul\":4700:4718   */\n  add\n    /* \"#utility.yul\":4687:4718   */\n  swap5\n  pop\n    /* \"#utility.yul\":4561:4565   */\n  0x20\n    /* \"#utility.yul\":4558:4559   */\n  dup2\n    /* \"#utility.yul\":4554:4566   */\n  add\n    /* \"#utility.yul\":4549:4566   */\n  swap1\n  pop\n    /* \"#utility.yul\":4524:4732   */\n  jump(tag_106)\ntag_108:\n    /* \"#utility.yul\":4760:4766   */\n  dup7\n    /* \"#utility.yul\":4751:4758   */\n  dup4\n    /* \"#utility.yul\":4748:4767   */\n  lt\n    /* \"#utility.yul\":4745:4924   */\n  iszero\n  tag_109\n  jumpi\n    /* \"#utility.yul\":4818:4827   */\n  dup5\n    /* \"#utility.yul\":4813:4816   */\n  dup10\n    /* \"#utility.yul\":4809:4828   */\n  add\n    /* \"#utility.yul\":4803:4829   */\n  mload\n    /* \"#utility.yul\":4861:4909   */\n  tag_110\n    /* \"#utility.yul\":4903:4907   */\n  0x1f\n    /* \"#utility.yul\":4895:4901   */\n  dup10\n    /* \"#utility.yul\":4891:4908   */\n  and\n    /* \"#utility.yul\":4880:4889   */\n  dup3\n    /* \"#utility.yul\":4861:4909   */\n  tag_47\n  jump\t// in\ntag_110:\n    /* \"#utility.yul\":4853:4859   */\n  dup4\n    /* \"#utility.yul\":4846:4910   */\n  sstore\n    /* \"#utility.yul\":4768:4924   */\n  pop\n    /* \"#utility.yul\":4745:4924   */\ntag_109:\n    /* \"#utility.yul\":4970:4971   */\n  0x01\n    /* \"#utility.yul\":4966:4967   */\n  0x02\n    /* \"#utility.yul\":4958:4964   */\n  dup9\n    /* \"#utility.yul\":4954:4968   */\n  mul\n    /* \"#utility.yul\":4950:4972   */\n  add\n    /* \"#utility.yul\":4944:4948   */\n  dup9\n    /* \"#utility.yul\":4937:4973   */\n  sstore\n    /* \"#utility.yul\":4372:4983   */\n  pop\n  pop\n  pop\n    /* \"#utility.yul\":4335:5222   */\ntag_101:\n  pop\n    /* \"#utility.yul\":3925:5228   */\n  pop\n  pop\n  pop\n    /* \"#utility.yul\":3833:5228   */\n  pop\n  pop\n  jump\t// out\n    /* \"contracts/AusAML.sol\":93:2963  contract AusAML{... */\ntag_6:\n  dataSize(sub_0)\n  dup1\n  dataOffset(sub_0)\n  0x00\n  codecopy\n  0x00\n  return\nstop\n\nsub_0: assembly {\n        /* \"contracts/AusAML.sol\":93:2963  contract AusAML{... */\n      mstore(0x40, 0x80)\n      jumpi(tag_1, lt(calldatasize, 0x04))\n      shr(0xe0, calldataload(0x00))\n      dup1\n      0x083a0615\n      eq\n      tag_2\n      jumpi\n      dup1\n      0xbd799295\n      eq\n      tag_3\n      jumpi\n      dup1\n      0xdd0ae4d6\n      eq\n      tag_4\n      jumpi\n      dup1\n      0xf9e26ef6\n      eq\n      tag_5\n      jumpi\n    tag_1:\n      0x00\n      dup1\n      revert\n        /* \"contracts/AusAML.sol\":2329:2960  function checkWantedIndividual(... */\n    tag_2:\n      callvalue\n      dup1\n      iszero\n      tag_6\n      jumpi\n      0x00\n      dup1\n      revert\n    tag_6:\n      pop\n      tag_7\n      0x04\n      dup1\n      calldatasize\n      sub\n      dup2\n      add\n      swap1\n      tag_8\n      swap2\n      swap1\n      tag_9\n      jump\t// in\n    tag_8:\n      tag_10\n      jump\t// in\n    tag_7:\n      mload(0x40)\n      tag_11\n      swap2\n      swap1\n      tag_12\n      jump\t// in\n    tag_11:\n      mload(0x40)\n      dup1\n      swap2\n      sub\n      swap1\n      return\n        /* \"contracts/AusAML.sol\":1938:2321  function checkAmt(address payable sender, uint256 amount)... */\n    tag_3:\n      tag_13\n      0x04\n      dup1\n      calldatasize\n      sub\n      dup2\n      add\n      swap1\n      tag_14\n      swap2\n      swap1\n      tag_15\n      jump\t// in\n    tag_14:\n      tag_16\n      jump\t// in\n    tag_13:\n      mload(0x40)\n      tag_17\n      swap2\n      swap1\n      tag_12\n      jump\t// in\n    tag_17:\n      mload(0x40)\n      dup1\n      swap2\n      sub\n      swap1\n      return\n        /* \"contracts/AusAML.sol\":632:1458  function checkNationality(... */\n    tag_4:\n      callvalue\n      dup1\n      iszero\n      tag_18\n      jumpi\n      0x00\n      dup1\n      revert\n    tag_18:\n      pop\n      tag_19\n      0x04\n      dup1\n      calldatasize\n      sub\n      dup2\n      add\n      swap1\n      tag_20\n      swap2\n      swap1\n      tag_9\n      jump\t// in\n    tag_20:\n      tag_21\n      jump\t// in\n    tag_19:\n      mload(0x40)\n      tag_22\n      swap2\n      swap1\n      tag_12\n      jump\t// in\n    tag_22:\n      mload(0x40)\n      dup1\n      swap2\n      sub\n      swap1\n      return\n        /* \"contracts/AusAML.sol\":1466:1930  function checkPoliticalStatus(... */\n    tag_5:\n      callvalue\n      dup1\n      iszero\n      tag_23\n      jumpi\n      0x00\n      dup1\n      revert\n    tag_23:\n      pop\n      tag_24\n      0x04\n      dup1\n      calldatasize\n      sub\n      dup2\n      add\n      swap1\n      tag_25\n      swap2\n      swap1\n      tag_9\n      jump\t// in\n    tag_25:\n      tag_26\n      jump\t// in\n    tag_24:\n      mload(0x40)\n      tag_27\n      swap2\n      swap1\n      tag_12\n      jump\t// in\n    tag_27:\n      mload(0x40)\n      dup1\n      swap2\n      sub\n      swap1\n      return\n        /* \"contracts/AusAML.sol\":2329:2960  function checkWantedIndividual(... */\n    tag_10:\n        /* \"contracts/AusAML.sol\":2511:2515  bool */\n      0x00\n        /* \"contracts/AusAML.sol\":2533:2542  uint256 i */\n      dup1\n        /* \"contracts/AusAML.sol\":2545:2546  0 */\n      0x00\n        /* \"contracts/AusAML.sol\":2533:2546  uint256 i = 0 */\n      swap1\n      pop\n        /* \"contracts/AusAML.sol\":2528:2930  for (uint256 i = 0; i < wantedIndividuals.length; i++) {... */\n    tag_29:\n        /* \"contracts/AusAML.sol\":2552:2569  wantedIndividuals */\n      0x01\n        /* \"contracts/AusAML.sol\":2552:2576  wantedIndividuals.length */\n      dup1\n      sload\n      swap1\n      pop\n        /* \"contracts/AusAML.sol\":2548:2549  i */\n      dup2\n        /* \"contracts/AusAML.sol\":2548:2576  i < wantedIndividuals.length */\n      lt\n        /* \"contracts/AusAML.sol\":2528:2930  for (uint256 i = 0; i < wantedIndividuals.length; i++) {... */\n      iszero\n      tag_30\n      jumpi\n        /* \"contracts/AusAML.sol\":2645:2659  senderUserInfo */\n      dup4\n        /* \"contracts/AusAML.sol\":2645:2671  senderUserInfo.userAddress */\n      0x00\n      add\n      mload\n        /* \"contracts/AusAML.sol\":2621:2671  wantedIndividuals[i] == senderUserInfo.userAddress */\n      0xffffffffffffffffffffffffffffffffffffffff\n      and\n        /* \"contracts/AusAML.sol\":2621:2638  wantedIndividuals */\n      0x01\n        /* \"contracts/AusAML.sol\":2639:2640  i */\n      dup3\n        /* \"contracts/AusAML.sol\":2621:2641  wantedIndividuals[i] */\n      dup2\n      sload\n      dup2\n      lt\n      tag_32\n      jumpi\n      tag_33\n      tag_34\n      jump\t// in\n    tag_33:\n    tag_32:\n      swap1\n      0x00\n      mstore\n      keccak256(0x00, 0x20)\n      add\n      0x00\n      swap1\n      sload\n      swap1\n      0x0100\n      exp\n      swap1\n      div\n      0xffffffffffffffffffffffffffffffffffffffff\n      and\n        /* \"contracts/AusAML.sol\":2621:2671  wantedIndividuals[i] == senderUserInfo.userAddress */\n      0xffffffffffffffffffffffffffffffffffffffff\n      and\n      eq\n        /* \"contracts/AusAML.sol\":2620:2747  (wantedIndividuals[i] == senderUserInfo.userAddress) ||... */\n      dup1\n      tag_36\n      jumpi\n      pop\n        /* \"contracts/AusAML.sol\":2718:2734  receiverUserInfo */\n      dup3\n        /* \"contracts/AusAML.sol\":2718:2746  receiverUserInfo.userAddress */\n      0x00\n      add\n      mload\n        /* \"contracts/AusAML.sol\":2694:2746  wantedIndividuals[i] == receiverUserInfo.userAddress */\n      0xffffffffffffffffffffffffffffffffffffffff\n      and\n        /* \"contracts/AusAML.sol\":2694:2711  wantedIndividuals */\n      0x01\n        /* \"contracts/AusAML.sol\":2712:2713  i */\n      dup3\n        /* \"contracts/AusAML.sol\":2694:2714  wantedIndividuals[i] */\n      dup2\n      sload\n      dup2\n      lt\n      tag_37\n      jumpi\n      tag_38\n      tag_34\n      jump\t// in\n    tag_38:\n    tag_37:\n      swap1\n      0x00\n      mstore\n      keccak256(0x00, 0x20)\n      add\n      0x00\n      swap1\n      sload\n      swap1\n      0x0100\n      exp\n      swap1\n      div\n      0xffffffffffffffffffffffffffffffffffffffff\n      and\n        /* \"contracts/AusAML.sol\":2694:2746  wantedIndividuals[i] == receiverUserInfo.userAddress */\n      0xffffffffffffffffffffffffffffffffffffffff\n      and\n      eq\n        /* \"contracts/AusAML.sol\":2620:2747  (wantedIndividuals[i] == senderUserInfo.userAddress) ||... */\n    tag_36:\n        /* \"contracts/AusAML.sol\":2598:2919  if (... */\n      iszero\n      tag_40\n      jumpi\n        /* \"contracts/AusAML.sol\":2805:2873  CreateWantedIndividualErrorLog(\"wanted Individual\", block.timestamp) */\n      0x3eb7b4618223a419acf4654a8ccab76f089242b23c05eb5ca310e68779589f13\n        /* \"contracts/AusAML.sol\":2857:2872  block.timestamp */\n      timestamp\n        /* \"contracts/AusAML.sol\":2805:2873  CreateWantedIndividualErrorLog(\"wanted Individual\", block.timestamp) */\n      mload(0x40)\n      tag_41\n      swap2\n      swap1\n      tag_42\n      jump\t// in\n    tag_41:\n      mload(0x40)\n      dup1\n      swap2\n      sub\n      swap1\n      log1\n        /* \"contracts/AusAML.sol\":2899:2903  true */\n      0x01\n        /* \"contracts/AusAML.sol\":2892:2903  return true */\n      swap2\n      pop\n      pop\n      jump(tag_28)\n        /* \"contracts/AusAML.sol\":2598:2919  if (... */\n    tag_40:\n        /* \"contracts/AusAML.sol\":2578:2581  i++ */\n      dup1\n      dup1\n      tag_43\n      swap1\n      tag_44\n      jump\t// in\n    tag_43:\n      swap2\n      pop\n      pop\n        /* \"contracts/AusAML.sol\":2528:2930  for (uint256 i = 0; i < wantedIndividuals.length; i++) {... */\n      jump(tag_29)\n    tag_30:\n      pop\n        /* \"contracts/AusAML.sol\":2947:2952  false */\n      0x00\n        /* \"contracts/AusAML.sol\":2940:2952  return false */\n      swap1\n      pop\n        /* \"contracts/AusAML.sol\":2329:2960  function checkWantedIndividual(... */\n    tag_28:\n      swap3\n      swap2\n      pop\n      pop\n      jump\t// out\n        /* \"contracts/AusAML.sol\":1938:2321  function checkAmt(address payable sender, uint256 amount)... */\n    tag_16:\n        /* \"contracts/AusAML.sol\":2047:2051  bool */\n      0x00\n        /* \"contracts/AusAML.sol\":2082:2091  maxAmount */\n      sload(0x02)\n        /* \"contracts/AusAML.sol\":2073:2079  amount */\n      dup3\n        /* \"contracts/AusAML.sol\":2073:2091  amount > maxAmount */\n      gt\n        /* \"contracts/AusAML.sol\":2069:2257  if (amount > maxAmount) {... */\n      iszero\n      tag_46\n      jumpi\n        /* \"contracts/AusAML.sol\":2108:2114  sender */\n      dup3\n        /* \"contracts/AusAML.sol\":2108:2123  sender.transfer */\n      0xffffffffffffffffffffffffffffffffffffffff\n      and\n        /* \"contracts/AusAML.sol\":2108:2131  sender.transfer(amount) */\n      0x08fc\n        /* \"contracts/AusAML.sol\":2124:2130  amount */\n      dup4\n        /* \"contracts/AusAML.sol\":2108:2131  sender.transfer(amount) */\n      swap1\n      dup2\n      iszero\n      mul\n      swap1\n      mload(0x40)\n      0x00\n      mload(0x40)\n      dup1\n      dup4\n      sub\n      dup2\n      dup6\n      dup9\n      dup9\n      call\n      swap4\n      pop\n      pop\n      pop\n      pop\n      iszero\n      dup1\n      iszero\n      tag_48\n      jumpi\n      returndatasize\n      0x00\n      dup1\n      returndatacopy\n      revert(0x00, returndatasize)\n    tag_48:\n      pop\n        /* \"contracts/AusAML.sol\":2151:2219  CreateExceededMaxAmtErrorLog(\"Exceeded Max Amount\", block.timestamp) */\n      0x695633452b1d0063d6f5ae521db19faef8382a4f1d9896180fed154ab1f54c25\n        /* \"contracts/AusAML.sol\":2203:2218  block.timestamp */\n      timestamp\n        /* \"contracts/AusAML.sol\":2151:2219  CreateExceededMaxAmtErrorLog(\"Exceeded Max Amount\", block.timestamp) */\n      mload(0x40)\n      tag_49\n      swap2\n      swap1\n      tag_50\n      jump\t// in\n    tag_49:\n      mload(0x40)\n      dup1\n      swap2\n      sub\n      swap1\n      log1\n        /* \"contracts/AusAML.sol\":2241:2245  true */\n      0x01\n        /* \"contracts/AusAML.sol\":2234:2245  return true */\n      swap1\n      pop\n      jump(tag_45)\n        /* \"contracts/AusAML.sol\":2069:2257  if (amount > maxAmount) {... */\n    tag_46:\n        /* \"contracts/AusAML.sol\":2267:2273  sender */\n      dup3\n        /* \"contracts/AusAML.sol\":2267:2282  sender.transfer */\n      0xffffffffffffffffffffffffffffffffffffffff\n      and\n        /* \"contracts/AusAML.sol\":2267:2290  sender.transfer(amount) */\n      0x08fc\n        /* \"contracts/AusAML.sol\":2283:2289  amount */\n      dup4\n        /* \"contracts/AusAML.sol\":2267:2290  sender.transfer(amount) */\n      swap1\n      dup2\n      iszero\n      mul\n      swap1\n      mload(0x40)\n      0x00\n      mload(0x40)\n      dup1\n      dup4\n      sub\n      dup2\n      dup6\n      dup9\n      dup9\n      call\n      swap4\n      pop\n      pop\n      pop\n      pop\n      iszero\n      dup1\n      iszero\n      tag_52\n      jumpi\n      returndatasize\n      0x00\n      dup1\n      returndatacopy\n      revert(0x00, returndatasize)\n    tag_52:\n      pop\n        /* \"contracts/AusAML.sol\":2308:2313  false */\n      0x00\n        /* \"contracts/AusAML.sol\":2301:2313  return false */\n      swap1\n      pop\n        /* \"contracts/AusAML.sol\":1938:2321  function checkAmt(address payable sender, uint256 amount)... */\n    tag_45:\n      swap3\n      swap2\n      pop\n      pop\n      jump\t// out\n        /* \"contracts/AusAML.sol\":632:1458  function checkNationality(... */\n    tag_21:\n        /* \"contracts/AusAML.sol\":809:813  bool */\n      0x00\n        /* \"contracts/AusAML.sol\":886:895  uint256 i */\n      dup1\n        /* \"contracts/AusAML.sol\":898:899  0 */\n      0x00\n        /* \"contracts/AusAML.sol\":886:899  uint256 i = 0 */\n      swap1\n      pop\n        /* \"contracts/AusAML.sol\":881:1428  for (uint256 i = 0; i < bannedCountries.length; i++) {... */\n    tag_54:\n        /* \"contracts/AusAML.sol\":905:920  bannedCountries */\n      0x00\n        /* \"contracts/AusAML.sol\":905:927  bannedCountries.length */\n      dup1\n      sload\n      swap1\n      pop\n        /* \"contracts/AusAML.sol\":901:902  i */\n      dup2\n        /* \"contracts/AusAML.sol\":901:927  i < bannedCountries.length */\n      lt\n        /* \"contracts/AusAML.sol\":881:1428  for (uint256 i = 0; i < bannedCountries.length; i++) {... */\n      iszero\n      tag_55\n      jumpi\n        /* \"contracts/AusAML.sol\":1066:1080  senderUserInfo */\n      dup4\n        /* \"contracts/AusAML.sol\":1066:1092  senderUserInfo.nationality */\n      0xc0\n      add\n      mload\n        /* \"contracts/AusAML.sol\":1049:1093  abi.encodePacked(senderUserInfo.nationality) */\n      add(0x20, mload(0x40))\n      tag_57\n      swap2\n      swap1\n      tag_58\n      jump\t// in\n    tag_57:\n      mload(0x40)\n      0x20\n      dup2\n      dup4\n      sub\n      sub\n      dup2\n      mstore\n      swap1\n      0x40\n      mstore\n        /* \"contracts/AusAML.sol\":1039:1094  keccak256(abi.encodePacked(senderUserInfo.nationality)) */\n      dup1\n      mload\n      swap1\n      0x20\n      add\n      keccak256\n        /* \"contracts/AusAML.sol\":998:1013  bannedCountries */\n      0x00\n        /* \"contracts/AusAML.sol\":1014:1015  i */\n      dup3\n        /* \"contracts/AusAML.sol\":998:1016  bannedCountries[i] */\n      dup2\n      sload\n      dup2\n      lt\n      tag_59\n      jumpi\n      tag_60\n      tag_34\n      jump\t// in\n    tag_60:\n    tag_59:\n      swap1\n      0x00\n      mstore\n      keccak256(0x00, 0x20)\n      add\n        /* \"contracts/AusAML.sol\":981:1017  abi.encodePacked(bannedCountries[i]) */\n      add(0x20, mload(0x40))\n      tag_62\n      swap2\n      swap1\n      tag_63\n      jump\t// in\n    tag_62:\n      mload(0x40)\n      0x20\n      dup2\n      dup4\n      sub\n      sub\n      dup2\n      mstore\n      swap1\n      0x40\n      mstore\n        /* \"contracts/AusAML.sol\":971:1018  keccak256(abi.encodePacked(bannedCountries[i])) */\n      dup1\n      mload\n      swap1\n      0x20\n      add\n      keccak256\n        /* \"contracts/AusAML.sol\":971:1094  keccak256(abi.encodePacked(bannedCountries[i])) ==... */\n      eq\n        /* \"contracts/AusAML.sol\":971:1240  keccak256(abi.encodePacked(bannedCountries[i])) ==... */\n      dup1\n      tag_64\n      jumpi\n      pop\n        /* \"contracts/AusAML.sol\":1210:1226  receiverUserInfo */\n      dup3\n        /* \"contracts/AusAML.sol\":1210:1238  receiverUserInfo.nationality */\n      0xc0\n      add\n      mload\n        /* \"contracts/AusAML.sol\":1193:1239  abi.encodePacked(receiverUserInfo.nationality) */\n      add(0x20, mload(0x40))\n      tag_65\n      swap2\n      swap1\n      tag_58\n      jump\t// in\n    tag_65:\n      mload(0x40)\n      0x20\n      dup2\n      dup4\n      sub\n      sub\n      dup2\n      mstore\n      swap1\n      0x40\n      mstore\n        /* \"contracts/AusAML.sol\":1183:1240  keccak256(abi.encodePacked(receiverUserInfo.nationality)) */\n      dup1\n      mload\n      swap1\n      0x20\n      add\n      keccak256\n        /* \"contracts/AusAML.sol\":1142:1157  bannedCountries */\n      0x00\n        /* \"contracts/AusAML.sol\":1158:1159  i */\n      dup3\n        /* \"contracts/AusAML.sol\":1142:1160  bannedCountries[i] */\n      dup2\n      sload\n      dup2\n      lt\n      tag_66\n      jumpi\n      tag_67\n      tag_34\n      jump\t// in\n    tag_67:\n    tag_66:\n      swap1\n      0x00\n      mstore\n      keccak256(0x00, 0x20)\n      add\n        /* \"contracts/AusAML.sol\":1125:1161  abi.encodePacked(bannedCountries[i]) */\n      add(0x20, mload(0x40))\n      tag_69\n      swap2\n      swap1\n      tag_63\n      jump\t// in\n    tag_69:\n      mload(0x40)\n      0x20\n      dup2\n      dup4\n      sub\n      sub\n      dup2\n      mstore\n      swap1\n      0x40\n      mstore\n        /* \"contracts/AusAML.sol\":1115:1162  keccak256(abi.encodePacked(bannedCountries[i])) */\n      dup1\n      mload\n      swap1\n      0x20\n      add\n      keccak256\n        /* \"contracts/AusAML.sol\":1115:1240  keccak256(abi.encodePacked(bannedCountries[i])) ==... */\n      eq\n        /* \"contracts/AusAML.sol\":971:1240  keccak256(abi.encodePacked(bannedCountries[i])) ==... */\n    tag_64:\n        /* \"contracts/AusAML.sol\":949:1417  if (... */\n      iszero\n      tag_70\n      jumpi\n        /* \"contracts/AusAML.sol\":1282:1369  CreateNationalityErrorLog(\"User's Nationality is in banned countries\", block.timestamp) */\n      0x51d9a94b04f50acc666f49c396523e970bfb47916f94955849977c62fc0e8e0b\n        /* \"contracts/AusAML.sol\":1353:1368  block.timestamp */\n      timestamp\n        /* \"contracts/AusAML.sol\":1282:1369  CreateNationalityErrorLog(\"User's Nationality is in banned countries\", block.timestamp) */\n      mload(0x40)\n      tag_71\n      swap2\n      swap1\n      tag_72\n      jump\t// in\n    tag_71:\n      mload(0x40)\n      dup1\n      swap2\n      sub\n      swap1\n      log1\n        /* \"contracts/AusAML.sol\":1397:1401  true */\n      0x01\n        /* \"contracts/AusAML.sol\":1390:1401  return true */\n      swap2\n      pop\n      pop\n      jump(tag_53)\n        /* \"contracts/AusAML.sol\":949:1417  if (... */\n    tag_70:\n        /* \"contracts/AusAML.sol\":929:932  i++ */\n      dup1\n      dup1\n      tag_73\n      swap1\n      tag_44\n      jump\t// in\n    tag_73:\n      swap2\n      pop\n      pop\n        /* \"contracts/AusAML.sol\":881:1428  for (uint256 i = 0; i < bannedCountries.length; i++) {... */\n      jump(tag_54)\n    tag_55:\n      pop\n        /* \"contracts/AusAML.sol\":1445:1450  false */\n      0x00\n        /* \"contracts/AusAML.sol\":1438:1450  return false */\n      swap1\n      pop\n        /* \"contracts/AusAML.sol\":632:1458  function checkNationality(... */\n    tag_53:\n      swap3\n      swap2\n      pop\n      pop\n      jump\t// out\n        /* \"contracts/AusAML.sol\":1466:1930  function checkPoliticalStatus(... */\n    tag_26:\n        /* \"contracts/AusAML.sol\":1647:1651  bool */\n      0x00\n        /* \"contracts/AusAML.sol\":1669:1683  senderUserInfo */\n      dup3\n        /* \"contracts/AusAML.sol\":1669:1704  senderUserInfo.isPoliticallyExposed */\n      0xe0\n      add\n      mload\n        /* \"contracts/AusAML.sol\":1669:1745  senderUserInfo.isPoliticallyExposed || receiverUserInfo.isPoliticallyExposed */\n      dup1\n      tag_75\n      jumpi\n      pop\n        /* \"contracts/AusAML.sol\":1708:1724  receiverUserInfo */\n      dup2\n        /* \"contracts/AusAML.sol\":1708:1745  receiverUserInfo.isPoliticallyExposed */\n      0xe0\n      add\n      mload\n        /* \"contracts/AusAML.sol\":1669:1745  senderUserInfo.isPoliticallyExposed || receiverUserInfo.isPoliticallyExposed */\n    tag_75:\n        /* \"contracts/AusAML.sol\":1666:1884  if(senderUserInfo.isPoliticallyExposed || receiverUserInfo.isPoliticallyExposed){... */\n      iszero\n      tag_76\n      jumpi\n        /* \"contracts/AusAML.sol\":1766:1846  CreatePoliticallyExposedErrorLog(\"User is politically exposed\", block.timestamp) */\n      0x6f0574c43ca8dc8a1e98aa228b41dd7b659ec8f259189f8bfa33ed065dd30df9\n        /* \"contracts/AusAML.sol\":1830:1845  block.timestamp */\n      timestamp\n        /* \"contracts/AusAML.sol\":1766:1846  CreatePoliticallyExposedErrorLog(\"User is politically exposed\", block.timestamp) */\n      mload(0x40)\n      tag_77\n      swap2\n      swap1\n      tag_78\n      jump\t// in\n    tag_77:\n      mload(0x40)\n      dup1\n      swap2\n      sub\n      swap1\n      log1\n        /* \"contracts/AusAML.sol\":1868:1872  true */\n      0x01\n        /* \"contracts/AusAML.sol\":1861:1872  return true */\n      swap1\n      pop\n      jump(tag_74)\n        /* \"contracts/AusAML.sol\":1666:1884  if(senderUserInfo.isPoliticallyExposed || receiverUserInfo.isPoliticallyExposed){... */\n    tag_76:\n        /* \"contracts/AusAML.sol\":1903:1908  false */\n      0x00\n        /* \"contracts/AusAML.sol\":1896:1908  return false */\n      swap1\n      pop\n        /* \"contracts/AusAML.sol\":1466:1930  function checkPoliticalStatus(... */\n    tag_74:\n      swap3\n      swap2\n      pop\n      pop\n      jump\t// out\n        /* \"#utility.yul\":7:82   */\n    tag_79:\n        /* \"#utility.yul\":40:46   */\n      0x00\n        /* \"#utility.yul\":73:75   */\n      0x40\n        /* \"#utility.yul\":67:76   */\n      mload\n        /* \"#utility.yul\":57:76   */\n      swap1\n      pop\n        /* \"#utility.yul\":7:82   */\n      swap1\n      jump\t// out\n        /* \"#utility.yul\":88:205   */\n    tag_80:\n        /* \"#utility.yul\":197:198   */\n      0x00\n        /* \"#utility.yul\":194:195   */\n      dup1\n        /* \"#utility.yul\":187:199   */\n      revert\n        /* \"#utility.yul\":211:328   */\n    tag_81:\n        /* \"#utility.yul\":320:321   */\n      0x00\n        /* \"#utility.yul\":317:318   */\n      dup1\n        /* \"#utility.yul\":310:322   */\n      revert\n        /* \"#utility.yul\":334:451   */\n    tag_82:\n        /* \"#utility.yul\":443:444   */\n      0x00\n        /* \"#utility.yul\":440:441   */\n      dup1\n        /* \"#utility.yul\":433:445   */\n      revert\n        /* \"#utility.yul\":457:559   */\n    tag_83:\n        /* \"#utility.yul\":498:504   */\n      0x00\n        /* \"#utility.yul\":549:551   */\n      0x1f\n        /* \"#utility.yul\":545:552   */\n      not\n        /* \"#utility.yul\":540:542   */\n      0x1f\n        /* \"#utility.yul\":533:538   */\n      dup4\n        /* \"#utility.yul\":529:543   */\n      add\n        /* \"#utility.yul\":525:553   */\n      and\n        /* \"#utility.yul\":515:553   */\n      swap1\n      pop\n        /* \"#utility.yul\":457:559   */\n      swap2\n      swap1\n      pop\n      jump\t// out\n        /* \"#utility.yul\":565:745   */\n    tag_84:\n        /* \"#utility.yul\":613:690   */\n      0x4e487b7100000000000000000000000000000000000000000000000000000000\n        /* \"#utility.yul\":610:611   */\n      0x00\n        /* \"#utility.yul\":603:691   */\n      mstore\n        /* \"#utility.yul\":710:714   */\n      0x41\n        /* \"#utility.yul\":707:708   */\n      0x04\n        /* \"#utility.yul\":700:715   */\n      mstore\n        /* \"#utility.yul\":734:738   */\n      0x24\n        /* \"#utility.yul\":731:732   */\n      0x00\n        /* \"#utility.yul\":724:739   */\n      revert\n        /* \"#utility.yul\":751:1032   */\n    tag_85:\n        /* \"#utility.yul\":834:861   */\n      tag_136\n        /* \"#utility.yul\":856:860   */\n      dup3\n        /* \"#utility.yul\":834:861   */\n      tag_83\n      jump\t// in\n    tag_136:\n        /* \"#utility.yul\":826:832   */\n      dup2\n        /* \"#utility.yul\":822:862   */\n      add\n        /* \"#utility.yul\":964:970   */\n      dup2\n        /* \"#utility.yul\":952:962   */\n      dup2\n        /* \"#utility.yul\":949:971   */\n      lt\n        /* \"#utility.yul\":928:946   */\n      0xffffffffffffffff\n        /* \"#utility.yul\":916:926   */\n      dup3\n        /* \"#utility.yul\":913:947   */\n      gt\n        /* \"#utility.yul\":910:972   */\n      or\n        /* \"#utility.yul\":907:995   */\n      iszero\n      tag_137\n      jumpi\n        /* \"#utility.yul\":975:993   */\n      tag_138\n      tag_84\n      jump\t// in\n    tag_138:\n        /* \"#utility.yul\":907:995   */\n    tag_137:\n        /* \"#utility.yul\":1015:1025   */\n      dup1\n        /* \"#utility.yul\":1011:1013   */\n      0x40\n        /* \"#utility.yul\":1004:1026   */\n      mstore\n        /* \"#utility.yul\":794:1032   */\n      pop\n        /* \"#utility.yul\":751:1032   */\n      pop\n      pop\n      jump\t// out\n        /* \"#utility.yul\":1038:1167   */\n    tag_86:\n        /* \"#utility.yul\":1072:1078   */\n      0x00\n        /* \"#utility.yul\":1099:1119   */\n      tag_140\n      tag_79\n      jump\t// in\n    tag_140:\n        /* \"#utility.yul\":1089:1119   */\n      swap1\n      pop\n        /* \"#utility.yul\":1128:1161   */\n      tag_141\n        /* \"#utility.yul\":1156:1160   */\n      dup3\n        /* \"#utility.yul\":1148:1154   */\n      dup3\n        /* \"#utility.yul\":1128:1161   */\n      tag_85\n      jump\t// in\n    tag_141:\n        /* \"#utility.yul\":1038:1167   */\n      swap2\n      swap1\n      pop\n      jump\t// out\n        /* \"#utility.yul\":1173:1290   */\n    tag_87:\n        /* \"#utility.yul\":1282:1283   */\n      0x00\n        /* \"#utility.yul\":1279:1280   */\n      dup1\n        /* \"#utility.yul\":1272:1284   */\n      revert\n        /* \"#utility.yul\":1296:1422   */\n    tag_88:\n        /* \"#utility.yul\":1333:1340   */\n      0x00\n        /* \"#utility.yul\":1373:1415   */\n      0xffffffffffffffffffffffffffffffffffffffff\n        /* \"#utility.yul\":1366:1371   */\n      dup3\n        /* \"#utility.yul\":1362:1416   */\n      and\n        /* \"#utility.yul\":1351:1416   */\n      swap1\n      pop\n        /* \"#utility.yul\":1296:1422   */\n      swap2\n      swap1\n      pop\n      jump\t// out\n        /* \"#utility.yul\":1428:1524   */\n    tag_89:\n        /* \"#utility.yul\":1465:1472   */\n      0x00\n        /* \"#utility.yul\":1494:1518   */\n      tag_145\n        /* \"#utility.yul\":1512:1517   */\n      dup3\n        /* \"#utility.yul\":1494:1518   */\n      tag_88\n      jump\t// in\n    tag_145:\n        /* \"#utility.yul\":1483:1518   */\n      swap1\n      pop\n        /* \"#utility.yul\":1428:1524   */\n      swap2\n      swap1\n      pop\n      jump\t// out\n        /* \"#utility.yul\":1530:1652   */\n    tag_90:\n        /* \"#utility.yul\":1603:1627   */\n      tag_147\n        /* \"#utility.yul\":1621:1626   */\n      dup2\n        /* \"#utility.yul\":1603:1627   */\n      tag_89\n      jump\t// in\n    tag_147:\n        /* \"#utility.yul\":1596:1601   */\n      dup2\n        /* \"#utility.yul\":1593:1628   */\n      eq\n        /* \"#utility.yul\":1583:1646   */\n      tag_148\n      jumpi\n        /* \"#utility.yul\":1642:1643   */\n      0x00\n        /* \"#utility.yul\":1639:1640   */\n      dup1\n        /* \"#utility.yul\":1632:1644   */\n      revert\n        /* \"#utility.yul\":1583:1646   */\n    tag_148:\n        /* \"#utility.yul\":1530:1652   */\n      pop\n      jump\t// out\n        /* \"#utility.yul\":1658:1797   */\n    tag_91:\n        /* \"#utility.yul\":1704:1709   */\n      0x00\n        /* \"#utility.yul\":1742:1748   */\n      dup2\n        /* \"#utility.yul\":1729:1749   */\n      calldataload\n        /* \"#utility.yul\":1720:1749   */\n      swap1\n      pop\n        /* \"#utility.yul\":1758:1791   */\n      tag_150\n        /* \"#utility.yul\":1785:1790   */\n      dup2\n        /* \"#utility.yul\":1758:1791   */\n      tag_90\n      jump\t// in\n    tag_150:\n        /* \"#utility.yul\":1658:1797   */\n      swap3\n      swap2\n      pop\n      pop\n      jump\t// out\n        /* \"#utility.yul\":1803:1920   */\n    tag_92:\n        /* \"#utility.yul\":1912:1913   */\n      0x00\n        /* \"#utility.yul\":1909:1910   */\n      dup1\n        /* \"#utility.yul\":1902:1914   */\n      revert\n        /* \"#utility.yul\":1926:2043   */\n    tag_93:\n        /* \"#utility.yul\":2035:2036   */\n      0x00\n        /* \"#utility.yul\":2032:2033   */\n      dup1\n        /* \"#utility.yul\":2025:2037   */\n      revert\n        /* \"#utility.yul\":2049:2357   */\n    tag_94:\n        /* \"#utility.yul\":2111:2115   */\n      0x00\n        /* \"#utility.yul\":2201:2219   */\n      0xffffffffffffffff\n        /* \"#utility.yul\":2193:2199   */\n      dup3\n        /* \"#utility.yul\":2190:2220   */\n      gt\n        /* \"#utility.yul\":2187:2243   */\n      iszero\n      tag_154\n      jumpi\n        /* \"#utility.yul\":2223:2241   */\n      tag_155\n      tag_84\n      jump\t// in\n    tag_155:\n        /* \"#utility.yul\":2187:2243   */\n    tag_154:\n        /* \"#utility.yul\":2261:2290   */\n      tag_156\n        /* \"#utility.yul\":2283:2289   */\n      dup3\n        /* \"#utility.yul\":2261:2290   */\n      tag_83\n      jump\t// in\n    tag_156:\n        /* \"#utility.yul\":2253:2290   */\n      swap1\n      pop\n        /* \"#utility.yul\":2345:2349   */\n      0x20\n        /* \"#utility.yul\":2339:2343   */\n      dup2\n        /* \"#utility.yul\":2335:2350   */\n      add\n        /* \"#utility.yul\":2327:2350   */\n      swap1\n      pop\n        /* \"#utility.yul\":2049:2357   */\n      swap2\n      swap1\n      pop\n      jump\t// out\n        /* \"#utility.yul\":2363:2509   */\n    tag_95:\n        /* \"#utility.yul\":2460:2466   */\n      dup3\n        /* \"#utility.yul\":2455:2458   */\n      dup2\n        /* \"#utility.yul\":2450:2453   */\n      dup4\n        /* \"#utility.yul\":2437:2467   */\n      calldatacopy\n        /* \"#utility.yul\":2501:2502   */\n      0x00\n        /* \"#utility.yul\":2492:2498   */\n      dup4\n        /* \"#utility.yul\":2487:2490   */\n      dup4\n        /* \"#utility.yul\":2483:2499   */\n      add\n        /* \"#utility.yul\":2476:2503   */\n      mstore\n        /* \"#utility.yul\":2363:2509   */\n      pop\n      pop\n      pop\n      jump\t// out\n        /* \"#utility.yul\":2515:2940   */\n    tag_96:\n        /* \"#utility.yul\":2593:2598   */\n      0x00\n        /* \"#utility.yul\":2618:2684   */\n      tag_159\n        /* \"#utility.yul\":2634:2683   */\n      tag_160\n        /* \"#utility.yul\":2676:2682   */\n      dup5\n        /* \"#utility.yul\":2634:2683   */\n      tag_94\n      jump\t// in\n    tag_160:\n        /* \"#utility.yul\":2618:2684   */\n      tag_86\n      jump\t// in\n    tag_159:\n        /* \"#utility.yul\":2609:2684   */\n      swap1\n      pop\n        /* \"#utility.yul\":2707:2713   */\n      dup3\n        /* \"#utility.yul\":2700:2705   */\n      dup2\n        /* \"#utility.yul\":2693:2714   */\n      mstore\n        /* \"#utility.yul\":2745:2749   */\n      0x20\n        /* \"#utility.yul\":2738:2743   */\n      dup2\n        /* \"#utility.yul\":2734:2750   */\n      add\n        /* \"#utility.yul\":2783:2786   */\n      dup5\n        /* \"#utility.yul\":2774:2780   */\n      dup5\n        /* \"#utility.yul\":2769:2772   */\n      dup5\n        /* \"#utility.yul\":2765:2781   */\n      add\n        /* \"#utility.yul\":2762:2787   */\n      gt\n        /* \"#utility.yul\":2759:2871   */\n      iszero\n      tag_161\n      jumpi\n        /* \"#utility.yul\":2790:2869   */\n      tag_162\n      tag_93\n      jump\t// in\n    tag_162:\n        /* \"#utility.yul\":2759:2871   */\n    tag_161:\n        /* \"#utility.yul\":2880:2934   */\n      tag_163\n        /* \"#utility.yul\":2927:2933   */\n      dup5\n        /* \"#utility.yul\":2922:2925   */\n      dup3\n        /* \"#utility.yul\":2917:2920   */\n      dup6\n        /* \"#utility.yul\":2880:2934   */\n      tag_95\n      jump\t// in\n    tag_163:\n        /* \"#utility.yul\":2599:2940   */\n      pop\n        /* \"#utility.yul\":2515:2940   */\n      swap4\n      swap3\n      pop\n      pop\n      pop\n      jump\t// out\n        /* \"#utility.yul\":2960:3300   */\n    tag_97:\n        /* \"#utility.yul\":3016:3021   */\n      0x00\n        /* \"#utility.yul\":3065:3068   */\n      dup3\n        /* \"#utility.yul\":3058:3062   */\n      0x1f\n        /* \"#utility.yul\":3050:3056   */\n      dup4\n        /* \"#utility.yul\":3046:3063   */\n      add\n        /* \"#utility.yul\":3042:3069   */\n      slt\n        /* \"#utility.yul\":3032:3154   */\n      tag_165\n      jumpi\n        /* \"#utility.yul\":3073:3152   */\n      tag_166\n      tag_92\n      jump\t// in\n    tag_166:\n        /* \"#utility.yul\":3032:3154   */\n    tag_165:\n        /* \"#utility.yul\":3190:3196   */\n      dup2\n        /* \"#utility.yul\":3177:3197   */\n      calldataload\n        /* \"#utility.yul\":3215:3294   */\n      tag_167\n        /* \"#utility.yul\":3290:3293   */\n      dup5\n        /* \"#utility.yul\":3282:3288   */\n      dup3\n        /* \"#utility.yul\":3275:3279   */\n      0x20\n        /* \"#utility.yul\":3267:3273   */\n      dup7\n        /* \"#utility.yul\":3263:3280   */\n      add\n        /* \"#utility.yul\":3215:3294   */\n      tag_96\n      jump\t// in\n    tag_167:\n        /* \"#utility.yul\":3206:3294   */\n      swap2\n      pop\n        /* \"#utility.yul\":3022:3300   */\n      pop\n        /* \"#utility.yul\":2960:3300   */\n      swap3\n      swap2\n      pop\n      pop\n      jump\t// out\n        /* \"#utility.yul\":3306:3396   */\n    tag_98:\n        /* \"#utility.yul\":3340:3347   */\n      0x00\n        /* \"#utility.yul\":3383:3388   */\n      dup2\n        /* \"#utility.yul\":3376:3389   */\n      iszero\n        /* \"#utility.yul\":3369:3390   */\n      iszero\n        /* \"#utility.yul\":3358:3390   */\n      swap1\n      pop\n        /* \"#utility.yul\":3306:3396   */\n      swap2\n      swap1\n      pop\n      jump\t// out\n        /* \"#utility.yul\":3402:3518   */\n    tag_99:\n        /* \"#utility.yul\":3472:3493   */\n      tag_170\n        /* \"#utility.yul\":3487:3492   */\n      dup2\n        /* \"#utility.yul\":3472:3493   */\n      tag_98\n      jump\t// in\n    tag_170:\n        /* \"#utility.yul\":3465:3470   */\n      dup2\n        /* \"#utility.yul\":3462:3494   */\n      eq\n        /* \"#utility.yul\":3452:3512   */\n      tag_171\n      jumpi\n        /* \"#utility.yul\":3508:3509   */\n      0x00\n        /* \"#utility.yul\":3505:3506   */\n      dup1\n        /* \"#utility.yul\":3498:3510   */\n      revert\n        /* \"#utility.yul\":3452:3512   */\n    tag_171:\n        /* \"#utility.yul\":3402:3518   */\n      pop\n      jump\t// out\n        /* \"#utility.yul\":3524:3657   */\n    tag_100:\n        /* \"#utility.yul\":3567:3572   */\n      0x00\n        /* \"#utility.yul\":3605:3611   */\n      dup2\n        /* \"#utility.yul\":3592:3612   */\n      calldataload\n        /* \"#utility.yul\":3583:3612   */\n      swap1\n      pop\n        /* \"#utility.yul\":3621:3651   */\n      tag_173\n        /* \"#utility.yul\":3645:3650   */\n      dup2\n        /* \"#utility.yul\":3621:3651   */\n      tag_99\n      jump\t// in\n    tag_173:\n        /* \"#utility.yul\":3524:3657   */\n      swap3\n      swap2\n      pop\n      pop\n      jump\t// out\n        /* \"#utility.yul\":3708:6325   */\n    tag_101:\n        /* \"#utility.yul\":3788:3793   */\n      0x00\n        /* \"#utility.yul\":3832:3838   */\n      0x0100\n        /* \"#utility.yul\":3820:3829   */\n      dup3\n        /* \"#utility.yul\":3815:3818   */\n      dup5\n        /* \"#utility.yul\":3811:3830   */\n      sub\n        /* \"#utility.yul\":3807:3839   */\n      slt\n        /* \"#utility.yul\":3804:3923   */\n      iszero\n      tag_175\n      jumpi\n        /* \"#utility.yul\":3842:3921   */\n      tag_176\n      tag_82\n      jump\t// in\n    tag_176:\n        /* \"#utility.yul\":3804:3923   */\n    tag_175:\n        /* \"#utility.yul\":3941:3964   */\n      tag_177\n        /* \"#utility.yul\":3957:3963   */\n      0x0100\n        /* \"#utility.yul\":3941:3964   */\n      tag_86\n      jump\t// in\n    tag_177:\n        /* \"#utility.yul\":3932:3964   */\n      swap1\n      pop\n        /* \"#utility.yul\":4030:4031   */\n      0x00\n        /* \"#utility.yul\":4070:4119   */\n      tag_178\n        /* \"#utility.yul\":4115:4118   */\n      dup5\n        /* \"#utility.yul\":4106:4112   */\n      dup3\n        /* \"#utility.yul\":4095:4104   */\n      dup6\n        /* \"#utility.yul\":4091:4113   */\n      add\n        /* \"#utility.yul\":4070:4119   */\n      tag_91\n      jump\t// in\n    tag_178:\n        /* \"#utility.yul\":4063:4067   */\n      0x00\n        /* \"#utility.yul\":4056:4061   */\n      dup4\n        /* \"#utility.yul\":4052:4068   */\n      add\n        /* \"#utility.yul\":4045:4120   */\n      mstore\n        /* \"#utility.yul\":3974:4131   */\n      pop\n        /* \"#utility.yul\":4218:4220   */\n      0x20\n        /* \"#utility.yul\":4207:4216   */\n      dup3\n        /* \"#utility.yul\":4203:4221   */\n      add\n        /* \"#utility.yul\":4190:4222   */\n      calldataload\n        /* \"#utility.yul\":4249:4267   */\n      0xffffffffffffffff\n        /* \"#utility.yul\":4241:4247   */\n      dup2\n        /* \"#utility.yul\":4238:4268   */\n      gt\n        /* \"#utility.yul\":4235:4352   */\n      iszero\n      tag_179\n      jumpi\n        /* \"#utility.yul\":4271:4350   */\n      tag_180\n      tag_87\n      jump\t// in\n    tag_180:\n        /* \"#utility.yul\":4235:4352   */\n    tag_179:\n        /* \"#utility.yul\":4391:4450   */\n      tag_181\n        /* \"#utility.yul\":4446:4449   */\n      dup5\n        /* \"#utility.yul\":4437:4443   */\n      dup3\n        /* \"#utility.yul\":4426:4435   */\n      dup6\n        /* \"#utility.yul\":4422:4444   */\n      add\n        /* \"#utility.yul\":4391:4450   */\n      tag_97\n      jump\t// in\n    tag_181:\n        /* \"#utility.yul\":4384:4388   */\n      0x20\n        /* \"#utility.yul\":4377:4382   */\n      dup4\n        /* \"#utility.yul\":4373:4389   */\n      add\n        /* \"#utility.yul\":4366:4451   */\n      mstore\n        /* \"#utility.yul\":4141:4462   */\n      pop\n        /* \"#utility.yul\":4554:4556   */\n      0x40\n        /* \"#utility.yul\":4543:4552   */\n      dup3\n        /* \"#utility.yul\":4539:4557   */\n      add\n        /* \"#utility.yul\":4526:4558   */\n      calldataload\n        /* \"#utility.yul\":4585:4603   */\n      0xffffffffffffffff\n        /* \"#utility.yul\":4577:4583   */\n      dup2\n        /* \"#utility.yul\":4574:4604   */\n      gt\n        /* \"#utility.yul\":4571:4688   */\n      iszero\n      tag_182\n      jumpi\n        /* \"#utility.yul\":4607:4686   */\n      tag_183\n      tag_87\n      jump\t// in\n    tag_183:\n        /* \"#utility.yul\":4571:4688   */\n    tag_182:\n        /* \"#utility.yul\":4727:4786   */\n      tag_184\n        /* \"#utility.yul\":4782:4785   */\n      dup5\n        /* \"#utility.yul\":4773:4779   */\n      dup3\n        /* \"#utility.yul\":4762:4771   */\n      dup6\n        /* \"#utility.yul\":4758:4780   */\n      add\n        /* \"#utility.yul\":4727:4786   */\n      tag_97\n      jump\t// in\n    tag_184:\n        /* \"#utility.yul\":4720:4724   */\n      0x40\n        /* \"#utility.yul\":4713:4718   */\n      dup4\n        /* \"#utility.yul\":4709:4725   */\n      add\n        /* \"#utility.yul\":4702:4787   */\n      mstore\n        /* \"#utility.yul\":4472:4798   */\n      pop\n        /* \"#utility.yul\":4889:4891   */\n      0x60\n        /* \"#utility.yul\":4878:4887   */\n      dup3\n        /* \"#utility.yul\":4874:4892   */\n      add\n        /* \"#utility.yul\":4861:4893   */\n      calldataload\n        /* \"#utility.yul\":4920:4938   */\n      0xffffffffffffffff\n        /* \"#utility.yul\":4912:4918   */\n      dup2\n        /* \"#utility.yul\":4909:4939   */\n      gt\n        /* \"#utility.yul\":4906:5023   */\n      iszero\n      tag_185\n      jumpi\n        /* \"#utility.yul\":4942:5021   */\n      tag_186\n      tag_87\n      jump\t// in\n    tag_186:\n        /* \"#utility.yul\":4906:5023   */\n    tag_185:\n        /* \"#utility.yul\":5062:5121   */\n      tag_187\n        /* \"#utility.yul\":5117:5120   */\n      dup5\n        /* \"#utility.yul\":5108:5114   */\n      dup3\n        /* \"#utility.yul\":5097:5106   */\n      dup6\n        /* \"#utility.yul\":5093:5115   */\n      add\n        /* \"#utility.yul\":5062:5121   */\n      tag_97\n      jump\t// in\n    tag_187:\n        /* \"#utility.yul\":5055:5059   */\n      0x60\n        /* \"#utility.yul\":5048:5053   */\n      dup4\n        /* \"#utility.yul\":5044:5060   */\n      add\n        /* \"#utility.yul\":5037:5122   */\n      mstore\n        /* \"#utility.yul\":4808:5133   */\n      pop\n        /* \"#utility.yul\":5223:5226   */\n      0x80\n        /* \"#utility.yul\":5212:5221   */\n      dup3\n        /* \"#utility.yul\":5208:5227   */\n      add\n        /* \"#utility.yul\":5195:5228   */\n      calldataload\n        /* \"#utility.yul\":5255:5273   */\n      0xffffffffffffffff\n        /* \"#utility.yul\":5247:5253   */\n      dup2\n        /* \"#utility.yul\":5244:5274   */\n      gt\n        /* \"#utility.yul\":5241:5358   */\n      iszero\n      tag_188\n      jumpi\n        /* \"#utility.yul\":5277:5356   */\n      tag_189\n      tag_87\n      jump\t// in\n    tag_189:\n        /* \"#utility.yul\":5241:5358   */\n    tag_188:\n        /* \"#utility.yul\":5397:5456   */\n      tag_190\n        /* \"#utility.yul\":5452:5455   */\n      dup5\n        /* \"#utility.yul\":5443:5449   */\n      dup3\n        /* \"#utility.yul\":5432:5441   */\n      dup6\n        /* \"#utility.yul\":5428:5450   */\n      add\n        /* \"#utility.yul\":5397:5456   */\n      tag_97\n      jump\t// in\n    tag_190:\n        /* \"#utility.yul\":5390:5394   */\n      0x80\n        /* \"#utility.yul\":5383:5388   */\n      dup4\n        /* \"#utility.yul\":5379:5395   */\n      add\n        /* \"#utility.yul\":5372:5457   */\n      mstore\n        /* \"#utility.yul\":5143:5468   */\n      pop\n        /* \"#utility.yul\":5559:5562   */\n      0xa0\n        /* \"#utility.yul\":5548:5557   */\n      dup3\n        /* \"#utility.yul\":5544:5563   */\n      add\n        /* \"#utility.yul\":5531:5564   */\n      calldataload\n        /* \"#utility.yul\":5591:5609   */\n      0xffffffffffffffff\n        /* \"#utility.yul\":5583:5589   */\n      dup2\n        /* \"#utility.yul\":5580:5610   */\n      gt\n        /* \"#utility.yul\":5577:5694   */\n      iszero\n      tag_191\n      jumpi\n        /* \"#utility.yul\":5613:5692   */\n      tag_192\n      tag_87\n      jump\t// in\n    tag_192:\n        /* \"#utility.yul\":5577:5694   */\n    tag_191:\n        /* \"#utility.yul\":5733:5792   */\n      tag_193\n        /* \"#utility.yul\":5788:5791   */\n      dup5\n        /* \"#utility.yul\":5779:5785   */\n      dup3\n        /* \"#utility.yul\":5768:5777   */\n      dup6\n        /* \"#utility.yul\":5764:5786   */\n      add\n        /* \"#utility.yul\":5733:5792   */\n      tag_97\n      jump\t// in\n    tag_193:\n        /* \"#utility.yul\":5726:5730   */\n      0xa0\n        /* \"#utility.yul\":5719:5724   */\n      dup4\n        /* \"#utility.yul\":5715:5731   */\n      add\n        /* \"#utility.yul\":5708:5793   */\n      mstore\n        /* \"#utility.yul\":5478:5804   */\n      pop\n        /* \"#utility.yul\":5898:5901   */\n      0xc0\n        /* \"#utility.yul\":5887:5896   */\n      dup3\n        /* \"#utility.yul\":5883:5902   */\n      add\n        /* \"#utility.yul\":5870:5903   */\n      calldataload\n        /* \"#utility.yul\":5930:5948   */\n      0xffffffffffffffff\n        /* \"#utility.yul\":5922:5928   */\n      dup2\n        /* \"#utility.yul\":5919:5949   */\n      gt\n        /* \"#utility.yul\":5916:6033   */\n      iszero\n      tag_194\n      jumpi\n        /* \"#utility.yul\":5952:6031   */\n      tag_195\n      tag_87\n      jump\t// in\n    tag_195:\n        /* \"#utility.yul\":5916:6033   */\n    tag_194:\n        /* \"#utility.yul\":6072:6131   */\n      tag_196\n        /* \"#utility.yul\":6127:6130   */\n      dup5\n        /* \"#utility.yul\":6118:6124   */\n      dup3\n        /* \"#utility.yul\":6107:6116   */\n      dup6\n        /* \"#utility.yul\":6103:6125   */\n      add\n        /* \"#utility.yul\":6072:6131   */\n      tag_97\n      jump\t// in\n    tag_196:\n        /* \"#utility.yul\":6065:6069   */\n      0xc0\n        /* \"#utility.yul\":6058:6063   */\n      dup4\n        /* \"#utility.yul\":6054:6070   */\n      add\n        /* \"#utility.yul\":6047:6132   */\n      mstore\n        /* \"#utility.yul\":5814:6143   */\n      pop\n        /* \"#utility.yul\":6218:6221   */\n      0xe0\n        /* \"#utility.yul\":6260:6306   */\n      tag_197\n        /* \"#utility.yul\":6302:6305   */\n      dup5\n        /* \"#utility.yul\":6293:6299   */\n      dup3\n        /* \"#utility.yul\":6282:6291   */\n      dup6\n        /* \"#utility.yul\":6278:6300   */\n      add\n        /* \"#utility.yul\":6260:6306   */\n      tag_100\n      jump\t// in\n    tag_197:\n        /* \"#utility.yul\":6253:6257   */\n      0xe0\n        /* \"#utility.yul\":6246:6251   */\n      dup4\n        /* \"#utility.yul\":6242:6258   */\n      add\n        /* \"#utility.yul\":6235:6307   */\n      mstore\n        /* \"#utility.yul\":6153:6318   */\n      pop\n        /* \"#utility.yul\":3708:6325   */\n      swap3\n      swap2\n      pop\n      pop\n      jump\t// out\n        /* \"#utility.yul\":6331:7249   */\n    tag_9:\n        /* \"#utility.yul\":6461:6467   */\n      0x00\n        /* \"#utility.yul\":6469:6475   */\n      dup1\n        /* \"#utility.yul\":6518:6520   */\n      0x40\n        /* \"#utility.yul\":6506:6515   */\n      dup4\n        /* \"#utility.yul\":6497:6504   */\n      dup6\n        /* \"#utility.yul\":6493:6516   */\n      sub\n        /* \"#utility.yul\":6489:6521   */\n      slt\n        /* \"#utility.yul\":6486:6605   */\n      iszero\n      tag_199\n      jumpi\n        /* \"#utility.yul\":6524:6603   */\n      tag_200\n      tag_80\n      jump\t// in\n    tag_200:\n        /* \"#utility.yul\":6486:6605   */\n    tag_199:\n        /* \"#utility.yul\":6672:6673   */\n      0x00\n        /* \"#utility.yul\":6661:6670   */\n      dup4\n        /* \"#utility.yul\":6657:6674   */\n      add\n        /* \"#utility.yul\":6644:6675   */\n      calldataload\n        /* \"#utility.yul\":6702:6720   */\n      0xffffffffffffffff\n        /* \"#utility.yul\":6694:6700   */\n      dup2\n        /* \"#utility.yul\":6691:6721   */\n      gt\n        /* \"#utility.yul\":6688:6805   */\n      iszero\n      tag_201\n      jumpi\n        /* \"#utility.yul\":6724:6803   */\n      tag_202\n      tag_81\n      jump\t// in\n    tag_202:\n        /* \"#utility.yul\":6688:6805   */\n    tag_201:\n        /* \"#utility.yul\":6829:6913   */\n      tag_203\n        /* \"#utility.yul\":6905:6912   */\n      dup6\n        /* \"#utility.yul\":6896:6902   */\n      dup3\n        /* \"#utility.yul\":6885:6894   */\n      dup7\n        /* \"#utility.yul\":6881:6903   */\n      add\n        /* \"#utility.yul\":6829:6913   */\n      tag_101\n      jump\t// in\n    tag_203:\n        /* \"#utility.yul\":6819:6913   */\n      swap3\n      pop\n        /* \"#utility.yul\":6615:6923   */\n      pop\n        /* \"#utility.yul\":6990:6992   */\n      0x20\n        /* \"#utility.yul\":6979:6988   */\n      dup4\n        /* \"#utility.yul\":6975:6993   */\n      add\n        /* \"#utility.yul\":6962:6994   */\n      calldataload\n        /* \"#utility.yul\":7021:7039   */\n      0xffffffffffffffff\n        /* \"#utility.yul\":7013:7019   */\n      dup2\n        /* \"#utility.yul\":7010:7040   */\n      gt\n        /* \"#utility.yul\":7007:7124   */\n      iszero\n      tag_204\n      jumpi\n        /* \"#utility.yul\":7043:7122   */\n      tag_205\n      tag_81\n      jump\t// in\n    tag_205:\n        /* \"#utility.yul\":7007:7124   */\n    tag_204:\n        /* \"#utility.yul\":7148:7232   */\n      tag_206\n        /* \"#utility.yul\":7224:7231   */\n      dup6\n        /* \"#utility.yul\":7215:7221   */\n      dup3\n        /* \"#utility.yul\":7204:7213   */\n      dup7\n        /* \"#utility.yul\":7200:7222   */\n      add\n        /* \"#utility.yul\":7148:7232   */\n      tag_101\n      jump\t// in\n    tag_206:\n        /* \"#utility.yul\":7138:7232   */\n      swap2\n      pop\n        /* \"#utility.yul\":6933:7242   */\n      pop\n        /* \"#utility.yul\":6331:7249   */\n      swap3\n      pop\n      swap3\n      swap1\n      pop\n      jump\t// out\n        /* \"#utility.yul\":7255:7364   */\n    tag_102:\n        /* \"#utility.yul\":7336:7357   */\n      tag_208\n        /* \"#utility.yul\":7351:7356   */\n      dup2\n        /* \"#utility.yul\":7336:7357   */\n      tag_98\n      jump\t// in\n    tag_208:\n        /* \"#utility.yul\":7331:7334   */\n      dup3\n        /* \"#utility.yul\":7324:7358   */\n      mstore\n        /* \"#utility.yul\":7255:7364   */\n      pop\n      pop\n      jump\t// out\n        /* \"#utility.yul\":7370:7580   */\n    tag_12:\n        /* \"#utility.yul\":7457:7461   */\n      0x00\n        /* \"#utility.yul\":7495:7497   */\n      0x20\n        /* \"#utility.yul\":7484:7493   */\n      dup3\n        /* \"#utility.yul\":7480:7498   */\n      add\n        /* \"#utility.yul\":7472:7498   */\n      swap1\n      pop\n        /* \"#utility.yul\":7508:7573   */\n      tag_210\n        /* \"#utility.yul\":7570:7571   */\n      0x00\n        /* \"#utility.yul\":7559:7568   */\n      dup4\n        /* \"#utility.yul\":7555:7572   */\n      add\n        /* \"#utility.yul\":7546:7552   */\n      dup5\n        /* \"#utility.yul\":7508:7573   */\n      tag_102\n      jump\t// in\n    tag_210:\n        /* \"#utility.yul\":7370:7580   */\n      swap3\n      swap2\n      pop\n      pop\n      jump\t// out\n        /* \"#utility.yul\":7586:7690   */\n    tag_103:\n        /* \"#utility.yul\":7631:7638   */\n      0x00\n        /* \"#utility.yul\":7660:7684   */\n      tag_212\n        /* \"#utility.yul\":7678:7683   */\n      dup3\n        /* \"#utility.yul\":7660:7684   */\n      tag_88\n      jump\t// in\n    tag_212:\n        /* \"#utility.yul\":7649:7684   */\n      swap1\n      pop\n        /* \"#utility.yul\":7586:7690   */\n      swap2\n      swap1\n      pop\n      jump\t// out\n        /* \"#utility.yul\":7696:7834   */\n    tag_104:\n        /* \"#utility.yul\":7777:7809   */\n      tag_214\n        /* \"#utility.yul\":7803:7808   */\n      dup2\n        /* \"#utility.yul\":7777:7809   */\n      tag_103\n      jump\t// in\n    tag_214:\n        /* \"#utility.yul\":7770:7775   */\n      dup2\n        /* \"#utility.yul\":7767:7810   */\n      eq\n        /* \"#utility.yul\":7757:7828   */\n      tag_215\n      jumpi\n        /* \"#utility.yul\":7824:7825   */\n      0x00\n        /* \"#utility.yul\":7821:7822   */\n      dup1\n        /* \"#utility.yul\":7814:7826   */\n      revert\n        /* \"#utility.yul\":7757:7828   */\n    tag_215:\n        /* \"#utility.yul\":7696:7834   */\n      pop\n      jump\t// out\n        /* \"#utility.yul\":7840:7995   */\n    tag_105:\n        /* \"#utility.yul\":7894:7899   */\n      0x00\n        /* \"#utility.yul\":7932:7938   */\n      dup2\n        /* \"#utility.yul\":7919:7939   */\n      calldataload\n        /* \"#utility.yul\":7910:7939   */\n      swap1\n      pop\n        /* \"#utility.yul\":7948:7989   */\n      tag_217\n        /* \"#utility.yul\":7983:7988   */\n      dup2\n        /* \"#utility.yul\":7948:7989   */\n      tag_104\n      jump\t// in\n    tag_217:\n        /* \"#utility.yul\":7840:7995   */\n      swap3\n      swap2\n      pop\n      pop\n      jump\t// out\n        /* \"#utility.yul\":8001:8078   */\n    tag_106:\n        /* \"#utility.yul\":8038:8045   */\n      0x00\n        /* \"#utility.yul\":8067:8072   */\n      dup2\n        /* \"#utility.yul\":8056:8072   */\n      swap1\n      pop\n        /* \"#utility.yul\":8001:8078   */\n      swap2\n      swap1\n      pop\n      jump\t// out\n        /* \"#utility.yul\":8084:8206   */\n    tag_107:\n        /* \"#utility.yul\":8157:8181   */\n      tag_220\n        /* \"#utility.yul\":8175:8180   */\n      dup2\n        /* \"#utility.yul\":8157:8181   */\n      tag_106\n      jump\t// in\n    tag_220:\n        /* \"#utility.yul\":8150:8155   */\n      dup2\n        /* \"#utility.yul\":8147:8182   */\n      eq\n        /* \"#utility.yul\":8137:8200   */\n      tag_221\n      jumpi\n        /* \"#utility.yul\":8196:8197   */\n      0x00\n        /* \"#utility.yul\":8193:8194   */\n      dup1\n        /* \"#utility.yul\":8186:8198   */\n      revert\n        /* \"#utility.yul\":8137:8200   */\n    tag_221:\n        /* \"#utility.yul\":8084:8206   */\n      pop\n      jump\t// out\n        /* \"#utility.yul\":8212:8351   */\n    tag_108:\n        /* \"#utility.yul\":8258:8263   */\n      0x00\n        /* \"#utility.yul\":8296:8302   */\n      dup2\n        /* \"#utility.yul\":8283:8303   */\n      calldataload\n        /* \"#utility.yul\":8274:8303   */\n      swap1\n      pop\n        /* \"#utility.yul\":8312:8345   */\n      tag_223\n        /* \"#utility.yul\":8339:8344   */\n      dup2\n        /* \"#utility.yul\":8312:8345   */\n      tag_107\n      jump\t// in\n    tag_223:\n        /* \"#utility.yul\":8212:8351   */\n      swap3\n      swap2\n      pop\n      pop\n      jump\t// out\n        /* \"#utility.yul\":8357:8847   */\n    tag_15:\n        /* \"#utility.yul\":8433:8439   */\n      0x00\n        /* \"#utility.yul\":8441:8447   */\n      dup1\n        /* \"#utility.yul\":8490:8492   */\n      0x40\n        /* \"#utility.yul\":8478:8487   */\n      dup4\n        /* \"#utility.yul\":8469:8476   */\n      dup6\n        /* \"#utility.yul\":8465:8488   */\n      sub\n        /* \"#utility.yul\":8461:8493   */\n      slt\n        /* \"#utility.yul\":8458:8577   */\n      iszero\n      tag_225\n      jumpi\n        /* \"#utility.yul\":8496:8575   */\n      tag_226\n      tag_80\n      jump\t// in\n    tag_226:\n        /* \"#utility.yul\":8458:8577   */\n    tag_225:\n        /* \"#utility.yul\":8616:8617   */\n      0x00\n        /* \"#utility.yul\":8641:8702   */\n      tag_227\n        /* \"#utility.yul\":8694:8701   */\n      dup6\n        /* \"#utility.yul\":8685:8691   */\n      dup3\n        /* \"#utility.yul\":8674:8683   */\n      dup7\n        /* \"#utility.yul\":8670:8692   */\n      add\n        /* \"#utility.yul\":8641:8702   */\n      tag_105\n      jump\t// in\n    tag_227:\n        /* \"#utility.yul\":8631:8702   */\n      swap3\n      pop\n        /* \"#utility.yul\":8587:8712   */\n      pop\n        /* \"#utility.yul\":8751:8753   */\n      0x20\n        /* \"#utility.yul\":8777:8830   */\n      tag_228\n        /* \"#utility.yul\":8822:8829   */\n      dup6\n        /* \"#utility.yul\":8813:8819   */\n      dup3\n        /* \"#utility.yul\":8802:8811   */\n      dup7\n        /* \"#utility.yul\":8798:8820   */\n      add\n        /* \"#utility.yul\":8777:8830   */\n      tag_108\n      jump\t// in\n    tag_228:\n        /* \"#utility.yul\":8767:8830   */\n      swap2\n      pop\n        /* \"#utility.yul\":8722:8840   */\n      pop\n        /* \"#utility.yul\":8357:8847   */\n      swap3\n      pop\n      swap3\n      swap1\n      pop\n      jump\t// out\n        /* \"#utility.yul\":8853:9033   */\n    tag_34:\n        /* \"#utility.yul\":8901:8978   */\n      0x4e487b7100000000000000000000000000000000000000000000000000000000\n        /* \"#utility.yul\":8898:8899   */\n      0x00\n        /* \"#utility.yul\":8891:8979   */\n      mstore\n        /* \"#utility.yul\":8998:9002   */\n      0x32\n        /* \"#utility.yul\":8995:8996   */\n      0x04\n        /* \"#utility.yul\":8988:9003   */\n      mstore\n        /* \"#utility.yul\":9022:9026   */\n      0x24\n        /* \"#utility.yul\":9019:9020   */\n      0x00\n        /* \"#utility.yul\":9012:9027   */\n      revert\n        /* \"#utility.yul\":9039:9208   */\n    tag_109:\n        /* \"#utility.yul\":9123:9134   */\n      0x00\n        /* \"#utility.yul\":9157:9163   */\n      dup3\n        /* \"#utility.yul\":9152:9155   */\n      dup3\n        /* \"#utility.yul\":9145:9164   */\n      mstore\n        /* \"#utility.yul\":9197:9201   */\n      0x20\n        /* \"#utility.yul\":9192:9195   */\n      dup3\n        /* \"#utility.yul\":9188:9202   */\n      add\n        /* \"#utility.yul\":9173:9202   */\n      swap1\n      pop\n        /* \"#utility.yul\":9039:9208   */\n      swap3\n      swap2\n      pop\n      pop\n      jump\t// out\n        /* \"#utility.yul\":9214:9381   */\n    tag_110:\n        /* \"#utility.yul\":9354:9373   */\n      0x77616e74656420496e646976696475616c000000000000000000000000000000\n        /* \"#utility.yul\":9350:9351   */\n      0x00\n        /* \"#utility.yul\":9342:9348   */\n      dup3\n        /* \"#utility.yul\":9338:9352   */\n      add\n        /* \"#utility.yul\":9331:9374   */\n      mstore\n        /* \"#utility.yul\":9214:9381   */\n      pop\n      jump\t// out\n        /* \"#utility.yul\":9387:9753   */\n    tag_111:\n        /* \"#utility.yul\":9529:9532   */\n      0x00\n        /* \"#utility.yul\":9550:9617   */\n      tag_233\n        /* \"#utility.yul\":9614:9616   */\n      0x11\n        /* \"#utility.yul\":9609:9612   */\n      dup4\n        /* \"#utility.yul\":9550:9617   */\n      tag_109\n      jump\t// in\n    tag_233:\n        /* \"#utility.yul\":9543:9617   */\n      swap2\n      pop\n        /* \"#utility.yul\":9626:9719   */\n      tag_234\n        /* \"#utility.yul\":9715:9718   */\n      dup3\n        /* \"#utility.yul\":9626:9719   */\n      tag_110\n      jump\t// in\n    tag_234:\n        /* \"#utility.yul\":9744:9746   */\n      0x20\n        /* \"#utility.yul\":9739:9742   */\n      dup3\n        /* \"#utility.yul\":9735:9747   */\n      add\n        /* \"#utility.yul\":9728:9747   */\n      swap1\n      pop\n        /* \"#utility.yul\":9387:9753   */\n      swap2\n      swap1\n      pop\n      jump\t// out\n        /* \"#utility.yul\":9759:9877   */\n    tag_112:\n        /* \"#utility.yul\":9846:9870   */\n      tag_236\n        /* \"#utility.yul\":9864:9869   */\n      dup2\n        /* \"#utility.yul\":9846:9870   */\n      tag_106\n      jump\t// in\n    tag_236:\n        /* \"#utility.yul\":9841:9844   */\n      dup3\n        /* \"#utility.yul\":9834:9871   */\n      mstore\n        /* \"#utility.yul\":9759:9877   */\n      pop\n      pop\n      jump\t// out\n        /* \"#utility.yul\":9883:10412   */\n    tag_42:\n        /* \"#utility.yul\":10077:10081   */\n      0x00\n        /* \"#utility.yul\":10115:10117   */\n      0x40\n        /* \"#utility.yul\":10104:10113   */\n      dup3\n        /* \"#utility.yul\":10100:10118   */\n      add\n        /* \"#utility.yul\":10092:10118   */\n      swap1\n      pop\n        /* \"#utility.yul\":10164:10173   */\n      dup2\n        /* \"#utility.yul\":10158:10162   */\n      dup2\n        /* \"#utility.yul\":10154:10174   */\n      sub\n        /* \"#utility.yul\":10150:10151   */\n      0x00\n        /* \"#utility.yul\":10139:10148   */\n      dup4\n        /* \"#utility.yul\":10135:10152   */\n      add\n        /* \"#utility.yul\":10128:10175   */\n      mstore\n        /* \"#utility.yul\":10192:10323   */\n      tag_238\n        /* \"#utility.yul\":10318:10322   */\n      dup2\n        /* \"#utility.yul\":10192:10323   */\n      tag_111\n      jump\t// in\n    tag_238:\n        /* \"#utility.yul\":10184:10323   */\n      swap1\n      pop\n        /* \"#utility.yul\":10333:10405   */\n      tag_239\n        /* \"#utility.yul\":10401:10403   */\n      0x20\n        /* \"#utility.yul\":10390:10399   */\n      dup4\n        /* \"#utility.yul\":10386:10404   */\n      add\n        /* \"#utility.yul\":10377:10383   */\n      dup5\n        /* \"#utility.yul\":10333:10405   */\n      tag_112\n      jump\t// in\n    tag_239:\n        /* \"#utility.yul\":9883:10412   */\n      swap3\n      swap2\n      pop\n      pop\n      jump\t// out\n        /* \"#utility.yul\":10418:10598   */\n    tag_113:\n        /* \"#utility.yul\":10466:10543   */\n      0x4e487b7100000000000000000000000000000000000000000000000000000000\n        /* \"#utility.yul\":10463:10464   */\n      0x00\n        /* \"#utility.yul\":10456:10544   */\n      mstore\n        /* \"#utility.yul\":10563:10567   */\n      0x11\n        /* \"#utility.yul\":10560:10561   */\n      0x04\n        /* \"#utility.yul\":10553:10568   */\n      mstore\n        /* \"#utility.yul\":10587:10591   */\n      0x24\n        /* \"#utility.yul\":10584:10585   */\n      0x00\n        /* \"#utility.yul\":10577:10592   */\n      revert\n        /* \"#utility.yul\":10604:10837   */\n    tag_44:\n        /* \"#utility.yul\":10643:10646   */\n      0x00\n        /* \"#utility.yul\":10666:10690   */\n      tag_242\n        /* \"#utility.yul\":10684:10689   */\n      dup3\n        /* \"#utility.yul\":10666:10690   */\n      tag_106\n      jump\t// in\n    tag_242:\n        /* \"#utility.yul\":10657:10690   */\n      swap2\n      pop\n        /* \"#utility.yul\":10712:10778   */\n      0xffffffffffffffffffffffffffffffffffffffffffffffffffffffffffffffff\n        /* \"#utility.yul\":10705:10710   */\n      dup3\n        /* \"#utility.yul\":10702:10779   */\n      sub\n        /* \"#utility.yul\":10699:10802   */\n      tag_243\n      jumpi\n        /* \"#utility.yul\":10782:10800   */\n      tag_244\n      tag_113\n      jump\t// in\n    tag_244:\n        /* \"#utility.yul\":10699:10802   */\n    tag_243:\n        /* \"#utility.yul\":10829:10830   */\n      0x01\n        /* \"#utility.yul\":10822:10827   */\n      dup3\n        /* \"#utility.yul\":10818:10831   */\n      add\n        /* \"#utility.yul\":10811:10831   */\n      swap1\n      pop\n        /* \"#utility.yul\":10604:10837   */\n      swap2\n      swap1\n      pop\n      jump\t// out\n        /* \"#utility.yul\":10843:11012   */\n    tag_114:\n        /* \"#utility.yul\":10983:11004   */\n      0x4578636565646564204d617820416d6f756e7400000000000000000000000000\n        /* \"#utility.yul\":10979:10980   */\n      0x00\n        /* \"#utility.yul\":10971:10977   */\n      dup3\n        /* \"#utility.yul\":10967:10981   */\n      add\n        /* \"#utility.yul\":10960:11005   */\n      mstore\n        /* \"#utility.yul\":10843:11012   */\n      pop\n      jump\t// out\n        /* \"#utility.yul\":11018:11384   */\n    tag_115:\n        /* \"#utility.yul\":11160:11163   */\n      0x00\n        /* \"#utility.yul\":11181:11248   */\n      tag_247\n        /* \"#utility.yul\":11245:11247   */\n      0x13\n        /* \"#utility.yul\":11240:11243   */\n      dup4\n        /* \"#utility.yul\":11181:11248   */\n      tag_109\n      jump\t// in\n    tag_247:\n        /* \"#utility.yul\":11174:11248   */\n      swap2\n      pop\n        /* \"#utility.yul\":11257:11350   */\n      tag_248\n        /* \"#utility.yul\":11346:11349   */\n      dup3\n        /* \"#utility.yul\":11257:11350   */\n      tag_114\n      jump\t// in\n    tag_248:\n        /* \"#utility.yul\":11375:11377   */\n      0x20\n        /* \"#utility.yul\":11370:11373   */\n      dup3\n        /* \"#utility.yul\":11366:11378   */\n      add\n        /* \"#utility.yul\":11359:11378   */\n      swap1\n      pop\n        /* \"#utility.yul\":11018:11384   */\n      swap2\n      swap1\n      pop\n      jump\t// out\n        /* \"#utility.yul\":11390:11919   */\n    tag_50:\n        /* \"#utility.yul\":11584:11588   */\n      0x00\n        /* \"#utility.yul\":11622:11624   */\n      0x40\n        /* \"#utility.yul\":11611:11620   */\n      dup3\n        /* \"#utility.yul\":11607:11625   */\n      add\n        /* \"#utility.yul\":11599:11625   */\n      swap1\n      pop\n        /* \"#utility.yul\":11671:11680   */\n      dup2\n        /* \"#utility.yul\":11665:11669   */\n      dup2\n        /* \"#utility.yul\":11661:11681   */\n      sub\n        /* \"#utility.yul\":11657:11658   */\n      0x00\n        /* \"#utility.yul\":11646:11655   */\n      dup4\n        /* \"#utility.yul\":11642:11659   */\n      add\n        /* \"#utility.yul\":11635:11682   */\n      mstore\n        /* \"#utility.yul\":11699:11830   */\n      tag_250\n        /* \"#utility.yul\":11825:11829   */\n      dup2\n        /* \"#utility.yul\":11699:11830   */\n      tag_115\n      jump\t// in\n    tag_250:\n        /* \"#utility.yul\":11691:11830   */\n      swap1\n      pop\n        /* \"#utility.yul\":11840:11912   */\n      tag_251\n        /* \"#utility.yul\":11908:11910   */\n      0x20\n        /* \"#utility.yul\":11897:11906   */\n      dup4\n        /* \"#utility.yul\":11893:11911   */\n      add\n        /* \"#utility.yul\":11884:11890   */\n      dup5\n        /* \"#utility.yul\":11840:11912   */\n      tag_112\n      jump\t// in\n    tag_251:\n        /* \"#utility.yul\":11390:11919   */\n      swap3\n      swap2\n      pop\n      pop\n      jump\t// out\n        /* \"#utility.yul\":11925:12024   */\n    tag_116:\n        /* \"#utility.yul\":11977:11983   */\n      0x00\n        /* \"#utility.yul\":12011:12016   */\n      dup2\n        /* \"#utility.yul\":12005:12017   */\n      mload\n        /* \"#utility.yul\":11995:12017   */\n      swap1\n      pop\n        /* \"#utility.yul\":11925:12024   */\n      swap2\n      swap1\n      pop\n      jump\t// out\n        /* \"#utility.yul\":12030:12178   */\n    tag_117:\n        /* \"#utility.yul\":12132:12143   */\n      0x00\n        /* \"#utility.yul\":12169:12172   */\n      dup2\n        /* \"#utility.yul\":12154:12172   */\n      swap1\n      pop\n        /* \"#utility.yul\":12030:12178   */\n      swap3\n      swap2\n      pop\n      pop\n      jump\t// out\n        /* \"#utility.yul\":12184:12430   */\n    tag_118:\n        /* \"#utility.yul\":12265:12266   */\n      0x00\n        /* \"#utility.yul\":12275:12388   */\n    tag_255:\n        /* \"#utility.yul\":12289:12295   */\n      dup4\n        /* \"#utility.yul\":12286:12287   */\n      dup2\n        /* \"#utility.yul\":12283:12296   */\n      lt\n        /* \"#utility.yul\":12275:12388   */\n      iszero\n      tag_257\n      jumpi\n        /* \"#utility.yul\":12374:12375   */\n      dup1\n        /* \"#utility.yul\":12369:12372   */\n      dup3\n        /* \"#utility.yul\":12365:12376   */\n      add\n        /* \"#utility.yul\":12359:12377   */\n      mload\n        /* \"#utility.yul\":12355:12356   */\n      dup2\n        /* \"#utility.yul\":12350:12353   */\n      dup5\n        /* \"#utility.yul\":12346:12357   */\n      add\n        /* \"#utility.yul\":12339:12378   */\n      mstore\n        /* \"#utility.yul\":12311:12313   */\n      0x20\n        /* \"#utility.yul\":12308:12309   */\n      dup2\n        /* \"#utility.yul\":12304:12314   */\n      add\n        /* \"#utility.yul\":12299:12314   */\n      swap1\n      pop\n        /* \"#utility.yul\":12275:12388   */\n      jump(tag_255)\n    tag_257:\n        /* \"#utility.yul\":12422:12423   */\n      0x00\n        /* \"#utility.yul\":12413:12419   */\n      dup5\n        /* \"#utility.yul\":12408:12411   */\n      dup5\n        /* \"#utility.yul\":12404:12420   */\n      add\n        /* \"#utility.yul\":12397:12424   */\n      mstore\n        /* \"#utility.yul\":12246:12430   */\n      pop\n        /* \"#utility.yul\":12184:12430   */\n      pop\n      pop\n      pop\n      jump\t// out\n        /* \"#utility.yul\":12436:12826   */\n    tag_119:\n        /* \"#utility.yul\":12542:12545   */\n      0x00\n        /* \"#utility.yul\":12570:12609   */\n      tag_259\n        /* \"#utility.yul\":12603:12608   */\n      dup3\n        /* \"#utility.yul\":12570:12609   */\n      tag_116\n      jump\t// in\n    tag_259:\n        /* \"#utility.yul\":12625:12714   */\n      tag_260\n        /* \"#utility.yul\":12707:12713   */\n      dup2\n        /* \"#utility.yul\":12702:12705   */\n      dup6\n        /* \"#utility.yul\":12625:12714   */\n      tag_117\n      jump\t// in\n    tag_260:\n        /* \"#utility.yul\":12618:12714   */\n      swap4\n      pop\n        /* \"#utility.yul\":12723:12788   */\n      tag_261\n        /* \"#utility.yul\":12781:12787   */\n      dup2\n        /* \"#utility.yul\":12776:12779   */\n      dup6\n        /* \"#utility.yul\":12769:12773   */\n      0x20\n        /* \"#utility.yul\":12762:12767   */\n      dup7\n        /* \"#utility.yul\":12758:12774   */\n      add\n        /* \"#utility.yul\":12723:12788   */\n      tag_118\n      jump\t// in\n    tag_261:\n        /* \"#utility.yul\":12813:12819   */\n      dup1\n        /* \"#utility.yul\":12808:12811   */\n      dup5\n        /* \"#utility.yul\":12804:12820   */\n      add\n        /* \"#utility.yul\":12797:12820   */\n      swap2\n      pop\n        /* \"#utility.yul\":12546:12826   */\n      pop\n        /* \"#utility.yul\":12436:12826   */\n      swap3\n      swap2\n      pop\n      pop\n      jump\t// out\n        /* \"#utility.yul\":12832:13107   */\n    tag_58:\n        /* \"#utility.yul\":12964:12967   */\n      0x00\n        /* \"#utility.yul\":12986:13081   */\n      tag_263\n        /* \"#utility.yul\":13077:13080   */\n      dup3\n        /* \"#utility.yul\":13068:13074   */\n      dup5\n        /* \"#utility.yul\":12986:13081   */\n      tag_119\n      jump\t// in\n    tag_263:\n        /* \"#utility.yul\":12979:13081   */\n      swap2\n      pop\n        /* \"#utility.yul\":13098:13101   */\n      dup2\n        /* \"#utility.yul\":13091:13101   */\n      swap1\n      pop\n        /* \"#utility.yul\":12832:13107   */\n      swap3\n      swap2\n      pop\n      pop\n      jump\t// out\n        /* \"#utility.yul\":13113:13293   */\n    tag_120:\n        /* \"#utility.yul\":13161:13238   */\n      0x4e487b7100000000000000000000000000000000000000000000000000000000\n        /* \"#utility.yul\":13158:13159   */\n      0x00\n        /* \"#utility.yul\":13151:13239   */\n      mstore\n        /* \"#utility.yul\":13258:13262   */\n      0x22\n        /* \"#utility.yul\":13255:13256   */\n      0x04\n        /* \"#utility.yul\":13248:13263   */\n      mstore\n        /* \"#utility.yul\":13282:13286   */\n      0x24\n        /* \"#utility.yul\":13279:13280   */\n      0x00\n        /* \"#utility.yul\":13272:13287   */\n      revert\n        /* \"#utility.yul\":13299:13619   */\n    tag_121:\n        /* \"#utility.yul\":13343:13349   */\n      0x00\n        /* \"#utility.yul\":13380:13381   */\n      0x02\n        /* \"#utility.yul\":13374:13378   */\n      dup3\n        /* \"#utility.yul\":13370:13382   */\n      div\n        /* \"#utility.yul\":13360:13382   */\n      swap1\n      pop\n        /* \"#utility.yul\":13427:13428   */\n      0x01\n        /* \"#utility.yul\":13421:13425   */\n      dup3\n        /* \"#utility.yul\":13417:13429   */\n      and\n        /* \"#utility.yul\":13448:13466   */\n      dup1\n        /* \"#utility.yul\":13438:13519   */\n      tag_266\n      jumpi\n        /* \"#utility.yul\":13504:13508   */\n      0x7f\n        /* \"#utility.yul\":13496:13502   */\n      dup3\n        /* \"#utility.yul\":13492:13509   */\n      and\n        /* \"#utility.yul\":13482:13509   */\n      swap2\n      pop\n        /* \"#utility.yul\":13438:13519   */\n    tag_266:\n        /* \"#utility.yul\":13566:13568   */\n      0x20\n        /* \"#utility.yul\":13558:13564   */\n      dup3\n        /* \"#utility.yul\":13555:13569   */\n      lt\n        /* \"#utility.yul\":13535:13553   */\n      dup2\n        /* \"#utility.yul\":13532:13570   */\n      sub\n        /* \"#utility.yul\":13529:13613   */\n      tag_267\n      jumpi\n        /* \"#utility.yul\":13585:13603   */\n      tag_268\n      tag_120\n      jump\t// in\n    tag_268:\n        /* \"#utility.yul\":13529:13613   */\n    tag_267:\n        /* \"#utility.yul\":13350:13619   */\n      pop\n        /* \"#utility.yul\":13299:13619   */\n      swap2\n      swap1\n      pop\n      jump\t// out\n        /* \"#utility.yul\":13625:13766   */\n    tag_122:\n        /* \"#utility.yul\":13674:13678   */\n      0x00\n        /* \"#utility.yul\":13697:13700   */\n      dup2\n        /* \"#utility.yul\":13689:13700   */\n      swap1\n      pop\n        /* \"#utility.yul\":13720:13723   */\n      dup2\n        /* \"#utility.yul\":13717:13718   */\n      0x00\n        /* \"#utility.yul\":13710:13724   */\n      mstore\n        /* \"#utility.yul\":13754:13758   */\n      0x20\n        /* \"#utility.yul\":13751:13752   */\n      0x00\n        /* \"#utility.yul\":13741:13759   */\n      keccak256\n        /* \"#utility.yul\":13733:13759   */\n      swap1\n      pop\n        /* \"#utility.yul\":13625:13766   */\n      swap2\n      swap1\n      pop\n      jump\t// out\n        /* \"#utility.yul\":13796:14670   */\n    tag_123:\n        /* \"#utility.yul\":13899:13902   */\n      0x00\n        /* \"#utility.yul\":13936:13941   */\n      dup2\n        /* \"#utility.yul\":13930:13942   */\n      sload\n        /* \"#utility.yul\":13965:14001   */\n      tag_271\n        /* \"#utility.yul\":13991:14000   */\n      dup2\n        /* \"#utility.yul\":13965:14001   */\n      tag_121\n      jump\t// in\n    tag_271:\n        /* \"#utility.yul\":14017:14106   */\n      tag_272\n        /* \"#utility.yul\":14099:14105   */\n      dup2\n        /* \"#utility.yul\":14094:14097   */\n      dup7\n        /* \"#utility.yul\":14017:14106   */\n      tag_117\n      jump\t// in\n    tag_272:\n        /* \"#utility.yul\":14010:14106   */\n      swap5\n      pop\n        /* \"#utility.yul\":14137:14138   */\n      0x01\n        /* \"#utility.yul\":14126:14135   */\n      dup3\n        /* \"#utility.yul\":14122:14139   */\n      and\n        /* \"#utility.yul\":14153:14154   */\n      0x00\n        /* \"#utility.yul\":14148:14314   */\n      dup2\n      eq\n      tag_274\n      jumpi\n        /* \"#utility.yul\":14328:14329   */\n      0x01\n        /* \"#utility.yul\":14323:14664   */\n      dup2\n      eq\n      tag_275\n      jumpi\n        /* \"#utility.yul\":14115:14664   */\n      jump(tag_273)\n        /* \"#utility.yul\":14148:14314   */\n    tag_274:\n        /* \"#utility.yul\":14232:14236   */\n      0xff\n        /* \"#utility.yul\":14228:14237   */\n      not\n        /* \"#utility.yul\":14217:14226   */\n      dup4\n        /* \"#utility.yul\":14213:14238   */\n      and\n        /* \"#utility.yul\":14208:14211   */\n      dup7\n        /* \"#utility.yul\":14201:14239   */\n      mstore\n        /* \"#utility.yul\":14294:14300   */\n      dup2\n        /* \"#utility.yul\":14287:14301   */\n      iszero\n        /* \"#utility.yul\":14280:14302   */\n      iszero\n        /* \"#utility.yul\":14272:14278   */\n      dup3\n        /* \"#utility.yul\":14268:14303   */\n      mul\n        /* \"#utility.yul\":14263:14266   */\n      dup7\n        /* \"#utility.yul\":14259:14304   */\n      add\n        /* \"#utility.yul\":14252:14304   */\n      swap4\n      pop\n        /* \"#utility.yul\":14148:14314   */\n      jump(tag_273)\n        /* \"#utility.yul\":14323:14664   */\n    tag_275:\n        /* \"#utility.yul\":14390:14428   */\n      tag_276\n        /* \"#utility.yul\":14422:14427   */\n      dup6\n        /* \"#utility.yul\":14390:14428   */\n      tag_122\n      jump\t// in\n    tag_276:\n        /* \"#utility.yul\":14450:14451   */\n      0x00\n        /* \"#utility.yul\":14464:14618   */\n    tag_277:\n        /* \"#utility.yul\":14478:14484   */\n      dup4\n        /* \"#utility.yul\":14475:14476   */\n      dup2\n        /* \"#utility.yul\":14472:14485   */\n      lt\n        /* \"#utility.yul\":14464:14618   */\n      iszero\n      tag_279\n      jumpi\n        /* \"#utility.yul\":14552:14559   */\n      dup2\n        /* \"#utility.yul\":14546:14560   */\n      sload\n        /* \"#utility.yul\":14542:14543   */\n      dup2\n        /* \"#utility.yul\":14537:14540   */\n      dup10\n        /* \"#utility.yul\":14533:14544   */\n      add\n        /* \"#utility.yul\":14526:14561   */\n      mstore\n        /* \"#utility.yul\":14602:14603   */\n      0x01\n        /* \"#utility.yul\":14593:14600   */\n      dup3\n        /* \"#utility.yul\":14589:14604   */\n      add\n        /* \"#utility.yul\":14578:14604   */\n      swap2\n      pop\n        /* \"#utility.yul\":14500:14504   */\n      0x20\n        /* \"#utility.yul\":14497:14498   */\n      dup2\n        /* \"#utility.yul\":14493:14505   */\n      add\n        /* \"#utility.yul\":14488:14505   */\n      swap1\n      pop\n        /* \"#utility.yul\":14464:14618   */\n      jump(tag_277)\n    tag_279:\n        /* \"#utility.yul\":14647:14653   */\n      dup4\n        /* \"#utility.yul\":14642:14645   */\n      dup9\n        /* \"#utility.yul\":14638:14654   */\n      add\n        /* \"#utility.yul\":14631:14654   */\n      swap6\n      pop\n        /* \"#utility.yul\":14330:14664   */\n      pop\n      pop\n        /* \"#utility.yul\":14115:14664   */\n    tag_273:\n      pop\n        /* \"#utility.yul\":13903:14670   */\n      pop\n      pop\n        /* \"#utility.yul\":13796:14670   */\n      swap3\n      swap2\n      pop\n      pop\n      jump\t// out\n        /* \"#utility.yul\":14676:14945   */\n    tag_63:\n        /* \"#utility.yul\":14805:14808   */\n      0x00\n        /* \"#utility.yul\":14827:14919   */\n      tag_281\n        /* \"#utility.yul\":14915:14918   */\n      dup3\n        /* \"#utility.yul\":14906:14912   */\n      dup5\n        /* \"#utility.yul\":14827:14919   */\n      tag_123\n      jump\t// in\n    tag_281:\n        /* \"#utility.yul\":14820:14919   */\n      swap2\n      pop\n        /* \"#utility.yul\":14936:14939   */\n      dup2\n        /* \"#utility.yul\":14929:14939   */\n      swap1\n      pop\n        /* \"#utility.yul\":14676:14945   */\n      swap3\n      swap2\n      pop\n      pop\n      jump\t// out\n        /* \"#utility.yul\":14951:15179   */\n    tag_124:\n        /* \"#utility.yul\":15091:15125   */\n      0x557365722773204e6174696f6e616c69747920697320696e2062616e6e656420\n        /* \"#utility.yul\":15087:15088   */\n      0x00\n        /* \"#utility.yul\":15079:15085   */\n      dup3\n        /* \"#utility.yul\":15075:15089   */\n      add\n        /* \"#utility.yul\":15068:15126   */\n      mstore\n        /* \"#utility.yul\":15160:15171   */\n      0x636f756e74726965730000000000000000000000000000000000000000000000\n        /* \"#utility.yul\":15155:15157   */\n      0x20\n        /* \"#utility.yul\":15147:15153   */\n      dup3\n        /* \"#utility.yul\":15143:15158   */\n      add\n        /* \"#utility.yul\":15136:15172   */\n      mstore\n        /* \"#utility.yul\":14951:15179   */\n      pop\n      jump\t// out\n        /* \"#utility.yul\":15185:15551   */\n    tag_125:\n        /* \"#utility.yul\":15327:15330   */\n      0x00\n        /* \"#utility.yul\":15348:15415   */\n      tag_284\n        /* \"#utility.yul\":15412:15414   */\n      0x29\n        /* \"#utility.yul\":15407:15410   */\n      dup4\n        /* \"#utility.yul\":15348:15415   */\n      tag_109\n      jump\t// in\n    tag_284:\n        /* \"#utility.yul\":15341:15415   */\n      swap2\n      pop\n        /* \"#utility.yul\":15424:15517   */\n      tag_285\n        /* \"#utility.yul\":15513:15516   */\n      dup3\n        /* \"#utility.yul\":15424:15517   */\n      tag_124\n      jump\t// in\n    tag_285:\n        /* \"#utility.yul\":15542:15544   */\n      0x40\n        /* \"#utility.yul\":15537:15540   */\n      dup3\n        /* \"#utility.yul\":15533:15545   */\n      add\n        /* \"#utility.yul\":15526:15545   */\n      swap1\n      pop\n        /* \"#utility.yul\":15185:15551   */\n      swap2\n      swap1\n      pop\n      jump\t// out\n        /* \"#utility.yul\":15557:16086   */\n    tag_72:\n        /* \"#utility.yul\":15751:15755   */\n      0x00\n        /* \"#utility.yul\":15789:15791   */\n      0x40\n        /* \"#utility.yul\":15778:15787   */\n      dup3\n        /* \"#utility.yul\":15774:15792   */\n      add\n        /* \"#utility.yul\":15766:15792   */\n      swap1\n      pop\n        /* \"#utility.yul\":15838:15847   */\n      dup2\n        /* \"#utility.yul\":15832:15836   */\n      dup2\n        /* \"#utility.yul\":15828:15848   */\n      sub\n        /* \"#utility.yul\":15824:15825   */\n      0x00\n        /* \"#utility.yul\":15813:15822   */\n      dup4\n        /* \"#utility.yul\":15809:15826   */\n      add\n        /* \"#utility.yul\":15802:15849   */\n      mstore\n        /* \"#utility.yul\":15866:15997   */\n      tag_287\n        /* \"#utility.yul\":15992:15996   */\n      dup2\n        /* \"#utility.yul\":15866:15997   */\n      tag_125\n      jump\t// in\n    tag_287:\n        /* \"#utility.yul\":15858:15997   */\n      swap1\n      pop\n        /* \"#utility.yul\":16007:16079   */\n      tag_288\n        /* \"#utility.yul\":16075:16077   */\n      0x20\n        /* \"#utility.yul\":16064:16073   */\n      dup4\n        /* \"#utility.yul\":16060:16078   */\n      add\n        /* \"#utility.yul\":16051:16057   */\n      dup5\n        /* \"#utility.yul\":16007:16079   */\n      tag_112\n      jump\t// in\n    tag_288:\n        /* \"#utility.yul\":15557:16086   */\n      swap3\n      swap2\n      pop\n      pop\n      jump\t// out\n        /* \"#utility.yul\":16092:16269   */\n    tag_126:\n        /* \"#utility.yul\":16232:16261   */\n      0x5573657220697320706f6c69746963616c6c79206578706f7365640000000000\n        /* \"#utility.yul\":16228:16229   */\n      0x00\n        /* \"#utility.yul\":16220:16226   */\n      dup3\n        /* \"#utility.yul\":16216:16230   */\n      add\n        /* \"#utility.yul\":16209:16262   */\n      mstore\n        /* \"#utility.yul\":16092:16269   */\n      pop\n      jump\t// out\n        /* \"#utility.yul\":16275:16641   */\n    tag_127:\n        /* \"#utility.yul\":16417:16420   */\n      0x00\n        /* \"#utility.yul\":16438:16505   */\n      tag_291\n        /* \"#utility.yul\":16502:16504   */\n      0x1b\n        /* \"#utility.yul\":16497:16500   */\n      dup4\n        /* \"#utility.yul\":16438:16505   */\n      tag_109\n      jump\t// in\n    tag_291:\n        /* \"#utility.yul\":16431:16505   */\n      swap2\n      pop\n        /* \"#utility.yul\":16514:16607   */\n      tag_292\n        /* \"#utility.yul\":16603:16606   */\n      dup3\n        /* \"#utility.yul\":16514:16607   */\n      tag_126\n      jump\t// in\n    tag_292:\n        /* \"#utility.yul\":16632:16634   */\n      0x20\n        /* \"#utility.yul\":16627:16630   */\n      dup3\n        /* \"#utility.yul\":16623:16635   */\n      add\n        /* \"#utility.yul\":16616:16635   */\n      swap1\n      pop\n        /* \"#utility.yul\":16275:16641   */\n      swap2\n      swap1\n      pop\n      jump\t// out\n        /* \"#utility.yul\":16647:17176   */\n    tag_78:\n        /* \"#utility.yul\":16841:16845   */\n      0x00\n        /* \"#utility.yul\":16879:16881   */\n      0x40\n        /* \"#utility.yul\":16868:16877   */\n      dup3\n        /* \"#utility.yul\":16864:16882   */\n      add\n        /* \"#utility.yul\":16856:16882   */\n      swap1\n      pop\n        /* \"#utility.yul\":16928:16937   */\n      dup2\n        /* \"#utility.yul\":16922:16926   */\n      dup2\n        /* \"#utility.yul\":16918:16938   */\n      sub\n        /* \"#utility.yul\":16914:16915   */\n      0x00\n        /* \"#utility.yul\":16903:16912   */\n      dup4\n        /* \"#utility.yul\":16899:16916   */\n      add\n        /* \"#utility.yul\":16892:16939   */\n      mstore\n        /* \"#utility.yul\":16956:17087   */\n      tag_294\n        /* \"#utility.yul\":17082:17086   */\n      dup2\n        /* \"#utility.yul\":16956:17087   */\n      tag_127\n      jump\t// in\n    tag_294:\n        /* \"#utility.yul\":16948:17087   */\n      swap1\n      pop\n        /* \"#utility.yul\":17097:17169   */\n      tag_295\n        /* \"#utility.yul\":17165:17167   */\n      0x20\n        /* \"#utility.yul\":17154:17163   */\n      dup4\n        /* \"#utility.yul\":17150:17168   */\n      add\n        /* \"#utility.yul\":17141:17147   */\n      dup5\n        /* \"#utility.yul\":17097:17169   */\n      tag_112\n      jump\t// in\n    tag_295:\n        /* \"#utility.yul\":16647:17176   */\n      swap3\n      swap2\n      pop\n      pop\n      jump\t// out\n\n    auxdata: 0xa26469706673582212206cf6ffa7d5a48b4fb6773af8c460bd597f2ac7d224073d9db221f017412e8b2564736f6c63430008110033\n}\n",
				"bytecode": {
					"linkReferences": {},
					"object": "608060405260405180608001604052806040518060400160405280600481526020017f4972616e0000000000000000000000000000000000000000000000000000000081525081526020016040518060400160405280600a81526020017f416667616e697374616e0000000000000000000000000000000000000000000081525081526020016040518060400160405280600c81526020017f5475726b6d656e697374616e000000000000000000000000000000000000000081525081526020016040518060400160405280600a81526020017f4b797267797a7374616e0000000000000000000000000000000000000000000081525081525060009060046200010b92919062000187565b5060405180602001604052807372a4bbe493fc0a724460c9940ee6fae5f9209d6173ffffffffffffffffffffffffffffffffffffffff1673ffffffffffffffffffffffffffffffffffffffff1681525060019060016200016d929190620001e7565b5060286002553480156200018057600080fd5b5062000664565b828054828255906000526020600020908101928215620001d4579160200282015b82811115620001d3578251829081620001c291906200057d565b5091602001919060010190620001a8565b5b509050620001e3919062000276565b5090565b82805482825590600052602060002090810192821562000263579160200282015b82811115620002625782518260006101000a81548173ffffffffffffffffffffffffffffffffffffffff021916908373ffffffffffffffffffffffffffffffffffffffff1602179055509160200191906001019062000208565b5b5090506200027291906200029e565b5090565b5b808211156200029a5760008181620002909190620002bd565b5060010162000277565b5090565b5b80821115620002b95760008160009055506001016200029f565b5090565b508054620002cb906200036c565b6000825580601f10620002df575062000300565b601f016020900490600052602060002090810190620002ff91906200029e565b5b50565b600081519050919050565b7f4e487b7100000000000000000000000000000000000000000000000000000000600052604160045260246000fd5b7f4e487b7100000000000000000000000000000000000000000000000000000000600052602260045260246000fd5b600060028204905060018216806200038557607f821691505b6020821081036200039b576200039a6200033d565b5b50919050565b60008190508160005260206000209050919050565b60006020601f8301049050919050565b600082821b905092915050565b600060088302620004057fffffffffffffffffffffffffffffffffffffffffffffffffffffffffffffffff82620003c6565b620004118683620003c6565b95508019841693508086168417925050509392505050565b6000819050919050565b6000819050919050565b60006200045e62000458620004528462000429565b62000433565b62000429565b9050919050565b6000819050919050565b6200047a836200043d565b62000492620004898262000465565b848454620003d3565b825550505050565b600090565b620004a96200049a565b620004b68184846200046f565b505050565b5b81811015620004de57620004d26000826200049f565b600181019050620004bc565b5050565b601f8211156200052d57620004f781620003a1565b6200050284620003b6565b8101602085101562000512578190505b6200052a6200052185620003b6565b830182620004bb565b50505b505050565b600082821c905092915050565b6000620005526000198460080262000532565b1980831691505092915050565b60006200056d83836200053f565b9150826002028217905092915050565b620005888262000303565b67ffffffffffffffff811115620005a457620005a36200030e565b5b620005b082546200036c565b620005bd828285620004e2565b600060209050601f831160018114620005f55760008415620005e0578287015190505b620005ec85826200055f565b8655506200065c565b601f1984166200060586620003a1565b60005b828110156200062f5784890151825560018201915060208501945060208101905062000608565b868310156200064f57848901516200064b601f8916826200053f565b8355505b6001600288020188555050505b505050505050565b610e9a80620006746000396000f3fe60806040526004361061003f5760003560e01c8063083a061514610044578063bd79929514610081578063dd0ae4d6146100b1578063f9e26ef6146100ee575b600080fd5b34801561005057600080fd5b5061006b600480360381019061006691906108a3565b61012b565b604051610078919061092a565b60405180910390f35b61009b600480360381019061009691906109b9565b61028e565b6040516100a8919061092a565b60405180910390f35b3480156100bd57600080fd5b506100d860048036038101906100d391906108a3565b610373565b6040516100e5919061092a565b60405180910390f35b3480156100fa57600080fd5b50610115600480360381019061011091906108a3565b6104d4565b604051610122919061092a565b60405180910390f35b600080600090505b60018054905081101561028257836000015173ffffffffffffffffffffffffffffffffffffffff166001828154811061016f5761016e6109f9565b5b9060005260206000200160009054906101000a900473ffffffffffffffffffffffffffffffffffffffff1673ffffffffffffffffffffffffffffffffffffffff1614806102295750826000015173ffffffffffffffffffffffffffffffffffffffff16600182815481106101e6576101e56109f9565b5b9060005260206000200160009054906101000a900473ffffffffffffffffffffffffffffffffffffffff1673ffffffffffffffffffffffffffffffffffffffff16145b1561026f577f3eb7b4618223a419acf4654a8ccab76f089242b23c05eb5ca310e68779589f134260405161025d9190610a94565b60405180910390a16001915050610288565b808061027a90610af1565b915050610133565b50600090505b92915050565b6000600254821115610321578273ffffffffffffffffffffffffffffffffffffffff166108fc839081150290604051600060405180830381858888f193505050501580156102e0573d6000803e3d6000fd5b507f695633452b1d0063d6f5ae521db19faef8382a4f1d9896180fed154ab1f54c25426040516103109190610b85565b60405180910390a16001905061036d565b8273ffffffffffffffffffffffffffffffffffffffff166108fc839081150290604051600060405180830381858888f19350505050158015610367573d6000803e3d6000fd5b50600090505b92915050565b600080600090505b6000805490508110156104c8578360c0015160405160200161039d9190610c24565b60405160208183030381529060405280519060200120600082815481106103c7576103c66109f9565b5b906000526020600020016040516020016103e19190610d33565b60405160208183030381529060405280519060200120148061046f57508260c001516040516020016104139190610c24565b604051602081830303815290604052805190602001206000828154811061043d5761043c6109f9565b5b906000526020600020016040516020016104579190610d33565b60405160208183030381529060405280519060200120145b156104b5577f51d9a94b04f50acc666f49c396523e970bfb47916f94955849977c62fc0e8e0b426040516104a39190610dbc565b60405180910390a160019150506104ce565b80806104c090610af1565b91505061037b565b50600090505b92915050565b60008260e00151806104e757508160e001515b1561052c577f6f0574c43ca8dc8a1e98aa228b41dd7b659ec8f259189f8bfa33ed065dd30df94260405161051b9190610e36565b60405180910390a160019050610531565b600090505b92915050565b6000604051905090565b600080fd5b600080fd5b600080fd5b6000601f19601f8301169050919050565b7f4e487b7100000000000000000000000000000000000000000000000000000000600052604160045260246000fd5b61059982610550565b810181811067ffffffffffffffff821117156105b8576105b7610561565b5b80604052505050565b60006105cb610537565b90506105d78282610590565b919050565b600080fd5b600073ffffffffffffffffffffffffffffffffffffffff82169050919050565b600061060c826105e1565b9050919050565b61061c81610601565b811461062757600080fd5b50565b60008135905061063981610613565b92915050565b600080fd5b600080fd5b600067ffffffffffffffff82111561066457610663610561565b5b61066d82610550565b9050602081019050919050565b82818337600083830152505050565b600061069c61069784610649565b6105c1565b9050828152602081018484840111156106b8576106b7610644565b5b6106c384828561067a565b509392505050565b600082601f8301126106e0576106df61063f565b5b81356106f0848260208601610689565b91505092915050565b60008115159050919050565b61070e816106f9565b811461071957600080fd5b50565b60008135905061072b81610705565b92915050565b600061010082840312156107485761074761054b565b5b6107536101006105c1565b905060006107638482850161062a565b600083015250602082013567ffffffffffffffff811115610787576107866105dc565b5b610793848285016106cb565b602083015250604082013567ffffffffffffffff8111156107b7576107b66105dc565b5b6107c3848285016106cb565b604083015250606082013567ffffffffffffffff8111156107e7576107e66105dc565b5b6107f3848285016106cb565b606083015250608082013567ffffffffffffffff811115610817576108166105dc565b5b610823848285016106cb565b60808301525060a082013567ffffffffffffffff811115610847576108466105dc565b5b610853848285016106cb565b60a08301525060c082013567ffffffffffffffff811115610877576108766105dc565b5b610883848285016106cb565b60c08301525060e06108978482850161071c565b60e08301525092915050565b600080604083850312156108ba576108b9610541565b5b600083013567ffffffffffffffff8111156108d8576108d7610546565b5b6108e485828601610731565b925050602083013567ffffffffffffffff81111561090557610904610546565b5b61091185828601610731565b9150509250929050565b610924816106f9565b82525050565b600060208201905061093f600083018461091b565b92915050565b6000610950826105e1565b9050919050565b61096081610945565b811461096b57600080fd5b50565b60008135905061097d81610957565b92915050565b6000819050919050565b61099681610983565b81146109a157600080fd5b50565b6000813590506109b38161098d565b92915050565b600080604083850312156109d0576109cf610541565b5b60006109de8582860161096e565b92505060206109ef858286016109a4565b9150509250929050565b7f4e487b7100000000000000000000000000000000000000000000000000000000600052603260045260246000fd5b600082825260208201905092915050565b7f77616e74656420496e646976696475616c000000000000000000000000000000600082015250565b6000610a6f601183610a28565b9150610a7a82610a39565b602082019050919050565b610a8e81610983565b82525050565b60006040820190508181036000830152610aad81610a62565b9050610abc6020830184610a85565b92915050565b7f4e487b7100000000000000000000000000000000000000000000000000000000600052601160045260246000fd5b6000610afc82610983565b91507fffffffffffffffffffffffffffffffffffffffffffffffffffffffffffffffff8203610b2e57610b2d610ac2565b5b600182019050919050565b7f4578636565646564204d617820416d6f756e7400000000000000000000000000600082015250565b6000610b6f601383610a28565b9150610b7a82610b39565b602082019050919050565b60006040820190508181036000830152610b9e81610b62565b9050610bad6020830184610a85565b92915050565b600081519050919050565b600081905092915050565b60005b83811015610be7578082015181840152602081019050610bcc565b60008484015250505050565b6000610bfe82610bb3565b610c088185610bbe565b9350610c18818560208601610bc9565b80840191505092915050565b6000610c308284610bf3565b915081905092915050565b7f4e487b7100000000000000000000000000000000000000000000000000000000600052602260045260246000fd5b60006002820490506001821680610c8257607f821691505b602082108103610c9557610c94610c3b565b5b50919050565b60008190508160005260206000209050919050565b60008154610cbd81610c6a565b610cc78186610bbe565b94506001821660008114610ce25760018114610cf757610d2a565b60ff1983168652811515820286019350610d2a565b610d0085610c9b565b60005b83811015610d2257815481890152600182019150602081019050610d03565b838801955050505b50505092915050565b6000610d3f8284610cb0565b915081905092915050565b7f557365722773204e6174696f6e616c69747920697320696e2062616e6e65642060008201527f636f756e74726965730000000000000000000000000000000000000000000000602082015250565b6000610da6602983610a28565b9150610db182610d4a565b604082019050919050565b60006040820190508181036000830152610dd581610d99565b9050610de46020830184610a85565b92915050565b7f5573657220697320706f6c69746963616c6c79206578706f7365640000000000600082015250565b6000610e20601b83610a28565b9150610e2b82610dea565b602082019050919050565b60006040820190508181036000830152610e4f81610e13565b9050610e5e6020830184610a85565b9291505056fea26469706673582212206cf6ffa7d5a48b4fb6773af8c460bd597f2ac7d224073d9db221f017412e8b2564736f6c63430008110033",
					"opcodes": "PUSH1 0x80 PUSH1 0x40 MSTORE PUSH1 0x40 MLOAD DUP1 PUSH1 0x80 ADD PUSH1 0x40 MSTORE DUP1 PUSH1 0x40 MLOAD DUP1 PUSH1 0x40 ADD PUSH1 0x40 MSTORE DUP1 PUSH1 0x4 DUP2 MSTORE PUSH1 0x20 ADD PUSH32 0x4972616E00000000000000000000000000000000000000000000000000000000 DUP2 MSTORE POP DUP2 MSTORE PUSH1 0x20 ADD PUSH1 0x40 MLOAD DUP1 PUSH1 0x40 ADD PUSH1 0x40 MSTORE DUP1 PUSH1 0xA DUP2 MSTORE PUSH1 0x20 ADD PUSH32 0x416667616E697374616E00000000000000000000000000000000000000000000 DUP2 MSTORE POP DUP2 MSTORE PUSH1 0x20 ADD PUSH1 0x40 MLOAD DUP1 PUSH1 0x40 ADD PUSH1 0x40 MSTORE DUP1 PUSH1 0xC DUP2 MSTORE PUSH1 0x20 ADD PUSH32 0x5475726B6D656E697374616E0000000000000000000000000000000000000000 DUP2 MSTORE POP DUP2 MSTORE PUSH1 0x20 ADD PUSH1 0x40 MLOAD DUP1 PUSH1 0x40 ADD PUSH1 0x40 MSTORE DUP1 PUSH1 0xA DUP2 MSTORE PUSH1 0x20 ADD PUSH32 0x4B797267797A7374616E00000000000000000000000000000000000000000000 DUP2 MSTORE POP DUP2 MSTORE POP PUSH1 0x0 SWAP1 PUSH1 0x4 PUSH3 0x10B SWAP3 SWAP2 SWAP1 PUSH3 0x187 JUMP JUMPDEST POP PUSH1 0x40 MLOAD DUP1 PUSH1 0x20 ADD PUSH1 0x40 MSTORE DUP1 PUSH20 0x72A4BBE493FC0A724460C9940EE6FAE5F9209D61 PUSH20 0xFFFFFFFFFFFFFFFFFFFFFFFFFFFFFFFFFFFFFFFF AND PUSH20 0xFFFFFFFFFFFFFFFFFFFFFFFFFFFFFFFFFFFFFFFF AND DUP2 MSTORE POP PUSH1 0x1 SWAP1 PUSH1 0x1 PUSH3 0x16D SWAP3 SWAP2 SWAP1 PUSH3 0x1E7 JUMP JUMPDEST POP PUSH1 0x28 PUSH1 0x2 SSTORE CALLVALUE DUP1 ISZERO PUSH3 0x180 JUMPI PUSH1 0x0 DUP1 REVERT JUMPDEST POP PUSH3 0x664 JUMP JUMPDEST DUP3 DUP1 SLOAD DUP3 DUP3 SSTORE SWAP1 PUSH1 0x0 MSTORE PUSH1 0x20 PUSH1 0x0 KECCAK256 SWAP1 DUP2 ADD SWAP3 DUP3 ISZERO PUSH3 0x1D4 JUMPI SWAP2 PUSH1 0x20 MUL DUP3 ADD JUMPDEST DUP3 DUP2 GT ISZERO PUSH3 0x1D3 JUMPI DUP3 MLOAD DUP3 SWAP1 DUP2 PUSH3 0x1C2 SWAP2 SWAP1 PUSH3 0x57D JUMP JUMPDEST POP SWAP2 PUSH1 0x20 ADD SWAP2 SWAP1 PUSH1 0x1 ADD SWAP1 PUSH3 0x1A8 JUMP JUMPDEST JUMPDEST POP SWAP1 POP PUSH3 0x1E3 SWAP2 SWAP1 PUSH3 0x276 JUMP JUMPDEST POP SWAP1 JUMP JUMPDEST DUP3 DUP1 SLOAD DUP3 DUP3 SSTORE SWAP1 PUSH1 0x0 MSTORE PUSH1 0x20 PUSH1 0x0 KECCAK256 SWAP1 DUP2 ADD SWAP3 DUP3 ISZERO PUSH3 0x263 JUMPI SWAP2 PUSH1 0x20 MUL DUP3 ADD JUMPDEST DUP3 DUP2 GT ISZERO PUSH3 0x262 JUMPI DUP3 MLOAD DUP3 PUSH1 0x0 PUSH2 0x100 EXP DUP2 SLOAD DUP2 PUSH20 0xFFFFFFFFFFFFFFFFFFFFFFFFFFFFFFFFFFFFFFFF MUL NOT AND SWAP1 DUP4 PUSH20 0xFFFFFFFFFFFFFFFFFFFFFFFFFFFFFFFFFFFFFFFF AND MUL OR SWAP1 SSTORE POP SWAP2 PUSH1 0x20 ADD SWAP2 SWAP1 PUSH1 0x1 ADD SWAP1 PUSH3 0x208 JUMP JUMPDEST JUMPDEST POP SWAP1 POP PUSH3 0x272 SWAP2 SWAP1 PUSH3 0x29E JUMP JUMPDEST POP SWAP1 JUMP JUMPDEST JUMPDEST DUP1 DUP3 GT ISZERO PUSH3 0x29A JUMPI PUSH1 0x0 DUP2 DUP2 PUSH3 0x290 SWAP2 SWAP1 PUSH3 0x2BD JUMP JUMPDEST POP PUSH1 0x1 ADD PUSH3 0x277 JUMP JUMPDEST POP SWAP1 JUMP JUMPDEST JUMPDEST DUP1 DUP3 GT ISZERO PUSH3 0x2B9 JUMPI PUSH1 0x0 DUP2 PUSH1 0x0 SWAP1 SSTORE POP PUSH1 0x1 ADD PUSH3 0x29F JUMP JUMPDEST POP SWAP1 JUMP JUMPDEST POP DUP1 SLOAD PUSH3 0x2CB SWAP1 PUSH3 0x36C JUMP JUMPDEST PUSH1 0x0 DUP3 SSTORE DUP1 PUSH1 0x1F LT PUSH3 0x2DF JUMPI POP PUSH3 0x300 JUMP JUMPDEST PUSH1 0x1F ADD PUSH1 0x20 SWAP1 DIV SWAP1 PUSH1 0x0 MSTORE PUSH1 0x20 PUSH1 0x0 KECCAK256 SWAP1 DUP2 ADD SWAP1 PUSH3 0x2FF SWAP2 SWAP1 PUSH3 0x29E JUMP JUMPDEST JUMPDEST POP JUMP JUMPDEST PUSH1 0x0 DUP2 MLOAD SWAP1 POP SWAP2 SWAP1 POP JUMP JUMPDEST PUSH32 0x4E487B7100000000000000000000000000000000000000000000000000000000 PUSH1 0x0 MSTORE PUSH1 0x41 PUSH1 0x4 MSTORE PUSH1 0x24 PUSH1 0x0 REVERT JUMPDEST PUSH32 0x4E487B7100000000000000000000000000000000000000000000000000000000 PUSH1 0x0 MSTORE PUSH1 0x22 PUSH1 0x4 MSTORE PUSH1 0x24 PUSH1 0x0 REVERT JUMPDEST PUSH1 0x0 PUSH1 0x2 DUP3 DIV SWAP1 POP PUSH1 0x1 DUP3 AND DUP1 PUSH3 0x385 JUMPI PUSH1 0x7F DUP3 AND SWAP2 POP JUMPDEST PUSH1 0x20 DUP3 LT DUP2 SUB PUSH3 0x39B JUMPI PUSH3 0x39A PUSH3 0x33D JUMP JUMPDEST JUMPDEST POP SWAP2 SWAP1 POP JUMP JUMPDEST PUSH1 0x0 DUP2 SWAP1 POP DUP2 PUSH1 0x0 MSTORE PUSH1 0x20 PUSH1 0x0 KECCAK256 SWAP1 POP SWAP2 SWAP1 POP JUMP JUMPDEST PUSH1 0x0 PUSH1 0x20 PUSH1 0x1F DUP4 ADD DIV SWAP1 POP SWAP2 SWAP1 POP JUMP JUMPDEST PUSH1 0x0 DUP3 DUP3 SHL SWAP1 POP SWAP3 SWAP2 POP POP JUMP JUMPDEST PUSH1 0x0 PUSH1 0x8 DUP4 MUL PUSH3 0x405 PUSH32 0xFFFFFFFFFFFFFFFFFFFFFFFFFFFFFFFFFFFFFFFFFFFFFFFFFFFFFFFFFFFFFFFF DUP3 PUSH3 0x3C6 JUMP JUMPDEST PUSH3 0x411 DUP7 DUP4 PUSH3 0x3C6 JUMP JUMPDEST SWAP6 POP DUP1 NOT DUP5 AND SWAP4 POP DUP1 DUP7 AND DUP5 OR SWAP3 POP POP POP SWAP4 SWAP3 POP POP POP JUMP JUMPDEST PUSH1 0x0 DUP2 SWAP1 POP SWAP2 SWAP1 POP JUMP JUMPDEST PUSH1 0x0 DUP2 SWAP1 POP SWAP2 SWAP1 POP JUMP JUMPDEST PUSH1 0x0 PUSH3 0x45E PUSH3 0x458 PUSH3 0x452 DUP5 PUSH3 0x429 JUMP JUMPDEST PUSH3 0x433 JUMP JUMPDEST PUSH3 0x429 JUMP JUMPDEST SWAP1 POP SWAP2 SWAP1 POP JUMP JUMPDEST PUSH1 0x0 DUP2 SWAP1 POP SWAP2 SWAP1 POP JUMP JUMPDEST PUSH3 0x47A DUP4 PUSH3 0x43D JUMP JUMPDEST PUSH3 0x492 PUSH3 0x489 DUP3 PUSH3 0x465 JUMP JUMPDEST DUP5 DUP5 SLOAD PUSH3 0x3D3 JUMP JUMPDEST DUP3 SSTORE POP POP POP POP JUMP JUMPDEST PUSH1 0x0 SWAP1 JUMP JUMPDEST PUSH3 0x4A9 PUSH3 0x49A JUMP JUMPDEST PUSH3 0x4B6 DUP2 DUP5 DUP5 PUSH3 0x46F JUMP JUMPDEST POP POP POP JUMP JUMPDEST JUMPDEST DUP2 DUP2 LT ISZERO PUSH3 0x4DE JUMPI PUSH3 0x4D2 PUSH1 0x0 DUP3 PUSH3 0x49F JUMP JUMPDEST PUSH1 0x1 DUP2 ADD SWAP1 POP PUSH3 0x4BC JUMP JUMPDEST POP POP JUMP JUMPDEST PUSH1 0x1F DUP3 GT ISZERO PUSH3 0x52D JUMPI PUSH3 0x4F7 DUP2 PUSH3 0x3A1 JUMP JUMPDEST PUSH3 0x502 DUP5 PUSH3 0x3B6 JUMP JUMPDEST DUP2 ADD PUSH1 0x20 DUP6 LT ISZERO PUSH3 0x512 JUMPI DUP2 SWAP1 POP JUMPDEST PUSH3 0x52A PUSH3 0x521 DUP6 PUSH3 0x3B6 JUMP JUMPDEST DUP4 ADD DUP3 PUSH3 0x4BB JUMP JUMPDEST POP POP JUMPDEST POP POP POP JUMP JUMPDEST PUSH1 0x0 DUP3 DUP3 SHR SWAP1 POP SWAP3 SWAP2 POP POP JUMP JUMPDEST PUSH1 0x0 PUSH3 0x552 PUSH1 0x0 NOT DUP5 PUSH1 0x8 MUL PUSH3 0x532 JUMP JUMPDEST NOT DUP1 DUP4 AND SWAP2 POP POP SWAP3 SWAP2 POP POP JUMP JUMPDEST PUSH1 0x0 PUSH3 0x56D DUP4 DUP4 PUSH3 0x53F JUMP JUMPDEST SWAP2 POP DUP3 PUSH1 0x2 MUL DUP3 OR SWAP1 POP SWAP3 SWAP2 POP POP JUMP JUMPDEST PUSH3 0x588 DUP3 PUSH3 0x303 JUMP JUMPDEST PUSH8 0xFFFFFFFFFFFFFFFF DUP2 GT ISZERO PUSH3 0x5A4 JUMPI PUSH3 0x5A3 PUSH3 0x30E JUMP JUMPDEST JUMPDEST PUSH3 0x5B0 DUP3 SLOAD PUSH3 0x36C JUMP JUMPDEST PUSH3 0x5BD DUP3 DUP3 DUP6 PUSH3 0x4E2 JUMP JUMPDEST PUSH1 0x0 PUSH1 0x20 SWAP1 POP PUSH1 0x1F DUP4 GT PUSH1 0x1 DUP2 EQ PUSH3 0x5F5 JUMPI PUSH1 0x0 DUP5 ISZERO PUSH3 0x5E0 JUMPI DUP3 DUP8 ADD MLOAD SWAP1 POP JUMPDEST PUSH3 0x5EC DUP6 DUP3 PUSH3 0x55F JUMP JUMPDEST DUP7 SSTORE POP PUSH3 0x65C JUMP JUMPDEST PUSH1 0x1F NOT DUP5 AND PUSH3 0x605 DUP7 PUSH3 0x3A1 JUMP JUMPDEST PUSH1 0x0 JUMPDEST DUP3 DUP2 LT ISZERO PUSH3 0x62F JUMPI DUP5 DUP10 ADD MLOAD DUP3 SSTORE PUSH1 0x1 DUP3 ADD SWAP2 POP PUSH1 0x20 DUP6 ADD SWAP5 POP PUSH1 0x20 DUP2 ADD SWAP1 POP PUSH3 0x608 JUMP JUMPDEST DUP7 DUP4 LT ISZERO PUSH3 0x64F JUMPI DUP5 DUP10 ADD MLOAD PUSH3 0x64B PUSH1 0x1F DUP10 AND DUP3 PUSH3 0x53F JUMP JUMPDEST DUP4 SSTORE POP JUMPDEST PUSH1 0x1 PUSH1 0x2 DUP9 MUL ADD DUP9 SSTORE POP POP POP JUMPDEST POP POP POP POP POP POP JUMP JUMPDEST PUSH2 0xE9A DUP1 PUSH3 0x674 PUSH1 0x0 CODECOPY PUSH1 0x0 RETURN INVALID PUSH1 0x80 PUSH1 0x40 MSTORE PUSH1 0x4 CALLDATASIZE LT PUSH2 0x3F JUMPI PUSH1 0x0 CALLDATALOAD PUSH1 0xE0 SHR DUP1 PUSH4 0x83A0615 EQ PUSH2 0x44 JUMPI DUP1 PUSH4 0xBD799295 EQ PUSH2 0x81 JUMPI DUP1 PUSH4 0xDD0AE4D6 EQ PUSH2 0xB1 JUMPI DUP1 PUSH4 0xF9E26EF6 EQ PUSH2 0xEE JUMPI JUMPDEST PUSH1 0x0 DUP1 REVERT JUMPDEST CALLVALUE DUP1 ISZERO PUSH2 0x50 JUMPI PUSH1 0x0 DUP1 REVERT JUMPDEST POP PUSH2 0x6B PUSH1 0x4 DUP1 CALLDATASIZE SUB DUP2 ADD SWAP1 PUSH2 0x66 SWAP2 SWAP1 PUSH2 0x8A3 JUMP JUMPDEST PUSH2 0x12B JUMP JUMPDEST PUSH1 0x40 MLOAD PUSH2 0x78 SWAP2 SWAP1 PUSH2 0x92A JUMP JUMPDEST PUSH1 0x40 MLOAD DUP1 SWAP2 SUB SWAP1 RETURN JUMPDEST PUSH2 0x9B PUSH1 0x4 DUP1 CALLDATASIZE SUB DUP2 ADD SWAP1 PUSH2 0x96 SWAP2 SWAP1 PUSH2 0x9B9 JUMP JUMPDEST PUSH2 0x28E JUMP JUMPDEST PUSH1 0x40 MLOAD PUSH2 0xA8 SWAP2 SWAP1 PUSH2 0x92A JUMP JUMPDEST PUSH1 0x40 MLOAD DUP1 SWAP2 SUB SWAP1 RETURN JUMPDEST CALLVALUE DUP1 ISZERO PUSH2 0xBD JUMPI PUSH1 0x0 DUP1 REVERT JUMPDEST POP PUSH2 0xD8 PUSH1 0x4 DUP1 CALLDATASIZE SUB DUP2 ADD SWAP1 PUSH2 0xD3 SWAP2 SWAP1 PUSH2 0x8A3 JUMP JUMPDEST PUSH2 0x373 JUMP JUMPDEST PUSH1 0x40 MLOAD PUSH2 0xE5 SWAP2 SWAP1 PUSH2 0x92A JUMP JUMPDEST PUSH1 0x40 MLOAD DUP1 SWAP2 SUB SWAP1 RETURN JUMPDEST CALLVALUE DUP1 ISZERO PUSH2 0xFA JUMPI PUSH1 0x0 DUP1 REVERT JUMPDEST POP PUSH2 0x115 PUSH1 0x4 DUP1 CALLDATASIZE SUB DUP2 ADD SWAP1 PUSH2 0x110 SWAP2 SWAP1 PUSH2 0x8A3 JUMP JUMPDEST PUSH2 0x4D4 JUMP JUMPDEST PUSH1 0x40 MLOAD PUSH2 0x122 SWAP2 SWAP1 PUSH2 0x92A JUMP JUMPDEST PUSH1 0x40 MLOAD DUP1 SWAP2 SUB SWAP1 RETURN JUMPDEST PUSH1 0x0 DUP1 PUSH1 0x0 SWAP1 POP JUMPDEST PUSH1 0x1 DUP1 SLOAD SWAP1 POP DUP2 LT ISZERO PUSH2 0x282 JUMPI DUP4 PUSH1 0x0 ADD MLOAD PUSH20 0xFFFFFFFFFFFFFFFFFFFFFFFFFFFFFFFFFFFFFFFF AND PUSH1 0x1 DUP3 DUP2 SLOAD DUP2 LT PUSH2 0x16F JUMPI PUSH2 0x16E PUSH2 0x9F9 JUMP JUMPDEST JUMPDEST SWAP1 PUSH1 0x0 MSTORE PUSH1 0x20 PUSH1 0x0 KECCAK256 ADD PUSH1 0x0 SWAP1 SLOAD SWAP1 PUSH2 0x100 EXP SWAP1 DIV PUSH20 0xFFFFFFFFFFFFFFFFFFFFFFFFFFFFFFFFFFFFFFFF AND PUSH20 0xFFFFFFFFFFFFFFFFFFFFFFFFFFFFFFFFFFFFFFFF AND EQ DUP1 PUSH2 0x229 JUMPI POP DUP3 PUSH1 0x0 ADD MLOAD PUSH20 0xFFFFFFFFFFFFFFFFFFFFFFFFFFFFFFFFFFFFFFFF AND PUSH1 0x1 DUP3 DUP2 SLOAD DUP2 LT PUSH2 0x1E6 JUMPI PUSH2 0x1E5 PUSH2 0x9F9 JUMP JUMPDEST JUMPDEST SWAP1 PUSH1 0x0 MSTORE PUSH1 0x20 PUSH1 0x0 KECCAK256 ADD PUSH1 0x0 SWAP1 SLOAD SWAP1 PUSH2 0x100 EXP SWAP1 DIV PUSH20 0xFFFFFFFFFFFFFFFFFFFFFFFFFFFFFFFFFFFFFFFF AND PUSH20 0xFFFFFFFFFFFFFFFFFFFFFFFFFFFFFFFFFFFFFFFF AND EQ JUMPDEST ISZERO PUSH2 0x26F JUMPI PUSH32 0x3EB7B4618223A419ACF4654A8CCAB76F089242B23C05EB5CA310E68779589F13 TIMESTAMP PUSH1 0x40 MLOAD PUSH2 0x25D SWAP2 SWAP1 PUSH2 0xA94 JUMP JUMPDEST PUSH1 0x40 MLOAD DUP1 SWAP2 SUB SWAP1 LOG1 PUSH1 0x1 SWAP2 POP POP PUSH2 0x288 JUMP JUMPDEST DUP1 DUP1 PUSH2 0x27A SWAP1 PUSH2 0xAF1 JUMP JUMPDEST SWAP2 POP POP PUSH2 0x133 JUMP JUMPDEST POP PUSH1 0x0 SWAP1 POP JUMPDEST SWAP3 SWAP2 POP POP JUMP JUMPDEST PUSH1 0x0 PUSH1 0x2 SLOAD DUP3 GT ISZERO PUSH2 0x321 JUMPI DUP3 PUSH20 0xFFFFFFFFFFFFFFFFFFFFFFFFFFFFFFFFFFFFFFFF AND PUSH2 0x8FC DUP4 SWAP1 DUP2 ISZERO MUL SWAP1 PUSH1 0x40 MLOAD PUSH1 0x0 PUSH1 0x40 MLOAD DUP1 DUP4 SUB DUP2 DUP6 DUP9 DUP9 CALL SWAP4 POP POP POP POP ISZERO DUP1 ISZERO PUSH2 0x2E0 JUMPI RETURNDATASIZE PUSH1 0x0 DUP1 RETURNDATACOPY RETURNDATASIZE PUSH1 0x0 REVERT JUMPDEST POP PUSH32 0x695633452B1D0063D6F5AE521DB19FAEF8382A4F1D9896180FED154AB1F54C25 TIMESTAMP PUSH1 0x40 MLOAD PUSH2 0x310 SWAP2 SWAP1 PUSH2 0xB85 JUMP JUMPDEST PUSH1 0x40 MLOAD DUP1 SWAP2 SUB SWAP1 LOG1 PUSH1 0x1 SWAP1 POP PUSH2 0x36D JUMP JUMPDEST DUP3 PUSH20 0xFFFFFFFFFFFFFFFFFFFFFFFFFFFFFFFFFFFFFFFF AND PUSH2 0x8FC DUP4 SWAP1 DUP2 ISZERO MUL SWAP1 PUSH1 0x40 MLOAD PUSH1 0x0 PUSH1 0x40 MLOAD DUP1 DUP4 SUB DUP2 DUP6 DUP9 DUP9 CALL SWAP4 POP POP POP POP ISZERO DUP1 ISZERO PUSH2 0x367 JUMPI RETURNDATASIZE PUSH1 0x0 DUP1 RETURNDATACOPY RETURNDATASIZE PUSH1 0x0 REVERT JUMPDEST POP PUSH1 0x0 SWAP1 POP JUMPDEST SWAP3 SWAP2 POP POP JUMP JUMPDEST PUSH1 0x0 DUP1 PUSH1 0x0 SWAP1 POP JUMPDEST PUSH1 0x0 DUP1 SLOAD SWAP1 POP DUP2 LT ISZERO PUSH2 0x4C8 JUMPI DUP4 PUSH1 0xC0 ADD MLOAD PUSH1 0x40 MLOAD PUSH1 0x20 ADD PUSH2 0x39D SWAP2 SWAP1 PUSH2 0xC24 JUMP JUMPDEST PUSH1 0x40 MLOAD PUSH1 0x20 DUP2 DUP4 SUB SUB DUP2 MSTORE SWAP1 PUSH1 0x40 MSTORE DUP1 MLOAD SWAP1 PUSH1 0x20 ADD KECCAK256 PUSH1 0x0 DUP3 DUP2 SLOAD DUP2 LT PUSH2 0x3C7 JUMPI PUSH2 0x3C6 PUSH2 0x9F9 JUMP JUMPDEST JUMPDEST SWAP1 PUSH1 0x0 MSTORE PUSH1 0x20 PUSH1 0x0 KECCAK256 ADD PUSH1 0x40 MLOAD PUSH1 0x20 ADD PUSH2 0x3E1 SWAP2 SWAP1 PUSH2 0xD33 JUMP JUMPDEST PUSH1 0x40 MLOAD PUSH1 0x20 DUP2 DUP4 SUB SUB DUP2 MSTORE SWAP1 PUSH1 0x40 MSTORE DUP1 MLOAD SWAP1 PUSH1 0x20 ADD KECCAK256 EQ DUP1 PUSH2 0x46F JUMPI POP DUP3 PUSH1 0xC0 ADD MLOAD PUSH1 0x40 MLOAD PUSH1 0x20 ADD PUSH2 0x413 SWAP2 SWAP1 PUSH2 0xC24 JUMP JUMPDEST PUSH1 0x40 MLOAD PUSH1 0x20 DUP2 DUP4 SUB SUB DUP2 MSTORE SWAP1 PUSH1 0x40 MSTORE DUP1 MLOAD SWAP1 PUSH1 0x20 ADD KECCAK256 PUSH1 0x0 DUP3 DUP2 SLOAD DUP2 LT PUSH2 0x43D JUMPI PUSH2 0x43C PUSH2 0x9F9 JUMP JUMPDEST JUMPDEST SWAP1 PUSH1 0x0 MSTORE PUSH1 0x20 PUSH1 0x0 KECCAK256 ADD PUSH1 0x40 MLOAD PUSH1 0x20 ADD PUSH2 0x457 SWAP2 SWAP1 PUSH2 0xD33 JUMP JUMPDEST PUSH1 0x40 MLOAD PUSH1 0x20 DUP2 DUP4 SUB SUB DUP2 MSTORE SWAP1 PUSH1 0x40 MSTORE DUP1 MLOAD SWAP1 PUSH1 0x20 ADD KECCAK256 EQ JUMPDEST ISZERO PUSH2 0x4B5 JUMPI PUSH32 0x51D9A94B04F50ACC666F49C396523E970BFB47916F94955849977C62FC0E8E0B TIMESTAMP PUSH1 0x40 MLOAD PUSH2 0x4A3 SWAP2 SWAP1 PUSH2 0xDBC JUMP JUMPDEST PUSH1 0x40 MLOAD DUP1 SWAP2 SUB SWAP1 LOG1 PUSH1 0x1 SWAP2 POP POP PUSH2 0x4CE JUMP JUMPDEST DUP1 DUP1 PUSH2 0x4C0 SWAP1 PUSH2 0xAF1 JUMP JUMPDEST SWAP2 POP POP PUSH2 0x37B JUMP JUMPDEST POP PUSH1 0x0 SWAP1 POP JUMPDEST SWAP3 SWAP2 POP POP JUMP JUMPDEST PUSH1 0x0 DUP3 PUSH1 0xE0 ADD MLOAD DUP1 PUSH2 0x4E7 JUMPI POP DUP2 PUSH1 0xE0 ADD MLOAD JUMPDEST ISZERO PUSH2 0x52C JUMPI PUSH32 0x6F0574C43CA8DC8A1E98AA228B41DD7B659EC8F259189F8BFA33ED065DD30DF9 TIMESTAMP PUSH1 0x40 MLOAD PUSH2 0x51B SWAP2 SWAP1 PUSH2 0xE36 JUMP JUMPDEST PUSH1 0x40 MLOAD DUP1 SWAP2 SUB SWAP1 LOG1 PUSH1 0x1 SWAP1 POP PUSH2 0x531 JUMP JUMPDEST PUSH1 0x0 SWAP1 POP JUMPDEST SWAP3 SWAP2 POP POP JUMP JUMPDEST PUSH1 0x0 PUSH1 0x40 MLOAD SWAP1 POP SWAP1 JUMP JUMPDEST PUSH1 0x0 DUP1 REVERT JUMPDEST PUSH1 0x0 DUP1 REVERT JUMPDEST PUSH1 0x0 DUP1 REVERT JUMPDEST PUSH1 0x0 PUSH1 0x1F NOT PUSH1 0x1F DUP4 ADD AND SWAP1 POP SWAP2 SWAP1 POP JUMP JUMPDEST PUSH32 0x4E487B7100000000000000000000000000000000000000000000000000000000 PUSH1 0x0 MSTORE PUSH1 0x41 PUSH1 0x4 MSTORE PUSH1 0x24 PUSH1 0x0 REVERT JUMPDEST PUSH2 0x599 DUP3 PUSH2 0x550 JUMP JUMPDEST DUP2 ADD DUP2 DUP2 LT PUSH8 0xFFFFFFFFFFFFFFFF DUP3 GT OR ISZERO PUSH2 0x5B8 JUMPI PUSH2 0x5B7 PUSH2 0x561 JUMP JUMPDEST JUMPDEST DUP1 PUSH1 0x40 MSTORE POP POP POP JUMP JUMPDEST PUSH1 0x0 PUSH2 0x5CB PUSH2 0x537 JUMP JUMPDEST SWAP1 POP PUSH2 0x5D7 DUP3 DUP3 PUSH2 0x590 JUMP JUMPDEST SWAP2 SWAP1 POP JUMP JUMPDEST PUSH1 0x0 DUP1 REVERT JUMPDEST PUSH1 0x0 PUSH20 0xFFFFFFFFFFFFFFFFFFFFFFFFFFFFFFFFFFFFFFFF DUP3 AND SWAP1 POP SWAP2 SWAP1 POP JUMP JUMPDEST PUSH1 0x0 PUSH2 0x60C DUP3 PUSH2 0x5E1 JUMP JUMPDEST SWAP1 POP SWAP2 SWAP1 POP JUMP JUMPDEST PUSH2 0x61C DUP2 PUSH2 0x601 JUMP JUMPDEST DUP2 EQ PUSH2 0x627 JUMPI PUSH1 0x0 DUP1 REVERT JUMPDEST POP JUMP JUMPDEST PUSH1 0x0 DUP2 CALLDATALOAD SWAP1 POP PUSH2 0x639 DUP2 PUSH2 0x613 JUMP JUMPDEST SWAP3 SWAP2 POP POP JUMP JUMPDEST PUSH1 0x0 DUP1 REVERT JUMPDEST PUSH1 0x0 DUP1 REVERT JUMPDEST PUSH1 0x0 PUSH8 0xFFFFFFFFFFFFFFFF DUP3 GT ISZERO PUSH2 0x664 JUMPI PUSH2 0x663 PUSH2 0x561 JUMP JUMPDEST JUMPDEST PUSH2 0x66D DUP3 PUSH2 0x550 JUMP JUMPDEST SWAP1 POP PUSH1 0x20 DUP2 ADD SWAP1 POP SWAP2 SWAP1 POP JUMP JUMPDEST DUP3 DUP2 DUP4 CALLDATACOPY PUSH1 0x0 DUP4 DUP4 ADD MSTORE POP POP POP JUMP JUMPDEST PUSH1 0x0 PUSH2 0x69C PUSH2 0x697 DUP5 PUSH2 0x649 JUMP JUMPDEST PUSH2 0x5C1 JUMP JUMPDEST SWAP1 POP DUP3 DUP2 MSTORE PUSH1 0x20 DUP2 ADD DUP5 DUP5 DUP5 ADD GT ISZERO PUSH2 0x6B8 JUMPI PUSH2 0x6B7 PUSH2 0x644 JUMP JUMPDEST JUMPDEST PUSH2 0x6C3 DUP5 DUP3 DUP6 PUSH2 0x67A JUMP JUMPDEST POP SWAP4 SWAP3 POP POP POP JUMP JUMPDEST PUSH1 0x0 DUP3 PUSH1 0x1F DUP4 ADD SLT PUSH2 0x6E0 JUMPI PUSH2 0x6DF PUSH2 0x63F JUMP JUMPDEST JUMPDEST DUP2 CALLDATALOAD PUSH2 0x6F0 DUP5 DUP3 PUSH1 0x20 DUP7 ADD PUSH2 0x689 JUMP JUMPDEST SWAP2 POP POP SWAP3 SWAP2 POP POP JUMP JUMPDEST PUSH1 0x0 DUP2 ISZERO ISZERO SWAP1 POP SWAP2 SWAP1 POP JUMP JUMPDEST PUSH2 0x70E DUP2 PUSH2 0x6F9 JUMP JUMPDEST DUP2 EQ PUSH2 0x719 JUMPI PUSH1 0x0 DUP1 REVERT JUMPDEST POP JUMP JUMPDEST PUSH1 0x0 DUP2 CALLDATALOAD SWAP1 POP PUSH2 0x72B DUP2 PUSH2 0x705 JUMP JUMPDEST SWAP3 SWAP2 POP POP JUMP JUMPDEST PUSH1 0x0 PUSH2 0x100 DUP3 DUP5 SUB SLT ISZERO PUSH2 0x748 JUMPI PUSH2 0x747 PUSH2 0x54B JUMP JUMPDEST JUMPDEST PUSH2 0x753 PUSH2 0x100 PUSH2 0x5C1 JUMP JUMPDEST SWAP1 POP PUSH1 0x0 PUSH2 0x763 DUP5 DUP3 DUP6 ADD PUSH2 0x62A JUMP JUMPDEST PUSH1 0x0 DUP4 ADD MSTORE POP PUSH1 0x20 DUP3 ADD CALLDATALOAD PUSH8 0xFFFFFFFFFFFFFFFF DUP2 GT ISZERO PUSH2 0x787 JUMPI PUSH2 0x786 PUSH2 0x5DC JUMP JUMPDEST JUMPDEST PUSH2 0x793 DUP5 DUP3 DUP6 ADD PUSH2 0x6CB JUMP JUMPDEST PUSH1 0x20 DUP4 ADD MSTORE POP PUSH1 0x40 DUP3 ADD CALLDATALOAD PUSH8 0xFFFFFFFFFFFFFFFF DUP2 GT ISZERO PUSH2 0x7B7 JUMPI PUSH2 0x7B6 PUSH2 0x5DC JUMP JUMPDEST JUMPDEST PUSH2 0x7C3 DUP5 DUP3 DUP6 ADD PUSH2 0x6CB JUMP JUMPDEST PUSH1 0x40 DUP4 ADD MSTORE POP PUSH1 0x60 DUP3 ADD CALLDATALOAD PUSH8 0xFFFFFFFFFFFFFFFF DUP2 GT ISZERO PUSH2 0x7E7 JUMPI PUSH2 0x7E6 PUSH2 0x5DC JUMP JUMPDEST JUMPDEST PUSH2 0x7F3 DUP5 DUP3 DUP6 ADD PUSH2 0x6CB JUMP JUMPDEST PUSH1 0x60 DUP4 ADD MSTORE POP PUSH1 0x80 DUP3 ADD CALLDATALOAD PUSH8 0xFFFFFFFFFFFFFFFF DUP2 GT ISZERO PUSH2 0x817 JUMPI PUSH2 0x816 PUSH2 0x5DC JUMP JUMPDEST JUMPDEST PUSH2 0x823 DUP5 DUP3 DUP6 ADD PUSH2 0x6CB JUMP JUMPDEST PUSH1 0x80 DUP4 ADD MSTORE POP PUSH1 0xA0 DUP3 ADD CALLDATALOAD PUSH8 0xFFFFFFFFFFFFFFFF DUP2 GT ISZERO PUSH2 0x847 JUMPI PUSH2 0x846 PUSH2 0x5DC JUMP JUMPDEST JUMPDEST PUSH2 0x853 DUP5 DUP3 DUP6 ADD PUSH2 0x6CB JUMP JUMPDEST PUSH1 0xA0 DUP4 ADD MSTORE POP PUSH1 0xC0 DUP3 ADD CALLDATALOAD PUSH8 0xFFFFFFFFFFFFFFFF DUP2 GT ISZERO PUSH2 0x877 JUMPI PUSH2 0x876 PUSH2 0x5DC JUMP JUMPDEST JUMPDEST PUSH2 0x883 DUP5 DUP3 DUP6 ADD PUSH2 0x6CB JUMP JUMPDEST PUSH1 0xC0 DUP4 ADD MSTORE POP PUSH1 0xE0 PUSH2 0x897 DUP5 DUP3 DUP6 ADD PUSH2 0x71C JUMP JUMPDEST PUSH1 0xE0 DUP4 ADD MSTORE POP SWAP3 SWAP2 POP POP JUMP JUMPDEST PUSH1 0x0 DUP1 PUSH1 0x40 DUP4 DUP6 SUB SLT ISZERO PUSH2 0x8BA JUMPI PUSH2 0x8B9 PUSH2 0x541 JUMP JUMPDEST JUMPDEST PUSH1 0x0 DUP4 ADD CALLDATALOAD PUSH8 0xFFFFFFFFFFFFFFFF DUP2 GT ISZERO PUSH2 0x8D8 JUMPI PUSH2 0x8D7 PUSH2 0x546 JUMP JUMPDEST JUMPDEST PUSH2 0x8E4 DUP6 DUP3 DUP7 ADD PUSH2 0x731 JUMP JUMPDEST SWAP3 POP POP PUSH1 0x20 DUP4 ADD CALLDATALOAD PUSH8 0xFFFFFFFFFFFFFFFF DUP2 GT ISZERO PUSH2 0x905 JUMPI PUSH2 0x904 PUSH2 0x546 JUMP JUMPDEST JUMPDEST PUSH2 0x911 DUP6 DUP3 DUP7 ADD PUSH2 0x731 JUMP JUMPDEST SWAP2 POP POP SWAP3 POP SWAP3 SWAP1 POP JUMP JUMPDEST PUSH2 0x924 DUP2 PUSH2 0x6F9 JUMP JUMPDEST DUP3 MSTORE POP POP JUMP JUMPDEST PUSH1 0x0 PUSH1 0x20 DUP3 ADD SWAP1 POP PUSH2 0x93F PUSH1 0x0 DUP4 ADD DUP5 PUSH2 0x91B JUMP JUMPDEST SWAP3 SWAP2 POP POP JUMP JUMPDEST PUSH1 0x0 PUSH2 0x950 DUP3 PUSH2 0x5E1 JUMP JUMPDEST SWAP1 POP SWAP2 SWAP1 POP JUMP JUMPDEST PUSH2 0x960 DUP2 PUSH2 0x945 JUMP JUMPDEST DUP2 EQ PUSH2 0x96B JUMPI PUSH1 0x0 DUP1 REVERT JUMPDEST POP JUMP JUMPDEST PUSH1 0x0 DUP2 CALLDATALOAD SWAP1 POP PUSH2 0x97D DUP2 PUSH2 0x957 JUMP JUMPDEST SWAP3 SWAP2 POP POP JUMP JUMPDEST PUSH1 0x0 DUP2 SWAP1 POP SWAP2 SWAP1 POP JUMP JUMPDEST PUSH2 0x996 DUP2 PUSH2 0x983 JUMP JUMPDEST DUP2 EQ PUSH2 0x9A1 JUMPI PUSH1 0x0 DUP1 REVERT JUMPDEST POP JUMP JUMPDEST PUSH1 0x0 DUP2 CALLDATALOAD SWAP1 POP PUSH2 0x9B3 DUP2 PUSH2 0x98D JUMP JUMPDEST SWAP3 SWAP2 POP POP JUMP JUMPDEST PUSH1 0x0 DUP1 PUSH1 0x40 DUP4 DUP6 SUB SLT ISZERO PUSH2 0x9D0 JUMPI PUSH2 0x9CF PUSH2 0x541 JUMP JUMPDEST JUMPDEST PUSH1 0x0 PUSH2 0x9DE DUP6 DUP3 DUP7 ADD PUSH2 0x96E JUMP JUMPDEST SWAP3 POP POP PUSH1 0x20 PUSH2 0x9EF DUP6 DUP3 DUP7 ADD PUSH2 0x9A4 JUMP JUMPDEST SWAP2 POP POP SWAP3 POP SWAP3 SWAP1 POP JUMP JUMPDEST PUSH32 0x4E487B7100000000000000000000000000000000000000000000000000000000 PUSH1 0x0 MSTORE PUSH1 0x32 PUSH1 0x4 MSTORE PUSH1 0x24 PUSH1 0x0 REVERT JUMPDEST PUSH1 0x0 DUP3 DUP3 MSTORE PUSH1 0x20 DUP3 ADD SWAP1 POP SWAP3 SWAP2 POP POP JUMP JUMPDEST PUSH32 0x77616E74656420496E646976696475616C000000000000000000000000000000 PUSH1 0x0 DUP3 ADD MSTORE POP JUMP JUMPDEST PUSH1 0x0 PUSH2 0xA6F PUSH1 0x11 DUP4 PUSH2 0xA28 JUMP JUMPDEST SWAP2 POP PUSH2 0xA7A DUP3 PUSH2 0xA39 JUMP JUMPDEST PUSH1 0x20 DUP3 ADD SWAP1 POP SWAP2 SWAP1 POP JUMP JUMPDEST PUSH2 0xA8E DUP2 PUSH2 0x983 JUMP JUMPDEST DUP3 MSTORE POP POP JUMP JUMPDEST PUSH1 0x0 PUSH1 0x40 DUP3 ADD SWAP1 POP DUP2 DUP2 SUB PUSH1 0x0 DUP4 ADD MSTORE PUSH2 0xAAD DUP2 PUSH2 0xA62 JUMP JUMPDEST SWAP1 POP PUSH2 0xABC PUSH1 0x20 DUP4 ADD DUP5 PUSH2 0xA85 JUMP JUMPDEST SWAP3 SWAP2 POP POP JUMP JUMPDEST PUSH32 0x4E487B7100000000000000000000000000000000000000000000000000000000 PUSH1 0x0 MSTORE PUSH1 0x11 PUSH1 0x4 MSTORE PUSH1 0x24 PUSH1 0x0 REVERT JUMPDEST PUSH1 0x0 PUSH2 0xAFC DUP3 PUSH2 0x983 JUMP JUMPDEST SWAP2 POP PUSH32 0xFFFFFFFFFFFFFFFFFFFFFFFFFFFFFFFFFFFFFFFFFFFFFFFFFFFFFFFFFFFFFFFF DUP3 SUB PUSH2 0xB2E JUMPI PUSH2 0xB2D PUSH2 0xAC2 JUMP JUMPDEST JUMPDEST PUSH1 0x1 DUP3 ADD SWAP1 POP SWAP2 SWAP1 POP JUMP JUMPDEST PUSH32 0x4578636565646564204D617820416D6F756E7400000000000000000000000000 PUSH1 0x0 DUP3 ADD MSTORE POP JUMP JUMPDEST PUSH1 0x0 PUSH2 0xB6F PUSH1 0x13 DUP4 PUSH2 0xA28 JUMP JUMPDEST SWAP2 POP PUSH2 0xB7A DUP3 PUSH2 0xB39 JUMP JUMPDEST PUSH1 0x20 DUP3 ADD SWAP1 POP SWAP2 SWAP1 POP JUMP JUMPDEST PUSH1 0x0 PUSH1 0x40 DUP3 ADD SWAP1 POP DUP2 DUP2 SUB PUSH1 0x0 DUP4 ADD MSTORE PUSH2 0xB9E DUP2 PUSH2 0xB62 JUMP JUMPDEST SWAP1 POP PUSH2 0xBAD PUSH1 0x20 DUP4 ADD DUP5 PUSH2 0xA85 JUMP JUMPDEST SWAP3 SWAP2 POP POP JUMP JUMPDEST PUSH1 0x0 DUP2 MLOAD SWAP1 POP SWAP2 SWAP1 POP JUMP JUMPDEST PUSH1 0x0 DUP2 SWAP1 POP SWAP3 SWAP2 POP POP JUMP JUMPDEST PUSH1 0x0 JUMPDEST DUP4 DUP2 LT ISZERO PUSH2 0xBE7 JUMPI DUP1 DUP3 ADD MLOAD DUP2 DUP5 ADD MSTORE PUSH1 0x20 DUP2 ADD SWAP1 POP PUSH2 0xBCC JUMP JUMPDEST PUSH1 0x0 DUP5 DUP5 ADD MSTORE POP POP POP POP JUMP JUMPDEST PUSH1 0x0 PUSH2 0xBFE DUP3 PUSH2 0xBB3 JUMP JUMPDEST PUSH2 0xC08 DUP2 DUP6 PUSH2 0xBBE JUMP JUMPDEST SWAP4 POP PUSH2 0xC18 DUP2 DUP6 PUSH1 0x20 DUP7 ADD PUSH2 0xBC9 JUMP JUMPDEST DUP1 DUP5 ADD SWAP2 POP POP SWAP3 SWAP2 POP POP JUMP JUMPDEST PUSH1 0x0 PUSH2 0xC30 DUP3 DUP5 PUSH2 0xBF3 JUMP JUMPDEST SWAP2 POP DUP2 SWAP1 POP SWAP3 SWAP2 POP POP JUMP JUMPDEST PUSH32 0x4E487B7100000000000000000000000000000000000000000000000000000000 PUSH1 0x0 MSTORE PUSH1 0x22 PUSH1 0x4 MSTORE PUSH1 0x24 PUSH1 0x0 REVERT JUMPDEST PUSH1 0x0 PUSH1 0x2 DUP3 DIV SWAP1 POP PUSH1 0x1 DUP3 AND DUP1 PUSH2 0xC82 JUMPI PUSH1 0x7F DUP3 AND SWAP2 POP JUMPDEST PUSH1 0x20 DUP3 LT DUP2 SUB PUSH2 0xC95 JUMPI PUSH2 0xC94 PUSH2 0xC3B JUMP JUMPDEST JUMPDEST POP SWAP2 SWAP1 POP JUMP JUMPDEST PUSH1 0x0 DUP2 SWAP1 POP DUP2 PUSH1 0x0 MSTORE PUSH1 0x20 PUSH1 0x0 KECCAK256 SWAP1 POP SWAP2 SWAP1 POP JUMP JUMPDEST PUSH1 0x0 DUP2 SLOAD PUSH2 0xCBD DUP2 PUSH2 0xC6A JUMP JUMPDEST PUSH2 0xCC7 DUP2 DUP7 PUSH2 0xBBE JUMP JUMPDEST SWAP5 POP PUSH1 0x1 DUP3 AND PUSH1 0x0 DUP2 EQ PUSH2 0xCE2 JUMPI PUSH1 0x1 DUP2 EQ PUSH2 0xCF7 JUMPI PUSH2 0xD2A JUMP JUMPDEST PUSH1 0xFF NOT DUP4 AND DUP7 MSTORE DUP2 ISZERO ISZERO DUP3 MUL DUP7 ADD SWAP4 POP PUSH2 0xD2A JUMP JUMPDEST PUSH2 0xD00 DUP6 PUSH2 0xC9B JUMP JUMPDEST PUSH1 0x0 JUMPDEST DUP4 DUP2 LT ISZERO PUSH2 0xD22 JUMPI DUP2 SLOAD DUP2 DUP10 ADD MSTORE PUSH1 0x1 DUP3 ADD SWAP2 POP PUSH1 0x20 DUP2 ADD SWAP1 POP PUSH2 0xD03 JUMP JUMPDEST DUP4 DUP9 ADD SWAP6 POP POP POP JUMPDEST POP POP POP SWAP3 SWAP2 POP POP JUMP JUMPDEST PUSH1 0x0 PUSH2 0xD3F DUP3 DUP5 PUSH2 0xCB0 JUMP JUMPDEST SWAP2 POP DUP2 SWAP1 POP SWAP3 SWAP2 POP POP JUMP JUMPDEST PUSH32 0x557365722773204E6174696F6E616C69747920697320696E2062616E6E656420 PUSH1 0x0 DUP3 ADD MSTORE PUSH32 0x636F756E74726965730000000000000000000000000000000000000000000000 PUSH1 0x20 DUP3 ADD MSTORE POP JUMP JUMPDEST PUSH1 0x0 PUSH2 0xDA6 PUSH1 0x29 DUP4 PUSH2 0xA28 JUMP JUMPDEST SWAP2 POP PUSH2 0xDB1 DUP3 PUSH2 0xD4A JUMP JUMPDEST PUSH1 0x40 DUP3 ADD SWAP1 POP SWAP2 SWAP1 POP JUMP JUMPDEST PUSH1 0x0 PUSH1 0x40 DUP3 ADD SWAP1 POP DUP2 DUP2 SUB PUSH1 0x0 DUP4 ADD MSTORE PUSH2 0xDD5 DUP2 PUSH2 0xD99 JUMP JUMPDEST SWAP1 POP PUSH2 0xDE4 PUSH1 0x20 DUP4 ADD DUP5 PUSH2 0xA85 JUMP JUMPDEST SWAP3 SWAP2 POP POP JUMP JUMPDEST PUSH32 0x5573657220697320706F6C69746963616C6C79206578706F7365640000000000 PUSH1 0x0 DUP3 ADD MSTORE POP JUMP JUMPDEST PUSH1 0x0 PUSH2 0xE20 PUSH1 0x1B DUP4 PUSH2 0xA28 JUMP JUMPDEST SWAP2 POP PUSH2 0xE2B DUP3 PUSH2 0xDEA JUMP JUMPDEST PUSH1 0x20 DUP3 ADD SWAP1 POP SWAP2 SWAP1 POP JUMP JUMPDEST PUSH1 0x0 PUSH1 0x40 DUP3 ADD SWAP1 POP DUP2 DUP2 SUB PUSH1 0x0 DUP4 ADD MSTORE PUSH2 0xE4F DUP2 PUSH2 0xE13 JUMP JUMPDEST SWAP1 POP PUSH2 0xE5E PUSH1 0x20 DUP4 ADD DUP5 PUSH2 0xA85 JUMP JUMPDEST SWAP3 SWAP2 POP POP JUMP INVALID LOG2 PUSH5 0x6970667358 0x22 SLT KECCAK256 PUSH13 0xF6FFA7D5A48B4FB6773AF8C460 0xBD MSIZE PUSH32 0x2AC7D224073D9DB221F017412E8B2564736F6C63430008110033000000000000 "
				},
				"gasEstimates": {
					"creation": {
						"codeDepositCost": "747600",
						"executionCost": "infinite",
						"totalCost": "infinite"
					},
					"external": {
						"checkAmt(address,uint256)": "infinite",
						"checkNationality((address,string,string,string,string,string,string,bool),(address,string,string,string,string,string,string,bool))": "infinite",
						"checkPoliticalStatus((address,string,string,string,string,string,string,bool),(address,string,string,string,string,string,string,bool))": "infinite",
						"checkWantedIndividual((address,string,string,string,string,string,string,bool),(address,string,string,string,string,string,string,bool))": "infinite"
					}
				},
				"methodIdentifiers": {
					"checkAmt(address,uint256)": "bd799295",
					"checkNationality((address,string,string,string,string,string,string,bool),(address,string,string,string,string,string,string,bool))": "dd0ae4d6",
					"checkPoliticalStatus((address,string,string,string,string,string,string,bool),(address,string,string,string,string,string,string,bool))": "f9e26ef6",
					"checkWantedIndividual((address,string,string,string,string,string,string,bool),(address,string,string,string,string,string,string,bool))": "083a0615"
				}
			},
			"storageLayout": {
				"storage": [
					{
						"astId": 34,
						"contract": "contracts/AusAML.sol:AusAML",
						"label": "bannedCountries",
						"offset": 0,
						"slot": "0",
						"type": "t_array(t_string_storage)dyn_storage"
					},
					{
						"astId": 39,
						"contract": "contracts/AusAML.sol:AusAML",
						"label": "wantedIndividuals",
						"offset": 0,
						"slot": "1",
						"type": "t_array(t_address)dyn_storage"
					},
					{
						"astId": 42,
						"contract": "contracts/AusAML.sol:AusAML",
						"label": "maxAmount",
						"offset": 0,
						"slot": "2",
						"type": "t_uint256"
					}
				],
				"types": {
					"t_address": {
						"encoding": "inplace",
						"label": "address",
						"numberOfBytes": "20"
					},
					"t_array(t_address)dyn_storage": {
						"base": "t_address",
						"encoding": "dynamic_array",
						"label": "address[]",
						"numberOfBytes": "32"
					},
					"t_array(t_string_storage)dyn_storage": {
						"base": "t_string_storage",
						"encoding": "dynamic_array",
						"label": "string[]",
						"numberOfBytes": "32"
					},
					"t_string_storage": {
						"encoding": "bytes",
						"label": "string",
						"numberOfBytes": "32"
					},
					"t_uint256": {
						"encoding": "inplace",
						"label": "uint256",
						"numberOfBytes": "32"
					}
				}
			},
			"userdoc": {
				"kind": "user",
				"methods": {},
				"version": 1
			}
		}
	}
}