{
	"contracts/AML.sol": {
		"AML": {
			"abi": [
				{
					"inputs": [
						{
							"internalType": "string",
							"name": "userNationality",
							"type": "string"
						}
					],
					"name": "checkNationality",
					"outputs": [
						{
							"internalType": "bool",
							"name": "",
							"type": "bool"
						}
					],
					"stateMutability": "nonpayable",
					"type": "function"
				},
				{
					"inputs": [
						{
							"internalType": "string",
							"name": "isPoliticallyExposed",
							"type": "string"
						}
					],
					"name": "checkPoliticalStatus",
					"outputs": [
						{
							"internalType": "bool",
							"name": "",
							"type": "bool"
						}
					],
					"stateMutability": "nonpayable",
					"type": "function"
				}
			],
			"devdoc": {
				"kind": "dev",
				"methods": {},
				"version": 1
			},
			"evm": {
				"assembly": "    /* \"contracts/AML.sol\":60:849  contract AML{... */\n  mstore(0x40, 0x80)\n    /* \"contracts/AML.sol\":81:157  string[] bannedCountries = [\"Iran\",\"Afganistan\",\"Turkmenistan\",\"Kyrgyzstan\"] */\n  mload(0x40)\n  dup1\n  0x80\n  add\n  0x40\n  mstore\n  dup1\n  mload(0x40)\n  dup1\n  0x40\n  add\n  0x40\n  mstore\n  dup1\n  0x04\n  dup2\n  mstore\n  0x20\n  add\n  0x4972616e00000000000000000000000000000000000000000000000000000000\n  dup2\n  mstore\n  pop\n  dup2\n  mstore\n  0x20\n  add\n  mload(0x40)\n  dup1\n  0x40\n  add\n  0x40\n  mstore\n  dup1\n  0x0a\n  dup2\n  mstore\n  0x20\n  add\n  0x416667616e697374616e00000000000000000000000000000000000000000000\n  dup2\n  mstore\n  pop\n  dup2\n  mstore\n  0x20\n  add\n  mload(0x40)\n  dup1\n  0x40\n  add\n  0x40\n  mstore\n  dup1\n  0x0c\n  dup2\n  mstore\n  0x20\n  add\n  0x5475726b6d656e697374616e0000000000000000000000000000000000000000\n  dup2\n  mstore\n  pop\n  dup2\n  mstore\n  0x20\n  add\n  mload(0x40)\n  dup1\n  0x40\n  add\n  0x40\n  mstore\n  dup1\n  0x0a\n  dup2\n  mstore\n  0x20\n  add\n  0x4b797267797a7374616e00000000000000000000000000000000000000000000\n  dup2\n  mstore\n  pop\n  dup2\n  mstore\n  pop\n  0x00\n  swap1\n  0x04\n  tag_1\n  swap3\n  swap2\n  swap1\n  tag_2\n  jump\t// in\ntag_1:\n  pop\n    /* \"contracts/AML.sol\":60:849  contract AML{... */\n  callvalue\n  dup1\n  iszero\n  tag_3\n  jumpi\n  0x00\n  dup1\n  revert\ntag_3:\n  pop\n  jump(tag_4)\ntag_2:\n  dup3\n  dup1\n  sload\n  dup3\n  dup3\n  sstore\n  swap1\n  0x00\n  mstore\n  keccak256(0x00, 0x20)\n  swap1\n  dup2\n  add\n  swap3\n  dup3\n  iszero\n  tag_5\n  jumpi\n  swap2\n  0x20\n  mul\n  dup3\n  add\ntag_6:\n  dup3\n  dup2\n  gt\n  iszero\n  tag_7\n  jumpi\n  dup3\n  mload\n  dup3\n  swap1\n  dup2\n  tag_8\n  swap2\n  swap1\n  tag_9\n  jump\t// in\ntag_8:\n  pop\n  swap2\n  0x20\n  add\n  swap2\n  swap1\n  0x01\n  add\n  swap1\n  jump(tag_6)\ntag_7:\ntag_5:\n  pop\n  swap1\n  pop\n  tag_10\n  swap2\n  swap1\n  tag_11\n  jump\t// in\ntag_10:\n  pop\n  swap1\n  jump\t// out\ntag_11:\ntag_12:\n  dup1\n  dup3\n  gt\n  iszero\n  tag_13\n  jumpi\n  0x00\n  dup2\n  dup2\n  tag_14\n  swap2\n  swap1\n  tag_15\n  jump\t// in\ntag_14:\n  pop\n  0x01\n  add\n  jump(tag_12)\ntag_13:\n  pop\n  swap1\n  jump\t// out\ntag_15:\n  pop\n  dup1\n  sload\n  tag_16\n  swap1\n  tag_17\n  jump\t// in\ntag_16:\n  0x00\n  dup3\n  sstore\n  dup1\n  0x1f\n  lt\n  tag_19\n  jumpi\n  pop\n  jump(tag_18)\ntag_19:\n  0x1f\n  add\n  0x20\n  swap1\n  div\n  swap1\n  0x00\n  mstore\n  keccak256(0x00, 0x20)\n  swap1\n  dup2\n  add\n  swap1\n  tag_20\n  swap2\n  swap1\n  tag_21\n  jump\t// in\ntag_20:\ntag_18:\n  pop\n  jump\t// out\ntag_21:\ntag_22:\n  dup1\n  dup3\n  gt\n  iszero\n  tag_23\n  jumpi\n  0x00\n  dup2\n  0x00\n  swap1\n  sstore\n  pop\n  0x01\n  add\n  jump(tag_22)\ntag_23:\n  pop\n  swap1\n  jump\t// out\n    /* \"#utility.yul\":7:106   */\ntag_24:\n    /* \"#utility.yul\":59:65   */\n  0x00\n    /* \"#utility.yul\":93:98   */\n  dup2\n    /* \"#utility.yul\":87:99   */\n  mload\n    /* \"#utility.yul\":77:99   */\n  swap1\n  pop\n    /* \"#utility.yul\":7:106   */\n  swap2\n  swap1\n  pop\n  jump\t// out\n    /* \"#utility.yul\":112:292   */\ntag_25:\n    /* \"#utility.yul\":160:237   */\n  0x4e487b7100000000000000000000000000000000000000000000000000000000\n    /* \"#utility.yul\":157:158   */\n  0x00\n    /* \"#utility.yul\":150:238   */\n  mstore\n    /* \"#utility.yul\":257:261   */\n  0x41\n    /* \"#utility.yul\":254:255   */\n  0x04\n    /* \"#utility.yul\":247:262   */\n  mstore\n    /* \"#utility.yul\":281:285   */\n  0x24\n    /* \"#utility.yul\":278:279   */\n  0x00\n    /* \"#utility.yul\":271:286   */\n  revert\n    /* \"#utility.yul\":298:478   */\ntag_26:\n    /* \"#utility.yul\":346:423   */\n  0x4e487b7100000000000000000000000000000000000000000000000000000000\n    /* \"#utility.yul\":343:344   */\n  0x00\n    /* \"#utility.yul\":336:424   */\n  mstore\n    /* \"#utility.yul\":443:447   */\n  0x22\n    /* \"#utility.yul\":440:441   */\n  0x04\n    /* \"#utility.yul\":433:448   */\n  mstore\n    /* \"#utility.yul\":467:471   */\n  0x24\n    /* \"#utility.yul\":464:465   */\n  0x00\n    /* \"#utility.yul\":457:472   */\n  revert\n    /* \"#utility.yul\":484:804   */\ntag_17:\n    /* \"#utility.yul\":528:534   */\n  0x00\n    /* \"#utility.yul\":565:566   */\n  0x02\n    /* \"#utility.yul\":559:563   */\n  dup3\n    /* \"#utility.yul\":555:567   */\n  div\n    /* \"#utility.yul\":545:567   */\n  swap1\n  pop\n    /* \"#utility.yul\":612:613   */\n  0x01\n    /* \"#utility.yul\":606:610   */\n  dup3\n    /* \"#utility.yul\":602:614   */\n  and\n    /* \"#utility.yul\":633:651   */\n  dup1\n    /* \"#utility.yul\":623:704   */\n  tag_48\n  jumpi\n    /* \"#utility.yul\":689:693   */\n  0x7f\n    /* \"#utility.yul\":681:687   */\n  dup3\n    /* \"#utility.yul\":677:694   */\n  and\n    /* \"#utility.yul\":667:694   */\n  swap2\n  pop\n    /* \"#utility.yul\":623:704   */\ntag_48:\n    /* \"#utility.yul\":751:753   */\n  0x20\n    /* \"#utility.yul\":743:749   */\n  dup3\n    /* \"#utility.yul\":740:754   */\n  lt\n    /* \"#utility.yul\":720:738   */\n  dup2\n    /* \"#utility.yul\":717:755   */\n  sub\n    /* \"#utility.yul\":714:798   */\n  tag_49\n  jumpi\n    /* \"#utility.yul\":770:788   */\n  tag_50\n  tag_26\n  jump\t// in\ntag_50:\n    /* \"#utility.yul\":714:798   */\ntag_49:\n    /* \"#utility.yul\":535:804   */\n  pop\n    /* \"#utility.yul\":484:804   */\n  swap2\n  swap1\n  pop\n  jump\t// out\n    /* \"#utility.yul\":810:951   */\ntag_27:\n    /* \"#utility.yul\":859:863   */\n  0x00\n    /* \"#utility.yul\":882:885   */\n  dup2\n    /* \"#utility.yul\":874:885   */\n  swap1\n  pop\n    /* \"#utility.yul\":905:908   */\n  dup2\n    /* \"#utility.yul\":902:903   */\n  0x00\n    /* \"#utility.yul\":895:909   */\n  mstore\n    /* \"#utility.yul\":939:943   */\n  0x20\n    /* \"#utility.yul\":936:937   */\n  0x00\n    /* \"#utility.yul\":926:944   */\n  keccak256\n    /* \"#utility.yul\":918:944   */\n  swap1\n  pop\n    /* \"#utility.yul\":810:951   */\n  swap2\n  swap1\n  pop\n  jump\t// out\n    /* \"#utility.yul\":957:1050   */\ntag_28:\n    /* \"#utility.yul\":994:1000   */\n  0x00\n    /* \"#utility.yul\":1041:1043   */\n  0x20\n    /* \"#utility.yul\":1036:1038   */\n  0x1f\n    /* \"#utility.yul\":1029:1034   */\n  dup4\n    /* \"#utility.yul\":1025:1039   */\n  add\n    /* \"#utility.yul\":1021:1044   */\n  div\n    /* \"#utility.yul\":1011:1044   */\n  swap1\n  pop\n    /* \"#utility.yul\":957:1050   */\n  swap2\n  swap1\n  pop\n  jump\t// out\n    /* \"#utility.yul\":1056:1163   */\ntag_29:\n    /* \"#utility.yul\":1100:1108   */\n  0x00\n    /* \"#utility.yul\":1150:1155   */\n  dup3\n    /* \"#utility.yul\":1144:1148   */\n  dup3\n    /* \"#utility.yul\":1140:1156   */\n  shl\n    /* \"#utility.yul\":1119:1156   */\n  swap1\n  pop\n    /* \"#utility.yul\":1056:1163   */\n  swap3\n  swap2\n  pop\n  pop\n  jump\t// out\n    /* \"#utility.yul\":1169:1562   */\ntag_30:\n    /* \"#utility.yul\":1238:1244   */\n  0x00\n    /* \"#utility.yul\":1288:1289   */\n  0x08\n    /* \"#utility.yul\":1276:1286   */\n  dup4\n    /* \"#utility.yul\":1272:1290   */\n  mul\n    /* \"#utility.yul\":1311:1408   */\n  tag_55\n    /* \"#utility.yul\":1341:1407   */\n  0xffffffffffffffffffffffffffffffffffffffffffffffffffffffffffffffff\n    /* \"#utility.yul\":1330:1339   */\n  dup3\n    /* \"#utility.yul\":1311:1408   */\n  tag_29\n  jump\t// in\ntag_55:\n    /* \"#utility.yul\":1429:1468   */\n  tag_56\n    /* \"#utility.yul\":1459:1467   */\n  dup7\n    /* \"#utility.yul\":1448:1457   */\n  dup4\n    /* \"#utility.yul\":1429:1468   */\n  tag_29\n  jump\t// in\ntag_56:\n    /* \"#utility.yul\":1417:1468   */\n  swap6\n  pop\n    /* \"#utility.yul\":1501:1505   */\n  dup1\n    /* \"#utility.yul\":1497:1506   */\n  not\n    /* \"#utility.yul\":1490:1495   */\n  dup5\n    /* \"#utility.yul\":1486:1507   */\n  and\n    /* \"#utility.yul\":1477:1507   */\n  swap4\n  pop\n    /* \"#utility.yul\":1550:1554   */\n  dup1\n    /* \"#utility.yul\":1540:1548   */\n  dup7\n    /* \"#utility.yul\":1536:1555   */\n  and\n    /* \"#utility.yul\":1529:1534   */\n  dup5\n    /* \"#utility.yul\":1526:1556   */\n  or\n    /* \"#utility.yul\":1516:1556   */\n  swap3\n  pop\n    /* \"#utility.yul\":1245:1562   */\n  pop\n  pop\n    /* \"#utility.yul\":1169:1562   */\n  swap4\n  swap3\n  pop\n  pop\n  pop\n  jump\t// out\n    /* \"#utility.yul\":1568:1645   */\ntag_31:\n    /* \"#utility.yul\":1605:1612   */\n  0x00\n    /* \"#utility.yul\":1634:1639   */\n  dup2\n    /* \"#utility.yul\":1623:1639   */\n  swap1\n  pop\n    /* \"#utility.yul\":1568:1645   */\n  swap2\n  swap1\n  pop\n  jump\t// out\n    /* \"#utility.yul\":1651:1711   */\ntag_32:\n    /* \"#utility.yul\":1679:1682   */\n  0x00\n    /* \"#utility.yul\":1700:1705   */\n  dup2\n    /* \"#utility.yul\":1693:1705   */\n  swap1\n  pop\n    /* \"#utility.yul\":1651:1711   */\n  swap2\n  swap1\n  pop\n  jump\t// out\n    /* \"#utility.yul\":1717:1859   */\ntag_33:\n    /* \"#utility.yul\":1767:1776   */\n  0x00\n    /* \"#utility.yul\":1800:1853   */\n  tag_60\n    /* \"#utility.yul\":1818:1852   */\n  tag_61\n    /* \"#utility.yul\":1827:1851   */\n  tag_62\n    /* \"#utility.yul\":1845:1850   */\n  dup5\n    /* \"#utility.yul\":1827:1851   */\n  tag_31\n  jump\t// in\ntag_62:\n    /* \"#utility.yul\":1818:1852   */\n  tag_32\n  jump\t// in\ntag_61:\n    /* \"#utility.yul\":1800:1853   */\n  tag_31\n  jump\t// in\ntag_60:\n    /* \"#utility.yul\":1787:1853   */\n  swap1\n  pop\n    /* \"#utility.yul\":1717:1859   */\n  swap2\n  swap1\n  pop\n  jump\t// out\n    /* \"#utility.yul\":1865:1940   */\ntag_34:\n    /* \"#utility.yul\":1908:1911   */\n  0x00\n    /* \"#utility.yul\":1929:1934   */\n  dup2\n    /* \"#utility.yul\":1922:1934   */\n  swap1\n  pop\n    /* \"#utility.yul\":1865:1940   */\n  swap2\n  swap1\n  pop\n  jump\t// out\n    /* \"#utility.yul\":1946:2215   */\ntag_35:\n    /* \"#utility.yul\":2056:2095   */\n  tag_65\n    /* \"#utility.yul\":2087:2094   */\n  dup4\n    /* \"#utility.yul\":2056:2095   */\n  tag_33\n  jump\t// in\ntag_65:\n    /* \"#utility.yul\":2117:2208   */\n  tag_66\n    /* \"#utility.yul\":2166:2207   */\n  tag_67\n    /* \"#utility.yul\":2190:2206   */\n  dup3\n    /* \"#utility.yul\":2166:2207   */\n  tag_34\n  jump\t// in\ntag_67:\n    /* \"#utility.yul\":2158:2164   */\n  dup5\n    /* \"#utility.yul\":2151:2155   */\n  dup5\n    /* \"#utility.yul\":2145:2156   */\n  sload\n    /* \"#utility.yul\":2117:2208   */\n  tag_30\n  jump\t// in\ntag_66:\n    /* \"#utility.yul\":2111:2115   */\n  dup3\n    /* \"#utility.yul\":2104:2209   */\n  sstore\n    /* \"#utility.yul\":2022:2215   */\n  pop\n    /* \"#utility.yul\":1946:2215   */\n  pop\n  pop\n  pop\n  jump\t// out\n    /* \"#utility.yul\":2221:2294   */\ntag_36:\n    /* \"#utility.yul\":2266:2269   */\n  0x00\n    /* \"#utility.yul\":2221:2294   */\n  swap1\n  jump\t// out\n    /* \"#utility.yul\":2300:2489   */\ntag_37:\n    /* \"#utility.yul\":2377:2409   */\n  tag_70\n  tag_36\n  jump\t// in\ntag_70:\n    /* \"#utility.yul\":2418:2483   */\n  tag_71\n    /* \"#utility.yul\":2476:2482   */\n  dup2\n    /* \"#utility.yul\":2468:2474   */\n  dup5\n    /* \"#utility.yul\":2462:2466   */\n  dup5\n    /* \"#utility.yul\":2418:2483   */\n  tag_35\n  jump\t// in\ntag_71:\n    /* \"#utility.yul\":2353:2489   */\n  pop\n    /* \"#utility.yul\":2300:2489   */\n  pop\n  pop\n  jump\t// out\n    /* \"#utility.yul\":2495:2681   */\ntag_38:\n    /* \"#utility.yul\":2555:2675   */\ntag_73:\n    /* \"#utility.yul\":2572:2575   */\n  dup2\n    /* \"#utility.yul\":2565:2570   */\n  dup2\n    /* \"#utility.yul\":2562:2576   */\n  lt\n    /* \"#utility.yul\":2555:2675   */\n  iszero\n  tag_75\n  jumpi\n    /* \"#utility.yul\":2626:2665   */\n  tag_76\n    /* \"#utility.yul\":2663:2664   */\n  0x00\n    /* \"#utility.yul\":2656:2661   */\n  dup3\n    /* \"#utility.yul\":2626:2665   */\n  tag_37\n  jump\t// in\ntag_76:\n    /* \"#utility.yul\":2599:2600   */\n  0x01\n    /* \"#utility.yul\":2592:2597   */\n  dup2\n    /* \"#utility.yul\":2588:2601   */\n  add\n    /* \"#utility.yul\":2579:2601   */\n  swap1\n  pop\n    /* \"#utility.yul\":2555:2675   */\n  jump(tag_73)\ntag_75:\n    /* \"#utility.yul\":2495:2681   */\n  pop\n  pop\n  jump\t// out\n    /* \"#utility.yul\":2687:3230   */\ntag_39:\n    /* \"#utility.yul\":2788:2790   */\n  0x1f\n    /* \"#utility.yul\":2783:2786   */\n  dup3\n    /* \"#utility.yul\":2780:2791   */\n  gt\n    /* \"#utility.yul\":2777:3223   */\n  iszero\n  tag_78\n  jumpi\n    /* \"#utility.yul\":2822:2860   */\n  tag_79\n    /* \"#utility.yul\":2854:2859   */\n  dup2\n    /* \"#utility.yul\":2822:2860   */\n  tag_27\n  jump\t// in\ntag_79:\n    /* \"#utility.yul\":2906:2935   */\n  tag_80\n    /* \"#utility.yul\":2924:2934   */\n  dup5\n    /* \"#utility.yul\":2906:2935   */\n  tag_28\n  jump\t// in\ntag_80:\n    /* \"#utility.yul\":2896:2904   */\n  dup2\n    /* \"#utility.yul\":2892:2936   */\n  add\n    /* \"#utility.yul\":3089:3091   */\n  0x20\n    /* \"#utility.yul\":3077:3087   */\n  dup6\n    /* \"#utility.yul\":3074:3092   */\n  lt\n    /* \"#utility.yul\":3071:3120   */\n  iszero\n  tag_81\n  jumpi\n    /* \"#utility.yul\":3110:3118   */\n  dup2\n    /* \"#utility.yul\":3095:3118   */\n  swap1\n  pop\n    /* \"#utility.yul\":3071:3120   */\ntag_81:\n    /* \"#utility.yul\":3133:3213   */\n  tag_82\n    /* \"#utility.yul\":3189:3211   */\n  tag_83\n    /* \"#utility.yul\":3207:3210   */\n  dup6\n    /* \"#utility.yul\":3189:3211   */\n  tag_28\n  jump\t// in\ntag_83:\n    /* \"#utility.yul\":3179:3187   */\n  dup4\n    /* \"#utility.yul\":3175:3212   */\n  add\n    /* \"#utility.yul\":3162:3173   */\n  dup3\n    /* \"#utility.yul\":3133:3213   */\n  tag_38\n  jump\t// in\ntag_82:\n    /* \"#utility.yul\":2792:3223   */\n  pop\n  pop\n    /* \"#utility.yul\":2777:3223   */\ntag_78:\n    /* \"#utility.yul\":2687:3230   */\n  pop\n  pop\n  pop\n  jump\t// out\n    /* \"#utility.yul\":3236:3353   */\ntag_40:\n    /* \"#utility.yul\":3290:3298   */\n  0x00\n    /* \"#utility.yul\":3340:3345   */\n  dup3\n    /* \"#utility.yul\":3334:3338   */\n  dup3\n    /* \"#utility.yul\":3330:3346   */\n  shr\n    /* \"#utility.yul\":3309:3346   */\n  swap1\n  pop\n    /* \"#utility.yul\":3236:3353   */\n  swap3\n  swap2\n  pop\n  pop\n  jump\t// out\n    /* \"#utility.yul\":3359:3528   */\ntag_41:\n    /* \"#utility.yul\":3403:3409   */\n  0x00\n    /* \"#utility.yul\":3436:3487   */\n  tag_86\n    /* \"#utility.yul\":3484:3485   */\n  0x00\n    /* \"#utility.yul\":3480:3486   */\n  not\n    /* \"#utility.yul\":3472:3477   */\n  dup5\n    /* \"#utility.yul\":3469:3470   */\n  0x08\n    /* \"#utility.yul\":3465:3478   */\n  mul\n    /* \"#utility.yul\":3436:3487   */\n  tag_40\n  jump\t// in\ntag_86:\n    /* \"#utility.yul\":3432:3488   */\n  not\n    /* \"#utility.yul\":3517:3521   */\n  dup1\n    /* \"#utility.yul\":3511:3515   */\n  dup4\n    /* \"#utility.yul\":3507:3522   */\n  and\n    /* \"#utility.yul\":3497:3522   */\n  swap2\n  pop\n    /* \"#utility.yul\":3410:3528   */\n  pop\n    /* \"#utility.yul\":3359:3528   */\n  swap3\n  swap2\n  pop\n  pop\n  jump\t// out\n    /* \"#utility.yul\":3533:3828   */\ntag_42:\n    /* \"#utility.yul\":3609:3613   */\n  0x00\n    /* \"#utility.yul\":3755:3784   */\n  tag_88\n    /* \"#utility.yul\":3780:3783   */\n  dup4\n    /* \"#utility.yul\":3774:3778   */\n  dup4\n    /* \"#utility.yul\":3755:3784   */\n  tag_41\n  jump\t// in\ntag_88:\n    /* \"#utility.yul\":3747:3784   */\n  swap2\n  pop\n    /* \"#utility.yul\":3817:3820   */\n  dup3\n    /* \"#utility.yul\":3814:3815   */\n  0x02\n    /* \"#utility.yul\":3810:3821   */\n  mul\n    /* \"#utility.yul\":3804:3808   */\n  dup3\n    /* \"#utility.yul\":3801:3822   */\n  or\n    /* \"#utility.yul\":3793:3822   */\n  swap1\n  pop\n    /* \"#utility.yul\":3533:3828   */\n  swap3\n  swap2\n  pop\n  pop\n  jump\t// out\n    /* \"#utility.yul\":3833:5228   */\ntag_9:\n    /* \"#utility.yul\":3950:3987   */\n  tag_90\n    /* \"#utility.yul\":3983:3986   */\n  dup3\n    /* \"#utility.yul\":3950:3987   */\n  tag_24\n  jump\t// in\ntag_90:\n    /* \"#utility.yul\":4052:4070   */\n  0xffffffffffffffff\n    /* \"#utility.yul\":4044:4050   */\n  dup2\n    /* \"#utility.yul\":4041:4071   */\n  gt\n    /* \"#utility.yul\":4038:4094   */\n  iszero\n  tag_91\n  jumpi\n    /* \"#utility.yul\":4074:4092   */\n  tag_92\n  tag_25\n  jump\t// in\ntag_92:\n    /* \"#utility.yul\":4038:4094   */\ntag_91:\n    /* \"#utility.yul\":4118:4156   */\n  tag_93\n    /* \"#utility.yul\":4150:4154   */\n  dup3\n    /* \"#utility.yul\":4144:4155   */\n  sload\n    /* \"#utility.yul\":4118:4156   */\n  tag_17\n  jump\t// in\ntag_93:\n    /* \"#utility.yul\":4203:4270   */\n  tag_94\n    /* \"#utility.yul\":4263:4269   */\n  dup3\n    /* \"#utility.yul\":4255:4261   */\n  dup3\n    /* \"#utility.yul\":4249:4253   */\n  dup6\n    /* \"#utility.yul\":4203:4270   */\n  tag_39\n  jump\t// in\ntag_94:\n    /* \"#utility.yul\":4297:4298   */\n  0x00\n    /* \"#utility.yul\":4321:4325   */\n  0x20\n    /* \"#utility.yul\":4308:4325   */\n  swap1\n  pop\n    /* \"#utility.yul\":4353:4355   */\n  0x1f\n    /* \"#utility.yul\":4345:4351   */\n  dup4\n    /* \"#utility.yul\":4342:4356   */\n  gt\n    /* \"#utility.yul\":4370:4371   */\n  0x01\n    /* \"#utility.yul\":4365:4983   */\n  dup2\n  eq\n  tag_96\n  jumpi\n    /* \"#utility.yul\":5027:5028   */\n  0x00\n    /* \"#utility.yul\":5044:5050   */\n  dup5\n    /* \"#utility.yul\":5041:5118   */\n  iszero\n  tag_97\n  jumpi\n    /* \"#utility.yul\":5093:5102   */\n  dup3\n    /* \"#utility.yul\":5088:5091   */\n  dup8\n    /* \"#utility.yul\":5084:5103   */\n  add\n    /* \"#utility.yul\":5078:5104   */\n  mload\n    /* \"#utility.yul\":5069:5104   */\n  swap1\n  pop\n    /* \"#utility.yul\":5041:5118   */\ntag_97:\n    /* \"#utility.yul\":5144:5211   */\n  tag_98\n    /* \"#utility.yul\":5204:5210   */\n  dup6\n    /* \"#utility.yul\":5197:5202   */\n  dup3\n    /* \"#utility.yul\":5144:5211   */\n  tag_42\n  jump\t// in\ntag_98:\n    /* \"#utility.yul\":5138:5142   */\n  dup7\n    /* \"#utility.yul\":5131:5212   */\n  sstore\n    /* \"#utility.yul\":5000:5222   */\n  pop\n    /* \"#utility.yul\":4335:5222   */\n  jump(tag_95)\n    /* \"#utility.yul\":4365:4983   */\ntag_96:\n    /* \"#utility.yul\":4417:4421   */\n  0x1f\n    /* \"#utility.yul\":4413:4422   */\n  not\n    /* \"#utility.yul\":4405:4411   */\n  dup5\n    /* \"#utility.yul\":4401:4423   */\n  and\n    /* \"#utility.yul\":4451:4488   */\n  tag_99\n    /* \"#utility.yul\":4483:4487   */\n  dup7\n    /* \"#utility.yul\":4451:4488   */\n  tag_27\n  jump\t// in\ntag_99:\n    /* \"#utility.yul\":4510:4511   */\n  0x00\n    /* \"#utility.yul\":4524:4732   */\ntag_100:\n    /* \"#utility.yul\":4538:4545   */\n  dup3\n    /* \"#utility.yul\":4535:4536   */\n  dup2\n    /* \"#utility.yul\":4532:4546   */\n  lt\n    /* \"#utility.yul\":4524:4732   */\n  iszero\n  tag_102\n  jumpi\n    /* \"#utility.yul\":4617:4626   */\n  dup5\n    /* \"#utility.yul\":4612:4615   */\n  dup10\n    /* \"#utility.yul\":4608:4627   */\n  add\n    /* \"#utility.yul\":4602:4628   */\n  mload\n    /* \"#utility.yul\":4594:4600   */\n  dup3\n    /* \"#utility.yul\":4587:4629   */\n  sstore\n    /* \"#utility.yul\":4668:4669   */\n  0x01\n    /* \"#utility.yul\":4660:4666   */\n  dup3\n    /* \"#utility.yul\":4656:4670   */\n  add\n    /* \"#utility.yul\":4646:4670   */\n  swap2\n  pop\n    /* \"#utility.yul\":4715:4717   */\n  0x20\n    /* \"#utility.yul\":4704:4713   */\n  dup6\n    /* \"#utility.yul\":4700:4718   */\n  add\n    /* \"#utility.yul\":4687:4718   */\n  swap5\n  pop\n    /* \"#utility.yul\":4561:4565   */\n  0x20\n    /* \"#utility.yul\":4558:4559   */\n  dup2\n    /* \"#utility.yul\":4554:4566   */\n  add\n    /* \"#utility.yul\":4549:4566   */\n  swap1\n  pop\n    /* \"#utility.yul\":4524:4732   */\n  jump(tag_100)\ntag_102:\n    /* \"#utility.yul\":4760:4766   */\n  dup7\n    /* \"#utility.yul\":4751:4758   */\n  dup4\n    /* \"#utility.yul\":4748:4767   */\n  lt\n    /* \"#utility.yul\":4745:4924   */\n  iszero\n  tag_103\n  jumpi\n    /* \"#utility.yul\":4818:4827   */\n  dup5\n    /* \"#utility.yul\":4813:4816   */\n  dup10\n    /* \"#utility.yul\":4809:4828   */\n  add\n    /* \"#utility.yul\":4803:4829   */\n  mload\n    /* \"#utility.yul\":4861:4909   */\n  tag_104\n    /* \"#utility.yul\":4903:4907   */\n  0x1f\n    /* \"#utility.yul\":4895:4901   */\n  dup10\n    /* \"#utility.yul\":4891:4908   */\n  and\n    /* \"#utility.yul\":4880:4889   */\n  dup3\n    /* \"#utility.yul\":4861:4909   */\n  tag_41\n  jump\t// in\ntag_104:\n    /* \"#utility.yul\":4853:4859   */\n  dup4\n    /* \"#utility.yul\":4846:4910   */\n  sstore\n    /* \"#utility.yul\":4768:4924   */\n  pop\n    /* \"#utility.yul\":4745:4924   */\ntag_103:\n    /* \"#utility.yul\":4970:4971   */\n  0x01\n    /* \"#utility.yul\":4966:4967   */\n  0x02\n    /* \"#utility.yul\":4958:4964   */\n  dup9\n    /* \"#utility.yul\":4954:4968   */\n  mul\n    /* \"#utility.yul\":4950:4972   */\n  add\n    /* \"#utility.yul\":4944:4948   */\n  dup9\n    /* \"#utility.yul\":4937:4973   */\n  sstore\n    /* \"#utility.yul\":4372:4983   */\n  pop\n  pop\n  pop\n    /* \"#utility.yul\":4335:5222   */\ntag_95:\n  pop\n    /* \"#utility.yul\":3925:5228   */\n  pop\n  pop\n  pop\n    /* \"#utility.yul\":3833:5228   */\n  pop\n  pop\n  jump\t// out\n    /* \"contracts/AML.sol\":60:849  contract AML{... */\ntag_4:\n  dataSize(sub_0)\n  dup1\n  dataOffset(sub_0)\n  0x00\n  codecopy\n  0x00\n  return\nstop\n\nsub_0: assembly {\n        /* \"contracts/AML.sol\":60:849  contract AML{... */\n      mstore(0x40, 0x80)\n      callvalue\n      dup1\n      iszero\n      tag_1\n      jumpi\n      0x00\n      dup1\n      revert\n    tag_1:\n      pop\n      jumpi(tag_2, lt(calldatasize, 0x04))\n      shr(0xe0, calldataload(0x00))\n      dup1\n      0x0cb39153\n      eq\n      tag_3\n      jumpi\n      dup1\n      0x7b0b53f0\n      eq\n      tag_4\n      jumpi\n    tag_2:\n      0x00\n      dup1\n      revert\n        /* \"contracts/AML.sol\":574:840  function checkPoliticalStatus(string memory isPoliticallyExposed) public returns(bool){... */\n    tag_3:\n      tag_5\n      0x04\n      dup1\n      calldatasize\n      sub\n      dup2\n      add\n      swap1\n      tag_6\n      swap2\n      swap1\n      tag_7\n      jump\t// in\n    tag_6:\n      tag_8\n      jump\t// in\n    tag_5:\n      mload(0x40)\n      tag_9\n      swap2\n      swap1\n      tag_10\n      jump\t// in\n    tag_9:\n      mload(0x40)\n      dup1\n      swap2\n      sub\n      swap1\n      return\n        /* \"contracts/AML.sol\":166:564  function checkNationality(string memory userNationality) public returns(bool){... */\n    tag_4:\n      tag_11\n      0x04\n      dup1\n      calldatasize\n      sub\n      dup2\n      add\n      swap1\n      tag_12\n      swap2\n      swap1\n      tag_7\n      jump\t// in\n    tag_12:\n      tag_13\n      jump\t// in\n    tag_11:\n      mload(0x40)\n      tag_14\n      swap2\n      swap1\n      tag_10\n      jump\t// in\n    tag_14:\n      mload(0x40)\n      dup1\n      swap2\n      sub\n      swap1\n      return\n        /* \"contracts/AML.sol\":574:840  function checkPoliticalStatus(string memory isPoliticallyExposed) public returns(bool){... */\n    tag_8:\n        /* \"contracts/AML.sol\":655:659  bool */\n      0x00\n        /* \"contracts/AML.sol\":574:840  function checkPoliticalStatus(string memory isPoliticallyExposed) public returns(bool){... */\n      swap2\n      swap1\n      pop\n      jump\t// out\n        /* \"contracts/AML.sol\":166:564  function checkNationality(string memory userNationality) public returns(bool){... */\n    tag_13:\n        /* \"contracts/AML.sol\":238:242  bool */\n      0x00\n        /* \"contracts/AML.sol\":320:326  uint i */\n      dup1\n        /* \"contracts/AML.sol\":329:330  0 */\n      0x00\n        /* \"contracts/AML.sol\":320:330  uint i = 0 */\n      swap1\n      pop\n        /* \"contracts/AML.sol\":315:534  for (uint i = 0; i < bannedCountries.length; i++) {... */\n    tag_17:\n        /* \"contracts/AML.sol\":336:351  bannedCountries */\n      0x00\n        /* \"contracts/AML.sol\":336:358  bannedCountries.length */\n      dup1\n      sload\n      swap1\n      pop\n        /* \"contracts/AML.sol\":332:333  i */\n      dup2\n        /* \"contracts/AML.sol\":332:358  i < bannedCountries.length */\n      lt\n        /* \"contracts/AML.sol\":315:534  for (uint i = 0; i < bannedCountries.length; i++) {... */\n      iszero\n      tag_18\n      jumpi\n        /* \"contracts/AML.sol\":462:477  userNationality */\n      dup3\n        /* \"contracts/AML.sol\":445:478  abi.encodePacked(userNationality) */\n      add(0x20, mload(0x40))\n      tag_20\n      swap2\n      swap1\n      tag_21\n      jump\t// in\n    tag_20:\n      mload(0x40)\n      0x20\n      dup2\n      dup4\n      sub\n      sub\n      dup2\n      mstore\n      swap1\n      0x40\n      mstore\n        /* \"contracts/AML.sol\":435:479  keccak256(abi.encodePacked(userNationality)) */\n      dup1\n      mload\n      swap1\n      0x20\n      add\n      keccak256\n        /* \"contracts/AML.sol\":411:426  bannedCountries */\n      0x00\n        /* \"contracts/AML.sol\":427:428  i */\n      dup3\n        /* \"contracts/AML.sol\":411:429  bannedCountries[i] */\n      dup2\n      sload\n      dup2\n      lt\n      tag_22\n      jumpi\n      tag_23\n      tag_24\n      jump\t// in\n    tag_23:\n    tag_22:\n      swap1\n      0x00\n      mstore\n      keccak256(0x00, 0x20)\n      add\n        /* \"contracts/AML.sol\":394:430  abi.encodePacked(bannedCountries[i]) */\n      add(0x20, mload(0x40))\n      tag_26\n      swap2\n      swap1\n      tag_27\n      jump\t// in\n    tag_26:\n      mload(0x40)\n      0x20\n      dup2\n      dup4\n      sub\n      sub\n      dup2\n      mstore\n      swap1\n      0x40\n      mstore\n        /* \"contracts/AML.sol\":384:431  keccak256(abi.encodePacked(bannedCountries[i])) */\n      dup1\n      mload\n      swap1\n      0x20\n      add\n      keccak256\n        /* \"contracts/AML.sol\":384:479  keccak256(abi.encodePacked(bannedCountries[i])) == keccak256(abi.encodePacked(userNationality)) */\n      sub\n        /* \"contracts/AML.sol\":380:523  if (keccak256(abi.encodePacked(bannedCountries[i])) == keccak256(abi.encodePacked(userNationality))) {... */\n      tag_28\n      jumpi\n        /* \"contracts/AML.sol\":503:507  true */\n      0x01\n        /* \"contracts/AML.sol\":496:507  return true */\n      swap2\n      pop\n      pop\n      jump(tag_16)\n        /* \"contracts/AML.sol\":380:523  if (keccak256(abi.encodePacked(bannedCountries[i])) == keccak256(abi.encodePacked(userNationality))) {... */\n    tag_28:\n        /* \"contracts/AML.sol\":360:363  i++ */\n      dup1\n      dup1\n      tag_29\n      swap1\n      tag_30\n      jump\t// in\n    tag_29:\n      swap2\n      pop\n      pop\n        /* \"contracts/AML.sol\":315:534  for (uint i = 0; i < bannedCountries.length; i++) {... */\n      jump(tag_17)\n    tag_18:\n      pop\n        /* \"contracts/AML.sol\":551:556  false */\n      0x00\n        /* \"contracts/AML.sol\":544:556  return false */\n      swap1\n      pop\n        /* \"contracts/AML.sol\":166:564  function checkNationality(string memory userNationality) public returns(bool){... */\n    tag_16:\n      swap2\n      swap1\n      pop\n      jump\t// out\n        /* \"#utility.yul\":7:82   */\n    tag_31:\n        /* \"#utility.yul\":40:46   */\n      0x00\n        /* \"#utility.yul\":73:75   */\n      0x40\n        /* \"#utility.yul\":67:76   */\n      mload\n        /* \"#utility.yul\":57:76   */\n      swap1\n      pop\n        /* \"#utility.yul\":7:82   */\n      swap1\n      jump\t// out\n        /* \"#utility.yul\":88:205   */\n    tag_32:\n        /* \"#utility.yul\":197:198   */\n      0x00\n        /* \"#utility.yul\":194:195   */\n      dup1\n        /* \"#utility.yul\":187:199   */\n      revert\n        /* \"#utility.yul\":211:328   */\n    tag_33:\n        /* \"#utility.yul\":320:321   */\n      0x00\n        /* \"#utility.yul\":317:318   */\n      dup1\n        /* \"#utility.yul\":310:322   */\n      revert\n        /* \"#utility.yul\":334:451   */\n    tag_34:\n        /* \"#utility.yul\":443:444   */\n      0x00\n        /* \"#utility.yul\":440:441   */\n      dup1\n        /* \"#utility.yul\":433:445   */\n      revert\n        /* \"#utility.yul\":457:574   */\n    tag_35:\n        /* \"#utility.yul\":566:567   */\n      0x00\n        /* \"#utility.yul\":563:564   */\n      dup1\n        /* \"#utility.yul\":556:568   */\n      revert\n        /* \"#utility.yul\":580:682   */\n    tag_36:\n        /* \"#utility.yul\":621:627   */\n      0x00\n        /* \"#utility.yul\":672:674   */\n      0x1f\n        /* \"#utility.yul\":668:675   */\n      not\n        /* \"#utility.yul\":663:665   */\n      0x1f\n        /* \"#utility.yul\":656:661   */\n      dup4\n        /* \"#utility.yul\":652:666   */\n      add\n        /* \"#utility.yul\":648:676   */\n      and\n        /* \"#utility.yul\":638:676   */\n      swap1\n      pop\n        /* \"#utility.yul\":580:682   */\n      swap2\n      swap1\n      pop\n      jump\t// out\n        /* \"#utility.yul\":688:868   */\n    tag_37:\n        /* \"#utility.yul\":736:813   */\n      0x4e487b7100000000000000000000000000000000000000000000000000000000\n        /* \"#utility.yul\":733:734   */\n      0x00\n        /* \"#utility.yul\":726:814   */\n      mstore\n        /* \"#utility.yul\":833:837   */\n      0x41\n        /* \"#utility.yul\":830:831   */\n      0x04\n        /* \"#utility.yul\":823:838   */\n      mstore\n        /* \"#utility.yul\":857:861   */\n      0x24\n        /* \"#utility.yul\":854:855   */\n      0x00\n        /* \"#utility.yul\":847:862   */\n      revert\n        /* \"#utility.yul\":874:1155   */\n    tag_38:\n        /* \"#utility.yul\":957:984   */\n      tag_65\n        /* \"#utility.yul\":979:983   */\n      dup3\n        /* \"#utility.yul\":957:984   */\n      tag_36\n      jump\t// in\n    tag_65:\n        /* \"#utility.yul\":949:955   */\n      dup2\n        /* \"#utility.yul\":945:985   */\n      add\n        /* \"#utility.yul\":1087:1093   */\n      dup2\n        /* \"#utility.yul\":1075:1085   */\n      dup2\n        /* \"#utility.yul\":1072:1094   */\n      lt\n        /* \"#utility.yul\":1051:1069   */\n      0xffffffffffffffff\n        /* \"#utility.yul\":1039:1049   */\n      dup3\n        /* \"#utility.yul\":1036:1070   */\n      gt\n        /* \"#utility.yul\":1033:1095   */\n      or\n        /* \"#utility.yul\":1030:1118   */\n      iszero\n      tag_66\n      jumpi\n        /* \"#utility.yul\":1098:1116   */\n      tag_67\n      tag_37\n      jump\t// in\n    tag_67:\n        /* \"#utility.yul\":1030:1118   */\n    tag_66:\n        /* \"#utility.yul\":1138:1148   */\n      dup1\n        /* \"#utility.yul\":1134:1136   */\n      0x40\n        /* \"#utility.yul\":1127:1149   */\n      mstore\n        /* \"#utility.yul\":917:1155   */\n      pop\n        /* \"#utility.yul\":874:1155   */\n      pop\n      pop\n      jump\t// out\n        /* \"#utility.yul\":1161:1290   */\n    tag_39:\n        /* \"#utility.yul\":1195:1201   */\n      0x00\n        /* \"#utility.yul\":1222:1242   */\n      tag_69\n      tag_31\n      jump\t// in\n    tag_69:\n        /* \"#utility.yul\":1212:1242   */\n      swap1\n      pop\n        /* \"#utility.yul\":1251:1284   */\n      tag_70\n        /* \"#utility.yul\":1279:1283   */\n      dup3\n        /* \"#utility.yul\":1271:1277   */\n      dup3\n        /* \"#utility.yul\":1251:1284   */\n      tag_38\n      jump\t// in\n    tag_70:\n        /* \"#utility.yul\":1161:1290   */\n      swap2\n      swap1\n      pop\n      jump\t// out\n        /* \"#utility.yul\":1296:1604   */\n    tag_40:\n        /* \"#utility.yul\":1358:1362   */\n      0x00\n        /* \"#utility.yul\":1448:1466   */\n      0xffffffffffffffff\n        /* \"#utility.yul\":1440:1446   */\n      dup3\n        /* \"#utility.yul\":1437:1467   */\n      gt\n        /* \"#utility.yul\":1434:1490   */\n      iszero\n      tag_72\n      jumpi\n        /* \"#utility.yul\":1470:1488   */\n      tag_73\n      tag_37\n      jump\t// in\n    tag_73:\n        /* \"#utility.yul\":1434:1490   */\n    tag_72:\n        /* \"#utility.yul\":1508:1537   */\n      tag_74\n        /* \"#utility.yul\":1530:1536   */\n      dup3\n        /* \"#utility.yul\":1508:1537   */\n      tag_36\n      jump\t// in\n    tag_74:\n        /* \"#utility.yul\":1500:1537   */\n      swap1\n      pop\n        /* \"#utility.yul\":1592:1596   */\n      0x20\n        /* \"#utility.yul\":1586:1590   */\n      dup2\n        /* \"#utility.yul\":1582:1597   */\n      add\n        /* \"#utility.yul\":1574:1597   */\n      swap1\n      pop\n        /* \"#utility.yul\":1296:1604   */\n      swap2\n      swap1\n      pop\n      jump\t// out\n        /* \"#utility.yul\":1610:1756   */\n    tag_41:\n        /* \"#utility.yul\":1707:1713   */\n      dup3\n        /* \"#utility.yul\":1702:1705   */\n      dup2\n        /* \"#utility.yul\":1697:1700   */\n      dup4\n        /* \"#utility.yul\":1684:1714   */\n      calldatacopy\n        /* \"#utility.yul\":1748:1749   */\n      0x00\n        /* \"#utility.yul\":1739:1745   */\n      dup4\n        /* \"#utility.yul\":1734:1737   */\n      dup4\n        /* \"#utility.yul\":1730:1746   */\n      add\n        /* \"#utility.yul\":1723:1750   */\n      mstore\n        /* \"#utility.yul\":1610:1756   */\n      pop\n      pop\n      pop\n      jump\t// out\n        /* \"#utility.yul\":1762:2187   */\n    tag_42:\n        /* \"#utility.yul\":1840:1845   */\n      0x00\n        /* \"#utility.yul\":1865:1931   */\n      tag_77\n        /* \"#utility.yul\":1881:1930   */\n      tag_78\n        /* \"#utility.yul\":1923:1929   */\n      dup5\n        /* \"#utility.yul\":1881:1930   */\n      tag_40\n      jump\t// in\n    tag_78:\n        /* \"#utility.yul\":1865:1931   */\n      tag_39\n      jump\t// in\n    tag_77:\n        /* \"#utility.yul\":1856:1931   */\n      swap1\n      pop\n        /* \"#utility.yul\":1954:1960   */\n      dup3\n        /* \"#utility.yul\":1947:1952   */\n      dup2\n        /* \"#utility.yul\":1940:1961   */\n      mstore\n        /* \"#utility.yul\":1992:1996   */\n      0x20\n        /* \"#utility.yul\":1985:1990   */\n      dup2\n        /* \"#utility.yul\":1981:1997   */\n      add\n        /* \"#utility.yul\":2030:2033   */\n      dup5\n        /* \"#utility.yul\":2021:2027   */\n      dup5\n        /* \"#utility.yul\":2016:2019   */\n      dup5\n        /* \"#utility.yul\":2012:2028   */\n      add\n        /* \"#utility.yul\":2009:2034   */\n      gt\n        /* \"#utility.yul\":2006:2118   */\n      iszero\n      tag_79\n      jumpi\n        /* \"#utility.yul\":2037:2116   */\n      tag_80\n      tag_35\n      jump\t// in\n    tag_80:\n        /* \"#utility.yul\":2006:2118   */\n    tag_79:\n        /* \"#utility.yul\":2127:2181   */\n      tag_81\n        /* \"#utility.yul\":2174:2180   */\n      dup5\n        /* \"#utility.yul\":2169:2172   */\n      dup3\n        /* \"#utility.yul\":2164:2167   */\n      dup6\n        /* \"#utility.yul\":2127:2181   */\n      tag_41\n      jump\t// in\n    tag_81:\n        /* \"#utility.yul\":1846:2187   */\n      pop\n        /* \"#utility.yul\":1762:2187   */\n      swap4\n      swap3\n      pop\n      pop\n      pop\n      jump\t// out\n        /* \"#utility.yul\":2207:2547   */\n    tag_43:\n        /* \"#utility.yul\":2263:2268   */\n      0x00\n        /* \"#utility.yul\":2312:2315   */\n      dup3\n        /* \"#utility.yul\":2305:2309   */\n      0x1f\n        /* \"#utility.yul\":2297:2303   */\n      dup4\n        /* \"#utility.yul\":2293:2310   */\n      add\n        /* \"#utility.yul\":2289:2316   */\n      slt\n        /* \"#utility.yul\":2279:2401   */\n      tag_83\n      jumpi\n        /* \"#utility.yul\":2320:2399   */\n      tag_84\n      tag_34\n      jump\t// in\n    tag_84:\n        /* \"#utility.yul\":2279:2401   */\n    tag_83:\n        /* \"#utility.yul\":2437:2443   */\n      dup2\n        /* \"#utility.yul\":2424:2444   */\n      calldataload\n        /* \"#utility.yul\":2462:2541   */\n      tag_85\n        /* \"#utility.yul\":2537:2540   */\n      dup5\n        /* \"#utility.yul\":2529:2535   */\n      dup3\n        /* \"#utility.yul\":2522:2526   */\n      0x20\n        /* \"#utility.yul\":2514:2520   */\n      dup7\n        /* \"#utility.yul\":2510:2527   */\n      add\n        /* \"#utility.yul\":2462:2541   */\n      tag_42\n      jump\t// in\n    tag_85:\n        /* \"#utility.yul\":2453:2541   */\n      swap2\n      pop\n        /* \"#utility.yul\":2269:2547   */\n      pop\n        /* \"#utility.yul\":2207:2547   */\n      swap3\n      swap2\n      pop\n      pop\n      jump\t// out\n        /* \"#utility.yul\":2553:3062   */\n    tag_7:\n        /* \"#utility.yul\":2622:2628   */\n      0x00\n        /* \"#utility.yul\":2671:2673   */\n      0x20\n        /* \"#utility.yul\":2659:2668   */\n      dup3\n        /* \"#utility.yul\":2650:2657   */\n      dup5\n        /* \"#utility.yul\":2646:2669   */\n      sub\n        /* \"#utility.yul\":2642:2674   */\n      slt\n        /* \"#utility.yul\":2639:2758   */\n      iszero\n      tag_87\n      jumpi\n        /* \"#utility.yul\":2677:2756   */\n      tag_88\n      tag_32\n      jump\t// in\n    tag_88:\n        /* \"#utility.yul\":2639:2758   */\n    tag_87:\n        /* \"#utility.yul\":2825:2826   */\n      0x00\n        /* \"#utility.yul\":2814:2823   */\n      dup3\n        /* \"#utility.yul\":2810:2827   */\n      add\n        /* \"#utility.yul\":2797:2828   */\n      calldataload\n        /* \"#utility.yul\":2855:2873   */\n      0xffffffffffffffff\n        /* \"#utility.yul\":2847:2853   */\n      dup2\n        /* \"#utility.yul\":2844:2874   */\n      gt\n        /* \"#utility.yul\":2841:2958   */\n      iszero\n      tag_89\n      jumpi\n        /* \"#utility.yul\":2877:2956   */\n      tag_90\n      tag_33\n      jump\t// in\n    tag_90:\n        /* \"#utility.yul\":2841:2958   */\n    tag_89:\n        /* \"#utility.yul\":2982:3045   */\n      tag_91\n        /* \"#utility.yul\":3037:3044   */\n      dup5\n        /* \"#utility.yul\":3028:3034   */\n      dup3\n        /* \"#utility.yul\":3017:3026   */\n      dup6\n        /* \"#utility.yul\":3013:3035   */\n      add\n        /* \"#utility.yul\":2982:3045   */\n      tag_43\n      jump\t// in\n    tag_91:\n        /* \"#utility.yul\":2972:3045   */\n      swap2\n      pop\n        /* \"#utility.yul\":2768:3055   */\n      pop\n        /* \"#utility.yul\":2553:3062   */\n      swap3\n      swap2\n      pop\n      pop\n      jump\t// out\n        /* \"#utility.yul\":3068:3158   */\n    tag_44:\n        /* \"#utility.yul\":3102:3109   */\n      0x00\n        /* \"#utility.yul\":3145:3150   */\n      dup2\n        /* \"#utility.yul\":3138:3151   */\n      iszero\n        /* \"#utility.yul\":3131:3152   */\n      iszero\n        /* \"#utility.yul\":3120:3152   */\n      swap1\n      pop\n        /* \"#utility.yul\":3068:3158   */\n      swap2\n      swap1\n      pop\n      jump\t// out\n        /* \"#utility.yul\":3164:3273   */\n    tag_45:\n        /* \"#utility.yul\":3245:3266   */\n      tag_94\n        /* \"#utility.yul\":3260:3265   */\n      dup2\n        /* \"#utility.yul\":3245:3266   */\n      tag_44\n      jump\t// in\n    tag_94:\n        /* \"#utility.yul\":3240:3243   */\n      dup3\n        /* \"#utility.yul\":3233:3267   */\n      mstore\n        /* \"#utility.yul\":3164:3273   */\n      pop\n      pop\n      jump\t// out\n        /* \"#utility.yul\":3279:3489   */\n    tag_10:\n        /* \"#utility.yul\":3366:3370   */\n      0x00\n        /* \"#utility.yul\":3404:3406   */\n      0x20\n        /* \"#utility.yul\":3393:3402   */\n      dup3\n        /* \"#utility.yul\":3389:3407   */\n      add\n        /* \"#utility.yul\":3381:3407   */\n      swap1\n      pop\n        /* \"#utility.yul\":3417:3482   */\n      tag_96\n        /* \"#utility.yul\":3479:3480   */\n      0x00\n        /* \"#utility.yul\":3468:3477   */\n      dup4\n        /* \"#utility.yul\":3464:3481   */\n      add\n        /* \"#utility.yul\":3455:3461   */\n      dup5\n        /* \"#utility.yul\":3417:3482   */\n      tag_45\n      jump\t// in\n    tag_96:\n        /* \"#utility.yul\":3279:3489   */\n      swap3\n      swap2\n      pop\n      pop\n      jump\t// out\n        /* \"#utility.yul\":3495:3594   */\n    tag_46:\n        /* \"#utility.yul\":3547:3553   */\n      0x00\n        /* \"#utility.yul\":3581:3586   */\n      dup2\n        /* \"#utility.yul\":3575:3587   */\n      mload\n        /* \"#utility.yul\":3565:3587   */\n      swap1\n      pop\n        /* \"#utility.yul\":3495:3594   */\n      swap2\n      swap1\n      pop\n      jump\t// out\n        /* \"#utility.yul\":3600:3748   */\n    tag_47:\n        /* \"#utility.yul\":3702:3713   */\n      0x00\n        /* \"#utility.yul\":3739:3742   */\n      dup2\n        /* \"#utility.yul\":3724:3742   */\n      swap1\n      pop\n        /* \"#utility.yul\":3600:3748   */\n      swap3\n      swap2\n      pop\n      pop\n      jump\t// out\n        /* \"#utility.yul\":3754:4000   */\n    tag_48:\n        /* \"#utility.yul\":3835:3836   */\n      0x00\n        /* \"#utility.yul\":3845:3958   */\n    tag_100:\n        /* \"#utility.yul\":3859:3865   */\n      dup4\n        /* \"#utility.yul\":3856:3857   */\n      dup2\n        /* \"#utility.yul\":3853:3866   */\n      lt\n        /* \"#utility.yul\":3845:3958   */\n      iszero\n      tag_102\n      jumpi\n        /* \"#utility.yul\":3944:3945   */\n      dup1\n        /* \"#utility.yul\":3939:3942   */\n      dup3\n        /* \"#utility.yul\":3935:3946   */\n      add\n        /* \"#utility.yul\":3929:3947   */\n      mload\n        /* \"#utility.yul\":3925:3926   */\n      dup2\n        /* \"#utility.yul\":3920:3923   */\n      dup5\n        /* \"#utility.yul\":3916:3927   */\n      add\n        /* \"#utility.yul\":3909:3948   */\n      mstore\n        /* \"#utility.yul\":3881:3883   */\n      0x20\n        /* \"#utility.yul\":3878:3879   */\n      dup2\n        /* \"#utility.yul\":3874:3884   */\n      add\n        /* \"#utility.yul\":3869:3884   */\n      swap1\n      pop\n        /* \"#utility.yul\":3845:3958   */\n      jump(tag_100)\n    tag_102:\n        /* \"#utility.yul\":3992:3993   */\n      0x00\n        /* \"#utility.yul\":3983:3989   */\n      dup5\n        /* \"#utility.yul\":3978:3981   */\n      dup5\n        /* \"#utility.yul\":3974:3990   */\n      add\n        /* \"#utility.yul\":3967:3994   */\n      mstore\n        /* \"#utility.yul\":3816:4000   */\n      pop\n        /* \"#utility.yul\":3754:4000   */\n      pop\n      pop\n      pop\n      jump\t// out\n        /* \"#utility.yul\":4006:4396   */\n    tag_49:\n        /* \"#utility.yul\":4112:4115   */\n      0x00\n        /* \"#utility.yul\":4140:4179   */\n      tag_104\n        /* \"#utility.yul\":4173:4178   */\n      dup3\n        /* \"#utility.yul\":4140:4179   */\n      tag_46\n      jump\t// in\n    tag_104:\n        /* \"#utility.yul\":4195:4284   */\n      tag_105\n        /* \"#utility.yul\":4277:4283   */\n      dup2\n        /* \"#utility.yul\":4272:4275   */\n      dup6\n        /* \"#utility.yul\":4195:4284   */\n      tag_47\n      jump\t// in\n    tag_105:\n        /* \"#utility.yul\":4188:4284   */\n      swap4\n      pop\n        /* \"#utility.yul\":4293:4358   */\n      tag_106\n        /* \"#utility.yul\":4351:4357   */\n      dup2\n        /* \"#utility.yul\":4346:4349   */\n      dup6\n        /* \"#utility.yul\":4339:4343   */\n      0x20\n        /* \"#utility.yul\":4332:4337   */\n      dup7\n        /* \"#utility.yul\":4328:4344   */\n      add\n        /* \"#utility.yul\":4293:4358   */\n      tag_48\n      jump\t// in\n    tag_106:\n        /* \"#utility.yul\":4383:4389   */\n      dup1\n        /* \"#utility.yul\":4378:4381   */\n      dup5\n        /* \"#utility.yul\":4374:4390   */\n      add\n        /* \"#utility.yul\":4367:4390   */\n      swap2\n      pop\n        /* \"#utility.yul\":4116:4396   */\n      pop\n        /* \"#utility.yul\":4006:4396   */\n      swap3\n      swap2\n      pop\n      pop\n      jump\t// out\n        /* \"#utility.yul\":4402:4677   */\n    tag_21:\n        /* \"#utility.yul\":4534:4537   */\n      0x00\n        /* \"#utility.yul\":4556:4651   */\n      tag_108\n        /* \"#utility.yul\":4647:4650   */\n      dup3\n        /* \"#utility.yul\":4638:4644   */\n      dup5\n        /* \"#utility.yul\":4556:4651   */\n      tag_49\n      jump\t// in\n    tag_108:\n        /* \"#utility.yul\":4549:4651   */\n      swap2\n      pop\n        /* \"#utility.yul\":4668:4671   */\n      dup2\n        /* \"#utility.yul\":4661:4671   */\n      swap1\n      pop\n        /* \"#utility.yul\":4402:4677   */\n      swap3\n      swap2\n      pop\n      pop\n      jump\t// out\n        /* \"#utility.yul\":4683:4863   */\n    tag_24:\n        /* \"#utility.yul\":4731:4808   */\n      0x4e487b7100000000000000000000000000000000000000000000000000000000\n        /* \"#utility.yul\":4728:4729   */\n      0x00\n        /* \"#utility.yul\":4721:4809   */\n      mstore\n        /* \"#utility.yul\":4828:4832   */\n      0x32\n        /* \"#utility.yul\":4825:4826   */\n      0x04\n        /* \"#utility.yul\":4818:4833   */\n      mstore\n        /* \"#utility.yul\":4852:4856   */\n      0x24\n        /* \"#utility.yul\":4849:4850   */\n      0x00\n        /* \"#utility.yul\":4842:4857   */\n      revert\n        /* \"#utility.yul\":4869:5049   */\n    tag_50:\n        /* \"#utility.yul\":4917:4994   */\n      0x4e487b7100000000000000000000000000000000000000000000000000000000\n        /* \"#utility.yul\":4914:4915   */\n      0x00\n        /* \"#utility.yul\":4907:4995   */\n      mstore\n        /* \"#utility.yul\":5014:5018   */\n      0x22\n        /* \"#utility.yul\":5011:5012   */\n      0x04\n        /* \"#utility.yul\":5004:5019   */\n      mstore\n        /* \"#utility.yul\":5038:5042   */\n      0x24\n        /* \"#utility.yul\":5035:5036   */\n      0x00\n        /* \"#utility.yul\":5028:5043   */\n      revert\n        /* \"#utility.yul\":5055:5375   */\n    tag_51:\n        /* \"#utility.yul\":5099:5105   */\n      0x00\n        /* \"#utility.yul\":5136:5137   */\n      0x02\n        /* \"#utility.yul\":5130:5134   */\n      dup3\n        /* \"#utility.yul\":5126:5138   */\n      div\n        /* \"#utility.yul\":5116:5138   */\n      swap1\n      pop\n        /* \"#utility.yul\":5183:5184   */\n      0x01\n        /* \"#utility.yul\":5177:5181   */\n      dup3\n        /* \"#utility.yul\":5173:5185   */\n      and\n        /* \"#utility.yul\":5204:5222   */\n      dup1\n        /* \"#utility.yul\":5194:5275   */\n      tag_112\n      jumpi\n        /* \"#utility.yul\":5260:5264   */\n      0x7f\n        /* \"#utility.yul\":5252:5258   */\n      dup3\n        /* \"#utility.yul\":5248:5265   */\n      and\n        /* \"#utility.yul\":5238:5265   */\n      swap2\n      pop\n        /* \"#utility.yul\":5194:5275   */\n    tag_112:\n        /* \"#utility.yul\":5322:5324   */\n      0x20\n        /* \"#utility.yul\":5314:5320   */\n      dup3\n        /* \"#utility.yul\":5311:5325   */\n      lt\n        /* \"#utility.yul\":5291:5309   */\n      dup2\n        /* \"#utility.yul\":5288:5326   */\n      sub\n        /* \"#utility.yul\":5285:5369   */\n      tag_113\n      jumpi\n        /* \"#utility.yul\":5341:5359   */\n      tag_114\n      tag_50\n      jump\t// in\n    tag_114:\n        /* \"#utility.yul\":5285:5369   */\n    tag_113:\n        /* \"#utility.yul\":5106:5375   */\n      pop\n        /* \"#utility.yul\":5055:5375   */\n      swap2\n      swap1\n      pop\n      jump\t// out\n        /* \"#utility.yul\":5381:5522   */\n    tag_52:\n        /* \"#utility.yul\":5430:5434   */\n      0x00\n        /* \"#utility.yul\":5453:5456   */\n      dup2\n        /* \"#utility.yul\":5445:5456   */\n      swap1\n      pop\n        /* \"#utility.yul\":5476:5479   */\n      dup2\n        /* \"#utility.yul\":5473:5474   */\n      0x00\n        /* \"#utility.yul\":5466:5480   */\n      mstore\n        /* \"#utility.yul\":5510:5514   */\n      0x20\n        /* \"#utility.yul\":5507:5508   */\n      0x00\n        /* \"#utility.yul\":5497:5515   */\n      keccak256\n        /* \"#utility.yul\":5489:5515   */\n      swap1\n      pop\n        /* \"#utility.yul\":5381:5522   */\n      swap2\n      swap1\n      pop\n      jump\t// out\n        /* \"#utility.yul\":5552:6426   */\n    tag_53:\n        /* \"#utility.yul\":5655:5658   */\n      0x00\n        /* \"#utility.yul\":5692:5697   */\n      dup2\n        /* \"#utility.yul\":5686:5698   */\n      sload\n        /* \"#utility.yul\":5721:5757   */\n      tag_117\n        /* \"#utility.yul\":5747:5756   */\n      dup2\n        /* \"#utility.yul\":5721:5757   */\n      tag_51\n      jump\t// in\n    tag_117:\n        /* \"#utility.yul\":5773:5862   */\n      tag_118\n        /* \"#utility.yul\":5855:5861   */\n      dup2\n        /* \"#utility.yul\":5850:5853   */\n      dup7\n        /* \"#utility.yul\":5773:5862   */\n      tag_47\n      jump\t// in\n    tag_118:\n        /* \"#utility.yul\":5766:5862   */\n      swap5\n      pop\n        /* \"#utility.yul\":5893:5894   */\n      0x01\n        /* \"#utility.yul\":5882:5891   */\n      dup3\n        /* \"#utility.yul\":5878:5895   */\n      and\n        /* \"#utility.yul\":5909:5910   */\n      0x00\n        /* \"#utility.yul\":5904:6070   */\n      dup2\n      eq\n      tag_120\n      jumpi\n        /* \"#utility.yul\":6084:6085   */\n      0x01\n        /* \"#utility.yul\":6079:6420   */\n      dup2\n      eq\n      tag_121\n      jumpi\n        /* \"#utility.yul\":5871:6420   */\n      jump(tag_119)\n        /* \"#utility.yul\":5904:6070   */\n    tag_120:\n        /* \"#utility.yul\":5988:5992   */\n      0xff\n        /* \"#utility.yul\":5984:5993   */\n      not\n        /* \"#utility.yul\":5973:5982   */\n      dup4\n        /* \"#utility.yul\":5969:5994   */\n      and\n        /* \"#utility.yul\":5964:5967   */\n      dup7\n        /* \"#utility.yul\":5957:5995   */\n      mstore\n        /* \"#utility.yul\":6050:6056   */\n      dup2\n        /* \"#utility.yul\":6043:6057   */\n      iszero\n        /* \"#utility.yul\":6036:6058   */\n      iszero\n        /* \"#utility.yul\":6028:6034   */\n      dup3\n        /* \"#utility.yul\":6024:6059   */\n      mul\n        /* \"#utility.yul\":6019:6022   */\n      dup7\n        /* \"#utility.yul\":6015:6060   */\n      add\n        /* \"#utility.yul\":6008:6060   */\n      swap4\n      pop\n        /* \"#utility.yul\":5904:6070   */\n      jump(tag_119)\n        /* \"#utility.yul\":6079:6420   */\n    tag_121:\n        /* \"#utility.yul\":6146:6184   */\n      tag_122\n        /* \"#utility.yul\":6178:6183   */\n      dup6\n        /* \"#utility.yul\":6146:6184   */\n      tag_52\n      jump\t// in\n    tag_122:\n        /* \"#utility.yul\":6206:6207   */\n      0x00\n        /* \"#utility.yul\":6220:6374   */\n    tag_123:\n        /* \"#utility.yul\":6234:6240   */\n      dup4\n        /* \"#utility.yul\":6231:6232   */\n      dup2\n        /* \"#utility.yul\":6228:6241   */\n      lt\n        /* \"#utility.yul\":6220:6374   */\n      iszero\n      tag_125\n      jumpi\n        /* \"#utility.yul\":6308:6315   */\n      dup2\n        /* \"#utility.yul\":6302:6316   */\n      sload\n        /* \"#utility.yul\":6298:6299   */\n      dup2\n        /* \"#utility.yul\":6293:6296   */\n      dup10\n        /* \"#utility.yul\":6289:6300   */\n      add\n        /* \"#utility.yul\":6282:6317   */\n      mstore\n        /* \"#utility.yul\":6358:6359   */\n      0x01\n        /* \"#utility.yul\":6349:6356   */\n      dup3\n        /* \"#utility.yul\":6345:6360   */\n      add\n        /* \"#utility.yul\":6334:6360   */\n      swap2\n      pop\n        /* \"#utility.yul\":6256:6260   */\n      0x20\n        /* \"#utility.yul\":6253:6254   */\n      dup2\n        /* \"#utility.yul\":6249:6261   */\n      add\n        /* \"#utility.yul\":6244:6261   */\n      swap1\n      pop\n        /* \"#utility.yul\":6220:6374   */\n      jump(tag_123)\n    tag_125:\n        /* \"#utility.yul\":6403:6409   */\n      dup4\n        /* \"#utility.yul\":6398:6401   */\n      dup9\n        /* \"#utility.yul\":6394:6410   */\n      add\n        /* \"#utility.yul\":6387:6410   */\n      swap6\n      pop\n        /* \"#utility.yul\":6086:6420   */\n      pop\n      pop\n        /* \"#utility.yul\":5871:6420   */\n    tag_119:\n      pop\n        /* \"#utility.yul\":5659:6426   */\n      pop\n      pop\n        /* \"#utility.yul\":5552:6426   */\n      swap3\n      swap2\n      pop\n      pop\n      jump\t// out\n        /* \"#utility.yul\":6432:6701   */\n    tag_27:\n        /* \"#utility.yul\":6561:6564   */\n      0x00\n        /* \"#utility.yul\":6583:6675   */\n      tag_127\n        /* \"#utility.yul\":6671:6674   */\n      dup3\n        /* \"#utility.yul\":6662:6668   */\n      dup5\n        /* \"#utility.yul\":6583:6675   */\n      tag_53\n      jump\t// in\n    tag_127:\n        /* \"#utility.yul\":6576:6675   */\n      swap2\n      pop\n        /* \"#utility.yul\":6692:6695   */\n      dup2\n        /* \"#utility.yul\":6685:6695   */\n      swap1\n      pop\n        /* \"#utility.yul\":6432:6701   */\n      swap3\n      swap2\n      pop\n      pop\n      jump\t// out\n        /* \"#utility.yul\":6707:6887   */\n    tag_54:\n        /* \"#utility.yul\":6755:6832   */\n      0x4e487b7100000000000000000000000000000000000000000000000000000000\n        /* \"#utility.yul\":6752:6753   */\n      0x00\n        /* \"#utility.yul\":6745:6833   */\n      mstore\n        /* \"#utility.yul\":6852:6856   */\n      0x11\n        /* \"#utility.yul\":6849:6850   */\n      0x04\n        /* \"#utility.yul\":6842:6857   */\n      mstore\n        /* \"#utility.yul\":6876:6880   */\n      0x24\n        /* \"#utility.yul\":6873:6874   */\n      0x00\n        /* \"#utility.yul\":6866:6881   */\n      revert\n        /* \"#utility.yul\":6893:6970   */\n    tag_55:\n        /* \"#utility.yul\":6930:6937   */\n      0x00\n        /* \"#utility.yul\":6959:6964   */\n      dup2\n        /* \"#utility.yul\":6948:6964   */\n      swap1\n      pop\n        /* \"#utility.yul\":6893:6970   */\n      swap2\n      swap1\n      pop\n      jump\t// out\n        /* \"#utility.yul\":6976:7209   */\n    tag_30:\n        /* \"#utility.yul\":7015:7018   */\n      0x00\n        /* \"#utility.yul\":7038:7062   */\n      tag_131\n        /* \"#utility.yul\":7056:7061   */\n      dup3\n        /* \"#utility.yul\":7038:7062   */\n      tag_55\n      jump\t// in\n    tag_131:\n        /* \"#utility.yul\":7029:7062   */\n      swap2\n      pop\n        /* \"#utility.yul\":7084:7150   */\n      0xffffffffffffffffffffffffffffffffffffffffffffffffffffffffffffffff\n        /* \"#utility.yul\":7077:7082   */\n      dup3\n        /* \"#utility.yul\":7074:7151   */\n      sub\n        /* \"#utility.yul\":7071:7174   */\n      tag_132\n      jumpi\n        /* \"#utility.yul\":7154:7172   */\n      tag_133\n      tag_54\n      jump\t// in\n    tag_133:\n        /* \"#utility.yul\":7071:7174   */\n    tag_132:\n        /* \"#utility.yul\":7201:7202   */\n      0x01\n        /* \"#utility.yul\":7194:7199   */\n      dup3\n        /* \"#utility.yul\":7190:7203   */\n      add\n        /* \"#utility.yul\":7183:7203   */\n      swap1\n      pop\n        /* \"#utility.yul\":6976:7209   */\n      swap2\n      swap1\n      pop\n      jump\t// out\n\n    auxdata: 0xa26469706673582212201d4a930ab2147bacd8d3ba3111e1a0a4c900083f3a2281912df0f0c27c09498164736f6c63430008110033\n}\n",
				"bytecode": {
					"linkReferences": {},
					"object": "608060405260405180608001604052806040518060400160405280600481526020017f4972616e0000000000000000000000000000000000000000000000000000000081525081526020016040518060400160405280600a81526020017f416667616e697374616e0000000000000000000000000000000000000000000081525081526020016040518060400160405280600c81526020017f5475726b6d656e697374616e000000000000000000000000000000000000000081525081526020016040518060400160405280600a81526020017f4b797267797a7374616e0000000000000000000000000000000000000000000081525081525060009060046200010b92919062000120565b503480156200011957600080fd5b506200056e565b8280548282559060005260206000209081019282156200016d579160200282015b828111156200016c5782518290816200015b919062000487565b509160200191906001019062000141565b5b5090506200017c919062000180565b5090565b5b80821115620001a457600081816200019a9190620001a8565b5060010162000181565b5090565b508054620001b69062000276565b6000825580601f10620001ca5750620001eb565b601f016020900490600052602060002090810190620001ea9190620001ee565b5b50565b5b8082111562000209576000816000905550600101620001ef565b5090565b600081519050919050565b7f4e487b7100000000000000000000000000000000000000000000000000000000600052604160045260246000fd5b7f4e487b7100000000000000000000000000000000000000000000000000000000600052602260045260246000fd5b600060028204905060018216806200028f57607f821691505b602082108103620002a557620002a462000247565b5b50919050565b60008190508160005260206000209050919050565b60006020601f8301049050919050565b600082821b905092915050565b6000600883026200030f7fffffffffffffffffffffffffffffffffffffffffffffffffffffffffffffffff82620002d0565b6200031b8683620002d0565b95508019841693508086168417925050509392505050565b6000819050919050565b6000819050919050565b600062000368620003626200035c8462000333565b6200033d565b62000333565b9050919050565b6000819050919050565b620003848362000347565b6200039c62000393826200036f565b848454620002dd565b825550505050565b600090565b620003b3620003a4565b620003c081848462000379565b505050565b5b81811015620003e857620003dc600082620003a9565b600181019050620003c6565b5050565b601f82111562000437576200040181620002ab565b6200040c84620002c0565b810160208510156200041c578190505b620004346200042b85620002c0565b830182620003c5565b50505b505050565b600082821c905092915050565b60006200045c600019846008026200043c565b1980831691505092915050565b600062000477838362000449565b9150826002028217905092915050565b62000492826200020d565b67ffffffffffffffff811115620004ae57620004ad62000218565b5b620004ba825462000276565b620004c7828285620003ec565b600060209050601f831160018114620004ff5760008415620004ea578287015190505b620004f6858262000469565b86555062000566565b601f1984166200050f86620002ab565b60005b82811015620005395784890151825560018201915060208501945060208101905062000512565b8683101562000559578489015162000555601f89168262000449565b8355505b6001600288020188555050505b505050505050565b6105a5806200057e6000396000f3fe608060405234801561001057600080fd5b50600436106100365760003560e01c80630cb391531461003b5780637b0b53f01461006b575b600080fd5b610055600480360381019061005091906102a9565b61009b565b604051610062919061030d565b60405180910390f35b610085600480360381019061008091906102a9565b6100a2565b604051610092919061030d565b60405180910390f35b6000919050565b600080600090505b60008054905081101561014457826040516020016100c89190610399565b60405160208183030381529060405280519060200120600082815481106100f2576100f16103b0565b5b9060005260206000200160405160200161010c91906104d7565b604051602081830303815290604052805190602001200361013157600191505061014a565b808061013c90610527565b9150506100aa565b50600090505b919050565b6000604051905090565b600080fd5b600080fd5b600080fd5b600080fd5b6000601f19601f8301169050919050565b7f4e487b7100000000000000000000000000000000000000000000000000000000600052604160045260246000fd5b6101b68261016d565b810181811067ffffffffffffffff821117156101d5576101d461017e565b5b80604052505050565b60006101e861014f565b90506101f482826101ad565b919050565b600067ffffffffffffffff8211156102145761021361017e565b5b61021d8261016d565b9050602081019050919050565b82818337600083830152505050565b600061024c610247846101f9565b6101de565b90508281526020810184848401111561026857610267610168565b5b61027384828561022a565b509392505050565b600082601f8301126102905761028f610163565b5b81356102a0848260208601610239565b91505092915050565b6000602082840312156102bf576102be610159565b5b600082013567ffffffffffffffff8111156102dd576102dc61015e565b5b6102e98482850161027b565b91505092915050565b60008115159050919050565b610307816102f2565b82525050565b600060208201905061032260008301846102fe565b92915050565b600081519050919050565b600081905092915050565b60005b8381101561035c578082015181840152602081019050610341565b60008484015250505050565b600061037382610328565b61037d8185610333565b935061038d81856020860161033e565b80840191505092915050565b60006103a58284610368565b915081905092915050565b7f4e487b7100000000000000000000000000000000000000000000000000000000600052603260045260246000fd5b7f4e487b7100000000000000000000000000000000000000000000000000000000600052602260045260246000fd5b6000600282049050600182168061042657607f821691505b602082108103610439576104386103df565b5b50919050565b60008190508160005260206000209050919050565b600081546104618161040e565b61046b8186610333565b94506001821660008114610486576001811461049b576104ce565b60ff19831686528115158202860193506104ce565b6104a48561043f565b60005b838110156104c6578154818901526001820191506020810190506104a7565b838801955050505b50505092915050565b60006104e38284610454565b915081905092915050565b7f4e487b7100000000000000000000000000000000000000000000000000000000600052601160045260246000fd5b6000819050919050565b60006105328261051d565b91507fffffffffffffffffffffffffffffffffffffffffffffffffffffffffffffffff8203610564576105636104ee565b5b60018201905091905056fea26469706673582212201d4a930ab2147bacd8d3ba3111e1a0a4c900083f3a2281912df0f0c27c09498164736f6c63430008110033",
					"opcodes": "PUSH1 0x80 PUSH1 0x40 MSTORE PUSH1 0x40 MLOAD DUP1 PUSH1 0x80 ADD PUSH1 0x40 MSTORE DUP1 PUSH1 0x40 MLOAD DUP1 PUSH1 0x40 ADD PUSH1 0x40 MSTORE DUP1 PUSH1 0x4 DUP2 MSTORE PUSH1 0x20 ADD PUSH32 0x4972616E00000000000000000000000000000000000000000000000000000000 DUP2 MSTORE POP DUP2 MSTORE PUSH1 0x20 ADD PUSH1 0x40 MLOAD DUP1 PUSH1 0x40 ADD PUSH1 0x40 MSTORE DUP1 PUSH1 0xA DUP2 MSTORE PUSH1 0x20 ADD PUSH32 0x416667616E697374616E00000000000000000000000000000000000000000000 DUP2 MSTORE POP DUP2 MSTORE PUSH1 0x20 ADD PUSH1 0x40 MLOAD DUP1 PUSH1 0x40 ADD PUSH1 0x40 MSTORE DUP1 PUSH1 0xC DUP2 MSTORE PUSH1 0x20 ADD PUSH32 0x5475726B6D656E697374616E0000000000000000000000000000000000000000 DUP2 MSTORE POP DUP2 MSTORE PUSH1 0x20 ADD PUSH1 0x40 MLOAD DUP1 PUSH1 0x40 ADD PUSH1 0x40 MSTORE DUP1 PUSH1 0xA DUP2 MSTORE PUSH1 0x20 ADD PUSH32 0x4B797267797A7374616E00000000000000000000000000000000000000000000 DUP2 MSTORE POP DUP2 MSTORE POP PUSH1 0x0 SWAP1 PUSH1 0x4 PUSH3 0x10B SWAP3 SWAP2 SWAP1 PUSH3 0x120 JUMP JUMPDEST POP CALLVALUE DUP1 ISZERO PUSH3 0x119 JUMPI PUSH1 0x0 DUP1 REVERT JUMPDEST POP PUSH3 0x56E JUMP JUMPDEST DUP3 DUP1 SLOAD DUP3 DUP3 SSTORE SWAP1 PUSH1 0x0 MSTORE PUSH1 0x20 PUSH1 0x0 KECCAK256 SWAP1 DUP2 ADD SWAP3 DUP3 ISZERO PUSH3 0x16D JUMPI SWAP2 PUSH1 0x20 MUL DUP3 ADD JUMPDEST DUP3 DUP2 GT ISZERO PUSH3 0x16C JUMPI DUP3 MLOAD DUP3 SWAP1 DUP2 PUSH3 0x15B SWAP2 SWAP1 PUSH3 0x487 JUMP JUMPDEST POP SWAP2 PUSH1 0x20 ADD SWAP2 SWAP1 PUSH1 0x1 ADD SWAP1 PUSH3 0x141 JUMP JUMPDEST JUMPDEST POP SWAP1 POP PUSH3 0x17C SWAP2 SWAP1 PUSH3 0x180 JUMP JUMPDEST POP SWAP1 JUMP JUMPDEST JUMPDEST DUP1 DUP3 GT ISZERO PUSH3 0x1A4 JUMPI PUSH1 0x0 DUP2 DUP2 PUSH3 0x19A SWAP2 SWAP1 PUSH3 0x1A8 JUMP JUMPDEST POP PUSH1 0x1 ADD PUSH3 0x181 JUMP JUMPDEST POP SWAP1 JUMP JUMPDEST POP DUP1 SLOAD PUSH3 0x1B6 SWAP1 PUSH3 0x276 JUMP JUMPDEST PUSH1 0x0 DUP3 SSTORE DUP1 PUSH1 0x1F LT PUSH3 0x1CA JUMPI POP PUSH3 0x1EB JUMP JUMPDEST PUSH1 0x1F ADD PUSH1 0x20 SWAP1 DIV SWAP1 PUSH1 0x0 MSTORE PUSH1 0x20 PUSH1 0x0 KECCAK256 SWAP1 DUP2 ADD SWAP1 PUSH3 0x1EA SWAP2 SWAP1 PUSH3 0x1EE JUMP JUMPDEST JUMPDEST POP JUMP JUMPDEST JUMPDEST DUP1 DUP3 GT ISZERO PUSH3 0x209 JUMPI PUSH1 0x0 DUP2 PUSH1 0x0 SWAP1 SSTORE POP PUSH1 0x1 ADD PUSH3 0x1EF JUMP JUMPDEST POP SWAP1 JUMP JUMPDEST PUSH1 0x0 DUP2 MLOAD SWAP1 POP SWAP2 SWAP1 POP JUMP JUMPDEST PUSH32 0x4E487B7100000000000000000000000000000000000000000000000000000000 PUSH1 0x0 MSTORE PUSH1 0x41 PUSH1 0x4 MSTORE PUSH1 0x24 PUSH1 0x0 REVERT JUMPDEST PUSH32 0x4E487B7100000000000000000000000000000000000000000000000000000000 PUSH1 0x0 MSTORE PUSH1 0x22 PUSH1 0x4 MSTORE PUSH1 0x24 PUSH1 0x0 REVERT JUMPDEST PUSH1 0x0 PUSH1 0x2 DUP3 DIV SWAP1 POP PUSH1 0x1 DUP3 AND DUP1 PUSH3 0x28F JUMPI PUSH1 0x7F DUP3 AND SWAP2 POP JUMPDEST PUSH1 0x20 DUP3 LT DUP2 SUB PUSH3 0x2A5 JUMPI PUSH3 0x2A4 PUSH3 0x247 JUMP JUMPDEST JUMPDEST POP SWAP2 SWAP1 POP JUMP JUMPDEST PUSH1 0x0 DUP2 SWAP1 POP DUP2 PUSH1 0x0 MSTORE PUSH1 0x20 PUSH1 0x0 KECCAK256 SWAP1 POP SWAP2 SWAP1 POP JUMP JUMPDEST PUSH1 0x0 PUSH1 0x20 PUSH1 0x1F DUP4 ADD DIV SWAP1 POP SWAP2 SWAP1 POP JUMP JUMPDEST PUSH1 0x0 DUP3 DUP3 SHL SWAP1 POP SWAP3 SWAP2 POP POP JUMP JUMPDEST PUSH1 0x0 PUSH1 0x8 DUP4 MUL PUSH3 0x30F PUSH32 0xFFFFFFFFFFFFFFFFFFFFFFFFFFFFFFFFFFFFFFFFFFFFFFFFFFFFFFFFFFFFFFFF DUP3 PUSH3 0x2D0 JUMP JUMPDEST PUSH3 0x31B DUP7 DUP4 PUSH3 0x2D0 JUMP JUMPDEST SWAP6 POP DUP1 NOT DUP5 AND SWAP4 POP DUP1 DUP7 AND DUP5 OR SWAP3 POP POP POP SWAP4 SWAP3 POP POP POP JUMP JUMPDEST PUSH1 0x0 DUP2 SWAP1 POP SWAP2 SWAP1 POP JUMP JUMPDEST PUSH1 0x0 DUP2 SWAP1 POP SWAP2 SWAP1 POP JUMP JUMPDEST PUSH1 0x0 PUSH3 0x368 PUSH3 0x362 PUSH3 0x35C DUP5 PUSH3 0x333 JUMP JUMPDEST PUSH3 0x33D JUMP JUMPDEST PUSH3 0x333 JUMP JUMPDEST SWAP1 POP SWAP2 SWAP1 POP JUMP JUMPDEST PUSH1 0x0 DUP2 SWAP1 POP SWAP2 SWAP1 POP JUMP JUMPDEST PUSH3 0x384 DUP4 PUSH3 0x347 JUMP JUMPDEST PUSH3 0x39C PUSH3 0x393 DUP3 PUSH3 0x36F JUMP JUMPDEST DUP5 DUP5 SLOAD PUSH3 0x2DD JUMP JUMPDEST DUP3 SSTORE POP POP POP POP JUMP JUMPDEST PUSH1 0x0 SWAP1 JUMP JUMPDEST PUSH3 0x3B3 PUSH3 0x3A4 JUMP JUMPDEST PUSH3 0x3C0 DUP2 DUP5 DUP5 PUSH3 0x379 JUMP JUMPDEST POP POP POP JUMP JUMPDEST JUMPDEST DUP2 DUP2 LT ISZERO PUSH3 0x3E8 JUMPI PUSH3 0x3DC PUSH1 0x0 DUP3 PUSH3 0x3A9 JUMP JUMPDEST PUSH1 0x1 DUP2 ADD SWAP1 POP PUSH3 0x3C6 JUMP JUMPDEST POP POP JUMP JUMPDEST PUSH1 0x1F DUP3 GT ISZERO PUSH3 0x437 JUMPI PUSH3 0x401 DUP2 PUSH3 0x2AB JUMP JUMPDEST PUSH3 0x40C DUP5 PUSH3 0x2C0 JUMP JUMPDEST DUP2 ADD PUSH1 0x20 DUP6 LT ISZERO PUSH3 0x41C JUMPI DUP2 SWAP1 POP JUMPDEST PUSH3 0x434 PUSH3 0x42B DUP6 PUSH3 0x2C0 JUMP JUMPDEST DUP4 ADD DUP3 PUSH3 0x3C5 JUMP JUMPDEST POP POP JUMPDEST POP POP POP JUMP JUMPDEST PUSH1 0x0 DUP3 DUP3 SHR SWAP1 POP SWAP3 SWAP2 POP POP JUMP JUMPDEST PUSH1 0x0 PUSH3 0x45C PUSH1 0x0 NOT DUP5 PUSH1 0x8 MUL PUSH3 0x43C JUMP JUMPDEST NOT DUP1 DUP4 AND SWAP2 POP POP SWAP3 SWAP2 POP POP JUMP JUMPDEST PUSH1 0x0 PUSH3 0x477 DUP4 DUP4 PUSH3 0x449 JUMP JUMPDEST SWAP2 POP DUP3 PUSH1 0x2 MUL DUP3 OR SWAP1 POP SWAP3 SWAP2 POP POP JUMP JUMPDEST PUSH3 0x492 DUP3 PUSH3 0x20D JUMP JUMPDEST PUSH8 0xFFFFFFFFFFFFFFFF DUP2 GT ISZERO PUSH3 0x4AE JUMPI PUSH3 0x4AD PUSH3 0x218 JUMP JUMPDEST JUMPDEST PUSH3 0x4BA DUP3 SLOAD PUSH3 0x276 JUMP JUMPDEST PUSH3 0x4C7 DUP3 DUP3 DUP6 PUSH3 0x3EC JUMP JUMPDEST PUSH1 0x0 PUSH1 0x20 SWAP1 POP PUSH1 0x1F DUP4 GT PUSH1 0x1 DUP2 EQ PUSH3 0x4FF JUMPI PUSH1 0x0 DUP5 ISZERO PUSH3 0x4EA JUMPI DUP3 DUP8 ADD MLOAD SWAP1 POP JUMPDEST PUSH3 0x4F6 DUP6 DUP3 PUSH3 0x469 JUMP JUMPDEST DUP7 SSTORE POP PUSH3 0x566 JUMP JUMPDEST PUSH1 0x1F NOT DUP5 AND PUSH3 0x50F DUP7 PUSH3 0x2AB JUMP JUMPDEST PUSH1 0x0 JUMPDEST DUP3 DUP2 LT ISZERO PUSH3 0x539 JUMPI DUP5 DUP10 ADD MLOAD DUP3 SSTORE PUSH1 0x1 DUP3 ADD SWAP2 POP PUSH1 0x20 DUP6 ADD SWAP5 POP PUSH1 0x20 DUP2 ADD SWAP1 POP PUSH3 0x512 JUMP JUMPDEST DUP7 DUP4 LT ISZERO PUSH3 0x559 JUMPI DUP5 DUP10 ADD MLOAD PUSH3 0x555 PUSH1 0x1F DUP10 AND DUP3 PUSH3 0x449 JUMP JUMPDEST DUP4 SSTORE POP JUMPDEST PUSH1 0x1 PUSH1 0x2 DUP9 MUL ADD DUP9 SSTORE POP POP POP JUMPDEST POP POP POP POP POP POP JUMP JUMPDEST PUSH2 0x5A5 DUP1 PUSH3 0x57E PUSH1 0x0 CODECOPY PUSH1 0x0 RETURN INVALID PUSH1 0x80 PUSH1 0x40 MSTORE CALLVALUE DUP1 ISZERO PUSH2 0x10 JUMPI PUSH1 0x0 DUP1 REVERT JUMPDEST POP PUSH1 0x4 CALLDATASIZE LT PUSH2 0x36 JUMPI PUSH1 0x0 CALLDATALOAD PUSH1 0xE0 SHR DUP1 PUSH4 0xCB39153 EQ PUSH2 0x3B JUMPI DUP1 PUSH4 0x7B0B53F0 EQ PUSH2 0x6B JUMPI JUMPDEST PUSH1 0x0 DUP1 REVERT JUMPDEST PUSH2 0x55 PUSH1 0x4 DUP1 CALLDATASIZE SUB DUP2 ADD SWAP1 PUSH2 0x50 SWAP2 SWAP1 PUSH2 0x2A9 JUMP JUMPDEST PUSH2 0x9B JUMP JUMPDEST PUSH1 0x40 MLOAD PUSH2 0x62 SWAP2 SWAP1 PUSH2 0x30D JUMP JUMPDEST PUSH1 0x40 MLOAD DUP1 SWAP2 SUB SWAP1 RETURN JUMPDEST PUSH2 0x85 PUSH1 0x4 DUP1 CALLDATASIZE SUB DUP2 ADD SWAP1 PUSH2 0x80 SWAP2 SWAP1 PUSH2 0x2A9 JUMP JUMPDEST PUSH2 0xA2 JUMP JUMPDEST PUSH1 0x40 MLOAD PUSH2 0x92 SWAP2 SWAP1 PUSH2 0x30D JUMP JUMPDEST PUSH1 0x40 MLOAD DUP1 SWAP2 SUB SWAP1 RETURN JUMPDEST PUSH1 0x0 SWAP2 SWAP1 POP JUMP JUMPDEST PUSH1 0x0 DUP1 PUSH1 0x0 SWAP1 POP JUMPDEST PUSH1 0x0 DUP1 SLOAD SWAP1 POP DUP2 LT ISZERO PUSH2 0x144 JUMPI DUP3 PUSH1 0x40 MLOAD PUSH1 0x20 ADD PUSH2 0xC8 SWAP2 SWAP1 PUSH2 0x399 JUMP JUMPDEST PUSH1 0x40 MLOAD PUSH1 0x20 DUP2 DUP4 SUB SUB DUP2 MSTORE SWAP1 PUSH1 0x40 MSTORE DUP1 MLOAD SWAP1 PUSH1 0x20 ADD KECCAK256 PUSH1 0x0 DUP3 DUP2 SLOAD DUP2 LT PUSH2 0xF2 JUMPI PUSH2 0xF1 PUSH2 0x3B0 JUMP JUMPDEST JUMPDEST SWAP1 PUSH1 0x0 MSTORE PUSH1 0x20 PUSH1 0x0 KECCAK256 ADD PUSH1 0x40 MLOAD PUSH1 0x20 ADD PUSH2 0x10C SWAP2 SWAP1 PUSH2 0x4D7 JUMP JUMPDEST PUSH1 0x40 MLOAD PUSH1 0x20 DUP2 DUP4 SUB SUB DUP2 MSTORE SWAP1 PUSH1 0x40 MSTORE DUP1 MLOAD SWAP1 PUSH1 0x20 ADD KECCAK256 SUB PUSH2 0x131 JUMPI PUSH1 0x1 SWAP2 POP POP PUSH2 0x14A JUMP JUMPDEST DUP1 DUP1 PUSH2 0x13C SWAP1 PUSH2 0x527 JUMP JUMPDEST SWAP2 POP POP PUSH2 0xAA JUMP JUMPDEST POP PUSH1 0x0 SWAP1 POP JUMPDEST SWAP2 SWAP1 POP JUMP JUMPDEST PUSH1 0x0 PUSH1 0x40 MLOAD SWAP1 POP SWAP1 JUMP JUMPDEST PUSH1 0x0 DUP1 REVERT JUMPDEST PUSH1 0x0 DUP1 REVERT JUMPDEST PUSH1 0x0 DUP1 REVERT JUMPDEST PUSH1 0x0 DUP1 REVERT JUMPDEST PUSH1 0x0 PUSH1 0x1F NOT PUSH1 0x1F DUP4 ADD AND SWAP1 POP SWAP2 SWAP1 POP JUMP JUMPDEST PUSH32 0x4E487B7100000000000000000000000000000000000000000000000000000000 PUSH1 0x0 MSTORE PUSH1 0x41 PUSH1 0x4 MSTORE PUSH1 0x24 PUSH1 0x0 REVERT JUMPDEST PUSH2 0x1B6 DUP3 PUSH2 0x16D JUMP JUMPDEST DUP2 ADD DUP2 DUP2 LT PUSH8 0xFFFFFFFFFFFFFFFF DUP3 GT OR ISZERO PUSH2 0x1D5 JUMPI PUSH2 0x1D4 PUSH2 0x17E JUMP JUMPDEST JUMPDEST DUP1 PUSH1 0x40 MSTORE POP POP POP JUMP JUMPDEST PUSH1 0x0 PUSH2 0x1E8 PUSH2 0x14F JUMP JUMPDEST SWAP1 POP PUSH2 0x1F4 DUP3 DUP3 PUSH2 0x1AD JUMP JUMPDEST SWAP2 SWAP1 POP JUMP JUMPDEST PUSH1 0x0 PUSH8 0xFFFFFFFFFFFFFFFF DUP3 GT ISZERO PUSH2 0x214 JUMPI PUSH2 0x213 PUSH2 0x17E JUMP JUMPDEST JUMPDEST PUSH2 0x21D DUP3 PUSH2 0x16D JUMP JUMPDEST SWAP1 POP PUSH1 0x20 DUP2 ADD SWAP1 POP SWAP2 SWAP1 POP JUMP JUMPDEST DUP3 DUP2 DUP4 CALLDATACOPY PUSH1 0x0 DUP4 DUP4 ADD MSTORE POP POP POP JUMP JUMPDEST PUSH1 0x0 PUSH2 0x24C PUSH2 0x247 DUP5 PUSH2 0x1F9 JUMP JUMPDEST PUSH2 0x1DE JUMP JUMPDEST SWAP1 POP DUP3 DUP2 MSTORE PUSH1 0x20 DUP2 ADD DUP5 DUP5 DUP5 ADD GT ISZERO PUSH2 0x268 JUMPI PUSH2 0x267 PUSH2 0x168 JUMP JUMPDEST JUMPDEST PUSH2 0x273 DUP5 DUP3 DUP6 PUSH2 0x22A JUMP JUMPDEST POP SWAP4 SWAP3 POP POP POP JUMP JUMPDEST PUSH1 0x0 DUP3 PUSH1 0x1F DUP4 ADD SLT PUSH2 0x290 JUMPI PUSH2 0x28F PUSH2 0x163 JUMP JUMPDEST JUMPDEST DUP2 CALLDATALOAD PUSH2 0x2A0 DUP5 DUP3 PUSH1 0x20 DUP7 ADD PUSH2 0x239 JUMP JUMPDEST SWAP2 POP POP SWAP3 SWAP2 POP POP JUMP JUMPDEST PUSH1 0x0 PUSH1 0x20 DUP3 DUP5 SUB SLT ISZERO PUSH2 0x2BF JUMPI PUSH2 0x2BE PUSH2 0x159 JUMP JUMPDEST JUMPDEST PUSH1 0x0 DUP3 ADD CALLDATALOAD PUSH8 0xFFFFFFFFFFFFFFFF DUP2 GT ISZERO PUSH2 0x2DD JUMPI PUSH2 0x2DC PUSH2 0x15E JUMP JUMPDEST JUMPDEST PUSH2 0x2E9 DUP5 DUP3 DUP6 ADD PUSH2 0x27B JUMP JUMPDEST SWAP2 POP POP SWAP3 SWAP2 POP POP JUMP JUMPDEST PUSH1 0x0 DUP2 ISZERO ISZERO SWAP1 POP SWAP2 SWAP1 POP JUMP JUMPDEST PUSH2 0x307 DUP2 PUSH2 0x2F2 JUMP JUMPDEST DUP3 MSTORE POP POP JUMP JUMPDEST PUSH1 0x0 PUSH1 0x20 DUP3 ADD SWAP1 POP PUSH2 0x322 PUSH1 0x0 DUP4 ADD DUP5 PUSH2 0x2FE JUMP JUMPDEST SWAP3 SWAP2 POP POP JUMP JUMPDEST PUSH1 0x0 DUP2 MLOAD SWAP1 POP SWAP2 SWAP1 POP JUMP JUMPDEST PUSH1 0x0 DUP2 SWAP1 POP SWAP3 SWAP2 POP POP JUMP JUMPDEST PUSH1 0x0 JUMPDEST DUP4 DUP2 LT ISZERO PUSH2 0x35C JUMPI DUP1 DUP3 ADD MLOAD DUP2 DUP5 ADD MSTORE PUSH1 0x20 DUP2 ADD SWAP1 POP PUSH2 0x341 JUMP JUMPDEST PUSH1 0x0 DUP5 DUP5 ADD MSTORE POP POP POP POP JUMP JUMPDEST PUSH1 0x0 PUSH2 0x373 DUP3 PUSH2 0x328 JUMP JUMPDEST PUSH2 0x37D DUP2 DUP6 PUSH2 0x333 JUMP JUMPDEST SWAP4 POP PUSH2 0x38D DUP2 DUP6 PUSH1 0x20 DUP7 ADD PUSH2 0x33E JUMP JUMPDEST DUP1 DUP5 ADD SWAP2 POP POP SWAP3 SWAP2 POP POP JUMP JUMPDEST PUSH1 0x0 PUSH2 0x3A5 DUP3 DUP5 PUSH2 0x368 JUMP JUMPDEST SWAP2 POP DUP2 SWAP1 POP SWAP3 SWAP2 POP POP JUMP JUMPDEST PUSH32 0x4E487B7100000000000000000000000000000000000000000000000000000000 PUSH1 0x0 MSTORE PUSH1 0x32 PUSH1 0x4 MSTORE PUSH1 0x24 PUSH1 0x0 REVERT JUMPDEST PUSH32 0x4E487B7100000000000000000000000000000000000000000000000000000000 PUSH1 0x0 MSTORE PUSH1 0x22 PUSH1 0x4 MSTORE PUSH1 0x24 PUSH1 0x0 REVERT JUMPDEST PUSH1 0x0 PUSH1 0x2 DUP3 DIV SWAP1 POP PUSH1 0x1 DUP3 AND DUP1 PUSH2 0x426 JUMPI PUSH1 0x7F DUP3 AND SWAP2 POP JUMPDEST PUSH1 0x20 DUP3 LT DUP2 SUB PUSH2 0x439 JUMPI PUSH2 0x438 PUSH2 0x3DF JUMP JUMPDEST JUMPDEST POP SWAP2 SWAP1 POP JUMP JUMPDEST PUSH1 0x0 DUP2 SWAP1 POP DUP2 PUSH1 0x0 MSTORE PUSH1 0x20 PUSH1 0x0 KECCAK256 SWAP1 POP SWAP2 SWAP1 POP JUMP JUMPDEST PUSH1 0x0 DUP2 SLOAD PUSH2 0x461 DUP2 PUSH2 0x40E JUMP JUMPDEST PUSH2 0x46B DUP2 DUP7 PUSH2 0x333 JUMP JUMPDEST SWAP5 POP PUSH1 0x1 DUP3 AND PUSH1 0x0 DUP2 EQ PUSH2 0x486 JUMPI PUSH1 0x1 DUP2 EQ PUSH2 0x49B JUMPI PUSH2 0x4CE JUMP JUMPDEST PUSH1 0xFF NOT DUP4 AND DUP7 MSTORE DUP2 ISZERO ISZERO DUP3 MUL DUP7 ADD SWAP4 POP PUSH2 0x4CE JUMP JUMPDEST PUSH2 0x4A4 DUP6 PUSH2 0x43F JUMP JUMPDEST PUSH1 0x0 JUMPDEST DUP4 DUP2 LT ISZERO PUSH2 0x4C6 JUMPI DUP2 SLOAD DUP2 DUP10 ADD MSTORE PUSH1 0x1 DUP3 ADD SWAP2 POP PUSH1 0x20 DUP2 ADD SWAP1 POP PUSH2 0x4A7 JUMP JUMPDEST DUP4 DUP9 ADD SWAP6 POP POP POP JUMPDEST POP POP POP SWAP3 SWAP2 POP POP JUMP JUMPDEST PUSH1 0x0 PUSH2 0x4E3 DUP3 DUP5 PUSH2 0x454 JUMP JUMPDEST SWAP2 POP DUP2 SWAP1 POP SWAP3 SWAP2 POP POP JUMP JUMPDEST PUSH32 0x4E487B7100000000000000000000000000000000000000000000000000000000 PUSH1 0x0 MSTORE PUSH1 0x11 PUSH1 0x4 MSTORE PUSH1 0x24 PUSH1 0x0 REVERT JUMPDEST PUSH1 0x0 DUP2 SWAP1 POP SWAP2 SWAP1 POP JUMP JUMPDEST PUSH1 0x0 PUSH2 0x532 DUP3 PUSH2 0x51D JUMP JUMPDEST SWAP2 POP PUSH32 0xFFFFFFFFFFFFFFFFFFFFFFFFFFFFFFFFFFFFFFFFFFFFFFFFFFFFFFFFFFFFFFFF DUP3 SUB PUSH2 0x564 JUMPI PUSH2 0x563 PUSH2 0x4EE JUMP JUMPDEST JUMPDEST PUSH1 0x1 DUP3 ADD SWAP1 POP SWAP2 SWAP1 POP JUMP INVALID LOG2 PUSH5 0x6970667358 0x22 SLT KECCAK256 SAR 0x4A SWAP4 EXP 0xB2 EQ PUSH28 0xACD8D3BA3111E1A0A4C900083F3A2281912DF0F0C27C09498164736F PUSH13 0x63430008110033000000000000 "
				},
				"gasEstimates": {
					"creation": {
						"codeDepositCost": "289000",
						"executionCost": "infinite",
						"totalCost": "infinite"
					},
					"external": {
						"checkNationality(string)": "infinite",
						"checkPoliticalStatus(string)": "infinite"
					}
				},
				"methodIdentifiers": {
					"checkNationality(string)": "7b0b53f0",
					"checkPoliticalStatus(string)": "0cb39153"
				}
			},
			"storageLayout": {
				"storage": [
					{
						"astId": 9,
						"contract": "contracts/AML.sol:AML",
						"label": "bannedCountries",
						"offset": 0,
						"slot": "0",
						"type": "t_array(t_string_storage)dyn_storage"
					}
				],
				"types": {
					"t_array(t_string_storage)dyn_storage": {
						"base": "t_string_storage",
						"encoding": "dynamic_array",
						"label": "string[]",
						"numberOfBytes": "32"
					},
					"t_string_storage": {
						"encoding": "bytes",
						"label": "string",
						"numberOfBytes": "32"
					}
				}
			},
			"userdoc": {
				"kind": "user",
				"methods": {},
				"version": 1
			}
		}
	}
}