{
	"contracts/TransactionProcessing.sol": {
		"TransactionProcessing": {
			"abi": [
				{
					"inputs": [
						{
							"internalType": "address payable",
							"name": "_receiver",
							"type": "address"
						},
						{
							"internalType": "address",
							"name": "kycAddress",
							"type": "address"
						}
					],
					"stateMutability": "payable",
					"type": "constructor"
				},
				{
					"anonymous": false,
					"inputs": [
						{
							"indexed": false,
							"internalType": "string",
							"name": "firstName",
							"type": "string"
						},
						{
							"indexed": false,
							"internalType": "uint256",
							"name": "timestamp",
							"type": "uint256"
						}
					],
					"name": "CreateLog",
					"type": "event"
				},
				{
					"inputs": [],
					"name": "getBalance",
					"outputs": [
						{
							"internalType": "uint256",
							"name": "",
							"type": "uint256"
						}
					],
					"stateMutability": "view",
					"type": "function"
				},
				{
					"inputs": [],
					"name": "kyc",
					"outputs": [
						{
							"internalType": "contract KYC",
							"name": "",
							"type": "address"
						}
					],
					"stateMutability": "view",
					"type": "function"
				},
				{
					"inputs": [],
					"name": "kycAddress",
					"outputs": [
						{
							"internalType": "address",
							"name": "",
							"type": "address"
						}
					],
					"stateMutability": "view",
					"type": "function"
				},
				{
					"inputs": [],
					"name": "processing",
					"outputs": [],
					"stateMutability": "nonpayable",
					"type": "function"
				},
				{
					"inputs": [],
					"name": "receiver",
					"outputs": [
						{
							"internalType": "address payable",
							"name": "",
							"type": "address"
						}
					],
					"stateMutability": "view",
					"type": "function"
				},
				{
					"inputs": [],
					"name": "sendViaCall",
					"outputs": [],
					"stateMutability": "payable",
					"type": "function"
				},
				{
					"inputs": [],
					"name": "sender",
					"outputs": [
						{
							"internalType": "address payable",
							"name": "",
							"type": "address"
						}
					],
					"stateMutability": "view",
					"type": "function"
				}
			],
			"devdoc": {
				"kind": "dev",
				"methods": {},
				"version": 1
			},
			"evm": {
				"assembly": "    /* \"contracts/TransactionProcessing.sol\":81:1255  contract TransactionProcessing{... */\n  mstore(0x40, 0x80)\n    /* \"contracts/TransactionProcessing.sol\":308:590  constructor(address payable _receiver, address kycAddress) payable {... */\n  mload(0x40)\n  sub(codesize, bytecodeSize)\n  dup1\n  bytecodeSize\n  dup4\n  codecopy\n  dup2\n  dup2\n  add\n  0x40\n  mstore\n  dup2\n  add\n  swap1\n  tag_1\n  swap2\n  swap1\n  tag_2\n  jump\t// in\ntag_1:\n    /* \"contracts/TransactionProcessing.sol\":415:416  0 */\n  0x00\n    /* \"contracts/TransactionProcessing.sol\":394:417  _receiver != address(0) */\n  0xffffffffffffffffffffffffffffffffffffffff\n  and\n    /* \"contracts/TransactionProcessing.sol\":394:403  _receiver */\n  dup3\n    /* \"contracts/TransactionProcessing.sol\":394:417  _receiver != address(0) */\n  0xffffffffffffffffffffffffffffffffffffffff\n  and\n  sub\n    /* \"contracts/TransactionProcessing.sol\":386:445  require(_receiver != address(0), \"receiver = zero address\") */\n  tag_5\n  jumpi\n  mload(0x40)\n  0x08c379a000000000000000000000000000000000000000000000000000000000\n  dup2\n  mstore\n  0x04\n  add\n  tag_6\n  swap1\n  tag_7\n  jump\t// in\ntag_6:\n  mload(0x40)\n  dup1\n  swap2\n  sub\n  swap1\n  revert\ntag_5:\n    /* \"contracts/TransactionProcessing.sol\":473:483  msg.sender */\n  caller\n    /* \"contracts/TransactionProcessing.sol\":456:462  sender */\n  0x00\n  dup1\n    /* \"contracts/TransactionProcessing.sol\":456:484  sender = payable(msg.sender) */\n  0x0100\n  exp\n  dup2\n  sload\n  dup2\n  0xffffffffffffffffffffffffffffffffffffffff\n  mul\n  not\n  and\n  swap1\n  dup4\n  0xffffffffffffffffffffffffffffffffffffffff\n  and\n  mul\n  or\n  swap1\n  sstore\n  pop\n    /* \"contracts/TransactionProcessing.sol\":506:515  _receiver */\n  dup2\n    /* \"contracts/TransactionProcessing.sol\":495:503  receiver */\n  0x01\n  0x00\n    /* \"contracts/TransactionProcessing.sol\":495:515  receiver = _receiver */\n  0x0100\n  exp\n  dup2\n  sload\n  dup2\n  0xffffffffffffffffffffffffffffffffffffffff\n  mul\n  not\n  and\n  swap1\n  dup4\n  0xffffffffffffffffffffffffffffffffffffffff\n  and\n  mul\n  or\n  swap1\n  sstore\n  pop\n    /* \"contracts/TransactionProcessing.sol\":570:580  kycAddress */\n  dup1\n    /* \"contracts/TransactionProcessing.sol\":560:563  kyc */\n  0x03\n  0x00\n    /* \"contracts/TransactionProcessing.sol\":560:581  kyc = KYC(kycAddress) */\n  0x0100\n  exp\n  dup2\n  sload\n  dup2\n  0xffffffffffffffffffffffffffffffffffffffff\n  mul\n  not\n  and\n  swap1\n  dup4\n  0xffffffffffffffffffffffffffffffffffffffff\n  and\n  mul\n  or\n  swap1\n  sstore\n  pop\n    /* \"contracts/TransactionProcessing.sol\":308:590  constructor(address payable _receiver, address kycAddress) payable {... */\n  pop\n  pop\n    /* \"contracts/TransactionProcessing.sol\":81:1255  contract TransactionProcessing{... */\n  jump(tag_8)\n    /* \"#utility.yul\":88:205   */\ntag_10:\n    /* \"#utility.yul\":197:198   */\n  0x00\n    /* \"#utility.yul\":194:195   */\n  dup1\n    /* \"#utility.yul\":187:199   */\n  revert\n    /* \"#utility.yul\":334:460   */\ntag_12:\n    /* \"#utility.yul\":371:378   */\n  0x00\n    /* \"#utility.yul\":411:453   */\n  0xffffffffffffffffffffffffffffffffffffffff\n    /* \"#utility.yul\":404:409   */\n  dup3\n    /* \"#utility.yul\":400:454   */\n  and\n    /* \"#utility.yul\":389:454   */\n  swap1\n  pop\n    /* \"#utility.yul\":334:460   */\n  swap2\n  swap1\n  pop\n  jump\t// out\n    /* \"#utility.yul\":466:570   */\ntag_13:\n    /* \"#utility.yul\":511:518   */\n  0x00\n    /* \"#utility.yul\":540:564   */\n  tag_28\n    /* \"#utility.yul\":558:563   */\n  dup3\n    /* \"#utility.yul\":540:564   */\n  tag_12\n  jump\t// in\ntag_28:\n    /* \"#utility.yul\":529:564   */\n  swap1\n  pop\n    /* \"#utility.yul\":466:570   */\n  swap2\n  swap1\n  pop\n  jump\t// out\n    /* \"#utility.yul\":576:714   */\ntag_14:\n    /* \"#utility.yul\":657:689   */\n  tag_30\n    /* \"#utility.yul\":683:688   */\n  dup2\n    /* \"#utility.yul\":657:689   */\n  tag_13\n  jump\t// in\ntag_30:\n    /* \"#utility.yul\":650:655   */\n  dup2\n    /* \"#utility.yul\":647:690   */\n  eq\n    /* \"#utility.yul\":637:708   */\n  tag_31\n  jumpi\n    /* \"#utility.yul\":704:705   */\n  0x00\n    /* \"#utility.yul\":701:702   */\n  dup1\n    /* \"#utility.yul\":694:706   */\n  revert\n    /* \"#utility.yul\":637:708   */\ntag_31:\n    /* \"#utility.yul\":576:714   */\n  pop\n  jump\t// out\n    /* \"#utility.yul\":720:879   */\ntag_15:\n    /* \"#utility.yul\":785:790   */\n  0x00\n    /* \"#utility.yul\":816:822   */\n  dup2\n    /* \"#utility.yul\":810:823   */\n  mload\n    /* \"#utility.yul\":801:823   */\n  swap1\n  pop\n    /* \"#utility.yul\":832:873   */\n  tag_33\n    /* \"#utility.yul\":867:872   */\n  dup2\n    /* \"#utility.yul\":832:873   */\n  tag_14\n  jump\t// in\ntag_33:\n    /* \"#utility.yul\":720:879   */\n  swap3\n  swap2\n  pop\n  pop\n  jump\t// out\n    /* \"#utility.yul\":885:981   */\ntag_16:\n    /* \"#utility.yul\":922:929   */\n  0x00\n    /* \"#utility.yul\":951:975   */\n  tag_35\n    /* \"#utility.yul\":969:974   */\n  dup3\n    /* \"#utility.yul\":951:975   */\n  tag_12\n  jump\t// in\ntag_35:\n    /* \"#utility.yul\":940:975   */\n  swap1\n  pop\n    /* \"#utility.yul\":885:981   */\n  swap2\n  swap1\n  pop\n  jump\t// out\n    /* \"#utility.yul\":987:1109   */\ntag_17:\n    /* \"#utility.yul\":1060:1084   */\n  tag_37\n    /* \"#utility.yul\":1078:1083   */\n  dup2\n    /* \"#utility.yul\":1060:1084   */\n  tag_16\n  jump\t// in\ntag_37:\n    /* \"#utility.yul\":1053:1058   */\n  dup2\n    /* \"#utility.yul\":1050:1085   */\n  eq\n    /* \"#utility.yul\":1040:1103   */\n  tag_38\n  jumpi\n    /* \"#utility.yul\":1099:1100   */\n  0x00\n    /* \"#utility.yul\":1096:1097   */\n  dup1\n    /* \"#utility.yul\":1089:1101   */\n  revert\n    /* \"#utility.yul\":1040:1103   */\ntag_38:\n    /* \"#utility.yul\":987:1109   */\n  pop\n  jump\t// out\n    /* \"#utility.yul\":1115:1258   */\ntag_18:\n    /* \"#utility.yul\":1172:1177   */\n  0x00\n    /* \"#utility.yul\":1203:1209   */\n  dup2\n    /* \"#utility.yul\":1197:1210   */\n  mload\n    /* \"#utility.yul\":1188:1210   */\n  swap1\n  pop\n    /* \"#utility.yul\":1219:1252   */\n  tag_40\n    /* \"#utility.yul\":1246:1251   */\n  dup2\n    /* \"#utility.yul\":1219:1252   */\n  tag_17\n  jump\t// in\ntag_40:\n    /* \"#utility.yul\":1115:1258   */\n  swap3\n  swap2\n  pop\n  pop\n  jump\t// out\n    /* \"#utility.yul\":1264:1787   */\ntag_2:\n    /* \"#utility.yul\":1351:1357   */\n  0x00\n    /* \"#utility.yul\":1359:1365   */\n  dup1\n    /* \"#utility.yul\":1408:1410   */\n  0x40\n    /* \"#utility.yul\":1396:1405   */\n  dup4\n    /* \"#utility.yul\":1387:1394   */\n  dup6\n    /* \"#utility.yul\":1383:1406   */\n  sub\n    /* \"#utility.yul\":1379:1411   */\n  slt\n    /* \"#utility.yul\":1376:1495   */\n  iszero\n  tag_42\n  jumpi\n    /* \"#utility.yul\":1414:1493   */\n  tag_43\n  tag_10\n  jump\t// in\ntag_43:\n    /* \"#utility.yul\":1376:1495   */\ntag_42:\n    /* \"#utility.yul\":1534:1535   */\n  0x00\n    /* \"#utility.yul\":1559:1631   */\n  tag_44\n    /* \"#utility.yul\":1623:1630   */\n  dup6\n    /* \"#utility.yul\":1614:1620   */\n  dup3\n    /* \"#utility.yul\":1603:1612   */\n  dup7\n    /* \"#utility.yul\":1599:1621   */\n  add\n    /* \"#utility.yul\":1559:1631   */\n  tag_15\n  jump\t// in\ntag_44:\n    /* \"#utility.yul\":1549:1631   */\n  swap3\n  pop\n    /* \"#utility.yul\":1505:1641   */\n  pop\n    /* \"#utility.yul\":1680:1682   */\n  0x20\n    /* \"#utility.yul\":1706:1770   */\n  tag_45\n    /* \"#utility.yul\":1762:1769   */\n  dup6\n    /* \"#utility.yul\":1753:1759   */\n  dup3\n    /* \"#utility.yul\":1742:1751   */\n  dup7\n    /* \"#utility.yul\":1738:1760   */\n  add\n    /* \"#utility.yul\":1706:1770   */\n  tag_18\n  jump\t// in\ntag_45:\n    /* \"#utility.yul\":1696:1770   */\n  swap2\n  pop\n    /* \"#utility.yul\":1651:1780   */\n  pop\n    /* \"#utility.yul\":1264:1787   */\n  swap3\n  pop\n  swap3\n  swap1\n  pop\n  jump\t// out\n    /* \"#utility.yul\":1793:1962   */\ntag_19:\n    /* \"#utility.yul\":1877:1888   */\n  0x00\n    /* \"#utility.yul\":1911:1917   */\n  dup3\n    /* \"#utility.yul\":1906:1909   */\n  dup3\n    /* \"#utility.yul\":1899:1918   */\n  mstore\n    /* \"#utility.yul\":1951:1955   */\n  0x20\n    /* \"#utility.yul\":1946:1949   */\n  dup3\n    /* \"#utility.yul\":1942:1956   */\n  add\n    /* \"#utility.yul\":1927:1956   */\n  swap1\n  pop\n    /* \"#utility.yul\":1793:1962   */\n  swap3\n  swap2\n  pop\n  pop\n  jump\t// out\n    /* \"#utility.yul\":1968:2141   */\ntag_20:\n    /* \"#utility.yul\":2108:2133   */\n  0x7265636569766572203d207a65726f2061646472657373000000000000000000\n    /* \"#utility.yul\":2104:2105   */\n  0x00\n    /* \"#utility.yul\":2096:2102   */\n  dup3\n    /* \"#utility.yul\":2092:2106   */\n  add\n    /* \"#utility.yul\":2085:2134   */\n  mstore\n    /* \"#utility.yul\":1968:2141   */\n  pop\n  jump\t// out\n    /* \"#utility.yul\":2147:2513   */\ntag_21:\n    /* \"#utility.yul\":2289:2292   */\n  0x00\n    /* \"#utility.yul\":2310:2377   */\n  tag_49\n    /* \"#utility.yul\":2374:2376   */\n  0x17\n    /* \"#utility.yul\":2369:2372   */\n  dup4\n    /* \"#utility.yul\":2310:2377   */\n  tag_19\n  jump\t// in\ntag_49:\n    /* \"#utility.yul\":2303:2377   */\n  swap2\n  pop\n    /* \"#utility.yul\":2386:2479   */\n  tag_50\n    /* \"#utility.yul\":2475:2478   */\n  dup3\n    /* \"#utility.yul\":2386:2479   */\n  tag_20\n  jump\t// in\ntag_50:\n    /* \"#utility.yul\":2504:2506   */\n  0x20\n    /* \"#utility.yul\":2499:2502   */\n  dup3\n    /* \"#utility.yul\":2495:2507   */\n  add\n    /* \"#utility.yul\":2488:2507   */\n  swap1\n  pop\n    /* \"#utility.yul\":2147:2513   */\n  swap2\n  swap1\n  pop\n  jump\t// out\n    /* \"#utility.yul\":2519:2938   */\ntag_7:\n    /* \"#utility.yul\":2685:2689   */\n  0x00\n    /* \"#utility.yul\":2723:2725   */\n  0x20\n    /* \"#utility.yul\":2712:2721   */\n  dup3\n    /* \"#utility.yul\":2708:2726   */\n  add\n    /* \"#utility.yul\":2700:2726   */\n  swap1\n  pop\n    /* \"#utility.yul\":2772:2781   */\n  dup2\n    /* \"#utility.yul\":2766:2770   */\n  dup2\n    /* \"#utility.yul\":2762:2782   */\n  sub\n    /* \"#utility.yul\":2758:2759   */\n  0x00\n    /* \"#utility.yul\":2747:2756   */\n  dup4\n    /* \"#utility.yul\":2743:2760   */\n  add\n    /* \"#utility.yul\":2736:2783   */\n  mstore\n    /* \"#utility.yul\":2800:2931   */\n  tag_52\n    /* \"#utility.yul\":2926:2930   */\n  dup2\n    /* \"#utility.yul\":2800:2931   */\n  tag_21\n  jump\t// in\ntag_52:\n    /* \"#utility.yul\":2792:2931   */\n  swap1\n  pop\n    /* \"#utility.yul\":2519:2938   */\n  swap2\n  swap1\n  pop\n  jump\t// out\n    /* \"contracts/TransactionProcessing.sol\":81:1255  contract TransactionProcessing{... */\ntag_8:\n  dataSize(sub_0)\n  dup1\n  dataOffset(sub_0)\n  0x00\n  codecopy\n  0x00\n  return\nstop\n\nsub_0: assembly {\n        /* \"contracts/TransactionProcessing.sol\":81:1255  contract TransactionProcessing{... */\n      mstore(0x40, 0x80)\n      jumpi(tag_1, lt(calldatasize, 0x04))\n      shr(0xe0, calldataload(0x00))\n      dup1\n      0x67e404ce\n      gt\n      tag_9\n      jumpi\n      dup1\n      0x67e404ce\n      eq\n      tag_5\n      jumpi\n      dup1\n      0x90d6b45f\n      eq\n      tag_6\n      jumpi\n      dup1\n      0xdbd81fc1\n      eq\n      tag_7\n      jumpi\n      dup1\n      0xf7260d3e\n      eq\n      tag_8\n      jumpi\n      jump(tag_1)\n    tag_9:\n      dup1\n      0x12065fe0\n      eq\n      tag_2\n      jumpi\n      dup1\n      0x3d6cfcd1\n      eq\n      tag_3\n      jumpi\n      dup1\n      0x49b85a16\n      eq\n      tag_4\n      jumpi\n    tag_1:\n      0x00\n      dup1\n      revert\n        /* \"contracts/TransactionProcessing.sol\":1156:1252  function getBalance() public view returns (uint) {... */\n    tag_2:\n      callvalue\n      dup1\n      iszero\n      tag_10\n      jumpi\n      0x00\n      dup1\n      revert\n    tag_10:\n      pop\n      tag_11\n      tag_12\n      jump\t// in\n    tag_11:\n      mload(0x40)\n      tag_13\n      swap2\n      swap1\n      tag_14\n      jump\t// in\n    tag_13:\n      mload(0x40)\n      dup1\n      swap2\n      sub\n      swap1\n      return\n        /* \"contracts/TransactionProcessing.sol\":598:833  function processing() public {... */\n    tag_3:\n      callvalue\n      dup1\n      iszero\n      tag_15\n      jumpi\n      0x00\n      dup1\n      revert\n    tag_15:\n      pop\n      tag_16\n      tag_17\n      jump\t// in\n    tag_16:\n      stop\n        /* \"contracts/TransactionProcessing.sol\":251:276  address public kycAddress */\n    tag_4:\n      callvalue\n      dup1\n      iszero\n      tag_18\n      jumpi\n      0x00\n      dup1\n      revert\n    tag_18:\n      pop\n      tag_19\n      tag_20\n      jump\t// in\n    tag_19:\n      mload(0x40)\n      tag_21\n      swap2\n      swap1\n      tag_22\n      jump\t// in\n    tag_21:\n      mload(0x40)\n      dup1\n      swap2\n      sub\n      swap1\n      return\n        /* \"contracts/TransactionProcessing.sol\":177:206  address payable public sender */\n    tag_5:\n      callvalue\n      dup1\n      iszero\n      tag_23\n      jumpi\n      0x00\n      dup1\n      revert\n    tag_23:\n      pop\n      tag_24\n      tag_25\n      jump\t// in\n    tag_24:\n      mload(0x40)\n      tag_26\n      swap2\n      swap1\n      tag_27\n      jump\t// in\n    tag_26:\n      mload(0x40)\n      dup1\n      swap2\n      sub\n      swap1\n      return\n        /* \"contracts/TransactionProcessing.sol\":284:298  KYC public kyc */\n    tag_6:\n      callvalue\n      dup1\n      iszero\n      tag_28\n      jumpi\n      0x00\n      dup1\n      revert\n    tag_28:\n      pop\n      tag_29\n      tag_30\n      jump\t// in\n    tag_29:\n      mload(0x40)\n      tag_31\n      swap2\n      swap1\n      tag_32\n      jump\t// in\n    tag_31:\n      mload(0x40)\n      dup1\n      swap2\n      sub\n      swap1\n      return\n        /* \"contracts/TransactionProcessing.sol\":841:1148  function sendViaCall() public payable {... */\n    tag_7:\n      tag_33\n      tag_34\n      jump\t// in\n    tag_33:\n      stop\n        /* \"contracts/TransactionProcessing.sol\":213:244  address payable public receiver */\n    tag_8:\n      callvalue\n      dup1\n      iszero\n      tag_35\n      jumpi\n      0x00\n      dup1\n      revert\n    tag_35:\n      pop\n      tag_36\n      tag_37\n      jump\t// in\n    tag_36:\n      mload(0x40)\n      tag_38\n      swap2\n      swap1\n      tag_27\n      jump\t// in\n    tag_38:\n      mload(0x40)\n      dup1\n      swap2\n      sub\n      swap1\n      return\n        /* \"contracts/TransactionProcessing.sol\":1156:1252  function getBalance() public view returns (uint) {... */\n    tag_12:\n        /* \"contracts/TransactionProcessing.sol\":1199:1203  uint */\n      0x00\n        /* \"contracts/TransactionProcessing.sol\":1223:1244  address(this).balance */\n      selfbalance\n        /* \"contracts/TransactionProcessing.sol\":1216:1244  return address(this).balance */\n      swap1\n      pop\n        /* \"contracts/TransactionProcessing.sol\":1156:1252  function getBalance() public view returns (uint) {... */\n      swap1\n      jump\t// out\n        /* \"contracts/TransactionProcessing.sol\":598:833  function processing() public {... */\n    tag_17:\n        /* \"contracts/TransactionProcessing.sol\":679:702  string memory firstName */\n      0x00\n        /* \"contracts/TransactionProcessing.sol\":705:708  kyc */\n      0x03\n      0x00\n      swap1\n      sload\n      swap1\n      0x0100\n      exp\n      swap1\n      div\n      0xffffffffffffffffffffffffffffffffffffffff\n      and\n        /* \"contracts/TransactionProcessing.sol\":705:720  kyc.getUserInfo */\n      0xffffffffffffffffffffffffffffffffffffffff\n      and\n      0x6386c1c7\n        /* \"contracts/TransactionProcessing.sol\":721:727  sender */\n      0x00\n      dup1\n      sload\n      swap1\n      0x0100\n      exp\n      swap1\n      div\n      0xffffffffffffffffffffffffffffffffffffffff\n      and\n        /* \"contracts/TransactionProcessing.sol\":705:728  kyc.getUserInfo(sender) */\n      mload(0x40)\n      dup3\n      0xffffffff\n      and\n      0xe0\n      shl\n      dup2\n      mstore\n      0x04\n      add\n      tag_41\n      swap2\n      swap1\n      tag_27\n      jump\t// in\n    tag_41:\n      0x00\n      mload(0x40)\n      dup1\n      dup4\n      sub\n      dup2\n      dup7\n      gas\n      staticcall\n      iszero\n      dup1\n      iszero\n      tag_43\n      jumpi\n      returndatasize\n      0x00\n      dup1\n      returndatacopy\n      revert(0x00, returndatasize)\n    tag_43:\n      pop\n      pop\n      pop\n      pop\n      mload(0x40)\n      returndatasize\n      0x00\n      dup3\n      returndatacopy\n      returndatasize\n      not(0x1f)\n      0x1f\n      dup3\n      add\n      and\n      dup3\n      add\n      dup1\n      0x40\n      mstore\n      pop\n      dup2\n      add\n      swap1\n      tag_44\n      swap2\n      swap1\n      tag_45\n      jump\t// in\n    tag_44:\n        /* \"contracts/TransactionProcessing.sol\":729:730  0 */\n      0x00\n        /* \"contracts/TransactionProcessing.sol\":705:731  kyc.getUserInfo(sender)[0] */\n      dup2\n      mload\n      dup2\n      lt\n      tag_46\n      jumpi\n      tag_47\n      tag_48\n      jump\t// in\n    tag_47:\n    tag_46:\n      0x20\n      mul\n      0x20\n      add\n      add\n      mload\n        /* \"contracts/TransactionProcessing.sol\":705:741  kyc.getUserInfo(sender)[0].firstName */\n      0x40\n      add\n      mload\n        /* \"contracts/TransactionProcessing.sol\":679:741  string memory firstName = kyc.getUserInfo(sender)[0].firstName */\n      swap1\n      pop\n        /* \"contracts/TransactionProcessing.sol\":757:794  CreateLog(firstName, block.timestamp) */\n      0xc35d6dbbad810bb0fb26d3fd7c07a09c5afd64d647208c93d211dcac94b8349b\n        /* \"contracts/TransactionProcessing.sol\":767:776  firstName */\n      dup2\n        /* \"contracts/TransactionProcessing.sol\":778:793  block.timestamp */\n      timestamp\n        /* \"contracts/TransactionProcessing.sol\":757:794  CreateLog(firstName, block.timestamp) */\n      mload(0x40)\n      tag_49\n      swap3\n      swap2\n      swap1\n      tag_50\n      jump\t// in\n    tag_49:\n      mload(0x40)\n      dup1\n      swap2\n      sub\n      swap1\n      log1\n        /* \"contracts/TransactionProcessing.sol\":627:833  {... */\n      pop\n        /* \"contracts/TransactionProcessing.sol\":598:833  function processing() public {... */\n      jump\t// out\n        /* \"contracts/TransactionProcessing.sol\":251:276  address public kycAddress */\n    tag_20:\n      0x02\n      0x00\n      swap1\n      sload\n      swap1\n      0x0100\n      exp\n      swap1\n      div\n      0xffffffffffffffffffffffffffffffffffffffff\n      and\n      dup2\n      jump\t// out\n        /* \"contracts/TransactionProcessing.sol\":177:206  address payable public sender */\n    tag_25:\n      0x00\n      dup1\n      sload\n      swap1\n      0x0100\n      exp\n      swap1\n      div\n      0xffffffffffffffffffffffffffffffffffffffff\n      and\n      dup2\n      jump\t// out\n        /* \"contracts/TransactionProcessing.sol\":284:298  KYC public kyc */\n    tag_30:\n      0x03\n      0x00\n      swap1\n      sload\n      swap1\n      0x0100\n      exp\n      swap1\n      div\n      0xffffffffffffffffffffffffffffffffffffffff\n      and\n      dup2\n      jump\t// out\n        /* \"contracts/TransactionProcessing.sol\":841:1148  function sendViaCall() public payable {... */\n    tag_34:\n        /* \"contracts/TransactionProcessing.sol\":1022:1031  bool sent */\n      0x00\n        /* \"contracts/TransactionProcessing.sol\":1033:1050  bytes memory data */\n      dup1\n        /* \"contracts/TransactionProcessing.sol\":1054:1062  receiver */\n      0x01\n      0x00\n      swap1\n      sload\n      swap1\n      0x0100\n      exp\n      swap1\n      div\n      0xffffffffffffffffffffffffffffffffffffffff\n      and\n        /* \"contracts/TransactionProcessing.sol\":1054:1067  receiver.call */\n      0xffffffffffffffffffffffffffffffffffffffff\n      and\n        /* \"contracts/TransactionProcessing.sol\":1075:1087  getBalance() */\n      tag_52\n        /* \"contracts/TransactionProcessing.sol\":1075:1085  getBalance */\n      tag_12\n        /* \"contracts/TransactionProcessing.sol\":1075:1087  getBalance() */\n      jump\t// in\n    tag_52:\n        /* \"contracts/TransactionProcessing.sol\":1054:1092  receiver.call{value: getBalance()}(\"\") */\n      mload(0x40)\n      tag_53\n      swap1\n      tag_54\n      jump\t// in\n    tag_53:\n      0x00\n      mload(0x40)\n      dup1\n      dup4\n      sub\n      dup2\n      dup6\n      dup8\n      gas\n      call\n      swap3\n      pop\n      pop\n      pop\n      returndatasize\n      dup1\n      0x00\n      dup2\n      eq\n      tag_57\n      jumpi\n      mload(0x40)\n      swap2\n      pop\n      and(add(returndatasize, 0x3f), not(0x1f))\n      dup3\n      add\n      0x40\n      mstore\n      returndatasize\n      dup3\n      mstore\n      returndatasize\n      0x00\n      0x20\n      dup5\n      add\n      returndatacopy\n      jump(tag_56)\n    tag_57:\n      0x60\n      swap2\n      pop\n    tag_56:\n      pop\n        /* \"contracts/TransactionProcessing.sol\":1021:1092  (bool sent, bytes memory data) = receiver.call{value: getBalance()}(\"\") */\n      swap2\n      pop\n      swap2\n      pop\n        /* \"contracts/TransactionProcessing.sol\":1111:1115  sent */\n      dup2\n        /* \"contracts/TransactionProcessing.sol\":1103:1140  require(sent, \"Failed to send Ether\") */\n      tag_58\n      jumpi\n      mload(0x40)\n      0x08c379a000000000000000000000000000000000000000000000000000000000\n      dup2\n      mstore\n      0x04\n      add\n      tag_59\n      swap1\n      tag_60\n      jump\t// in\n    tag_59:\n      mload(0x40)\n      dup1\n      swap2\n      sub\n      swap1\n      revert\n    tag_58:\n        /* \"contracts/TransactionProcessing.sol\":879:1148  {... */\n      pop\n      pop\n        /* \"contracts/TransactionProcessing.sol\":841:1148  function sendViaCall() public payable {... */\n      jump\t// out\n        /* \"contracts/TransactionProcessing.sol\":213:244  address payable public receiver */\n    tag_37:\n      0x01\n      0x00\n      swap1\n      sload\n      swap1\n      0x0100\n      exp\n      swap1\n      div\n      0xffffffffffffffffffffffffffffffffffffffff\n      and\n      dup2\n      jump\t// out\n        /* \"#utility.yul\":7:84   */\n    tag_61:\n        /* \"#utility.yul\":44:51   */\n      0x00\n        /* \"#utility.yul\":73:78   */\n      dup2\n        /* \"#utility.yul\":62:78   */\n      swap1\n      pop\n        /* \"#utility.yul\":7:84   */\n      swap2\n      swap1\n      pop\n      jump\t// out\n        /* \"#utility.yul\":90:208   */\n    tag_62:\n        /* \"#utility.yul\":177:201   */\n      tag_106\n        /* \"#utility.yul\":195:200   */\n      dup2\n        /* \"#utility.yul\":177:201   */\n      tag_61\n      jump\t// in\n    tag_106:\n        /* \"#utility.yul\":172:175   */\n      dup3\n        /* \"#utility.yul\":165:202   */\n      mstore\n        /* \"#utility.yul\":90:208   */\n      pop\n      pop\n      jump\t// out\n        /* \"#utility.yul\":214:436   */\n    tag_14:\n        /* \"#utility.yul\":307:311   */\n      0x00\n        /* \"#utility.yul\":345:347   */\n      0x20\n        /* \"#utility.yul\":334:343   */\n      dup3\n        /* \"#utility.yul\":330:348   */\n      add\n        /* \"#utility.yul\":322:348   */\n      swap1\n      pop\n        /* \"#utility.yul\":358:429   */\n      tag_108\n        /* \"#utility.yul\":426:427   */\n      0x00\n        /* \"#utility.yul\":415:424   */\n      dup4\n        /* \"#utility.yul\":411:428   */\n      add\n        /* \"#utility.yul\":402:408   */\n      dup5\n        /* \"#utility.yul\":358:429   */\n      tag_62\n      jump\t// in\n    tag_108:\n        /* \"#utility.yul\":214:436   */\n      swap3\n      swap2\n      pop\n      pop\n      jump\t// out\n        /* \"#utility.yul\":442:568   */\n    tag_63:\n        /* \"#utility.yul\":479:486   */\n      0x00\n        /* \"#utility.yul\":519:561   */\n      0xffffffffffffffffffffffffffffffffffffffff\n        /* \"#utility.yul\":512:517   */\n      dup3\n        /* \"#utility.yul\":508:562   */\n      and\n        /* \"#utility.yul\":497:562   */\n      swap1\n      pop\n        /* \"#utility.yul\":442:568   */\n      swap2\n      swap1\n      pop\n      jump\t// out\n        /* \"#utility.yul\":574:670   */\n    tag_64:\n        /* \"#utility.yul\":611:618   */\n      0x00\n        /* \"#utility.yul\":640:664   */\n      tag_111\n        /* \"#utility.yul\":658:663   */\n      dup3\n        /* \"#utility.yul\":640:664   */\n      tag_63\n      jump\t// in\n    tag_111:\n        /* \"#utility.yul\":629:664   */\n      swap1\n      pop\n        /* \"#utility.yul\":574:670   */\n      swap2\n      swap1\n      pop\n      jump\t// out\n        /* \"#utility.yul\":676:794   */\n    tag_65:\n        /* \"#utility.yul\":763:787   */\n      tag_113\n        /* \"#utility.yul\":781:786   */\n      dup2\n        /* \"#utility.yul\":763:787   */\n      tag_64\n      jump\t// in\n    tag_113:\n        /* \"#utility.yul\":758:761   */\n      dup3\n        /* \"#utility.yul\":751:788   */\n      mstore\n        /* \"#utility.yul\":676:794   */\n      pop\n      pop\n      jump\t// out\n        /* \"#utility.yul\":800:1022   */\n    tag_22:\n        /* \"#utility.yul\":893:897   */\n      0x00\n        /* \"#utility.yul\":931:933   */\n      0x20\n        /* \"#utility.yul\":920:929   */\n      dup3\n        /* \"#utility.yul\":916:934   */\n      add\n        /* \"#utility.yul\":908:934   */\n      swap1\n      pop\n        /* \"#utility.yul\":944:1015   */\n      tag_115\n        /* \"#utility.yul\":1012:1013   */\n      0x00\n        /* \"#utility.yul\":1001:1010   */\n      dup4\n        /* \"#utility.yul\":997:1014   */\n      add\n        /* \"#utility.yul\":988:994   */\n      dup5\n        /* \"#utility.yul\":944:1015   */\n      tag_65\n      jump\t// in\n    tag_115:\n        /* \"#utility.yul\":800:1022   */\n      swap3\n      swap2\n      pop\n      pop\n      jump\t// out\n        /* \"#utility.yul\":1028:1132   */\n    tag_66:\n        /* \"#utility.yul\":1073:1080   */\n      0x00\n        /* \"#utility.yul\":1102:1126   */\n      tag_117\n        /* \"#utility.yul\":1120:1125   */\n      dup3\n        /* \"#utility.yul\":1102:1126   */\n      tag_63\n      jump\t// in\n    tag_117:\n        /* \"#utility.yul\":1091:1126   */\n      swap1\n      pop\n        /* \"#utility.yul\":1028:1132   */\n      swap2\n      swap1\n      pop\n      jump\t// out\n        /* \"#utility.yul\":1138:1280   */\n    tag_67:\n        /* \"#utility.yul\":1241:1273   */\n      tag_119\n        /* \"#utility.yul\":1267:1272   */\n      dup2\n        /* \"#utility.yul\":1241:1273   */\n      tag_66\n      jump\t// in\n    tag_119:\n        /* \"#utility.yul\":1236:1239   */\n      dup3\n        /* \"#utility.yul\":1229:1274   */\n      mstore\n        /* \"#utility.yul\":1138:1280   */\n      pop\n      pop\n      jump\t// out\n        /* \"#utility.yul\":1286:1540   */\n    tag_27:\n        /* \"#utility.yul\":1395:1399   */\n      0x00\n        /* \"#utility.yul\":1433:1435   */\n      0x20\n        /* \"#utility.yul\":1422:1431   */\n      dup3\n        /* \"#utility.yul\":1418:1436   */\n      add\n        /* \"#utility.yul\":1410:1436   */\n      swap1\n      pop\n        /* \"#utility.yul\":1446:1533   */\n      tag_121\n        /* \"#utility.yul\":1530:1531   */\n      0x00\n        /* \"#utility.yul\":1519:1528   */\n      dup4\n        /* \"#utility.yul\":1515:1532   */\n      add\n        /* \"#utility.yul\":1506:1512   */\n      dup5\n        /* \"#utility.yul\":1446:1533   */\n      tag_67\n      jump\t// in\n    tag_121:\n        /* \"#utility.yul\":1286:1540   */\n      swap3\n      swap2\n      pop\n      pop\n      jump\t// out\n        /* \"#utility.yul\":1546:1606   */\n    tag_68:\n        /* \"#utility.yul\":1574:1577   */\n      0x00\n        /* \"#utility.yul\":1595:1600   */\n      dup2\n        /* \"#utility.yul\":1588:1600   */\n      swap1\n      pop\n        /* \"#utility.yul\":1546:1606   */\n      swap2\n      swap1\n      pop\n      jump\t// out\n        /* \"#utility.yul\":1612:1754   */\n    tag_69:\n        /* \"#utility.yul\":1662:1671   */\n      0x00\n        /* \"#utility.yul\":1695:1748   */\n      tag_124\n        /* \"#utility.yul\":1713:1747   */\n      tag_125\n        /* \"#utility.yul\":1722:1746   */\n      tag_126\n        /* \"#utility.yul\":1740:1745   */\n      dup5\n        /* \"#utility.yul\":1722:1746   */\n      tag_63\n      jump\t// in\n    tag_126:\n        /* \"#utility.yul\":1713:1747   */\n      tag_68\n      jump\t// in\n    tag_125:\n        /* \"#utility.yul\":1695:1748   */\n      tag_63\n      jump\t// in\n    tag_124:\n        /* \"#utility.yul\":1682:1748   */\n      swap1\n      pop\n        /* \"#utility.yul\":1612:1754   */\n      swap2\n      swap1\n      pop\n      jump\t// out\n        /* \"#utility.yul\":1760:1886   */\n    tag_70:\n        /* \"#utility.yul\":1810:1819   */\n      0x00\n        /* \"#utility.yul\":1843:1880   */\n      tag_128\n        /* \"#utility.yul\":1874:1879   */\n      dup3\n        /* \"#utility.yul\":1843:1880   */\n      tag_69\n      jump\t// in\n    tag_128:\n        /* \"#utility.yul\":1830:1880   */\n      swap1\n      pop\n        /* \"#utility.yul\":1760:1886   */\n      swap2\n      swap1\n      pop\n      jump\t// out\n        /* \"#utility.yul\":1892:2028   */\n    tag_71:\n        /* \"#utility.yul\":1952:1961   */\n      0x00\n        /* \"#utility.yul\":1985:2022   */\n      tag_130\n        /* \"#utility.yul\":2016:2021   */\n      dup3\n        /* \"#utility.yul\":1985:2022   */\n      tag_70\n      jump\t// in\n    tag_130:\n        /* \"#utility.yul\":1972:2022   */\n      swap1\n      pop\n        /* \"#utility.yul\":1892:2028   */\n      swap2\n      swap1\n      pop\n      jump\t// out\n        /* \"#utility.yul\":2034:2185   */\n    tag_72:\n        /* \"#utility.yul\":2131:2178   */\n      tag_132\n        /* \"#utility.yul\":2172:2177   */\n      dup2\n        /* \"#utility.yul\":2131:2178   */\n      tag_71\n      jump\t// in\n    tag_132:\n        /* \"#utility.yul\":2126:2129   */\n      dup3\n        /* \"#utility.yul\":2119:2179   */\n      mstore\n        /* \"#utility.yul\":2034:2185   */\n      pop\n      pop\n      jump\t// out\n        /* \"#utility.yul\":2191:2433   */\n    tag_32:\n        /* \"#utility.yul\":2294:2298   */\n      0x00\n        /* \"#utility.yul\":2332:2334   */\n      0x20\n        /* \"#utility.yul\":2321:2330   */\n      dup3\n        /* \"#utility.yul\":2317:2335   */\n      add\n        /* \"#utility.yul\":2309:2335   */\n      swap1\n      pop\n        /* \"#utility.yul\":2345:2426   */\n      tag_134\n        /* \"#utility.yul\":2423:2424   */\n      0x00\n        /* \"#utility.yul\":2412:2421   */\n      dup4\n        /* \"#utility.yul\":2408:2425   */\n      add\n        /* \"#utility.yul\":2399:2405   */\n      dup5\n        /* \"#utility.yul\":2345:2426   */\n      tag_72\n      jump\t// in\n    tag_134:\n        /* \"#utility.yul\":2191:2433   */\n      swap3\n      swap2\n      pop\n      pop\n      jump\t// out\n        /* \"#utility.yul\":2439:2514   */\n    tag_73:\n        /* \"#utility.yul\":2472:2478   */\n      0x00\n        /* \"#utility.yul\":2505:2507   */\n      0x40\n        /* \"#utility.yul\":2499:2508   */\n      mload\n        /* \"#utility.yul\":2489:2508   */\n      swap1\n      pop\n        /* \"#utility.yul\":2439:2514   */\n      swap1\n      jump\t// out\n        /* \"#utility.yul\":2520:2637   */\n    tag_74:\n        /* \"#utility.yul\":2629:2630   */\n      0x00\n        /* \"#utility.yul\":2626:2627   */\n      dup1\n        /* \"#utility.yul\":2619:2631   */\n      revert\n        /* \"#utility.yul\":2643:2760   */\n    tag_75:\n        /* \"#utility.yul\":2752:2753   */\n      0x00\n        /* \"#utility.yul\":2749:2750   */\n      dup1\n        /* \"#utility.yul\":2742:2754   */\n      revert\n        /* \"#utility.yul\":2766:2883   */\n    tag_76:\n        /* \"#utility.yul\":2875:2876   */\n      0x00\n        /* \"#utility.yul\":2872:2873   */\n      dup1\n        /* \"#utility.yul\":2865:2877   */\n      revert\n        /* \"#utility.yul\":2889:2991   */\n    tag_77:\n        /* \"#utility.yul\":2930:2936   */\n      0x00\n        /* \"#utility.yul\":2981:2983   */\n      0x1f\n        /* \"#utility.yul\":2977:2984   */\n      not\n        /* \"#utility.yul\":2972:2974   */\n      0x1f\n        /* \"#utility.yul\":2965:2970   */\n      dup4\n        /* \"#utility.yul\":2961:2975   */\n      add\n        /* \"#utility.yul\":2957:2985   */\n      and\n        /* \"#utility.yul\":2947:2985   */\n      swap1\n      pop\n        /* \"#utility.yul\":2889:2991   */\n      swap2\n      swap1\n      pop\n      jump\t// out\n        /* \"#utility.yul\":2997:3177   */\n    tag_78:\n        /* \"#utility.yul\":3045:3122   */\n      0x4e487b7100000000000000000000000000000000000000000000000000000000\n        /* \"#utility.yul\":3042:3043   */\n      0x00\n        /* \"#utility.yul\":3035:3123   */\n      mstore\n        /* \"#utility.yul\":3142:3146   */\n      0x41\n        /* \"#utility.yul\":3139:3140   */\n      0x04\n        /* \"#utility.yul\":3132:3147   */\n      mstore\n        /* \"#utility.yul\":3166:3170   */\n      0x24\n        /* \"#utility.yul\":3163:3164   */\n      0x00\n        /* \"#utility.yul\":3156:3171   */\n      revert\n        /* \"#utility.yul\":3183:3464   */\n    tag_79:\n        /* \"#utility.yul\":3266:3293   */\n      tag_142\n        /* \"#utility.yul\":3288:3292   */\n      dup3\n        /* \"#utility.yul\":3266:3293   */\n      tag_77\n      jump\t// in\n    tag_142:\n        /* \"#utility.yul\":3258:3264   */\n      dup2\n        /* \"#utility.yul\":3254:3294   */\n      add\n        /* \"#utility.yul\":3396:3402   */\n      dup2\n        /* \"#utility.yul\":3384:3394   */\n      dup2\n        /* \"#utility.yul\":3381:3403   */\n      lt\n        /* \"#utility.yul\":3360:3378   */\n      0xffffffffffffffff\n        /* \"#utility.yul\":3348:3358   */\n      dup3\n        /* \"#utility.yul\":3345:3379   */\n      gt\n        /* \"#utility.yul\":3342:3404   */\n      or\n        /* \"#utility.yul\":3339:3427   */\n      iszero\n      tag_143\n      jumpi\n        /* \"#utility.yul\":3407:3425   */\n      tag_144\n      tag_78\n      jump\t// in\n    tag_144:\n        /* \"#utility.yul\":3339:3427   */\n    tag_143:\n        /* \"#utility.yul\":3447:3457   */\n      dup1\n        /* \"#utility.yul\":3443:3445   */\n      0x40\n        /* \"#utility.yul\":3436:3458   */\n      mstore\n        /* \"#utility.yul\":3226:3464   */\n      pop\n        /* \"#utility.yul\":3183:3464   */\n      pop\n      pop\n      jump\t// out\n        /* \"#utility.yul\":3470:3599   */\n    tag_80:\n        /* \"#utility.yul\":3504:3510   */\n      0x00\n        /* \"#utility.yul\":3531:3551   */\n      tag_146\n      tag_73\n      jump\t// in\n    tag_146:\n        /* \"#utility.yul\":3521:3551   */\n      swap1\n      pop\n        /* \"#utility.yul\":3560:3593   */\n      tag_147\n        /* \"#utility.yul\":3588:3592   */\n      dup3\n        /* \"#utility.yul\":3580:3586   */\n      dup3\n        /* \"#utility.yul\":3560:3593   */\n      tag_79\n      jump\t// in\n    tag_147:\n        /* \"#utility.yul\":3470:3599   */\n      swap2\n      swap1\n      pop\n      jump\t// out\n        /* \"#utility.yul\":3605:3946   */\n    tag_81:\n        /* \"#utility.yul\":3712:3716   */\n      0x00\n        /* \"#utility.yul\":3802:3820   */\n      0xffffffffffffffff\n        /* \"#utility.yul\":3794:3800   */\n      dup3\n        /* \"#utility.yul\":3791:3821   */\n      gt\n        /* \"#utility.yul\":3788:3844   */\n      iszero\n      tag_149\n      jumpi\n        /* \"#utility.yul\":3824:3842   */\n      tag_150\n      tag_78\n      jump\t// in\n    tag_150:\n        /* \"#utility.yul\":3788:3844   */\n    tag_149:\n        /* \"#utility.yul\":3874:3878   */\n      0x20\n        /* \"#utility.yul\":3866:3872   */\n      dup3\n        /* \"#utility.yul\":3862:3879   */\n      mul\n        /* \"#utility.yul\":3854:3879   */\n      swap1\n      pop\n        /* \"#utility.yul\":3934:3938   */\n      0x20\n        /* \"#utility.yul\":3928:3932   */\n      dup2\n        /* \"#utility.yul\":3924:3939   */\n      add\n        /* \"#utility.yul\":3916:3939   */\n      swap1\n      pop\n        /* \"#utility.yul\":3605:3946   */\n      swap2\n      swap1\n      pop\n      jump\t// out\n        /* \"#utility.yul\":3952:4069   */\n    tag_82:\n        /* \"#utility.yul\":4061:4062   */\n      0x00\n        /* \"#utility.yul\":4058:4059   */\n      dup1\n        /* \"#utility.yul\":4051:4063   */\n      revert\n        /* \"#utility.yul\":4075:4192   */\n    tag_83:\n        /* \"#utility.yul\":4184:4185   */\n      0x00\n        /* \"#utility.yul\":4181:4182   */\n      dup1\n        /* \"#utility.yul\":4174:4186   */\n      revert\n        /* \"#utility.yul\":4198:4315   */\n    tag_84:\n        /* \"#utility.yul\":4307:4308   */\n      0x00\n        /* \"#utility.yul\":4304:4305   */\n      dup1\n        /* \"#utility.yul\":4297:4309   */\n      revert\n        /* \"#utility.yul\":4321:4443   */\n    tag_85:\n        /* \"#utility.yul\":4394:4418   */\n      tag_155\n        /* \"#utility.yul\":4412:4417   */\n      dup2\n        /* \"#utility.yul\":4394:4418   */\n      tag_64\n      jump\t// in\n    tag_155:\n        /* \"#utility.yul\":4387:4392   */\n      dup2\n        /* \"#utility.yul\":4384:4419   */\n      eq\n        /* \"#utility.yul\":4374:4437   */\n      tag_156\n      jumpi\n        /* \"#utility.yul\":4433:4434   */\n      0x00\n        /* \"#utility.yul\":4430:4431   */\n      dup1\n        /* \"#utility.yul\":4423:4435   */\n      revert\n        /* \"#utility.yul\":4374:4437   */\n    tag_156:\n        /* \"#utility.yul\":4321:4443   */\n      pop\n      jump\t// out\n        /* \"#utility.yul\":4449:4592   */\n    tag_86:\n        /* \"#utility.yul\":4506:4511   */\n      0x00\n        /* \"#utility.yul\":4537:4543   */\n      dup2\n        /* \"#utility.yul\":4531:4544   */\n      mload\n        /* \"#utility.yul\":4522:4544   */\n      swap1\n      pop\n        /* \"#utility.yul\":4553:4586   */\n      tag_158\n        /* \"#utility.yul\":4580:4585   */\n      dup2\n        /* \"#utility.yul\":4553:4586   */\n      tag_85\n      jump\t// in\n    tag_158:\n        /* \"#utility.yul\":4449:4592   */\n      swap3\n      swap2\n      pop\n      pop\n      jump\t// out\n        /* \"#utility.yul\":4598:4715   */\n    tag_87:\n        /* \"#utility.yul\":4707:4708   */\n      0x00\n        /* \"#utility.yul\":4704:4705   */\n      dup1\n        /* \"#utility.yul\":4697:4709   */\n      revert\n        /* \"#utility.yul\":4721:5029   */\n    tag_88:\n        /* \"#utility.yul\":4783:4787   */\n      0x00\n        /* \"#utility.yul\":4873:4891   */\n      0xffffffffffffffff\n        /* \"#utility.yul\":4865:4871   */\n      dup3\n        /* \"#utility.yul\":4862:4892   */\n      gt\n        /* \"#utility.yul\":4859:4915   */\n      iszero\n      tag_161\n      jumpi\n        /* \"#utility.yul\":4895:4913   */\n      tag_162\n      tag_78\n      jump\t// in\n    tag_162:\n        /* \"#utility.yul\":4859:4915   */\n    tag_161:\n        /* \"#utility.yul\":4933:4962   */\n      tag_163\n        /* \"#utility.yul\":4955:4961   */\n      dup3\n        /* \"#utility.yul\":4933:4962   */\n      tag_77\n      jump\t// in\n    tag_163:\n        /* \"#utility.yul\":4925:4962   */\n      swap1\n      pop\n        /* \"#utility.yul\":5017:5021   */\n      0x20\n        /* \"#utility.yul\":5011:5015   */\n      dup2\n        /* \"#utility.yul\":5007:5022   */\n      add\n        /* \"#utility.yul\":4999:5022   */\n      swap1\n      pop\n        /* \"#utility.yul\":4721:5029   */\n      swap2\n      swap1\n      pop\n      jump\t// out\n        /* \"#utility.yul\":5035:5281   */\n    tag_89:\n        /* \"#utility.yul\":5116:5117   */\n      0x00\n        /* \"#utility.yul\":5126:5239   */\n    tag_165:\n        /* \"#utility.yul\":5140:5146   */\n      dup4\n        /* \"#utility.yul\":5137:5138   */\n      dup2\n        /* \"#utility.yul\":5134:5147   */\n      lt\n        /* \"#utility.yul\":5126:5239   */\n      iszero\n      tag_167\n      jumpi\n        /* \"#utility.yul\":5225:5226   */\n      dup1\n        /* \"#utility.yul\":5220:5223   */\n      dup3\n        /* \"#utility.yul\":5216:5227   */\n      add\n        /* \"#utility.yul\":5210:5228   */\n      mload\n        /* \"#utility.yul\":5206:5207   */\n      dup2\n        /* \"#utility.yul\":5201:5204   */\n      dup5\n        /* \"#utility.yul\":5197:5208   */\n      add\n        /* \"#utility.yul\":5190:5229   */\n      mstore\n        /* \"#utility.yul\":5162:5164   */\n      0x20\n        /* \"#utility.yul\":5159:5160   */\n      dup2\n        /* \"#utility.yul\":5155:5165   */\n      add\n        /* \"#utility.yul\":5150:5165   */\n      swap1\n      pop\n        /* \"#utility.yul\":5126:5239   */\n      jump(tag_165)\n    tag_167:\n        /* \"#utility.yul\":5273:5274   */\n      0x00\n        /* \"#utility.yul\":5264:5270   */\n      dup5\n        /* \"#utility.yul\":5259:5262   */\n      dup5\n        /* \"#utility.yul\":5255:5271   */\n      add\n        /* \"#utility.yul\":5248:5275   */\n      mstore\n        /* \"#utility.yul\":5097:5281   */\n      pop\n        /* \"#utility.yul\":5035:5281   */\n      pop\n      pop\n      pop\n      jump\t// out\n        /* \"#utility.yul\":5287:5721   */\n    tag_90:\n        /* \"#utility.yul\":5376:5381   */\n      0x00\n        /* \"#utility.yul\":5401:5467   */\n      tag_169\n        /* \"#utility.yul\":5417:5466   */\n      tag_170\n        /* \"#utility.yul\":5459:5465   */\n      dup5\n        /* \"#utility.yul\":5417:5466   */\n      tag_88\n      jump\t// in\n    tag_170:\n        /* \"#utility.yul\":5401:5467   */\n      tag_80\n      jump\t// in\n    tag_169:\n        /* \"#utility.yul\":5392:5467   */\n      swap1\n      pop\n        /* \"#utility.yul\":5490:5496   */\n      dup3\n        /* \"#utility.yul\":5483:5488   */\n      dup2\n        /* \"#utility.yul\":5476:5497   */\n      mstore\n        /* \"#utility.yul\":5528:5532   */\n      0x20\n        /* \"#utility.yul\":5521:5526   */\n      dup2\n        /* \"#utility.yul\":5517:5533   */\n      add\n        /* \"#utility.yul\":5566:5569   */\n      dup5\n        /* \"#utility.yul\":5557:5563   */\n      dup5\n        /* \"#utility.yul\":5552:5555   */\n      dup5\n        /* \"#utility.yul\":5548:5564   */\n      add\n        /* \"#utility.yul\":5545:5570   */\n      gt\n        /* \"#utility.yul\":5542:5654   */\n      iszero\n      tag_171\n      jumpi\n        /* \"#utility.yul\":5573:5652   */\n      tag_172\n      tag_87\n      jump\t// in\n    tag_172:\n        /* \"#utility.yul\":5542:5654   */\n    tag_171:\n        /* \"#utility.yul\":5663:5715   */\n      tag_173\n        /* \"#utility.yul\":5708:5714   */\n      dup5\n        /* \"#utility.yul\":5703:5706   */\n      dup3\n        /* \"#utility.yul\":5698:5701   */\n      dup6\n        /* \"#utility.yul\":5663:5715   */\n      tag_89\n      jump\t// in\n    tag_173:\n        /* \"#utility.yul\":5382:5721   */\n      pop\n        /* \"#utility.yul\":5287:5721   */\n      swap4\n      swap3\n      pop\n      pop\n      pop\n      jump\t// out\n        /* \"#utility.yul\":5741:6096   */\n    tag_91:\n        /* \"#utility.yul\":5808:5813   */\n      0x00\n        /* \"#utility.yul\":5857:5860   */\n      dup3\n        /* \"#utility.yul\":5850:5854   */\n      0x1f\n        /* \"#utility.yul\":5842:5848   */\n      dup4\n        /* \"#utility.yul\":5838:5855   */\n      add\n        /* \"#utility.yul\":5834:5861   */\n      slt\n        /* \"#utility.yul\":5824:5946   */\n      tag_175\n      jumpi\n        /* \"#utility.yul\":5865:5944   */\n      tag_176\n      tag_76\n      jump\t// in\n    tag_176:\n        /* \"#utility.yul\":5824:5946   */\n    tag_175:\n        /* \"#utility.yul\":5975:5981   */\n      dup2\n        /* \"#utility.yul\":5969:5982   */\n      mload\n        /* \"#utility.yul\":6000:6090   */\n      tag_177\n        /* \"#utility.yul\":6086:6089   */\n      dup5\n        /* \"#utility.yul\":6078:6084   */\n      dup3\n        /* \"#utility.yul\":6071:6075   */\n      0x20\n        /* \"#utility.yul\":6063:6069   */\n      dup7\n        /* \"#utility.yul\":6059:6076   */\n      add\n        /* \"#utility.yul\":6000:6090   */\n      tag_90\n      jump\t// in\n    tag_177:\n        /* \"#utility.yul\":5991:6090   */\n      swap2\n      pop\n        /* \"#utility.yul\":5814:6096   */\n      pop\n        /* \"#utility.yul\":5741:6096   */\n      swap3\n      swap2\n      pop\n      pop\n      jump\t// out\n        /* \"#utility.yul\":6135:7596   */\n    tag_92:\n        /* \"#utility.yul\":6225:6230   */\n      0x00\n        /* \"#utility.yul\":6269:6273   */\n      0x80\n        /* \"#utility.yul\":6257:6266   */\n      dup3\n        /* \"#utility.yul\":6252:6255   */\n      dup5\n        /* \"#utility.yul\":6248:6267   */\n      sub\n        /* \"#utility.yul\":6244:6274   */\n      slt\n        /* \"#utility.yul\":6241:6358   */\n      iszero\n      tag_179\n      jumpi\n        /* \"#utility.yul\":6277:6356   */\n      tag_180\n      tag_83\n      jump\t// in\n    tag_180:\n        /* \"#utility.yul\":6241:6358   */\n    tag_179:\n        /* \"#utility.yul\":6376:6397   */\n      tag_181\n        /* \"#utility.yul\":6392:6396   */\n      0x80\n        /* \"#utility.yul\":6376:6397   */\n      tag_80\n      jump\t// in\n    tag_181:\n        /* \"#utility.yul\":6367:6397   */\n      swap1\n      pop\n        /* \"#utility.yul\":6463:6464   */\n      0x00\n        /* \"#utility.yul\":6503:6563   */\n      tag_182\n        /* \"#utility.yul\":6559:6562   */\n      dup5\n        /* \"#utility.yul\":6550:6556   */\n      dup3\n        /* \"#utility.yul\":6539:6548   */\n      dup6\n        /* \"#utility.yul\":6535:6557   */\n      add\n        /* \"#utility.yul\":6503:6563   */\n      tag_86\n      jump\t// in\n    tag_182:\n        /* \"#utility.yul\":6496:6500   */\n      0x00\n        /* \"#utility.yul\":6489:6494   */\n      dup4\n        /* \"#utility.yul\":6485:6501   */\n      add\n        /* \"#utility.yul\":6478:6564   */\n      mstore\n        /* \"#utility.yul\":6407:6575   */\n      pop\n        /* \"#utility.yul\":6655:6657   */\n      0x20\n        /* \"#utility.yul\":6644:6653   */\n      dup3\n        /* \"#utility.yul\":6640:6658   */\n      add\n        /* \"#utility.yul\":6634:6659   */\n      mload\n        /* \"#utility.yul\":6686:6704   */\n      0xffffffffffffffff\n        /* \"#utility.yul\":6678:6684   */\n      dup2\n        /* \"#utility.yul\":6675:6705   */\n      gt\n        /* \"#utility.yul\":6672:6789   */\n      iszero\n      tag_183\n      jumpi\n        /* \"#utility.yul\":6708:6787   */\n      tag_184\n      tag_84\n      jump\t// in\n    tag_184:\n        /* \"#utility.yul\":6672:6789   */\n    tag_183:\n        /* \"#utility.yul\":6828:6898   */\n      tag_185\n        /* \"#utility.yul\":6894:6897   */\n      dup5\n        /* \"#utility.yul\":6885:6891   */\n      dup3\n        /* \"#utility.yul\":6874:6883   */\n      dup6\n        /* \"#utility.yul\":6870:6892   */\n      add\n        /* \"#utility.yul\":6828:6898   */\n      tag_91\n      jump\t// in\n    tag_185:\n        /* \"#utility.yul\":6821:6825   */\n      0x20\n        /* \"#utility.yul\":6814:6819   */\n      dup4\n        /* \"#utility.yul\":6810:6826   */\n      add\n        /* \"#utility.yul\":6803:6899   */\n      mstore\n        /* \"#utility.yul\":6585:6910   */\n      pop\n        /* \"#utility.yul\":6995:6997   */\n      0x40\n        /* \"#utility.yul\":6984:6993   */\n      dup3\n        /* \"#utility.yul\":6980:6998   */\n      add\n        /* \"#utility.yul\":6974:6999   */\n      mload\n        /* \"#utility.yul\":7026:7044   */\n      0xffffffffffffffff\n        /* \"#utility.yul\":7018:7024   */\n      dup2\n        /* \"#utility.yul\":7015:7045   */\n      gt\n        /* \"#utility.yul\":7012:7129   */\n      iszero\n      tag_186\n      jumpi\n        /* \"#utility.yul\":7048:7127   */\n      tag_187\n      tag_84\n      jump\t// in\n    tag_187:\n        /* \"#utility.yul\":7012:7129   */\n    tag_186:\n        /* \"#utility.yul\":7168:7238   */\n      tag_188\n        /* \"#utility.yul\":7234:7237   */\n      dup5\n        /* \"#utility.yul\":7225:7231   */\n      dup3\n        /* \"#utility.yul\":7214:7223   */\n      dup6\n        /* \"#utility.yul\":7210:7232   */\n      add\n        /* \"#utility.yul\":7168:7238   */\n      tag_91\n      jump\t// in\n    tag_188:\n        /* \"#utility.yul\":7161:7165   */\n      0x40\n        /* \"#utility.yul\":7154:7159   */\n      dup4\n        /* \"#utility.yul\":7150:7166   */\n      add\n        /* \"#utility.yul\":7143:7239   */\n      mstore\n        /* \"#utility.yul\":6920:7250   */\n      pop\n        /* \"#utility.yul\":7334:7336   */\n      0x60\n        /* \"#utility.yul\":7323:7332   */\n      dup3\n        /* \"#utility.yul\":7319:7337   */\n      add\n        /* \"#utility.yul\":7313:7338   */\n      mload\n        /* \"#utility.yul\":7365:7383   */\n      0xffffffffffffffff\n        /* \"#utility.yul\":7357:7363   */\n      dup2\n        /* \"#utility.yul\":7354:7384   */\n      gt\n        /* \"#utility.yul\":7351:7468   */\n      iszero\n      tag_189\n      jumpi\n        /* \"#utility.yul\":7387:7466   */\n      tag_190\n      tag_84\n      jump\t// in\n    tag_190:\n        /* \"#utility.yul\":7351:7468   */\n    tag_189:\n        /* \"#utility.yul\":7507:7577   */\n      tag_191\n        /* \"#utility.yul\":7573:7576   */\n      dup5\n        /* \"#utility.yul\":7564:7570   */\n      dup3\n        /* \"#utility.yul\":7553:7562   */\n      dup6\n        /* \"#utility.yul\":7549:7571   */\n      add\n        /* \"#utility.yul\":7507:7577   */\n      tag_91\n      jump\t// in\n    tag_191:\n        /* \"#utility.yul\":7500:7504   */\n      0x60\n        /* \"#utility.yul\":7493:7498   */\n      dup4\n        /* \"#utility.yul\":7489:7505   */\n      add\n        /* \"#utility.yul\":7482:7578   */\n      mstore\n        /* \"#utility.yul\":7260:7589   */\n      pop\n        /* \"#utility.yul\":6135:7596   */\n      swap3\n      swap2\n      pop\n      pop\n      jump\t// out\n        /* \"#utility.yul\":7637:8657   */\n    tag_93:\n        /* \"#utility.yul\":7774:7779   */\n      0x00\n        /* \"#utility.yul\":7799:7910   */\n      tag_193\n        /* \"#utility.yul\":7815:7909   */\n      tag_194\n        /* \"#utility.yul\":7902:7908   */\n      dup5\n        /* \"#utility.yul\":7815:7909   */\n      tag_81\n      jump\t// in\n    tag_194:\n        /* \"#utility.yul\":7799:7910   */\n      tag_80\n      jump\t// in\n    tag_193:\n        /* \"#utility.yul\":7790:7910   */\n      swap1\n      pop\n        /* \"#utility.yul\":7930:7935   */\n      dup1\n        /* \"#utility.yul\":7959:7965   */\n      dup4\n        /* \"#utility.yul\":7952:7957   */\n      dup3\n        /* \"#utility.yul\":7945:7966   */\n      mstore\n        /* \"#utility.yul\":7993:7997   */\n      0x20\n        /* \"#utility.yul\":7986:7991   */\n      dup3\n        /* \"#utility.yul\":7982:7998   */\n      add\n        /* \"#utility.yul\":7975:7998   */\n      swap1\n      pop\n        /* \"#utility.yul\":8046:8050   */\n      0x20\n        /* \"#utility.yul\":8038:8044   */\n      dup5\n        /* \"#utility.yul\":8034:8051   */\n      mul\n        /* \"#utility.yul\":8026:8032   */\n      dup4\n        /* \"#utility.yul\":8022:8052   */\n      add\n        /* \"#utility.yul\":8075:8078   */\n      dup6\n        /* \"#utility.yul\":8067:8073   */\n      dup2\n        /* \"#utility.yul\":8064:8079   */\n      gt\n        /* \"#utility.yul\":8061:8183   */\n      iszero\n      tag_195\n      jumpi\n        /* \"#utility.yul\":8094:8173   */\n      tag_196\n      tag_82\n      jump\t// in\n    tag_196:\n        /* \"#utility.yul\":8061:8183   */\n    tag_195:\n        /* \"#utility.yul\":8209:8215   */\n      dup4\n        /* \"#utility.yul\":8192:8651   */\n    tag_197:\n        /* \"#utility.yul\":8226:8232   */\n      dup2\n        /* \"#utility.yul\":8221:8224   */\n      dup2\n        /* \"#utility.yul\":8218:8233   */\n      lt\n        /* \"#utility.yul\":8192:8651   */\n      iszero\n      tag_199\n      jumpi\n        /* \"#utility.yul\":8308:8311   */\n      dup1\n        /* \"#utility.yul\":8302:8312   */\n      mload\n        /* \"#utility.yul\":8344:8362   */\n      0xffffffffffffffff\n        /* \"#utility.yul\":8331:8342   */\n      dup2\n        /* \"#utility.yul\":8328:8363   */\n      gt\n        /* \"#utility.yul\":8325:8447   */\n      iszero\n      tag_200\n      jumpi\n        /* \"#utility.yul\":8366:8445   */\n      tag_201\n      tag_76\n      jump\t// in\n    tag_201:\n        /* \"#utility.yul\":8325:8447   */\n    tag_200:\n        /* \"#utility.yul\":8490:8501   */\n      dup1\n        /* \"#utility.yul\":8482:8488   */\n      dup7\n        /* \"#utility.yul\":8478:8502   */\n      add\n        /* \"#utility.yul\":8528:8606   */\n      tag_202\n        /* \"#utility.yul\":8602:8605   */\n      dup10\n        /* \"#utility.yul\":8590:8600   */\n      dup3\n        /* \"#utility.yul\":8528:8606   */\n      tag_92\n      jump\t// in\n    tag_202:\n        /* \"#utility.yul\":8523:8526   */\n      dup6\n        /* \"#utility.yul\":8516:8607   */\n      mstore\n        /* \"#utility.yul\":8636:8640   */\n      0x20\n        /* \"#utility.yul\":8631:8634   */\n      dup6\n        /* \"#utility.yul\":8627:8641   */\n      add\n        /* \"#utility.yul\":8620:8641   */\n      swap5\n      pop\n        /* \"#utility.yul\":8268:8651   */\n      pop\n      pop\n        /* \"#utility.yul\":8252:8256   */\n      0x20\n        /* \"#utility.yul\":8247:8250   */\n      dup2\n        /* \"#utility.yul\":8243:8257   */\n      add\n        /* \"#utility.yul\":8236:8257   */\n      swap1\n      pop\n        /* \"#utility.yul\":8192:8651   */\n      jump(tag_197)\n    tag_199:\n        /* \"#utility.yul\":8196:8217   */\n      pop\n        /* \"#utility.yul\":7780:8657   */\n      pop\n      pop\n        /* \"#utility.yul\":7637:8657   */\n      swap4\n      swap3\n      pop\n      pop\n      pop\n      jump\t// out\n        /* \"#utility.yul\":8698:9143   */\n    tag_94:\n        /* \"#utility.yul\":8810:8815   */\n      0x00\n        /* \"#utility.yul\":8859:8862   */\n      dup3\n        /* \"#utility.yul\":8852:8856   */\n      0x1f\n        /* \"#utility.yul\":8844:8850   */\n      dup4\n        /* \"#utility.yul\":8840:8857   */\n      add\n        /* \"#utility.yul\":8836:8863   */\n      slt\n        /* \"#utility.yul\":8826:8948   */\n      tag_204\n      jumpi\n        /* \"#utility.yul\":8867:8946   */\n      tag_205\n      tag_76\n      jump\t// in\n    tag_205:\n        /* \"#utility.yul\":8826:8948   */\n    tag_204:\n        /* \"#utility.yul\":8977:8983   */\n      dup2\n        /* \"#utility.yul\":8971:8984   */\n      mload\n        /* \"#utility.yul\":9002:9137   */\n      tag_206\n        /* \"#utility.yul\":9133:9136   */\n      dup5\n        /* \"#utility.yul\":9125:9131   */\n      dup3\n        /* \"#utility.yul\":9118:9122   */\n      0x20\n        /* \"#utility.yul\":9110:9116   */\n      dup7\n        /* \"#utility.yul\":9106:9123   */\n      add\n        /* \"#utility.yul\":9002:9137   */\n      tag_93\n      jump\t// in\n    tag_206:\n        /* \"#utility.yul\":8993:9137   */\n      swap2\n      pop\n        /* \"#utility.yul\":8816:9143   */\n      pop\n        /* \"#utility.yul\":8698:9143   */\n      swap3\n      swap2\n      pop\n      pop\n      jump\t// out\n        /* \"#utility.yul\":9149:9763   */\n    tag_45:\n        /* \"#utility.yul\":9274:9280   */\n      0x00\n        /* \"#utility.yul\":9323:9325   */\n      0x20\n        /* \"#utility.yul\":9311:9320   */\n      dup3\n        /* \"#utility.yul\":9302:9309   */\n      dup5\n        /* \"#utility.yul\":9298:9321   */\n      sub\n        /* \"#utility.yul\":9294:9326   */\n      slt\n        /* \"#utility.yul\":9291:9410   */\n      iszero\n      tag_208\n      jumpi\n        /* \"#utility.yul\":9329:9408   */\n      tag_209\n      tag_74\n      jump\t// in\n    tag_209:\n        /* \"#utility.yul\":9291:9410   */\n    tag_208:\n        /* \"#utility.yul\":9470:9471   */\n      0x00\n        /* \"#utility.yul\":9459:9468   */\n      dup3\n        /* \"#utility.yul\":9455:9472   */\n      add\n        /* \"#utility.yul\":9449:9473   */\n      mload\n        /* \"#utility.yul\":9500:9518   */\n      0xffffffffffffffff\n        /* \"#utility.yul\":9492:9498   */\n      dup2\n        /* \"#utility.yul\":9489:9519   */\n      gt\n        /* \"#utility.yul\":9486:9603   */\n      iszero\n      tag_210\n      jumpi\n        /* \"#utility.yul\":9522:9601   */\n      tag_211\n      tag_75\n      jump\t// in\n    tag_211:\n        /* \"#utility.yul\":9486:9603   */\n    tag_210:\n        /* \"#utility.yul\":9627:9746   */\n      tag_212\n        /* \"#utility.yul\":9738:9745   */\n      dup5\n        /* \"#utility.yul\":9729:9735   */\n      dup3\n        /* \"#utility.yul\":9718:9727   */\n      dup6\n        /* \"#utility.yul\":9714:9736   */\n      add\n        /* \"#utility.yul\":9627:9746   */\n      tag_94\n      jump\t// in\n    tag_212:\n        /* \"#utility.yul\":9617:9746   */\n      swap2\n      pop\n        /* \"#utility.yul\":9420:9756   */\n      pop\n        /* \"#utility.yul\":9149:9763   */\n      swap3\n      swap2\n      pop\n      pop\n      jump\t// out\n        /* \"#utility.yul\":9769:9949   */\n    tag_48:\n        /* \"#utility.yul\":9817:9894   */\n      0x4e487b7100000000000000000000000000000000000000000000000000000000\n        /* \"#utility.yul\":9814:9815   */\n      0x00\n        /* \"#utility.yul\":9807:9895   */\n      mstore\n        /* \"#utility.yul\":9914:9918   */\n      0x32\n        /* \"#utility.yul\":9911:9912   */\n      0x04\n        /* \"#utility.yul\":9904:9919   */\n      mstore\n        /* \"#utility.yul\":9938:9942   */\n      0x24\n        /* \"#utility.yul\":9935:9936   */\n      0x00\n        /* \"#utility.yul\":9928:9943   */\n      revert\n        /* \"#utility.yul\":9955:10054   */\n    tag_95:\n        /* \"#utility.yul\":10007:10013   */\n      0x00\n        /* \"#utility.yul\":10041:10046   */\n      dup2\n        /* \"#utility.yul\":10035:10047   */\n      mload\n        /* \"#utility.yul\":10025:10047   */\n      swap1\n      pop\n        /* \"#utility.yul\":9955:10054   */\n      swap2\n      swap1\n      pop\n      jump\t// out\n        /* \"#utility.yul\":10060:10229   */\n    tag_96:\n        /* \"#utility.yul\":10144:10155   */\n      0x00\n        /* \"#utility.yul\":10178:10184   */\n      dup3\n        /* \"#utility.yul\":10173:10176   */\n      dup3\n        /* \"#utility.yul\":10166:10185   */\n      mstore\n        /* \"#utility.yul\":10218:10222   */\n      0x20\n        /* \"#utility.yul\":10213:10216   */\n      dup3\n        /* \"#utility.yul\":10209:10223   */\n      add\n        /* \"#utility.yul\":10194:10223   */\n      swap1\n      pop\n        /* \"#utility.yul\":10060:10229   */\n      swap3\n      swap2\n      pop\n      pop\n      jump\t// out\n        /* \"#utility.yul\":10235:10612   */\n    tag_97:\n        /* \"#utility.yul\":10323:10326   */\n      0x00\n        /* \"#utility.yul\":10351:10390   */\n      tag_217\n        /* \"#utility.yul\":10384:10389   */\n      dup3\n        /* \"#utility.yul\":10351:10390   */\n      tag_95\n      jump\t// in\n    tag_217:\n        /* \"#utility.yul\":10406:10477   */\n      tag_218\n        /* \"#utility.yul\":10470:10476   */\n      dup2\n        /* \"#utility.yul\":10465:10468   */\n      dup6\n        /* \"#utility.yul\":10406:10477   */\n      tag_96\n      jump\t// in\n    tag_218:\n        /* \"#utility.yul\":10399:10477   */\n      swap4\n      pop\n        /* \"#utility.yul\":10486:10551   */\n      tag_219\n        /* \"#utility.yul\":10544:10550   */\n      dup2\n        /* \"#utility.yul\":10539:10542   */\n      dup6\n        /* \"#utility.yul\":10532:10536   */\n      0x20\n        /* \"#utility.yul\":10525:10530   */\n      dup7\n        /* \"#utility.yul\":10521:10537   */\n      add\n        /* \"#utility.yul\":10486:10551   */\n      tag_89\n      jump\t// in\n    tag_219:\n        /* \"#utility.yul\":10576:10605   */\n      tag_220\n        /* \"#utility.yul\":10598:10604   */\n      dup2\n        /* \"#utility.yul\":10576:10605   */\n      tag_77\n      jump\t// in\n    tag_220:\n        /* \"#utility.yul\":10571:10574   */\n      dup5\n        /* \"#utility.yul\":10567:10606   */\n      add\n        /* \"#utility.yul\":10560:10606   */\n      swap2\n      pop\n        /* \"#utility.yul\":10327:10612   */\n      pop\n        /* \"#utility.yul\":10235:10612   */\n      swap3\n      swap2\n      pop\n      pop\n      jump\t// out\n        /* \"#utility.yul\":10618:11041   */\n    tag_50:\n        /* \"#utility.yul\":10759:10763   */\n      0x00\n        /* \"#utility.yul\":10797:10799   */\n      0x40\n        /* \"#utility.yul\":10786:10795   */\n      dup3\n        /* \"#utility.yul\":10782:10800   */\n      add\n        /* \"#utility.yul\":10774:10800   */\n      swap1\n      pop\n        /* \"#utility.yul\":10846:10855   */\n      dup2\n        /* \"#utility.yul\":10840:10844   */\n      dup2\n        /* \"#utility.yul\":10836:10856   */\n      sub\n        /* \"#utility.yul\":10832:10833   */\n      0x00\n        /* \"#utility.yul\":10821:10830   */\n      dup4\n        /* \"#utility.yul\":10817:10834   */\n      add\n        /* \"#utility.yul\":10810:10857   */\n      mstore\n        /* \"#utility.yul\":10874:10952   */\n      tag_222\n        /* \"#utility.yul\":10947:10951   */\n      dup2\n        /* \"#utility.yul\":10938:10944   */\n      dup6\n        /* \"#utility.yul\":10874:10952   */\n      tag_97\n      jump\t// in\n    tag_222:\n        /* \"#utility.yul\":10866:10952   */\n      swap1\n      pop\n        /* \"#utility.yul\":10962:11034   */\n      tag_223\n        /* \"#utility.yul\":11030:11032   */\n      0x20\n        /* \"#utility.yul\":11019:11028   */\n      dup4\n        /* \"#utility.yul\":11015:11033   */\n      add\n        /* \"#utility.yul\":11006:11012   */\n      dup5\n        /* \"#utility.yul\":10962:11034   */\n      tag_62\n      jump\t// in\n    tag_223:\n        /* \"#utility.yul\":10618:11041   */\n      swap4\n      swap3\n      pop\n      pop\n      pop\n      jump\t// out\n        /* \"#utility.yul\":11047:11194   */\n    tag_98:\n        /* \"#utility.yul\":11148:11159   */\n      0x00\n        /* \"#utility.yul\":11185:11188   */\n      dup2\n        /* \"#utility.yul\":11170:11188   */\n      swap1\n      pop\n        /* \"#utility.yul\":11047:11194   */\n      swap3\n      swap2\n      pop\n      pop\n      jump\t// out\n        /* \"#utility.yul\":11200:11314   */\n    tag_99:\n      pop\n      jump\t// out\n        /* \"#utility.yul\":11320:11718   */\n    tag_100:\n        /* \"#utility.yul\":11479:11482   */\n      0x00\n        /* \"#utility.yul\":11500:11583   */\n      tag_227\n        /* \"#utility.yul\":11581:11582   */\n      0x00\n        /* \"#utility.yul\":11576:11579   */\n      dup4\n        /* \"#utility.yul\":11500:11583   */\n      tag_98\n      jump\t// in\n    tag_227:\n        /* \"#utility.yul\":11493:11583   */\n      swap2\n      pop\n        /* \"#utility.yul\":11592:11685   */\n      tag_228\n        /* \"#utility.yul\":11681:11684   */\n      dup3\n        /* \"#utility.yul\":11592:11685   */\n      tag_99\n      jump\t// in\n    tag_228:\n        /* \"#utility.yul\":11710:11711   */\n      0x00\n        /* \"#utility.yul\":11705:11708   */\n      dup3\n        /* \"#utility.yul\":11701:11712   */\n      add\n        /* \"#utility.yul\":11694:11712   */\n      swap1\n      pop\n        /* \"#utility.yul\":11320:11718   */\n      swap2\n      swap1\n      pop\n      jump\t// out\n        /* \"#utility.yul\":11724:12103   */\n    tag_54:\n        /* \"#utility.yul\":11908:11911   */\n      0x00\n        /* \"#utility.yul\":11930:12077   */\n      tag_230\n        /* \"#utility.yul\":12073:12076   */\n      dup3\n        /* \"#utility.yul\":11930:12077   */\n      tag_100\n      jump\t// in\n    tag_230:\n        /* \"#utility.yul\":11923:12077   */\n      swap2\n      pop\n        /* \"#utility.yul\":12094:12097   */\n      dup2\n        /* \"#utility.yul\":12087:12097   */\n      swap1\n      pop\n        /* \"#utility.yul\":11724:12103   */\n      swap2\n      swap1\n      pop\n      jump\t// out\n        /* \"#utility.yul\":12109:12279   */\n    tag_101:\n        /* \"#utility.yul\":12249:12271   */\n      0x4661696c656420746f2073656e64204574686572000000000000000000000000\n        /* \"#utility.yul\":12245:12246   */\n      0x00\n        /* \"#utility.yul\":12237:12243   */\n      dup3\n        /* \"#utility.yul\":12233:12247   */\n      add\n        /* \"#utility.yul\":12226:12272   */\n      mstore\n        /* \"#utility.yul\":12109:12279   */\n      pop\n      jump\t// out\n        /* \"#utility.yul\":12285:12651   */\n    tag_102:\n        /* \"#utility.yul\":12427:12430   */\n      0x00\n        /* \"#utility.yul\":12448:12515   */\n      tag_233\n        /* \"#utility.yul\":12512:12514   */\n      0x14\n        /* \"#utility.yul\":12507:12510   */\n      dup4\n        /* \"#utility.yul\":12448:12515   */\n      tag_96\n      jump\t// in\n    tag_233:\n        /* \"#utility.yul\":12441:12515   */\n      swap2\n      pop\n        /* \"#utility.yul\":12524:12617   */\n      tag_234\n        /* \"#utility.yul\":12613:12616   */\n      dup3\n        /* \"#utility.yul\":12524:12617   */\n      tag_101\n      jump\t// in\n    tag_234:\n        /* \"#utility.yul\":12642:12644   */\n      0x20\n        /* \"#utility.yul\":12637:12640   */\n      dup3\n        /* \"#utility.yul\":12633:12645   */\n      add\n        /* \"#utility.yul\":12626:12645   */\n      swap1\n      pop\n        /* \"#utility.yul\":12285:12651   */\n      swap2\n      swap1\n      pop\n      jump\t// out\n        /* \"#utility.yul\":12657:13076   */\n    tag_60:\n        /* \"#utility.yul\":12823:12827   */\n      0x00\n        /* \"#utility.yul\":12861:12863   */\n      0x20\n        /* \"#utility.yul\":12850:12859   */\n      dup3\n        /* \"#utility.yul\":12846:12864   */\n      add\n        /* \"#utility.yul\":12838:12864   */\n      swap1\n      pop\n        /* \"#utility.yul\":12910:12919   */\n      dup2\n        /* \"#utility.yul\":12904:12908   */\n      dup2\n        /* \"#utility.yul\":12900:12920   */\n      sub\n        /* \"#utility.yul\":12896:12897   */\n      0x00\n        /* \"#utility.yul\":12885:12894   */\n      dup4\n        /* \"#utility.yul\":12881:12898   */\n      add\n        /* \"#utility.yul\":12874:12921   */\n      mstore\n        /* \"#utility.yul\":12938:13069   */\n      tag_236\n        /* \"#utility.yul\":13064:13068   */\n      dup2\n        /* \"#utility.yul\":12938:13069   */\n      tag_102\n      jump\t// in\n    tag_236:\n        /* \"#utility.yul\":12930:13069   */\n      swap1\n      pop\n        /* \"#utility.yul\":12657:13076   */\n      swap2\n      swap1\n      pop\n      jump\t// out\n\n    auxdata: 0xa2646970667358221220a2da6376dc63867198856ef10fb4e2c017d9e4f00043c1532b2f3b9a5dee3cae64736f6c63430008110033\n}\n",
				"bytecode": {
					"linkReferences": {},
					"object": "608060405260405162000d7c38038062000d7c833981810160405281019062000029919062000214565b600073ffffffffffffffffffffffffffffffffffffffff168273ffffffffffffffffffffffffffffffffffffffff16036200009b576040517f08c379a00000000000000000000000000000000000000000000000000000000081526004016200009290620002bc565b60405180910390fd5b336000806101000a81548173ffffffffffffffffffffffffffffffffffffffff021916908373ffffffffffffffffffffffffffffffffffffffff16021790555081600160006101000a81548173ffffffffffffffffffffffffffffffffffffffff021916908373ffffffffffffffffffffffffffffffffffffffff16021790555080600360006101000a81548173ffffffffffffffffffffffffffffffffffffffff021916908373ffffffffffffffffffffffffffffffffffffffff1602179055505050620002de565b600080fd5b600073ffffffffffffffffffffffffffffffffffffffff82169050919050565b600062000197826200016a565b9050919050565b620001a9816200018a565b8114620001b557600080fd5b50565b600081519050620001c9816200019e565b92915050565b6000620001dc826200016a565b9050919050565b620001ee81620001cf565b8114620001fa57600080fd5b50565b6000815190506200020e81620001e3565b92915050565b600080604083850312156200022e576200022d62000165565b5b60006200023e85828601620001b8565b92505060206200025185828601620001fd565b9150509250929050565b600082825260208201905092915050565b7f7265636569766572203d207a65726f2061646472657373000000000000000000600082015250565b6000620002a46017836200025b565b9150620002b1826200026c565b602082019050919050565b60006020820190508181036000830152620002d78162000295565b9050919050565b610a8e80620002ee6000396000f3fe6080604052600436106100705760003560e01c806367e404ce1161004e57806367e404ce146100e257806390d6b45f1461010d578063dbd81fc114610138578063f7260d3e1461014257610070565b806312065fe0146100755780633d6cfcd1146100a057806349b85a16146100b7575b600080fd5b34801561008157600080fd5b5061008a61016d565b604051610097919061041f565b60405180910390f35b3480156100ac57600080fd5b506100b5610175565b005b3480156100c357600080fd5b506100cc610295565b6040516100d9919061047b565b60405180910390f35b3480156100ee57600080fd5b506100f76102bb565b60405161010491906104b7565b60405180910390f35b34801561011957600080fd5b506101226102df565b60405161012f9190610531565b60405180910390f35b610140610305565b005b34801561014e57600080fd5b506101576103e0565b60405161016491906104b7565b60405180910390f35b600047905090565b6000600360009054906101000a900473ffffffffffffffffffffffffffffffffffffffff1673ffffffffffffffffffffffffffffffffffffffff16636386c1c760008054906101000a900473ffffffffffffffffffffffffffffffffffffffff166040518263ffffffff1660e01b81526004016101f291906104b7565b600060405180830381865afa15801561020f573d6000803e3d6000fd5b505050506040513d6000823e3d601f19601f8201168201806040525081019061023891906108a9565b60008151811061024b5761024a6108f2565b5b60200260200101516040015190507fc35d6dbbad810bb0fb26d3fd7c07a09c5afd64d647208c93d211dcac94b8349b814260405161028a929190610976565b60405180910390a150565b600260009054906101000a900473ffffffffffffffffffffffffffffffffffffffff1681565b60008054906101000a900473ffffffffffffffffffffffffffffffffffffffff1681565b600360009054906101000a900473ffffffffffffffffffffffffffffffffffffffff1681565b600080600160009054906101000a900473ffffffffffffffffffffffffffffffffffffffff1673ffffffffffffffffffffffffffffffffffffffff1661034961016d565b604051610355906109d7565b60006040518083038185875af1925050503d8060008114610392576040519150601f19603f3d011682016040523d82523d6000602084013e610397565b606091505b5091509150816103dc576040517f08c379a00000000000000000000000000000000000000000000000000000000081526004016103d390610a38565b60405180910390fd5b5050565b600160009054906101000a900473ffffffffffffffffffffffffffffffffffffffff1681565b6000819050919050565b61041981610406565b82525050565b60006020820190506104346000830184610410565b92915050565b600073ffffffffffffffffffffffffffffffffffffffff82169050919050565b60006104658261043a565b9050919050565b6104758161045a565b82525050565b6000602082019050610490600083018461046c565b92915050565b60006104a18261043a565b9050919050565b6104b181610496565b82525050565b60006020820190506104cc60008301846104a8565b92915050565b6000819050919050565b60006104f76104f26104ed8461043a565b6104d2565b61043a565b9050919050565b6000610509826104dc565b9050919050565b600061051b826104fe565b9050919050565b61052b81610510565b82525050565b60006020820190506105466000830184610522565b92915050565b6000604051905090565b600080fd5b600080fd5b600080fd5b6000601f19601f8301169050919050565b7f4e487b7100000000000000000000000000000000000000000000000000000000600052604160045260246000fd5b6105ae82610565565b810181811067ffffffffffffffff821117156105cd576105cc610576565b5b80604052505050565b60006105e061054c565b90506105ec82826105a5565b919050565b600067ffffffffffffffff82111561060c5761060b610576565b5b602082029050602081019050919050565b600080fd5b600080fd5b600080fd5b6106358161045a565b811461064057600080fd5b50565b6000815190506106528161062c565b92915050565b600080fd5b600067ffffffffffffffff82111561067857610677610576565b5b61068182610565565b9050602081019050919050565b60005b838110156106ac578082015181840152602081019050610691565b60008484015250505050565b60006106cb6106c68461065d565b6105d6565b9050828152602081018484840111156106e7576106e6610658565b5b6106f284828561068e565b509392505050565b600082601f83011261070f5761070e610560565b5b815161071f8482602086016106b8565b91505092915050565b60006080828403121561073e5761073d610622565b5b61074860806105d6565b9050600061075884828501610643565b600083015250602082015167ffffffffffffffff81111561077c5761077b610627565b5b610788848285016106fa565b602083015250604082015167ffffffffffffffff8111156107ac576107ab610627565b5b6107b8848285016106fa565b604083015250606082015167ffffffffffffffff8111156107dc576107db610627565b5b6107e8848285016106fa565b60608301525092915050565b6000610807610802846105f1565b6105d6565b9050808382526020820190506020840283018581111561082a5761082961061d565b5b835b8181101561087157805167ffffffffffffffff81111561084f5761084e610560565b5b80860161085c8982610728565b8552602085019450505060208101905061082c565b5050509392505050565b600082601f8301126108905761088f610560565b5b81516108a08482602086016107f4565b91505092915050565b6000602082840312156108bf576108be610556565b5b600082015167ffffffffffffffff8111156108dd576108dc61055b565b5b6108e98482850161087b565b91505092915050565b7f4e487b7100000000000000000000000000000000000000000000000000000000600052603260045260246000fd5b600081519050919050565b600082825260208201905092915050565b600061094882610921565b610952818561092c565b935061096281856020860161068e565b61096b81610565565b840191505092915050565b60006040820190508181036000830152610990818561093d565b905061099f6020830184610410565b9392505050565b600081905092915050565b50565b60006109c16000836109a6565b91506109cc826109b1565b600082019050919050565b60006109e2826109b4565b9150819050919050565b7f4661696c656420746f2073656e64204574686572000000000000000000000000600082015250565b6000610a2260148361092c565b9150610a2d826109ec565b602082019050919050565b60006020820190508181036000830152610a5181610a15565b905091905056fea2646970667358221220a2da6376dc63867198856ef10fb4e2c017d9e4f00043c1532b2f3b9a5dee3cae64736f6c63430008110033",
					"opcodes": "PUSH1 0x80 PUSH1 0x40 MSTORE PUSH1 0x40 MLOAD PUSH3 0xD7C CODESIZE SUB DUP1 PUSH3 0xD7C DUP4 CODECOPY DUP2 DUP2 ADD PUSH1 0x40 MSTORE DUP2 ADD SWAP1 PUSH3 0x29 SWAP2 SWAP1 PUSH3 0x214 JUMP JUMPDEST PUSH1 0x0 PUSH20 0xFFFFFFFFFFFFFFFFFFFFFFFFFFFFFFFFFFFFFFFF AND DUP3 PUSH20 0xFFFFFFFFFFFFFFFFFFFFFFFFFFFFFFFFFFFFFFFF AND SUB PUSH3 0x9B JUMPI PUSH1 0x40 MLOAD PUSH32 0x8C379A000000000000000000000000000000000000000000000000000000000 DUP2 MSTORE PUSH1 0x4 ADD PUSH3 0x92 SWAP1 PUSH3 0x2BC JUMP JUMPDEST PUSH1 0x40 MLOAD DUP1 SWAP2 SUB SWAP1 REVERT JUMPDEST CALLER PUSH1 0x0 DUP1 PUSH2 0x100 EXP DUP2 SLOAD DUP2 PUSH20 0xFFFFFFFFFFFFFFFFFFFFFFFFFFFFFFFFFFFFFFFF MUL NOT AND SWAP1 DUP4 PUSH20 0xFFFFFFFFFFFFFFFFFFFFFFFFFFFFFFFFFFFFFFFF AND MUL OR SWAP1 SSTORE POP DUP2 PUSH1 0x1 PUSH1 0x0 PUSH2 0x100 EXP DUP2 SLOAD DUP2 PUSH20 0xFFFFFFFFFFFFFFFFFFFFFFFFFFFFFFFFFFFFFFFF MUL NOT AND SWAP1 DUP4 PUSH20 0xFFFFFFFFFFFFFFFFFFFFFFFFFFFFFFFFFFFFFFFF AND MUL OR SWAP1 SSTORE POP DUP1 PUSH1 0x3 PUSH1 0x0 PUSH2 0x100 EXP DUP2 SLOAD DUP2 PUSH20 0xFFFFFFFFFFFFFFFFFFFFFFFFFFFFFFFFFFFFFFFF MUL NOT AND SWAP1 DUP4 PUSH20 0xFFFFFFFFFFFFFFFFFFFFFFFFFFFFFFFFFFFFFFFF AND MUL OR SWAP1 SSTORE POP POP POP PUSH3 0x2DE JUMP JUMPDEST PUSH1 0x0 DUP1 REVERT JUMPDEST PUSH1 0x0 PUSH20 0xFFFFFFFFFFFFFFFFFFFFFFFFFFFFFFFFFFFFFFFF DUP3 AND SWAP1 POP SWAP2 SWAP1 POP JUMP JUMPDEST PUSH1 0x0 PUSH3 0x197 DUP3 PUSH3 0x16A JUMP JUMPDEST SWAP1 POP SWAP2 SWAP1 POP JUMP JUMPDEST PUSH3 0x1A9 DUP2 PUSH3 0x18A JUMP JUMPDEST DUP2 EQ PUSH3 0x1B5 JUMPI PUSH1 0x0 DUP1 REVERT JUMPDEST POP JUMP JUMPDEST PUSH1 0x0 DUP2 MLOAD SWAP1 POP PUSH3 0x1C9 DUP2 PUSH3 0x19E JUMP JUMPDEST SWAP3 SWAP2 POP POP JUMP JUMPDEST PUSH1 0x0 PUSH3 0x1DC DUP3 PUSH3 0x16A JUMP JUMPDEST SWAP1 POP SWAP2 SWAP1 POP JUMP JUMPDEST PUSH3 0x1EE DUP2 PUSH3 0x1CF JUMP JUMPDEST DUP2 EQ PUSH3 0x1FA JUMPI PUSH1 0x0 DUP1 REVERT JUMPDEST POP JUMP JUMPDEST PUSH1 0x0 DUP2 MLOAD SWAP1 POP PUSH3 0x20E DUP2 PUSH3 0x1E3 JUMP JUMPDEST SWAP3 SWAP2 POP POP JUMP JUMPDEST PUSH1 0x0 DUP1 PUSH1 0x40 DUP4 DUP6 SUB SLT ISZERO PUSH3 0x22E JUMPI PUSH3 0x22D PUSH3 0x165 JUMP JUMPDEST JUMPDEST PUSH1 0x0 PUSH3 0x23E DUP6 DUP3 DUP7 ADD PUSH3 0x1B8 JUMP JUMPDEST SWAP3 POP POP PUSH1 0x20 PUSH3 0x251 DUP6 DUP3 DUP7 ADD PUSH3 0x1FD JUMP JUMPDEST SWAP2 POP POP SWAP3 POP SWAP3 SWAP1 POP JUMP JUMPDEST PUSH1 0x0 DUP3 DUP3 MSTORE PUSH1 0x20 DUP3 ADD SWAP1 POP SWAP3 SWAP2 POP POP JUMP JUMPDEST PUSH32 0x7265636569766572203D207A65726F2061646472657373000000000000000000 PUSH1 0x0 DUP3 ADD MSTORE POP JUMP JUMPDEST PUSH1 0x0 PUSH3 0x2A4 PUSH1 0x17 DUP4 PUSH3 0x25B JUMP JUMPDEST SWAP2 POP PUSH3 0x2B1 DUP3 PUSH3 0x26C JUMP JUMPDEST PUSH1 0x20 DUP3 ADD SWAP1 POP SWAP2 SWAP1 POP JUMP JUMPDEST PUSH1 0x0 PUSH1 0x20 DUP3 ADD SWAP1 POP DUP2 DUP2 SUB PUSH1 0x0 DUP4 ADD MSTORE PUSH3 0x2D7 DUP2 PUSH3 0x295 JUMP JUMPDEST SWAP1 POP SWAP2 SWAP1 POP JUMP JUMPDEST PUSH2 0xA8E DUP1 PUSH3 0x2EE PUSH1 0x0 CODECOPY PUSH1 0x0 RETURN INVALID PUSH1 0x80 PUSH1 0x40 MSTORE PUSH1 0x4 CALLDATASIZE LT PUSH2 0x70 JUMPI PUSH1 0x0 CALLDATALOAD PUSH1 0xE0 SHR DUP1 PUSH4 0x67E404CE GT PUSH2 0x4E JUMPI DUP1 PUSH4 0x67E404CE EQ PUSH2 0xE2 JUMPI DUP1 PUSH4 0x90D6B45F EQ PUSH2 0x10D JUMPI DUP1 PUSH4 0xDBD81FC1 EQ PUSH2 0x138 JUMPI DUP1 PUSH4 0xF7260D3E EQ PUSH2 0x142 JUMPI PUSH2 0x70 JUMP JUMPDEST DUP1 PUSH4 0x12065FE0 EQ PUSH2 0x75 JUMPI DUP1 PUSH4 0x3D6CFCD1 EQ PUSH2 0xA0 JUMPI DUP1 PUSH4 0x49B85A16 EQ PUSH2 0xB7 JUMPI JUMPDEST PUSH1 0x0 DUP1 REVERT JUMPDEST CALLVALUE DUP1 ISZERO PUSH2 0x81 JUMPI PUSH1 0x0 DUP1 REVERT JUMPDEST POP PUSH2 0x8A PUSH2 0x16D JUMP JUMPDEST PUSH1 0x40 MLOAD PUSH2 0x97 SWAP2 SWAP1 PUSH2 0x41F JUMP JUMPDEST PUSH1 0x40 MLOAD DUP1 SWAP2 SUB SWAP1 RETURN JUMPDEST CALLVALUE DUP1 ISZERO PUSH2 0xAC JUMPI PUSH1 0x0 DUP1 REVERT JUMPDEST POP PUSH2 0xB5 PUSH2 0x175 JUMP JUMPDEST STOP JUMPDEST CALLVALUE DUP1 ISZERO PUSH2 0xC3 JUMPI PUSH1 0x0 DUP1 REVERT JUMPDEST POP PUSH2 0xCC PUSH2 0x295 JUMP JUMPDEST PUSH1 0x40 MLOAD PUSH2 0xD9 SWAP2 SWAP1 PUSH2 0x47B JUMP JUMPDEST PUSH1 0x40 MLOAD DUP1 SWAP2 SUB SWAP1 RETURN JUMPDEST CALLVALUE DUP1 ISZERO PUSH2 0xEE JUMPI PUSH1 0x0 DUP1 REVERT JUMPDEST POP PUSH2 0xF7 PUSH2 0x2BB JUMP JUMPDEST PUSH1 0x40 MLOAD PUSH2 0x104 SWAP2 SWAP1 PUSH2 0x4B7 JUMP JUMPDEST PUSH1 0x40 MLOAD DUP1 SWAP2 SUB SWAP1 RETURN JUMPDEST CALLVALUE DUP1 ISZERO PUSH2 0x119 JUMPI PUSH1 0x0 DUP1 REVERT JUMPDEST POP PUSH2 0x122 PUSH2 0x2DF JUMP JUMPDEST PUSH1 0x40 MLOAD PUSH2 0x12F SWAP2 SWAP1 PUSH2 0x531 JUMP JUMPDEST PUSH1 0x40 MLOAD DUP1 SWAP2 SUB SWAP1 RETURN JUMPDEST PUSH2 0x140 PUSH2 0x305 JUMP JUMPDEST STOP JUMPDEST CALLVALUE DUP1 ISZERO PUSH2 0x14E JUMPI PUSH1 0x0 DUP1 REVERT JUMPDEST POP PUSH2 0x157 PUSH2 0x3E0 JUMP JUMPDEST PUSH1 0x40 MLOAD PUSH2 0x164 SWAP2 SWAP1 PUSH2 0x4B7 JUMP JUMPDEST PUSH1 0x40 MLOAD DUP1 SWAP2 SUB SWAP1 RETURN JUMPDEST PUSH1 0x0 SELFBALANCE SWAP1 POP SWAP1 JUMP JUMPDEST PUSH1 0x0 PUSH1 0x3 PUSH1 0x0 SWAP1 SLOAD SWAP1 PUSH2 0x100 EXP SWAP1 DIV PUSH20 0xFFFFFFFFFFFFFFFFFFFFFFFFFFFFFFFFFFFFFFFF AND PUSH20 0xFFFFFFFFFFFFFFFFFFFFFFFFFFFFFFFFFFFFFFFF AND PUSH4 0x6386C1C7 PUSH1 0x0 DUP1 SLOAD SWAP1 PUSH2 0x100 EXP SWAP1 DIV PUSH20 0xFFFFFFFFFFFFFFFFFFFFFFFFFFFFFFFFFFFFFFFF AND PUSH1 0x40 MLOAD DUP3 PUSH4 0xFFFFFFFF AND PUSH1 0xE0 SHL DUP2 MSTORE PUSH1 0x4 ADD PUSH2 0x1F2 SWAP2 SWAP1 PUSH2 0x4B7 JUMP JUMPDEST PUSH1 0x0 PUSH1 0x40 MLOAD DUP1 DUP4 SUB DUP2 DUP7 GAS STATICCALL ISZERO DUP1 ISZERO PUSH2 0x20F JUMPI RETURNDATASIZE PUSH1 0x0 DUP1 RETURNDATACOPY RETURNDATASIZE PUSH1 0x0 REVERT JUMPDEST POP POP POP POP PUSH1 0x40 MLOAD RETURNDATASIZE PUSH1 0x0 DUP3 RETURNDATACOPY RETURNDATASIZE PUSH1 0x1F NOT PUSH1 0x1F DUP3 ADD AND DUP3 ADD DUP1 PUSH1 0x40 MSTORE POP DUP2 ADD SWAP1 PUSH2 0x238 SWAP2 SWAP1 PUSH2 0x8A9 JUMP JUMPDEST PUSH1 0x0 DUP2 MLOAD DUP2 LT PUSH2 0x24B JUMPI PUSH2 0x24A PUSH2 0x8F2 JUMP JUMPDEST JUMPDEST PUSH1 0x20 MUL PUSH1 0x20 ADD ADD MLOAD PUSH1 0x40 ADD MLOAD SWAP1 POP PUSH32 0xC35D6DBBAD810BB0FB26D3FD7C07A09C5AFD64D647208C93D211DCAC94B8349B DUP2 TIMESTAMP PUSH1 0x40 MLOAD PUSH2 0x28A SWAP3 SWAP2 SWAP1 PUSH2 0x976 JUMP JUMPDEST PUSH1 0x40 MLOAD DUP1 SWAP2 SUB SWAP1 LOG1 POP JUMP JUMPDEST PUSH1 0x2 PUSH1 0x0 SWAP1 SLOAD SWAP1 PUSH2 0x100 EXP SWAP1 DIV PUSH20 0xFFFFFFFFFFFFFFFFFFFFFFFFFFFFFFFFFFFFFFFF AND DUP2 JUMP JUMPDEST PUSH1 0x0 DUP1 SLOAD SWAP1 PUSH2 0x100 EXP SWAP1 DIV PUSH20 0xFFFFFFFFFFFFFFFFFFFFFFFFFFFFFFFFFFFFFFFF AND DUP2 JUMP JUMPDEST PUSH1 0x3 PUSH1 0x0 SWAP1 SLOAD SWAP1 PUSH2 0x100 EXP SWAP1 DIV PUSH20 0xFFFFFFFFFFFFFFFFFFFFFFFFFFFFFFFFFFFFFFFF AND DUP2 JUMP JUMPDEST PUSH1 0x0 DUP1 PUSH1 0x1 PUSH1 0x0 SWAP1 SLOAD SWAP1 PUSH2 0x100 EXP SWAP1 DIV PUSH20 0xFFFFFFFFFFFFFFFFFFFFFFFFFFFFFFFFFFFFFFFF AND PUSH20 0xFFFFFFFFFFFFFFFFFFFFFFFFFFFFFFFFFFFFFFFF AND PUSH2 0x349 PUSH2 0x16D JUMP JUMPDEST PUSH1 0x40 MLOAD PUSH2 0x355 SWAP1 PUSH2 0x9D7 JUMP JUMPDEST PUSH1 0x0 PUSH1 0x40 MLOAD DUP1 DUP4 SUB DUP2 DUP6 DUP8 GAS CALL SWAP3 POP POP POP RETURNDATASIZE DUP1 PUSH1 0x0 DUP2 EQ PUSH2 0x392 JUMPI PUSH1 0x40 MLOAD SWAP2 POP PUSH1 0x1F NOT PUSH1 0x3F RETURNDATASIZE ADD AND DUP3 ADD PUSH1 0x40 MSTORE RETURNDATASIZE DUP3 MSTORE RETURNDATASIZE PUSH1 0x0 PUSH1 0x20 DUP5 ADD RETURNDATACOPY PUSH2 0x397 JUMP JUMPDEST PUSH1 0x60 SWAP2 POP JUMPDEST POP SWAP2 POP SWAP2 POP DUP2 PUSH2 0x3DC JUMPI PUSH1 0x40 MLOAD PUSH32 0x8C379A000000000000000000000000000000000000000000000000000000000 DUP2 MSTORE PUSH1 0x4 ADD PUSH2 0x3D3 SWAP1 PUSH2 0xA38 JUMP JUMPDEST PUSH1 0x40 MLOAD DUP1 SWAP2 SUB SWAP1 REVERT JUMPDEST POP POP JUMP JUMPDEST PUSH1 0x1 PUSH1 0x0 SWAP1 SLOAD SWAP1 PUSH2 0x100 EXP SWAP1 DIV PUSH20 0xFFFFFFFFFFFFFFFFFFFFFFFFFFFFFFFFFFFFFFFF AND DUP2 JUMP JUMPDEST PUSH1 0x0 DUP2 SWAP1 POP SWAP2 SWAP1 POP JUMP JUMPDEST PUSH2 0x419 DUP2 PUSH2 0x406 JUMP JUMPDEST DUP3 MSTORE POP POP JUMP JUMPDEST PUSH1 0x0 PUSH1 0x20 DUP3 ADD SWAP1 POP PUSH2 0x434 PUSH1 0x0 DUP4 ADD DUP5 PUSH2 0x410 JUMP JUMPDEST SWAP3 SWAP2 POP POP JUMP JUMPDEST PUSH1 0x0 PUSH20 0xFFFFFFFFFFFFFFFFFFFFFFFFFFFFFFFFFFFFFFFF DUP3 AND SWAP1 POP SWAP2 SWAP1 POP JUMP JUMPDEST PUSH1 0x0 PUSH2 0x465 DUP3 PUSH2 0x43A JUMP JUMPDEST SWAP1 POP SWAP2 SWAP1 POP JUMP JUMPDEST PUSH2 0x475 DUP2 PUSH2 0x45A JUMP JUMPDEST DUP3 MSTORE POP POP JUMP JUMPDEST PUSH1 0x0 PUSH1 0x20 DUP3 ADD SWAP1 POP PUSH2 0x490 PUSH1 0x0 DUP4 ADD DUP5 PUSH2 0x46C JUMP JUMPDEST SWAP3 SWAP2 POP POP JUMP JUMPDEST PUSH1 0x0 PUSH2 0x4A1 DUP3 PUSH2 0x43A JUMP JUMPDEST SWAP1 POP SWAP2 SWAP1 POP JUMP JUMPDEST PUSH2 0x4B1 DUP2 PUSH2 0x496 JUMP JUMPDEST DUP3 MSTORE POP POP JUMP JUMPDEST PUSH1 0x0 PUSH1 0x20 DUP3 ADD SWAP1 POP PUSH2 0x4CC PUSH1 0x0 DUP4 ADD DUP5 PUSH2 0x4A8 JUMP JUMPDEST SWAP3 SWAP2 POP POP JUMP JUMPDEST PUSH1 0x0 DUP2 SWAP1 POP SWAP2 SWAP1 POP JUMP JUMPDEST PUSH1 0x0 PUSH2 0x4F7 PUSH2 0x4F2 PUSH2 0x4ED DUP5 PUSH2 0x43A JUMP JUMPDEST PUSH2 0x4D2 JUMP JUMPDEST PUSH2 0x43A JUMP JUMPDEST SWAP1 POP SWAP2 SWAP1 POP JUMP JUMPDEST PUSH1 0x0 PUSH2 0x509 DUP3 PUSH2 0x4DC JUMP JUMPDEST SWAP1 POP SWAP2 SWAP1 POP JUMP JUMPDEST PUSH1 0x0 PUSH2 0x51B DUP3 PUSH2 0x4FE JUMP JUMPDEST SWAP1 POP SWAP2 SWAP1 POP JUMP JUMPDEST PUSH2 0x52B DUP2 PUSH2 0x510 JUMP JUMPDEST DUP3 MSTORE POP POP JUMP JUMPDEST PUSH1 0x0 PUSH1 0x20 DUP3 ADD SWAP1 POP PUSH2 0x546 PUSH1 0x0 DUP4 ADD DUP5 PUSH2 0x522 JUMP JUMPDEST SWAP3 SWAP2 POP POP JUMP JUMPDEST PUSH1 0x0 PUSH1 0x40 MLOAD SWAP1 POP SWAP1 JUMP JUMPDEST PUSH1 0x0 DUP1 REVERT JUMPDEST PUSH1 0x0 DUP1 REVERT JUMPDEST PUSH1 0x0 DUP1 REVERT JUMPDEST PUSH1 0x0 PUSH1 0x1F NOT PUSH1 0x1F DUP4 ADD AND SWAP1 POP SWAP2 SWAP1 POP JUMP JUMPDEST PUSH32 0x4E487B7100000000000000000000000000000000000000000000000000000000 PUSH1 0x0 MSTORE PUSH1 0x41 PUSH1 0x4 MSTORE PUSH1 0x24 PUSH1 0x0 REVERT JUMPDEST PUSH2 0x5AE DUP3 PUSH2 0x565 JUMP JUMPDEST DUP2 ADD DUP2 DUP2 LT PUSH8 0xFFFFFFFFFFFFFFFF DUP3 GT OR ISZERO PUSH2 0x5CD JUMPI PUSH2 0x5CC PUSH2 0x576 JUMP JUMPDEST JUMPDEST DUP1 PUSH1 0x40 MSTORE POP POP POP JUMP JUMPDEST PUSH1 0x0 PUSH2 0x5E0 PUSH2 0x54C JUMP JUMPDEST SWAP1 POP PUSH2 0x5EC DUP3 DUP3 PUSH2 0x5A5 JUMP JUMPDEST SWAP2 SWAP1 POP JUMP JUMPDEST PUSH1 0x0 PUSH8 0xFFFFFFFFFFFFFFFF DUP3 GT ISZERO PUSH2 0x60C JUMPI PUSH2 0x60B PUSH2 0x576 JUMP JUMPDEST JUMPDEST PUSH1 0x20 DUP3 MUL SWAP1 POP PUSH1 0x20 DUP2 ADD SWAP1 POP SWAP2 SWAP1 POP JUMP JUMPDEST PUSH1 0x0 DUP1 REVERT JUMPDEST PUSH1 0x0 DUP1 REVERT JUMPDEST PUSH1 0x0 DUP1 REVERT JUMPDEST PUSH2 0x635 DUP2 PUSH2 0x45A JUMP JUMPDEST DUP2 EQ PUSH2 0x640 JUMPI PUSH1 0x0 DUP1 REVERT JUMPDEST POP JUMP JUMPDEST PUSH1 0x0 DUP2 MLOAD SWAP1 POP PUSH2 0x652 DUP2 PUSH2 0x62C JUMP JUMPDEST SWAP3 SWAP2 POP POP JUMP JUMPDEST PUSH1 0x0 DUP1 REVERT JUMPDEST PUSH1 0x0 PUSH8 0xFFFFFFFFFFFFFFFF DUP3 GT ISZERO PUSH2 0x678 JUMPI PUSH2 0x677 PUSH2 0x576 JUMP JUMPDEST JUMPDEST PUSH2 0x681 DUP3 PUSH2 0x565 JUMP JUMPDEST SWAP1 POP PUSH1 0x20 DUP2 ADD SWAP1 POP SWAP2 SWAP1 POP JUMP JUMPDEST PUSH1 0x0 JUMPDEST DUP4 DUP2 LT ISZERO PUSH2 0x6AC JUMPI DUP1 DUP3 ADD MLOAD DUP2 DUP5 ADD MSTORE PUSH1 0x20 DUP2 ADD SWAP1 POP PUSH2 0x691 JUMP JUMPDEST PUSH1 0x0 DUP5 DUP5 ADD MSTORE POP POP POP POP JUMP JUMPDEST PUSH1 0x0 PUSH2 0x6CB PUSH2 0x6C6 DUP5 PUSH2 0x65D JUMP JUMPDEST PUSH2 0x5D6 JUMP JUMPDEST SWAP1 POP DUP3 DUP2 MSTORE PUSH1 0x20 DUP2 ADD DUP5 DUP5 DUP5 ADD GT ISZERO PUSH2 0x6E7 JUMPI PUSH2 0x6E6 PUSH2 0x658 JUMP JUMPDEST JUMPDEST PUSH2 0x6F2 DUP5 DUP3 DUP6 PUSH2 0x68E JUMP JUMPDEST POP SWAP4 SWAP3 POP POP POP JUMP JUMPDEST PUSH1 0x0 DUP3 PUSH1 0x1F DUP4 ADD SLT PUSH2 0x70F JUMPI PUSH2 0x70E PUSH2 0x560 JUMP JUMPDEST JUMPDEST DUP2 MLOAD PUSH2 0x71F DUP5 DUP3 PUSH1 0x20 DUP7 ADD PUSH2 0x6B8 JUMP JUMPDEST SWAP2 POP POP SWAP3 SWAP2 POP POP JUMP JUMPDEST PUSH1 0x0 PUSH1 0x80 DUP3 DUP5 SUB SLT ISZERO PUSH2 0x73E JUMPI PUSH2 0x73D PUSH2 0x622 JUMP JUMPDEST JUMPDEST PUSH2 0x748 PUSH1 0x80 PUSH2 0x5D6 JUMP JUMPDEST SWAP1 POP PUSH1 0x0 PUSH2 0x758 DUP5 DUP3 DUP6 ADD PUSH2 0x643 JUMP JUMPDEST PUSH1 0x0 DUP4 ADD MSTORE POP PUSH1 0x20 DUP3 ADD MLOAD PUSH8 0xFFFFFFFFFFFFFFFF DUP2 GT ISZERO PUSH2 0x77C JUMPI PUSH2 0x77B PUSH2 0x627 JUMP JUMPDEST JUMPDEST PUSH2 0x788 DUP5 DUP3 DUP6 ADD PUSH2 0x6FA JUMP JUMPDEST PUSH1 0x20 DUP4 ADD MSTORE POP PUSH1 0x40 DUP3 ADD MLOAD PUSH8 0xFFFFFFFFFFFFFFFF DUP2 GT ISZERO PUSH2 0x7AC JUMPI PUSH2 0x7AB PUSH2 0x627 JUMP JUMPDEST JUMPDEST PUSH2 0x7B8 DUP5 DUP3 DUP6 ADD PUSH2 0x6FA JUMP JUMPDEST PUSH1 0x40 DUP4 ADD MSTORE POP PUSH1 0x60 DUP3 ADD MLOAD PUSH8 0xFFFFFFFFFFFFFFFF DUP2 GT ISZERO PUSH2 0x7DC JUMPI PUSH2 0x7DB PUSH2 0x627 JUMP JUMPDEST JUMPDEST PUSH2 0x7E8 DUP5 DUP3 DUP6 ADD PUSH2 0x6FA JUMP JUMPDEST PUSH1 0x60 DUP4 ADD MSTORE POP SWAP3 SWAP2 POP POP JUMP JUMPDEST PUSH1 0x0 PUSH2 0x807 PUSH2 0x802 DUP5 PUSH2 0x5F1 JUMP JUMPDEST PUSH2 0x5D6 JUMP JUMPDEST SWAP1 POP DUP1 DUP4 DUP3 MSTORE PUSH1 0x20 DUP3 ADD SWAP1 POP PUSH1 0x20 DUP5 MUL DUP4 ADD DUP6 DUP2 GT ISZERO PUSH2 0x82A JUMPI PUSH2 0x829 PUSH2 0x61D JUMP JUMPDEST JUMPDEST DUP4 JUMPDEST DUP2 DUP2 LT ISZERO PUSH2 0x871 JUMPI DUP1 MLOAD PUSH8 0xFFFFFFFFFFFFFFFF DUP2 GT ISZERO PUSH2 0x84F JUMPI PUSH2 0x84E PUSH2 0x560 JUMP JUMPDEST JUMPDEST DUP1 DUP7 ADD PUSH2 0x85C DUP10 DUP3 PUSH2 0x728 JUMP JUMPDEST DUP6 MSTORE PUSH1 0x20 DUP6 ADD SWAP5 POP POP POP PUSH1 0x20 DUP2 ADD SWAP1 POP PUSH2 0x82C JUMP JUMPDEST POP POP POP SWAP4 SWAP3 POP POP POP JUMP JUMPDEST PUSH1 0x0 DUP3 PUSH1 0x1F DUP4 ADD SLT PUSH2 0x890 JUMPI PUSH2 0x88F PUSH2 0x560 JUMP JUMPDEST JUMPDEST DUP2 MLOAD PUSH2 0x8A0 DUP5 DUP3 PUSH1 0x20 DUP7 ADD PUSH2 0x7F4 JUMP JUMPDEST SWAP2 POP POP SWAP3 SWAP2 POP POP JUMP JUMPDEST PUSH1 0x0 PUSH1 0x20 DUP3 DUP5 SUB SLT ISZERO PUSH2 0x8BF JUMPI PUSH2 0x8BE PUSH2 0x556 JUMP JUMPDEST JUMPDEST PUSH1 0x0 DUP3 ADD MLOAD PUSH8 0xFFFFFFFFFFFFFFFF DUP2 GT ISZERO PUSH2 0x8DD JUMPI PUSH2 0x8DC PUSH2 0x55B JUMP JUMPDEST JUMPDEST PUSH2 0x8E9 DUP5 DUP3 DUP6 ADD PUSH2 0x87B JUMP JUMPDEST SWAP2 POP POP SWAP3 SWAP2 POP POP JUMP JUMPDEST PUSH32 0x4E487B7100000000000000000000000000000000000000000000000000000000 PUSH1 0x0 MSTORE PUSH1 0x32 PUSH1 0x4 MSTORE PUSH1 0x24 PUSH1 0x0 REVERT JUMPDEST PUSH1 0x0 DUP2 MLOAD SWAP1 POP SWAP2 SWAP1 POP JUMP JUMPDEST PUSH1 0x0 DUP3 DUP3 MSTORE PUSH1 0x20 DUP3 ADD SWAP1 POP SWAP3 SWAP2 POP POP JUMP JUMPDEST PUSH1 0x0 PUSH2 0x948 DUP3 PUSH2 0x921 JUMP JUMPDEST PUSH2 0x952 DUP2 DUP6 PUSH2 0x92C JUMP JUMPDEST SWAP4 POP PUSH2 0x962 DUP2 DUP6 PUSH1 0x20 DUP7 ADD PUSH2 0x68E JUMP JUMPDEST PUSH2 0x96B DUP2 PUSH2 0x565 JUMP JUMPDEST DUP5 ADD SWAP2 POP POP SWAP3 SWAP2 POP POP JUMP JUMPDEST PUSH1 0x0 PUSH1 0x40 DUP3 ADD SWAP1 POP DUP2 DUP2 SUB PUSH1 0x0 DUP4 ADD MSTORE PUSH2 0x990 DUP2 DUP6 PUSH2 0x93D JUMP JUMPDEST SWAP1 POP PUSH2 0x99F PUSH1 0x20 DUP4 ADD DUP5 PUSH2 0x410 JUMP JUMPDEST SWAP4 SWAP3 POP POP POP JUMP JUMPDEST PUSH1 0x0 DUP2 SWAP1 POP SWAP3 SWAP2 POP POP JUMP JUMPDEST POP JUMP JUMPDEST PUSH1 0x0 PUSH2 0x9C1 PUSH1 0x0 DUP4 PUSH2 0x9A6 JUMP JUMPDEST SWAP2 POP PUSH2 0x9CC DUP3 PUSH2 0x9B1 JUMP JUMPDEST PUSH1 0x0 DUP3 ADD SWAP1 POP SWAP2 SWAP1 POP JUMP JUMPDEST PUSH1 0x0 PUSH2 0x9E2 DUP3 PUSH2 0x9B4 JUMP JUMPDEST SWAP2 POP DUP2 SWAP1 POP SWAP2 SWAP1 POP JUMP JUMPDEST PUSH32 0x4661696C656420746F2073656E64204574686572000000000000000000000000 PUSH1 0x0 DUP3 ADD MSTORE POP JUMP JUMPDEST PUSH1 0x0 PUSH2 0xA22 PUSH1 0x14 DUP4 PUSH2 0x92C JUMP JUMPDEST SWAP2 POP PUSH2 0xA2D DUP3 PUSH2 0x9EC JUMP JUMPDEST PUSH1 0x20 DUP3 ADD SWAP1 POP SWAP2 SWAP1 POP JUMP JUMPDEST PUSH1 0x0 PUSH1 0x20 DUP3 ADD SWAP1 POP DUP2 DUP2 SUB PUSH1 0x0 DUP4 ADD MSTORE PUSH2 0xA51 DUP2 PUSH2 0xA15 JUMP JUMPDEST SWAP1 POP SWAP2 SWAP1 POP JUMP INVALID LOG2 PUSH5 0x6970667358 0x22 SLT KECCAK256 LOG2 0xDA PUSH4 0x76DC6386 PUSH18 0x98856EF10FB4E2C017D9E4F00043C1532B2F EXTCODESIZE SWAP11 0x5D 0xEE EXTCODECOPY 0xAE PUSH5 0x736F6C6343 STOP ADDMOD GT STOP CALLER "
				},
				"gasEstimates": {
					"creation": {
						"codeDepositCost": "540400",
						"executionCost": "infinite",
						"totalCost": "infinite"
					},
					"external": {
						"getBalance()": "340",
						"kyc()": "infinite",
						"kycAddress()": "2559",
						"processing()": "infinite",
						"receiver()": "2580",
						"sendViaCall()": "infinite",
						"sender()": "2511"
					}
				},
				"methodIdentifiers": {
					"getBalance()": "12065fe0",
					"kyc()": "90d6b45f",
					"kycAddress()": "49b85a16",
					"processing()": "3d6cfcd1",
					"receiver()": "f7260d3e",
					"sendViaCall()": "dbd81fc1",
					"sender()": "67e404ce"
				}
			},
			"storageLayout": {
				"storage": [
					{
						"astId": 96,
						"contract": "contracts/TransactionProcessing.sol:TransactionProcessing",
						"label": "sender",
						"offset": 0,
						"slot": "0",
						"type": "t_address_payable"
					},
					{
						"astId": 98,
						"contract": "contracts/TransactionProcessing.sol:TransactionProcessing",
						"label": "receiver",
						"offset": 0,
						"slot": "1",
						"type": "t_address_payable"
					},
					{
						"astId": 100,
						"contract": "contracts/TransactionProcessing.sol:TransactionProcessing",
						"label": "kycAddress",
						"offset": 0,
						"slot": "2",
						"type": "t_address"
					},
					{
						"astId": 103,
						"contract": "contracts/TransactionProcessing.sol:TransactionProcessing",
						"label": "kyc",
						"offset": 0,
						"slot": "3",
						"type": "t_contract(KYC)85"
					}
				],
				"types": {
					"t_address": {
						"encoding": "inplace",
						"label": "address",
						"numberOfBytes": "20"
					},
					"t_address_payable": {
						"encoding": "inplace",
						"label": "address payable",
						"numberOfBytes": "20"
					},
					"t_contract(KYC)85": {
						"encoding": "inplace",
						"label": "contract KYC",
						"numberOfBytes": "20"
					}
				}
			},
			"userdoc": {
				"kind": "user",
				"methods": {},
				"version": 1
			}
		}
	}
}