{
	"contracts/SgAML.sol": {
		"SgAML": {
			"abi": [
				{
					"inputs": [
						{
							"internalType": "address payable",
							"name": "sender",
							"type": "address"
						},
						{
							"internalType": "uint256",
							"name": "amount",
							"type": "uint256"
						}
					],
					"name": "checkAmt",
					"outputs": [
						{
							"internalType": "bool",
							"name": "",
							"type": "bool"
						}
					],
					"stateMutability": "payable",
					"type": "function"
				},
				{
					"inputs": [
						{
							"components": [
								{
									"internalType": "address",
									"name": "userAddress",
									"type": "address"
								},
								{
									"internalType": "string",
									"name": "role",
									"type": "string"
								},
								{
									"internalType": "string",
									"name": "firstName",
									"type": "string"
								},
								{
									"internalType": "string",
									"name": "lastName",
									"type": "string"
								},
								{
									"internalType": "string",
									"name": "country",
									"type": "string"
								},
								{
									"internalType": "string",
									"name": "location",
									"type": "string"
								},
								{
									"internalType": "string",
									"name": "nationality",
									"type": "string"
								},
								{
									"internalType": "bool",
									"name": "isPoliticallyExposed",
									"type": "bool"
								}
							],
							"internalType": "struct UserInfoLibrary.UserInfoStruct",
							"name": "senderUserInfo",
							"type": "tuple"
						},
						{
							"components": [
								{
									"internalType": "address",
									"name": "userAddress",
									"type": "address"
								},
								{
									"internalType": "string",
									"name": "role",
									"type": "string"
								},
								{
									"internalType": "string",
									"name": "firstName",
									"type": "string"
								},
								{
									"internalType": "string",
									"name": "lastName",
									"type": "string"
								},
								{
									"internalType": "string",
									"name": "country",
									"type": "string"
								},
								{
									"internalType": "string",
									"name": "location",
									"type": "string"
								},
								{
									"internalType": "string",
									"name": "nationality",
									"type": "string"
								},
								{
									"internalType": "bool",
									"name": "isPoliticallyExposed",
									"type": "bool"
								}
							],
							"internalType": "struct UserInfoLibrary.UserInfoStruct",
							"name": "receiverUserInfo",
							"type": "tuple"
						}
					],
					"name": "checkNationality",
					"outputs": [
						{
							"internalType": "bool",
							"name": "",
							"type": "bool"
						}
					],
					"stateMutability": "view",
					"type": "function"
				},
				{
					"inputs": [
						{
							"internalType": "bool",
							"name": "isPoliticallyExposed",
							"type": "bool"
						}
					],
					"name": "checkPoliticalStatus",
					"outputs": [
						{
							"internalType": "bool",
							"name": "",
							"type": "bool"
						}
					],
					"stateMutability": "pure",
					"type": "function"
				},
				{
					"inputs": [
						{
							"internalType": "address",
							"name": "sender",
							"type": "address"
						},
						{
							"internalType": "address",
							"name": "receiver",
							"type": "address"
						}
					],
					"name": "checkWantedIndividual",
					"outputs": [
						{
							"internalType": "bool",
							"name": "",
							"type": "bool"
						}
					],
					"stateMutability": "view",
					"type": "function"
				}
			],
			"devdoc": {
				"kind": "dev",
				"methods": {},
				"version": 1
			},
			"evm": {
				"assembly": "    /* \"contracts/SgAML.sol\":89:1848  contract SgAML {... */\n  mstore(0x40, 0x80)\n    /* \"contracts/SgAML.sol\":110:170  string[] bannedCountries = [\"Iraq\", \"North Korea\", \"Russia\"] */\n  mload(0x40)\n  dup1\n  0x60\n  add\n  0x40\n  mstore\n  dup1\n  mload(0x40)\n  dup1\n  0x40\n  add\n  0x40\n  mstore\n  dup1\n  0x04\n  dup2\n  mstore\n  0x20\n  add\n  0x4972617100000000000000000000000000000000000000000000000000000000\n  dup2\n  mstore\n  pop\n  dup2\n  mstore\n  0x20\n  add\n  mload(0x40)\n  dup1\n  0x40\n  add\n  0x40\n  mstore\n  dup1\n  0x0b\n  dup2\n  mstore\n  0x20\n  add\n  0x4e6f727468204b6f726561000000000000000000000000000000000000000000\n  dup2\n  mstore\n  pop\n  dup2\n  mstore\n  0x20\n  add\n  mload(0x40)\n  dup1\n  0x40\n  add\n  0x40\n  mstore\n  dup1\n  0x06\n  dup2\n  mstore\n  0x20\n  add\n  0x5275737369610000000000000000000000000000000000000000000000000000\n  dup2\n  mstore\n  pop\n  dup2\n  mstore\n  pop\n  0x00\n  swap1\n  0x03\n  tag_1\n  swap3\n  swap2\n  swap1\n  tag_2\n  jump\t// in\ntag_1:\n  pop\n    /* \"contracts/SgAML.sol\":196:198  30 */\n  0x1e\n    /* \"contracts/SgAML.sol\":176:198  uint256 maxAmount = 30 */\n  0x01\n  sstore\n    /* \"contracts/SgAML.sol\":204:278  address[] wantedIndividuals = [0x72A4Bbe493FC0A724460C9940eE6FAE5f9209D61] */\n  mload(0x40)\n  dup1\n  0x20\n  add\n  0x40\n  mstore\n  dup1\n    /* \"contracts/SgAML.sol\":235:277  0x72A4Bbe493FC0A724460C9940eE6FAE5f9209D61 */\n  0x72a4bbe493fc0a724460c9940ee6fae5f9209d61\n    /* \"contracts/SgAML.sol\":204:278  address[] wantedIndividuals = [0x72A4Bbe493FC0A724460C9940eE6FAE5f9209D61] */\n  0xffffffffffffffffffffffffffffffffffffffff\n  and\n  0xffffffffffffffffffffffffffffffffffffffff\n  and\n  dup2\n  mstore\n  pop\n  0x02\n  swap1\n  0x01\n  tag_3\n  swap3\n  swap2\n  swap1\n  tag_4\n  jump\t// in\ntag_3:\n  pop\n    /* \"contracts/SgAML.sol\":89:1848  contract SgAML {... */\n  callvalue\n  dup1\n  iszero\n  tag_5\n  jumpi\n  0x00\n  dup1\n  revert\ntag_5:\n  pop\n  jump(tag_6)\ntag_2:\n  dup3\n  dup1\n  sload\n  dup3\n  dup3\n  sstore\n  swap1\n  0x00\n  mstore\n  keccak256(0x00, 0x20)\n  swap1\n  dup2\n  add\n  swap3\n  dup3\n  iszero\n  tag_7\n  jumpi\n  swap2\n  0x20\n  mul\n  dup3\n  add\ntag_8:\n  dup3\n  dup2\n  gt\n  iszero\n  tag_9\n  jumpi\n  dup3\n  mload\n  dup3\n  swap1\n  dup2\n  tag_10\n  swap2\n  swap1\n  tag_11\n  jump\t// in\ntag_10:\n  pop\n  swap2\n  0x20\n  add\n  swap2\n  swap1\n  0x01\n  add\n  swap1\n  jump(tag_8)\ntag_9:\ntag_7:\n  pop\n  swap1\n  pop\n  tag_12\n  swap2\n  swap1\n  tag_13\n  jump\t// in\ntag_12:\n  pop\n  swap1\n  jump\t// out\ntag_4:\n  dup3\n  dup1\n  sload\n  dup3\n  dup3\n  sstore\n  swap1\n  0x00\n  mstore\n  keccak256(0x00, 0x20)\n  swap1\n  dup2\n  add\n  swap3\n  dup3\n  iszero\n  tag_14\n  jumpi\n  swap2\n  0x20\n  mul\n  dup3\n  add\ntag_15:\n  dup3\n  dup2\n  gt\n  iszero\n  tag_16\n  jumpi\n  dup3\n  mload\n  dup3\n  exp(0x0100, 0x00)\n  dup2\n  sload\n  dup2\n  0xffffffffffffffffffffffffffffffffffffffff\n  mul\n  not\n  and\n  swap1\n  dup4\n  0xffffffffffffffffffffffffffffffffffffffff\n  and\n  mul\n  or\n  swap1\n  sstore\n  pop\n  swap2\n  0x20\n  add\n  swap2\n  swap1\n  0x01\n  add\n  swap1\n  jump(tag_15)\ntag_16:\ntag_14:\n  pop\n  swap1\n  pop\n  tag_17\n  swap2\n  swap1\n  tag_18\n  jump\t// in\ntag_17:\n  pop\n  swap1\n  jump\t// out\ntag_13:\ntag_19:\n  dup1\n  dup3\n  gt\n  iszero\n  tag_20\n  jumpi\n  0x00\n  dup2\n  dup2\n  tag_21\n  swap2\n  swap1\n  tag_22\n  jump\t// in\ntag_21:\n  pop\n  0x01\n  add\n  jump(tag_19)\ntag_20:\n  pop\n  swap1\n  jump\t// out\ntag_18:\ntag_23:\n  dup1\n  dup3\n  gt\n  iszero\n  tag_24\n  jumpi\n  0x00\n  dup2\n  0x00\n  swap1\n  sstore\n  pop\n  0x01\n  add\n  jump(tag_23)\ntag_24:\n  pop\n  swap1\n  jump\t// out\ntag_22:\n  pop\n  dup1\n  sload\n  tag_25\n  swap1\n  tag_26\n  jump\t// in\ntag_25:\n  0x00\n  dup3\n  sstore\n  dup1\n  0x1f\n  lt\n  tag_28\n  jumpi\n  pop\n  jump(tag_27)\ntag_28:\n  0x1f\n  add\n  0x20\n  swap1\n  div\n  swap1\n  0x00\n  mstore\n  keccak256(0x00, 0x20)\n  swap1\n  dup2\n  add\n  swap1\n  tag_29\n  swap2\n  swap1\n  tag_18\n  jump\t// in\ntag_29:\ntag_27:\n  pop\n  jump\t// out\n    /* \"#utility.yul\":7:106   */\ntag_30:\n    /* \"#utility.yul\":59:65   */\n  0x00\n    /* \"#utility.yul\":93:98   */\n  dup2\n    /* \"#utility.yul\":87:99   */\n  mload\n    /* \"#utility.yul\":77:99   */\n  swap1\n  pop\n    /* \"#utility.yul\":7:106   */\n  swap2\n  swap1\n  pop\n  jump\t// out\n    /* \"#utility.yul\":112:292   */\ntag_31:\n    /* \"#utility.yul\":160:237   */\n  0x4e487b7100000000000000000000000000000000000000000000000000000000\n    /* \"#utility.yul\":157:158   */\n  0x00\n    /* \"#utility.yul\":150:238   */\n  mstore\n    /* \"#utility.yul\":257:261   */\n  0x41\n    /* \"#utility.yul\":254:255   */\n  0x04\n    /* \"#utility.yul\":247:262   */\n  mstore\n    /* \"#utility.yul\":281:285   */\n  0x24\n    /* \"#utility.yul\":278:279   */\n  0x00\n    /* \"#utility.yul\":271:286   */\n  revert\n    /* \"#utility.yul\":298:478   */\ntag_32:\n    /* \"#utility.yul\":346:423   */\n  0x4e487b7100000000000000000000000000000000000000000000000000000000\n    /* \"#utility.yul\":343:344   */\n  0x00\n    /* \"#utility.yul\":336:424   */\n  mstore\n    /* \"#utility.yul\":443:447   */\n  0x22\n    /* \"#utility.yul\":440:441   */\n  0x04\n    /* \"#utility.yul\":433:448   */\n  mstore\n    /* \"#utility.yul\":467:471   */\n  0x24\n    /* \"#utility.yul\":464:465   */\n  0x00\n    /* \"#utility.yul\":457:472   */\n  revert\n    /* \"#utility.yul\":484:804   */\ntag_26:\n    /* \"#utility.yul\":528:534   */\n  0x00\n    /* \"#utility.yul\":565:566   */\n  0x02\n    /* \"#utility.yul\":559:563   */\n  dup3\n    /* \"#utility.yul\":555:567   */\n  div\n    /* \"#utility.yul\":545:567   */\n  swap1\n  pop\n    /* \"#utility.yul\":612:613   */\n  0x01\n    /* \"#utility.yul\":606:610   */\n  dup3\n    /* \"#utility.yul\":602:614   */\n  and\n    /* \"#utility.yul\":633:651   */\n  dup1\n    /* \"#utility.yul\":623:704   */\n  tag_54\n  jumpi\n    /* \"#utility.yul\":689:693   */\n  0x7f\n    /* \"#utility.yul\":681:687   */\n  dup3\n    /* \"#utility.yul\":677:694   */\n  and\n    /* \"#utility.yul\":667:694   */\n  swap2\n  pop\n    /* \"#utility.yul\":623:704   */\ntag_54:\n    /* \"#utility.yul\":751:753   */\n  0x20\n    /* \"#utility.yul\":743:749   */\n  dup3\n    /* \"#utility.yul\":740:754   */\n  lt\n    /* \"#utility.yul\":720:738   */\n  dup2\n    /* \"#utility.yul\":717:755   */\n  sub\n    /* \"#utility.yul\":714:798   */\n  tag_55\n  jumpi\n    /* \"#utility.yul\":770:788   */\n  tag_56\n  tag_32\n  jump\t// in\ntag_56:\n    /* \"#utility.yul\":714:798   */\ntag_55:\n    /* \"#utility.yul\":535:804   */\n  pop\n    /* \"#utility.yul\":484:804   */\n  swap2\n  swap1\n  pop\n  jump\t// out\n    /* \"#utility.yul\":810:951   */\ntag_33:\n    /* \"#utility.yul\":859:863   */\n  0x00\n    /* \"#utility.yul\":882:885   */\n  dup2\n    /* \"#utility.yul\":874:885   */\n  swap1\n  pop\n    /* \"#utility.yul\":905:908   */\n  dup2\n    /* \"#utility.yul\":902:903   */\n  0x00\n    /* \"#utility.yul\":895:909   */\n  mstore\n    /* \"#utility.yul\":939:943   */\n  0x20\n    /* \"#utility.yul\":936:937   */\n  0x00\n    /* \"#utility.yul\":926:944   */\n  keccak256\n    /* \"#utility.yul\":918:944   */\n  swap1\n  pop\n    /* \"#utility.yul\":810:951   */\n  swap2\n  swap1\n  pop\n  jump\t// out\n    /* \"#utility.yul\":957:1050   */\ntag_34:\n    /* \"#utility.yul\":994:1000   */\n  0x00\n    /* \"#utility.yul\":1041:1043   */\n  0x20\n    /* \"#utility.yul\":1036:1038   */\n  0x1f\n    /* \"#utility.yul\":1029:1034   */\n  dup4\n    /* \"#utility.yul\":1025:1039   */\n  add\n    /* \"#utility.yul\":1021:1044   */\n  div\n    /* \"#utility.yul\":1011:1044   */\n  swap1\n  pop\n    /* \"#utility.yul\":957:1050   */\n  swap2\n  swap1\n  pop\n  jump\t// out\n    /* \"#utility.yul\":1056:1163   */\ntag_35:\n    /* \"#utility.yul\":1100:1108   */\n  0x00\n    /* \"#utility.yul\":1150:1155   */\n  dup3\n    /* \"#utility.yul\":1144:1148   */\n  dup3\n    /* \"#utility.yul\":1140:1156   */\n  shl\n    /* \"#utility.yul\":1119:1156   */\n  swap1\n  pop\n    /* \"#utility.yul\":1056:1163   */\n  swap3\n  swap2\n  pop\n  pop\n  jump\t// out\n    /* \"#utility.yul\":1169:1562   */\ntag_36:\n    /* \"#utility.yul\":1238:1244   */\n  0x00\n    /* \"#utility.yul\":1288:1289   */\n  0x08\n    /* \"#utility.yul\":1276:1286   */\n  dup4\n    /* \"#utility.yul\":1272:1290   */\n  mul\n    /* \"#utility.yul\":1311:1408   */\n  tag_61\n    /* \"#utility.yul\":1341:1407   */\n  0xffffffffffffffffffffffffffffffffffffffffffffffffffffffffffffffff\n    /* \"#utility.yul\":1330:1339   */\n  dup3\n    /* \"#utility.yul\":1311:1408   */\n  tag_35\n  jump\t// in\ntag_61:\n    /* \"#utility.yul\":1429:1468   */\n  tag_62\n    /* \"#utility.yul\":1459:1467   */\n  dup7\n    /* \"#utility.yul\":1448:1457   */\n  dup4\n    /* \"#utility.yul\":1429:1468   */\n  tag_35\n  jump\t// in\ntag_62:\n    /* \"#utility.yul\":1417:1468   */\n  swap6\n  pop\n    /* \"#utility.yul\":1501:1505   */\n  dup1\n    /* \"#utility.yul\":1497:1506   */\n  not\n    /* \"#utility.yul\":1490:1495   */\n  dup5\n    /* \"#utility.yul\":1486:1507   */\n  and\n    /* \"#utility.yul\":1477:1507   */\n  swap4\n  pop\n    /* \"#utility.yul\":1550:1554   */\n  dup1\n    /* \"#utility.yul\":1540:1548   */\n  dup7\n    /* \"#utility.yul\":1536:1555   */\n  and\n    /* \"#utility.yul\":1529:1534   */\n  dup5\n    /* \"#utility.yul\":1526:1556   */\n  or\n    /* \"#utility.yul\":1516:1556   */\n  swap3\n  pop\n    /* \"#utility.yul\":1245:1562   */\n  pop\n  pop\n    /* \"#utility.yul\":1169:1562   */\n  swap4\n  swap3\n  pop\n  pop\n  pop\n  jump\t// out\n    /* \"#utility.yul\":1568:1645   */\ntag_37:\n    /* \"#utility.yul\":1605:1612   */\n  0x00\n    /* \"#utility.yul\":1634:1639   */\n  dup2\n    /* \"#utility.yul\":1623:1639   */\n  swap1\n  pop\n    /* \"#utility.yul\":1568:1645   */\n  swap2\n  swap1\n  pop\n  jump\t// out\n    /* \"#utility.yul\":1651:1711   */\ntag_38:\n    /* \"#utility.yul\":1679:1682   */\n  0x00\n    /* \"#utility.yul\":1700:1705   */\n  dup2\n    /* \"#utility.yul\":1693:1705   */\n  swap1\n  pop\n    /* \"#utility.yul\":1651:1711   */\n  swap2\n  swap1\n  pop\n  jump\t// out\n    /* \"#utility.yul\":1717:1859   */\ntag_39:\n    /* \"#utility.yul\":1767:1776   */\n  0x00\n    /* \"#utility.yul\":1800:1853   */\n  tag_66\n    /* \"#utility.yul\":1818:1852   */\n  tag_67\n    /* \"#utility.yul\":1827:1851   */\n  tag_68\n    /* \"#utility.yul\":1845:1850   */\n  dup5\n    /* \"#utility.yul\":1827:1851   */\n  tag_37\n  jump\t// in\ntag_68:\n    /* \"#utility.yul\":1818:1852   */\n  tag_38\n  jump\t// in\ntag_67:\n    /* \"#utility.yul\":1800:1853   */\n  tag_37\n  jump\t// in\ntag_66:\n    /* \"#utility.yul\":1787:1853   */\n  swap1\n  pop\n    /* \"#utility.yul\":1717:1859   */\n  swap2\n  swap1\n  pop\n  jump\t// out\n    /* \"#utility.yul\":1865:1940   */\ntag_40:\n    /* \"#utility.yul\":1908:1911   */\n  0x00\n    /* \"#utility.yul\":1929:1934   */\n  dup2\n    /* \"#utility.yul\":1922:1934   */\n  swap1\n  pop\n    /* \"#utility.yul\":1865:1940   */\n  swap2\n  swap1\n  pop\n  jump\t// out\n    /* \"#utility.yul\":1946:2215   */\ntag_41:\n    /* \"#utility.yul\":2056:2095   */\n  tag_71\n    /* \"#utility.yul\":2087:2094   */\n  dup4\n    /* \"#utility.yul\":2056:2095   */\n  tag_39\n  jump\t// in\ntag_71:\n    /* \"#utility.yul\":2117:2208   */\n  tag_72\n    /* \"#utility.yul\":2166:2207   */\n  tag_73\n    /* \"#utility.yul\":2190:2206   */\n  dup3\n    /* \"#utility.yul\":2166:2207   */\n  tag_40\n  jump\t// in\ntag_73:\n    /* \"#utility.yul\":2158:2164   */\n  dup5\n    /* \"#utility.yul\":2151:2155   */\n  dup5\n    /* \"#utility.yul\":2145:2156   */\n  sload\n    /* \"#utility.yul\":2117:2208   */\n  tag_36\n  jump\t// in\ntag_72:\n    /* \"#utility.yul\":2111:2115   */\n  dup3\n    /* \"#utility.yul\":2104:2209   */\n  sstore\n    /* \"#utility.yul\":2022:2215   */\n  pop\n    /* \"#utility.yul\":1946:2215   */\n  pop\n  pop\n  pop\n  jump\t// out\n    /* \"#utility.yul\":2221:2294   */\ntag_42:\n    /* \"#utility.yul\":2266:2269   */\n  0x00\n    /* \"#utility.yul\":2221:2294   */\n  swap1\n  jump\t// out\n    /* \"#utility.yul\":2300:2489   */\ntag_43:\n    /* \"#utility.yul\":2377:2409   */\n  tag_76\n  tag_42\n  jump\t// in\ntag_76:\n    /* \"#utility.yul\":2418:2483   */\n  tag_77\n    /* \"#utility.yul\":2476:2482   */\n  dup2\n    /* \"#utility.yul\":2468:2474   */\n  dup5\n    /* \"#utility.yul\":2462:2466   */\n  dup5\n    /* \"#utility.yul\":2418:2483   */\n  tag_41\n  jump\t// in\ntag_77:\n    /* \"#utility.yul\":2353:2489   */\n  pop\n    /* \"#utility.yul\":2300:2489   */\n  pop\n  pop\n  jump\t// out\n    /* \"#utility.yul\":2495:2681   */\ntag_44:\n    /* \"#utility.yul\":2555:2675   */\ntag_79:\n    /* \"#utility.yul\":2572:2575   */\n  dup2\n    /* \"#utility.yul\":2565:2570   */\n  dup2\n    /* \"#utility.yul\":2562:2576   */\n  lt\n    /* \"#utility.yul\":2555:2675   */\n  iszero\n  tag_81\n  jumpi\n    /* \"#utility.yul\":2626:2665   */\n  tag_82\n    /* \"#utility.yul\":2663:2664   */\n  0x00\n    /* \"#utility.yul\":2656:2661   */\n  dup3\n    /* \"#utility.yul\":2626:2665   */\n  tag_43\n  jump\t// in\ntag_82:\n    /* \"#utility.yul\":2599:2600   */\n  0x01\n    /* \"#utility.yul\":2592:2597   */\n  dup2\n    /* \"#utility.yul\":2588:2601   */\n  add\n    /* \"#utility.yul\":2579:2601   */\n  swap1\n  pop\n    /* \"#utility.yul\":2555:2675   */\n  jump(tag_79)\ntag_81:\n    /* \"#utility.yul\":2495:2681   */\n  pop\n  pop\n  jump\t// out\n    /* \"#utility.yul\":2687:3230   */\ntag_45:\n    /* \"#utility.yul\":2788:2790   */\n  0x1f\n    /* \"#utility.yul\":2783:2786   */\n  dup3\n    /* \"#utility.yul\":2780:2791   */\n  gt\n    /* \"#utility.yul\":2777:3223   */\n  iszero\n  tag_84\n  jumpi\n    /* \"#utility.yul\":2822:2860   */\n  tag_85\n    /* \"#utility.yul\":2854:2859   */\n  dup2\n    /* \"#utility.yul\":2822:2860   */\n  tag_33\n  jump\t// in\ntag_85:\n    /* \"#utility.yul\":2906:2935   */\n  tag_86\n    /* \"#utility.yul\":2924:2934   */\n  dup5\n    /* \"#utility.yul\":2906:2935   */\n  tag_34\n  jump\t// in\ntag_86:\n    /* \"#utility.yul\":2896:2904   */\n  dup2\n    /* \"#utility.yul\":2892:2936   */\n  add\n    /* \"#utility.yul\":3089:3091   */\n  0x20\n    /* \"#utility.yul\":3077:3087   */\n  dup6\n    /* \"#utility.yul\":3074:3092   */\n  lt\n    /* \"#utility.yul\":3071:3120   */\n  iszero\n  tag_87\n  jumpi\n    /* \"#utility.yul\":3110:3118   */\n  dup2\n    /* \"#utility.yul\":3095:3118   */\n  swap1\n  pop\n    /* \"#utility.yul\":3071:3120   */\ntag_87:\n    /* \"#utility.yul\":3133:3213   */\n  tag_88\n    /* \"#utility.yul\":3189:3211   */\n  tag_89\n    /* \"#utility.yul\":3207:3210   */\n  dup6\n    /* \"#utility.yul\":3189:3211   */\n  tag_34\n  jump\t// in\ntag_89:\n    /* \"#utility.yul\":3179:3187   */\n  dup4\n    /* \"#utility.yul\":3175:3212   */\n  add\n    /* \"#utility.yul\":3162:3173   */\n  dup3\n    /* \"#utility.yul\":3133:3213   */\n  tag_44\n  jump\t// in\ntag_88:\n    /* \"#utility.yul\":2792:3223   */\n  pop\n  pop\n    /* \"#utility.yul\":2777:3223   */\ntag_84:\n    /* \"#utility.yul\":2687:3230   */\n  pop\n  pop\n  pop\n  jump\t// out\n    /* \"#utility.yul\":3236:3353   */\ntag_46:\n    /* \"#utility.yul\":3290:3298   */\n  0x00\n    /* \"#utility.yul\":3340:3345   */\n  dup3\n    /* \"#utility.yul\":3334:3338   */\n  dup3\n    /* \"#utility.yul\":3330:3346   */\n  shr\n    /* \"#utility.yul\":3309:3346   */\n  swap1\n  pop\n    /* \"#utility.yul\":3236:3353   */\n  swap3\n  swap2\n  pop\n  pop\n  jump\t// out\n    /* \"#utility.yul\":3359:3528   */\ntag_47:\n    /* \"#utility.yul\":3403:3409   */\n  0x00\n    /* \"#utility.yul\":3436:3487   */\n  tag_92\n    /* \"#utility.yul\":3484:3485   */\n  0x00\n    /* \"#utility.yul\":3480:3486   */\n  not\n    /* \"#utility.yul\":3472:3477   */\n  dup5\n    /* \"#utility.yul\":3469:3470   */\n  0x08\n    /* \"#utility.yul\":3465:3478   */\n  mul\n    /* \"#utility.yul\":3436:3487   */\n  tag_46\n  jump\t// in\ntag_92:\n    /* \"#utility.yul\":3432:3488   */\n  not\n    /* \"#utility.yul\":3517:3521   */\n  dup1\n    /* \"#utility.yul\":3511:3515   */\n  dup4\n    /* \"#utility.yul\":3507:3522   */\n  and\n    /* \"#utility.yul\":3497:3522   */\n  swap2\n  pop\n    /* \"#utility.yul\":3410:3528   */\n  pop\n    /* \"#utility.yul\":3359:3528   */\n  swap3\n  swap2\n  pop\n  pop\n  jump\t// out\n    /* \"#utility.yul\":3533:3828   */\ntag_48:\n    /* \"#utility.yul\":3609:3613   */\n  0x00\n    /* \"#utility.yul\":3755:3784   */\n  tag_94\n    /* \"#utility.yul\":3780:3783   */\n  dup4\n    /* \"#utility.yul\":3774:3778   */\n  dup4\n    /* \"#utility.yul\":3755:3784   */\n  tag_47\n  jump\t// in\ntag_94:\n    /* \"#utility.yul\":3747:3784   */\n  swap2\n  pop\n    /* \"#utility.yul\":3817:3820   */\n  dup3\n    /* \"#utility.yul\":3814:3815   */\n  0x02\n    /* \"#utility.yul\":3810:3821   */\n  mul\n    /* \"#utility.yul\":3804:3808   */\n  dup3\n    /* \"#utility.yul\":3801:3822   */\n  or\n    /* \"#utility.yul\":3793:3822   */\n  swap1\n  pop\n    /* \"#utility.yul\":3533:3828   */\n  swap3\n  swap2\n  pop\n  pop\n  jump\t// out\n    /* \"#utility.yul\":3833:5228   */\ntag_11:\n    /* \"#utility.yul\":3950:3987   */\n  tag_96\n    /* \"#utility.yul\":3983:3986   */\n  dup3\n    /* \"#utility.yul\":3950:3987   */\n  tag_30\n  jump\t// in\ntag_96:\n    /* \"#utility.yul\":4052:4070   */\n  0xffffffffffffffff\n    /* \"#utility.yul\":4044:4050   */\n  dup2\n    /* \"#utility.yul\":4041:4071   */\n  gt\n    /* \"#utility.yul\":4038:4094   */\n  iszero\n  tag_97\n  jumpi\n    /* \"#utility.yul\":4074:4092   */\n  tag_98\n  tag_31\n  jump\t// in\ntag_98:\n    /* \"#utility.yul\":4038:4094   */\ntag_97:\n    /* \"#utility.yul\":4118:4156   */\n  tag_99\n    /* \"#utility.yul\":4150:4154   */\n  dup3\n    /* \"#utility.yul\":4144:4155   */\n  sload\n    /* \"#utility.yul\":4118:4156   */\n  tag_26\n  jump\t// in\ntag_99:\n    /* \"#utility.yul\":4203:4270   */\n  tag_100\n    /* \"#utility.yul\":4263:4269   */\n  dup3\n    /* \"#utility.yul\":4255:4261   */\n  dup3\n    /* \"#utility.yul\":4249:4253   */\n  dup6\n    /* \"#utility.yul\":4203:4270   */\n  tag_45\n  jump\t// in\ntag_100:\n    /* \"#utility.yul\":4297:4298   */\n  0x00\n    /* \"#utility.yul\":4321:4325   */\n  0x20\n    /* \"#utility.yul\":4308:4325   */\n  swap1\n  pop\n    /* \"#utility.yul\":4353:4355   */\n  0x1f\n    /* \"#utility.yul\":4345:4351   */\n  dup4\n    /* \"#utility.yul\":4342:4356   */\n  gt\n    /* \"#utility.yul\":4370:4371   */\n  0x01\n    /* \"#utility.yul\":4365:4983   */\n  dup2\n  eq\n  tag_102\n  jumpi\n    /* \"#utility.yul\":5027:5028   */\n  0x00\n    /* \"#utility.yul\":5044:5050   */\n  dup5\n    /* \"#utility.yul\":5041:5118   */\n  iszero\n  tag_103\n  jumpi\n    /* \"#utility.yul\":5093:5102   */\n  dup3\n    /* \"#utility.yul\":5088:5091   */\n  dup8\n    /* \"#utility.yul\":5084:5103   */\n  add\n    /* \"#utility.yul\":5078:5104   */\n  mload\n    /* \"#utility.yul\":5069:5104   */\n  swap1\n  pop\n    /* \"#utility.yul\":5041:5118   */\ntag_103:\n    /* \"#utility.yul\":5144:5211   */\n  tag_104\n    /* \"#utility.yul\":5204:5210   */\n  dup6\n    /* \"#utility.yul\":5197:5202   */\n  dup3\n    /* \"#utility.yul\":5144:5211   */\n  tag_48\n  jump\t// in\ntag_104:\n    /* \"#utility.yul\":5138:5142   */\n  dup7\n    /* \"#utility.yul\":5131:5212   */\n  sstore\n    /* \"#utility.yul\":5000:5222   */\n  pop\n    /* \"#utility.yul\":4335:5222   */\n  jump(tag_101)\n    /* \"#utility.yul\":4365:4983   */\ntag_102:\n    /* \"#utility.yul\":4417:4421   */\n  0x1f\n    /* \"#utility.yul\":4413:4422   */\n  not\n    /* \"#utility.yul\":4405:4411   */\n  dup5\n    /* \"#utility.yul\":4401:4423   */\n  and\n    /* \"#utility.yul\":4451:4488   */\n  tag_105\n    /* \"#utility.yul\":4483:4487   */\n  dup7\n    /* \"#utility.yul\":4451:4488   */\n  tag_33\n  jump\t// in\ntag_105:\n    /* \"#utility.yul\":4510:4511   */\n  0x00\n    /* \"#utility.yul\":4524:4732   */\ntag_106:\n    /* \"#utility.yul\":4538:4545   */\n  dup3\n    /* \"#utility.yul\":4535:4536   */\n  dup2\n    /* \"#utility.yul\":4532:4546   */\n  lt\n    /* \"#utility.yul\":4524:4732   */\n  iszero\n  tag_108\n  jumpi\n    /* \"#utility.yul\":4617:4626   */\n  dup5\n    /* \"#utility.yul\":4612:4615   */\n  dup10\n    /* \"#utility.yul\":4608:4627   */\n  add\n    /* \"#utility.yul\":4602:4628   */\n  mload\n    /* \"#utility.yul\":4594:4600   */\n  dup3\n    /* \"#utility.yul\":4587:4629   */\n  sstore\n    /* \"#utility.yul\":4668:4669   */\n  0x01\n    /* \"#utility.yul\":4660:4666   */\n  dup3\n    /* \"#utility.yul\":4656:4670   */\n  add\n    /* \"#utility.yul\":4646:4670   */\n  swap2\n  pop\n    /* \"#utility.yul\":4715:4717   */\n  0x20\n    /* \"#utility.yul\":4704:4713   */\n  dup6\n    /* \"#utility.yul\":4700:4718   */\n  add\n    /* \"#utility.yul\":4687:4718   */\n  swap5\n  pop\n    /* \"#utility.yul\":4561:4565   */\n  0x20\n    /* \"#utility.yul\":4558:4559   */\n  dup2\n    /* \"#utility.yul\":4554:4566   */\n  add\n    /* \"#utility.yul\":4549:4566   */\n  swap1\n  pop\n    /* \"#utility.yul\":4524:4732   */\n  jump(tag_106)\ntag_108:\n    /* \"#utility.yul\":4760:4766   */\n  dup7\n    /* \"#utility.yul\":4751:4758   */\n  dup4\n    /* \"#utility.yul\":4748:4767   */\n  lt\n    /* \"#utility.yul\":4745:4924   */\n  iszero\n  tag_109\n  jumpi\n    /* \"#utility.yul\":4818:4827   */\n  dup5\n    /* \"#utility.yul\":4813:4816   */\n  dup10\n    /* \"#utility.yul\":4809:4828   */\n  add\n    /* \"#utility.yul\":4803:4829   */\n  mload\n    /* \"#utility.yul\":4861:4909   */\n  tag_110\n    /* \"#utility.yul\":4903:4907   */\n  0x1f\n    /* \"#utility.yul\":4895:4901   */\n  dup10\n    /* \"#utility.yul\":4891:4908   */\n  and\n    /* \"#utility.yul\":4880:4889   */\n  dup3\n    /* \"#utility.yul\":4861:4909   */\n  tag_47\n  jump\t// in\ntag_110:\n    /* \"#utility.yul\":4853:4859   */\n  dup4\n    /* \"#utility.yul\":4846:4910   */\n  sstore\n    /* \"#utility.yul\":4768:4924   */\n  pop\n    /* \"#utility.yul\":4745:4924   */\ntag_109:\n    /* \"#utility.yul\":4970:4971   */\n  0x01\n    /* \"#utility.yul\":4966:4967   */\n  0x02\n    /* \"#utility.yul\":4958:4964   */\n  dup9\n    /* \"#utility.yul\":4954:4968   */\n  mul\n    /* \"#utility.yul\":4950:4972   */\n  add\n    /* \"#utility.yul\":4944:4948   */\n  dup9\n    /* \"#utility.yul\":4937:4973   */\n  sstore\n    /* \"#utility.yul\":4372:4983   */\n  pop\n  pop\n  pop\n    /* \"#utility.yul\":4335:5222   */\ntag_101:\n  pop\n    /* \"#utility.yul\":3925:5228   */\n  pop\n  pop\n  pop\n    /* \"#utility.yul\":3833:5228   */\n  pop\n  pop\n  jump\t// out\n    /* \"contracts/SgAML.sol\":89:1848  contract SgAML {... */\ntag_6:\n  dataSize(sub_0)\n  dup1\n  dataOffset(sub_0)\n  0x00\n  codecopy\n  0x00\n  return\nstop\n\nsub_0: assembly {\n        /* \"contracts/SgAML.sol\":89:1848  contract SgAML {... */\n      mstore(0x40, 0x80)\n      jumpi(tag_1, lt(calldatasize, 0x04))\n      shr(0xe0, calldataload(0x00))\n      dup1\n      0x708c079d\n      eq\n      tag_2\n      jumpi\n      dup1\n      0xbd799295\n      eq\n      tag_3\n      jumpi\n      dup1\n      0xd3317524\n      eq\n      tag_4\n      jumpi\n      dup1\n      0xdd0ae4d6\n      eq\n      tag_5\n      jumpi\n    tag_1:\n      0x00\n      dup1\n      revert\n        /* \"contracts/SgAML.sol\":991:1147  function checkPoliticalStatus(bool isPoliticallyExposed)... */\n    tag_2:\n      callvalue\n      dup1\n      iszero\n      tag_6\n      jumpi\n      0x00\n      dup1\n      revert\n    tag_6:\n      pop\n      tag_7\n      0x04\n      dup1\n      calldatasize\n      sub\n      dup2\n      add\n      swap1\n      tag_8\n      swap2\n      swap1\n      tag_9\n      jump\t// in\n    tag_8:\n      tag_10\n      jump\t// in\n    tag_7:\n      mload(0x40)\n      tag_11\n      swap2\n      swap1\n      tag_12\n      jump\t// in\n    tag_11:\n      mload(0x40)\n      dup1\n      swap2\n      sub\n      swap1\n      return\n        /* \"contracts/SgAML.sol\":1153:1437  function checkAmt(address payable sender, uint256 amount)... */\n    tag_3:\n      tag_13\n      0x04\n      dup1\n      calldatasize\n      sub\n      dup2\n      add\n      swap1\n      tag_14\n      swap2\n      swap1\n      tag_15\n      jump\t// in\n    tag_14:\n      tag_16\n      jump\t// in\n    tag_13:\n      mload(0x40)\n      tag_17\n      swap2\n      swap1\n      tag_12\n      jump\t// in\n    tag_17:\n      mload(0x40)\n      dup1\n      swap2\n      sub\n      swap1\n      return\n        /* \"contracts/SgAML.sol\":1443:1846  function checkWantedIndividual(address sender, address receiver)... */\n    tag_4:\n      callvalue\n      dup1\n      iszero\n      tag_18\n      jumpi\n      0x00\n      dup1\n      revert\n    tag_18:\n      pop\n      tag_19\n      0x04\n      dup1\n      calldatasize\n      sub\n      dup2\n      add\n      swap1\n      tag_20\n      swap2\n      swap1\n      tag_21\n      jump\t// in\n    tag_20:\n      tag_22\n      jump\t// in\n    tag_19:\n      mload(0x40)\n      tag_23\n      swap2\n      swap1\n      tag_12\n      jump\t// in\n    tag_23:\n      mload(0x40)\n      dup1\n      swap2\n      sub\n      swap1\n      return\n        /* \"contracts/SgAML.sol\":285:985  function checkNationality(... */\n    tag_5:\n      callvalue\n      dup1\n      iszero\n      tag_24\n      jumpi\n      0x00\n      dup1\n      revert\n    tag_24:\n      pop\n      tag_25\n      0x04\n      dup1\n      calldatasize\n      sub\n      dup2\n      add\n      swap1\n      tag_26\n      swap2\n      swap1\n      tag_27\n      jump\t// in\n    tag_26:\n      tag_28\n      jump\t// in\n    tag_25:\n      mload(0x40)\n      tag_29\n      swap2\n      swap1\n      tag_12\n      jump\t// in\n    tag_29:\n      mload(0x40)\n      dup1\n      swap2\n      sub\n      swap1\n      return\n        /* \"contracts/SgAML.sol\":991:1147  function checkPoliticalStatus(bool isPoliticallyExposed)... */\n    tag_10:\n        /* \"contracts/SgAML.sol\":1093:1097  bool */\n      0x00\n        /* \"contracts/SgAML.sol\":1120:1140  isPoliticallyExposed */\n      dup2\n        /* \"contracts/SgAML.sol\":1113:1140  return isPoliticallyExposed */\n      swap1\n      pop\n        /* \"contracts/SgAML.sol\":991:1147  function checkPoliticalStatus(bool isPoliticallyExposed)... */\n      swap2\n      swap1\n      pop\n      jump\t// out\n        /* \"contracts/SgAML.sol\":1153:1437  function checkAmt(address payable sender, uint256 amount)... */\n    tag_16:\n        /* \"contracts/SgAML.sol\":1259:1263  bool */\n      0x00\n        /* \"contracts/SgAML.sol\":1292:1301  maxAmount */\n      sload(0x01)\n        /* \"contracts/SgAML.sol\":1283:1289  amount */\n      dup3\n        /* \"contracts/SgAML.sol\":1283:1301  amount > maxAmount */\n      gt\n        /* \"contracts/SgAML.sol\":1279:1377  if (amount > maxAmount) {... */\n      iszero\n      tag_32\n      jumpi\n        /* \"contracts/SgAML.sol\":1317:1323  sender */\n      dup3\n        /* \"contracts/SgAML.sol\":1317:1332  sender.transfer */\n      0xffffffffffffffffffffffffffffffffffffffff\n      and\n        /* \"contracts/SgAML.sol\":1317:1340  sender.transfer(amount) */\n      0x08fc\n        /* \"contracts/SgAML.sol\":1333:1339  amount */\n      dup4\n        /* \"contracts/SgAML.sol\":1317:1340  sender.transfer(amount) */\n      swap1\n      dup2\n      iszero\n      mul\n      swap1\n      mload(0x40)\n      0x00\n      mload(0x40)\n      dup1\n      dup4\n      sub\n      dup2\n      dup6\n      dup9\n      dup9\n      call\n      swap4\n      pop\n      pop\n      pop\n      pop\n      iszero\n      dup1\n      iszero\n      tag_34\n      jumpi\n      returndatasize\n      0x00\n      dup1\n      returndatacopy\n      revert(0x00, returndatasize)\n    tag_34:\n      pop\n        /* \"contracts/SgAML.sol\":1361:1366  false */\n      0x00\n        /* \"contracts/SgAML.sol\":1354:1366  return false */\n      swap1\n      pop\n      jump(tag_31)\n        /* \"contracts/SgAML.sol\":1279:1377  if (amount > maxAmount) {... */\n    tag_32:\n        /* \"contracts/SgAML.sol\":1386:1392  sender */\n      dup3\n        /* \"contracts/SgAML.sol\":1386:1401  sender.transfer */\n      0xffffffffffffffffffffffffffffffffffffffff\n      and\n        /* \"contracts/SgAML.sol\":1386:1409  sender.transfer(amount) */\n      0x08fc\n        /* \"contracts/SgAML.sol\":1402:1408  amount */\n      dup4\n        /* \"contracts/SgAML.sol\":1386:1409  sender.transfer(amount) */\n      swap1\n      dup2\n      iszero\n      mul\n      swap1\n      mload(0x40)\n      0x00\n      mload(0x40)\n      dup1\n      dup4\n      sub\n      dup2\n      dup6\n      dup9\n      dup9\n      call\n      swap4\n      pop\n      pop\n      pop\n      pop\n      iszero\n      dup1\n      iszero\n      tag_36\n      jumpi\n      returndatasize\n      0x00\n      dup1\n      returndatacopy\n      revert(0x00, returndatasize)\n    tag_36:\n      pop\n        /* \"contracts/SgAML.sol\":1426:1430  true */\n      0x01\n        /* \"contracts/SgAML.sol\":1419:1430  return true */\n      swap1\n      pop\n        /* \"contracts/SgAML.sol\":1153:1437  function checkAmt(address payable sender, uint256 amount)... */\n    tag_31:\n      swap3\n      swap2\n      pop\n      pop\n      jump\t// out\n        /* \"contracts/SgAML.sol\":1443:1846  function checkWantedIndividual(address sender, address receiver)... */\n    tag_22:\n        /* \"contracts/SgAML.sol\":1553:1557  bool */\n      0x00\n        /* \"contracts/SgAML.sol\":1578:1587  uint256 i */\n      dup1\n        /* \"contracts/SgAML.sol\":1590:1591  0 */\n      0x00\n        /* \"contracts/SgAML.sol\":1578:1591  uint256 i = 0 */\n      swap1\n      pop\n        /* \"contracts/SgAML.sol\":1573:1818  for (uint256 i = 0; i < wantedIndividuals.length; i++) {... */\n    tag_38:\n        /* \"contracts/SgAML.sol\":1597:1614  wantedIndividuals */\n      0x02\n        /* \"contracts/SgAML.sol\":1597:1621  wantedIndividuals.length */\n      dup1\n      sload\n      swap1\n      pop\n        /* \"contracts/SgAML.sol\":1593:1594  i */\n      dup2\n        /* \"contracts/SgAML.sol\":1593:1621  i < wantedIndividuals.length */\n      lt\n        /* \"contracts/SgAML.sol\":1573:1818  for (uint256 i = 0; i < wantedIndividuals.length; i++) {... */\n      iszero\n      tag_39\n      jumpi\n        /* \"contracts/SgAML.sol\":1688:1694  sender */\n      dup4\n        /* \"contracts/SgAML.sol\":1664:1694  wantedIndividuals[i] == sender */\n      0xffffffffffffffffffffffffffffffffffffffff\n      and\n        /* \"contracts/SgAML.sol\":1664:1681  wantedIndividuals */\n      0x02\n        /* \"contracts/SgAML.sol\":1682:1683  i */\n      dup3\n        /* \"contracts/SgAML.sol\":1664:1684  wantedIndividuals[i] */\n      dup2\n      sload\n      dup2\n      lt\n      tag_41\n      jumpi\n      tag_42\n      tag_43\n      jump\t// in\n    tag_42:\n    tag_41:\n      swap1\n      0x00\n      mstore\n      keccak256(0x00, 0x20)\n      add\n      0x00\n      swap1\n      sload\n      swap1\n      0x0100\n      exp\n      swap1\n      div\n      0xffffffffffffffffffffffffffffffffffffffff\n      and\n        /* \"contracts/SgAML.sol\":1664:1694  wantedIndividuals[i] == sender */\n      0xffffffffffffffffffffffffffffffffffffffff\n      and\n      eq\n        /* \"contracts/SgAML.sol\":1663:1749  (wantedIndividuals[i] == sender) ||... */\n      dup1\n      tag_45\n      jumpi\n      pop\n        /* \"contracts/SgAML.sol\":1740:1748  receiver */\n      dup3\n        /* \"contracts/SgAML.sol\":1716:1748  wantedIndividuals[i] == receiver */\n      0xffffffffffffffffffffffffffffffffffffffff\n      and\n        /* \"contracts/SgAML.sol\":1716:1733  wantedIndividuals */\n      0x02\n        /* \"contracts/SgAML.sol\":1734:1735  i */\n      dup3\n        /* \"contracts/SgAML.sol\":1716:1736  wantedIndividuals[i] */\n      dup2\n      sload\n      dup2\n      lt\n      tag_46\n      jumpi\n      tag_47\n      tag_43\n      jump\t// in\n    tag_47:\n    tag_46:\n      swap1\n      0x00\n      mstore\n      keccak256(0x00, 0x20)\n      add\n      0x00\n      swap1\n      sload\n      swap1\n      0x0100\n      exp\n      swap1\n      div\n      0xffffffffffffffffffffffffffffffffffffffff\n      and\n        /* \"contracts/SgAML.sol\":1716:1748  wantedIndividuals[i] == receiver */\n      0xffffffffffffffffffffffffffffffffffffffff\n      and\n      eq\n        /* \"contracts/SgAML.sol\":1663:1749  (wantedIndividuals[i] == sender) ||... */\n    tag_45:\n        /* \"contracts/SgAML.sol\":1642:1808  if (... */\n      iszero\n      tag_49\n      jumpi\n        /* \"contracts/SgAML.sol\":1789:1793  true */\n      0x01\n        /* \"contracts/SgAML.sol\":1782:1793  return true */\n      swap2\n      pop\n      pop\n      jump(tag_37)\n        /* \"contracts/SgAML.sol\":1642:1808  if (... */\n    tag_49:\n        /* \"contracts/SgAML.sol\":1623:1626  i++ */\n      dup1\n      dup1\n      tag_50\n      swap1\n      tag_51\n      jump\t// in\n    tag_50:\n      swap2\n      pop\n      pop\n        /* \"contracts/SgAML.sol\":1573:1818  for (uint256 i = 0; i < wantedIndividuals.length; i++) {... */\n      jump(tag_38)\n    tag_39:\n      pop\n        /* \"contracts/SgAML.sol\":1834:1839  false */\n      0x00\n        /* \"contracts/SgAML.sol\":1827:1839  return false */\n      swap1\n      pop\n        /* \"contracts/SgAML.sol\":1443:1846  function checkWantedIndividual(address sender, address receiver)... */\n    tag_37:\n      swap3\n      swap2\n      pop\n      pop\n      jump\t// out\n        /* \"contracts/SgAML.sol\":285:985  function checkNationality(... */\n    tag_28:\n        /* \"contracts/SgAML.sol\":464:468  bool */\n      0x00\n        /* \"contracts/SgAML.sol\":539:548  uint256 i */\n      dup1\n        /* \"contracts/SgAML.sol\":551:552  0 */\n      0x00\n        /* \"contracts/SgAML.sol\":539:552  uint256 i = 0 */\n      swap1\n      pop\n        /* \"contracts/SgAML.sol\":534:957  for (uint256 i = 0; i < bannedCountries.length; i++) {... */\n    tag_53:\n        /* \"contracts/SgAML.sol\":558:573  bannedCountries */\n      0x00\n        /* \"contracts/SgAML.sol\":558:580  bannedCountries.length */\n      dup1\n      sload\n      swap1\n      pop\n        /* \"contracts/SgAML.sol\":554:555  i */\n      dup2\n        /* \"contracts/SgAML.sol\":554:580  i < bannedCountries.length */\n      lt\n        /* \"contracts/SgAML.sol\":534:957  for (uint256 i = 0; i < bannedCountries.length; i++) {... */\n      iszero\n      tag_54\n      jumpi\n        /* \"contracts/SgAML.sol\":716:730  senderUserInfo */\n      dup4\n        /* \"contracts/SgAML.sol\":716:742  senderUserInfo.nationality */\n      0xc0\n      add\n      mload\n        /* \"contracts/SgAML.sol\":699:743  abi.encodePacked(senderUserInfo.nationality) */\n      add(0x20, mload(0x40))\n      tag_56\n      swap2\n      swap1\n      tag_57\n      jump\t// in\n    tag_56:\n      mload(0x40)\n      0x20\n      dup2\n      dup4\n      sub\n      sub\n      dup2\n      mstore\n      swap1\n      0x40\n      mstore\n        /* \"contracts/SgAML.sol\":689:744  keccak256(abi.encodePacked(senderUserInfo.nationality)) */\n      dup1\n      mload\n      swap1\n      0x20\n      add\n      keccak256\n        /* \"contracts/SgAML.sol\":649:664  bannedCountries */\n      0x00\n        /* \"contracts/SgAML.sol\":665:666  i */\n      dup3\n        /* \"contracts/SgAML.sol\":649:667  bannedCountries[i] */\n      dup2\n      sload\n      dup2\n      lt\n      tag_58\n      jumpi\n      tag_59\n      tag_43\n      jump\t// in\n    tag_59:\n    tag_58:\n      swap1\n      0x00\n      mstore\n      keccak256(0x00, 0x20)\n      add\n        /* \"contracts/SgAML.sol\":632:668  abi.encodePacked(bannedCountries[i]) */\n      add(0x20, mload(0x40))\n      tag_61\n      swap2\n      swap1\n      tag_62\n      jump\t// in\n    tag_61:\n      mload(0x40)\n      0x20\n      dup2\n      dup4\n      sub\n      sub\n      dup2\n      mstore\n      swap1\n      0x40\n      mstore\n        /* \"contracts/SgAML.sol\":622:669  keccak256(abi.encodePacked(bannedCountries[i])) */\n      dup1\n      mload\n      swap1\n      0x20\n      add\n      keccak256\n        /* \"contracts/SgAML.sol\":622:744  keccak256(abi.encodePacked(bannedCountries[i])) ==... */\n      eq\n        /* \"contracts/SgAML.sol\":622:888  keccak256(abi.encodePacked(bannedCountries[i])) ==... */\n      dup1\n      tag_63\n      jumpi\n      pop\n        /* \"contracts/SgAML.sol\":858:874  receiverUserInfo */\n      dup3\n        /* \"contracts/SgAML.sol\":858:886  receiverUserInfo.nationality */\n      0xc0\n      add\n      mload\n        /* \"contracts/SgAML.sol\":841:887  abi.encodePacked(receiverUserInfo.nationality) */\n      add(0x20, mload(0x40))\n      tag_64\n      swap2\n      swap1\n      tag_57\n      jump\t// in\n    tag_64:\n      mload(0x40)\n      0x20\n      dup2\n      dup4\n      sub\n      sub\n      dup2\n      mstore\n      swap1\n      0x40\n      mstore\n        /* \"contracts/SgAML.sol\":831:888  keccak256(abi.encodePacked(receiverUserInfo.nationality)) */\n      dup1\n      mload\n      swap1\n      0x20\n      add\n      keccak256\n        /* \"contracts/SgAML.sol\":791:806  bannedCountries */\n      0x00\n        /* \"contracts/SgAML.sol\":807:808  i */\n      dup3\n        /* \"contracts/SgAML.sol\":791:809  bannedCountries[i] */\n      dup2\n      sload\n      dup2\n      lt\n      tag_65\n      jumpi\n      tag_66\n      tag_43\n      jump\t// in\n    tag_66:\n    tag_65:\n      swap1\n      0x00\n      mstore\n      keccak256(0x00, 0x20)\n      add\n        /* \"contracts/SgAML.sol\":774:810  abi.encodePacked(bannedCountries[i]) */\n      add(0x20, mload(0x40))\n      tag_68\n      swap2\n      swap1\n      tag_62\n      jump\t// in\n    tag_68:\n      mload(0x40)\n      0x20\n      dup2\n      dup4\n      sub\n      sub\n      dup2\n      mstore\n      swap1\n      0x40\n      mstore\n        /* \"contracts/SgAML.sol\":764:811  keccak256(abi.encodePacked(bannedCountries[i])) */\n      dup1\n      mload\n      swap1\n      0x20\n      add\n      keccak256\n        /* \"contracts/SgAML.sol\":764:888  keccak256(abi.encodePacked(bannedCountries[i])) ==... */\n      eq\n        /* \"contracts/SgAML.sol\":622:888  keccak256(abi.encodePacked(bannedCountries[i])) ==... */\n    tag_63:\n        /* \"contracts/SgAML.sol\":601:947  if (... */\n      iszero\n      tag_69\n      jumpi\n        /* \"contracts/SgAML.sol\":928:932  true */\n      0x01\n        /* \"contracts/SgAML.sol\":921:932  return true */\n      swap2\n      pop\n      pop\n      jump(tag_52)\n        /* \"contracts/SgAML.sol\":601:947  if (... */\n    tag_69:\n        /* \"contracts/SgAML.sol\":582:585  i++ */\n      dup1\n      dup1\n      tag_70\n      swap1\n      tag_51\n      jump\t// in\n    tag_70:\n      swap2\n      pop\n      pop\n        /* \"contracts/SgAML.sol\":534:957  for (uint256 i = 0; i < bannedCountries.length; i++) {... */\n      jump(tag_53)\n    tag_54:\n      pop\n        /* \"contracts/SgAML.sol\":973:978  false */\n      0x00\n        /* \"contracts/SgAML.sol\":966:978  return false */\n      swap1\n      pop\n        /* \"contracts/SgAML.sol\":285:985  function checkNationality(... */\n    tag_52:\n      swap3\n      swap2\n      pop\n      pop\n      jump\t// out\n        /* \"#utility.yul\":7:82   */\n    tag_71:\n        /* \"#utility.yul\":40:46   */\n      0x00\n        /* \"#utility.yul\":73:75   */\n      0x40\n        /* \"#utility.yul\":67:76   */\n      mload\n        /* \"#utility.yul\":57:76   */\n      swap1\n      pop\n        /* \"#utility.yul\":7:82   */\n      swap1\n      jump\t// out\n        /* \"#utility.yul\":88:205   */\n    tag_72:\n        /* \"#utility.yul\":197:198   */\n      0x00\n        /* \"#utility.yul\":194:195   */\n      dup1\n        /* \"#utility.yul\":187:199   */\n      revert\n        /* \"#utility.yul\":211:328   */\n    tag_73:\n        /* \"#utility.yul\":320:321   */\n      0x00\n        /* \"#utility.yul\":317:318   */\n      dup1\n        /* \"#utility.yul\":310:322   */\n      revert\n        /* \"#utility.yul\":334:424   */\n    tag_74:\n        /* \"#utility.yul\":368:375   */\n      0x00\n        /* \"#utility.yul\":411:416   */\n      dup2\n        /* \"#utility.yul\":404:417   */\n      iszero\n        /* \"#utility.yul\":397:418   */\n      iszero\n        /* \"#utility.yul\":386:418   */\n      swap1\n      pop\n        /* \"#utility.yul\":334:424   */\n      swap2\n      swap1\n      pop\n      jump\t// out\n        /* \"#utility.yul\":430:546   */\n    tag_75:\n        /* \"#utility.yul\":500:521   */\n      tag_116\n        /* \"#utility.yul\":515:520   */\n      dup2\n        /* \"#utility.yul\":500:521   */\n      tag_74\n      jump\t// in\n    tag_116:\n        /* \"#utility.yul\":493:498   */\n      dup2\n        /* \"#utility.yul\":490:522   */\n      eq\n        /* \"#utility.yul\":480:540   */\n      tag_117\n      jumpi\n        /* \"#utility.yul\":536:537   */\n      0x00\n        /* \"#utility.yul\":533:534   */\n      dup1\n        /* \"#utility.yul\":526:538   */\n      revert\n        /* \"#utility.yul\":480:540   */\n    tag_117:\n        /* \"#utility.yul\":430:546   */\n      pop\n      jump\t// out\n        /* \"#utility.yul\":552:685   */\n    tag_76:\n        /* \"#utility.yul\":595:600   */\n      0x00\n        /* \"#utility.yul\":633:639   */\n      dup2\n        /* \"#utility.yul\":620:640   */\n      calldataload\n        /* \"#utility.yul\":611:640   */\n      swap1\n      pop\n        /* \"#utility.yul\":649:679   */\n      tag_119\n        /* \"#utility.yul\":673:678   */\n      dup2\n        /* \"#utility.yul\":649:679   */\n      tag_75\n      jump\t// in\n    tag_119:\n        /* \"#utility.yul\":552:685   */\n      swap3\n      swap2\n      pop\n      pop\n      jump\t// out\n        /* \"#utility.yul\":691:1014   */\n    tag_9:\n        /* \"#utility.yul\":747:753   */\n      0x00\n        /* \"#utility.yul\":796:798   */\n      0x20\n        /* \"#utility.yul\":784:793   */\n      dup3\n        /* \"#utility.yul\":775:782   */\n      dup5\n        /* \"#utility.yul\":771:794   */\n      sub\n        /* \"#utility.yul\":767:799   */\n      slt\n        /* \"#utility.yul\":764:883   */\n      iszero\n      tag_121\n      jumpi\n        /* \"#utility.yul\":802:881   */\n      tag_122\n      tag_72\n      jump\t// in\n    tag_122:\n        /* \"#utility.yul\":764:883   */\n    tag_121:\n        /* \"#utility.yul\":922:923   */\n      0x00\n        /* \"#utility.yul\":947:997   */\n      tag_123\n        /* \"#utility.yul\":989:996   */\n      dup5\n        /* \"#utility.yul\":980:986   */\n      dup3\n        /* \"#utility.yul\":969:978   */\n      dup6\n        /* \"#utility.yul\":965:987   */\n      add\n        /* \"#utility.yul\":947:997   */\n      tag_76\n      jump\t// in\n    tag_123:\n        /* \"#utility.yul\":937:997   */\n      swap2\n      pop\n        /* \"#utility.yul\":893:1007   */\n      pop\n        /* \"#utility.yul\":691:1014   */\n      swap3\n      swap2\n      pop\n      pop\n      jump\t// out\n        /* \"#utility.yul\":1020:1129   */\n    tag_77:\n        /* \"#utility.yul\":1101:1122   */\n      tag_125\n        /* \"#utility.yul\":1116:1121   */\n      dup2\n        /* \"#utility.yul\":1101:1122   */\n      tag_74\n      jump\t// in\n    tag_125:\n        /* \"#utility.yul\":1096:1099   */\n      dup3\n        /* \"#utility.yul\":1089:1123   */\n      mstore\n        /* \"#utility.yul\":1020:1129   */\n      pop\n      pop\n      jump\t// out\n        /* \"#utility.yul\":1135:1345   */\n    tag_12:\n        /* \"#utility.yul\":1222:1226   */\n      0x00\n        /* \"#utility.yul\":1260:1262   */\n      0x20\n        /* \"#utility.yul\":1249:1258   */\n      dup3\n        /* \"#utility.yul\":1245:1263   */\n      add\n        /* \"#utility.yul\":1237:1263   */\n      swap1\n      pop\n        /* \"#utility.yul\":1273:1338   */\n      tag_127\n        /* \"#utility.yul\":1335:1336   */\n      0x00\n        /* \"#utility.yul\":1324:1333   */\n      dup4\n        /* \"#utility.yul\":1320:1337   */\n      add\n        /* \"#utility.yul\":1311:1317   */\n      dup5\n        /* \"#utility.yul\":1273:1338   */\n      tag_77\n      jump\t// in\n    tag_127:\n        /* \"#utility.yul\":1135:1345   */\n      swap3\n      swap2\n      pop\n      pop\n      jump\t// out\n        /* \"#utility.yul\":1351:1477   */\n    tag_78:\n        /* \"#utility.yul\":1388:1395   */\n      0x00\n        /* \"#utility.yul\":1428:1470   */\n      0xffffffffffffffffffffffffffffffffffffffff\n        /* \"#utility.yul\":1421:1426   */\n      dup3\n        /* \"#utility.yul\":1417:1471   */\n      and\n        /* \"#utility.yul\":1406:1471   */\n      swap1\n      pop\n        /* \"#utility.yul\":1351:1477   */\n      swap2\n      swap1\n      pop\n      jump\t// out\n        /* \"#utility.yul\":1483:1587   */\n    tag_79:\n        /* \"#utility.yul\":1528:1535   */\n      0x00\n        /* \"#utility.yul\":1557:1581   */\n      tag_130\n        /* \"#utility.yul\":1575:1580   */\n      dup3\n        /* \"#utility.yul\":1557:1581   */\n      tag_78\n      jump\t// in\n    tag_130:\n        /* \"#utility.yul\":1546:1581   */\n      swap1\n      pop\n        /* \"#utility.yul\":1483:1587   */\n      swap2\n      swap1\n      pop\n      jump\t// out\n        /* \"#utility.yul\":1593:1731   */\n    tag_80:\n        /* \"#utility.yul\":1674:1706   */\n      tag_132\n        /* \"#utility.yul\":1700:1705   */\n      dup2\n        /* \"#utility.yul\":1674:1706   */\n      tag_79\n      jump\t// in\n    tag_132:\n        /* \"#utility.yul\":1667:1672   */\n      dup2\n        /* \"#utility.yul\":1664:1707   */\n      eq\n        /* \"#utility.yul\":1654:1725   */\n      tag_133\n      jumpi\n        /* \"#utility.yul\":1721:1722   */\n      0x00\n        /* \"#utility.yul\":1718:1719   */\n      dup1\n        /* \"#utility.yul\":1711:1723   */\n      revert\n        /* \"#utility.yul\":1654:1725   */\n    tag_133:\n        /* \"#utility.yul\":1593:1731   */\n      pop\n      jump\t// out\n        /* \"#utility.yul\":1737:1892   */\n    tag_81:\n        /* \"#utility.yul\":1791:1796   */\n      0x00\n        /* \"#utility.yul\":1829:1835   */\n      dup2\n        /* \"#utility.yul\":1816:1836   */\n      calldataload\n        /* \"#utility.yul\":1807:1836   */\n      swap1\n      pop\n        /* \"#utility.yul\":1845:1886   */\n      tag_135\n        /* \"#utility.yul\":1880:1885   */\n      dup2\n        /* \"#utility.yul\":1845:1886   */\n      tag_80\n      jump\t// in\n    tag_135:\n        /* \"#utility.yul\":1737:1892   */\n      swap3\n      swap2\n      pop\n      pop\n      jump\t// out\n        /* \"#utility.yul\":1898:1975   */\n    tag_82:\n        /* \"#utility.yul\":1935:1942   */\n      0x00\n        /* \"#utility.yul\":1964:1969   */\n      dup2\n        /* \"#utility.yul\":1953:1969   */\n      swap1\n      pop\n        /* \"#utility.yul\":1898:1975   */\n      swap2\n      swap1\n      pop\n      jump\t// out\n        /* \"#utility.yul\":1981:2103   */\n    tag_83:\n        /* \"#utility.yul\":2054:2078   */\n      tag_138\n        /* \"#utility.yul\":2072:2077   */\n      dup2\n        /* \"#utility.yul\":2054:2078   */\n      tag_82\n      jump\t// in\n    tag_138:\n        /* \"#utility.yul\":2047:2052   */\n      dup2\n        /* \"#utility.yul\":2044:2079   */\n      eq\n        /* \"#utility.yul\":2034:2097   */\n      tag_139\n      jumpi\n        /* \"#utility.yul\":2093:2094   */\n      0x00\n        /* \"#utility.yul\":2090:2091   */\n      dup1\n        /* \"#utility.yul\":2083:2095   */\n      revert\n        /* \"#utility.yul\":2034:2097   */\n    tag_139:\n        /* \"#utility.yul\":1981:2103   */\n      pop\n      jump\t// out\n        /* \"#utility.yul\":2109:2248   */\n    tag_84:\n        /* \"#utility.yul\":2155:2160   */\n      0x00\n        /* \"#utility.yul\":2193:2199   */\n      dup2\n        /* \"#utility.yul\":2180:2200   */\n      calldataload\n        /* \"#utility.yul\":2171:2200   */\n      swap1\n      pop\n        /* \"#utility.yul\":2209:2242   */\n      tag_141\n        /* \"#utility.yul\":2236:2241   */\n      dup2\n        /* \"#utility.yul\":2209:2242   */\n      tag_83\n      jump\t// in\n    tag_141:\n        /* \"#utility.yul\":2109:2248   */\n      swap3\n      swap2\n      pop\n      pop\n      jump\t// out\n        /* \"#utility.yul\":2254:2744   */\n    tag_15:\n        /* \"#utility.yul\":2330:2336   */\n      0x00\n        /* \"#utility.yul\":2338:2344   */\n      dup1\n        /* \"#utility.yul\":2387:2389   */\n      0x40\n        /* \"#utility.yul\":2375:2384   */\n      dup4\n        /* \"#utility.yul\":2366:2373   */\n      dup6\n        /* \"#utility.yul\":2362:2385   */\n      sub\n        /* \"#utility.yul\":2358:2390   */\n      slt\n        /* \"#utility.yul\":2355:2474   */\n      iszero\n      tag_143\n      jumpi\n        /* \"#utility.yul\":2393:2472   */\n      tag_144\n      tag_72\n      jump\t// in\n    tag_144:\n        /* \"#utility.yul\":2355:2474   */\n    tag_143:\n        /* \"#utility.yul\":2513:2514   */\n      0x00\n        /* \"#utility.yul\":2538:2599   */\n      tag_145\n        /* \"#utility.yul\":2591:2598   */\n      dup6\n        /* \"#utility.yul\":2582:2588   */\n      dup3\n        /* \"#utility.yul\":2571:2580   */\n      dup7\n        /* \"#utility.yul\":2567:2589   */\n      add\n        /* \"#utility.yul\":2538:2599   */\n      tag_81\n      jump\t// in\n    tag_145:\n        /* \"#utility.yul\":2528:2599   */\n      swap3\n      pop\n        /* \"#utility.yul\":2484:2609   */\n      pop\n        /* \"#utility.yul\":2648:2650   */\n      0x20\n        /* \"#utility.yul\":2674:2727   */\n      tag_146\n        /* \"#utility.yul\":2719:2726   */\n      dup6\n        /* \"#utility.yul\":2710:2716   */\n      dup3\n        /* \"#utility.yul\":2699:2708   */\n      dup7\n        /* \"#utility.yul\":2695:2717   */\n      add\n        /* \"#utility.yul\":2674:2727   */\n      tag_84\n      jump\t// in\n    tag_146:\n        /* \"#utility.yul\":2664:2727   */\n      swap2\n      pop\n        /* \"#utility.yul\":2619:2737   */\n      pop\n        /* \"#utility.yul\":2254:2744   */\n      swap3\n      pop\n      swap3\n      swap1\n      pop\n      jump\t// out\n        /* \"#utility.yul\":2750:2846   */\n    tag_85:\n        /* \"#utility.yul\":2787:2794   */\n      0x00\n        /* \"#utility.yul\":2816:2840   */\n      tag_148\n        /* \"#utility.yul\":2834:2839   */\n      dup3\n        /* \"#utility.yul\":2816:2840   */\n      tag_78\n      jump\t// in\n    tag_148:\n        /* \"#utility.yul\":2805:2840   */\n      swap1\n      pop\n        /* \"#utility.yul\":2750:2846   */\n      swap2\n      swap1\n      pop\n      jump\t// out\n        /* \"#utility.yul\":2852:2974   */\n    tag_86:\n        /* \"#utility.yul\":2925:2949   */\n      tag_150\n        /* \"#utility.yul\":2943:2948   */\n      dup2\n        /* \"#utility.yul\":2925:2949   */\n      tag_85\n      jump\t// in\n    tag_150:\n        /* \"#utility.yul\":2918:2923   */\n      dup2\n        /* \"#utility.yul\":2915:2950   */\n      eq\n        /* \"#utility.yul\":2905:2968   */\n      tag_151\n      jumpi\n        /* \"#utility.yul\":2964:2965   */\n      0x00\n        /* \"#utility.yul\":2961:2962   */\n      dup1\n        /* \"#utility.yul\":2954:2966   */\n      revert\n        /* \"#utility.yul\":2905:2968   */\n    tag_151:\n        /* \"#utility.yul\":2852:2974   */\n      pop\n      jump\t// out\n        /* \"#utility.yul\":2980:3119   */\n    tag_87:\n        /* \"#utility.yul\":3026:3031   */\n      0x00\n        /* \"#utility.yul\":3064:3070   */\n      dup2\n        /* \"#utility.yul\":3051:3071   */\n      calldataload\n        /* \"#utility.yul\":3042:3071   */\n      swap1\n      pop\n        /* \"#utility.yul\":3080:3113   */\n      tag_153\n        /* \"#utility.yul\":3107:3112   */\n      dup2\n        /* \"#utility.yul\":3080:3113   */\n      tag_86\n      jump\t// in\n    tag_153:\n        /* \"#utility.yul\":2980:3119   */\n      swap3\n      swap2\n      pop\n      pop\n      jump\t// out\n        /* \"#utility.yul\":3125:3599   */\n    tag_21:\n        /* \"#utility.yul\":3193:3199   */\n      0x00\n        /* \"#utility.yul\":3201:3207   */\n      dup1\n        /* \"#utility.yul\":3250:3252   */\n      0x40\n        /* \"#utility.yul\":3238:3247   */\n      dup4\n        /* \"#utility.yul\":3229:3236   */\n      dup6\n        /* \"#utility.yul\":3225:3248   */\n      sub\n        /* \"#utility.yul\":3221:3253   */\n      slt\n        /* \"#utility.yul\":3218:3337   */\n      iszero\n      tag_155\n      jumpi\n        /* \"#utility.yul\":3256:3335   */\n      tag_156\n      tag_72\n      jump\t// in\n    tag_156:\n        /* \"#utility.yul\":3218:3337   */\n    tag_155:\n        /* \"#utility.yul\":3376:3377   */\n      0x00\n        /* \"#utility.yul\":3401:3454   */\n      tag_157\n        /* \"#utility.yul\":3446:3453   */\n      dup6\n        /* \"#utility.yul\":3437:3443   */\n      dup3\n        /* \"#utility.yul\":3426:3435   */\n      dup7\n        /* \"#utility.yul\":3422:3444   */\n      add\n        /* \"#utility.yul\":3401:3454   */\n      tag_87\n      jump\t// in\n    tag_157:\n        /* \"#utility.yul\":3391:3454   */\n      swap3\n      pop\n        /* \"#utility.yul\":3347:3464   */\n      pop\n        /* \"#utility.yul\":3503:3505   */\n      0x20\n        /* \"#utility.yul\":3529:3582   */\n      tag_158\n        /* \"#utility.yul\":3574:3581   */\n      dup6\n        /* \"#utility.yul\":3565:3571   */\n      dup3\n        /* \"#utility.yul\":3554:3563   */\n      dup7\n        /* \"#utility.yul\":3550:3572   */\n      add\n        /* \"#utility.yul\":3529:3582   */\n      tag_87\n      jump\t// in\n    tag_158:\n        /* \"#utility.yul\":3519:3582   */\n      swap2\n      pop\n        /* \"#utility.yul\":3474:3592   */\n      pop\n        /* \"#utility.yul\":3125:3599   */\n      swap3\n      pop\n      swap3\n      swap1\n      pop\n      jump\t// out\n        /* \"#utility.yul\":3605:3722   */\n    tag_88:\n        /* \"#utility.yul\":3714:3715   */\n      0x00\n        /* \"#utility.yul\":3711:3712   */\n      dup1\n        /* \"#utility.yul\":3704:3716   */\n      revert\n        /* \"#utility.yul\":3728:3830   */\n    tag_89:\n        /* \"#utility.yul\":3769:3775   */\n      0x00\n        /* \"#utility.yul\":3820:3822   */\n      0x1f\n        /* \"#utility.yul\":3816:3823   */\n      not\n        /* \"#utility.yul\":3811:3813   */\n      0x1f\n        /* \"#utility.yul\":3804:3809   */\n      dup4\n        /* \"#utility.yul\":3800:3814   */\n      add\n        /* \"#utility.yul\":3796:3824   */\n      and\n        /* \"#utility.yul\":3786:3824   */\n      swap1\n      pop\n        /* \"#utility.yul\":3728:3830   */\n      swap2\n      swap1\n      pop\n      jump\t// out\n        /* \"#utility.yul\":3836:4016   */\n    tag_90:\n        /* \"#utility.yul\":3884:3961   */\n      0x4e487b7100000000000000000000000000000000000000000000000000000000\n        /* \"#utility.yul\":3881:3882   */\n      0x00\n        /* \"#utility.yul\":3874:3962   */\n      mstore\n        /* \"#utility.yul\":3981:3985   */\n      0x41\n        /* \"#utility.yul\":3978:3979   */\n      0x04\n        /* \"#utility.yul\":3971:3986   */\n      mstore\n        /* \"#utility.yul\":4005:4009   */\n      0x24\n        /* \"#utility.yul\":4002:4003   */\n      0x00\n        /* \"#utility.yul\":3995:4010   */\n      revert\n        /* \"#utility.yul\":4022:4303   */\n    tag_91:\n        /* \"#utility.yul\":4105:4132   */\n      tag_163\n        /* \"#utility.yul\":4127:4131   */\n      dup3\n        /* \"#utility.yul\":4105:4132   */\n      tag_89\n      jump\t// in\n    tag_163:\n        /* \"#utility.yul\":4097:4103   */\n      dup2\n        /* \"#utility.yul\":4093:4133   */\n      add\n        /* \"#utility.yul\":4235:4241   */\n      dup2\n        /* \"#utility.yul\":4223:4233   */\n      dup2\n        /* \"#utility.yul\":4220:4242   */\n      lt\n        /* \"#utility.yul\":4199:4217   */\n      0xffffffffffffffff\n        /* \"#utility.yul\":4187:4197   */\n      dup3\n        /* \"#utility.yul\":4184:4218   */\n      gt\n        /* \"#utility.yul\":4181:4243   */\n      or\n        /* \"#utility.yul\":4178:4266   */\n      iszero\n      tag_164\n      jumpi\n        /* \"#utility.yul\":4246:4264   */\n      tag_165\n      tag_90\n      jump\t// in\n    tag_165:\n        /* \"#utility.yul\":4178:4266   */\n    tag_164:\n        /* \"#utility.yul\":4286:4296   */\n      dup1\n        /* \"#utility.yul\":4282:4284   */\n      0x40\n        /* \"#utility.yul\":4275:4297   */\n      mstore\n        /* \"#utility.yul\":4065:4303   */\n      pop\n        /* \"#utility.yul\":4022:4303   */\n      pop\n      pop\n      jump\t// out\n        /* \"#utility.yul\":4309:4438   */\n    tag_92:\n        /* \"#utility.yul\":4343:4349   */\n      0x00\n        /* \"#utility.yul\":4370:4390   */\n      tag_167\n      tag_71\n      jump\t// in\n    tag_167:\n        /* \"#utility.yul\":4360:4390   */\n      swap1\n      pop\n        /* \"#utility.yul\":4399:4432   */\n      tag_168\n        /* \"#utility.yul\":4427:4431   */\n      dup3\n        /* \"#utility.yul\":4419:4425   */\n      dup3\n        /* \"#utility.yul\":4399:4432   */\n      tag_91\n      jump\t// in\n    tag_168:\n        /* \"#utility.yul\":4309:4438   */\n      swap2\n      swap1\n      pop\n      jump\t// out\n        /* \"#utility.yul\":4444:4561   */\n    tag_93:\n        /* \"#utility.yul\":4553:4554   */\n      0x00\n        /* \"#utility.yul\":4550:4551   */\n      dup1\n        /* \"#utility.yul\":4543:4555   */\n      revert\n        /* \"#utility.yul\":4567:4684   */\n    tag_94:\n        /* \"#utility.yul\":4676:4677   */\n      0x00\n        /* \"#utility.yul\":4673:4674   */\n      dup1\n        /* \"#utility.yul\":4666:4678   */\n      revert\n        /* \"#utility.yul\":4690:4807   */\n    tag_95:\n        /* \"#utility.yul\":4799:4800   */\n      0x00\n        /* \"#utility.yul\":4796:4797   */\n      dup1\n        /* \"#utility.yul\":4789:4801   */\n      revert\n        /* \"#utility.yul\":4813:5121   */\n    tag_96:\n        /* \"#utility.yul\":4875:4879   */\n      0x00\n        /* \"#utility.yul\":4965:4983   */\n      0xffffffffffffffff\n        /* \"#utility.yul\":4957:4963   */\n      dup3\n        /* \"#utility.yul\":4954:4984   */\n      gt\n        /* \"#utility.yul\":4951:5007   */\n      iszero\n      tag_173\n      jumpi\n        /* \"#utility.yul\":4987:5005   */\n      tag_174\n      tag_90\n      jump\t// in\n    tag_174:\n        /* \"#utility.yul\":4951:5007   */\n    tag_173:\n        /* \"#utility.yul\":5025:5054   */\n      tag_175\n        /* \"#utility.yul\":5047:5053   */\n      dup3\n        /* \"#utility.yul\":5025:5054   */\n      tag_89\n      jump\t// in\n    tag_175:\n        /* \"#utility.yul\":5017:5054   */\n      swap1\n      pop\n        /* \"#utility.yul\":5109:5113   */\n      0x20\n        /* \"#utility.yul\":5103:5107   */\n      dup2\n        /* \"#utility.yul\":5099:5114   */\n      add\n        /* \"#utility.yul\":5091:5114   */\n      swap1\n      pop\n        /* \"#utility.yul\":4813:5121   */\n      swap2\n      swap1\n      pop\n      jump\t// out\n        /* \"#utility.yul\":5127:5273   */\n    tag_97:\n        /* \"#utility.yul\":5224:5230   */\n      dup3\n        /* \"#utility.yul\":5219:5222   */\n      dup2\n        /* \"#utility.yul\":5214:5217   */\n      dup4\n        /* \"#utility.yul\":5201:5231   */\n      calldatacopy\n        /* \"#utility.yul\":5265:5266   */\n      0x00\n        /* \"#utility.yul\":5256:5262   */\n      dup4\n        /* \"#utility.yul\":5251:5254   */\n      dup4\n        /* \"#utility.yul\":5247:5263   */\n      add\n        /* \"#utility.yul\":5240:5267   */\n      mstore\n        /* \"#utility.yul\":5127:5273   */\n      pop\n      pop\n      pop\n      jump\t// out\n        /* \"#utility.yul\":5279:5704   */\n    tag_98:\n        /* \"#utility.yul\":5357:5362   */\n      0x00\n        /* \"#utility.yul\":5382:5448   */\n      tag_178\n        /* \"#utility.yul\":5398:5447   */\n      tag_179\n        /* \"#utility.yul\":5440:5446   */\n      dup5\n        /* \"#utility.yul\":5398:5447   */\n      tag_96\n      jump\t// in\n    tag_179:\n        /* \"#utility.yul\":5382:5448   */\n      tag_92\n      jump\t// in\n    tag_178:\n        /* \"#utility.yul\":5373:5448   */\n      swap1\n      pop\n        /* \"#utility.yul\":5471:5477   */\n      dup3\n        /* \"#utility.yul\":5464:5469   */\n      dup2\n        /* \"#utility.yul\":5457:5478   */\n      mstore\n        /* \"#utility.yul\":5509:5513   */\n      0x20\n        /* \"#utility.yul\":5502:5507   */\n      dup2\n        /* \"#utility.yul\":5498:5514   */\n      add\n        /* \"#utility.yul\":5547:5550   */\n      dup5\n        /* \"#utility.yul\":5538:5544   */\n      dup5\n        /* \"#utility.yul\":5533:5536   */\n      dup5\n        /* \"#utility.yul\":5529:5545   */\n      add\n        /* \"#utility.yul\":5526:5551   */\n      gt\n        /* \"#utility.yul\":5523:5635   */\n      iszero\n      tag_180\n      jumpi\n        /* \"#utility.yul\":5554:5633   */\n      tag_181\n      tag_95\n      jump\t// in\n    tag_181:\n        /* \"#utility.yul\":5523:5635   */\n    tag_180:\n        /* \"#utility.yul\":5644:5698   */\n      tag_182\n        /* \"#utility.yul\":5691:5697   */\n      dup5\n        /* \"#utility.yul\":5686:5689   */\n      dup3\n        /* \"#utility.yul\":5681:5684   */\n      dup6\n        /* \"#utility.yul\":5644:5698   */\n      tag_97\n      jump\t// in\n    tag_182:\n        /* \"#utility.yul\":5363:5704   */\n      pop\n        /* \"#utility.yul\":5279:5704   */\n      swap4\n      swap3\n      pop\n      pop\n      pop\n      jump\t// out\n        /* \"#utility.yul\":5724:6064   */\n    tag_99:\n        /* \"#utility.yul\":5780:5785   */\n      0x00\n        /* \"#utility.yul\":5829:5832   */\n      dup3\n        /* \"#utility.yul\":5822:5826   */\n      0x1f\n        /* \"#utility.yul\":5814:5820   */\n      dup4\n        /* \"#utility.yul\":5810:5827   */\n      add\n        /* \"#utility.yul\":5806:5833   */\n      slt\n        /* \"#utility.yul\":5796:5918   */\n      tag_184\n      jumpi\n        /* \"#utility.yul\":5837:5916   */\n      tag_185\n      tag_94\n      jump\t// in\n    tag_185:\n        /* \"#utility.yul\":5796:5918   */\n    tag_184:\n        /* \"#utility.yul\":5954:5960   */\n      dup2\n        /* \"#utility.yul\":5941:5961   */\n      calldataload\n        /* \"#utility.yul\":5979:6058   */\n      tag_186\n        /* \"#utility.yul\":6054:6057   */\n      dup5\n        /* \"#utility.yul\":6046:6052   */\n      dup3\n        /* \"#utility.yul\":6039:6043   */\n      0x20\n        /* \"#utility.yul\":6031:6037   */\n      dup7\n        /* \"#utility.yul\":6027:6044   */\n      add\n        /* \"#utility.yul\":5979:6058   */\n      tag_98\n      jump\t// in\n    tag_186:\n        /* \"#utility.yul\":5970:6058   */\n      swap2\n      pop\n        /* \"#utility.yul\":5786:6064   */\n      pop\n        /* \"#utility.yul\":5724:6064   */\n      swap3\n      swap2\n      pop\n      pop\n      jump\t// out\n        /* \"#utility.yul\":6115:8732   */\n    tag_100:\n        /* \"#utility.yul\":6195:6200   */\n      0x00\n        /* \"#utility.yul\":6239:6245   */\n      0x0100\n        /* \"#utility.yul\":6227:6236   */\n      dup3\n        /* \"#utility.yul\":6222:6225   */\n      dup5\n        /* \"#utility.yul\":6218:6237   */\n      sub\n        /* \"#utility.yul\":6214:6246   */\n      slt\n        /* \"#utility.yul\":6211:6330   */\n      iszero\n      tag_188\n      jumpi\n        /* \"#utility.yul\":6249:6328   */\n      tag_189\n      tag_88\n      jump\t// in\n    tag_189:\n        /* \"#utility.yul\":6211:6330   */\n    tag_188:\n        /* \"#utility.yul\":6348:6371   */\n      tag_190\n        /* \"#utility.yul\":6364:6370   */\n      0x0100\n        /* \"#utility.yul\":6348:6371   */\n      tag_92\n      jump\t// in\n    tag_190:\n        /* \"#utility.yul\":6339:6371   */\n      swap1\n      pop\n        /* \"#utility.yul\":6437:6438   */\n      0x00\n        /* \"#utility.yul\":6477:6526   */\n      tag_191\n        /* \"#utility.yul\":6522:6525   */\n      dup5\n        /* \"#utility.yul\":6513:6519   */\n      dup3\n        /* \"#utility.yul\":6502:6511   */\n      dup6\n        /* \"#utility.yul\":6498:6520   */\n      add\n        /* \"#utility.yul\":6477:6526   */\n      tag_87\n      jump\t// in\n    tag_191:\n        /* \"#utility.yul\":6470:6474   */\n      0x00\n        /* \"#utility.yul\":6463:6468   */\n      dup4\n        /* \"#utility.yul\":6459:6475   */\n      add\n        /* \"#utility.yul\":6452:6527   */\n      mstore\n        /* \"#utility.yul\":6381:6538   */\n      pop\n        /* \"#utility.yul\":6625:6627   */\n      0x20\n        /* \"#utility.yul\":6614:6623   */\n      dup3\n        /* \"#utility.yul\":6610:6628   */\n      add\n        /* \"#utility.yul\":6597:6629   */\n      calldataload\n        /* \"#utility.yul\":6656:6674   */\n      0xffffffffffffffff\n        /* \"#utility.yul\":6648:6654   */\n      dup2\n        /* \"#utility.yul\":6645:6675   */\n      gt\n        /* \"#utility.yul\":6642:6759   */\n      iszero\n      tag_192\n      jumpi\n        /* \"#utility.yul\":6678:6757   */\n      tag_193\n      tag_93\n      jump\t// in\n    tag_193:\n        /* \"#utility.yul\":6642:6759   */\n    tag_192:\n        /* \"#utility.yul\":6798:6857   */\n      tag_194\n        /* \"#utility.yul\":6853:6856   */\n      dup5\n        /* \"#utility.yul\":6844:6850   */\n      dup3\n        /* \"#utility.yul\":6833:6842   */\n      dup6\n        /* \"#utility.yul\":6829:6851   */\n      add\n        /* \"#utility.yul\":6798:6857   */\n      tag_99\n      jump\t// in\n    tag_194:\n        /* \"#utility.yul\":6791:6795   */\n      0x20\n        /* \"#utility.yul\":6784:6789   */\n      dup4\n        /* \"#utility.yul\":6780:6796   */\n      add\n        /* \"#utility.yul\":6773:6858   */\n      mstore\n        /* \"#utility.yul\":6548:6869   */\n      pop\n        /* \"#utility.yul\":6961:6963   */\n      0x40\n        /* \"#utility.yul\":6950:6959   */\n      dup3\n        /* \"#utility.yul\":6946:6964   */\n      add\n        /* \"#utility.yul\":6933:6965   */\n      calldataload\n        /* \"#utility.yul\":6992:7010   */\n      0xffffffffffffffff\n        /* \"#utility.yul\":6984:6990   */\n      dup2\n        /* \"#utility.yul\":6981:7011   */\n      gt\n        /* \"#utility.yul\":6978:7095   */\n      iszero\n      tag_195\n      jumpi\n        /* \"#utility.yul\":7014:7093   */\n      tag_196\n      tag_93\n      jump\t// in\n    tag_196:\n        /* \"#utility.yul\":6978:7095   */\n    tag_195:\n        /* \"#utility.yul\":7134:7193   */\n      tag_197\n        /* \"#utility.yul\":7189:7192   */\n      dup5\n        /* \"#utility.yul\":7180:7186   */\n      dup3\n        /* \"#utility.yul\":7169:7178   */\n      dup6\n        /* \"#utility.yul\":7165:7187   */\n      add\n        /* \"#utility.yul\":7134:7193   */\n      tag_99\n      jump\t// in\n    tag_197:\n        /* \"#utility.yul\":7127:7131   */\n      0x40\n        /* \"#utility.yul\":7120:7125   */\n      dup4\n        /* \"#utility.yul\":7116:7132   */\n      add\n        /* \"#utility.yul\":7109:7194   */\n      mstore\n        /* \"#utility.yul\":6879:7205   */\n      pop\n        /* \"#utility.yul\":7296:7298   */\n      0x60\n        /* \"#utility.yul\":7285:7294   */\n      dup3\n        /* \"#utility.yul\":7281:7299   */\n      add\n        /* \"#utility.yul\":7268:7300   */\n      calldataload\n        /* \"#utility.yul\":7327:7345   */\n      0xffffffffffffffff\n        /* \"#utility.yul\":7319:7325   */\n      dup2\n        /* \"#utility.yul\":7316:7346   */\n      gt\n        /* \"#utility.yul\":7313:7430   */\n      iszero\n      tag_198\n      jumpi\n        /* \"#utility.yul\":7349:7428   */\n      tag_199\n      tag_93\n      jump\t// in\n    tag_199:\n        /* \"#utility.yul\":7313:7430   */\n    tag_198:\n        /* \"#utility.yul\":7469:7528   */\n      tag_200\n        /* \"#utility.yul\":7524:7527   */\n      dup5\n        /* \"#utility.yul\":7515:7521   */\n      dup3\n        /* \"#utility.yul\":7504:7513   */\n      dup6\n        /* \"#utility.yul\":7500:7522   */\n      add\n        /* \"#utility.yul\":7469:7528   */\n      tag_99\n      jump\t// in\n    tag_200:\n        /* \"#utility.yul\":7462:7466   */\n      0x60\n        /* \"#utility.yul\":7455:7460   */\n      dup4\n        /* \"#utility.yul\":7451:7467   */\n      add\n        /* \"#utility.yul\":7444:7529   */\n      mstore\n        /* \"#utility.yul\":7215:7540   */\n      pop\n        /* \"#utility.yul\":7630:7633   */\n      0x80\n        /* \"#utility.yul\":7619:7628   */\n      dup3\n        /* \"#utility.yul\":7615:7634   */\n      add\n        /* \"#utility.yul\":7602:7635   */\n      calldataload\n        /* \"#utility.yul\":7662:7680   */\n      0xffffffffffffffff\n        /* \"#utility.yul\":7654:7660   */\n      dup2\n        /* \"#utility.yul\":7651:7681   */\n      gt\n        /* \"#utility.yul\":7648:7765   */\n      iszero\n      tag_201\n      jumpi\n        /* \"#utility.yul\":7684:7763   */\n      tag_202\n      tag_93\n      jump\t// in\n    tag_202:\n        /* \"#utility.yul\":7648:7765   */\n    tag_201:\n        /* \"#utility.yul\":7804:7863   */\n      tag_203\n        /* \"#utility.yul\":7859:7862   */\n      dup5\n        /* \"#utility.yul\":7850:7856   */\n      dup3\n        /* \"#utility.yul\":7839:7848   */\n      dup6\n        /* \"#utility.yul\":7835:7857   */\n      add\n        /* \"#utility.yul\":7804:7863   */\n      tag_99\n      jump\t// in\n    tag_203:\n        /* \"#utility.yul\":7797:7801   */\n      0x80\n        /* \"#utility.yul\":7790:7795   */\n      dup4\n        /* \"#utility.yul\":7786:7802   */\n      add\n        /* \"#utility.yul\":7779:7864   */\n      mstore\n        /* \"#utility.yul\":7550:7875   */\n      pop\n        /* \"#utility.yul\":7966:7969   */\n      0xa0\n        /* \"#utility.yul\":7955:7964   */\n      dup3\n        /* \"#utility.yul\":7951:7970   */\n      add\n        /* \"#utility.yul\":7938:7971   */\n      calldataload\n        /* \"#utility.yul\":7998:8016   */\n      0xffffffffffffffff\n        /* \"#utility.yul\":7990:7996   */\n      dup2\n        /* \"#utility.yul\":7987:8017   */\n      gt\n        /* \"#utility.yul\":7984:8101   */\n      iszero\n      tag_204\n      jumpi\n        /* \"#utility.yul\":8020:8099   */\n      tag_205\n      tag_93\n      jump\t// in\n    tag_205:\n        /* \"#utility.yul\":7984:8101   */\n    tag_204:\n        /* \"#utility.yul\":8140:8199   */\n      tag_206\n        /* \"#utility.yul\":8195:8198   */\n      dup5\n        /* \"#utility.yul\":8186:8192   */\n      dup3\n        /* \"#utility.yul\":8175:8184   */\n      dup6\n        /* \"#utility.yul\":8171:8193   */\n      add\n        /* \"#utility.yul\":8140:8199   */\n      tag_99\n      jump\t// in\n    tag_206:\n        /* \"#utility.yul\":8133:8137   */\n      0xa0\n        /* \"#utility.yul\":8126:8131   */\n      dup4\n        /* \"#utility.yul\":8122:8138   */\n      add\n        /* \"#utility.yul\":8115:8200   */\n      mstore\n        /* \"#utility.yul\":7885:8211   */\n      pop\n        /* \"#utility.yul\":8305:8308   */\n      0xc0\n        /* \"#utility.yul\":8294:8303   */\n      dup3\n        /* \"#utility.yul\":8290:8309   */\n      add\n        /* \"#utility.yul\":8277:8310   */\n      calldataload\n        /* \"#utility.yul\":8337:8355   */\n      0xffffffffffffffff\n        /* \"#utility.yul\":8329:8335   */\n      dup2\n        /* \"#utility.yul\":8326:8356   */\n      gt\n        /* \"#utility.yul\":8323:8440   */\n      iszero\n      tag_207\n      jumpi\n        /* \"#utility.yul\":8359:8438   */\n      tag_208\n      tag_93\n      jump\t// in\n    tag_208:\n        /* \"#utility.yul\":8323:8440   */\n    tag_207:\n        /* \"#utility.yul\":8479:8538   */\n      tag_209\n        /* \"#utility.yul\":8534:8537   */\n      dup5\n        /* \"#utility.yul\":8525:8531   */\n      dup3\n        /* \"#utility.yul\":8514:8523   */\n      dup6\n        /* \"#utility.yul\":8510:8532   */\n      add\n        /* \"#utility.yul\":8479:8538   */\n      tag_99\n      jump\t// in\n    tag_209:\n        /* \"#utility.yul\":8472:8476   */\n      0xc0\n        /* \"#utility.yul\":8465:8470   */\n      dup4\n        /* \"#utility.yul\":8461:8477   */\n      add\n        /* \"#utility.yul\":8454:8539   */\n      mstore\n        /* \"#utility.yul\":8221:8550   */\n      pop\n        /* \"#utility.yul\":8625:8628   */\n      0xe0\n        /* \"#utility.yul\":8667:8713   */\n      tag_210\n        /* \"#utility.yul\":8709:8712   */\n      dup5\n        /* \"#utility.yul\":8700:8706   */\n      dup3\n        /* \"#utility.yul\":8689:8698   */\n      dup6\n        /* \"#utility.yul\":8685:8707   */\n      add\n        /* \"#utility.yul\":8667:8713   */\n      tag_76\n      jump\t// in\n    tag_210:\n        /* \"#utility.yul\":8660:8664   */\n      0xe0\n        /* \"#utility.yul\":8653:8658   */\n      dup4\n        /* \"#utility.yul\":8649:8665   */\n      add\n        /* \"#utility.yul\":8642:8714   */\n      mstore\n        /* \"#utility.yul\":8560:8725   */\n      pop\n        /* \"#utility.yul\":6115:8732   */\n      swap3\n      swap2\n      pop\n      pop\n      jump\t// out\n        /* \"#utility.yul\":8738:9656   */\n    tag_27:\n        /* \"#utility.yul\":8868:8874   */\n      0x00\n        /* \"#utility.yul\":8876:8882   */\n      dup1\n        /* \"#utility.yul\":8925:8927   */\n      0x40\n        /* \"#utility.yul\":8913:8922   */\n      dup4\n        /* \"#utility.yul\":8904:8911   */\n      dup6\n        /* \"#utility.yul\":8900:8923   */\n      sub\n        /* \"#utility.yul\":8896:8928   */\n      slt\n        /* \"#utility.yul\":8893:9012   */\n      iszero\n      tag_212\n      jumpi\n        /* \"#utility.yul\":8931:9010   */\n      tag_213\n      tag_72\n      jump\t// in\n    tag_213:\n        /* \"#utility.yul\":8893:9012   */\n    tag_212:\n        /* \"#utility.yul\":9079:9080   */\n      0x00\n        /* \"#utility.yul\":9068:9077   */\n      dup4\n        /* \"#utility.yul\":9064:9081   */\n      add\n        /* \"#utility.yul\":9051:9082   */\n      calldataload\n        /* \"#utility.yul\":9109:9127   */\n      0xffffffffffffffff\n        /* \"#utility.yul\":9101:9107   */\n      dup2\n        /* \"#utility.yul\":9098:9128   */\n      gt\n        /* \"#utility.yul\":9095:9212   */\n      iszero\n      tag_214\n      jumpi\n        /* \"#utility.yul\":9131:9210   */\n      tag_215\n      tag_73\n      jump\t// in\n    tag_215:\n        /* \"#utility.yul\":9095:9212   */\n    tag_214:\n        /* \"#utility.yul\":9236:9320   */\n      tag_216\n        /* \"#utility.yul\":9312:9319   */\n      dup6\n        /* \"#utility.yul\":9303:9309   */\n      dup3\n        /* \"#utility.yul\":9292:9301   */\n      dup7\n        /* \"#utility.yul\":9288:9310   */\n      add\n        /* \"#utility.yul\":9236:9320   */\n      tag_100\n      jump\t// in\n    tag_216:\n        /* \"#utility.yul\":9226:9320   */\n      swap3\n      pop\n        /* \"#utility.yul\":9022:9330   */\n      pop\n        /* \"#utility.yul\":9397:9399   */\n      0x20\n        /* \"#utility.yul\":9386:9395   */\n      dup4\n        /* \"#utility.yul\":9382:9400   */\n      add\n        /* \"#utility.yul\":9369:9401   */\n      calldataload\n        /* \"#utility.yul\":9428:9446   */\n      0xffffffffffffffff\n        /* \"#utility.yul\":9420:9426   */\n      dup2\n        /* \"#utility.yul\":9417:9447   */\n      gt\n        /* \"#utility.yul\":9414:9531   */\n      iszero\n      tag_217\n      jumpi\n        /* \"#utility.yul\":9450:9529   */\n      tag_218\n      tag_73\n      jump\t// in\n    tag_218:\n        /* \"#utility.yul\":9414:9531   */\n    tag_217:\n        /* \"#utility.yul\":9555:9639   */\n      tag_219\n        /* \"#utility.yul\":9631:9638   */\n      dup6\n        /* \"#utility.yul\":9622:9628   */\n      dup3\n        /* \"#utility.yul\":9611:9620   */\n      dup7\n        /* \"#utility.yul\":9607:9629   */\n      add\n        /* \"#utility.yul\":9555:9639   */\n      tag_100\n      jump\t// in\n    tag_219:\n        /* \"#utility.yul\":9545:9639   */\n      swap2\n      pop\n        /* \"#utility.yul\":9340:9649   */\n      pop\n        /* \"#utility.yul\":8738:9656   */\n      swap3\n      pop\n      swap3\n      swap1\n      pop\n      jump\t// out\n        /* \"#utility.yul\":9662:9842   */\n    tag_43:\n        /* \"#utility.yul\":9710:9787   */\n      0x4e487b7100000000000000000000000000000000000000000000000000000000\n        /* \"#utility.yul\":9707:9708   */\n      0x00\n        /* \"#utility.yul\":9700:9788   */\n      mstore\n        /* \"#utility.yul\":9807:9811   */\n      0x32\n        /* \"#utility.yul\":9804:9805   */\n      0x04\n        /* \"#utility.yul\":9797:9812   */\n      mstore\n        /* \"#utility.yul\":9831:9835   */\n      0x24\n        /* \"#utility.yul\":9828:9829   */\n      0x00\n        /* \"#utility.yul\":9821:9836   */\n      revert\n        /* \"#utility.yul\":9848:10028   */\n    tag_101:\n        /* \"#utility.yul\":9896:9973   */\n      0x4e487b7100000000000000000000000000000000000000000000000000000000\n        /* \"#utility.yul\":9893:9894   */\n      0x00\n        /* \"#utility.yul\":9886:9974   */\n      mstore\n        /* \"#utility.yul\":9993:9997   */\n      0x11\n        /* \"#utility.yul\":9990:9991   */\n      0x04\n        /* \"#utility.yul\":9983:9998   */\n      mstore\n        /* \"#utility.yul\":10017:10021   */\n      0x24\n        /* \"#utility.yul\":10014:10015   */\n      0x00\n        /* \"#utility.yul\":10007:10022   */\n      revert\n        /* \"#utility.yul\":10034:10267   */\n    tag_51:\n        /* \"#utility.yul\":10073:10076   */\n      0x00\n        /* \"#utility.yul\":10096:10120   */\n      tag_223\n        /* \"#utility.yul\":10114:10119   */\n      dup3\n        /* \"#utility.yul\":10096:10120   */\n      tag_82\n      jump\t// in\n    tag_223:\n        /* \"#utility.yul\":10087:10120   */\n      swap2\n      pop\n        /* \"#utility.yul\":10142:10208   */\n      0xffffffffffffffffffffffffffffffffffffffffffffffffffffffffffffffff\n        /* \"#utility.yul\":10135:10140   */\n      dup3\n        /* \"#utility.yul\":10132:10209   */\n      sub\n        /* \"#utility.yul\":10129:10232   */\n      tag_224\n      jumpi\n        /* \"#utility.yul\":10212:10230   */\n      tag_225\n      tag_101\n      jump\t// in\n    tag_225:\n        /* \"#utility.yul\":10129:10232   */\n    tag_224:\n        /* \"#utility.yul\":10259:10260   */\n      0x01\n        /* \"#utility.yul\":10252:10257   */\n      dup3\n        /* \"#utility.yul\":10248:10261   */\n      add\n        /* \"#utility.yul\":10241:10261   */\n      swap1\n      pop\n        /* \"#utility.yul\":10034:10267   */\n      swap2\n      swap1\n      pop\n      jump\t// out\n        /* \"#utility.yul\":10273:10372   */\n    tag_102:\n        /* \"#utility.yul\":10325:10331   */\n      0x00\n        /* \"#utility.yul\":10359:10364   */\n      dup2\n        /* \"#utility.yul\":10353:10365   */\n      mload\n        /* \"#utility.yul\":10343:10365   */\n      swap1\n      pop\n        /* \"#utility.yul\":10273:10372   */\n      swap2\n      swap1\n      pop\n      jump\t// out\n        /* \"#utility.yul\":10378:10526   */\n    tag_103:\n        /* \"#utility.yul\":10480:10491   */\n      0x00\n        /* \"#utility.yul\":10517:10520   */\n      dup2\n        /* \"#utility.yul\":10502:10520   */\n      swap1\n      pop\n        /* \"#utility.yul\":10378:10526   */\n      swap3\n      swap2\n      pop\n      pop\n      jump\t// out\n        /* \"#utility.yul\":10532:10778   */\n    tag_104:\n        /* \"#utility.yul\":10613:10614   */\n      0x00\n        /* \"#utility.yul\":10623:10736   */\n    tag_229:\n        /* \"#utility.yul\":10637:10643   */\n      dup4\n        /* \"#utility.yul\":10634:10635   */\n      dup2\n        /* \"#utility.yul\":10631:10644   */\n      lt\n        /* \"#utility.yul\":10623:10736   */\n      iszero\n      tag_231\n      jumpi\n        /* \"#utility.yul\":10722:10723   */\n      dup1\n        /* \"#utility.yul\":10717:10720   */\n      dup3\n        /* \"#utility.yul\":10713:10724   */\n      add\n        /* \"#utility.yul\":10707:10725   */\n      mload\n        /* \"#utility.yul\":10703:10704   */\n      dup2\n        /* \"#utility.yul\":10698:10701   */\n      dup5\n        /* \"#utility.yul\":10694:10705   */\n      add\n        /* \"#utility.yul\":10687:10726   */\n      mstore\n        /* \"#utility.yul\":10659:10661   */\n      0x20\n        /* \"#utility.yul\":10656:10657   */\n      dup2\n        /* \"#utility.yul\":10652:10662   */\n      add\n        /* \"#utility.yul\":10647:10662   */\n      swap1\n      pop\n        /* \"#utility.yul\":10623:10736   */\n      jump(tag_229)\n    tag_231:\n        /* \"#utility.yul\":10770:10771   */\n      0x00\n        /* \"#utility.yul\":10761:10767   */\n      dup5\n        /* \"#utility.yul\":10756:10759   */\n      dup5\n        /* \"#utility.yul\":10752:10768   */\n      add\n        /* \"#utility.yul\":10745:10772   */\n      mstore\n        /* \"#utility.yul\":10594:10778   */\n      pop\n        /* \"#utility.yul\":10532:10778   */\n      pop\n      pop\n      pop\n      jump\t// out\n        /* \"#utility.yul\":10784:11174   */\n    tag_105:\n        /* \"#utility.yul\":10890:10893   */\n      0x00\n        /* \"#utility.yul\":10918:10957   */\n      tag_233\n        /* \"#utility.yul\":10951:10956   */\n      dup3\n        /* \"#utility.yul\":10918:10957   */\n      tag_102\n      jump\t// in\n    tag_233:\n        /* \"#utility.yul\":10973:11062   */\n      tag_234\n        /* \"#utility.yul\":11055:11061   */\n      dup2\n        /* \"#utility.yul\":11050:11053   */\n      dup6\n        /* \"#utility.yul\":10973:11062   */\n      tag_103\n      jump\t// in\n    tag_234:\n        /* \"#utility.yul\":10966:11062   */\n      swap4\n      pop\n        /* \"#utility.yul\":11071:11136   */\n      tag_235\n        /* \"#utility.yul\":11129:11135   */\n      dup2\n        /* \"#utility.yul\":11124:11127   */\n      dup6\n        /* \"#utility.yul\":11117:11121   */\n      0x20\n        /* \"#utility.yul\":11110:11115   */\n      dup7\n        /* \"#utility.yul\":11106:11122   */\n      add\n        /* \"#utility.yul\":11071:11136   */\n      tag_104\n      jump\t// in\n    tag_235:\n        /* \"#utility.yul\":11161:11167   */\n      dup1\n        /* \"#utility.yul\":11156:11159   */\n      dup5\n        /* \"#utility.yul\":11152:11168   */\n      add\n        /* \"#utility.yul\":11145:11168   */\n      swap2\n      pop\n        /* \"#utility.yul\":10894:11174   */\n      pop\n        /* \"#utility.yul\":10784:11174   */\n      swap3\n      swap2\n      pop\n      pop\n      jump\t// out\n        /* \"#utility.yul\":11180:11455   */\n    tag_57:\n        /* \"#utility.yul\":11312:11315   */\n      0x00\n        /* \"#utility.yul\":11334:11429   */\n      tag_237\n        /* \"#utility.yul\":11425:11428   */\n      dup3\n        /* \"#utility.yul\":11416:11422   */\n      dup5\n        /* \"#utility.yul\":11334:11429   */\n      tag_105\n      jump\t// in\n    tag_237:\n        /* \"#utility.yul\":11327:11429   */\n      swap2\n      pop\n        /* \"#utility.yul\":11446:11449   */\n      dup2\n        /* \"#utility.yul\":11439:11449   */\n      swap1\n      pop\n        /* \"#utility.yul\":11180:11455   */\n      swap3\n      swap2\n      pop\n      pop\n      jump\t// out\n        /* \"#utility.yul\":11461:11641   */\n    tag_106:\n        /* \"#utility.yul\":11509:11586   */\n      0x4e487b7100000000000000000000000000000000000000000000000000000000\n        /* \"#utility.yul\":11506:11507   */\n      0x00\n        /* \"#utility.yul\":11499:11587   */\n      mstore\n        /* \"#utility.yul\":11606:11610   */\n      0x22\n        /* \"#utility.yul\":11603:11604   */\n      0x04\n        /* \"#utility.yul\":11596:11611   */\n      mstore\n        /* \"#utility.yul\":11630:11634   */\n      0x24\n        /* \"#utility.yul\":11627:11628   */\n      0x00\n        /* \"#utility.yul\":11620:11635   */\n      revert\n        /* \"#utility.yul\":11647:11967   */\n    tag_107:\n        /* \"#utility.yul\":11691:11697   */\n      0x00\n        /* \"#utility.yul\":11728:11729   */\n      0x02\n        /* \"#utility.yul\":11722:11726   */\n      dup3\n        /* \"#utility.yul\":11718:11730   */\n      div\n        /* \"#utility.yul\":11708:11730   */\n      swap1\n      pop\n        /* \"#utility.yul\":11775:11776   */\n      0x01\n        /* \"#utility.yul\":11769:11773   */\n      dup3\n        /* \"#utility.yul\":11765:11777   */\n      and\n        /* \"#utility.yul\":11796:11814   */\n      dup1\n        /* \"#utility.yul\":11786:11867   */\n      tag_240\n      jumpi\n        /* \"#utility.yul\":11852:11856   */\n      0x7f\n        /* \"#utility.yul\":11844:11850   */\n      dup3\n        /* \"#utility.yul\":11840:11857   */\n      and\n        /* \"#utility.yul\":11830:11857   */\n      swap2\n      pop\n        /* \"#utility.yul\":11786:11867   */\n    tag_240:\n        /* \"#utility.yul\":11914:11916   */\n      0x20\n        /* \"#utility.yul\":11906:11912   */\n      dup3\n        /* \"#utility.yul\":11903:11917   */\n      lt\n        /* \"#utility.yul\":11883:11901   */\n      dup2\n        /* \"#utility.yul\":11880:11918   */\n      sub\n        /* \"#utility.yul\":11877:11961   */\n      tag_241\n      jumpi\n        /* \"#utility.yul\":11933:11951   */\n      tag_242\n      tag_106\n      jump\t// in\n    tag_242:\n        /* \"#utility.yul\":11877:11961   */\n    tag_241:\n        /* \"#utility.yul\":11698:11967   */\n      pop\n        /* \"#utility.yul\":11647:11967   */\n      swap2\n      swap1\n      pop\n      jump\t// out\n        /* \"#utility.yul\":11973:12114   */\n    tag_108:\n        /* \"#utility.yul\":12022:12026   */\n      0x00\n        /* \"#utility.yul\":12045:12048   */\n      dup2\n        /* \"#utility.yul\":12037:12048   */\n      swap1\n      pop\n        /* \"#utility.yul\":12068:12071   */\n      dup2\n        /* \"#utility.yul\":12065:12066   */\n      0x00\n        /* \"#utility.yul\":12058:12072   */\n      mstore\n        /* \"#utility.yul\":12102:12106   */\n      0x20\n        /* \"#utility.yul\":12099:12100   */\n      0x00\n        /* \"#utility.yul\":12089:12107   */\n      keccak256\n        /* \"#utility.yul\":12081:12107   */\n      swap1\n      pop\n        /* \"#utility.yul\":11973:12114   */\n      swap2\n      swap1\n      pop\n      jump\t// out\n        /* \"#utility.yul\":12144:13018   */\n    tag_109:\n        /* \"#utility.yul\":12247:12250   */\n      0x00\n        /* \"#utility.yul\":12284:12289   */\n      dup2\n        /* \"#utility.yul\":12278:12290   */\n      sload\n        /* \"#utility.yul\":12313:12349   */\n      tag_245\n        /* \"#utility.yul\":12339:12348   */\n      dup2\n        /* \"#utility.yul\":12313:12349   */\n      tag_107\n      jump\t// in\n    tag_245:\n        /* \"#utility.yul\":12365:12454   */\n      tag_246\n        /* \"#utility.yul\":12447:12453   */\n      dup2\n        /* \"#utility.yul\":12442:12445   */\n      dup7\n        /* \"#utility.yul\":12365:12454   */\n      tag_103\n      jump\t// in\n    tag_246:\n        /* \"#utility.yul\":12358:12454   */\n      swap5\n      pop\n        /* \"#utility.yul\":12485:12486   */\n      0x01\n        /* \"#utility.yul\":12474:12483   */\n      dup3\n        /* \"#utility.yul\":12470:12487   */\n      and\n        /* \"#utility.yul\":12501:12502   */\n      0x00\n        /* \"#utility.yul\":12496:12662   */\n      dup2\n      eq\n      tag_248\n      jumpi\n        /* \"#utility.yul\":12676:12677   */\n      0x01\n        /* \"#utility.yul\":12671:13012   */\n      dup2\n      eq\n      tag_249\n      jumpi\n        /* \"#utility.yul\":12463:13012   */\n      jump(tag_247)\n        /* \"#utility.yul\":12496:12662   */\n    tag_248:\n        /* \"#utility.yul\":12580:12584   */\n      0xff\n        /* \"#utility.yul\":12576:12585   */\n      not\n        /* \"#utility.yul\":12565:12574   */\n      dup4\n        /* \"#utility.yul\":12561:12586   */\n      and\n        /* \"#utility.yul\":12556:12559   */\n      dup7\n        /* \"#utility.yul\":12549:12587   */\n      mstore\n        /* \"#utility.yul\":12642:12648   */\n      dup2\n        /* \"#utility.yul\":12635:12649   */\n      iszero\n        /* \"#utility.yul\":12628:12650   */\n      iszero\n        /* \"#utility.yul\":12620:12626   */\n      dup3\n        /* \"#utility.yul\":12616:12651   */\n      mul\n        /* \"#utility.yul\":12611:12614   */\n      dup7\n        /* \"#utility.yul\":12607:12652   */\n      add\n        /* \"#utility.yul\":12600:12652   */\n      swap4\n      pop\n        /* \"#utility.yul\":12496:12662   */\n      jump(tag_247)\n        /* \"#utility.yul\":12671:13012   */\n    tag_249:\n        /* \"#utility.yul\":12738:12776   */\n      tag_250\n        /* \"#utility.yul\":12770:12775   */\n      dup6\n        /* \"#utility.yul\":12738:12776   */\n      tag_108\n      jump\t// in\n    tag_250:\n        /* \"#utility.yul\":12798:12799   */\n      0x00\n        /* \"#utility.yul\":12812:12966   */\n    tag_251:\n        /* \"#utility.yul\":12826:12832   */\n      dup4\n        /* \"#utility.yul\":12823:12824   */\n      dup2\n        /* \"#utility.yul\":12820:12833   */\n      lt\n        /* \"#utility.yul\":12812:12966   */\n      iszero\n      tag_253\n      jumpi\n        /* \"#utility.yul\":12900:12907   */\n      dup2\n        /* \"#utility.yul\":12894:12908   */\n      sload\n        /* \"#utility.yul\":12890:12891   */\n      dup2\n        /* \"#utility.yul\":12885:12888   */\n      dup10\n        /* \"#utility.yul\":12881:12892   */\n      add\n        /* \"#utility.yul\":12874:12909   */\n      mstore\n        /* \"#utility.yul\":12950:12951   */\n      0x01\n        /* \"#utility.yul\":12941:12948   */\n      dup3\n        /* \"#utility.yul\":12937:12952   */\n      add\n        /* \"#utility.yul\":12926:12952   */\n      swap2\n      pop\n        /* \"#utility.yul\":12848:12852   */\n      0x20\n        /* \"#utility.yul\":12845:12846   */\n      dup2\n        /* \"#utility.yul\":12841:12853   */\n      add\n        /* \"#utility.yul\":12836:12853   */\n      swap1\n      pop\n        /* \"#utility.yul\":12812:12966   */\n      jump(tag_251)\n    tag_253:\n        /* \"#utility.yul\":12995:13001   */\n      dup4\n        /* \"#utility.yul\":12990:12993   */\n      dup9\n        /* \"#utility.yul\":12986:13002   */\n      add\n        /* \"#utility.yul\":12979:13002   */\n      swap6\n      pop\n        /* \"#utility.yul\":12678:13012   */\n      pop\n      pop\n        /* \"#utility.yul\":12463:13012   */\n    tag_247:\n      pop\n        /* \"#utility.yul\":12251:13018   */\n      pop\n      pop\n        /* \"#utility.yul\":12144:13018   */\n      swap3\n      swap2\n      pop\n      pop\n      jump\t// out\n        /* \"#utility.yul\":13024:13293   */\n    tag_62:\n        /* \"#utility.yul\":13153:13156   */\n      0x00\n        /* \"#utility.yul\":13175:13267   */\n      tag_255\n        /* \"#utility.yul\":13263:13266   */\n      dup3\n        /* \"#utility.yul\":13254:13260   */\n      dup5\n        /* \"#utility.yul\":13175:13267   */\n      tag_109\n      jump\t// in\n    tag_255:\n        /* \"#utility.yul\":13168:13267   */\n      swap2\n      pop\n        /* \"#utility.yul\":13284:13287   */\n      dup2\n        /* \"#utility.yul\":13277:13287   */\n      swap1\n      pop\n        /* \"#utility.yul\":13024:13293   */\n      swap3\n      swap2\n      pop\n      pop\n      jump\t// out\n\n    auxdata: 0xa26469706673582212200018fdfb66457d0e9abf3777a91ea59d852a33718bd8ddcf57c48d3eae063bd964736f6c63430008110033\n}\n",
				"bytecode": {
					"linkReferences": {},
					"object": "608060405260405180606001604052806040518060400160405280600481526020017f497261710000000000000000000000000000000000000000000000000000000081525081526020016040518060400160405280600b81526020017f4e6f727468204b6f72656100000000000000000000000000000000000000000081525081526020016040518060400160405280600681526020017f52757373696100000000000000000000000000000000000000000000000000008152508152506000906003620000d09291906200014c565b50601e60015560405180602001604052807372a4bbe493fc0a724460c9940ee6fae5f9209d6173ffffffffffffffffffffffffffffffffffffffff1673ffffffffffffffffffffffffffffffffffffffff16815250600290600162000137929190620001ac565b503480156200014557600080fd5b5062000629565b82805482825590600052602060002090810192821562000199579160200282015b828111156200019857825182908162000187919062000542565b50916020019190600101906200016d565b5b509050620001a891906200023b565b5090565b82805482825590600052602060002090810192821562000228579160200282015b82811115620002275782518260006101000a81548173ffffffffffffffffffffffffffffffffffffffff021916908373ffffffffffffffffffffffffffffffffffffffff16021790555091602001919060010190620001cd565b5b50905062000237919062000263565b5090565b5b808211156200025f576000818162000255919062000282565b506001016200023c565b5090565b5b808211156200027e57600081600090555060010162000264565b5090565b508054620002909062000331565b6000825580601f10620002a45750620002c5565b601f016020900490600052602060002090810190620002c4919062000263565b5b50565b600081519050919050565b7f4e487b7100000000000000000000000000000000000000000000000000000000600052604160045260246000fd5b7f4e487b7100000000000000000000000000000000000000000000000000000000600052602260045260246000fd5b600060028204905060018216806200034a57607f821691505b60208210810362000360576200035f62000302565b5b50919050565b60008190508160005260206000209050919050565b60006020601f8301049050919050565b600082821b905092915050565b600060088302620003ca7fffffffffffffffffffffffffffffffffffffffffffffffffffffffffffffffff826200038b565b620003d686836200038b565b95508019841693508086168417925050509392505050565b6000819050919050565b6000819050919050565b6000620004236200041d6200041784620003ee565b620003f8565b620003ee565b9050919050565b6000819050919050565b6200043f8362000402565b620004576200044e826200042a565b84845462000398565b825550505050565b600090565b6200046e6200045f565b6200047b81848462000434565b505050565b5b81811015620004a3576200049760008262000464565b60018101905062000481565b5050565b601f821115620004f257620004bc8162000366565b620004c7846200037b565b81016020851015620004d7578190505b620004ef620004e6856200037b565b83018262000480565b50505b505050565b600082821c905092915050565b60006200051760001984600802620004f7565b1980831691505092915050565b600062000532838362000504565b9150826002028217905092915050565b6200054d82620002c8565b67ffffffffffffffff811115620005695762000568620002d3565b5b62000575825462000331565b62000582828285620004a7565b600060209050601f831160018114620005ba5760008415620005a5578287015190505b620005b1858262000524565b86555062000621565b601f198416620005ca8662000366565b60005b82811015620005f457848901518255600182019150602085019450602081019050620005cd565b8683101562000614578489015162000610601f89168262000504565b8355505b6001600288020188555050505b505050505050565b610bd380620006396000396000f3fe60806040526004361061003f5760003560e01c8063708c079d14610044578063bd79929514610081578063d3317524146100b1578063dd0ae4d6146100ee575b600080fd5b34801561005057600080fd5b5061006b6004803603810190610066919061047d565b61012b565b60405161007891906104b9565b60405180910390f35b61009b60048036038101906100969190610568565b610135565b6040516100a891906104b9565b60405180910390f35b3480156100bd57600080fd5b506100d860048036038101906100d391906105e6565b6101e3565b6040516100e591906104b9565b60405180910390f35b3480156100fa57600080fd5b50610115600480360381019061011091906108e8565b610307565b60405161012291906104b9565b60405180910390f35b6000819050919050565b6000600154821115610191578273ffffffffffffffffffffffffffffffffffffffff166108fc839081150290604051600060405180830381858888f19350505050158015610187573d6000803e3d6000fd5b50600090506101dd565b8273ffffffffffffffffffffffffffffffffffffffff166108fc839081150290604051600060405180830381858888f193505050501580156101d7573d6000803e3d6000fd5b50600190505b92915050565b600080600090505b6002805490508110156102fb578373ffffffffffffffffffffffffffffffffffffffff166002828154811061022357610222610960565b5b9060005260206000200160009054906101000a900473ffffffffffffffffffffffffffffffffffffffff1673ffffffffffffffffffffffffffffffffffffffff1614806102d957508273ffffffffffffffffffffffffffffffffffffffff166002828154811061029657610295610960565b5b9060005260206000200160009054906101000a900473ffffffffffffffffffffffffffffffffffffffff1673ffffffffffffffffffffffffffffffffffffffff16145b156102e8576001915050610301565b80806102f3906109be565b9150506101eb565b50600090505b92915050565b600080600090505b600080549050811015610425578360c001516040516020016103319190610a77565b604051602081830303815290604052805190602001206000828154811061035b5761035a610960565b5b906000526020600020016040516020016103759190610b86565b60405160208183030381529060405280519060200120148061040357508260c001516040516020016103a79190610a77565b60405160208183030381529060405280519060200120600082815481106103d1576103d0610960565b5b906000526020600020016040516020016103eb9190610b86565b60405160208183030381529060405280519060200120145b1561041257600191505061042b565b808061041d906109be565b91505061030f565b50600090505b92915050565b6000604051905090565b600080fd5b600080fd5b60008115159050919050565b61045a81610445565b811461046557600080fd5b50565b60008135905061047781610451565b92915050565b6000602082840312156104935761049261043b565b5b60006104a184828501610468565b91505092915050565b6104b381610445565b82525050565b60006020820190506104ce60008301846104aa565b92915050565b600073ffffffffffffffffffffffffffffffffffffffff82169050919050565b60006104ff826104d4565b9050919050565b61050f816104f4565b811461051a57600080fd5b50565b60008135905061052c81610506565b92915050565b6000819050919050565b61054581610532565b811461055057600080fd5b50565b6000813590506105628161053c565b92915050565b6000806040838503121561057f5761057e61043b565b5b600061058d8582860161051d565b925050602061059e85828601610553565b9150509250929050565b60006105b3826104d4565b9050919050565b6105c3816105a8565b81146105ce57600080fd5b50565b6000813590506105e0816105ba565b92915050565b600080604083850312156105fd576105fc61043b565b5b600061060b858286016105d1565b925050602061061c858286016105d1565b9150509250929050565b600080fd5b6000601f19601f8301169050919050565b7f4e487b7100000000000000000000000000000000000000000000000000000000600052604160045260246000fd5b6106748261062b565b810181811067ffffffffffffffff821117156106935761069261063c565b5b80604052505050565b60006106a6610431565b90506106b2828261066b565b919050565b600080fd5b600080fd5b600080fd5b600067ffffffffffffffff8211156106e1576106e061063c565b5b6106ea8261062b565b9050602081019050919050565b82818337600083830152505050565b6000610719610714846106c6565b61069c565b905082815260208101848484011115610735576107346106c1565b5b6107408482856106f7565b509392505050565b600082601f83011261075d5761075c6106bc565b5b813561076d848260208601610706565b91505092915050565b6000610100828403121561078d5761078c610626565b5b61079861010061069c565b905060006107a8848285016105d1565b600083015250602082013567ffffffffffffffff8111156107cc576107cb6106b7565b5b6107d884828501610748565b602083015250604082013567ffffffffffffffff8111156107fc576107fb6106b7565b5b61080884828501610748565b604083015250606082013567ffffffffffffffff81111561082c5761082b6106b7565b5b61083884828501610748565b606083015250608082013567ffffffffffffffff81111561085c5761085b6106b7565b5b61086884828501610748565b60808301525060a082013567ffffffffffffffff81111561088c5761088b6106b7565b5b61089884828501610748565b60a08301525060c082013567ffffffffffffffff8111156108bc576108bb6106b7565b5b6108c884828501610748565b60c08301525060e06108dc84828501610468565b60e08301525092915050565b600080604083850312156108ff576108fe61043b565b5b600083013567ffffffffffffffff81111561091d5761091c610440565b5b61092985828601610776565b925050602083013567ffffffffffffffff81111561094a57610949610440565b5b61095685828601610776565b9150509250929050565b7f4e487b7100000000000000000000000000000000000000000000000000000000600052603260045260246000fd5b7f4e487b7100000000000000000000000000000000000000000000000000000000600052601160045260246000fd5b60006109c982610532565b91507fffffffffffffffffffffffffffffffffffffffffffffffffffffffffffffffff82036109fb576109fa61098f565b5b600182019050919050565b600081519050919050565b600081905092915050565b60005b83811015610a3a578082015181840152602081019050610a1f565b60008484015250505050565b6000610a5182610a06565b610a5b8185610a11565b9350610a6b818560208601610a1c565b80840191505092915050565b6000610a838284610a46565b915081905092915050565b7f4e487b7100000000000000000000000000000000000000000000000000000000600052602260045260246000fd5b60006002820490506001821680610ad557607f821691505b602082108103610ae857610ae7610a8e565b5b50919050565b60008190508160005260206000209050919050565b60008154610b1081610abd565b610b1a8186610a11565b94506001821660008114610b355760018114610b4a57610b7d565b60ff1983168652811515820286019350610b7d565b610b5385610aee565b60005b83811015610b7557815481890152600182019150602081019050610b56565b838801955050505b50505092915050565b6000610b928284610b03565b91508190509291505056fea26469706673582212200018fdfb66457d0e9abf3777a91ea59d852a33718bd8ddcf57c48d3eae063bd964736f6c63430008110033",
					"opcodes": "PUSH1 0x80 PUSH1 0x40 MSTORE PUSH1 0x40 MLOAD DUP1 PUSH1 0x60 ADD PUSH1 0x40 MSTORE DUP1 PUSH1 0x40 MLOAD DUP1 PUSH1 0x40 ADD PUSH1 0x40 MSTORE DUP1 PUSH1 0x4 DUP2 MSTORE PUSH1 0x20 ADD PUSH32 0x4972617100000000000000000000000000000000000000000000000000000000 DUP2 MSTORE POP DUP2 MSTORE PUSH1 0x20 ADD PUSH1 0x40 MLOAD DUP1 PUSH1 0x40 ADD PUSH1 0x40 MSTORE DUP1 PUSH1 0xB DUP2 MSTORE PUSH1 0x20 ADD PUSH32 0x4E6F727468204B6F726561000000000000000000000000000000000000000000 DUP2 MSTORE POP DUP2 MSTORE PUSH1 0x20 ADD PUSH1 0x40 MLOAD DUP1 PUSH1 0x40 ADD PUSH1 0x40 MSTORE DUP1 PUSH1 0x6 DUP2 MSTORE PUSH1 0x20 ADD PUSH32 0x5275737369610000000000000000000000000000000000000000000000000000 DUP2 MSTORE POP DUP2 MSTORE POP PUSH1 0x0 SWAP1 PUSH1 0x3 PUSH3 0xD0 SWAP3 SWAP2 SWAP1 PUSH3 0x14C JUMP JUMPDEST POP PUSH1 0x1E PUSH1 0x1 SSTORE PUSH1 0x40 MLOAD DUP1 PUSH1 0x20 ADD PUSH1 0x40 MSTORE DUP1 PUSH20 0x72A4BBE493FC0A724460C9940EE6FAE5F9209D61 PUSH20 0xFFFFFFFFFFFFFFFFFFFFFFFFFFFFFFFFFFFFFFFF AND PUSH20 0xFFFFFFFFFFFFFFFFFFFFFFFFFFFFFFFFFFFFFFFF AND DUP2 MSTORE POP PUSH1 0x2 SWAP1 PUSH1 0x1 PUSH3 0x137 SWAP3 SWAP2 SWAP1 PUSH3 0x1AC JUMP JUMPDEST POP CALLVALUE DUP1 ISZERO PUSH3 0x145 JUMPI PUSH1 0x0 DUP1 REVERT JUMPDEST POP PUSH3 0x629 JUMP JUMPDEST DUP3 DUP1 SLOAD DUP3 DUP3 SSTORE SWAP1 PUSH1 0x0 MSTORE PUSH1 0x20 PUSH1 0x0 KECCAK256 SWAP1 DUP2 ADD SWAP3 DUP3 ISZERO PUSH3 0x199 JUMPI SWAP2 PUSH1 0x20 MUL DUP3 ADD JUMPDEST DUP3 DUP2 GT ISZERO PUSH3 0x198 JUMPI DUP3 MLOAD DUP3 SWAP1 DUP2 PUSH3 0x187 SWAP2 SWAP1 PUSH3 0x542 JUMP JUMPDEST POP SWAP2 PUSH1 0x20 ADD SWAP2 SWAP1 PUSH1 0x1 ADD SWAP1 PUSH3 0x16D JUMP JUMPDEST JUMPDEST POP SWAP1 POP PUSH3 0x1A8 SWAP2 SWAP1 PUSH3 0x23B JUMP JUMPDEST POP SWAP1 JUMP JUMPDEST DUP3 DUP1 SLOAD DUP3 DUP3 SSTORE SWAP1 PUSH1 0x0 MSTORE PUSH1 0x20 PUSH1 0x0 KECCAK256 SWAP1 DUP2 ADD SWAP3 DUP3 ISZERO PUSH3 0x228 JUMPI SWAP2 PUSH1 0x20 MUL DUP3 ADD JUMPDEST DUP3 DUP2 GT ISZERO PUSH3 0x227 JUMPI DUP3 MLOAD DUP3 PUSH1 0x0 PUSH2 0x100 EXP DUP2 SLOAD DUP2 PUSH20 0xFFFFFFFFFFFFFFFFFFFFFFFFFFFFFFFFFFFFFFFF MUL NOT AND SWAP1 DUP4 PUSH20 0xFFFFFFFFFFFFFFFFFFFFFFFFFFFFFFFFFFFFFFFF AND MUL OR SWAP1 SSTORE POP SWAP2 PUSH1 0x20 ADD SWAP2 SWAP1 PUSH1 0x1 ADD SWAP1 PUSH3 0x1CD JUMP JUMPDEST JUMPDEST POP SWAP1 POP PUSH3 0x237 SWAP2 SWAP1 PUSH3 0x263 JUMP JUMPDEST POP SWAP1 JUMP JUMPDEST JUMPDEST DUP1 DUP3 GT ISZERO PUSH3 0x25F JUMPI PUSH1 0x0 DUP2 DUP2 PUSH3 0x255 SWAP2 SWAP1 PUSH3 0x282 JUMP JUMPDEST POP PUSH1 0x1 ADD PUSH3 0x23C JUMP JUMPDEST POP SWAP1 JUMP JUMPDEST JUMPDEST DUP1 DUP3 GT ISZERO PUSH3 0x27E JUMPI PUSH1 0x0 DUP2 PUSH1 0x0 SWAP1 SSTORE POP PUSH1 0x1 ADD PUSH3 0x264 JUMP JUMPDEST POP SWAP1 JUMP JUMPDEST POP DUP1 SLOAD PUSH3 0x290 SWAP1 PUSH3 0x331 JUMP JUMPDEST PUSH1 0x0 DUP3 SSTORE DUP1 PUSH1 0x1F LT PUSH3 0x2A4 JUMPI POP PUSH3 0x2C5 JUMP JUMPDEST PUSH1 0x1F ADD PUSH1 0x20 SWAP1 DIV SWAP1 PUSH1 0x0 MSTORE PUSH1 0x20 PUSH1 0x0 KECCAK256 SWAP1 DUP2 ADD SWAP1 PUSH3 0x2C4 SWAP2 SWAP1 PUSH3 0x263 JUMP JUMPDEST JUMPDEST POP JUMP JUMPDEST PUSH1 0x0 DUP2 MLOAD SWAP1 POP SWAP2 SWAP1 POP JUMP JUMPDEST PUSH32 0x4E487B7100000000000000000000000000000000000000000000000000000000 PUSH1 0x0 MSTORE PUSH1 0x41 PUSH1 0x4 MSTORE PUSH1 0x24 PUSH1 0x0 REVERT JUMPDEST PUSH32 0x4E487B7100000000000000000000000000000000000000000000000000000000 PUSH1 0x0 MSTORE PUSH1 0x22 PUSH1 0x4 MSTORE PUSH1 0x24 PUSH1 0x0 REVERT JUMPDEST PUSH1 0x0 PUSH1 0x2 DUP3 DIV SWAP1 POP PUSH1 0x1 DUP3 AND DUP1 PUSH3 0x34A JUMPI PUSH1 0x7F DUP3 AND SWAP2 POP JUMPDEST PUSH1 0x20 DUP3 LT DUP2 SUB PUSH3 0x360 JUMPI PUSH3 0x35F PUSH3 0x302 JUMP JUMPDEST JUMPDEST POP SWAP2 SWAP1 POP JUMP JUMPDEST PUSH1 0x0 DUP2 SWAP1 POP DUP2 PUSH1 0x0 MSTORE PUSH1 0x20 PUSH1 0x0 KECCAK256 SWAP1 POP SWAP2 SWAP1 POP JUMP JUMPDEST PUSH1 0x0 PUSH1 0x20 PUSH1 0x1F DUP4 ADD DIV SWAP1 POP SWAP2 SWAP1 POP JUMP JUMPDEST PUSH1 0x0 DUP3 DUP3 SHL SWAP1 POP SWAP3 SWAP2 POP POP JUMP JUMPDEST PUSH1 0x0 PUSH1 0x8 DUP4 MUL PUSH3 0x3CA PUSH32 0xFFFFFFFFFFFFFFFFFFFFFFFFFFFFFFFFFFFFFFFFFFFFFFFFFFFFFFFFFFFFFFFF DUP3 PUSH3 0x38B JUMP JUMPDEST PUSH3 0x3D6 DUP7 DUP4 PUSH3 0x38B JUMP JUMPDEST SWAP6 POP DUP1 NOT DUP5 AND SWAP4 POP DUP1 DUP7 AND DUP5 OR SWAP3 POP POP POP SWAP4 SWAP3 POP POP POP JUMP JUMPDEST PUSH1 0x0 DUP2 SWAP1 POP SWAP2 SWAP1 POP JUMP JUMPDEST PUSH1 0x0 DUP2 SWAP1 POP SWAP2 SWAP1 POP JUMP JUMPDEST PUSH1 0x0 PUSH3 0x423 PUSH3 0x41D PUSH3 0x417 DUP5 PUSH3 0x3EE JUMP JUMPDEST PUSH3 0x3F8 JUMP JUMPDEST PUSH3 0x3EE JUMP JUMPDEST SWAP1 POP SWAP2 SWAP1 POP JUMP JUMPDEST PUSH1 0x0 DUP2 SWAP1 POP SWAP2 SWAP1 POP JUMP JUMPDEST PUSH3 0x43F DUP4 PUSH3 0x402 JUMP JUMPDEST PUSH3 0x457 PUSH3 0x44E DUP3 PUSH3 0x42A JUMP JUMPDEST DUP5 DUP5 SLOAD PUSH3 0x398 JUMP JUMPDEST DUP3 SSTORE POP POP POP POP JUMP JUMPDEST PUSH1 0x0 SWAP1 JUMP JUMPDEST PUSH3 0x46E PUSH3 0x45F JUMP JUMPDEST PUSH3 0x47B DUP2 DUP5 DUP5 PUSH3 0x434 JUMP JUMPDEST POP POP POP JUMP JUMPDEST JUMPDEST DUP2 DUP2 LT ISZERO PUSH3 0x4A3 JUMPI PUSH3 0x497 PUSH1 0x0 DUP3 PUSH3 0x464 JUMP JUMPDEST PUSH1 0x1 DUP2 ADD SWAP1 POP PUSH3 0x481 JUMP JUMPDEST POP POP JUMP JUMPDEST PUSH1 0x1F DUP3 GT ISZERO PUSH3 0x4F2 JUMPI PUSH3 0x4BC DUP2 PUSH3 0x366 JUMP JUMPDEST PUSH3 0x4C7 DUP5 PUSH3 0x37B JUMP JUMPDEST DUP2 ADD PUSH1 0x20 DUP6 LT ISZERO PUSH3 0x4D7 JUMPI DUP2 SWAP1 POP JUMPDEST PUSH3 0x4EF PUSH3 0x4E6 DUP6 PUSH3 0x37B JUMP JUMPDEST DUP4 ADD DUP3 PUSH3 0x480 JUMP JUMPDEST POP POP JUMPDEST POP POP POP JUMP JUMPDEST PUSH1 0x0 DUP3 DUP3 SHR SWAP1 POP SWAP3 SWAP2 POP POP JUMP JUMPDEST PUSH1 0x0 PUSH3 0x517 PUSH1 0x0 NOT DUP5 PUSH1 0x8 MUL PUSH3 0x4F7 JUMP JUMPDEST NOT DUP1 DUP4 AND SWAP2 POP POP SWAP3 SWAP2 POP POP JUMP JUMPDEST PUSH1 0x0 PUSH3 0x532 DUP4 DUP4 PUSH3 0x504 JUMP JUMPDEST SWAP2 POP DUP3 PUSH1 0x2 MUL DUP3 OR SWAP1 POP SWAP3 SWAP2 POP POP JUMP JUMPDEST PUSH3 0x54D DUP3 PUSH3 0x2C8 JUMP JUMPDEST PUSH8 0xFFFFFFFFFFFFFFFF DUP2 GT ISZERO PUSH3 0x569 JUMPI PUSH3 0x568 PUSH3 0x2D3 JUMP JUMPDEST JUMPDEST PUSH3 0x575 DUP3 SLOAD PUSH3 0x331 JUMP JUMPDEST PUSH3 0x582 DUP3 DUP3 DUP6 PUSH3 0x4A7 JUMP JUMPDEST PUSH1 0x0 PUSH1 0x20 SWAP1 POP PUSH1 0x1F DUP4 GT PUSH1 0x1 DUP2 EQ PUSH3 0x5BA JUMPI PUSH1 0x0 DUP5 ISZERO PUSH3 0x5A5 JUMPI DUP3 DUP8 ADD MLOAD SWAP1 POP JUMPDEST PUSH3 0x5B1 DUP6 DUP3 PUSH3 0x524 JUMP JUMPDEST DUP7 SSTORE POP PUSH3 0x621 JUMP JUMPDEST PUSH1 0x1F NOT DUP5 AND PUSH3 0x5CA DUP7 PUSH3 0x366 JUMP JUMPDEST PUSH1 0x0 JUMPDEST DUP3 DUP2 LT ISZERO PUSH3 0x5F4 JUMPI DUP5 DUP10 ADD MLOAD DUP3 SSTORE PUSH1 0x1 DUP3 ADD SWAP2 POP PUSH1 0x20 DUP6 ADD SWAP5 POP PUSH1 0x20 DUP2 ADD SWAP1 POP PUSH3 0x5CD JUMP JUMPDEST DUP7 DUP4 LT ISZERO PUSH3 0x614 JUMPI DUP5 DUP10 ADD MLOAD PUSH3 0x610 PUSH1 0x1F DUP10 AND DUP3 PUSH3 0x504 JUMP JUMPDEST DUP4 SSTORE POP JUMPDEST PUSH1 0x1 PUSH1 0x2 DUP9 MUL ADD DUP9 SSTORE POP POP POP JUMPDEST POP POP POP POP POP POP JUMP JUMPDEST PUSH2 0xBD3 DUP1 PUSH3 0x639 PUSH1 0x0 CODECOPY PUSH1 0x0 RETURN INVALID PUSH1 0x80 PUSH1 0x40 MSTORE PUSH1 0x4 CALLDATASIZE LT PUSH2 0x3F JUMPI PUSH1 0x0 CALLDATALOAD PUSH1 0xE0 SHR DUP1 PUSH4 0x708C079D EQ PUSH2 0x44 JUMPI DUP1 PUSH4 0xBD799295 EQ PUSH2 0x81 JUMPI DUP1 PUSH4 0xD3317524 EQ PUSH2 0xB1 JUMPI DUP1 PUSH4 0xDD0AE4D6 EQ PUSH2 0xEE JUMPI JUMPDEST PUSH1 0x0 DUP1 REVERT JUMPDEST CALLVALUE DUP1 ISZERO PUSH2 0x50 JUMPI PUSH1 0x0 DUP1 REVERT JUMPDEST POP PUSH2 0x6B PUSH1 0x4 DUP1 CALLDATASIZE SUB DUP2 ADD SWAP1 PUSH2 0x66 SWAP2 SWAP1 PUSH2 0x47D JUMP JUMPDEST PUSH2 0x12B JUMP JUMPDEST PUSH1 0x40 MLOAD PUSH2 0x78 SWAP2 SWAP1 PUSH2 0x4B9 JUMP JUMPDEST PUSH1 0x40 MLOAD DUP1 SWAP2 SUB SWAP1 RETURN JUMPDEST PUSH2 0x9B PUSH1 0x4 DUP1 CALLDATASIZE SUB DUP2 ADD SWAP1 PUSH2 0x96 SWAP2 SWAP1 PUSH2 0x568 JUMP JUMPDEST PUSH2 0x135 JUMP JUMPDEST PUSH1 0x40 MLOAD PUSH2 0xA8 SWAP2 SWAP1 PUSH2 0x4B9 JUMP JUMPDEST PUSH1 0x40 MLOAD DUP1 SWAP2 SUB SWAP1 RETURN JUMPDEST CALLVALUE DUP1 ISZERO PUSH2 0xBD JUMPI PUSH1 0x0 DUP1 REVERT JUMPDEST POP PUSH2 0xD8 PUSH1 0x4 DUP1 CALLDATASIZE SUB DUP2 ADD SWAP1 PUSH2 0xD3 SWAP2 SWAP1 PUSH2 0x5E6 JUMP JUMPDEST PUSH2 0x1E3 JUMP JUMPDEST PUSH1 0x40 MLOAD PUSH2 0xE5 SWAP2 SWAP1 PUSH2 0x4B9 JUMP JUMPDEST PUSH1 0x40 MLOAD DUP1 SWAP2 SUB SWAP1 RETURN JUMPDEST CALLVALUE DUP1 ISZERO PUSH2 0xFA JUMPI PUSH1 0x0 DUP1 REVERT JUMPDEST POP PUSH2 0x115 PUSH1 0x4 DUP1 CALLDATASIZE SUB DUP2 ADD SWAP1 PUSH2 0x110 SWAP2 SWAP1 PUSH2 0x8E8 JUMP JUMPDEST PUSH2 0x307 JUMP JUMPDEST PUSH1 0x40 MLOAD PUSH2 0x122 SWAP2 SWAP1 PUSH2 0x4B9 JUMP JUMPDEST PUSH1 0x40 MLOAD DUP1 SWAP2 SUB SWAP1 RETURN JUMPDEST PUSH1 0x0 DUP2 SWAP1 POP SWAP2 SWAP1 POP JUMP JUMPDEST PUSH1 0x0 PUSH1 0x1 SLOAD DUP3 GT ISZERO PUSH2 0x191 JUMPI DUP3 PUSH20 0xFFFFFFFFFFFFFFFFFFFFFFFFFFFFFFFFFFFFFFFF AND PUSH2 0x8FC DUP4 SWAP1 DUP2 ISZERO MUL SWAP1 PUSH1 0x40 MLOAD PUSH1 0x0 PUSH1 0x40 MLOAD DUP1 DUP4 SUB DUP2 DUP6 DUP9 DUP9 CALL SWAP4 POP POP POP POP ISZERO DUP1 ISZERO PUSH2 0x187 JUMPI RETURNDATASIZE PUSH1 0x0 DUP1 RETURNDATACOPY RETURNDATASIZE PUSH1 0x0 REVERT JUMPDEST POP PUSH1 0x0 SWAP1 POP PUSH2 0x1DD JUMP JUMPDEST DUP3 PUSH20 0xFFFFFFFFFFFFFFFFFFFFFFFFFFFFFFFFFFFFFFFF AND PUSH2 0x8FC DUP4 SWAP1 DUP2 ISZERO MUL SWAP1 PUSH1 0x40 MLOAD PUSH1 0x0 PUSH1 0x40 MLOAD DUP1 DUP4 SUB DUP2 DUP6 DUP9 DUP9 CALL SWAP4 POP POP POP POP ISZERO DUP1 ISZERO PUSH2 0x1D7 JUMPI RETURNDATASIZE PUSH1 0x0 DUP1 RETURNDATACOPY RETURNDATASIZE PUSH1 0x0 REVERT JUMPDEST POP PUSH1 0x1 SWAP1 POP JUMPDEST SWAP3 SWAP2 POP POP JUMP JUMPDEST PUSH1 0x0 DUP1 PUSH1 0x0 SWAP1 POP JUMPDEST PUSH1 0x2 DUP1 SLOAD SWAP1 POP DUP2 LT ISZERO PUSH2 0x2FB JUMPI DUP4 PUSH20 0xFFFFFFFFFFFFFFFFFFFFFFFFFFFFFFFFFFFFFFFF AND PUSH1 0x2 DUP3 DUP2 SLOAD DUP2 LT PUSH2 0x223 JUMPI PUSH2 0x222 PUSH2 0x960 JUMP JUMPDEST JUMPDEST SWAP1 PUSH1 0x0 MSTORE PUSH1 0x20 PUSH1 0x0 KECCAK256 ADD PUSH1 0x0 SWAP1 SLOAD SWAP1 PUSH2 0x100 EXP SWAP1 DIV PUSH20 0xFFFFFFFFFFFFFFFFFFFFFFFFFFFFFFFFFFFFFFFF AND PUSH20 0xFFFFFFFFFFFFFFFFFFFFFFFFFFFFFFFFFFFFFFFF AND EQ DUP1 PUSH2 0x2D9 JUMPI POP DUP3 PUSH20 0xFFFFFFFFFFFFFFFFFFFFFFFFFFFFFFFFFFFFFFFF AND PUSH1 0x2 DUP3 DUP2 SLOAD DUP2 LT PUSH2 0x296 JUMPI PUSH2 0x295 PUSH2 0x960 JUMP JUMPDEST JUMPDEST SWAP1 PUSH1 0x0 MSTORE PUSH1 0x20 PUSH1 0x0 KECCAK256 ADD PUSH1 0x0 SWAP1 SLOAD SWAP1 PUSH2 0x100 EXP SWAP1 DIV PUSH20 0xFFFFFFFFFFFFFFFFFFFFFFFFFFFFFFFFFFFFFFFF AND PUSH20 0xFFFFFFFFFFFFFFFFFFFFFFFFFFFFFFFFFFFFFFFF AND EQ JUMPDEST ISZERO PUSH2 0x2E8 JUMPI PUSH1 0x1 SWAP2 POP POP PUSH2 0x301 JUMP JUMPDEST DUP1 DUP1 PUSH2 0x2F3 SWAP1 PUSH2 0x9BE JUMP JUMPDEST SWAP2 POP POP PUSH2 0x1EB JUMP JUMPDEST POP PUSH1 0x0 SWAP1 POP JUMPDEST SWAP3 SWAP2 POP POP JUMP JUMPDEST PUSH1 0x0 DUP1 PUSH1 0x0 SWAP1 POP JUMPDEST PUSH1 0x0 DUP1 SLOAD SWAP1 POP DUP2 LT ISZERO PUSH2 0x425 JUMPI DUP4 PUSH1 0xC0 ADD MLOAD PUSH1 0x40 MLOAD PUSH1 0x20 ADD PUSH2 0x331 SWAP2 SWAP1 PUSH2 0xA77 JUMP JUMPDEST PUSH1 0x40 MLOAD PUSH1 0x20 DUP2 DUP4 SUB SUB DUP2 MSTORE SWAP1 PUSH1 0x40 MSTORE DUP1 MLOAD SWAP1 PUSH1 0x20 ADD KECCAK256 PUSH1 0x0 DUP3 DUP2 SLOAD DUP2 LT PUSH2 0x35B JUMPI PUSH2 0x35A PUSH2 0x960 JUMP JUMPDEST JUMPDEST SWAP1 PUSH1 0x0 MSTORE PUSH1 0x20 PUSH1 0x0 KECCAK256 ADD PUSH1 0x40 MLOAD PUSH1 0x20 ADD PUSH2 0x375 SWAP2 SWAP1 PUSH2 0xB86 JUMP JUMPDEST PUSH1 0x40 MLOAD PUSH1 0x20 DUP2 DUP4 SUB SUB DUP2 MSTORE SWAP1 PUSH1 0x40 MSTORE DUP1 MLOAD SWAP1 PUSH1 0x20 ADD KECCAK256 EQ DUP1 PUSH2 0x403 JUMPI POP DUP3 PUSH1 0xC0 ADD MLOAD PUSH1 0x40 MLOAD PUSH1 0x20 ADD PUSH2 0x3A7 SWAP2 SWAP1 PUSH2 0xA77 JUMP JUMPDEST PUSH1 0x40 MLOAD PUSH1 0x20 DUP2 DUP4 SUB SUB DUP2 MSTORE SWAP1 PUSH1 0x40 MSTORE DUP1 MLOAD SWAP1 PUSH1 0x20 ADD KECCAK256 PUSH1 0x0 DUP3 DUP2 SLOAD DUP2 LT PUSH2 0x3D1 JUMPI PUSH2 0x3D0 PUSH2 0x960 JUMP JUMPDEST JUMPDEST SWAP1 PUSH1 0x0 MSTORE PUSH1 0x20 PUSH1 0x0 KECCAK256 ADD PUSH1 0x40 MLOAD PUSH1 0x20 ADD PUSH2 0x3EB SWAP2 SWAP1 PUSH2 0xB86 JUMP JUMPDEST PUSH1 0x40 MLOAD PUSH1 0x20 DUP2 DUP4 SUB SUB DUP2 MSTORE SWAP1 PUSH1 0x40 MSTORE DUP1 MLOAD SWAP1 PUSH1 0x20 ADD KECCAK256 EQ JUMPDEST ISZERO PUSH2 0x412 JUMPI PUSH1 0x1 SWAP2 POP POP PUSH2 0x42B JUMP JUMPDEST DUP1 DUP1 PUSH2 0x41D SWAP1 PUSH2 0x9BE JUMP JUMPDEST SWAP2 POP POP PUSH2 0x30F JUMP JUMPDEST POP PUSH1 0x0 SWAP1 POP JUMPDEST SWAP3 SWAP2 POP POP JUMP JUMPDEST PUSH1 0x0 PUSH1 0x40 MLOAD SWAP1 POP SWAP1 JUMP JUMPDEST PUSH1 0x0 DUP1 REVERT JUMPDEST PUSH1 0x0 DUP1 REVERT JUMPDEST PUSH1 0x0 DUP2 ISZERO ISZERO SWAP1 POP SWAP2 SWAP1 POP JUMP JUMPDEST PUSH2 0x45A DUP2 PUSH2 0x445 JUMP JUMPDEST DUP2 EQ PUSH2 0x465 JUMPI PUSH1 0x0 DUP1 REVERT JUMPDEST POP JUMP JUMPDEST PUSH1 0x0 DUP2 CALLDATALOAD SWAP1 POP PUSH2 0x477 DUP2 PUSH2 0x451 JUMP JUMPDEST SWAP3 SWAP2 POP POP JUMP JUMPDEST PUSH1 0x0 PUSH1 0x20 DUP3 DUP5 SUB SLT ISZERO PUSH2 0x493 JUMPI PUSH2 0x492 PUSH2 0x43B JUMP JUMPDEST JUMPDEST PUSH1 0x0 PUSH2 0x4A1 DUP5 DUP3 DUP6 ADD PUSH2 0x468 JUMP JUMPDEST SWAP2 POP POP SWAP3 SWAP2 POP POP JUMP JUMPDEST PUSH2 0x4B3 DUP2 PUSH2 0x445 JUMP JUMPDEST DUP3 MSTORE POP POP JUMP JUMPDEST PUSH1 0x0 PUSH1 0x20 DUP3 ADD SWAP1 POP PUSH2 0x4CE PUSH1 0x0 DUP4 ADD DUP5 PUSH2 0x4AA JUMP JUMPDEST SWAP3 SWAP2 POP POP JUMP JUMPDEST PUSH1 0x0 PUSH20 0xFFFFFFFFFFFFFFFFFFFFFFFFFFFFFFFFFFFFFFFF DUP3 AND SWAP1 POP SWAP2 SWAP1 POP JUMP JUMPDEST PUSH1 0x0 PUSH2 0x4FF DUP3 PUSH2 0x4D4 JUMP JUMPDEST SWAP1 POP SWAP2 SWAP1 POP JUMP JUMPDEST PUSH2 0x50F DUP2 PUSH2 0x4F4 JUMP JUMPDEST DUP2 EQ PUSH2 0x51A JUMPI PUSH1 0x0 DUP1 REVERT JUMPDEST POP JUMP JUMPDEST PUSH1 0x0 DUP2 CALLDATALOAD SWAP1 POP PUSH2 0x52C DUP2 PUSH2 0x506 JUMP JUMPDEST SWAP3 SWAP2 POP POP JUMP JUMPDEST PUSH1 0x0 DUP2 SWAP1 POP SWAP2 SWAP1 POP JUMP JUMPDEST PUSH2 0x545 DUP2 PUSH2 0x532 JUMP JUMPDEST DUP2 EQ PUSH2 0x550 JUMPI PUSH1 0x0 DUP1 REVERT JUMPDEST POP JUMP JUMPDEST PUSH1 0x0 DUP2 CALLDATALOAD SWAP1 POP PUSH2 0x562 DUP2 PUSH2 0x53C JUMP JUMPDEST SWAP3 SWAP2 POP POP JUMP JUMPDEST PUSH1 0x0 DUP1 PUSH1 0x40 DUP4 DUP6 SUB SLT ISZERO PUSH2 0x57F JUMPI PUSH2 0x57E PUSH2 0x43B JUMP JUMPDEST JUMPDEST PUSH1 0x0 PUSH2 0x58D DUP6 DUP3 DUP7 ADD PUSH2 0x51D JUMP JUMPDEST SWAP3 POP POP PUSH1 0x20 PUSH2 0x59E DUP6 DUP3 DUP7 ADD PUSH2 0x553 JUMP JUMPDEST SWAP2 POP POP SWAP3 POP SWAP3 SWAP1 POP JUMP JUMPDEST PUSH1 0x0 PUSH2 0x5B3 DUP3 PUSH2 0x4D4 JUMP JUMPDEST SWAP1 POP SWAP2 SWAP1 POP JUMP JUMPDEST PUSH2 0x5C3 DUP2 PUSH2 0x5A8 JUMP JUMPDEST DUP2 EQ PUSH2 0x5CE JUMPI PUSH1 0x0 DUP1 REVERT JUMPDEST POP JUMP JUMPDEST PUSH1 0x0 DUP2 CALLDATALOAD SWAP1 POP PUSH2 0x5E0 DUP2 PUSH2 0x5BA JUMP JUMPDEST SWAP3 SWAP2 POP POP JUMP JUMPDEST PUSH1 0x0 DUP1 PUSH1 0x40 DUP4 DUP6 SUB SLT ISZERO PUSH2 0x5FD JUMPI PUSH2 0x5FC PUSH2 0x43B JUMP JUMPDEST JUMPDEST PUSH1 0x0 PUSH2 0x60B DUP6 DUP3 DUP7 ADD PUSH2 0x5D1 JUMP JUMPDEST SWAP3 POP POP PUSH1 0x20 PUSH2 0x61C DUP6 DUP3 DUP7 ADD PUSH2 0x5D1 JUMP JUMPDEST SWAP2 POP POP SWAP3 POP SWAP3 SWAP1 POP JUMP JUMPDEST PUSH1 0x0 DUP1 REVERT JUMPDEST PUSH1 0x0 PUSH1 0x1F NOT PUSH1 0x1F DUP4 ADD AND SWAP1 POP SWAP2 SWAP1 POP JUMP JUMPDEST PUSH32 0x4E487B7100000000000000000000000000000000000000000000000000000000 PUSH1 0x0 MSTORE PUSH1 0x41 PUSH1 0x4 MSTORE PUSH1 0x24 PUSH1 0x0 REVERT JUMPDEST PUSH2 0x674 DUP3 PUSH2 0x62B JUMP JUMPDEST DUP2 ADD DUP2 DUP2 LT PUSH8 0xFFFFFFFFFFFFFFFF DUP3 GT OR ISZERO PUSH2 0x693 JUMPI PUSH2 0x692 PUSH2 0x63C JUMP JUMPDEST JUMPDEST DUP1 PUSH1 0x40 MSTORE POP POP POP JUMP JUMPDEST PUSH1 0x0 PUSH2 0x6A6 PUSH2 0x431 JUMP JUMPDEST SWAP1 POP PUSH2 0x6B2 DUP3 DUP3 PUSH2 0x66B JUMP JUMPDEST SWAP2 SWAP1 POP JUMP JUMPDEST PUSH1 0x0 DUP1 REVERT JUMPDEST PUSH1 0x0 DUP1 REVERT JUMPDEST PUSH1 0x0 DUP1 REVERT JUMPDEST PUSH1 0x0 PUSH8 0xFFFFFFFFFFFFFFFF DUP3 GT ISZERO PUSH2 0x6E1 JUMPI PUSH2 0x6E0 PUSH2 0x63C JUMP JUMPDEST JUMPDEST PUSH2 0x6EA DUP3 PUSH2 0x62B JUMP JUMPDEST SWAP1 POP PUSH1 0x20 DUP2 ADD SWAP1 POP SWAP2 SWAP1 POP JUMP JUMPDEST DUP3 DUP2 DUP4 CALLDATACOPY PUSH1 0x0 DUP4 DUP4 ADD MSTORE POP POP POP JUMP JUMPDEST PUSH1 0x0 PUSH2 0x719 PUSH2 0x714 DUP5 PUSH2 0x6C6 JUMP JUMPDEST PUSH2 0x69C JUMP JUMPDEST SWAP1 POP DUP3 DUP2 MSTORE PUSH1 0x20 DUP2 ADD DUP5 DUP5 DUP5 ADD GT ISZERO PUSH2 0x735 JUMPI PUSH2 0x734 PUSH2 0x6C1 JUMP JUMPDEST JUMPDEST PUSH2 0x740 DUP5 DUP3 DUP6 PUSH2 0x6F7 JUMP JUMPDEST POP SWAP4 SWAP3 POP POP POP JUMP JUMPDEST PUSH1 0x0 DUP3 PUSH1 0x1F DUP4 ADD SLT PUSH2 0x75D JUMPI PUSH2 0x75C PUSH2 0x6BC JUMP JUMPDEST JUMPDEST DUP2 CALLDATALOAD PUSH2 0x76D DUP5 DUP3 PUSH1 0x20 DUP7 ADD PUSH2 0x706 JUMP JUMPDEST SWAP2 POP POP SWAP3 SWAP2 POP POP JUMP JUMPDEST PUSH1 0x0 PUSH2 0x100 DUP3 DUP5 SUB SLT ISZERO PUSH2 0x78D JUMPI PUSH2 0x78C PUSH2 0x626 JUMP JUMPDEST JUMPDEST PUSH2 0x798 PUSH2 0x100 PUSH2 0x69C JUMP JUMPDEST SWAP1 POP PUSH1 0x0 PUSH2 0x7A8 DUP5 DUP3 DUP6 ADD PUSH2 0x5D1 JUMP JUMPDEST PUSH1 0x0 DUP4 ADD MSTORE POP PUSH1 0x20 DUP3 ADD CALLDATALOAD PUSH8 0xFFFFFFFFFFFFFFFF DUP2 GT ISZERO PUSH2 0x7CC JUMPI PUSH2 0x7CB PUSH2 0x6B7 JUMP JUMPDEST JUMPDEST PUSH2 0x7D8 DUP5 DUP3 DUP6 ADD PUSH2 0x748 JUMP JUMPDEST PUSH1 0x20 DUP4 ADD MSTORE POP PUSH1 0x40 DUP3 ADD CALLDATALOAD PUSH8 0xFFFFFFFFFFFFFFFF DUP2 GT ISZERO PUSH2 0x7FC JUMPI PUSH2 0x7FB PUSH2 0x6B7 JUMP JUMPDEST JUMPDEST PUSH2 0x808 DUP5 DUP3 DUP6 ADD PUSH2 0x748 JUMP JUMPDEST PUSH1 0x40 DUP4 ADD MSTORE POP PUSH1 0x60 DUP3 ADD CALLDATALOAD PUSH8 0xFFFFFFFFFFFFFFFF DUP2 GT ISZERO PUSH2 0x82C JUMPI PUSH2 0x82B PUSH2 0x6B7 JUMP JUMPDEST JUMPDEST PUSH2 0x838 DUP5 DUP3 DUP6 ADD PUSH2 0x748 JUMP JUMPDEST PUSH1 0x60 DUP4 ADD MSTORE POP PUSH1 0x80 DUP3 ADD CALLDATALOAD PUSH8 0xFFFFFFFFFFFFFFFF DUP2 GT ISZERO PUSH2 0x85C JUMPI PUSH2 0x85B PUSH2 0x6B7 JUMP JUMPDEST JUMPDEST PUSH2 0x868 DUP5 DUP3 DUP6 ADD PUSH2 0x748 JUMP JUMPDEST PUSH1 0x80 DUP4 ADD MSTORE POP PUSH1 0xA0 DUP3 ADD CALLDATALOAD PUSH8 0xFFFFFFFFFFFFFFFF DUP2 GT ISZERO PUSH2 0x88C JUMPI PUSH2 0x88B PUSH2 0x6B7 JUMP JUMPDEST JUMPDEST PUSH2 0x898 DUP5 DUP3 DUP6 ADD PUSH2 0x748 JUMP JUMPDEST PUSH1 0xA0 DUP4 ADD MSTORE POP PUSH1 0xC0 DUP3 ADD CALLDATALOAD PUSH8 0xFFFFFFFFFFFFFFFF DUP2 GT ISZERO PUSH2 0x8BC JUMPI PUSH2 0x8BB PUSH2 0x6B7 JUMP JUMPDEST JUMPDEST PUSH2 0x8C8 DUP5 DUP3 DUP6 ADD PUSH2 0x748 JUMP JUMPDEST PUSH1 0xC0 DUP4 ADD MSTORE POP PUSH1 0xE0 PUSH2 0x8DC DUP5 DUP3 DUP6 ADD PUSH2 0x468 JUMP JUMPDEST PUSH1 0xE0 DUP4 ADD MSTORE POP SWAP3 SWAP2 POP POP JUMP JUMPDEST PUSH1 0x0 DUP1 PUSH1 0x40 DUP4 DUP6 SUB SLT ISZERO PUSH2 0x8FF JUMPI PUSH2 0x8FE PUSH2 0x43B JUMP JUMPDEST JUMPDEST PUSH1 0x0 DUP4 ADD CALLDATALOAD PUSH8 0xFFFFFFFFFFFFFFFF DUP2 GT ISZERO PUSH2 0x91D JUMPI PUSH2 0x91C PUSH2 0x440 JUMP JUMPDEST JUMPDEST PUSH2 0x929 DUP6 DUP3 DUP7 ADD PUSH2 0x776 JUMP JUMPDEST SWAP3 POP POP PUSH1 0x20 DUP4 ADD CALLDATALOAD PUSH8 0xFFFFFFFFFFFFFFFF DUP2 GT ISZERO PUSH2 0x94A JUMPI PUSH2 0x949 PUSH2 0x440 JUMP JUMPDEST JUMPDEST PUSH2 0x956 DUP6 DUP3 DUP7 ADD PUSH2 0x776 JUMP JUMPDEST SWAP2 POP POP SWAP3 POP SWAP3 SWAP1 POP JUMP JUMPDEST PUSH32 0x4E487B7100000000000000000000000000000000000000000000000000000000 PUSH1 0x0 MSTORE PUSH1 0x32 PUSH1 0x4 MSTORE PUSH1 0x24 PUSH1 0x0 REVERT JUMPDEST PUSH32 0x4E487B7100000000000000000000000000000000000000000000000000000000 PUSH1 0x0 MSTORE PUSH1 0x11 PUSH1 0x4 MSTORE PUSH1 0x24 PUSH1 0x0 REVERT JUMPDEST PUSH1 0x0 PUSH2 0x9C9 DUP3 PUSH2 0x532 JUMP JUMPDEST SWAP2 POP PUSH32 0xFFFFFFFFFFFFFFFFFFFFFFFFFFFFFFFFFFFFFFFFFFFFFFFFFFFFFFFFFFFFFFFF DUP3 SUB PUSH2 0x9FB JUMPI PUSH2 0x9FA PUSH2 0x98F JUMP JUMPDEST JUMPDEST PUSH1 0x1 DUP3 ADD SWAP1 POP SWAP2 SWAP1 POP JUMP JUMPDEST PUSH1 0x0 DUP2 MLOAD SWAP1 POP SWAP2 SWAP1 POP JUMP JUMPDEST PUSH1 0x0 DUP2 SWAP1 POP SWAP3 SWAP2 POP POP JUMP JUMPDEST PUSH1 0x0 JUMPDEST DUP4 DUP2 LT ISZERO PUSH2 0xA3A JUMPI DUP1 DUP3 ADD MLOAD DUP2 DUP5 ADD MSTORE PUSH1 0x20 DUP2 ADD SWAP1 POP PUSH2 0xA1F JUMP JUMPDEST PUSH1 0x0 DUP5 DUP5 ADD MSTORE POP POP POP POP JUMP JUMPDEST PUSH1 0x0 PUSH2 0xA51 DUP3 PUSH2 0xA06 JUMP JUMPDEST PUSH2 0xA5B DUP2 DUP6 PUSH2 0xA11 JUMP JUMPDEST SWAP4 POP PUSH2 0xA6B DUP2 DUP6 PUSH1 0x20 DUP7 ADD PUSH2 0xA1C JUMP JUMPDEST DUP1 DUP5 ADD SWAP2 POP POP SWAP3 SWAP2 POP POP JUMP JUMPDEST PUSH1 0x0 PUSH2 0xA83 DUP3 DUP5 PUSH2 0xA46 JUMP JUMPDEST SWAP2 POP DUP2 SWAP1 POP SWAP3 SWAP2 POP POP JUMP JUMPDEST PUSH32 0x4E487B7100000000000000000000000000000000000000000000000000000000 PUSH1 0x0 MSTORE PUSH1 0x22 PUSH1 0x4 MSTORE PUSH1 0x24 PUSH1 0x0 REVERT JUMPDEST PUSH1 0x0 PUSH1 0x2 DUP3 DIV SWAP1 POP PUSH1 0x1 DUP3 AND DUP1 PUSH2 0xAD5 JUMPI PUSH1 0x7F DUP3 AND SWAP2 POP JUMPDEST PUSH1 0x20 DUP3 LT DUP2 SUB PUSH2 0xAE8 JUMPI PUSH2 0xAE7 PUSH2 0xA8E JUMP JUMPDEST JUMPDEST POP SWAP2 SWAP1 POP JUMP JUMPDEST PUSH1 0x0 DUP2 SWAP1 POP DUP2 PUSH1 0x0 MSTORE PUSH1 0x20 PUSH1 0x0 KECCAK256 SWAP1 POP SWAP2 SWAP1 POP JUMP JUMPDEST PUSH1 0x0 DUP2 SLOAD PUSH2 0xB10 DUP2 PUSH2 0xABD JUMP JUMPDEST PUSH2 0xB1A DUP2 DUP7 PUSH2 0xA11 JUMP JUMPDEST SWAP5 POP PUSH1 0x1 DUP3 AND PUSH1 0x0 DUP2 EQ PUSH2 0xB35 JUMPI PUSH1 0x1 DUP2 EQ PUSH2 0xB4A JUMPI PUSH2 0xB7D JUMP JUMPDEST PUSH1 0xFF NOT DUP4 AND DUP7 MSTORE DUP2 ISZERO ISZERO DUP3 MUL DUP7 ADD SWAP4 POP PUSH2 0xB7D JUMP JUMPDEST PUSH2 0xB53 DUP6 PUSH2 0xAEE JUMP JUMPDEST PUSH1 0x0 JUMPDEST DUP4 DUP2 LT ISZERO PUSH2 0xB75 JUMPI DUP2 SLOAD DUP2 DUP10 ADD MSTORE PUSH1 0x1 DUP3 ADD SWAP2 POP PUSH1 0x20 DUP2 ADD SWAP1 POP PUSH2 0xB56 JUMP JUMPDEST DUP4 DUP9 ADD SWAP6 POP POP POP JUMPDEST POP POP POP SWAP3 SWAP2 POP POP JUMP JUMPDEST PUSH1 0x0 PUSH2 0xB92 DUP3 DUP5 PUSH2 0xB03 JUMP JUMPDEST SWAP2 POP DUP2 SWAP1 POP SWAP3 SWAP2 POP POP JUMP INVALID LOG2 PUSH5 0x6970667358 0x22 SLT KECCAK256 STOP XOR REVERT 0xFB PUSH7 0x457D0E9ABF3777 0xA9 0x1E 0xA5 SWAP14 DUP6 0x2A CALLER PUSH18 0x8BD8DDCF57C48D3EAE063BD964736F6C6343 STOP ADDMOD GT STOP CALLER "
				},
				"gasEstimates": {
					"creation": {
						"codeDepositCost": "605400",
						"executionCost": "infinite",
						"totalCost": "infinite"
					},
					"external": {
						"checkAmt(address,uint256)": "infinite",
						"checkNationality((address,string,string,string,string,string,string,bool),(address,string,string,string,string,string,string,bool))": "infinite",
						"checkPoliticalStatus(bool)": "infinite",
						"checkWantedIndividual(address,address)": "infinite"
					}
				},
				"methodIdentifiers": {
					"checkAmt(address,uint256)": "bd799295",
					"checkNationality((address,string,string,string,string,string,string,bool),(address,string,string,string,string,string,string,bool))": "dd0ae4d6",
					"checkPoliticalStatus(bool)": "708c079d",
					"checkWantedIndividual(address,address)": "d3317524"
				}
			},
			"storageLayout": {
				"storage": [
					{
						"astId": 9,
						"contract": "contracts/SgAML.sol:SgAML",
						"label": "bannedCountries",
						"offset": 0,
						"slot": "0",
						"type": "t_array(t_string_storage)dyn_storage"
					},
					{
						"astId": 12,
						"contract": "contracts/SgAML.sol:SgAML",
						"label": "maxAmount",
						"offset": 0,
						"slot": "1",
						"type": "t_uint256"
					},
					{
						"astId": 17,
						"contract": "contracts/SgAML.sol:SgAML",
						"label": "wantedIndividuals",
						"offset": 0,
						"slot": "2",
						"type": "t_array(t_address)dyn_storage"
					}
				],
				"types": {
					"t_address": {
						"encoding": "inplace",
						"label": "address",
						"numberOfBytes": "20"
					},
					"t_array(t_address)dyn_storage": {
						"base": "t_address",
						"encoding": "dynamic_array",
						"label": "address[]",
						"numberOfBytes": "32"
					},
					"t_array(t_string_storage)dyn_storage": {
						"base": "t_string_storage",
						"encoding": "dynamic_array",
						"label": "string[]",
						"numberOfBytes": "32"
					},
					"t_string_storage": {
						"encoding": "bytes",
						"label": "string",
						"numberOfBytes": "32"
					},
					"t_uint256": {
						"encoding": "inplace",
						"label": "uint256",
						"numberOfBytes": "32"
					}
				}
			},
			"userdoc": {
				"kind": "user",
				"methods": {},
				"version": 1
			}
		}
	}
}