{
	"contracts/KYC.sol": {
		"KYC": {
			"abi": [
				{
					"inputs": [],
					"name": "getTransactionCount",
					"outputs": [
						{
							"internalType": "uint256",
							"name": "",
							"type": "uint256"
						}
					],
					"stateMutability": "view",
					"type": "function"
				},
				{
					"inputs": [
						{
							"internalType": "address payable",
							"name": "userAddress",
							"type": "address"
						}
					],
					"name": "getUserInfo",
					"outputs": [
						{
							"internalType": "address",
							"name": "user",
							"type": "address"
						},
						{
							"internalType": "string",
							"name": "role",
							"type": "string"
						},
						{
							"internalType": "string",
							"name": "firstName",
							"type": "string"
						},
						{
							"internalType": "string",
							"name": "lastName",
							"type": "string"
						}
					],
					"stateMutability": "view",
					"type": "function"
				},
				{
					"inputs": [
						{
							"internalType": "address payable",
							"name": "userAddress",
							"type": "address"
						},
						{
							"internalType": "string",
							"name": "role",
							"type": "string"
						},
						{
							"internalType": "string",
							"name": "firstName",
							"type": "string"
						},
						{
							"internalType": "string",
							"name": "lastName",
							"type": "string"
						}
					],
					"name": "onboarding",
					"outputs": [],
					"stateMutability": "nonpayable",
					"type": "function"
				}
			],
			"devdoc": {
				"kind": "dev",
				"methods": {},
				"version": 1
			},
			"evm": {
				"assembly": "    /* \"contracts/KYC.sol\":109:1686  contract KYC{... */\n  mstore(0x40, 0x80)\n  callvalue\n  dup1\n  iszero\n  tag_1\n  jumpi\n  0x00\n  dup1\n  revert\ntag_1:\n  pop\n  dataSize(sub_0)\n  dup1\n  dataOffset(sub_0)\n  0x00\n  codecopy\n  0x00\n  return\nstop\n\nsub_0: assembly {\n        /* \"contracts/KYC.sol\":109:1686  contract KYC{... */\n      mstore(0x40, 0x80)\n      callvalue\n      dup1\n      iszero\n      tag_1\n      jumpi\n      0x00\n      dup1\n      revert\n    tag_1:\n      pop\n      jumpi(tag_2, lt(calldatasize, 0x04))\n      shr(0xe0, calldataload(0x00))\n      dup1\n      0x2e7700f0\n      eq\n      tag_3\n      jumpi\n      dup1\n      0x6386c1c7\n      eq\n      tag_4\n      jumpi\n      dup1\n      0x88721931\n      eq\n      tag_5\n      jumpi\n    tag_2:\n      0x00\n      dup1\n      revert\n        /* \"contracts/KYC.sol\":1582:1683  function getTransactionCount() public view returns(uint256){... */\n    tag_3:\n      tag_6\n      tag_7\n      jump\t// in\n    tag_6:\n      mload(0x40)\n      tag_8\n      swap2\n      swap1\n      tag_9\n      jump\t// in\n    tag_8:\n      mload(0x40)\n      dup1\n      swap2\n      sub\n      swap1\n      return\n        /* \"contracts/KYC.sol\":1084:1574  function getUserInfo(address payable userAddress) public view returns(address user, string memory role, string memory firstName, string memory lastName){... */\n    tag_4:\n      tag_10\n      0x04\n      dup1\n      calldatasize\n      sub\n      dup2\n      add\n      swap1\n      tag_11\n      swap2\n      swap1\n      tag_12\n      jump\t// in\n    tag_11:\n      tag_13\n      jump\t// in\n    tag_10:\n      mload(0x40)\n      tag_14\n      swap5\n      swap4\n      swap3\n      swap2\n      swap1\n      tag_15\n      jump\t// in\n    tag_14:\n      mload(0x40)\n      dup1\n      swap2\n      sub\n      swap1\n      return\n        /* \"contracts/KYC.sol\":623:1076  function onboarding(address payable userAddress, string memory role, string memory firstName, string memory lastName) public {... */\n    tag_5:\n      tag_16\n      0x04\n      dup1\n      calldatasize\n      sub\n      dup2\n      add\n      swap1\n      tag_17\n      swap2\n      swap1\n      tag_18\n      jump\t// in\n    tag_17:\n      tag_19\n      jump\t// in\n    tag_16:\n      stop\n        /* \"contracts/KYC.sol\":1582:1683  function getTransactionCount() public view returns(uint256){... */\n    tag_7:\n        /* \"contracts/KYC.sol\":1633:1640  uint256 */\n      0x00\n        /* \"contracts/KYC.sol\":1659:1675  transactionCount */\n      dup1\n      sload\n        /* \"contracts/KYC.sol\":1652:1675  return transactionCount */\n      swap1\n      pop\n        /* \"contracts/KYC.sol\":1582:1683  function getTransactionCount() public view returns(uint256){... */\n      swap1\n      jump\t// out\n        /* \"contracts/KYC.sol\":1084:1574  function getUserInfo(address payable userAddress) public view returns(address user, string memory role, string memory firstName, string memory lastName){... */\n    tag_13:\n        /* \"contracts/KYC.sol\":1154:1166  address user */\n      0x00\n        /* \"contracts/KYC.sol\":1168:1186  string memory role */\n      0x60\n        /* \"contracts/KYC.sol\":1188:1211  string memory firstName */\n      dup1\n        /* \"contracts/KYC.sol\":1213:1235  string memory lastName */\n      0x60\n        /* \"contracts/KYC.sol\":1247:1279  UserInfoStruct[] memory userInfo */\n      0x00\n        /* \"contracts/KYC.sol\":1303:1304  1 */\n      0x01\n        /* \"contracts/KYC.sol\":1282:1305  new UserInfoStruct[](1) */\n      0xffffffffffffffff\n      dup2\n      gt\n      iszero\n      tag_22\n      jumpi\n      tag_23\n      tag_24\n      jump\t// in\n    tag_23:\n    tag_22:\n      mload(0x40)\n      swap1\n      dup1\n      dup3\n      mstore\n      dup1\n      0x20\n      mul\n      0x20\n      add\n      dup3\n      add\n      0x40\n      mstore\n      dup1\n      iszero\n      tag_25\n      jumpi\n      dup2\n      0x20\n      add\n    tag_26:\n      tag_27\n      tag_28\n      jump\t// in\n    tag_27:\n      dup2\n      mstore\n      0x20\n      add\n      swap1\n      0x01\n      swap1\n      sub\n      swap1\n      dup2\n      tag_26\n      jumpi\n      swap1\n      pop\n    tag_25:\n      pop\n        /* \"contracts/KYC.sol\":1247:1305  UserInfoStruct[] memory userInfo = new UserInfoStruct[](1) */\n      swap1\n      pop\n        /* \"contracts/KYC.sol\":1330:1338  userDict */\n      0x01\n        /* \"contracts/KYC.sol\":1330:1351  userDict[userAddress] */\n      0x00\n        /* \"contracts/KYC.sol\":1339:1350  userAddress */\n      dup8\n        /* \"contracts/KYC.sol\":1330:1351  userDict[userAddress] */\n      0xffffffffffffffffffffffffffffffffffffffff\n      and\n      0xffffffffffffffffffffffffffffffffffffffff\n      and\n      dup2\n      mstore\n      0x20\n      add\n      swap1\n      dup2\n      mstore\n      0x20\n      add\n      0x00\n      keccak256\n        /* \"contracts/KYC.sol\":1316:1351  userInfo[0] = userDict[userAddress] */\n      mload(0x40)\n      dup1\n      0x80\n      add\n      0x40\n      mstore\n      swap1\n      dup2\n      0x00\n      dup3\n      add\n      0x00\n      swap1\n      sload\n      swap1\n      0x0100\n      exp\n      swap1\n      div\n      0xffffffffffffffffffffffffffffffffffffffff\n      and\n      0xffffffffffffffffffffffffffffffffffffffff\n      and\n      0xffffffffffffffffffffffffffffffffffffffff\n      and\n      dup2\n      mstore\n      0x20\n      add\n      0x01\n      dup3\n      add\n      dup1\n      sload\n      tag_29\n      swap1\n      tag_30\n      jump\t// in\n    tag_29:\n      dup1\n      0x1f\n      add\n      0x20\n      dup1\n      swap2\n      div\n      mul\n      0x20\n      add\n      mload(0x40)\n      swap1\n      dup2\n      add\n      0x40\n      mstore\n      dup1\n      swap3\n      swap2\n      swap1\n      dup2\n      dup2\n      mstore\n      0x20\n      add\n      dup3\n      dup1\n      sload\n      tag_31\n      swap1\n      tag_30\n      jump\t// in\n    tag_31:\n      dup1\n      iszero\n      tag_32\n      jumpi\n      dup1\n      0x1f\n      lt\n      tag_33\n      jumpi\n      0x0100\n      dup1\n      dup4\n      sload\n      div\n      mul\n      dup4\n      mstore\n      swap2\n      0x20\n      add\n      swap2\n      jump(tag_32)\n    tag_33:\n      dup3\n      add\n      swap2\n      swap1\n      0x00\n      mstore\n      keccak256(0x00, 0x20)\n      swap1\n    tag_34:\n      dup2\n      sload\n      dup2\n      mstore\n      swap1\n      0x01\n      add\n      swap1\n      0x20\n      add\n      dup1\n      dup4\n      gt\n      tag_34\n      jumpi\n      dup3\n      swap1\n      sub\n      0x1f\n      and\n      dup3\n      add\n      swap2\n    tag_32:\n      pop\n      pop\n      pop\n      pop\n      pop\n      dup2\n      mstore\n      0x20\n      add\n      0x02\n      dup3\n      add\n      dup1\n      sload\n      tag_35\n      swap1\n      tag_30\n      jump\t// in\n    tag_35:\n      dup1\n      0x1f\n      add\n      0x20\n      dup1\n      swap2\n      div\n      mul\n      0x20\n      add\n      mload(0x40)\n      swap1\n      dup2\n      add\n      0x40\n      mstore\n      dup1\n      swap3\n      swap2\n      swap1\n      dup2\n      dup2\n      mstore\n      0x20\n      add\n      dup3\n      dup1\n      sload\n      tag_36\n      swap1\n      tag_30\n      jump\t// in\n    tag_36:\n      dup1\n      iszero\n      tag_37\n      jumpi\n      dup1\n      0x1f\n      lt\n      tag_38\n      jumpi\n      0x0100\n      dup1\n      dup4\n      sload\n      div\n      mul\n      dup4\n      mstore\n      swap2\n      0x20\n      add\n      swap2\n      jump(tag_37)\n    tag_38:\n      dup3\n      add\n      swap2\n      swap1\n      0x00\n      mstore\n      keccak256(0x00, 0x20)\n      swap1\n    tag_39:\n      dup2\n      sload\n      dup2\n      mstore\n      swap1\n      0x01\n      add\n      swap1\n      0x20\n      add\n      dup1\n      dup4\n      gt\n      tag_39\n      jumpi\n      dup3\n      swap1\n      sub\n      0x1f\n      and\n      dup3\n      add\n      swap2\n    tag_37:\n      pop\n      pop\n      pop\n      pop\n      pop\n      dup2\n      mstore\n      0x20\n      add\n      0x03\n      dup3\n      add\n      dup1\n      sload\n      tag_40\n      swap1\n      tag_30\n      jump\t// in\n    tag_40:\n      dup1\n      0x1f\n      add\n      0x20\n      dup1\n      swap2\n      div\n      mul\n      0x20\n      add\n      mload(0x40)\n      swap1\n      dup2\n      add\n      0x40\n      mstore\n      dup1\n      swap3\n      swap2\n      swap1\n      dup2\n      dup2\n      mstore\n      0x20\n      add\n      dup3\n      dup1\n      sload\n      tag_41\n      swap1\n      tag_30\n      jump\t// in\n    tag_41:\n      dup1\n      iszero\n      tag_42\n      jumpi\n      dup1\n      0x1f\n      lt\n      tag_43\n      jumpi\n      0x0100\n      dup1\n      dup4\n      sload\n      div\n      mul\n      dup4\n      mstore\n      swap2\n      0x20\n      add\n      swap2\n      jump(tag_42)\n    tag_43:\n      dup3\n      add\n      swap2\n      swap1\n      0x00\n      mstore\n      keccak256(0x00, 0x20)\n      swap1\n    tag_44:\n      dup2\n      sload\n      dup2\n      mstore\n      swap1\n      0x01\n      add\n      swap1\n      0x20\n      add\n      dup1\n      dup4\n      gt\n      tag_44\n      jumpi\n      dup3\n      swap1\n      sub\n      0x1f\n      and\n      dup3\n      add\n      swap2\n    tag_42:\n      pop\n      pop\n      pop\n      pop\n      pop\n      dup2\n      mstore\n      pop\n      pop\n        /* \"contracts/KYC.sol\":1316:1324  userInfo */\n      dup2\n        /* \"contracts/KYC.sol\":1325:1326  0 */\n      0x00\n        /* \"contracts/KYC.sol\":1316:1327  userInfo[0] */\n      dup2\n      mload\n      dup2\n      lt\n      tag_45\n      jumpi\n      tag_46\n      tag_47\n      jump\t// in\n    tag_46:\n    tag_45:\n      0x20\n      mul\n      0x20\n      add\n      add\n        /* \"contracts/KYC.sol\":1316:1351  userInfo[0] = userDict[userAddress] */\n      dup2\n      swap1\n      mstore\n      pop\n        /* \"contracts/KYC.sol\":1369:1377  userInfo */\n      dup1\n        /* \"contracts/KYC.sol\":1378:1379  0 */\n      0x00\n        /* \"contracts/KYC.sol\":1369:1380  userInfo[0] */\n      dup2\n      mload\n      dup2\n      lt\n      tag_48\n      jumpi\n      tag_49\n      tag_47\n      jump\t// in\n    tag_49:\n    tag_48:\n      0x20\n      mul\n      0x20\n      add\n      add\n      mload\n        /* \"contracts/KYC.sol\":1369:1392  userInfo[0].userAddress */\n      0x00\n      add\n      mload\n        /* \"contracts/KYC.sol\":1362:1392  user = userInfo[0].userAddress */\n      swap5\n      pop\n        /* \"contracts/KYC.sol\":1410:1418  userInfo */\n      dup1\n        /* \"contracts/KYC.sol\":1419:1420  0 */\n      0x00\n        /* \"contracts/KYC.sol\":1410:1421  userInfo[0] */\n      dup2\n      mload\n      dup2\n      lt\n      tag_50\n      jumpi\n      tag_51\n      tag_47\n      jump\t// in\n    tag_51:\n    tag_50:\n      0x20\n      mul\n      0x20\n      add\n      add\n      mload\n        /* \"contracts/KYC.sol\":1410:1426  userInfo[0].role */\n      0x20\n      add\n      mload\n        /* \"contracts/KYC.sol\":1403:1426  role = userInfo[0].role */\n      swap4\n      pop\n        /* \"contracts/KYC.sol\":1449:1457  userInfo */\n      dup1\n        /* \"contracts/KYC.sol\":1458:1459  0 */\n      0x00\n        /* \"contracts/KYC.sol\":1449:1460  userInfo[0] */\n      dup2\n      mload\n      dup2\n      lt\n      tag_52\n      jumpi\n      tag_53\n      tag_47\n      jump\t// in\n    tag_53:\n    tag_52:\n      0x20\n      mul\n      0x20\n      add\n      add\n      mload\n        /* \"contracts/KYC.sol\":1449:1470  userInfo[0].firstName */\n      0x40\n      add\n      mload\n        /* \"contracts/KYC.sol\":1437:1470  firstName = userInfo[0].firstName */\n      swap3\n      pop\n        /* \"contracts/KYC.sol\":1492:1500  userInfo */\n      dup1\n        /* \"contracts/KYC.sol\":1501:1502  0 */\n      0x00\n        /* \"contracts/KYC.sol\":1492:1503  userInfo[0] */\n      dup2\n      mload\n      dup2\n      lt\n      tag_54\n      jumpi\n      tag_55\n      tag_47\n      jump\t// in\n    tag_55:\n    tag_54:\n      0x20\n      mul\n      0x20\n      add\n      add\n      mload\n        /* \"contracts/KYC.sol\":1492:1512  userInfo[0].lastName */\n      0x60\n      add\n      mload\n        /* \"contracts/KYC.sol\":1481:1512  lastName = userInfo[0].lastName */\n      swap2\n      pop\n        /* \"contracts/KYC.sol\":1527:1566  return (user,role, firstName, lastName) */\n      pop\n        /* \"contracts/KYC.sol\":1084:1574  function getUserInfo(address payable userAddress) public view returns(address user, string memory role, string memory firstName, string memory lastName){... */\n      swap2\n      swap4\n      pop\n      swap2\n      swap4\n      jump\t// out\n        /* \"contracts/KYC.sol\":623:1076  function onboarding(address payable userAddress, string memory role, string memory firstName, string memory lastName) public {... */\n    tag_19:\n        /* \"contracts/KYC.sol\":778:779  1 */\n      0x01\n        /* \"contracts/KYC.sol\":759:775  transactionCount */\n      0x00\n      dup1\n        /* \"contracts/KYC.sol\":759:779  transactionCount +=1 */\n      dup3\n      dup3\n      sload\n      tag_57\n      swap2\n      swap1\n      tag_58\n      jump\t// in\n    tag_57:\n      swap3\n      pop\n      pop\n      dup2\n      swap1\n      sstore\n      pop\n        /* \"contracts/KYC.sol\":922:976  UserInfoStruct(userAddress, role, firstName, lastName) */\n      mload(0x40)\n      dup1\n      0x80\n      add\n      0x40\n      mstore\n      dup1\n        /* \"contracts/KYC.sol\":937:948  userAddress */\n      dup6\n        /* \"contracts/KYC.sol\":922:976  UserInfoStruct(userAddress, role, firstName, lastName) */\n      0xffffffffffffffffffffffffffffffffffffffff\n      and\n      dup2\n      mstore\n      0x20\n      add\n        /* \"contracts/KYC.sol\":950:954  role */\n      dup5\n        /* \"contracts/KYC.sol\":922:976  UserInfoStruct(userAddress, role, firstName, lastName) */\n      dup2\n      mstore\n      0x20\n      add\n        /* \"contracts/KYC.sol\":956:965  firstName */\n      dup4\n        /* \"contracts/KYC.sol\":922:976  UserInfoStruct(userAddress, role, firstName, lastName) */\n      dup2\n      mstore\n      0x20\n      add\n        /* \"contracts/KYC.sol\":967:975  lastName */\n      dup3\n        /* \"contracts/KYC.sol\":922:976  UserInfoStruct(userAddress, role, firstName, lastName) */\n      dup2\n      mstore\n      pop\n        /* \"contracts/KYC.sol\":898:906  userDict */\n      0x01\n        /* \"contracts/KYC.sol\":898:919  userDict[userAddress] */\n      0x00\n        /* \"contracts/KYC.sol\":907:918  userAddress */\n      dup7\n        /* \"contracts/KYC.sol\":898:919  userDict[userAddress] */\n      0xffffffffffffffffffffffffffffffffffffffff\n      and\n      0xffffffffffffffffffffffffffffffffffffffff\n      and\n      dup2\n      mstore\n      0x20\n      add\n      swap1\n      dup2\n      mstore\n      0x20\n      add\n      0x00\n      keccak256\n        /* \"contracts/KYC.sol\":898:976  userDict[userAddress] = UserInfoStruct(userAddress, role, firstName, lastName) */\n      0x00\n      dup3\n      add\n      mload\n      dup2\n      0x00\n      add\n      exp(0x0100, 0x00)\n      dup2\n      sload\n      dup2\n      0xffffffffffffffffffffffffffffffffffffffff\n      mul\n      not\n      and\n      swap1\n      dup4\n      0xffffffffffffffffffffffffffffffffffffffff\n      and\n      mul\n      or\n      swap1\n      sstore\n      pop\n      0x20\n      dup3\n      add\n      mload\n      dup2\n      0x01\n      add\n      swap1\n      dup2\n      tag_59\n      swap2\n      swap1\n      tag_60\n      jump\t// in\n    tag_59:\n      pop\n      0x40\n      dup3\n      add\n      mload\n      dup2\n      0x02\n      add\n      swap1\n      dup2\n      tag_61\n      swap2\n      swap1\n      tag_60\n      jump\t// in\n    tag_61:\n      pop\n      0x60\n      dup3\n      add\n      mload\n      dup2\n      0x03\n      add\n      swap1\n      dup2\n      tag_62\n      swap2\n      swap1\n      tag_60\n      jump\t// in\n    tag_62:\n      pop\n      swap1\n      pop\n      pop\n        /* \"contracts/KYC.sol\":623:1076  function onboarding(address payable userAddress, string memory role, string memory firstName, string memory lastName) public {... */\n      pop\n      pop\n      pop\n      pop\n      jump\t// out\n    tag_28:\n      mload(0x40)\n      dup1\n      0x80\n      add\n      0x40\n      mstore\n      dup1\n      and(0xffffffffffffffffffffffffffffffffffffffff, 0x00)\n      dup2\n      mstore\n      0x20\n      add\n      0x60\n      dup2\n      mstore\n      0x20\n      add\n      0x60\n      dup2\n      mstore\n      0x20\n      add\n      0x60\n      dup2\n      mstore\n      pop\n      swap1\n      jump\t// out\n        /* \"#utility.yul\":7:84   */\n    tag_63:\n        /* \"#utility.yul\":44:51   */\n      0x00\n        /* \"#utility.yul\":73:78   */\n      dup2\n        /* \"#utility.yul\":62:78   */\n      swap1\n      pop\n        /* \"#utility.yul\":7:84   */\n      swap2\n      swap1\n      pop\n      jump\t// out\n        /* \"#utility.yul\":90:208   */\n    tag_64:\n        /* \"#utility.yul\":177:201   */\n      tag_107\n        /* \"#utility.yul\":195:200   */\n      dup2\n        /* \"#utility.yul\":177:201   */\n      tag_63\n      jump\t// in\n    tag_107:\n        /* \"#utility.yul\":172:175   */\n      dup3\n        /* \"#utility.yul\":165:202   */\n      mstore\n        /* \"#utility.yul\":90:208   */\n      pop\n      pop\n      jump\t// out\n        /* \"#utility.yul\":214:436   */\n    tag_9:\n        /* \"#utility.yul\":307:311   */\n      0x00\n        /* \"#utility.yul\":345:347   */\n      0x20\n        /* \"#utility.yul\":334:343   */\n      dup3\n        /* \"#utility.yul\":330:348   */\n      add\n        /* \"#utility.yul\":322:348   */\n      swap1\n      pop\n        /* \"#utility.yul\":358:429   */\n      tag_109\n        /* \"#utility.yul\":426:427   */\n      0x00\n        /* \"#utility.yul\":415:424   */\n      dup4\n        /* \"#utility.yul\":411:428   */\n      add\n        /* \"#utility.yul\":402:408   */\n      dup5\n        /* \"#utility.yul\":358:429   */\n      tag_64\n      jump\t// in\n    tag_109:\n        /* \"#utility.yul\":214:436   */\n      swap3\n      swap2\n      pop\n      pop\n      jump\t// out\n        /* \"#utility.yul\":442:517   */\n    tag_65:\n        /* \"#utility.yul\":475:481   */\n      0x00\n        /* \"#utility.yul\":508:510   */\n      0x40\n        /* \"#utility.yul\":502:511   */\n      mload\n        /* \"#utility.yul\":492:511   */\n      swap1\n      pop\n        /* \"#utility.yul\":442:517   */\n      swap1\n      jump\t// out\n        /* \"#utility.yul\":523:640   */\n    tag_66:\n        /* \"#utility.yul\":632:633   */\n      0x00\n        /* \"#utility.yul\":629:630   */\n      dup1\n        /* \"#utility.yul\":622:634   */\n      revert\n        /* \"#utility.yul\":646:763   */\n    tag_67:\n        /* \"#utility.yul\":755:756   */\n      0x00\n        /* \"#utility.yul\":752:753   */\n      dup1\n        /* \"#utility.yul\":745:757   */\n      revert\n        /* \"#utility.yul\":769:895   */\n    tag_68:\n        /* \"#utility.yul\":806:813   */\n      0x00\n        /* \"#utility.yul\":846:888   */\n      0xffffffffffffffffffffffffffffffffffffffff\n        /* \"#utility.yul\":839:844   */\n      dup3\n        /* \"#utility.yul\":835:889   */\n      and\n        /* \"#utility.yul\":824:889   */\n      swap1\n      pop\n        /* \"#utility.yul\":769:895   */\n      swap2\n      swap1\n      pop\n      jump\t// out\n        /* \"#utility.yul\":901:1005   */\n    tag_69:\n        /* \"#utility.yul\":946:953   */\n      0x00\n        /* \"#utility.yul\":975:999   */\n      tag_115\n        /* \"#utility.yul\":993:998   */\n      dup3\n        /* \"#utility.yul\":975:999   */\n      tag_68\n      jump\t// in\n    tag_115:\n        /* \"#utility.yul\":964:999   */\n      swap1\n      pop\n        /* \"#utility.yul\":901:1005   */\n      swap2\n      swap1\n      pop\n      jump\t// out\n        /* \"#utility.yul\":1011:1149   */\n    tag_70:\n        /* \"#utility.yul\":1092:1124   */\n      tag_117\n        /* \"#utility.yul\":1118:1123   */\n      dup2\n        /* \"#utility.yul\":1092:1124   */\n      tag_69\n      jump\t// in\n    tag_117:\n        /* \"#utility.yul\":1085:1090   */\n      dup2\n        /* \"#utility.yul\":1082:1125   */\n      eq\n        /* \"#utility.yul\":1072:1143   */\n      tag_118\n      jumpi\n        /* \"#utility.yul\":1139:1140   */\n      0x00\n        /* \"#utility.yul\":1136:1137   */\n      dup1\n        /* \"#utility.yul\":1129:1141   */\n      revert\n        /* \"#utility.yul\":1072:1143   */\n    tag_118:\n        /* \"#utility.yul\":1011:1149   */\n      pop\n      jump\t// out\n        /* \"#utility.yul\":1155:1310   */\n    tag_71:\n        /* \"#utility.yul\":1209:1214   */\n      0x00\n        /* \"#utility.yul\":1247:1253   */\n      dup2\n        /* \"#utility.yul\":1234:1254   */\n      calldataload\n        /* \"#utility.yul\":1225:1254   */\n      swap1\n      pop\n        /* \"#utility.yul\":1263:1304   */\n      tag_120\n        /* \"#utility.yul\":1298:1303   */\n      dup2\n        /* \"#utility.yul\":1263:1304   */\n      tag_70\n      jump\t// in\n    tag_120:\n        /* \"#utility.yul\":1155:1310   */\n      swap3\n      swap2\n      pop\n      pop\n      jump\t// out\n        /* \"#utility.yul\":1316:1661   */\n    tag_12:\n        /* \"#utility.yul\":1383:1389   */\n      0x00\n        /* \"#utility.yul\":1432:1434   */\n      0x20\n        /* \"#utility.yul\":1420:1429   */\n      dup3\n        /* \"#utility.yul\":1411:1418   */\n      dup5\n        /* \"#utility.yul\":1407:1430   */\n      sub\n        /* \"#utility.yul\":1403:1435   */\n      slt\n        /* \"#utility.yul\":1400:1519   */\n      iszero\n      tag_122\n      jumpi\n        /* \"#utility.yul\":1438:1517   */\n      tag_123\n      tag_66\n      jump\t// in\n    tag_123:\n        /* \"#utility.yul\":1400:1519   */\n    tag_122:\n        /* \"#utility.yul\":1558:1559   */\n      0x00\n        /* \"#utility.yul\":1583:1644   */\n      tag_124\n        /* \"#utility.yul\":1636:1643   */\n      dup5\n        /* \"#utility.yul\":1627:1633   */\n      dup3\n        /* \"#utility.yul\":1616:1625   */\n      dup6\n        /* \"#utility.yul\":1612:1634   */\n      add\n        /* \"#utility.yul\":1583:1644   */\n      tag_71\n      jump\t// in\n    tag_124:\n        /* \"#utility.yul\":1573:1644   */\n      swap2\n      pop\n        /* \"#utility.yul\":1529:1654   */\n      pop\n        /* \"#utility.yul\":1316:1661   */\n      swap3\n      swap2\n      pop\n      pop\n      jump\t// out\n        /* \"#utility.yul\":1667:1763   */\n    tag_72:\n        /* \"#utility.yul\":1704:1711   */\n      0x00\n        /* \"#utility.yul\":1733:1757   */\n      tag_126\n        /* \"#utility.yul\":1751:1756   */\n      dup3\n        /* \"#utility.yul\":1733:1757   */\n      tag_68\n      jump\t// in\n    tag_126:\n        /* \"#utility.yul\":1722:1757   */\n      swap1\n      pop\n        /* \"#utility.yul\":1667:1763   */\n      swap2\n      swap1\n      pop\n      jump\t// out\n        /* \"#utility.yul\":1769:1887   */\n    tag_73:\n        /* \"#utility.yul\":1856:1880   */\n      tag_128\n        /* \"#utility.yul\":1874:1879   */\n      dup2\n        /* \"#utility.yul\":1856:1880   */\n      tag_72\n      jump\t// in\n    tag_128:\n        /* \"#utility.yul\":1851:1854   */\n      dup3\n        /* \"#utility.yul\":1844:1881   */\n      mstore\n        /* \"#utility.yul\":1769:1887   */\n      pop\n      pop\n      jump\t// out\n        /* \"#utility.yul\":1893:1992   */\n    tag_74:\n        /* \"#utility.yul\":1945:1951   */\n      0x00\n        /* \"#utility.yul\":1979:1984   */\n      dup2\n        /* \"#utility.yul\":1973:1985   */\n      mload\n        /* \"#utility.yul\":1963:1985   */\n      swap1\n      pop\n        /* \"#utility.yul\":1893:1992   */\n      swap2\n      swap1\n      pop\n      jump\t// out\n        /* \"#utility.yul\":1998:2167   */\n    tag_75:\n        /* \"#utility.yul\":2082:2093   */\n      0x00\n        /* \"#utility.yul\":2116:2122   */\n      dup3\n        /* \"#utility.yul\":2111:2114   */\n      dup3\n        /* \"#utility.yul\":2104:2123   */\n      mstore\n        /* \"#utility.yul\":2156:2160   */\n      0x20\n        /* \"#utility.yul\":2151:2154   */\n      dup3\n        /* \"#utility.yul\":2147:2161   */\n      add\n        /* \"#utility.yul\":2132:2161   */\n      swap1\n      pop\n        /* \"#utility.yul\":1998:2167   */\n      swap3\n      swap2\n      pop\n      pop\n      jump\t// out\n        /* \"#utility.yul\":2173:2419   */\n    tag_76:\n        /* \"#utility.yul\":2254:2255   */\n      0x00\n        /* \"#utility.yul\":2264:2377   */\n    tag_132:\n        /* \"#utility.yul\":2278:2284   */\n      dup4\n        /* \"#utility.yul\":2275:2276   */\n      dup2\n        /* \"#utility.yul\":2272:2285   */\n      lt\n        /* \"#utility.yul\":2264:2377   */\n      iszero\n      tag_134\n      jumpi\n        /* \"#utility.yul\":2363:2364   */\n      dup1\n        /* \"#utility.yul\":2358:2361   */\n      dup3\n        /* \"#utility.yul\":2354:2365   */\n      add\n        /* \"#utility.yul\":2348:2366   */\n      mload\n        /* \"#utility.yul\":2344:2345   */\n      dup2\n        /* \"#utility.yul\":2339:2342   */\n      dup5\n        /* \"#utility.yul\":2335:2346   */\n      add\n        /* \"#utility.yul\":2328:2367   */\n      mstore\n        /* \"#utility.yul\":2300:2302   */\n      0x20\n        /* \"#utility.yul\":2297:2298   */\n      dup2\n        /* \"#utility.yul\":2293:2303   */\n      add\n        /* \"#utility.yul\":2288:2303   */\n      swap1\n      pop\n        /* \"#utility.yul\":2264:2377   */\n      jump(tag_132)\n    tag_134:\n        /* \"#utility.yul\":2411:2412   */\n      0x00\n        /* \"#utility.yul\":2402:2408   */\n      dup5\n        /* \"#utility.yul\":2397:2400   */\n      dup5\n        /* \"#utility.yul\":2393:2409   */\n      add\n        /* \"#utility.yul\":2386:2413   */\n      mstore\n        /* \"#utility.yul\":2235:2419   */\n      pop\n        /* \"#utility.yul\":2173:2419   */\n      pop\n      pop\n      pop\n      jump\t// out\n        /* \"#utility.yul\":2425:2527   */\n    tag_77:\n        /* \"#utility.yul\":2466:2472   */\n      0x00\n        /* \"#utility.yul\":2517:2519   */\n      0x1f\n        /* \"#utility.yul\":2513:2520   */\n      not\n        /* \"#utility.yul\":2508:2510   */\n      0x1f\n        /* \"#utility.yul\":2501:2506   */\n      dup4\n        /* \"#utility.yul\":2497:2511   */\n      add\n        /* \"#utility.yul\":2493:2521   */\n      and\n        /* \"#utility.yul\":2483:2521   */\n      swap1\n      pop\n        /* \"#utility.yul\":2425:2527   */\n      swap2\n      swap1\n      pop\n      jump\t// out\n        /* \"#utility.yul\":2533:2910   */\n    tag_78:\n        /* \"#utility.yul\":2621:2624   */\n      0x00\n        /* \"#utility.yul\":2649:2688   */\n      tag_137\n        /* \"#utility.yul\":2682:2687   */\n      dup3\n        /* \"#utility.yul\":2649:2688   */\n      tag_74\n      jump\t// in\n    tag_137:\n        /* \"#utility.yul\":2704:2775   */\n      tag_138\n        /* \"#utility.yul\":2768:2774   */\n      dup2\n        /* \"#utility.yul\":2763:2766   */\n      dup6\n        /* \"#utility.yul\":2704:2775   */\n      tag_75\n      jump\t// in\n    tag_138:\n        /* \"#utility.yul\":2697:2775   */\n      swap4\n      pop\n        /* \"#utility.yul\":2784:2849   */\n      tag_139\n        /* \"#utility.yul\":2842:2848   */\n      dup2\n        /* \"#utility.yul\":2837:2840   */\n      dup6\n        /* \"#utility.yul\":2830:2834   */\n      0x20\n        /* \"#utility.yul\":2823:2828   */\n      dup7\n        /* \"#utility.yul\":2819:2835   */\n      add\n        /* \"#utility.yul\":2784:2849   */\n      tag_76\n      jump\t// in\n    tag_139:\n        /* \"#utility.yul\":2874:2903   */\n      tag_140\n        /* \"#utility.yul\":2896:2902   */\n      dup2\n        /* \"#utility.yul\":2874:2903   */\n      tag_77\n      jump\t// in\n    tag_140:\n        /* \"#utility.yul\":2869:2872   */\n      dup5\n        /* \"#utility.yul\":2865:2904   */\n      add\n        /* \"#utility.yul\":2858:2904   */\n      swap2\n      pop\n        /* \"#utility.yul\":2625:2910   */\n      pop\n        /* \"#utility.yul\":2533:2910   */\n      swap3\n      swap2\n      pop\n      pop\n      jump\t// out\n        /* \"#utility.yul\":2916:3742   */\n    tag_15:\n        /* \"#utility.yul\":3153:3157   */\n      0x00\n        /* \"#utility.yul\":3191:3194   */\n      0x80\n        /* \"#utility.yul\":3180:3189   */\n      dup3\n        /* \"#utility.yul\":3176:3195   */\n      add\n        /* \"#utility.yul\":3168:3195   */\n      swap1\n      pop\n        /* \"#utility.yul\":3205:3276   */\n      tag_142\n        /* \"#utility.yul\":3273:3274   */\n      0x00\n        /* \"#utility.yul\":3262:3271   */\n      dup4\n        /* \"#utility.yul\":3258:3275   */\n      add\n        /* \"#utility.yul\":3249:3255   */\n      dup8\n        /* \"#utility.yul\":3205:3276   */\n      tag_73\n      jump\t// in\n    tag_142:\n        /* \"#utility.yul\":3323:3332   */\n      dup2\n        /* \"#utility.yul\":3317:3321   */\n      dup2\n        /* \"#utility.yul\":3313:3333   */\n      sub\n        /* \"#utility.yul\":3308:3310   */\n      0x20\n        /* \"#utility.yul\":3297:3306   */\n      dup4\n        /* \"#utility.yul\":3293:3311   */\n      add\n        /* \"#utility.yul\":3286:3334   */\n      mstore\n        /* \"#utility.yul\":3351:3429   */\n      tag_143\n        /* \"#utility.yul\":3424:3428   */\n      dup2\n        /* \"#utility.yul\":3415:3421   */\n      dup7\n        /* \"#utility.yul\":3351:3429   */\n      tag_78\n      jump\t// in\n    tag_143:\n        /* \"#utility.yul\":3343:3429   */\n      swap1\n      pop\n        /* \"#utility.yul\":3476:3485   */\n      dup2\n        /* \"#utility.yul\":3470:3474   */\n      dup2\n        /* \"#utility.yul\":3466:3486   */\n      sub\n        /* \"#utility.yul\":3461:3463   */\n      0x40\n        /* \"#utility.yul\":3450:3459   */\n      dup4\n        /* \"#utility.yul\":3446:3464   */\n      add\n        /* \"#utility.yul\":3439:3487   */\n      mstore\n        /* \"#utility.yul\":3504:3582   */\n      tag_144\n        /* \"#utility.yul\":3577:3581   */\n      dup2\n        /* \"#utility.yul\":3568:3574   */\n      dup6\n        /* \"#utility.yul\":3504:3582   */\n      tag_78\n      jump\t// in\n    tag_144:\n        /* \"#utility.yul\":3496:3582   */\n      swap1\n      pop\n        /* \"#utility.yul\":3629:3638   */\n      dup2\n        /* \"#utility.yul\":3623:3627   */\n      dup2\n        /* \"#utility.yul\":3619:3639   */\n      sub\n        /* \"#utility.yul\":3614:3616   */\n      0x60\n        /* \"#utility.yul\":3603:3612   */\n      dup4\n        /* \"#utility.yul\":3599:3617   */\n      add\n        /* \"#utility.yul\":3592:3640   */\n      mstore\n        /* \"#utility.yul\":3657:3735   */\n      tag_145\n        /* \"#utility.yul\":3730:3734   */\n      dup2\n        /* \"#utility.yul\":3721:3727   */\n      dup5\n        /* \"#utility.yul\":3657:3735   */\n      tag_78\n      jump\t// in\n    tag_145:\n        /* \"#utility.yul\":3649:3735   */\n      swap1\n      pop\n        /* \"#utility.yul\":2916:3742   */\n      swap6\n      swap5\n      pop\n      pop\n      pop\n      pop\n      pop\n      jump\t// out\n        /* \"#utility.yul\":3748:3865   */\n    tag_79:\n        /* \"#utility.yul\":3857:3858   */\n      0x00\n        /* \"#utility.yul\":3854:3855   */\n      dup1\n        /* \"#utility.yul\":3847:3859   */\n      revert\n        /* \"#utility.yul\":3871:3988   */\n    tag_80:\n        /* \"#utility.yul\":3980:3981   */\n      0x00\n        /* \"#utility.yul\":3977:3978   */\n      dup1\n        /* \"#utility.yul\":3970:3982   */\n      revert\n        /* \"#utility.yul\":3994:4174   */\n    tag_24:\n        /* \"#utility.yul\":4042:4119   */\n      0x4e487b7100000000000000000000000000000000000000000000000000000000\n        /* \"#utility.yul\":4039:4040   */\n      0x00\n        /* \"#utility.yul\":4032:4120   */\n      mstore\n        /* \"#utility.yul\":4139:4143   */\n      0x41\n        /* \"#utility.yul\":4136:4137   */\n      0x04\n        /* \"#utility.yul\":4129:4144   */\n      mstore\n        /* \"#utility.yul\":4163:4167   */\n      0x24\n        /* \"#utility.yul\":4160:4161   */\n      0x00\n        /* \"#utility.yul\":4153:4168   */\n      revert\n        /* \"#utility.yul\":4180:4461   */\n    tag_81:\n        /* \"#utility.yul\":4263:4290   */\n      tag_150\n        /* \"#utility.yul\":4285:4289   */\n      dup3\n        /* \"#utility.yul\":4263:4290   */\n      tag_77\n      jump\t// in\n    tag_150:\n        /* \"#utility.yul\":4255:4261   */\n      dup2\n        /* \"#utility.yul\":4251:4291   */\n      add\n        /* \"#utility.yul\":4393:4399   */\n      dup2\n        /* \"#utility.yul\":4381:4391   */\n      dup2\n        /* \"#utility.yul\":4378:4400   */\n      lt\n        /* \"#utility.yul\":4357:4375   */\n      0xffffffffffffffff\n        /* \"#utility.yul\":4345:4355   */\n      dup3\n        /* \"#utility.yul\":4342:4376   */\n      gt\n        /* \"#utility.yul\":4339:4401   */\n      or\n        /* \"#utility.yul\":4336:4424   */\n      iszero\n      tag_151\n      jumpi\n        /* \"#utility.yul\":4404:4422   */\n      tag_152\n      tag_24\n      jump\t// in\n    tag_152:\n        /* \"#utility.yul\":4336:4424   */\n    tag_151:\n        /* \"#utility.yul\":4444:4454   */\n      dup1\n        /* \"#utility.yul\":4440:4442   */\n      0x40\n        /* \"#utility.yul\":4433:4455   */\n      mstore\n        /* \"#utility.yul\":4223:4461   */\n      pop\n        /* \"#utility.yul\":4180:4461   */\n      pop\n      pop\n      jump\t// out\n        /* \"#utility.yul\":4467:4596   */\n    tag_82:\n        /* \"#utility.yul\":4501:4507   */\n      0x00\n        /* \"#utility.yul\":4528:4548   */\n      tag_154\n      tag_65\n      jump\t// in\n    tag_154:\n        /* \"#utility.yul\":4518:4548   */\n      swap1\n      pop\n        /* \"#utility.yul\":4557:4590   */\n      tag_155\n        /* \"#utility.yul\":4585:4589   */\n      dup3\n        /* \"#utility.yul\":4577:4583   */\n      dup3\n        /* \"#utility.yul\":4557:4590   */\n      tag_81\n      jump\t// in\n    tag_155:\n        /* \"#utility.yul\":4467:4596   */\n      swap2\n      swap1\n      pop\n      jump\t// out\n        /* \"#utility.yul\":4602:4910   */\n    tag_83:\n        /* \"#utility.yul\":4664:4668   */\n      0x00\n        /* \"#utility.yul\":4754:4772   */\n      0xffffffffffffffff\n        /* \"#utility.yul\":4746:4752   */\n      dup3\n        /* \"#utility.yul\":4743:4773   */\n      gt\n        /* \"#utility.yul\":4740:4796   */\n      iszero\n      tag_157\n      jumpi\n        /* \"#utility.yul\":4776:4794   */\n      tag_158\n      tag_24\n      jump\t// in\n    tag_158:\n        /* \"#utility.yul\":4740:4796   */\n    tag_157:\n        /* \"#utility.yul\":4814:4843   */\n      tag_159\n        /* \"#utility.yul\":4836:4842   */\n      dup3\n        /* \"#utility.yul\":4814:4843   */\n      tag_77\n      jump\t// in\n    tag_159:\n        /* \"#utility.yul\":4806:4843   */\n      swap1\n      pop\n        /* \"#utility.yul\":4898:4902   */\n      0x20\n        /* \"#utility.yul\":4892:4896   */\n      dup2\n        /* \"#utility.yul\":4888:4903   */\n      add\n        /* \"#utility.yul\":4880:4903   */\n      swap1\n      pop\n        /* \"#utility.yul\":4602:4910   */\n      swap2\n      swap1\n      pop\n      jump\t// out\n        /* \"#utility.yul\":4916:5062   */\n    tag_84:\n        /* \"#utility.yul\":5013:5019   */\n      dup3\n        /* \"#utility.yul\":5008:5011   */\n      dup2\n        /* \"#utility.yul\":5003:5006   */\n      dup4\n        /* \"#utility.yul\":4990:5020   */\n      calldatacopy\n        /* \"#utility.yul\":5054:5055   */\n      0x00\n        /* \"#utility.yul\":5045:5051   */\n      dup4\n        /* \"#utility.yul\":5040:5043   */\n      dup4\n        /* \"#utility.yul\":5036:5052   */\n      add\n        /* \"#utility.yul\":5029:5056   */\n      mstore\n        /* \"#utility.yul\":4916:5062   */\n      pop\n      pop\n      pop\n      jump\t// out\n        /* \"#utility.yul\":5068:5493   */\n    tag_85:\n        /* \"#utility.yul\":5146:5151   */\n      0x00\n        /* \"#utility.yul\":5171:5237   */\n      tag_162\n        /* \"#utility.yul\":5187:5236   */\n      tag_163\n        /* \"#utility.yul\":5229:5235   */\n      dup5\n        /* \"#utility.yul\":5187:5236   */\n      tag_83\n      jump\t// in\n    tag_163:\n        /* \"#utility.yul\":5171:5237   */\n      tag_82\n      jump\t// in\n    tag_162:\n        /* \"#utility.yul\":5162:5237   */\n      swap1\n      pop\n        /* \"#utility.yul\":5260:5266   */\n      dup3\n        /* \"#utility.yul\":5253:5258   */\n      dup2\n        /* \"#utility.yul\":5246:5267   */\n      mstore\n        /* \"#utility.yul\":5298:5302   */\n      0x20\n        /* \"#utility.yul\":5291:5296   */\n      dup2\n        /* \"#utility.yul\":5287:5303   */\n      add\n        /* \"#utility.yul\":5336:5339   */\n      dup5\n        /* \"#utility.yul\":5327:5333   */\n      dup5\n        /* \"#utility.yul\":5322:5325   */\n      dup5\n        /* \"#utility.yul\":5318:5334   */\n      add\n        /* \"#utility.yul\":5315:5340   */\n      gt\n        /* \"#utility.yul\":5312:5424   */\n      iszero\n      tag_164\n      jumpi\n        /* \"#utility.yul\":5343:5422   */\n      tag_165\n      tag_80\n      jump\t// in\n    tag_165:\n        /* \"#utility.yul\":5312:5424   */\n    tag_164:\n        /* \"#utility.yul\":5433:5487   */\n      tag_166\n        /* \"#utility.yul\":5480:5486   */\n      dup5\n        /* \"#utility.yul\":5475:5478   */\n      dup3\n        /* \"#utility.yul\":5470:5473   */\n      dup6\n        /* \"#utility.yul\":5433:5487   */\n      tag_84\n      jump\t// in\n    tag_166:\n        /* \"#utility.yul\":5152:5493   */\n      pop\n        /* \"#utility.yul\":5068:5493   */\n      swap4\n      swap3\n      pop\n      pop\n      pop\n      jump\t// out\n        /* \"#utility.yul\":5513:5853   */\n    tag_86:\n        /* \"#utility.yul\":5569:5574   */\n      0x00\n        /* \"#utility.yul\":5618:5621   */\n      dup3\n        /* \"#utility.yul\":5611:5615   */\n      0x1f\n        /* \"#utility.yul\":5603:5609   */\n      dup4\n        /* \"#utility.yul\":5599:5616   */\n      add\n        /* \"#utility.yul\":5595:5622   */\n      slt\n        /* \"#utility.yul\":5585:5707   */\n      tag_168\n      jumpi\n        /* \"#utility.yul\":5626:5705   */\n      tag_169\n      tag_79\n      jump\t// in\n    tag_169:\n        /* \"#utility.yul\":5585:5707   */\n    tag_168:\n        /* \"#utility.yul\":5743:5749   */\n      dup2\n        /* \"#utility.yul\":5730:5750   */\n      calldataload\n        /* \"#utility.yul\":5768:5847   */\n      tag_170\n        /* \"#utility.yul\":5843:5846   */\n      dup5\n        /* \"#utility.yul\":5835:5841   */\n      dup3\n        /* \"#utility.yul\":5828:5832   */\n      0x20\n        /* \"#utility.yul\":5820:5826   */\n      dup7\n        /* \"#utility.yul\":5816:5833   */\n      add\n        /* \"#utility.yul\":5768:5847   */\n      tag_85\n      jump\t// in\n    tag_170:\n        /* \"#utility.yul\":5759:5847   */\n      swap2\n      pop\n        /* \"#utility.yul\":5575:5853   */\n      pop\n        /* \"#utility.yul\":5513:5853   */\n      swap3\n      swap2\n      pop\n      pop\n      jump\t// out\n        /* \"#utility.yul\":5859:7180   */\n    tag_18:\n        /* \"#utility.yul\":5983:5989   */\n      0x00\n        /* \"#utility.yul\":5991:5997   */\n      dup1\n        /* \"#utility.yul\":5999:6005   */\n      0x00\n        /* \"#utility.yul\":6007:6013   */\n      dup1\n        /* \"#utility.yul\":6056:6059   */\n      0x80\n        /* \"#utility.yul\":6044:6053   */\n      dup6\n        /* \"#utility.yul\":6035:6042   */\n      dup8\n        /* \"#utility.yul\":6031:6054   */\n      sub\n        /* \"#utility.yul\":6027:6060   */\n      slt\n        /* \"#utility.yul\":6024:6144   */\n      iszero\n      tag_172\n      jumpi\n        /* \"#utility.yul\":6063:6142   */\n      tag_173\n      tag_66\n      jump\t// in\n    tag_173:\n        /* \"#utility.yul\":6024:6144   */\n    tag_172:\n        /* \"#utility.yul\":6183:6184   */\n      0x00\n        /* \"#utility.yul\":6208:6269   */\n      tag_174\n        /* \"#utility.yul\":6261:6268   */\n      dup8\n        /* \"#utility.yul\":6252:6258   */\n      dup3\n        /* \"#utility.yul\":6241:6250   */\n      dup9\n        /* \"#utility.yul\":6237:6259   */\n      add\n        /* \"#utility.yul\":6208:6269   */\n      tag_71\n      jump\t// in\n    tag_174:\n        /* \"#utility.yul\":6198:6269   */\n      swap5\n      pop\n        /* \"#utility.yul\":6154:6279   */\n      pop\n        /* \"#utility.yul\":6346:6348   */\n      0x20\n        /* \"#utility.yul\":6335:6344   */\n      dup6\n        /* \"#utility.yul\":6331:6349   */\n      add\n        /* \"#utility.yul\":6318:6350   */\n      calldataload\n        /* \"#utility.yul\":6377:6395   */\n      0xffffffffffffffff\n        /* \"#utility.yul\":6369:6375   */\n      dup2\n        /* \"#utility.yul\":6366:6396   */\n      gt\n        /* \"#utility.yul\":6363:6480   */\n      iszero\n      tag_175\n      jumpi\n        /* \"#utility.yul\":6399:6478   */\n      tag_176\n      tag_67\n      jump\t// in\n    tag_176:\n        /* \"#utility.yul\":6363:6480   */\n    tag_175:\n        /* \"#utility.yul\":6504:6567   */\n      tag_177\n        /* \"#utility.yul\":6559:6566   */\n      dup8\n        /* \"#utility.yul\":6550:6556   */\n      dup3\n        /* \"#utility.yul\":6539:6548   */\n      dup9\n        /* \"#utility.yul\":6535:6557   */\n      add\n        /* \"#utility.yul\":6504:6567   */\n      tag_86\n      jump\t// in\n    tag_177:\n        /* \"#utility.yul\":6494:6567   */\n      swap4\n      pop\n        /* \"#utility.yul\":6289:6577   */\n      pop\n        /* \"#utility.yul\":6644:6646   */\n      0x40\n        /* \"#utility.yul\":6633:6642   */\n      dup6\n        /* \"#utility.yul\":6629:6647   */\n      add\n        /* \"#utility.yul\":6616:6648   */\n      calldataload\n        /* \"#utility.yul\":6675:6693   */\n      0xffffffffffffffff\n        /* \"#utility.yul\":6667:6673   */\n      dup2\n        /* \"#utility.yul\":6664:6694   */\n      gt\n        /* \"#utility.yul\":6661:6778   */\n      iszero\n      tag_178\n      jumpi\n        /* \"#utility.yul\":6697:6776   */\n      tag_179\n      tag_67\n      jump\t// in\n    tag_179:\n        /* \"#utility.yul\":6661:6778   */\n    tag_178:\n        /* \"#utility.yul\":6802:6865   */\n      tag_180\n        /* \"#utility.yul\":6857:6864   */\n      dup8\n        /* \"#utility.yul\":6848:6854   */\n      dup3\n        /* \"#utility.yul\":6837:6846   */\n      dup9\n        /* \"#utility.yul\":6833:6855   */\n      add\n        /* \"#utility.yul\":6802:6865   */\n      tag_86\n      jump\t// in\n    tag_180:\n        /* \"#utility.yul\":6792:6865   */\n      swap3\n      pop\n        /* \"#utility.yul\":6587:6875   */\n      pop\n        /* \"#utility.yul\":6942:6944   */\n      0x60\n        /* \"#utility.yul\":6931:6940   */\n      dup6\n        /* \"#utility.yul\":6927:6945   */\n      add\n        /* \"#utility.yul\":6914:6946   */\n      calldataload\n        /* \"#utility.yul\":6973:6991   */\n      0xffffffffffffffff\n        /* \"#utility.yul\":6965:6971   */\n      dup2\n        /* \"#utility.yul\":6962:6992   */\n      gt\n        /* \"#utility.yul\":6959:7076   */\n      iszero\n      tag_181\n      jumpi\n        /* \"#utility.yul\":6995:7074   */\n      tag_182\n      tag_67\n      jump\t// in\n    tag_182:\n        /* \"#utility.yul\":6959:7076   */\n    tag_181:\n        /* \"#utility.yul\":7100:7163   */\n      tag_183\n        /* \"#utility.yul\":7155:7162   */\n      dup8\n        /* \"#utility.yul\":7146:7152   */\n      dup3\n        /* \"#utility.yul\":7135:7144   */\n      dup9\n        /* \"#utility.yul\":7131:7153   */\n      add\n        /* \"#utility.yul\":7100:7163   */\n      tag_86\n      jump\t// in\n    tag_183:\n        /* \"#utility.yul\":7090:7163   */\n      swap2\n      pop\n        /* \"#utility.yul\":6885:7173   */\n      pop\n        /* \"#utility.yul\":5859:7180   */\n      swap3\n      swap6\n      swap2\n      swap5\n      pop\n      swap3\n      pop\n      jump\t// out\n        /* \"#utility.yul\":7186:7366   */\n    tag_87:\n        /* \"#utility.yul\":7234:7311   */\n      0x4e487b7100000000000000000000000000000000000000000000000000000000\n        /* \"#utility.yul\":7231:7232   */\n      0x00\n        /* \"#utility.yul\":7224:7312   */\n      mstore\n        /* \"#utility.yul\":7331:7335   */\n      0x22\n        /* \"#utility.yul\":7328:7329   */\n      0x04\n        /* \"#utility.yul\":7321:7336   */\n      mstore\n        /* \"#utility.yul\":7355:7359   */\n      0x24\n        /* \"#utility.yul\":7352:7353   */\n      0x00\n        /* \"#utility.yul\":7345:7360   */\n      revert\n        /* \"#utility.yul\":7372:7692   */\n    tag_30:\n        /* \"#utility.yul\":7416:7422   */\n      0x00\n        /* \"#utility.yul\":7453:7454   */\n      0x02\n        /* \"#utility.yul\":7447:7451   */\n      dup3\n        /* \"#utility.yul\":7443:7455   */\n      div\n        /* \"#utility.yul\":7433:7455   */\n      swap1\n      pop\n        /* \"#utility.yul\":7500:7501   */\n      0x01\n        /* \"#utility.yul\":7494:7498   */\n      dup3\n        /* \"#utility.yul\":7490:7502   */\n      and\n        /* \"#utility.yul\":7521:7539   */\n      dup1\n        /* \"#utility.yul\":7511:7592   */\n      tag_186\n      jumpi\n        /* \"#utility.yul\":7577:7581   */\n      0x7f\n        /* \"#utility.yul\":7569:7575   */\n      dup3\n        /* \"#utility.yul\":7565:7582   */\n      and\n        /* \"#utility.yul\":7555:7582   */\n      swap2\n      pop\n        /* \"#utility.yul\":7511:7592   */\n    tag_186:\n        /* \"#utility.yul\":7639:7641   */\n      0x20\n        /* \"#utility.yul\":7631:7637   */\n      dup3\n        /* \"#utility.yul\":7628:7642   */\n      lt\n        /* \"#utility.yul\":7608:7626   */\n      dup2\n        /* \"#utility.yul\":7605:7643   */\n      sub\n        /* \"#utility.yul\":7602:7686   */\n      tag_187\n      jumpi\n        /* \"#utility.yul\":7658:7676   */\n      tag_188\n      tag_87\n      jump\t// in\n    tag_188:\n        /* \"#utility.yul\":7602:7686   */\n    tag_187:\n        /* \"#utility.yul\":7423:7692   */\n      pop\n        /* \"#utility.yul\":7372:7692   */\n      swap2\n      swap1\n      pop\n      jump\t// out\n        /* \"#utility.yul\":7698:7878   */\n    tag_47:\n        /* \"#utility.yul\":7746:7823   */\n      0x4e487b7100000000000000000000000000000000000000000000000000000000\n        /* \"#utility.yul\":7743:7744   */\n      0x00\n        /* \"#utility.yul\":7736:7824   */\n      mstore\n        /* \"#utility.yul\":7843:7847   */\n      0x32\n        /* \"#utility.yul\":7840:7841   */\n      0x04\n        /* \"#utility.yul\":7833:7848   */\n      mstore\n        /* \"#utility.yul\":7867:7871   */\n      0x24\n        /* \"#utility.yul\":7864:7865   */\n      0x00\n        /* \"#utility.yul\":7857:7872   */\n      revert\n        /* \"#utility.yul\":7884:8064   */\n    tag_88:\n        /* \"#utility.yul\":7932:8009   */\n      0x4e487b7100000000000000000000000000000000000000000000000000000000\n        /* \"#utility.yul\":7929:7930   */\n      0x00\n        /* \"#utility.yul\":7922:8010   */\n      mstore\n        /* \"#utility.yul\":8029:8033   */\n      0x11\n        /* \"#utility.yul\":8026:8027   */\n      0x04\n        /* \"#utility.yul\":8019:8034   */\n      mstore\n        /* \"#utility.yul\":8053:8057   */\n      0x24\n        /* \"#utility.yul\":8050:8051   */\n      0x00\n        /* \"#utility.yul\":8043:8058   */\n      revert\n        /* \"#utility.yul\":8070:8261   */\n    tag_58:\n        /* \"#utility.yul\":8110:8113   */\n      0x00\n        /* \"#utility.yul\":8129:8149   */\n      tag_192\n        /* \"#utility.yul\":8147:8148   */\n      dup3\n        /* \"#utility.yul\":8129:8149   */\n      tag_63\n      jump\t// in\n    tag_192:\n        /* \"#utility.yul\":8124:8149   */\n      swap2\n      pop\n        /* \"#utility.yul\":8163:8183   */\n      tag_193\n        /* \"#utility.yul\":8181:8182   */\n      dup4\n        /* \"#utility.yul\":8163:8183   */\n      tag_63\n      jump\t// in\n    tag_193:\n        /* \"#utility.yul\":8158:8183   */\n      swap3\n      pop\n        /* \"#utility.yul\":8206:8207   */\n      dup3\n        /* \"#utility.yul\":8203:8204   */\n      dup3\n        /* \"#utility.yul\":8199:8208   */\n      add\n        /* \"#utility.yul\":8192:8208   */\n      swap1\n      pop\n        /* \"#utility.yul\":8227:8230   */\n      dup1\n        /* \"#utility.yul\":8224:8225   */\n      dup3\n        /* \"#utility.yul\":8221:8231   */\n      gt\n        /* \"#utility.yul\":8218:8254   */\n      iszero\n      tag_194\n      jumpi\n        /* \"#utility.yul\":8234:8252   */\n      tag_195\n      tag_88\n      jump\t// in\n    tag_195:\n        /* \"#utility.yul\":8218:8254   */\n    tag_194:\n        /* \"#utility.yul\":8070:8261   */\n      swap3\n      swap2\n      pop\n      pop\n      jump\t// out\n        /* \"#utility.yul\":8267:8408   */\n    tag_89:\n        /* \"#utility.yul\":8316:8320   */\n      0x00\n        /* \"#utility.yul\":8339:8342   */\n      dup2\n        /* \"#utility.yul\":8331:8342   */\n      swap1\n      pop\n        /* \"#utility.yul\":8362:8365   */\n      dup2\n        /* \"#utility.yul\":8359:8360   */\n      0x00\n        /* \"#utility.yul\":8352:8366   */\n      mstore\n        /* \"#utility.yul\":8396:8400   */\n      0x20\n        /* \"#utility.yul\":8393:8394   */\n      0x00\n        /* \"#utility.yul\":8383:8401   */\n      keccak256\n        /* \"#utility.yul\":8375:8401   */\n      swap1\n      pop\n        /* \"#utility.yul\":8267:8408   */\n      swap2\n      swap1\n      pop\n      jump\t// out\n        /* \"#utility.yul\":8414:8507   */\n    tag_90:\n        /* \"#utility.yul\":8451:8457   */\n      0x00\n        /* \"#utility.yul\":8498:8500   */\n      0x20\n        /* \"#utility.yul\":8493:8495   */\n      0x1f\n        /* \"#utility.yul\":8486:8491   */\n      dup4\n        /* \"#utility.yul\":8482:8496   */\n      add\n        /* \"#utility.yul\":8478:8501   */\n      div\n        /* \"#utility.yul\":8468:8501   */\n      swap1\n      pop\n        /* \"#utility.yul\":8414:8507   */\n      swap2\n      swap1\n      pop\n      jump\t// out\n        /* \"#utility.yul\":8513:8620   */\n    tag_91:\n        /* \"#utility.yul\":8557:8565   */\n      0x00\n        /* \"#utility.yul\":8607:8612   */\n      dup3\n        /* \"#utility.yul\":8601:8605   */\n      dup3\n        /* \"#utility.yul\":8597:8613   */\n      shl\n        /* \"#utility.yul\":8576:8613   */\n      swap1\n      pop\n        /* \"#utility.yul\":8513:8620   */\n      swap3\n      swap2\n      pop\n      pop\n      jump\t// out\n        /* \"#utility.yul\":8626:9019   */\n    tag_92:\n        /* \"#utility.yul\":8695:8701   */\n      0x00\n        /* \"#utility.yul\":8745:8746   */\n      0x08\n        /* \"#utility.yul\":8733:8743   */\n      dup4\n        /* \"#utility.yul\":8729:8747   */\n      mul\n        /* \"#utility.yul\":8768:8865   */\n      tag_200\n        /* \"#utility.yul\":8798:8864   */\n      0xffffffffffffffffffffffffffffffffffffffffffffffffffffffffffffffff\n        /* \"#utility.yul\":8787:8796   */\n      dup3\n        /* \"#utility.yul\":8768:8865   */\n      tag_91\n      jump\t// in\n    tag_200:\n        /* \"#utility.yul\":8886:8925   */\n      tag_201\n        /* \"#utility.yul\":8916:8924   */\n      dup7\n        /* \"#utility.yul\":8905:8914   */\n      dup4\n        /* \"#utility.yul\":8886:8925   */\n      tag_91\n      jump\t// in\n    tag_201:\n        /* \"#utility.yul\":8874:8925   */\n      swap6\n      pop\n        /* \"#utility.yul\":8958:8962   */\n      dup1\n        /* \"#utility.yul\":8954:8963   */\n      not\n        /* \"#utility.yul\":8947:8952   */\n      dup5\n        /* \"#utility.yul\":8943:8964   */\n      and\n        /* \"#utility.yul\":8934:8964   */\n      swap4\n      pop\n        /* \"#utility.yul\":9007:9011   */\n      dup1\n        /* \"#utility.yul\":8997:9005   */\n      dup7\n        /* \"#utility.yul\":8993:9012   */\n      and\n        /* \"#utility.yul\":8986:8991   */\n      dup5\n        /* \"#utility.yul\":8983:9013   */\n      or\n        /* \"#utility.yul\":8973:9013   */\n      swap3\n      pop\n        /* \"#utility.yul\":8702:9019   */\n      pop\n      pop\n        /* \"#utility.yul\":8626:9019   */\n      swap4\n      swap3\n      pop\n      pop\n      pop\n      jump\t// out\n        /* \"#utility.yul\":9025:9085   */\n    tag_93:\n        /* \"#utility.yul\":9053:9056   */\n      0x00\n        /* \"#utility.yul\":9074:9079   */\n      dup2\n        /* \"#utility.yul\":9067:9079   */\n      swap1\n      pop\n        /* \"#utility.yul\":9025:9085   */\n      swap2\n      swap1\n      pop\n      jump\t// out\n        /* \"#utility.yul\":9091:9233   */\n    tag_94:\n        /* \"#utility.yul\":9141:9150   */\n      0x00\n        /* \"#utility.yul\":9174:9227   */\n      tag_204\n        /* \"#utility.yul\":9192:9226   */\n      tag_205\n        /* \"#utility.yul\":9201:9225   */\n      tag_206\n        /* \"#utility.yul\":9219:9224   */\n      dup5\n        /* \"#utility.yul\":9201:9225   */\n      tag_63\n      jump\t// in\n    tag_206:\n        /* \"#utility.yul\":9192:9226   */\n      tag_93\n      jump\t// in\n    tag_205:\n        /* \"#utility.yul\":9174:9227   */\n      tag_63\n      jump\t// in\n    tag_204:\n        /* \"#utility.yul\":9161:9227   */\n      swap1\n      pop\n        /* \"#utility.yul\":9091:9233   */\n      swap2\n      swap1\n      pop\n      jump\t// out\n        /* \"#utility.yul\":9239:9314   */\n    tag_95:\n        /* \"#utility.yul\":9282:9285   */\n      0x00\n        /* \"#utility.yul\":9303:9308   */\n      dup2\n        /* \"#utility.yul\":9296:9308   */\n      swap1\n      pop\n        /* \"#utility.yul\":9239:9314   */\n      swap2\n      swap1\n      pop\n      jump\t// out\n        /* \"#utility.yul\":9320:9589   */\n    tag_96:\n        /* \"#utility.yul\":9430:9469   */\n      tag_209\n        /* \"#utility.yul\":9461:9468   */\n      dup4\n        /* \"#utility.yul\":9430:9469   */\n      tag_94\n      jump\t// in\n    tag_209:\n        /* \"#utility.yul\":9491:9582   */\n      tag_210\n        /* \"#utility.yul\":9540:9581   */\n      tag_211\n        /* \"#utility.yul\":9564:9580   */\n      dup3\n        /* \"#utility.yul\":9540:9581   */\n      tag_95\n      jump\t// in\n    tag_211:\n        /* \"#utility.yul\":9532:9538   */\n      dup5\n        /* \"#utility.yul\":9525:9529   */\n      dup5\n        /* \"#utility.yul\":9519:9530   */\n      sload\n        /* \"#utility.yul\":9491:9582   */\n      tag_92\n      jump\t// in\n    tag_210:\n        /* \"#utility.yul\":9485:9489   */\n      dup3\n        /* \"#utility.yul\":9478:9583   */\n      sstore\n        /* \"#utility.yul\":9396:9589   */\n      pop\n        /* \"#utility.yul\":9320:9589   */\n      pop\n      pop\n      pop\n      jump\t// out\n        /* \"#utility.yul\":9595:9668   */\n    tag_97:\n        /* \"#utility.yul\":9640:9643   */\n      0x00\n        /* \"#utility.yul\":9595:9668   */\n      swap1\n      jump\t// out\n        /* \"#utility.yul\":9674:9863   */\n    tag_98:\n        /* \"#utility.yul\":9751:9783   */\n      tag_214\n      tag_97\n      jump\t// in\n    tag_214:\n        /* \"#utility.yul\":9792:9857   */\n      tag_215\n        /* \"#utility.yul\":9850:9856   */\n      dup2\n        /* \"#utility.yul\":9842:9848   */\n      dup5\n        /* \"#utility.yul\":9836:9840   */\n      dup5\n        /* \"#utility.yul\":9792:9857   */\n      tag_96\n      jump\t// in\n    tag_215:\n        /* \"#utility.yul\":9727:9863   */\n      pop\n        /* \"#utility.yul\":9674:9863   */\n      pop\n      pop\n      jump\t// out\n        /* \"#utility.yul\":9869:10055   */\n    tag_99:\n        /* \"#utility.yul\":9929:10049   */\n    tag_217:\n        /* \"#utility.yul\":9946:9949   */\n      dup2\n        /* \"#utility.yul\":9939:9944   */\n      dup2\n        /* \"#utility.yul\":9936:9950   */\n      lt\n        /* \"#utility.yul\":9929:10049   */\n      iszero\n      tag_219\n      jumpi\n        /* \"#utility.yul\":10000:10039   */\n      tag_220\n        /* \"#utility.yul\":10037:10038   */\n      0x00\n        /* \"#utility.yul\":10030:10035   */\n      dup3\n        /* \"#utility.yul\":10000:10039   */\n      tag_98\n      jump\t// in\n    tag_220:\n        /* \"#utility.yul\":9973:9974   */\n      0x01\n        /* \"#utility.yul\":9966:9971   */\n      dup2\n        /* \"#utility.yul\":9962:9975   */\n      add\n        /* \"#utility.yul\":9953:9975   */\n      swap1\n      pop\n        /* \"#utility.yul\":9929:10049   */\n      jump(tag_217)\n    tag_219:\n        /* \"#utility.yul\":9869:10055   */\n      pop\n      pop\n      jump\t// out\n        /* \"#utility.yul\":10061:10604   */\n    tag_100:\n        /* \"#utility.yul\":10162:10164   */\n      0x1f\n        /* \"#utility.yul\":10157:10160   */\n      dup3\n        /* \"#utility.yul\":10154:10165   */\n      gt\n        /* \"#utility.yul\":10151:10597   */\n      iszero\n      tag_222\n      jumpi\n        /* \"#utility.yul\":10196:10234   */\n      tag_223\n        /* \"#utility.yul\":10228:10233   */\n      dup2\n        /* \"#utility.yul\":10196:10234   */\n      tag_89\n      jump\t// in\n    tag_223:\n        /* \"#utility.yul\":10280:10309   */\n      tag_224\n        /* \"#utility.yul\":10298:10308   */\n      dup5\n        /* \"#utility.yul\":10280:10309   */\n      tag_90\n      jump\t// in\n    tag_224:\n        /* \"#utility.yul\":10270:10278   */\n      dup2\n        /* \"#utility.yul\":10266:10310   */\n      add\n        /* \"#utility.yul\":10463:10465   */\n      0x20\n        /* \"#utility.yul\":10451:10461   */\n      dup6\n        /* \"#utility.yul\":10448:10466   */\n      lt\n        /* \"#utility.yul\":10445:10494   */\n      iszero\n      tag_225\n      jumpi\n        /* \"#utility.yul\":10484:10492   */\n      dup2\n        /* \"#utility.yul\":10469:10492   */\n      swap1\n      pop\n        /* \"#utility.yul\":10445:10494   */\n    tag_225:\n        /* \"#utility.yul\":10507:10587   */\n      tag_226\n        /* \"#utility.yul\":10563:10585   */\n      tag_227\n        /* \"#utility.yul\":10581:10584   */\n      dup6\n        /* \"#utility.yul\":10563:10585   */\n      tag_90\n      jump\t// in\n    tag_227:\n        /* \"#utility.yul\":10553:10561   */\n      dup4\n        /* \"#utility.yul\":10549:10586   */\n      add\n        /* \"#utility.yul\":10536:10547   */\n      dup3\n        /* \"#utility.yul\":10507:10587   */\n      tag_99\n      jump\t// in\n    tag_226:\n        /* \"#utility.yul\":10166:10597   */\n      pop\n      pop\n        /* \"#utility.yul\":10151:10597   */\n    tag_222:\n        /* \"#utility.yul\":10061:10604   */\n      pop\n      pop\n      pop\n      jump\t// out\n        /* \"#utility.yul\":10610:10727   */\n    tag_101:\n        /* \"#utility.yul\":10664:10672   */\n      0x00\n        /* \"#utility.yul\":10714:10719   */\n      dup3\n        /* \"#utility.yul\":10708:10712   */\n      dup3\n        /* \"#utility.yul\":10704:10720   */\n      shr\n        /* \"#utility.yul\":10683:10720   */\n      swap1\n      pop\n        /* \"#utility.yul\":10610:10727   */\n      swap3\n      swap2\n      pop\n      pop\n      jump\t// out\n        /* \"#utility.yul\":10733:10902   */\n    tag_102:\n        /* \"#utility.yul\":10777:10783   */\n      0x00\n        /* \"#utility.yul\":10810:10861   */\n      tag_230\n        /* \"#utility.yul\":10858:10859   */\n      0x00\n        /* \"#utility.yul\":10854:10860   */\n      not\n        /* \"#utility.yul\":10846:10851   */\n      dup5\n        /* \"#utility.yul\":10843:10844   */\n      0x08\n        /* \"#utility.yul\":10839:10852   */\n      mul\n        /* \"#utility.yul\":10810:10861   */\n      tag_101\n      jump\t// in\n    tag_230:\n        /* \"#utility.yul\":10806:10862   */\n      not\n        /* \"#utility.yul\":10891:10895   */\n      dup1\n        /* \"#utility.yul\":10885:10889   */\n      dup4\n        /* \"#utility.yul\":10881:10896   */\n      and\n        /* \"#utility.yul\":10871:10896   */\n      swap2\n      pop\n        /* \"#utility.yul\":10784:10902   */\n      pop\n        /* \"#utility.yul\":10733:10902   */\n      swap3\n      swap2\n      pop\n      pop\n      jump\t// out\n        /* \"#utility.yul\":10907:11202   */\n    tag_103:\n        /* \"#utility.yul\":10983:10987   */\n      0x00\n        /* \"#utility.yul\":11129:11158   */\n      tag_232\n        /* \"#utility.yul\":11154:11157   */\n      dup4\n        /* \"#utility.yul\":11148:11152   */\n      dup4\n        /* \"#utility.yul\":11129:11158   */\n      tag_102\n      jump\t// in\n    tag_232:\n        /* \"#utility.yul\":11121:11158   */\n      swap2\n      pop\n        /* \"#utility.yul\":11191:11194   */\n      dup3\n        /* \"#utility.yul\":11188:11189   */\n      0x02\n        /* \"#utility.yul\":11184:11195   */\n      mul\n        /* \"#utility.yul\":11178:11182   */\n      dup3\n        /* \"#utility.yul\":11175:11196   */\n      or\n        /* \"#utility.yul\":11167:11196   */\n      swap1\n      pop\n        /* \"#utility.yul\":10907:11202   */\n      swap3\n      swap2\n      pop\n      pop\n      jump\t// out\n        /* \"#utility.yul\":11207:12602   */\n    tag_60:\n        /* \"#utility.yul\":11324:11361   */\n      tag_234\n        /* \"#utility.yul\":11357:11360   */\n      dup3\n        /* \"#utility.yul\":11324:11361   */\n      tag_74\n      jump\t// in\n    tag_234:\n        /* \"#utility.yul\":11426:11444   */\n      0xffffffffffffffff\n        /* \"#utility.yul\":11418:11424   */\n      dup2\n        /* \"#utility.yul\":11415:11445   */\n      gt\n        /* \"#utility.yul\":11412:11468   */\n      iszero\n      tag_235\n      jumpi\n        /* \"#utility.yul\":11448:11466   */\n      tag_236\n      tag_24\n      jump\t// in\n    tag_236:\n        /* \"#utility.yul\":11412:11468   */\n    tag_235:\n        /* \"#utility.yul\":11492:11530   */\n      tag_237\n        /* \"#utility.yul\":11524:11528   */\n      dup3\n        /* \"#utility.yul\":11518:11529   */\n      sload\n        /* \"#utility.yul\":11492:11530   */\n      tag_30\n      jump\t// in\n    tag_237:\n        /* \"#utility.yul\":11577:11644   */\n      tag_238\n        /* \"#utility.yul\":11637:11643   */\n      dup3\n        /* \"#utility.yul\":11629:11635   */\n      dup3\n        /* \"#utility.yul\":11623:11627   */\n      dup6\n        /* \"#utility.yul\":11577:11644   */\n      tag_100\n      jump\t// in\n    tag_238:\n        /* \"#utility.yul\":11671:11672   */\n      0x00\n        /* \"#utility.yul\":11695:11699   */\n      0x20\n        /* \"#utility.yul\":11682:11699   */\n      swap1\n      pop\n        /* \"#utility.yul\":11727:11729   */\n      0x1f\n        /* \"#utility.yul\":11719:11725   */\n      dup4\n        /* \"#utility.yul\":11716:11730   */\n      gt\n        /* \"#utility.yul\":11744:11745   */\n      0x01\n        /* \"#utility.yul\":11739:12357   */\n      dup2\n      eq\n      tag_240\n      jumpi\n        /* \"#utility.yul\":12401:12402   */\n      0x00\n        /* \"#utility.yul\":12418:12424   */\n      dup5\n        /* \"#utility.yul\":12415:12492   */\n      iszero\n      tag_241\n      jumpi\n        /* \"#utility.yul\":12467:12476   */\n      dup3\n        /* \"#utility.yul\":12462:12465   */\n      dup8\n        /* \"#utility.yul\":12458:12477   */\n      add\n        /* \"#utility.yul\":12452:12478   */\n      mload\n        /* \"#utility.yul\":12443:12478   */\n      swap1\n      pop\n        /* \"#utility.yul\":12415:12492   */\n    tag_241:\n        /* \"#utility.yul\":12518:12585   */\n      tag_242\n        /* \"#utility.yul\":12578:12584   */\n      dup6\n        /* \"#utility.yul\":12571:12576   */\n      dup3\n        /* \"#utility.yul\":12518:12585   */\n      tag_103\n      jump\t// in\n    tag_242:\n        /* \"#utility.yul\":12512:12516   */\n      dup7\n        /* \"#utility.yul\":12505:12586   */\n      sstore\n        /* \"#utility.yul\":12374:12596   */\n      pop\n        /* \"#utility.yul\":11709:12596   */\n      jump(tag_239)\n        /* \"#utility.yul\":11739:12357   */\n    tag_240:\n        /* \"#utility.yul\":11791:11795   */\n      0x1f\n        /* \"#utility.yul\":11787:11796   */\n      not\n        /* \"#utility.yul\":11779:11785   */\n      dup5\n        /* \"#utility.yul\":11775:11797   */\n      and\n        /* \"#utility.yul\":11825:11862   */\n      tag_243\n        /* \"#utility.yul\":11857:11861   */\n      dup7\n        /* \"#utility.yul\":11825:11862   */\n      tag_89\n      jump\t// in\n    tag_243:\n        /* \"#utility.yul\":11884:11885   */\n      0x00\n        /* \"#utility.yul\":11898:12106   */\n    tag_244:\n        /* \"#utility.yul\":11912:11919   */\n      dup3\n        /* \"#utility.yul\":11909:11910   */\n      dup2\n        /* \"#utility.yul\":11906:11920   */\n      lt\n        /* \"#utility.yul\":11898:12106   */\n      iszero\n      tag_246\n      jumpi\n        /* \"#utility.yul\":11991:12000   */\n      dup5\n        /* \"#utility.yul\":11986:11989   */\n      dup10\n        /* \"#utility.yul\":11982:12001   */\n      add\n        /* \"#utility.yul\":11976:12002   */\n      mload\n        /* \"#utility.yul\":11968:11974   */\n      dup3\n        /* \"#utility.yul\":11961:12003   */\n      sstore\n        /* \"#utility.yul\":12042:12043   */\n      0x01\n        /* \"#utility.yul\":12034:12040   */\n      dup3\n        /* \"#utility.yul\":12030:12044   */\n      add\n        /* \"#utility.yul\":12020:12044   */\n      swap2\n      pop\n        /* \"#utility.yul\":12089:12091   */\n      0x20\n        /* \"#utility.yul\":12078:12087   */\n      dup6\n        /* \"#utility.yul\":12074:12092   */\n      add\n        /* \"#utility.yul\":12061:12092   */\n      swap5\n      pop\n        /* \"#utility.yul\":11935:11939   */\n      0x20\n        /* \"#utility.yul\":11932:11933   */\n      dup2\n        /* \"#utility.yul\":11928:11940   */\n      add\n        /* \"#utility.yul\":11923:11940   */\n      swap1\n      pop\n        /* \"#utility.yul\":11898:12106   */\n      jump(tag_244)\n    tag_246:\n        /* \"#utility.yul\":12134:12140   */\n      dup7\n        /* \"#utility.yul\":12125:12132   */\n      dup4\n        /* \"#utility.yul\":12122:12141   */\n      lt\n        /* \"#utility.yul\":12119:12298   */\n      iszero\n      tag_247\n      jumpi\n        /* \"#utility.yul\":12192:12201   */\n      dup5\n        /* \"#utility.yul\":12187:12190   */\n      dup10\n        /* \"#utility.yul\":12183:12202   */\n      add\n        /* \"#utility.yul\":12177:12203   */\n      mload\n        /* \"#utility.yul\":12235:12283   */\n      tag_248\n        /* \"#utility.yul\":12277:12281   */\n      0x1f\n        /* \"#utility.yul\":12269:12275   */\n      dup10\n        /* \"#utility.yul\":12265:12282   */\n      and\n        /* \"#utility.yul\":12254:12263   */\n      dup3\n        /* \"#utility.yul\":12235:12283   */\n      tag_102\n      jump\t// in\n    tag_248:\n        /* \"#utility.yul\":12227:12233   */\n      dup4\n        /* \"#utility.yul\":12220:12284   */\n      sstore\n        /* \"#utility.yul\":12142:12298   */\n      pop\n        /* \"#utility.yul\":12119:12298   */\n    tag_247:\n        /* \"#utility.yul\":12344:12345   */\n      0x01\n        /* \"#utility.yul\":12340:12341   */\n      0x02\n        /* \"#utility.yul\":12332:12338   */\n      dup9\n        /* \"#utility.yul\":12328:12342   */\n      mul\n        /* \"#utility.yul\":12324:12346   */\n      add\n        /* \"#utility.yul\":12318:12322   */\n      dup9\n        /* \"#utility.yul\":12311:12347   */\n      sstore\n        /* \"#utility.yul\":11746:12357   */\n      pop\n      pop\n      pop\n        /* \"#utility.yul\":11709:12596   */\n    tag_239:\n      pop\n        /* \"#utility.yul\":11299:12602   */\n      pop\n      pop\n      pop\n        /* \"#utility.yul\":11207:12602   */\n      pop\n      pop\n      jump\t// out\n\n    auxdata: 0xa2646970667358221220a3b2e7fc7765f209f423d33cc47fda03cfa0b744d6f538ee66df8c4d9e1ef7ea64736f6c63430008110033\n}\n",
				"bytecode": {
					"linkReferences": {},
					"object": "608060405234801561001057600080fd5b50610cf4806100206000396000f3fe608060405234801561001057600080fd5b50600436106100415760003560e01c80632e7700f0146100465780636386c1c7146100645780638872193114610097575b600080fd5b61004e6100b3565b60405161005b9190610599565b60405180910390f35b61007e60048036038101906100799190610626565b6100bc565b60405161008e9493929190610704565b60405180910390f35b6100b160048036038101906100ac9190610893565b610421565b005b60008054905090565b600060608060606000600167ffffffffffffffff8111156100e0576100df610768565b5b60405190808252806020026020018201604052801561011957816020015b610106610542565b8152602001906001900390816100fe5790505b509050600160008773ffffffffffffffffffffffffffffffffffffffff1673ffffffffffffffffffffffffffffffffffffffff1681526020019081526020016000206040518060800160405290816000820160009054906101000a900473ffffffffffffffffffffffffffffffffffffffff1673ffffffffffffffffffffffffffffffffffffffff1673ffffffffffffffffffffffffffffffffffffffff1681526020016001820180546101cc9061097d565b80601f01602080910402602001604051908101604052809291908181526020018280546101f89061097d565b80156102455780601f1061021a57610100808354040283529160200191610245565b820191906000526020600020905b81548152906001019060200180831161022857829003601f168201915b5050505050815260200160028201805461025e9061097d565b80601f016020809104026020016040519081016040528092919081815260200182805461028a9061097d565b80156102d75780601f106102ac576101008083540402835291602001916102d7565b820191906000526020600020905b8154815290600101906020018083116102ba57829003601f168201915b505050505081526020016003820180546102f09061097d565b80601f016020809104026020016040519081016040528092919081815260200182805461031c9061097d565b80156103695780601f1061033e57610100808354040283529160200191610369565b820191906000526020600020905b81548152906001019060200180831161034c57829003601f168201915b50505050508152505081600081518110610386576103856109ae565b5b6020026020010181905250806000815181106103a5576103a46109ae565b5b6020026020010151600001519450806000815181106103c7576103c66109ae565b5b6020026020010151602001519350806000815181106103e9576103e86109ae565b5b60200260200101516040015192508060008151811061040b5761040a6109ae565b5b6020026020010151606001519150509193509193565b60016000808282546104339190610a0c565b9250508190555060405180608001604052808573ffffffffffffffffffffffffffffffffffffffff16815260200184815260200183815260200182815250600160008673ffffffffffffffffffffffffffffffffffffffff1673ffffffffffffffffffffffffffffffffffffffff16815260200190815260200160002060008201518160000160006101000a81548173ffffffffffffffffffffffffffffffffffffffff021916908373ffffffffffffffffffffffffffffffffffffffff160217905550602082015181600101908161050c9190610bec565b5060408201518160020190816105229190610bec565b5060608201518160030190816105389190610bec565b5090505050505050565b6040518060800160405280600073ffffffffffffffffffffffffffffffffffffffff1681526020016060815260200160608152602001606081525090565b6000819050919050565b61059381610580565b82525050565b60006020820190506105ae600083018461058a565b92915050565b6000604051905090565b600080fd5b600080fd5b600073ffffffffffffffffffffffffffffffffffffffff82169050919050565b60006105f3826105c8565b9050919050565b610603816105e8565b811461060e57600080fd5b50565b600081359050610620816105fa565b92915050565b60006020828403121561063c5761063b6105be565b5b600061064a84828501610611565b91505092915050565b600061065e826105c8565b9050919050565b61066e81610653565b82525050565b600081519050919050565b600082825260208201905092915050565b60005b838110156106ae578082015181840152602081019050610693565b60008484015250505050565b6000601f19601f8301169050919050565b60006106d682610674565b6106e0818561067f565b93506106f0818560208601610690565b6106f9816106ba565b840191505092915050565b60006080820190506107196000830187610665565b818103602083015261072b81866106cb565b9050818103604083015261073f81856106cb565b9050818103606083015261075381846106cb565b905095945050505050565b600080fd5b600080fd5b7f4e487b7100000000000000000000000000000000000000000000000000000000600052604160045260246000fd5b6107a0826106ba565b810181811067ffffffffffffffff821117156107bf576107be610768565b5b80604052505050565b60006107d26105b4565b90506107de8282610797565b919050565b600067ffffffffffffffff8211156107fe576107fd610768565b5b610807826106ba565b9050602081019050919050565b82818337600083830152505050565b6000610836610831846107e3565b6107c8565b90508281526020810184848401111561085257610851610763565b5b61085d848285610814565b509392505050565b600082601f83011261087a5761087961075e565b5b813561088a848260208601610823565b91505092915050565b600080600080608085870312156108ad576108ac6105be565b5b60006108bb87828801610611565b945050602085013567ffffffffffffffff8111156108dc576108db6105c3565b5b6108e887828801610865565b935050604085013567ffffffffffffffff811115610909576109086105c3565b5b61091587828801610865565b925050606085013567ffffffffffffffff811115610936576109356105c3565b5b61094287828801610865565b91505092959194509250565b7f4e487b7100000000000000000000000000000000000000000000000000000000600052602260045260246000fd5b6000600282049050600182168061099557607f821691505b6020821081036109a8576109a761094e565b5b50919050565b7f4e487b7100000000000000000000000000000000000000000000000000000000600052603260045260246000fd5b7f4e487b7100000000000000000000000000000000000000000000000000000000600052601160045260246000fd5b6000610a1782610580565b9150610a2283610580565b9250828201905080821115610a3a57610a396109dd565b5b92915050565b60008190508160005260206000209050919050565b60006020601f8301049050919050565b600082821b905092915050565b600060088302610aa27fffffffffffffffffffffffffffffffffffffffffffffffffffffffffffffffff82610a65565b610aac8683610a65565b95508019841693508086168417925050509392505050565b6000819050919050565b6000610ae9610ae4610adf84610580565b610ac4565b610580565b9050919050565b6000819050919050565b610b0383610ace565b610b17610b0f82610af0565b848454610a72565b825550505050565b600090565b610b2c610b1f565b610b37818484610afa565b505050565b5b81811015610b5b57610b50600082610b24565b600181019050610b3d565b5050565b601f821115610ba057610b7181610a40565b610b7a84610a55565b81016020851015610b89578190505b610b9d610b9585610a55565b830182610b3c565b50505b505050565b600082821c905092915050565b6000610bc360001984600802610ba5565b1980831691505092915050565b6000610bdc8383610bb2565b9150826002028217905092915050565b610bf582610674565b67ffffffffffffffff811115610c0e57610c0d610768565b5b610c18825461097d565b610c23828285610b5f565b600060209050601f831160018114610c565760008415610c44578287015190505b610c4e8582610bd0565b865550610cb6565b601f198416610c6486610a40565b60005b82811015610c8c57848901518255600182019150602085019450602081019050610c67565b86831015610ca95784890151610ca5601f891682610bb2565b8355505b6001600288020188555050505b50505050505056fea2646970667358221220a3b2e7fc7765f209f423d33cc47fda03cfa0b744d6f538ee66df8c4d9e1ef7ea64736f6c63430008110033",
					"opcodes": "PUSH1 0x80 PUSH1 0x40 MSTORE CALLVALUE DUP1 ISZERO PUSH2 0x10 JUMPI PUSH1 0x0 DUP1 REVERT JUMPDEST POP PUSH2 0xCF4 DUP1 PUSH2 0x20 PUSH1 0x0 CODECOPY PUSH1 0x0 RETURN INVALID PUSH1 0x80 PUSH1 0x40 MSTORE CALLVALUE DUP1 ISZERO PUSH2 0x10 JUMPI PUSH1 0x0 DUP1 REVERT JUMPDEST POP PUSH1 0x4 CALLDATASIZE LT PUSH2 0x41 JUMPI PUSH1 0x0 CALLDATALOAD PUSH1 0xE0 SHR DUP1 PUSH4 0x2E7700F0 EQ PUSH2 0x46 JUMPI DUP1 PUSH4 0x6386C1C7 EQ PUSH2 0x64 JUMPI DUP1 PUSH4 0x88721931 EQ PUSH2 0x97 JUMPI JUMPDEST PUSH1 0x0 DUP1 REVERT JUMPDEST PUSH2 0x4E PUSH2 0xB3 JUMP JUMPDEST PUSH1 0x40 MLOAD PUSH2 0x5B SWAP2 SWAP1 PUSH2 0x599 JUMP JUMPDEST PUSH1 0x40 MLOAD DUP1 SWAP2 SUB SWAP1 RETURN JUMPDEST PUSH2 0x7E PUSH1 0x4 DUP1 CALLDATASIZE SUB DUP2 ADD SWAP1 PUSH2 0x79 SWAP2 SWAP1 PUSH2 0x626 JUMP JUMPDEST PUSH2 0xBC JUMP JUMPDEST PUSH1 0x40 MLOAD PUSH2 0x8E SWAP5 SWAP4 SWAP3 SWAP2 SWAP1 PUSH2 0x704 JUMP JUMPDEST PUSH1 0x40 MLOAD DUP1 SWAP2 SUB SWAP1 RETURN JUMPDEST PUSH2 0xB1 PUSH1 0x4 DUP1 CALLDATASIZE SUB DUP2 ADD SWAP1 PUSH2 0xAC SWAP2 SWAP1 PUSH2 0x893 JUMP JUMPDEST PUSH2 0x421 JUMP JUMPDEST STOP JUMPDEST PUSH1 0x0 DUP1 SLOAD SWAP1 POP SWAP1 JUMP JUMPDEST PUSH1 0x0 PUSH1 0x60 DUP1 PUSH1 0x60 PUSH1 0x0 PUSH1 0x1 PUSH8 0xFFFFFFFFFFFFFFFF DUP2 GT ISZERO PUSH2 0xE0 JUMPI PUSH2 0xDF PUSH2 0x768 JUMP JUMPDEST JUMPDEST PUSH1 0x40 MLOAD SWAP1 DUP1 DUP3 MSTORE DUP1 PUSH1 0x20 MUL PUSH1 0x20 ADD DUP3 ADD PUSH1 0x40 MSTORE DUP1 ISZERO PUSH2 0x119 JUMPI DUP2 PUSH1 0x20 ADD JUMPDEST PUSH2 0x106 PUSH2 0x542 JUMP JUMPDEST DUP2 MSTORE PUSH1 0x20 ADD SWAP1 PUSH1 0x1 SWAP1 SUB SWAP1 DUP2 PUSH2 0xFE JUMPI SWAP1 POP JUMPDEST POP SWAP1 POP PUSH1 0x1 PUSH1 0x0 DUP8 PUSH20 0xFFFFFFFFFFFFFFFFFFFFFFFFFFFFFFFFFFFFFFFF AND PUSH20 0xFFFFFFFFFFFFFFFFFFFFFFFFFFFFFFFFFFFFFFFF AND DUP2 MSTORE PUSH1 0x20 ADD SWAP1 DUP2 MSTORE PUSH1 0x20 ADD PUSH1 0x0 KECCAK256 PUSH1 0x40 MLOAD DUP1 PUSH1 0x80 ADD PUSH1 0x40 MSTORE SWAP1 DUP2 PUSH1 0x0 DUP3 ADD PUSH1 0x0 SWAP1 SLOAD SWAP1 PUSH2 0x100 EXP SWAP1 DIV PUSH20 0xFFFFFFFFFFFFFFFFFFFFFFFFFFFFFFFFFFFFFFFF AND PUSH20 0xFFFFFFFFFFFFFFFFFFFFFFFFFFFFFFFFFFFFFFFF AND PUSH20 0xFFFFFFFFFFFFFFFFFFFFFFFFFFFFFFFFFFFFFFFF AND DUP2 MSTORE PUSH1 0x20 ADD PUSH1 0x1 DUP3 ADD DUP1 SLOAD PUSH2 0x1CC SWAP1 PUSH2 0x97D JUMP JUMPDEST DUP1 PUSH1 0x1F ADD PUSH1 0x20 DUP1 SWAP2 DIV MUL PUSH1 0x20 ADD PUSH1 0x40 MLOAD SWAP1 DUP2 ADD PUSH1 0x40 MSTORE DUP1 SWAP3 SWAP2 SWAP1 DUP2 DUP2 MSTORE PUSH1 0x20 ADD DUP3 DUP1 SLOAD PUSH2 0x1F8 SWAP1 PUSH2 0x97D JUMP JUMPDEST DUP1 ISZERO PUSH2 0x245 JUMPI DUP1 PUSH1 0x1F LT PUSH2 0x21A JUMPI PUSH2 0x100 DUP1 DUP4 SLOAD DIV MUL DUP4 MSTORE SWAP2 PUSH1 0x20 ADD SWAP2 PUSH2 0x245 JUMP JUMPDEST DUP3 ADD SWAP2 SWAP1 PUSH1 0x0 MSTORE PUSH1 0x20 PUSH1 0x0 KECCAK256 SWAP1 JUMPDEST DUP2 SLOAD DUP2 MSTORE SWAP1 PUSH1 0x1 ADD SWAP1 PUSH1 0x20 ADD DUP1 DUP4 GT PUSH2 0x228 JUMPI DUP3 SWAP1 SUB PUSH1 0x1F AND DUP3 ADD SWAP2 JUMPDEST POP POP POP POP POP DUP2 MSTORE PUSH1 0x20 ADD PUSH1 0x2 DUP3 ADD DUP1 SLOAD PUSH2 0x25E SWAP1 PUSH2 0x97D JUMP JUMPDEST DUP1 PUSH1 0x1F ADD PUSH1 0x20 DUP1 SWAP2 DIV MUL PUSH1 0x20 ADD PUSH1 0x40 MLOAD SWAP1 DUP2 ADD PUSH1 0x40 MSTORE DUP1 SWAP3 SWAP2 SWAP1 DUP2 DUP2 MSTORE PUSH1 0x20 ADD DUP3 DUP1 SLOAD PUSH2 0x28A SWAP1 PUSH2 0x97D JUMP JUMPDEST DUP1 ISZERO PUSH2 0x2D7 JUMPI DUP1 PUSH1 0x1F LT PUSH2 0x2AC JUMPI PUSH2 0x100 DUP1 DUP4 SLOAD DIV MUL DUP4 MSTORE SWAP2 PUSH1 0x20 ADD SWAP2 PUSH2 0x2D7 JUMP JUMPDEST DUP3 ADD SWAP2 SWAP1 PUSH1 0x0 MSTORE PUSH1 0x20 PUSH1 0x0 KECCAK256 SWAP1 JUMPDEST DUP2 SLOAD DUP2 MSTORE SWAP1 PUSH1 0x1 ADD SWAP1 PUSH1 0x20 ADD DUP1 DUP4 GT PUSH2 0x2BA JUMPI DUP3 SWAP1 SUB PUSH1 0x1F AND DUP3 ADD SWAP2 JUMPDEST POP POP POP POP POP DUP2 MSTORE PUSH1 0x20 ADD PUSH1 0x3 DUP3 ADD DUP1 SLOAD PUSH2 0x2F0 SWAP1 PUSH2 0x97D JUMP JUMPDEST DUP1 PUSH1 0x1F ADD PUSH1 0x20 DUP1 SWAP2 DIV MUL PUSH1 0x20 ADD PUSH1 0x40 MLOAD SWAP1 DUP2 ADD PUSH1 0x40 MSTORE DUP1 SWAP3 SWAP2 SWAP1 DUP2 DUP2 MSTORE PUSH1 0x20 ADD DUP3 DUP1 SLOAD PUSH2 0x31C SWAP1 PUSH2 0x97D JUMP JUMPDEST DUP1 ISZERO PUSH2 0x369 JUMPI DUP1 PUSH1 0x1F LT PUSH2 0x33E JUMPI PUSH2 0x100 DUP1 DUP4 SLOAD DIV MUL DUP4 MSTORE SWAP2 PUSH1 0x20 ADD SWAP2 PUSH2 0x369 JUMP JUMPDEST DUP3 ADD SWAP2 SWAP1 PUSH1 0x0 MSTORE PUSH1 0x20 PUSH1 0x0 KECCAK256 SWAP1 JUMPDEST DUP2 SLOAD DUP2 MSTORE SWAP1 PUSH1 0x1 ADD SWAP1 PUSH1 0x20 ADD DUP1 DUP4 GT PUSH2 0x34C JUMPI DUP3 SWAP1 SUB PUSH1 0x1F AND DUP3 ADD SWAP2 JUMPDEST POP POP POP POP POP DUP2 MSTORE POP POP DUP2 PUSH1 0x0 DUP2 MLOAD DUP2 LT PUSH2 0x386 JUMPI PUSH2 0x385 PUSH2 0x9AE JUMP JUMPDEST JUMPDEST PUSH1 0x20 MUL PUSH1 0x20 ADD ADD DUP2 SWAP1 MSTORE POP DUP1 PUSH1 0x0 DUP2 MLOAD DUP2 LT PUSH2 0x3A5 JUMPI PUSH2 0x3A4 PUSH2 0x9AE JUMP JUMPDEST JUMPDEST PUSH1 0x20 MUL PUSH1 0x20 ADD ADD MLOAD PUSH1 0x0 ADD MLOAD SWAP5 POP DUP1 PUSH1 0x0 DUP2 MLOAD DUP2 LT PUSH2 0x3C7 JUMPI PUSH2 0x3C6 PUSH2 0x9AE JUMP JUMPDEST JUMPDEST PUSH1 0x20 MUL PUSH1 0x20 ADD ADD MLOAD PUSH1 0x20 ADD MLOAD SWAP4 POP DUP1 PUSH1 0x0 DUP2 MLOAD DUP2 LT PUSH2 0x3E9 JUMPI PUSH2 0x3E8 PUSH2 0x9AE JUMP JUMPDEST JUMPDEST PUSH1 0x20 MUL PUSH1 0x20 ADD ADD MLOAD PUSH1 0x40 ADD MLOAD SWAP3 POP DUP1 PUSH1 0x0 DUP2 MLOAD DUP2 LT PUSH2 0x40B JUMPI PUSH2 0x40A PUSH2 0x9AE JUMP JUMPDEST JUMPDEST PUSH1 0x20 MUL PUSH1 0x20 ADD ADD MLOAD PUSH1 0x60 ADD MLOAD SWAP2 POP POP SWAP2 SWAP4 POP SWAP2 SWAP4 JUMP JUMPDEST PUSH1 0x1 PUSH1 0x0 DUP1 DUP3 DUP3 SLOAD PUSH2 0x433 SWAP2 SWAP1 PUSH2 0xA0C JUMP JUMPDEST SWAP3 POP POP DUP2 SWAP1 SSTORE POP PUSH1 0x40 MLOAD DUP1 PUSH1 0x80 ADD PUSH1 0x40 MSTORE DUP1 DUP6 PUSH20 0xFFFFFFFFFFFFFFFFFFFFFFFFFFFFFFFFFFFFFFFF AND DUP2 MSTORE PUSH1 0x20 ADD DUP5 DUP2 MSTORE PUSH1 0x20 ADD DUP4 DUP2 MSTORE PUSH1 0x20 ADD DUP3 DUP2 MSTORE POP PUSH1 0x1 PUSH1 0x0 DUP7 PUSH20 0xFFFFFFFFFFFFFFFFFFFFFFFFFFFFFFFFFFFFFFFF AND PUSH20 0xFFFFFFFFFFFFFFFFFFFFFFFFFFFFFFFFFFFFFFFF AND DUP2 MSTORE PUSH1 0x20 ADD SWAP1 DUP2 MSTORE PUSH1 0x20 ADD PUSH1 0x0 KECCAK256 PUSH1 0x0 DUP3 ADD MLOAD DUP2 PUSH1 0x0 ADD PUSH1 0x0 PUSH2 0x100 EXP DUP2 SLOAD DUP2 PUSH20 0xFFFFFFFFFFFFFFFFFFFFFFFFFFFFFFFFFFFFFFFF MUL NOT AND SWAP1 DUP4 PUSH20 0xFFFFFFFFFFFFFFFFFFFFFFFFFFFFFFFFFFFFFFFF AND MUL OR SWAP1 SSTORE POP PUSH1 0x20 DUP3 ADD MLOAD DUP2 PUSH1 0x1 ADD SWAP1 DUP2 PUSH2 0x50C SWAP2 SWAP1 PUSH2 0xBEC JUMP JUMPDEST POP PUSH1 0x40 DUP3 ADD MLOAD DUP2 PUSH1 0x2 ADD SWAP1 DUP2 PUSH2 0x522 SWAP2 SWAP1 PUSH2 0xBEC JUMP JUMPDEST POP PUSH1 0x60 DUP3 ADD MLOAD DUP2 PUSH1 0x3 ADD SWAP1 DUP2 PUSH2 0x538 SWAP2 SWAP1 PUSH2 0xBEC JUMP JUMPDEST POP SWAP1 POP POP POP POP POP POP JUMP JUMPDEST PUSH1 0x40 MLOAD DUP1 PUSH1 0x80 ADD PUSH1 0x40 MSTORE DUP1 PUSH1 0x0 PUSH20 0xFFFFFFFFFFFFFFFFFFFFFFFFFFFFFFFFFFFFFFFF AND DUP2 MSTORE PUSH1 0x20 ADD PUSH1 0x60 DUP2 MSTORE PUSH1 0x20 ADD PUSH1 0x60 DUP2 MSTORE PUSH1 0x20 ADD PUSH1 0x60 DUP2 MSTORE POP SWAP1 JUMP JUMPDEST PUSH1 0x0 DUP2 SWAP1 POP SWAP2 SWAP1 POP JUMP JUMPDEST PUSH2 0x593 DUP2 PUSH2 0x580 JUMP JUMPDEST DUP3 MSTORE POP POP JUMP JUMPDEST PUSH1 0x0 PUSH1 0x20 DUP3 ADD SWAP1 POP PUSH2 0x5AE PUSH1 0x0 DUP4 ADD DUP5 PUSH2 0x58A JUMP JUMPDEST SWAP3 SWAP2 POP POP JUMP JUMPDEST PUSH1 0x0 PUSH1 0x40 MLOAD SWAP1 POP SWAP1 JUMP JUMPDEST PUSH1 0x0 DUP1 REVERT JUMPDEST PUSH1 0x0 DUP1 REVERT JUMPDEST PUSH1 0x0 PUSH20 0xFFFFFFFFFFFFFFFFFFFFFFFFFFFFFFFFFFFFFFFF DUP3 AND SWAP1 POP SWAP2 SWAP1 POP JUMP JUMPDEST PUSH1 0x0 PUSH2 0x5F3 DUP3 PUSH2 0x5C8 JUMP JUMPDEST SWAP1 POP SWAP2 SWAP1 POP JUMP JUMPDEST PUSH2 0x603 DUP2 PUSH2 0x5E8 JUMP JUMPDEST DUP2 EQ PUSH2 0x60E JUMPI PUSH1 0x0 DUP1 REVERT JUMPDEST POP JUMP JUMPDEST PUSH1 0x0 DUP2 CALLDATALOAD SWAP1 POP PUSH2 0x620 DUP2 PUSH2 0x5FA JUMP JUMPDEST SWAP3 SWAP2 POP POP JUMP JUMPDEST PUSH1 0x0 PUSH1 0x20 DUP3 DUP5 SUB SLT ISZERO PUSH2 0x63C JUMPI PUSH2 0x63B PUSH2 0x5BE JUMP JUMPDEST JUMPDEST PUSH1 0x0 PUSH2 0x64A DUP5 DUP3 DUP6 ADD PUSH2 0x611 JUMP JUMPDEST SWAP2 POP POP SWAP3 SWAP2 POP POP JUMP JUMPDEST PUSH1 0x0 PUSH2 0x65E DUP3 PUSH2 0x5C8 JUMP JUMPDEST SWAP1 POP SWAP2 SWAP1 POP JUMP JUMPDEST PUSH2 0x66E DUP2 PUSH2 0x653 JUMP JUMPDEST DUP3 MSTORE POP POP JUMP JUMPDEST PUSH1 0x0 DUP2 MLOAD SWAP1 POP SWAP2 SWAP1 POP JUMP JUMPDEST PUSH1 0x0 DUP3 DUP3 MSTORE PUSH1 0x20 DUP3 ADD SWAP1 POP SWAP3 SWAP2 POP POP JUMP JUMPDEST PUSH1 0x0 JUMPDEST DUP4 DUP2 LT ISZERO PUSH2 0x6AE JUMPI DUP1 DUP3 ADD MLOAD DUP2 DUP5 ADD MSTORE PUSH1 0x20 DUP2 ADD SWAP1 POP PUSH2 0x693 JUMP JUMPDEST PUSH1 0x0 DUP5 DUP5 ADD MSTORE POP POP POP POP JUMP JUMPDEST PUSH1 0x0 PUSH1 0x1F NOT PUSH1 0x1F DUP4 ADD AND SWAP1 POP SWAP2 SWAP1 POP JUMP JUMPDEST PUSH1 0x0 PUSH2 0x6D6 DUP3 PUSH2 0x674 JUMP JUMPDEST PUSH2 0x6E0 DUP2 DUP6 PUSH2 0x67F JUMP JUMPDEST SWAP4 POP PUSH2 0x6F0 DUP2 DUP6 PUSH1 0x20 DUP7 ADD PUSH2 0x690 JUMP JUMPDEST PUSH2 0x6F9 DUP2 PUSH2 0x6BA JUMP JUMPDEST DUP5 ADD SWAP2 POP POP SWAP3 SWAP2 POP POP JUMP JUMPDEST PUSH1 0x0 PUSH1 0x80 DUP3 ADD SWAP1 POP PUSH2 0x719 PUSH1 0x0 DUP4 ADD DUP8 PUSH2 0x665 JUMP JUMPDEST DUP2 DUP2 SUB PUSH1 0x20 DUP4 ADD MSTORE PUSH2 0x72B DUP2 DUP7 PUSH2 0x6CB JUMP JUMPDEST SWAP1 POP DUP2 DUP2 SUB PUSH1 0x40 DUP4 ADD MSTORE PUSH2 0x73F DUP2 DUP6 PUSH2 0x6CB JUMP JUMPDEST SWAP1 POP DUP2 DUP2 SUB PUSH1 0x60 DUP4 ADD MSTORE PUSH2 0x753 DUP2 DUP5 PUSH2 0x6CB JUMP JUMPDEST SWAP1 POP SWAP6 SWAP5 POP POP POP POP POP JUMP JUMPDEST PUSH1 0x0 DUP1 REVERT JUMPDEST PUSH1 0x0 DUP1 REVERT JUMPDEST PUSH32 0x4E487B7100000000000000000000000000000000000000000000000000000000 PUSH1 0x0 MSTORE PUSH1 0x41 PUSH1 0x4 MSTORE PUSH1 0x24 PUSH1 0x0 REVERT JUMPDEST PUSH2 0x7A0 DUP3 PUSH2 0x6BA JUMP JUMPDEST DUP2 ADD DUP2 DUP2 LT PUSH8 0xFFFFFFFFFFFFFFFF DUP3 GT OR ISZERO PUSH2 0x7BF JUMPI PUSH2 0x7BE PUSH2 0x768 JUMP JUMPDEST JUMPDEST DUP1 PUSH1 0x40 MSTORE POP POP POP JUMP JUMPDEST PUSH1 0x0 PUSH2 0x7D2 PUSH2 0x5B4 JUMP JUMPDEST SWAP1 POP PUSH2 0x7DE DUP3 DUP3 PUSH2 0x797 JUMP JUMPDEST SWAP2 SWAP1 POP JUMP JUMPDEST PUSH1 0x0 PUSH8 0xFFFFFFFFFFFFFFFF DUP3 GT ISZERO PUSH2 0x7FE JUMPI PUSH2 0x7FD PUSH2 0x768 JUMP JUMPDEST JUMPDEST PUSH2 0x807 DUP3 PUSH2 0x6BA JUMP JUMPDEST SWAP1 POP PUSH1 0x20 DUP2 ADD SWAP1 POP SWAP2 SWAP1 POP JUMP JUMPDEST DUP3 DUP2 DUP4 CALLDATACOPY PUSH1 0x0 DUP4 DUP4 ADD MSTORE POP POP POP JUMP JUMPDEST PUSH1 0x0 PUSH2 0x836 PUSH2 0x831 DUP5 PUSH2 0x7E3 JUMP JUMPDEST PUSH2 0x7C8 JUMP JUMPDEST SWAP1 POP DUP3 DUP2 MSTORE PUSH1 0x20 DUP2 ADD DUP5 DUP5 DUP5 ADD GT ISZERO PUSH2 0x852 JUMPI PUSH2 0x851 PUSH2 0x763 JUMP JUMPDEST JUMPDEST PUSH2 0x85D DUP5 DUP3 DUP6 PUSH2 0x814 JUMP JUMPDEST POP SWAP4 SWAP3 POP POP POP JUMP JUMPDEST PUSH1 0x0 DUP3 PUSH1 0x1F DUP4 ADD SLT PUSH2 0x87A JUMPI PUSH2 0x879 PUSH2 0x75E JUMP JUMPDEST JUMPDEST DUP2 CALLDATALOAD PUSH2 0x88A DUP5 DUP3 PUSH1 0x20 DUP7 ADD PUSH2 0x823 JUMP JUMPDEST SWAP2 POP POP SWAP3 SWAP2 POP POP JUMP JUMPDEST PUSH1 0x0 DUP1 PUSH1 0x0 DUP1 PUSH1 0x80 DUP6 DUP8 SUB SLT ISZERO PUSH2 0x8AD JUMPI PUSH2 0x8AC PUSH2 0x5BE JUMP JUMPDEST JUMPDEST PUSH1 0x0 PUSH2 0x8BB DUP8 DUP3 DUP9 ADD PUSH2 0x611 JUMP JUMPDEST SWAP5 POP POP PUSH1 0x20 DUP6 ADD CALLDATALOAD PUSH8 0xFFFFFFFFFFFFFFFF DUP2 GT ISZERO PUSH2 0x8DC JUMPI PUSH2 0x8DB PUSH2 0x5C3 JUMP JUMPDEST JUMPDEST PUSH2 0x8E8 DUP8 DUP3 DUP9 ADD PUSH2 0x865 JUMP JUMPDEST SWAP4 POP POP PUSH1 0x40 DUP6 ADD CALLDATALOAD PUSH8 0xFFFFFFFFFFFFFFFF DUP2 GT ISZERO PUSH2 0x909 JUMPI PUSH2 0x908 PUSH2 0x5C3 JUMP JUMPDEST JUMPDEST PUSH2 0x915 DUP8 DUP3 DUP9 ADD PUSH2 0x865 JUMP JUMPDEST SWAP3 POP POP PUSH1 0x60 DUP6 ADD CALLDATALOAD PUSH8 0xFFFFFFFFFFFFFFFF DUP2 GT ISZERO PUSH2 0x936 JUMPI PUSH2 0x935 PUSH2 0x5C3 JUMP JUMPDEST JUMPDEST PUSH2 0x942 DUP8 DUP3 DUP9 ADD PUSH2 0x865 JUMP JUMPDEST SWAP2 POP POP SWAP3 SWAP6 SWAP2 SWAP5 POP SWAP3 POP JUMP JUMPDEST PUSH32 0x4E487B7100000000000000000000000000000000000000000000000000000000 PUSH1 0x0 MSTORE PUSH1 0x22 PUSH1 0x4 MSTORE PUSH1 0x24 PUSH1 0x0 REVERT JUMPDEST PUSH1 0x0 PUSH1 0x2 DUP3 DIV SWAP1 POP PUSH1 0x1 DUP3 AND DUP1 PUSH2 0x995 JUMPI PUSH1 0x7F DUP3 AND SWAP2 POP JUMPDEST PUSH1 0x20 DUP3 LT DUP2 SUB PUSH2 0x9A8 JUMPI PUSH2 0x9A7 PUSH2 0x94E JUMP JUMPDEST JUMPDEST POP SWAP2 SWAP1 POP JUMP JUMPDEST PUSH32 0x4E487B7100000000000000000000000000000000000000000000000000000000 PUSH1 0x0 MSTORE PUSH1 0x32 PUSH1 0x4 MSTORE PUSH1 0x24 PUSH1 0x0 REVERT JUMPDEST PUSH32 0x4E487B7100000000000000000000000000000000000000000000000000000000 PUSH1 0x0 MSTORE PUSH1 0x11 PUSH1 0x4 MSTORE PUSH1 0x24 PUSH1 0x0 REVERT JUMPDEST PUSH1 0x0 PUSH2 0xA17 DUP3 PUSH2 0x580 JUMP JUMPDEST SWAP2 POP PUSH2 0xA22 DUP4 PUSH2 0x580 JUMP JUMPDEST SWAP3 POP DUP3 DUP3 ADD SWAP1 POP DUP1 DUP3 GT ISZERO PUSH2 0xA3A JUMPI PUSH2 0xA39 PUSH2 0x9DD JUMP JUMPDEST JUMPDEST SWAP3 SWAP2 POP POP JUMP JUMPDEST PUSH1 0x0 DUP2 SWAP1 POP DUP2 PUSH1 0x0 MSTORE PUSH1 0x20 PUSH1 0x0 KECCAK256 SWAP1 POP SWAP2 SWAP1 POP JUMP JUMPDEST PUSH1 0x0 PUSH1 0x20 PUSH1 0x1F DUP4 ADD DIV SWAP1 POP SWAP2 SWAP1 POP JUMP JUMPDEST PUSH1 0x0 DUP3 DUP3 SHL SWAP1 POP SWAP3 SWAP2 POP POP JUMP JUMPDEST PUSH1 0x0 PUSH1 0x8 DUP4 MUL PUSH2 0xAA2 PUSH32 0xFFFFFFFFFFFFFFFFFFFFFFFFFFFFFFFFFFFFFFFFFFFFFFFFFFFFFFFFFFFFFFFF DUP3 PUSH2 0xA65 JUMP JUMPDEST PUSH2 0xAAC DUP7 DUP4 PUSH2 0xA65 JUMP JUMPDEST SWAP6 POP DUP1 NOT DUP5 AND SWAP4 POP DUP1 DUP7 AND DUP5 OR SWAP3 POP POP POP SWAP4 SWAP3 POP POP POP JUMP JUMPDEST PUSH1 0x0 DUP2 SWAP1 POP SWAP2 SWAP1 POP JUMP JUMPDEST PUSH1 0x0 PUSH2 0xAE9 PUSH2 0xAE4 PUSH2 0xADF DUP5 PUSH2 0x580 JUMP JUMPDEST PUSH2 0xAC4 JUMP JUMPDEST PUSH2 0x580 JUMP JUMPDEST SWAP1 POP SWAP2 SWAP1 POP JUMP JUMPDEST PUSH1 0x0 DUP2 SWAP1 POP SWAP2 SWAP1 POP JUMP JUMPDEST PUSH2 0xB03 DUP4 PUSH2 0xACE JUMP JUMPDEST PUSH2 0xB17 PUSH2 0xB0F DUP3 PUSH2 0xAF0 JUMP JUMPDEST DUP5 DUP5 SLOAD PUSH2 0xA72 JUMP JUMPDEST DUP3 SSTORE POP POP POP POP JUMP JUMPDEST PUSH1 0x0 SWAP1 JUMP JUMPDEST PUSH2 0xB2C PUSH2 0xB1F JUMP JUMPDEST PUSH2 0xB37 DUP2 DUP5 DUP5 PUSH2 0xAFA JUMP JUMPDEST POP POP POP JUMP JUMPDEST JUMPDEST DUP2 DUP2 LT ISZERO PUSH2 0xB5B JUMPI PUSH2 0xB50 PUSH1 0x0 DUP3 PUSH2 0xB24 JUMP JUMPDEST PUSH1 0x1 DUP2 ADD SWAP1 POP PUSH2 0xB3D JUMP JUMPDEST POP POP JUMP JUMPDEST PUSH1 0x1F DUP3 GT ISZERO PUSH2 0xBA0 JUMPI PUSH2 0xB71 DUP2 PUSH2 0xA40 JUMP JUMPDEST PUSH2 0xB7A DUP5 PUSH2 0xA55 JUMP JUMPDEST DUP2 ADD PUSH1 0x20 DUP6 LT ISZERO PUSH2 0xB89 JUMPI DUP2 SWAP1 POP JUMPDEST PUSH2 0xB9D PUSH2 0xB95 DUP6 PUSH2 0xA55 JUMP JUMPDEST DUP4 ADD DUP3 PUSH2 0xB3C JUMP JUMPDEST POP POP JUMPDEST POP POP POP JUMP JUMPDEST PUSH1 0x0 DUP3 DUP3 SHR SWAP1 POP SWAP3 SWAP2 POP POP JUMP JUMPDEST PUSH1 0x0 PUSH2 0xBC3 PUSH1 0x0 NOT DUP5 PUSH1 0x8 MUL PUSH2 0xBA5 JUMP JUMPDEST NOT DUP1 DUP4 AND SWAP2 POP POP SWAP3 SWAP2 POP POP JUMP JUMPDEST PUSH1 0x0 PUSH2 0xBDC DUP4 DUP4 PUSH2 0xBB2 JUMP JUMPDEST SWAP2 POP DUP3 PUSH1 0x2 MUL DUP3 OR SWAP1 POP SWAP3 SWAP2 POP POP JUMP JUMPDEST PUSH2 0xBF5 DUP3 PUSH2 0x674 JUMP JUMPDEST PUSH8 0xFFFFFFFFFFFFFFFF DUP2 GT ISZERO PUSH2 0xC0E JUMPI PUSH2 0xC0D PUSH2 0x768 JUMP JUMPDEST JUMPDEST PUSH2 0xC18 DUP3 SLOAD PUSH2 0x97D JUMP JUMPDEST PUSH2 0xC23 DUP3 DUP3 DUP6 PUSH2 0xB5F JUMP JUMPDEST PUSH1 0x0 PUSH1 0x20 SWAP1 POP PUSH1 0x1F DUP4 GT PUSH1 0x1 DUP2 EQ PUSH2 0xC56 JUMPI PUSH1 0x0 DUP5 ISZERO PUSH2 0xC44 JUMPI DUP3 DUP8 ADD MLOAD SWAP1 POP JUMPDEST PUSH2 0xC4E DUP6 DUP3 PUSH2 0xBD0 JUMP JUMPDEST DUP7 SSTORE POP PUSH2 0xCB6 JUMP JUMPDEST PUSH1 0x1F NOT DUP5 AND PUSH2 0xC64 DUP7 PUSH2 0xA40 JUMP JUMPDEST PUSH1 0x0 JUMPDEST DUP3 DUP2 LT ISZERO PUSH2 0xC8C JUMPI DUP5 DUP10 ADD MLOAD DUP3 SSTORE PUSH1 0x1 DUP3 ADD SWAP2 POP PUSH1 0x20 DUP6 ADD SWAP5 POP PUSH1 0x20 DUP2 ADD SWAP1 POP PUSH2 0xC67 JUMP JUMPDEST DUP7 DUP4 LT ISZERO PUSH2 0xCA9 JUMPI DUP5 DUP10 ADD MLOAD PUSH2 0xCA5 PUSH1 0x1F DUP10 AND DUP3 PUSH2 0xBB2 JUMP JUMPDEST DUP4 SSTORE POP JUMPDEST PUSH1 0x1 PUSH1 0x2 DUP9 MUL ADD DUP9 SSTORE POP POP POP JUMPDEST POP POP POP POP POP POP JUMP INVALID LOG2 PUSH5 0x6970667358 0x22 SLT KECCAK256 LOG3 0xB2 0xE7 0xFC PUSH24 0x65F209F423D33CC47FDA03CFA0B744D6F538EE66DF8C4D9E 0x1E 0xF7 0xEA PUSH5 0x736F6C6343 STOP ADDMOD GT STOP CALLER "
				},
				"gasEstimates": {
					"creation": {
						"codeDepositCost": "663200",
						"executionCost": "696",
						"totalCost": "663896"
					},
					"external": {
						"getTransactionCount()": "2415",
						"getUserInfo(address)": "infinite",
						"onboarding(address,string,string,string)": "infinite"
					}
				},
				"methodIdentifiers": {
					"getTransactionCount()": "2e7700f0",
					"getUserInfo(address)": "6386c1c7",
					"onboarding(address,string,string,string)": "88721931"
				}
			},
			"storageLayout": {
				"storage": [
					{
						"astId": 3,
						"contract": "contracts/KYC.sol:KYC",
						"label": "transactionCount",
						"offset": 0,
						"slot": "0",
						"type": "t_uint256"
					},
					{
						"astId": 8,
						"contract": "contracts/KYC.sol:KYC",
						"label": "userDict",
						"offset": 0,
						"slot": "1",
						"type": "t_mapping(t_address,t_struct(UserInfoStruct)17_storage)"
					}
				],
				"types": {
					"t_address": {
						"encoding": "inplace",
						"label": "address",
						"numberOfBytes": "20"
					},
					"t_mapping(t_address,t_struct(UserInfoStruct)17_storage)": {
						"encoding": "mapping",
						"key": "t_address",
						"label": "mapping(address => struct KYC.UserInfoStruct)",
						"numberOfBytes": "32",
						"value": "t_struct(UserInfoStruct)17_storage"
					},
					"t_string_storage": {
						"encoding": "bytes",
						"label": "string",
						"numberOfBytes": "32"
					},
					"t_struct(UserInfoStruct)17_storage": {
						"encoding": "inplace",
						"label": "struct KYC.UserInfoStruct",
						"members": [
							{
								"astId": 10,
								"contract": "contracts/KYC.sol:KYC",
								"label": "userAddress",
								"offset": 0,
								"slot": "0",
								"type": "t_address"
							},
							{
								"astId": 12,
								"contract": "contracts/KYC.sol:KYC",
								"label": "role",
								"offset": 0,
								"slot": "1",
								"type": "t_string_storage"
							},
							{
								"astId": 14,
								"contract": "contracts/KYC.sol:KYC",
								"label": "firstName",
								"offset": 0,
								"slot": "2",
								"type": "t_string_storage"
							},
							{
								"astId": 16,
								"contract": "contracts/KYC.sol:KYC",
								"label": "lastName",
								"offset": 0,
								"slot": "3",
								"type": "t_string_storage"
							}
						],
						"numberOfBytes": "128"
					},
					"t_uint256": {
						"encoding": "inplace",
						"label": "uint256",
						"numberOfBytes": "32"
					}
				}
			},
			"userdoc": {
				"kind": "user",
				"methods": {},
				"version": 1
			}
		}
	}
}