{
	"contracts/TransactionProcessing.sol": {
		"TransactionProcessing": {
			"abi": [
				{
					"inputs": [
						{
							"internalType": "address payable",
							"name": "_receiver",
							"type": "address"
						},
						{
							"internalType": "address",
							"name": "_kycAddress",
							"type": "address"
						},
						{
							"internalType": "address",
							"name": "_amlAddress",
							"type": "address"
						}
					],
					"stateMutability": "payable",
					"type": "constructor"
				},
				{
					"anonymous": false,
					"inputs": [
						{
							"indexed": false,
							"internalType": "bool",
							"name": "amlResult",
							"type": "bool"
						},
						{
							"indexed": false,
							"internalType": "uint256",
							"name": "timestamp",
							"type": "uint256"
						}
					],
					"name": "CreateAMLLog",
					"type": "event"
				},
				{
					"anonymous": false,
					"inputs": [
						{
							"indexed": false,
							"internalType": "string",
							"name": "firstName",
							"type": "string"
						},
						{
							"indexed": false,
							"internalType": "uint256",
							"name": "timestamp",
							"type": "uint256"
						}
					],
					"name": "CreateLog",
					"type": "event"
				},
				{
					"inputs": [],
					"name": "aml",
					"outputs": [
						{
							"internalType": "contract AML",
							"name": "",
							"type": "address"
						}
					],
					"stateMutability": "view",
					"type": "function"
				},
				{
					"inputs": [],
					"name": "getBalance",
					"outputs": [
						{
							"internalType": "uint256",
							"name": "",
							"type": "uint256"
						}
					],
					"stateMutability": "view",
					"type": "function"
				},
				{
					"inputs": [],
					"name": "kyc",
					"outputs": [
						{
							"internalType": "contract KYC",
							"name": "",
							"type": "address"
						}
					],
					"stateMutability": "view",
					"type": "function"
				},
				{
					"inputs": [],
					"name": "kycAddress",
					"outputs": [
						{
							"internalType": "address",
							"name": "",
							"type": "address"
						}
					],
					"stateMutability": "view",
					"type": "function"
				},
				{
					"inputs": [],
					"name": "processing",
					"outputs": [],
					"stateMutability": "nonpayable",
					"type": "function"
				},
				{
					"inputs": [],
					"name": "receiver",
					"outputs": [
						{
							"internalType": "address payable",
							"name": "",
							"type": "address"
						}
					],
					"stateMutability": "view",
					"type": "function"
				},
				{
					"inputs": [],
					"name": "sendViaCall",
					"outputs": [],
					"stateMutability": "payable",
					"type": "function"
				},
				{
					"inputs": [],
					"name": "sender",
					"outputs": [
						{
							"internalType": "address payable",
							"name": "",
							"type": "address"
						}
					],
					"stateMutability": "view",
					"type": "function"
				}
			],
			"devdoc": {
				"kind": "dev",
				"methods": {},
				"version": 1
			},
			"evm": {
				"assembly": "    /* \"contracts/TransactionProcessing.sol\":102:1624  contract TransactionProcessing{... */\n  mstore(0x40, 0x80)\n    /* \"contracts/TransactionProcessing.sol\":412:751  constructor(address payable _receiver, address _kycAddress, address _amlAddress) payable {... */\n  mload(0x40)\n  sub(codesize, bytecodeSize)\n  dup1\n  bytecodeSize\n  dup4\n  codecopy\n  dup2\n  dup2\n  add\n  0x40\n  mstore\n  dup2\n  add\n  swap1\n  tag_1\n  swap2\n  swap1\n  tag_2\n  jump\t// in\ntag_1:\n    /* \"contracts/TransactionProcessing.sol\":541:542  0 */\n  0x00\n    /* \"contracts/TransactionProcessing.sol\":520:543  _receiver != address(0) */\n  0xffffffffffffffffffffffffffffffffffffffff\n  and\n    /* \"contracts/TransactionProcessing.sol\":520:529  _receiver */\n  dup4\n    /* \"contracts/TransactionProcessing.sol\":520:543  _receiver != address(0) */\n  0xffffffffffffffffffffffffffffffffffffffff\n  and\n  sub\n    /* \"contracts/TransactionProcessing.sol\":512:571  require(_receiver != address(0), \"receiver = zero address\") */\n  tag_5\n  jumpi\n  mload(0x40)\n  0x08c379a000000000000000000000000000000000000000000000000000000000\n  dup2\n  mstore\n  0x04\n  add\n  tag_6\n  swap1\n  tag_7\n  jump\t// in\ntag_6:\n  mload(0x40)\n  dup1\n  swap2\n  sub\n  swap1\n  revert\ntag_5:\n    /* \"contracts/TransactionProcessing.sol\":599:609  msg.sender */\n  caller\n    /* \"contracts/TransactionProcessing.sol\":582:588  sender */\n  0x00\n  dup1\n    /* \"contracts/TransactionProcessing.sol\":582:610  sender = payable(msg.sender) */\n  0x0100\n  exp\n  dup2\n  sload\n  dup2\n  0xffffffffffffffffffffffffffffffffffffffff\n  mul\n  not\n  and\n  swap1\n  dup4\n  0xffffffffffffffffffffffffffffffffffffffff\n  and\n  mul\n  or\n  swap1\n  sstore\n  pop\n    /* \"contracts/TransactionProcessing.sol\":632:641  _receiver */\n  dup3\n    /* \"contracts/TransactionProcessing.sol\":621:629  receiver */\n  0x01\n  0x00\n    /* \"contracts/TransactionProcessing.sol\":621:641  receiver = _receiver */\n  0x0100\n  exp\n  dup2\n  sload\n  dup2\n  0xffffffffffffffffffffffffffffffffffffffff\n  mul\n  not\n  and\n  swap1\n  dup4\n  0xffffffffffffffffffffffffffffffffffffffff\n  and\n  mul\n  or\n  swap1\n  sstore\n  pop\n    /* \"contracts/TransactionProcessing.sol\":665:676  _kycAddress */\n  dup2\n    /* \"contracts/TransactionProcessing.sol\":652:662  kycAddress */\n  0x02\n  0x00\n    /* \"contracts/TransactionProcessing.sol\":652:676  kycAddress = _kycAddress */\n  0x0100\n  exp\n  dup2\n  sload\n  dup2\n  0xffffffffffffffffffffffffffffffffffffffff\n  mul\n  not\n  and\n  swap1\n  dup4\n  0xffffffffffffffffffffffffffffffffffffffff\n  and\n  mul\n  or\n  swap1\n  sstore\n  pop\n    /* \"contracts/TransactionProcessing.sol\":697:708  _kycAddress */\n  dup2\n    /* \"contracts/TransactionProcessing.sol\":687:690  kyc */\n  0x03\n  0x00\n    /* \"contracts/TransactionProcessing.sol\":687:709  kyc = KYC(_kycAddress) */\n  0x0100\n  exp\n  dup2\n  sload\n  dup2\n  0xffffffffffffffffffffffffffffffffffffffff\n  mul\n  not\n  and\n  swap1\n  dup4\n  0xffffffffffffffffffffffffffffffffffffffff\n  and\n  mul\n  or\n  swap1\n  sstore\n  pop\n    /* \"contracts/TransactionProcessing.sol\":731:742  _amlAddress */\n  dup1\n    /* \"contracts/TransactionProcessing.sol\":721:724  aml */\n  0x04\n  0x00\n    /* \"contracts/TransactionProcessing.sol\":721:743  aml = AML(_amlAddress) */\n  0x0100\n  exp\n  dup2\n  sload\n  dup2\n  0xffffffffffffffffffffffffffffffffffffffff\n  mul\n  not\n  and\n  swap1\n  dup4\n  0xffffffffffffffffffffffffffffffffffffffff\n  and\n  mul\n  or\n  swap1\n  sstore\n  pop\n    /* \"contracts/TransactionProcessing.sol\":412:751  constructor(address payable _receiver, address _kycAddress, address _amlAddress) payable {... */\n  pop\n  pop\n  pop\n    /* \"contracts/TransactionProcessing.sol\":102:1624  contract TransactionProcessing{... */\n  jump(tag_8)\n    /* \"#utility.yul\":88:205   */\ntag_10:\n    /* \"#utility.yul\":197:198   */\n  0x00\n    /* \"#utility.yul\":194:195   */\n  dup1\n    /* \"#utility.yul\":187:199   */\n  revert\n    /* \"#utility.yul\":334:460   */\ntag_12:\n    /* \"#utility.yul\":371:378   */\n  0x00\n    /* \"#utility.yul\":411:453   */\n  0xffffffffffffffffffffffffffffffffffffffff\n    /* \"#utility.yul\":404:409   */\n  dup3\n    /* \"#utility.yul\":400:454   */\n  and\n    /* \"#utility.yul\":389:454   */\n  swap1\n  pop\n    /* \"#utility.yul\":334:460   */\n  swap2\n  swap1\n  pop\n  jump\t// out\n    /* \"#utility.yul\":466:570   */\ntag_13:\n    /* \"#utility.yul\":511:518   */\n  0x00\n    /* \"#utility.yul\":540:564   */\n  tag_28\n    /* \"#utility.yul\":558:563   */\n  dup3\n    /* \"#utility.yul\":540:564   */\n  tag_12\n  jump\t// in\ntag_28:\n    /* \"#utility.yul\":529:564   */\n  swap1\n  pop\n    /* \"#utility.yul\":466:570   */\n  swap2\n  swap1\n  pop\n  jump\t// out\n    /* \"#utility.yul\":576:714   */\ntag_14:\n    /* \"#utility.yul\":657:689   */\n  tag_30\n    /* \"#utility.yul\":683:688   */\n  dup2\n    /* \"#utility.yul\":657:689   */\n  tag_13\n  jump\t// in\ntag_30:\n    /* \"#utility.yul\":650:655   */\n  dup2\n    /* \"#utility.yul\":647:690   */\n  eq\n    /* \"#utility.yul\":637:708   */\n  tag_31\n  jumpi\n    /* \"#utility.yul\":704:705   */\n  0x00\n    /* \"#utility.yul\":701:702   */\n  dup1\n    /* \"#utility.yul\":694:706   */\n  revert\n    /* \"#utility.yul\":637:708   */\ntag_31:\n    /* \"#utility.yul\":576:714   */\n  pop\n  jump\t// out\n    /* \"#utility.yul\":720:879   */\ntag_15:\n    /* \"#utility.yul\":785:790   */\n  0x00\n    /* \"#utility.yul\":816:822   */\n  dup2\n    /* \"#utility.yul\":810:823   */\n  mload\n    /* \"#utility.yul\":801:823   */\n  swap1\n  pop\n    /* \"#utility.yul\":832:873   */\n  tag_33\n    /* \"#utility.yul\":867:872   */\n  dup2\n    /* \"#utility.yul\":832:873   */\n  tag_14\n  jump\t// in\ntag_33:\n    /* \"#utility.yul\":720:879   */\n  swap3\n  swap2\n  pop\n  pop\n  jump\t// out\n    /* \"#utility.yul\":885:981   */\ntag_16:\n    /* \"#utility.yul\":922:929   */\n  0x00\n    /* \"#utility.yul\":951:975   */\n  tag_35\n    /* \"#utility.yul\":969:974   */\n  dup3\n    /* \"#utility.yul\":951:975   */\n  tag_12\n  jump\t// in\ntag_35:\n    /* \"#utility.yul\":940:975   */\n  swap1\n  pop\n    /* \"#utility.yul\":885:981   */\n  swap2\n  swap1\n  pop\n  jump\t// out\n    /* \"#utility.yul\":987:1109   */\ntag_17:\n    /* \"#utility.yul\":1060:1084   */\n  tag_37\n    /* \"#utility.yul\":1078:1083   */\n  dup2\n    /* \"#utility.yul\":1060:1084   */\n  tag_16\n  jump\t// in\ntag_37:\n    /* \"#utility.yul\":1053:1058   */\n  dup2\n    /* \"#utility.yul\":1050:1085   */\n  eq\n    /* \"#utility.yul\":1040:1103   */\n  tag_38\n  jumpi\n    /* \"#utility.yul\":1099:1100   */\n  0x00\n    /* \"#utility.yul\":1096:1097   */\n  dup1\n    /* \"#utility.yul\":1089:1101   */\n  revert\n    /* \"#utility.yul\":1040:1103   */\ntag_38:\n    /* \"#utility.yul\":987:1109   */\n  pop\n  jump\t// out\n    /* \"#utility.yul\":1115:1258   */\ntag_18:\n    /* \"#utility.yul\":1172:1177   */\n  0x00\n    /* \"#utility.yul\":1203:1209   */\n  dup2\n    /* \"#utility.yul\":1197:1210   */\n  mload\n    /* \"#utility.yul\":1188:1210   */\n  swap1\n  pop\n    /* \"#utility.yul\":1219:1252   */\n  tag_40\n    /* \"#utility.yul\":1246:1251   */\n  dup2\n    /* \"#utility.yul\":1219:1252   */\n  tag_17\n  jump\t// in\ntag_40:\n    /* \"#utility.yul\":1115:1258   */\n  swap3\n  swap2\n  pop\n  pop\n  jump\t// out\n    /* \"#utility.yul\":1264:1943   */\ntag_2:\n    /* \"#utility.yul\":1360:1366   */\n  0x00\n    /* \"#utility.yul\":1368:1374   */\n  dup1\n    /* \"#utility.yul\":1376:1382   */\n  0x00\n    /* \"#utility.yul\":1425:1427   */\n  0x60\n    /* \"#utility.yul\":1413:1422   */\n  dup5\n    /* \"#utility.yul\":1404:1411   */\n  dup7\n    /* \"#utility.yul\":1400:1423   */\n  sub\n    /* \"#utility.yul\":1396:1428   */\n  slt\n    /* \"#utility.yul\":1393:1512   */\n  iszero\n  tag_42\n  jumpi\n    /* \"#utility.yul\":1431:1510   */\n  tag_43\n  tag_10\n  jump\t// in\ntag_43:\n    /* \"#utility.yul\":1393:1512   */\ntag_42:\n    /* \"#utility.yul\":1551:1552   */\n  0x00\n    /* \"#utility.yul\":1576:1648   */\n  tag_44\n    /* \"#utility.yul\":1640:1647   */\n  dup7\n    /* \"#utility.yul\":1631:1637   */\n  dup3\n    /* \"#utility.yul\":1620:1629   */\n  dup8\n    /* \"#utility.yul\":1616:1638   */\n  add\n    /* \"#utility.yul\":1576:1648   */\n  tag_15\n  jump\t// in\ntag_44:\n    /* \"#utility.yul\":1566:1648   */\n  swap4\n  pop\n    /* \"#utility.yul\":1522:1658   */\n  pop\n    /* \"#utility.yul\":1697:1699   */\n  0x20\n    /* \"#utility.yul\":1723:1787   */\n  tag_45\n    /* \"#utility.yul\":1779:1786   */\n  dup7\n    /* \"#utility.yul\":1770:1776   */\n  dup3\n    /* \"#utility.yul\":1759:1768   */\n  dup8\n    /* \"#utility.yul\":1755:1777   */\n  add\n    /* \"#utility.yul\":1723:1787   */\n  tag_18\n  jump\t// in\ntag_45:\n    /* \"#utility.yul\":1713:1787   */\n  swap3\n  pop\n    /* \"#utility.yul\":1668:1797   */\n  pop\n    /* \"#utility.yul\":1836:1838   */\n  0x40\n    /* \"#utility.yul\":1862:1926   */\n  tag_46\n    /* \"#utility.yul\":1918:1925   */\n  dup7\n    /* \"#utility.yul\":1909:1915   */\n  dup3\n    /* \"#utility.yul\":1898:1907   */\n  dup8\n    /* \"#utility.yul\":1894:1916   */\n  add\n    /* \"#utility.yul\":1862:1926   */\n  tag_18\n  jump\t// in\ntag_46:\n    /* \"#utility.yul\":1852:1926   */\n  swap2\n  pop\n    /* \"#utility.yul\":1807:1936   */\n  pop\n    /* \"#utility.yul\":1264:1943   */\n  swap3\n  pop\n  swap3\n  pop\n  swap3\n  jump\t// out\n    /* \"#utility.yul\":1949:2118   */\ntag_19:\n    /* \"#utility.yul\":2033:2044   */\n  0x00\n    /* \"#utility.yul\":2067:2073   */\n  dup3\n    /* \"#utility.yul\":2062:2065   */\n  dup3\n    /* \"#utility.yul\":2055:2074   */\n  mstore\n    /* \"#utility.yul\":2107:2111   */\n  0x20\n    /* \"#utility.yul\":2102:2105   */\n  dup3\n    /* \"#utility.yul\":2098:2112   */\n  add\n    /* \"#utility.yul\":2083:2112   */\n  swap1\n  pop\n    /* \"#utility.yul\":1949:2118   */\n  swap3\n  swap2\n  pop\n  pop\n  jump\t// out\n    /* \"#utility.yul\":2124:2297   */\ntag_20:\n    /* \"#utility.yul\":2264:2289   */\n  0x7265636569766572203d207a65726f2061646472657373000000000000000000\n    /* \"#utility.yul\":2260:2261   */\n  0x00\n    /* \"#utility.yul\":2252:2258   */\n  dup3\n    /* \"#utility.yul\":2248:2262   */\n  add\n    /* \"#utility.yul\":2241:2290   */\n  mstore\n    /* \"#utility.yul\":2124:2297   */\n  pop\n  jump\t// out\n    /* \"#utility.yul\":2303:2669   */\ntag_21:\n    /* \"#utility.yul\":2445:2448   */\n  0x00\n    /* \"#utility.yul\":2466:2533   */\n  tag_50\n    /* \"#utility.yul\":2530:2532   */\n  0x17\n    /* \"#utility.yul\":2525:2528   */\n  dup4\n    /* \"#utility.yul\":2466:2533   */\n  tag_19\n  jump\t// in\ntag_50:\n    /* \"#utility.yul\":2459:2533   */\n  swap2\n  pop\n    /* \"#utility.yul\":2542:2635   */\n  tag_51\n    /* \"#utility.yul\":2631:2634   */\n  dup3\n    /* \"#utility.yul\":2542:2635   */\n  tag_20\n  jump\t// in\ntag_51:\n    /* \"#utility.yul\":2660:2662   */\n  0x20\n    /* \"#utility.yul\":2655:2658   */\n  dup3\n    /* \"#utility.yul\":2651:2663   */\n  add\n    /* \"#utility.yul\":2644:2663   */\n  swap1\n  pop\n    /* \"#utility.yul\":2303:2669   */\n  swap2\n  swap1\n  pop\n  jump\t// out\n    /* \"#utility.yul\":2675:3094   */\ntag_7:\n    /* \"#utility.yul\":2841:2845   */\n  0x00\n    /* \"#utility.yul\":2879:2881   */\n  0x20\n    /* \"#utility.yul\":2868:2877   */\n  dup3\n    /* \"#utility.yul\":2864:2882   */\n  add\n    /* \"#utility.yul\":2856:2882   */\n  swap1\n  pop\n    /* \"#utility.yul\":2928:2937   */\n  dup2\n    /* \"#utility.yul\":2922:2926   */\n  dup2\n    /* \"#utility.yul\":2918:2938   */\n  sub\n    /* \"#utility.yul\":2914:2915   */\n  0x00\n    /* \"#utility.yul\":2903:2912   */\n  dup4\n    /* \"#utility.yul\":2899:2916   */\n  add\n    /* \"#utility.yul\":2892:2939   */\n  mstore\n    /* \"#utility.yul\":2956:3087   */\n  tag_53\n    /* \"#utility.yul\":3082:3086   */\n  dup2\n    /* \"#utility.yul\":2956:3087   */\n  tag_21\n  jump\t// in\ntag_53:\n    /* \"#utility.yul\":2948:3087   */\n  swap1\n  pop\n    /* \"#utility.yul\":2675:3094   */\n  swap2\n  swap1\n  pop\n  jump\t// out\n    /* \"contracts/TransactionProcessing.sol\":102:1624  contract TransactionProcessing{... */\ntag_8:\n  dataSize(sub_0)\n  dup1\n  dataOffset(sub_0)\n  0x00\n  codecopy\n  0x00\n  return\nstop\n\nsub_0: assembly {\n        /* \"contracts/TransactionProcessing.sol\":102:1624  contract TransactionProcessing{... */\n      mstore(0x40, 0x80)\n      jumpi(tag_1, lt(calldatasize, 0x04))\n      shr(0xe0, calldataload(0x00))\n      dup1\n      0x90d6b45f\n      gt\n      tag_10\n      jumpi\n      dup1\n      0x90d6b45f\n      eq\n      tag_6\n      jumpi\n      dup1\n      0xdbd81fc1\n      eq\n      tag_7\n      jumpi\n      dup1\n      0xdd6ff7fa\n      eq\n      tag_8\n      jumpi\n      dup1\n      0xf7260d3e\n      eq\n      tag_9\n      jumpi\n      jump(tag_1)\n    tag_10:\n      dup1\n      0x12065fe0\n      eq\n      tag_2\n      jumpi\n      dup1\n      0x3d6cfcd1\n      eq\n      tag_3\n      jumpi\n      dup1\n      0x49b85a16\n      eq\n      tag_4\n      jumpi\n      dup1\n      0x67e404ce\n      eq\n      tag_5\n      jumpi\n    tag_1:\n      0x00\n      dup1\n      revert\n        /* \"contracts/TransactionProcessing.sol\":1525:1621  function getBalance() public view returns (uint) {... */\n    tag_2:\n      callvalue\n      dup1\n      iszero\n      tag_11\n      jumpi\n      0x00\n      dup1\n      revert\n    tag_11:\n      pop\n      tag_12\n      tag_13\n      jump\t// in\n    tag_12:\n      mload(0x40)\n      tag_14\n      swap2\n      swap1\n      tag_15\n      jump\t// in\n    tag_14:\n      mload(0x40)\n      dup1\n      swap2\n      sub\n      swap1\n      return\n        /* \"contracts/TransactionProcessing.sol\":759:1202  function processing() public {... */\n    tag_3:\n      callvalue\n      dup1\n      iszero\n      tag_16\n      jumpi\n      0x00\n      dup1\n      revert\n    tag_16:\n      pop\n      tag_17\n      tag_18\n      jump\t// in\n    tag_17:\n      stop\n        /* \"contracts/TransactionProcessing.sol\":334:359  address public kycAddress */\n    tag_4:\n      callvalue\n      dup1\n      iszero\n      tag_19\n      jumpi\n      0x00\n      dup1\n      revert\n    tag_19:\n      pop\n      tag_20\n      tag_21\n      jump\t// in\n    tag_20:\n      mload(0x40)\n      tag_22\n      swap2\n      swap1\n      tag_23\n      jump\t// in\n    tag_22:\n      mload(0x40)\n      dup1\n      swap2\n      sub\n      swap1\n      return\n        /* \"contracts/TransactionProcessing.sol\":260:289  address payable public sender */\n    tag_5:\n      callvalue\n      dup1\n      iszero\n      tag_24\n      jumpi\n      0x00\n      dup1\n      revert\n    tag_24:\n      pop\n      tag_25\n      tag_26\n      jump\t// in\n    tag_25:\n      mload(0x40)\n      tag_27\n      swap2\n      swap1\n      tag_28\n      jump\t// in\n    tag_27:\n      mload(0x40)\n      dup1\n      swap2\n      sub\n      swap1\n      return\n        /* \"contracts/TransactionProcessing.sol\":367:381  KYC public kyc */\n    tag_6:\n      callvalue\n      dup1\n      iszero\n      tag_29\n      jumpi\n      0x00\n      dup1\n      revert\n    tag_29:\n      pop\n      tag_30\n      tag_31\n      jump\t// in\n    tag_30:\n      mload(0x40)\n      tag_32\n      swap2\n      swap1\n      tag_33\n      jump\t// in\n    tag_32:\n      mload(0x40)\n      dup1\n      swap2\n      sub\n      swap1\n      return\n        /* \"contracts/TransactionProcessing.sol\":1210:1517  function sendViaCall() public payable {... */\n    tag_7:\n      tag_34\n      tag_35\n      jump\t// in\n    tag_34:\n      stop\n        /* \"contracts/TransactionProcessing.sol\":389:403  AML public aml */\n    tag_8:\n      callvalue\n      dup1\n      iszero\n      tag_36\n      jumpi\n      0x00\n      dup1\n      revert\n    tag_36:\n      pop\n      tag_37\n      tag_38\n      jump\t// in\n    tag_37:\n      mload(0x40)\n      tag_39\n      swap2\n      swap1\n      tag_40\n      jump\t// in\n    tag_39:\n      mload(0x40)\n      dup1\n      swap2\n      sub\n      swap1\n      return\n        /* \"contracts/TransactionProcessing.sol\":296:327  address payable public receiver */\n    tag_9:\n      callvalue\n      dup1\n      iszero\n      tag_41\n      jumpi\n      0x00\n      dup1\n      revert\n    tag_41:\n      pop\n      tag_42\n      tag_43\n      jump\t// in\n    tag_42:\n      mload(0x40)\n      tag_44\n      swap2\n      swap1\n      tag_28\n      jump\t// in\n    tag_44:\n      mload(0x40)\n      dup1\n      swap2\n      sub\n      swap1\n      return\n        /* \"contracts/TransactionProcessing.sol\":1525:1621  function getBalance() public view returns (uint) {... */\n    tag_13:\n        /* \"contracts/TransactionProcessing.sol\":1568:1572  uint */\n      0x00\n        /* \"contracts/TransactionProcessing.sol\":1592:1613  address(this).balance */\n      selfbalance\n        /* \"contracts/TransactionProcessing.sol\":1585:1613  return address(this).balance */\n      swap1\n      pop\n        /* \"contracts/TransactionProcessing.sol\":1525:1621  function getBalance() public view returns (uint) {... */\n      swap1\n      jump\t// out\n        /* \"contracts/TransactionProcessing.sol\":759:1202  function processing() public {... */\n    tag_18:\n        /* \"contracts/TransactionProcessing.sol\":912:937  string memory nationality */\n      0x00\n        /* \"contracts/TransactionProcessing.sol\":940:943  kyc */\n      0x03\n      0x00\n      swap1\n      sload\n      swap1\n      0x0100\n      exp\n      swap1\n      div\n      0xffffffffffffffffffffffffffffffffffffffff\n      and\n        /* \"contracts/TransactionProcessing.sol\":940:955  kyc.getUserInfo */\n      0xffffffffffffffffffffffffffffffffffffffff\n      and\n      0x6386c1c7\n        /* \"contracts/TransactionProcessing.sol\":956:962  sender */\n      0x00\n      dup1\n      sload\n      swap1\n      0x0100\n      exp\n      swap1\n      div\n      0xffffffffffffffffffffffffffffffffffffffff\n      and\n        /* \"contracts/TransactionProcessing.sol\":940:963  kyc.getUserInfo(sender) */\n      mload(0x40)\n      dup3\n      0xffffffff\n      and\n      0xe0\n      shl\n      dup2\n      mstore\n      0x04\n      add\n      tag_47\n      swap2\n      swap1\n      tag_28\n      jump\t// in\n    tag_47:\n      0x00\n      mload(0x40)\n      dup1\n      dup4\n      sub\n      dup2\n      dup7\n      gas\n      staticcall\n      iszero\n      dup1\n      iszero\n      tag_49\n      jumpi\n      returndatasize\n      0x00\n      dup1\n      returndatacopy\n      revert(0x00, returndatasize)\n    tag_49:\n      pop\n      pop\n      pop\n      pop\n      mload(0x40)\n      returndatasize\n      0x00\n      dup3\n      returndatacopy\n      returndatasize\n      not(0x1f)\n      0x1f\n      dup3\n      add\n      and\n      dup3\n      add\n      dup1\n      0x40\n      mstore\n      pop\n      dup2\n      add\n      swap1\n      tag_50\n      swap2\n      swap1\n      tag_51\n      jump\t// in\n    tag_50:\n        /* \"contracts/TransactionProcessing.sol\":940:975  kyc.getUserInfo(sender).nationality */\n      0xc0\n      add\n      mload\n        /* \"contracts/TransactionProcessing.sol\":912:975  string memory nationality = kyc.getUserInfo(sender).nationality */\n      swap1\n      pop\n        /* \"contracts/TransactionProcessing.sol\":991:1030  CreateLog(nationality, block.timestamp) */\n      0xc35d6dbbad810bb0fb26d3fd7c07a09c5afd64d647208c93d211dcac94b8349b\n        /* \"contracts/TransactionProcessing.sol\":1001:1012  nationality */\n      dup2\n        /* \"contracts/TransactionProcessing.sol\":1014:1029  block.timestamp */\n      timestamp\n        /* \"contracts/TransactionProcessing.sol\":991:1030  CreateLog(nationality, block.timestamp) */\n      mload(0x40)\n      tag_52\n      swap3\n      swap2\n      swap1\n      tag_53\n      jump\t// in\n    tag_52:\n      mload(0x40)\n      dup1\n      swap2\n      sub\n      swap1\n      log1\n        /* \"contracts/TransactionProcessing.sol\":1072:1092  bool senderAmlResult */\n      0x00\n        /* \"contracts/TransactionProcessing.sol\":1095:1098  aml */\n      0x04\n      0x00\n      swap1\n      sload\n      swap1\n      0x0100\n      exp\n      swap1\n      div\n      0xffffffffffffffffffffffffffffffffffffffff\n      and\n        /* \"contracts/TransactionProcessing.sol\":1095:1115  aml.checkNationality */\n      0xffffffffffffffffffffffffffffffffffffffff\n      and\n      0x7b0b53f0\n        /* \"contracts/TransactionProcessing.sol\":1116:1127  nationality */\n      dup4\n        /* \"contracts/TransactionProcessing.sol\":1095:1128  aml.checkNationality(nationality) */\n      mload(0x40)\n      dup3\n      0xffffffff\n      and\n      0xe0\n      shl\n      dup2\n      mstore\n      0x04\n      add\n      tag_54\n      swap2\n      swap1\n      tag_55\n      jump\t// in\n    tag_54:\n      0x20\n      mload(0x40)\n      dup1\n      dup4\n      sub\n      dup2\n      0x00\n      dup8\n      gas\n      call\n      iszero\n      dup1\n      iszero\n      tag_57\n      jumpi\n      returndatasize\n      0x00\n      dup1\n      returndatacopy\n      revert(0x00, returndatasize)\n    tag_57:\n      pop\n      pop\n      pop\n      pop\n      mload(0x40)\n      returndatasize\n      not(0x1f)\n      0x1f\n      dup3\n      add\n      and\n      dup3\n      add\n      dup1\n      0x40\n      mstore\n      pop\n      dup2\n      add\n      swap1\n      tag_58\n      swap2\n      swap1\n      tag_59\n      jump\t// in\n    tag_58:\n        /* \"contracts/TransactionProcessing.sol\":1072:1128  bool senderAmlResult = aml.checkNationality(nationality) */\n      swap1\n      pop\n        /* \"contracts/TransactionProcessing.sol\":1144:1190  CreateAMLLog(senderAmlResult, block.timestamp) */\n      0xa3f71817a4bb3c731156d4c88f7003b46c734965f0e46d3fa428a5e2e70afc55\n        /* \"contracts/TransactionProcessing.sol\":1157:1172  senderAmlResult */\n      dup2\n        /* \"contracts/TransactionProcessing.sol\":1174:1189  block.timestamp */\n      timestamp\n        /* \"contracts/TransactionProcessing.sol\":1144:1190  CreateAMLLog(senderAmlResult, block.timestamp) */\n      mload(0x40)\n      tag_60\n      swap3\n      swap2\n      swap1\n      tag_61\n      jump\t// in\n    tag_60:\n      mload(0x40)\n      dup1\n      swap2\n      sub\n      swap1\n      log1\n        /* \"contracts/TransactionProcessing.sol\":788:1202  {... */\n      pop\n      pop\n        /* \"contracts/TransactionProcessing.sol\":759:1202  function processing() public {... */\n      jump\t// out\n        /* \"contracts/TransactionProcessing.sol\":334:359  address public kycAddress */\n    tag_21:\n      0x02\n      0x00\n      swap1\n      sload\n      swap1\n      0x0100\n      exp\n      swap1\n      div\n      0xffffffffffffffffffffffffffffffffffffffff\n      and\n      dup2\n      jump\t// out\n        /* \"contracts/TransactionProcessing.sol\":260:289  address payable public sender */\n    tag_26:\n      0x00\n      dup1\n      sload\n      swap1\n      0x0100\n      exp\n      swap1\n      div\n      0xffffffffffffffffffffffffffffffffffffffff\n      and\n      dup2\n      jump\t// out\n        /* \"contracts/TransactionProcessing.sol\":367:381  KYC public kyc */\n    tag_31:\n      0x03\n      0x00\n      swap1\n      sload\n      swap1\n      0x0100\n      exp\n      swap1\n      div\n      0xffffffffffffffffffffffffffffffffffffffff\n      and\n      dup2\n      jump\t// out\n        /* \"contracts/TransactionProcessing.sol\":1210:1517  function sendViaCall() public payable {... */\n    tag_35:\n        /* \"contracts/TransactionProcessing.sol\":1391:1400  bool sent */\n      0x00\n        /* \"contracts/TransactionProcessing.sol\":1402:1419  bytes memory data */\n      dup1\n        /* \"contracts/TransactionProcessing.sol\":1423:1431  receiver */\n      0x01\n      0x00\n      swap1\n      sload\n      swap1\n      0x0100\n      exp\n      swap1\n      div\n      0xffffffffffffffffffffffffffffffffffffffff\n      and\n        /* \"contracts/TransactionProcessing.sol\":1423:1436  receiver.call */\n      0xffffffffffffffffffffffffffffffffffffffff\n      and\n        /* \"contracts/TransactionProcessing.sol\":1444:1456  getBalance() */\n      tag_63\n        /* \"contracts/TransactionProcessing.sol\":1444:1454  getBalance */\n      tag_13\n        /* \"contracts/TransactionProcessing.sol\":1444:1456  getBalance() */\n      jump\t// in\n    tag_63:\n        /* \"contracts/TransactionProcessing.sol\":1423:1461  receiver.call{value: getBalance()}(\"\") */\n      mload(0x40)\n      tag_64\n      swap1\n      tag_65\n      jump\t// in\n    tag_64:\n      0x00\n      mload(0x40)\n      dup1\n      dup4\n      sub\n      dup2\n      dup6\n      dup8\n      gas\n      call\n      swap3\n      pop\n      pop\n      pop\n      returndatasize\n      dup1\n      0x00\n      dup2\n      eq\n      tag_68\n      jumpi\n      mload(0x40)\n      swap2\n      pop\n      and(add(returndatasize, 0x3f), not(0x1f))\n      dup3\n      add\n      0x40\n      mstore\n      returndatasize\n      dup3\n      mstore\n      returndatasize\n      0x00\n      0x20\n      dup5\n      add\n      returndatacopy\n      jump(tag_67)\n    tag_68:\n      0x60\n      swap2\n      pop\n    tag_67:\n      pop\n        /* \"contracts/TransactionProcessing.sol\":1390:1461  (bool sent, bytes memory data) = receiver.call{value: getBalance()}(\"\") */\n      swap2\n      pop\n      swap2\n      pop\n        /* \"contracts/TransactionProcessing.sol\":1480:1484  sent */\n      dup2\n        /* \"contracts/TransactionProcessing.sol\":1472:1509  require(sent, \"Failed to send Ether\") */\n      tag_69\n      jumpi\n      mload(0x40)\n      0x08c379a000000000000000000000000000000000000000000000000000000000\n      dup2\n      mstore\n      0x04\n      add\n      tag_70\n      swap1\n      tag_71\n      jump\t// in\n    tag_70:\n      mload(0x40)\n      dup1\n      swap2\n      sub\n      swap1\n      revert\n    tag_69:\n        /* \"contracts/TransactionProcessing.sol\":1248:1517  {... */\n      pop\n      pop\n        /* \"contracts/TransactionProcessing.sol\":1210:1517  function sendViaCall() public payable {... */\n      jump\t// out\n        /* \"contracts/TransactionProcessing.sol\":389:403  AML public aml */\n    tag_38:\n      0x04\n      0x00\n      swap1\n      sload\n      swap1\n      0x0100\n      exp\n      swap1\n      div\n      0xffffffffffffffffffffffffffffffffffffffff\n      and\n      dup2\n      jump\t// out\n        /* \"contracts/TransactionProcessing.sol\":296:327  address payable public receiver */\n    tag_43:\n      0x01\n      0x00\n      swap1\n      sload\n      swap1\n      0x0100\n      exp\n      swap1\n      div\n      0xffffffffffffffffffffffffffffffffffffffff\n      and\n      dup2\n      jump\t// out\n        /* \"#utility.yul\":7:84   */\n    tag_72:\n        /* \"#utility.yul\":44:51   */\n      0x00\n        /* \"#utility.yul\":73:78   */\n      dup2\n        /* \"#utility.yul\":62:78   */\n      swap1\n      pop\n        /* \"#utility.yul\":7:84   */\n      swap2\n      swap1\n      pop\n      jump\t// out\n        /* \"#utility.yul\":90:208   */\n    tag_73:\n        /* \"#utility.yul\":177:201   */\n      tag_119\n        /* \"#utility.yul\":195:200   */\n      dup2\n        /* \"#utility.yul\":177:201   */\n      tag_72\n      jump\t// in\n    tag_119:\n        /* \"#utility.yul\":172:175   */\n      dup3\n        /* \"#utility.yul\":165:202   */\n      mstore\n        /* \"#utility.yul\":90:208   */\n      pop\n      pop\n      jump\t// out\n        /* \"#utility.yul\":214:436   */\n    tag_15:\n        /* \"#utility.yul\":307:311   */\n      0x00\n        /* \"#utility.yul\":345:347   */\n      0x20\n        /* \"#utility.yul\":334:343   */\n      dup3\n        /* \"#utility.yul\":330:348   */\n      add\n        /* \"#utility.yul\":322:348   */\n      swap1\n      pop\n        /* \"#utility.yul\":358:429   */\n      tag_121\n        /* \"#utility.yul\":426:427   */\n      0x00\n        /* \"#utility.yul\":415:424   */\n      dup4\n        /* \"#utility.yul\":411:428   */\n      add\n        /* \"#utility.yul\":402:408   */\n      dup5\n        /* \"#utility.yul\":358:429   */\n      tag_73\n      jump\t// in\n    tag_121:\n        /* \"#utility.yul\":214:436   */\n      swap3\n      swap2\n      pop\n      pop\n      jump\t// out\n        /* \"#utility.yul\":442:568   */\n    tag_74:\n        /* \"#utility.yul\":479:486   */\n      0x00\n        /* \"#utility.yul\":519:561   */\n      0xffffffffffffffffffffffffffffffffffffffff\n        /* \"#utility.yul\":512:517   */\n      dup3\n        /* \"#utility.yul\":508:562   */\n      and\n        /* \"#utility.yul\":497:562   */\n      swap1\n      pop\n        /* \"#utility.yul\":442:568   */\n      swap2\n      swap1\n      pop\n      jump\t// out\n        /* \"#utility.yul\":574:670   */\n    tag_75:\n        /* \"#utility.yul\":611:618   */\n      0x00\n        /* \"#utility.yul\":640:664   */\n      tag_124\n        /* \"#utility.yul\":658:663   */\n      dup3\n        /* \"#utility.yul\":640:664   */\n      tag_74\n      jump\t// in\n    tag_124:\n        /* \"#utility.yul\":629:664   */\n      swap1\n      pop\n        /* \"#utility.yul\":574:670   */\n      swap2\n      swap1\n      pop\n      jump\t// out\n        /* \"#utility.yul\":676:794   */\n    tag_76:\n        /* \"#utility.yul\":763:787   */\n      tag_126\n        /* \"#utility.yul\":781:786   */\n      dup2\n        /* \"#utility.yul\":763:787   */\n      tag_75\n      jump\t// in\n    tag_126:\n        /* \"#utility.yul\":758:761   */\n      dup3\n        /* \"#utility.yul\":751:788   */\n      mstore\n        /* \"#utility.yul\":676:794   */\n      pop\n      pop\n      jump\t// out\n        /* \"#utility.yul\":800:1022   */\n    tag_23:\n        /* \"#utility.yul\":893:897   */\n      0x00\n        /* \"#utility.yul\":931:933   */\n      0x20\n        /* \"#utility.yul\":920:929   */\n      dup3\n        /* \"#utility.yul\":916:934   */\n      add\n        /* \"#utility.yul\":908:934   */\n      swap1\n      pop\n        /* \"#utility.yul\":944:1015   */\n      tag_128\n        /* \"#utility.yul\":1012:1013   */\n      0x00\n        /* \"#utility.yul\":1001:1010   */\n      dup4\n        /* \"#utility.yul\":997:1014   */\n      add\n        /* \"#utility.yul\":988:994   */\n      dup5\n        /* \"#utility.yul\":944:1015   */\n      tag_76\n      jump\t// in\n    tag_128:\n        /* \"#utility.yul\":800:1022   */\n      swap3\n      swap2\n      pop\n      pop\n      jump\t// out\n        /* \"#utility.yul\":1028:1132   */\n    tag_77:\n        /* \"#utility.yul\":1073:1080   */\n      0x00\n        /* \"#utility.yul\":1102:1126   */\n      tag_130\n        /* \"#utility.yul\":1120:1125   */\n      dup3\n        /* \"#utility.yul\":1102:1126   */\n      tag_74\n      jump\t// in\n    tag_130:\n        /* \"#utility.yul\":1091:1126   */\n      swap1\n      pop\n        /* \"#utility.yul\":1028:1132   */\n      swap2\n      swap1\n      pop\n      jump\t// out\n        /* \"#utility.yul\":1138:1280   */\n    tag_78:\n        /* \"#utility.yul\":1241:1273   */\n      tag_132\n        /* \"#utility.yul\":1267:1272   */\n      dup2\n        /* \"#utility.yul\":1241:1273   */\n      tag_77\n      jump\t// in\n    tag_132:\n        /* \"#utility.yul\":1236:1239   */\n      dup3\n        /* \"#utility.yul\":1229:1274   */\n      mstore\n        /* \"#utility.yul\":1138:1280   */\n      pop\n      pop\n      jump\t// out\n        /* \"#utility.yul\":1286:1540   */\n    tag_28:\n        /* \"#utility.yul\":1395:1399   */\n      0x00\n        /* \"#utility.yul\":1433:1435   */\n      0x20\n        /* \"#utility.yul\":1422:1431   */\n      dup3\n        /* \"#utility.yul\":1418:1436   */\n      add\n        /* \"#utility.yul\":1410:1436   */\n      swap1\n      pop\n        /* \"#utility.yul\":1446:1533   */\n      tag_134\n        /* \"#utility.yul\":1530:1531   */\n      0x00\n        /* \"#utility.yul\":1519:1528   */\n      dup4\n        /* \"#utility.yul\":1515:1532   */\n      add\n        /* \"#utility.yul\":1506:1512   */\n      dup5\n        /* \"#utility.yul\":1446:1533   */\n      tag_78\n      jump\t// in\n    tag_134:\n        /* \"#utility.yul\":1286:1540   */\n      swap3\n      swap2\n      pop\n      pop\n      jump\t// out\n        /* \"#utility.yul\":1546:1606   */\n    tag_79:\n        /* \"#utility.yul\":1574:1577   */\n      0x00\n        /* \"#utility.yul\":1595:1600   */\n      dup2\n        /* \"#utility.yul\":1588:1600   */\n      swap1\n      pop\n        /* \"#utility.yul\":1546:1606   */\n      swap2\n      swap1\n      pop\n      jump\t// out\n        /* \"#utility.yul\":1612:1754   */\n    tag_80:\n        /* \"#utility.yul\":1662:1671   */\n      0x00\n        /* \"#utility.yul\":1695:1748   */\n      tag_137\n        /* \"#utility.yul\":1713:1747   */\n      tag_138\n        /* \"#utility.yul\":1722:1746   */\n      tag_139\n        /* \"#utility.yul\":1740:1745   */\n      dup5\n        /* \"#utility.yul\":1722:1746   */\n      tag_74\n      jump\t// in\n    tag_139:\n        /* \"#utility.yul\":1713:1747   */\n      tag_79\n      jump\t// in\n    tag_138:\n        /* \"#utility.yul\":1695:1748   */\n      tag_74\n      jump\t// in\n    tag_137:\n        /* \"#utility.yul\":1682:1748   */\n      swap1\n      pop\n        /* \"#utility.yul\":1612:1754   */\n      swap2\n      swap1\n      pop\n      jump\t// out\n        /* \"#utility.yul\":1760:1886   */\n    tag_81:\n        /* \"#utility.yul\":1810:1819   */\n      0x00\n        /* \"#utility.yul\":1843:1880   */\n      tag_141\n        /* \"#utility.yul\":1874:1879   */\n      dup3\n        /* \"#utility.yul\":1843:1880   */\n      tag_80\n      jump\t// in\n    tag_141:\n        /* \"#utility.yul\":1830:1880   */\n      swap1\n      pop\n        /* \"#utility.yul\":1760:1886   */\n      swap2\n      swap1\n      pop\n      jump\t// out\n        /* \"#utility.yul\":1892:2029   */\n    tag_82:\n        /* \"#utility.yul\":1953:1962   */\n      0x00\n        /* \"#utility.yul\":1986:2023   */\n      tag_143\n        /* \"#utility.yul\":2017:2022   */\n      dup3\n        /* \"#utility.yul\":1986:2023   */\n      tag_81\n      jump\t// in\n    tag_143:\n        /* \"#utility.yul\":1973:2023   */\n      swap1\n      pop\n        /* \"#utility.yul\":1892:2029   */\n      swap2\n      swap1\n      pop\n      jump\t// out\n        /* \"#utility.yul\":2035:2188   */\n    tag_83:\n        /* \"#utility.yul\":2133:2181   */\n      tag_145\n        /* \"#utility.yul\":2175:2180   */\n      dup2\n        /* \"#utility.yul\":2133:2181   */\n      tag_82\n      jump\t// in\n    tag_145:\n        /* \"#utility.yul\":2128:2131   */\n      dup3\n        /* \"#utility.yul\":2121:2182   */\n      mstore\n        /* \"#utility.yul\":2035:2188   */\n      pop\n      pop\n      jump\t// out\n        /* \"#utility.yul\":2194:2438   */\n    tag_33:\n        /* \"#utility.yul\":2298:2302   */\n      0x00\n        /* \"#utility.yul\":2336:2338   */\n      0x20\n        /* \"#utility.yul\":2325:2334   */\n      dup3\n        /* \"#utility.yul\":2321:2339   */\n      add\n        /* \"#utility.yul\":2313:2339   */\n      swap1\n      pop\n        /* \"#utility.yul\":2349:2431   */\n      tag_147\n        /* \"#utility.yul\":2428:2429   */\n      0x00\n        /* \"#utility.yul\":2417:2426   */\n      dup4\n        /* \"#utility.yul\":2413:2430   */\n      add\n        /* \"#utility.yul\":2404:2410   */\n      dup5\n        /* \"#utility.yul\":2349:2431   */\n      tag_83\n      jump\t// in\n    tag_147:\n        /* \"#utility.yul\":2194:2438   */\n      swap3\n      swap2\n      pop\n      pop\n      jump\t// out\n        /* \"#utility.yul\":2444:2580   */\n    tag_84:\n        /* \"#utility.yul\":2504:2513   */\n      0x00\n        /* \"#utility.yul\":2537:2574   */\n      tag_149\n        /* \"#utility.yul\":2568:2573   */\n      dup3\n        /* \"#utility.yul\":2537:2574   */\n      tag_81\n      jump\t// in\n    tag_149:\n        /* \"#utility.yul\":2524:2574   */\n      swap1\n      pop\n        /* \"#utility.yul\":2444:2580   */\n      swap2\n      swap1\n      pop\n      jump\t// out\n        /* \"#utility.yul\":2586:2737   */\n    tag_85:\n        /* \"#utility.yul\":2683:2730   */\n      tag_151\n        /* \"#utility.yul\":2724:2729   */\n      dup2\n        /* \"#utility.yul\":2683:2730   */\n      tag_84\n      jump\t// in\n    tag_151:\n        /* \"#utility.yul\":2678:2681   */\n      dup3\n        /* \"#utility.yul\":2671:2731   */\n      mstore\n        /* \"#utility.yul\":2586:2737   */\n      pop\n      pop\n      jump\t// out\n        /* \"#utility.yul\":2743:2985   */\n    tag_40:\n        /* \"#utility.yul\":2846:2850   */\n      0x00\n        /* \"#utility.yul\":2884:2886   */\n      0x20\n        /* \"#utility.yul\":2873:2882   */\n      dup3\n        /* \"#utility.yul\":2869:2887   */\n      add\n        /* \"#utility.yul\":2861:2887   */\n      swap1\n      pop\n        /* \"#utility.yul\":2897:2978   */\n      tag_153\n        /* \"#utility.yul\":2975:2976   */\n      0x00\n        /* \"#utility.yul\":2964:2973   */\n      dup4\n        /* \"#utility.yul\":2960:2977   */\n      add\n        /* \"#utility.yul\":2951:2957   */\n      dup5\n        /* \"#utility.yul\":2897:2978   */\n      tag_85\n      jump\t// in\n    tag_153:\n        /* \"#utility.yul\":2743:2985   */\n      swap3\n      swap2\n      pop\n      pop\n      jump\t// out\n        /* \"#utility.yul\":2991:3066   */\n    tag_86:\n        /* \"#utility.yul\":3024:3030   */\n      0x00\n        /* \"#utility.yul\":3057:3059   */\n      0x40\n        /* \"#utility.yul\":3051:3060   */\n      mload\n        /* \"#utility.yul\":3041:3060   */\n      swap1\n      pop\n        /* \"#utility.yul\":2991:3066   */\n      swap1\n      jump\t// out\n        /* \"#utility.yul\":3072:3189   */\n    tag_87:\n        /* \"#utility.yul\":3181:3182   */\n      0x00\n        /* \"#utility.yul\":3178:3179   */\n      dup1\n        /* \"#utility.yul\":3171:3183   */\n      revert\n        /* \"#utility.yul\":3195:3312   */\n    tag_88:\n        /* \"#utility.yul\":3304:3305   */\n      0x00\n        /* \"#utility.yul\":3301:3302   */\n      dup1\n        /* \"#utility.yul\":3294:3306   */\n      revert\n        /* \"#utility.yul\":3318:3435   */\n    tag_89:\n        /* \"#utility.yul\":3427:3428   */\n      0x00\n        /* \"#utility.yul\":3424:3425   */\n      dup1\n        /* \"#utility.yul\":3417:3429   */\n      revert\n        /* \"#utility.yul\":3441:3543   */\n    tag_90:\n        /* \"#utility.yul\":3482:3488   */\n      0x00\n        /* \"#utility.yul\":3533:3535   */\n      0x1f\n        /* \"#utility.yul\":3529:3536   */\n      not\n        /* \"#utility.yul\":3524:3526   */\n      0x1f\n        /* \"#utility.yul\":3517:3522   */\n      dup4\n        /* \"#utility.yul\":3513:3527   */\n      add\n        /* \"#utility.yul\":3509:3537   */\n      and\n        /* \"#utility.yul\":3499:3537   */\n      swap1\n      pop\n        /* \"#utility.yul\":3441:3543   */\n      swap2\n      swap1\n      pop\n      jump\t// out\n        /* \"#utility.yul\":3549:3729   */\n    tag_91:\n        /* \"#utility.yul\":3597:3674   */\n      0x4e487b7100000000000000000000000000000000000000000000000000000000\n        /* \"#utility.yul\":3594:3595   */\n      0x00\n        /* \"#utility.yul\":3587:3675   */\n      mstore\n        /* \"#utility.yul\":3694:3698   */\n      0x41\n        /* \"#utility.yul\":3691:3692   */\n      0x04\n        /* \"#utility.yul\":3684:3699   */\n      mstore\n        /* \"#utility.yul\":3718:3722   */\n      0x24\n        /* \"#utility.yul\":3715:3716   */\n      0x00\n        /* \"#utility.yul\":3708:3723   */\n      revert\n        /* \"#utility.yul\":3735:4016   */\n    tag_92:\n        /* \"#utility.yul\":3818:3845   */\n      tag_161\n        /* \"#utility.yul\":3840:3844   */\n      dup3\n        /* \"#utility.yul\":3818:3845   */\n      tag_90\n      jump\t// in\n    tag_161:\n        /* \"#utility.yul\":3810:3816   */\n      dup2\n        /* \"#utility.yul\":3806:3846   */\n      add\n        /* \"#utility.yul\":3948:3954   */\n      dup2\n        /* \"#utility.yul\":3936:3946   */\n      dup2\n        /* \"#utility.yul\":3933:3955   */\n      lt\n        /* \"#utility.yul\":3912:3930   */\n      0xffffffffffffffff\n        /* \"#utility.yul\":3900:3910   */\n      dup3\n        /* \"#utility.yul\":3897:3931   */\n      gt\n        /* \"#utility.yul\":3894:3956   */\n      or\n        /* \"#utility.yul\":3891:3979   */\n      iszero\n      tag_162\n      jumpi\n        /* \"#utility.yul\":3959:3977   */\n      tag_163\n      tag_91\n      jump\t// in\n    tag_163:\n        /* \"#utility.yul\":3891:3979   */\n    tag_162:\n        /* \"#utility.yul\":3999:4009   */\n      dup1\n        /* \"#utility.yul\":3995:3997   */\n      0x40\n        /* \"#utility.yul\":3988:4010   */\n      mstore\n        /* \"#utility.yul\":3778:4016   */\n      pop\n        /* \"#utility.yul\":3735:4016   */\n      pop\n      pop\n      jump\t// out\n        /* \"#utility.yul\":4022:4151   */\n    tag_93:\n        /* \"#utility.yul\":4056:4062   */\n      0x00\n        /* \"#utility.yul\":4083:4103   */\n      tag_165\n      tag_86\n      jump\t// in\n    tag_165:\n        /* \"#utility.yul\":4073:4103   */\n      swap1\n      pop\n        /* \"#utility.yul\":4112:4145   */\n      tag_166\n        /* \"#utility.yul\":4140:4144   */\n      dup3\n        /* \"#utility.yul\":4132:4138   */\n      dup3\n        /* \"#utility.yul\":4112:4145   */\n      tag_92\n      jump\t// in\n    tag_166:\n        /* \"#utility.yul\":4022:4151   */\n      swap2\n      swap1\n      pop\n      jump\t// out\n        /* \"#utility.yul\":4157:4274   */\n    tag_94:\n        /* \"#utility.yul\":4266:4267   */\n      0x00\n        /* \"#utility.yul\":4263:4264   */\n      dup1\n        /* \"#utility.yul\":4256:4268   */\n      revert\n        /* \"#utility.yul\":4280:4402   */\n    tag_95:\n        /* \"#utility.yul\":4353:4377   */\n      tag_169\n        /* \"#utility.yul\":4371:4376   */\n      dup2\n        /* \"#utility.yul\":4353:4377   */\n      tag_75\n      jump\t// in\n    tag_169:\n        /* \"#utility.yul\":4346:4351   */\n      dup2\n        /* \"#utility.yul\":4343:4378   */\n      eq\n        /* \"#utility.yul\":4333:4396   */\n      tag_170\n      jumpi\n        /* \"#utility.yul\":4392:4393   */\n      0x00\n        /* \"#utility.yul\":4389:4390   */\n      dup1\n        /* \"#utility.yul\":4382:4394   */\n      revert\n        /* \"#utility.yul\":4333:4396   */\n    tag_170:\n        /* \"#utility.yul\":4280:4402   */\n      pop\n      jump\t// out\n        /* \"#utility.yul\":4408:4551   */\n    tag_96:\n        /* \"#utility.yul\":4465:4470   */\n      0x00\n        /* \"#utility.yul\":4496:4502   */\n      dup2\n        /* \"#utility.yul\":4490:4503   */\n      mload\n        /* \"#utility.yul\":4481:4503   */\n      swap1\n      pop\n        /* \"#utility.yul\":4512:4545   */\n      tag_172\n        /* \"#utility.yul\":4539:4544   */\n      dup2\n        /* \"#utility.yul\":4512:4545   */\n      tag_95\n      jump\t// in\n    tag_172:\n        /* \"#utility.yul\":4408:4551   */\n      swap3\n      swap2\n      pop\n      pop\n      jump\t// out\n        /* \"#utility.yul\":4557:4674   */\n    tag_97:\n        /* \"#utility.yul\":4666:4667   */\n      0x00\n        /* \"#utility.yul\":4663:4664   */\n      dup1\n        /* \"#utility.yul\":4656:4668   */\n      revert\n        /* \"#utility.yul\":4680:4797   */\n    tag_98:\n        /* \"#utility.yul\":4789:4790   */\n      0x00\n        /* \"#utility.yul\":4786:4787   */\n      dup1\n        /* \"#utility.yul\":4779:4791   */\n      revert\n        /* \"#utility.yul\":4803:5111   */\n    tag_99:\n        /* \"#utility.yul\":4865:4869   */\n      0x00\n        /* \"#utility.yul\":4955:4973   */\n      0xffffffffffffffff\n        /* \"#utility.yul\":4947:4953   */\n      dup3\n        /* \"#utility.yul\":4944:4974   */\n      gt\n        /* \"#utility.yul\":4941:4997   */\n      iszero\n      tag_176\n      jumpi\n        /* \"#utility.yul\":4977:4995   */\n      tag_177\n      tag_91\n      jump\t// in\n    tag_177:\n        /* \"#utility.yul\":4941:4997   */\n    tag_176:\n        /* \"#utility.yul\":5015:5044   */\n      tag_178\n        /* \"#utility.yul\":5037:5043   */\n      dup3\n        /* \"#utility.yul\":5015:5044   */\n      tag_90\n      jump\t// in\n    tag_178:\n        /* \"#utility.yul\":5007:5044   */\n      swap1\n      pop\n        /* \"#utility.yul\":5099:5103   */\n      0x20\n        /* \"#utility.yul\":5093:5097   */\n      dup2\n        /* \"#utility.yul\":5089:5104   */\n      add\n        /* \"#utility.yul\":5081:5104   */\n      swap1\n      pop\n        /* \"#utility.yul\":4803:5111   */\n      swap2\n      swap1\n      pop\n      jump\t// out\n        /* \"#utility.yul\":5117:5363   */\n    tag_100:\n        /* \"#utility.yul\":5198:5199   */\n      0x00\n        /* \"#utility.yul\":5208:5321   */\n    tag_180:\n        /* \"#utility.yul\":5222:5228   */\n      dup4\n        /* \"#utility.yul\":5219:5220   */\n      dup2\n        /* \"#utility.yul\":5216:5229   */\n      lt\n        /* \"#utility.yul\":5208:5321   */\n      iszero\n      tag_182\n      jumpi\n        /* \"#utility.yul\":5307:5308   */\n      dup1\n        /* \"#utility.yul\":5302:5305   */\n      dup3\n        /* \"#utility.yul\":5298:5309   */\n      add\n        /* \"#utility.yul\":5292:5310   */\n      mload\n        /* \"#utility.yul\":5288:5289   */\n      dup2\n        /* \"#utility.yul\":5283:5286   */\n      dup5\n        /* \"#utility.yul\":5279:5290   */\n      add\n        /* \"#utility.yul\":5272:5311   */\n      mstore\n        /* \"#utility.yul\":5244:5246   */\n      0x20\n        /* \"#utility.yul\":5241:5242   */\n      dup2\n        /* \"#utility.yul\":5237:5247   */\n      add\n        /* \"#utility.yul\":5232:5247   */\n      swap1\n      pop\n        /* \"#utility.yul\":5208:5321   */\n      jump(tag_180)\n    tag_182:\n        /* \"#utility.yul\":5355:5356   */\n      0x00\n        /* \"#utility.yul\":5346:5352   */\n      dup5\n        /* \"#utility.yul\":5341:5344   */\n      dup5\n        /* \"#utility.yul\":5337:5353   */\n      add\n        /* \"#utility.yul\":5330:5357   */\n      mstore\n        /* \"#utility.yul\":5179:5363   */\n      pop\n        /* \"#utility.yul\":5117:5363   */\n      pop\n      pop\n      pop\n      jump\t// out\n        /* \"#utility.yul\":5369:5803   */\n    tag_101:\n        /* \"#utility.yul\":5458:5463   */\n      0x00\n        /* \"#utility.yul\":5483:5549   */\n      tag_184\n        /* \"#utility.yul\":5499:5548   */\n      tag_185\n        /* \"#utility.yul\":5541:5547   */\n      dup5\n        /* \"#utility.yul\":5499:5548   */\n      tag_99\n      jump\t// in\n    tag_185:\n        /* \"#utility.yul\":5483:5549   */\n      tag_93\n      jump\t// in\n    tag_184:\n        /* \"#utility.yul\":5474:5549   */\n      swap1\n      pop\n        /* \"#utility.yul\":5572:5578   */\n      dup3\n        /* \"#utility.yul\":5565:5570   */\n      dup2\n        /* \"#utility.yul\":5558:5579   */\n      mstore\n        /* \"#utility.yul\":5610:5614   */\n      0x20\n        /* \"#utility.yul\":5603:5608   */\n      dup2\n        /* \"#utility.yul\":5599:5615   */\n      add\n        /* \"#utility.yul\":5648:5651   */\n      dup5\n        /* \"#utility.yul\":5639:5645   */\n      dup5\n        /* \"#utility.yul\":5634:5637   */\n      dup5\n        /* \"#utility.yul\":5630:5646   */\n      add\n        /* \"#utility.yul\":5627:5652   */\n      gt\n        /* \"#utility.yul\":5624:5736   */\n      iszero\n      tag_186\n      jumpi\n        /* \"#utility.yul\":5655:5734   */\n      tag_187\n      tag_98\n      jump\t// in\n    tag_187:\n        /* \"#utility.yul\":5624:5736   */\n    tag_186:\n        /* \"#utility.yul\":5745:5797   */\n      tag_188\n        /* \"#utility.yul\":5790:5796   */\n      dup5\n        /* \"#utility.yul\":5785:5788   */\n      dup3\n        /* \"#utility.yul\":5780:5783   */\n      dup6\n        /* \"#utility.yul\":5745:5797   */\n      tag_100\n      jump\t// in\n    tag_188:\n        /* \"#utility.yul\":5464:5803   */\n      pop\n        /* \"#utility.yul\":5369:5803   */\n      swap4\n      swap3\n      pop\n      pop\n      pop\n      jump\t// out\n        /* \"#utility.yul\":5823:6178   */\n    tag_102:\n        /* \"#utility.yul\":5890:5895   */\n      0x00\n        /* \"#utility.yul\":5939:5942   */\n      dup3\n        /* \"#utility.yul\":5932:5936   */\n      0x1f\n        /* \"#utility.yul\":5924:5930   */\n      dup4\n        /* \"#utility.yul\":5920:5937   */\n      add\n        /* \"#utility.yul\":5916:5943   */\n      slt\n        /* \"#utility.yul\":5906:6028   */\n      tag_190\n      jumpi\n        /* \"#utility.yul\":5947:6026   */\n      tag_191\n      tag_97\n      jump\t// in\n    tag_191:\n        /* \"#utility.yul\":5906:6028   */\n    tag_190:\n        /* \"#utility.yul\":6057:6063   */\n      dup2\n        /* \"#utility.yul\":6051:6064   */\n      mload\n        /* \"#utility.yul\":6082:6172   */\n      tag_192\n        /* \"#utility.yul\":6168:6171   */\n      dup5\n        /* \"#utility.yul\":6160:6166   */\n      dup3\n        /* \"#utility.yul\":6153:6157   */\n      0x20\n        /* \"#utility.yul\":6145:6151   */\n      dup7\n        /* \"#utility.yul\":6141:6158   */\n      add\n        /* \"#utility.yul\":6082:6172   */\n      tag_101\n      jump\t// in\n    tag_192:\n        /* \"#utility.yul\":6073:6172   */\n      swap2\n      pop\n        /* \"#utility.yul\":5896:6178   */\n      pop\n        /* \"#utility.yul\":5823:6178   */\n      swap3\n      swap2\n      pop\n      pop\n      jump\t// out\n        /* \"#utility.yul\":6217:8700   */\n    tag_103:\n        /* \"#utility.yul\":6307:6312   */\n      0x00\n        /* \"#utility.yul\":6351:6355   */\n      0xe0\n        /* \"#utility.yul\":6339:6348   */\n      dup3\n        /* \"#utility.yul\":6334:6337   */\n      dup5\n        /* \"#utility.yul\":6330:6349   */\n      sub\n        /* \"#utility.yul\":6326:6356   */\n      slt\n        /* \"#utility.yul\":6323:6440   */\n      iszero\n      tag_194\n      jumpi\n        /* \"#utility.yul\":6359:6438   */\n      tag_195\n      tag_89\n      jump\t// in\n    tag_195:\n        /* \"#utility.yul\":6323:6440   */\n    tag_194:\n        /* \"#utility.yul\":6458:6479   */\n      tag_196\n        /* \"#utility.yul\":6474:6478   */\n      0xe0\n        /* \"#utility.yul\":6458:6479   */\n      tag_93\n      jump\t// in\n    tag_196:\n        /* \"#utility.yul\":6449:6479   */\n      swap1\n      pop\n        /* \"#utility.yul\":6545:6546   */\n      0x00\n        /* \"#utility.yul\":6585:6645   */\n      tag_197\n        /* \"#utility.yul\":6641:6644   */\n      dup5\n        /* \"#utility.yul\":6632:6638   */\n      dup3\n        /* \"#utility.yul\":6621:6630   */\n      dup6\n        /* \"#utility.yul\":6617:6639   */\n      add\n        /* \"#utility.yul\":6585:6645   */\n      tag_96\n      jump\t// in\n    tag_197:\n        /* \"#utility.yul\":6578:6582   */\n      0x00\n        /* \"#utility.yul\":6571:6576   */\n      dup4\n        /* \"#utility.yul\":6567:6583   */\n      add\n        /* \"#utility.yul\":6560:6646   */\n      mstore\n        /* \"#utility.yul\":6489:6657   */\n      pop\n        /* \"#utility.yul\":6737:6739   */\n      0x20\n        /* \"#utility.yul\":6726:6735   */\n      dup3\n        /* \"#utility.yul\":6722:6740   */\n      add\n        /* \"#utility.yul\":6716:6741   */\n      mload\n        /* \"#utility.yul\":6768:6786   */\n      0xffffffffffffffff\n        /* \"#utility.yul\":6760:6766   */\n      dup2\n        /* \"#utility.yul\":6757:6787   */\n      gt\n        /* \"#utility.yul\":6754:6871   */\n      iszero\n      tag_198\n      jumpi\n        /* \"#utility.yul\":6790:6869   */\n      tag_199\n      tag_94\n      jump\t// in\n    tag_199:\n        /* \"#utility.yul\":6754:6871   */\n    tag_198:\n        /* \"#utility.yul\":6910:6980   */\n      tag_200\n        /* \"#utility.yul\":6976:6979   */\n      dup5\n        /* \"#utility.yul\":6967:6973   */\n      dup3\n        /* \"#utility.yul\":6956:6965   */\n      dup6\n        /* \"#utility.yul\":6952:6974   */\n      add\n        /* \"#utility.yul\":6910:6980   */\n      tag_102\n      jump\t// in\n    tag_200:\n        /* \"#utility.yul\":6903:6907   */\n      0x20\n        /* \"#utility.yul\":6896:6901   */\n      dup4\n        /* \"#utility.yul\":6892:6908   */\n      add\n        /* \"#utility.yul\":6885:6981   */\n      mstore\n        /* \"#utility.yul\":6667:6992   */\n      pop\n        /* \"#utility.yul\":7077:7079   */\n      0x40\n        /* \"#utility.yul\":7066:7075   */\n      dup3\n        /* \"#utility.yul\":7062:7080   */\n      add\n        /* \"#utility.yul\":7056:7081   */\n      mload\n        /* \"#utility.yul\":7108:7126   */\n      0xffffffffffffffff\n        /* \"#utility.yul\":7100:7106   */\n      dup2\n        /* \"#utility.yul\":7097:7127   */\n      gt\n        /* \"#utility.yul\":7094:7211   */\n      iszero\n      tag_201\n      jumpi\n        /* \"#utility.yul\":7130:7209   */\n      tag_202\n      tag_94\n      jump\t// in\n    tag_202:\n        /* \"#utility.yul\":7094:7211   */\n    tag_201:\n        /* \"#utility.yul\":7250:7320   */\n      tag_203\n        /* \"#utility.yul\":7316:7319   */\n      dup5\n        /* \"#utility.yul\":7307:7313   */\n      dup3\n        /* \"#utility.yul\":7296:7305   */\n      dup6\n        /* \"#utility.yul\":7292:7314   */\n      add\n        /* \"#utility.yul\":7250:7320   */\n      tag_102\n      jump\t// in\n    tag_203:\n        /* \"#utility.yul\":7243:7247   */\n      0x40\n        /* \"#utility.yul\":7236:7241   */\n      dup4\n        /* \"#utility.yul\":7232:7248   */\n      add\n        /* \"#utility.yul\":7225:7321   */\n      mstore\n        /* \"#utility.yul\":7002:7332   */\n      pop\n        /* \"#utility.yul\":7416:7418   */\n      0x60\n        /* \"#utility.yul\":7405:7414   */\n      dup3\n        /* \"#utility.yul\":7401:7419   */\n      add\n        /* \"#utility.yul\":7395:7420   */\n      mload\n        /* \"#utility.yul\":7447:7465   */\n      0xffffffffffffffff\n        /* \"#utility.yul\":7439:7445   */\n      dup2\n        /* \"#utility.yul\":7436:7466   */\n      gt\n        /* \"#utility.yul\":7433:7550   */\n      iszero\n      tag_204\n      jumpi\n        /* \"#utility.yul\":7469:7548   */\n      tag_205\n      tag_94\n      jump\t// in\n    tag_205:\n        /* \"#utility.yul\":7433:7550   */\n    tag_204:\n        /* \"#utility.yul\":7589:7659   */\n      tag_206\n        /* \"#utility.yul\":7655:7658   */\n      dup5\n        /* \"#utility.yul\":7646:7652   */\n      dup3\n        /* \"#utility.yul\":7635:7644   */\n      dup6\n        /* \"#utility.yul\":7631:7653   */\n      add\n        /* \"#utility.yul\":7589:7659   */\n      tag_102\n      jump\t// in\n    tag_206:\n        /* \"#utility.yul\":7582:7586   */\n      0x60\n        /* \"#utility.yul\":7575:7580   */\n      dup4\n        /* \"#utility.yul\":7571:7587   */\n      add\n        /* \"#utility.yul\":7564:7660   */\n      mstore\n        /* \"#utility.yul\":7342:7671   */\n      pop\n        /* \"#utility.yul\":7754:7757   */\n      0x80\n        /* \"#utility.yul\":7743:7752   */\n      dup3\n        /* \"#utility.yul\":7739:7758   */\n      add\n        /* \"#utility.yul\":7733:7759   */\n      mload\n        /* \"#utility.yul\":7786:7804   */\n      0xffffffffffffffff\n        /* \"#utility.yul\":7778:7784   */\n      dup2\n        /* \"#utility.yul\":7775:7805   */\n      gt\n        /* \"#utility.yul\":7772:7889   */\n      iszero\n      tag_207\n      jumpi\n        /* \"#utility.yul\":7808:7887   */\n      tag_208\n      tag_94\n      jump\t// in\n    tag_208:\n        /* \"#utility.yul\":7772:7889   */\n    tag_207:\n        /* \"#utility.yul\":7928:7998   */\n      tag_209\n        /* \"#utility.yul\":7994:7997   */\n      dup5\n        /* \"#utility.yul\":7985:7991   */\n      dup3\n        /* \"#utility.yul\":7974:7983   */\n      dup6\n        /* \"#utility.yul\":7970:7992   */\n      add\n        /* \"#utility.yul\":7928:7998   */\n      tag_102\n      jump\t// in\n    tag_209:\n        /* \"#utility.yul\":7921:7925   */\n      0x80\n        /* \"#utility.yul\":7914:7919   */\n      dup4\n        /* \"#utility.yul\":7910:7926   */\n      add\n        /* \"#utility.yul\":7903:7999   */\n      mstore\n        /* \"#utility.yul\":7681:8010   */\n      pop\n        /* \"#utility.yul\":8094:8097   */\n      0xa0\n        /* \"#utility.yul\":8083:8092   */\n      dup3\n        /* \"#utility.yul\":8079:8098   */\n      add\n        /* \"#utility.yul\":8073:8099   */\n      mload\n        /* \"#utility.yul\":8126:8144   */\n      0xffffffffffffffff\n        /* \"#utility.yul\":8118:8124   */\n      dup2\n        /* \"#utility.yul\":8115:8145   */\n      gt\n        /* \"#utility.yul\":8112:8229   */\n      iszero\n      tag_210\n      jumpi\n        /* \"#utility.yul\":8148:8227   */\n      tag_211\n      tag_94\n      jump\t// in\n    tag_211:\n        /* \"#utility.yul\":8112:8229   */\n    tag_210:\n        /* \"#utility.yul\":8268:8338   */\n      tag_212\n        /* \"#utility.yul\":8334:8337   */\n      dup5\n        /* \"#utility.yul\":8325:8331   */\n      dup3\n        /* \"#utility.yul\":8314:8323   */\n      dup6\n        /* \"#utility.yul\":8310:8332   */\n      add\n        /* \"#utility.yul\":8268:8338   */\n      tag_102\n      jump\t// in\n    tag_212:\n        /* \"#utility.yul\":8261:8265   */\n      0xa0\n        /* \"#utility.yul\":8254:8259   */\n      dup4\n        /* \"#utility.yul\":8250:8266   */\n      add\n        /* \"#utility.yul\":8243:8339   */\n      mstore\n        /* \"#utility.yul\":8020:8350   */\n      pop\n        /* \"#utility.yul\":8437:8440   */\n      0xc0\n        /* \"#utility.yul\":8426:8435   */\n      dup3\n        /* \"#utility.yul\":8422:8441   */\n      add\n        /* \"#utility.yul\":8416:8442   */\n      mload\n        /* \"#utility.yul\":8469:8487   */\n      0xffffffffffffffff\n        /* \"#utility.yul\":8461:8467   */\n      dup2\n        /* \"#utility.yul\":8458:8488   */\n      gt\n        /* \"#utility.yul\":8455:8572   */\n      iszero\n      tag_213\n      jumpi\n        /* \"#utility.yul\":8491:8570   */\n      tag_214\n      tag_94\n      jump\t// in\n    tag_214:\n        /* \"#utility.yul\":8455:8572   */\n    tag_213:\n        /* \"#utility.yul\":8611:8681   */\n      tag_215\n        /* \"#utility.yul\":8677:8680   */\n      dup5\n        /* \"#utility.yul\":8668:8674   */\n      dup3\n        /* \"#utility.yul\":8657:8666   */\n      dup6\n        /* \"#utility.yul\":8653:8675   */\n      add\n        /* \"#utility.yul\":8611:8681   */\n      tag_102\n      jump\t// in\n    tag_215:\n        /* \"#utility.yul\":8604:8608   */\n      0xc0\n        /* \"#utility.yul\":8597:8602   */\n      dup4\n        /* \"#utility.yul\":8593:8609   */\n      add\n        /* \"#utility.yul\":8586:8682   */\n      mstore\n        /* \"#utility.yul\":8360:8693   */\n      pop\n        /* \"#utility.yul\":6217:8700   */\n      swap3\n      swap2\n      pop\n      pop\n      jump\t// out\n        /* \"#utility.yul\":8706:9270   */\n    tag_51:\n        /* \"#utility.yul\":8806:8812   */\n      0x00\n        /* \"#utility.yul\":8855:8857   */\n      0x20\n        /* \"#utility.yul\":8843:8852   */\n      dup3\n        /* \"#utility.yul\":8834:8841   */\n      dup5\n        /* \"#utility.yul\":8830:8853   */\n      sub\n        /* \"#utility.yul\":8826:8858   */\n      slt\n        /* \"#utility.yul\":8823:8942   */\n      iszero\n      tag_217\n      jumpi\n        /* \"#utility.yul\":8861:8940   */\n      tag_218\n      tag_87\n      jump\t// in\n    tag_218:\n        /* \"#utility.yul\":8823:8942   */\n    tag_217:\n        /* \"#utility.yul\":9002:9003   */\n      0x00\n        /* \"#utility.yul\":8991:9000   */\n      dup3\n        /* \"#utility.yul\":8987:9004   */\n      add\n        /* \"#utility.yul\":8981:9005   */\n      mload\n        /* \"#utility.yul\":9032:9050   */\n      0xffffffffffffffff\n        /* \"#utility.yul\":9024:9030   */\n      dup2\n        /* \"#utility.yul\":9021:9051   */\n      gt\n        /* \"#utility.yul\":9018:9135   */\n      iszero\n      tag_219\n      jumpi\n        /* \"#utility.yul\":9054:9133   */\n      tag_220\n      tag_88\n      jump\t// in\n    tag_220:\n        /* \"#utility.yul\":9018:9135   */\n    tag_219:\n        /* \"#utility.yul\":9159:9253   */\n      tag_221\n        /* \"#utility.yul\":9245:9252   */\n      dup5\n        /* \"#utility.yul\":9236:9242   */\n      dup3\n        /* \"#utility.yul\":9225:9234   */\n      dup6\n        /* \"#utility.yul\":9221:9243   */\n      add\n        /* \"#utility.yul\":9159:9253   */\n      tag_103\n      jump\t// in\n    tag_221:\n        /* \"#utility.yul\":9149:9253   */\n      swap2\n      pop\n        /* \"#utility.yul\":8952:9263   */\n      pop\n        /* \"#utility.yul\":8706:9270   */\n      swap3\n      swap2\n      pop\n      pop\n      jump\t// out\n        /* \"#utility.yul\":9276:9375   */\n    tag_104:\n        /* \"#utility.yul\":9328:9334   */\n      0x00\n        /* \"#utility.yul\":9362:9367   */\n      dup2\n        /* \"#utility.yul\":9356:9368   */\n      mload\n        /* \"#utility.yul\":9346:9368   */\n      swap1\n      pop\n        /* \"#utility.yul\":9276:9375   */\n      swap2\n      swap1\n      pop\n      jump\t// out\n        /* \"#utility.yul\":9381:9550   */\n    tag_105:\n        /* \"#utility.yul\":9465:9476   */\n      0x00\n        /* \"#utility.yul\":9499:9505   */\n      dup3\n        /* \"#utility.yul\":9494:9497   */\n      dup3\n        /* \"#utility.yul\":9487:9506   */\n      mstore\n        /* \"#utility.yul\":9539:9543   */\n      0x20\n        /* \"#utility.yul\":9534:9537   */\n      dup3\n        /* \"#utility.yul\":9530:9544   */\n      add\n        /* \"#utility.yul\":9515:9544   */\n      swap1\n      pop\n        /* \"#utility.yul\":9381:9550   */\n      swap3\n      swap2\n      pop\n      pop\n      jump\t// out\n        /* \"#utility.yul\":9556:9933   */\n    tag_106:\n        /* \"#utility.yul\":9644:9647   */\n      0x00\n        /* \"#utility.yul\":9672:9711   */\n      tag_225\n        /* \"#utility.yul\":9705:9710   */\n      dup3\n        /* \"#utility.yul\":9672:9711   */\n      tag_104\n      jump\t// in\n    tag_225:\n        /* \"#utility.yul\":9727:9798   */\n      tag_226\n        /* \"#utility.yul\":9791:9797   */\n      dup2\n        /* \"#utility.yul\":9786:9789   */\n      dup6\n        /* \"#utility.yul\":9727:9798   */\n      tag_105\n      jump\t// in\n    tag_226:\n        /* \"#utility.yul\":9720:9798   */\n      swap4\n      pop\n        /* \"#utility.yul\":9807:9872   */\n      tag_227\n        /* \"#utility.yul\":9865:9871   */\n      dup2\n        /* \"#utility.yul\":9860:9863   */\n      dup6\n        /* \"#utility.yul\":9853:9857   */\n      0x20\n        /* \"#utility.yul\":9846:9851   */\n      dup7\n        /* \"#utility.yul\":9842:9858   */\n      add\n        /* \"#utility.yul\":9807:9872   */\n      tag_100\n      jump\t// in\n    tag_227:\n        /* \"#utility.yul\":9897:9926   */\n      tag_228\n        /* \"#utility.yul\":9919:9925   */\n      dup2\n        /* \"#utility.yul\":9897:9926   */\n      tag_90\n      jump\t// in\n    tag_228:\n        /* \"#utility.yul\":9892:9895   */\n      dup5\n        /* \"#utility.yul\":9888:9927   */\n      add\n        /* \"#utility.yul\":9881:9927   */\n      swap2\n      pop\n        /* \"#utility.yul\":9648:9933   */\n      pop\n        /* \"#utility.yul\":9556:9933   */\n      swap3\n      swap2\n      pop\n      pop\n      jump\t// out\n        /* \"#utility.yul\":9939:10362   */\n    tag_53:\n        /* \"#utility.yul\":10080:10084   */\n      0x00\n        /* \"#utility.yul\":10118:10120   */\n      0x40\n        /* \"#utility.yul\":10107:10116   */\n      dup3\n        /* \"#utility.yul\":10103:10121   */\n      add\n        /* \"#utility.yul\":10095:10121   */\n      swap1\n      pop\n        /* \"#utility.yul\":10167:10176   */\n      dup2\n        /* \"#utility.yul\":10161:10165   */\n      dup2\n        /* \"#utility.yul\":10157:10177   */\n      sub\n        /* \"#utility.yul\":10153:10154   */\n      0x00\n        /* \"#utility.yul\":10142:10151   */\n      dup4\n        /* \"#utility.yul\":10138:10155   */\n      add\n        /* \"#utility.yul\":10131:10178   */\n      mstore\n        /* \"#utility.yul\":10195:10273   */\n      tag_230\n        /* \"#utility.yul\":10268:10272   */\n      dup2\n        /* \"#utility.yul\":10259:10265   */\n      dup6\n        /* \"#utility.yul\":10195:10273   */\n      tag_106\n      jump\t// in\n    tag_230:\n        /* \"#utility.yul\":10187:10273   */\n      swap1\n      pop\n        /* \"#utility.yul\":10283:10355   */\n      tag_231\n        /* \"#utility.yul\":10351:10353   */\n      0x20\n        /* \"#utility.yul\":10340:10349   */\n      dup4\n        /* \"#utility.yul\":10336:10354   */\n      add\n        /* \"#utility.yul\":10327:10333   */\n      dup5\n        /* \"#utility.yul\":10283:10355   */\n      tag_73\n      jump\t// in\n    tag_231:\n        /* \"#utility.yul\":9939:10362   */\n      swap4\n      swap3\n      pop\n      pop\n      pop\n      jump\t// out\n        /* \"#utility.yul\":10368:10681   */\n    tag_55:\n        /* \"#utility.yul\":10481:10485   */\n      0x00\n        /* \"#utility.yul\":10519:10521   */\n      0x20\n        /* \"#utility.yul\":10508:10517   */\n      dup3\n        /* \"#utility.yul\":10504:10522   */\n      add\n        /* \"#utility.yul\":10496:10522   */\n      swap1\n      pop\n        /* \"#utility.yul\":10568:10577   */\n      dup2\n        /* \"#utility.yul\":10562:10566   */\n      dup2\n        /* \"#utility.yul\":10558:10578   */\n      sub\n        /* \"#utility.yul\":10554:10555   */\n      0x00\n        /* \"#utility.yul\":10543:10552   */\n      dup4\n        /* \"#utility.yul\":10539:10556   */\n      add\n        /* \"#utility.yul\":10532:10579   */\n      mstore\n        /* \"#utility.yul\":10596:10674   */\n      tag_233\n        /* \"#utility.yul\":10669:10673   */\n      dup2\n        /* \"#utility.yul\":10660:10666   */\n      dup5\n        /* \"#utility.yul\":10596:10674   */\n      tag_106\n      jump\t// in\n    tag_233:\n        /* \"#utility.yul\":10588:10674   */\n      swap1\n      pop\n        /* \"#utility.yul\":10368:10681   */\n      swap3\n      swap2\n      pop\n      pop\n      jump\t// out\n        /* \"#utility.yul\":10687:10777   */\n    tag_107:\n        /* \"#utility.yul\":10721:10728   */\n      0x00\n        /* \"#utility.yul\":10764:10769   */\n      dup2\n        /* \"#utility.yul\":10757:10770   */\n      iszero\n        /* \"#utility.yul\":10750:10771   */\n      iszero\n        /* \"#utility.yul\":10739:10771   */\n      swap1\n      pop\n        /* \"#utility.yul\":10687:10777   */\n      swap2\n      swap1\n      pop\n      jump\t// out\n        /* \"#utility.yul\":10783:10899   */\n    tag_108:\n        /* \"#utility.yul\":10853:10874   */\n      tag_236\n        /* \"#utility.yul\":10868:10873   */\n      dup2\n        /* \"#utility.yul\":10853:10874   */\n      tag_107\n      jump\t// in\n    tag_236:\n        /* \"#utility.yul\":10846:10851   */\n      dup2\n        /* \"#utility.yul\":10843:10875   */\n      eq\n        /* \"#utility.yul\":10833:10893   */\n      tag_237\n      jumpi\n        /* \"#utility.yul\":10889:10890   */\n      0x00\n        /* \"#utility.yul\":10886:10887   */\n      dup1\n        /* \"#utility.yul\":10879:10891   */\n      revert\n        /* \"#utility.yul\":10833:10893   */\n    tag_237:\n        /* \"#utility.yul\":10783:10899   */\n      pop\n      jump\t// out\n        /* \"#utility.yul\":10905:11042   */\n    tag_109:\n        /* \"#utility.yul\":10959:10964   */\n      0x00\n        /* \"#utility.yul\":10990:10996   */\n      dup2\n        /* \"#utility.yul\":10984:10997   */\n      mload\n        /* \"#utility.yul\":10975:10997   */\n      swap1\n      pop\n        /* \"#utility.yul\":11006:11036   */\n      tag_239\n        /* \"#utility.yul\":11030:11035   */\n      dup2\n        /* \"#utility.yul\":11006:11036   */\n      tag_108\n      jump\t// in\n    tag_239:\n        /* \"#utility.yul\":10905:11042   */\n      swap3\n      swap2\n      pop\n      pop\n      jump\t// out\n        /* \"#utility.yul\":11048:11393   */\n    tag_59:\n        /* \"#utility.yul\":11115:11121   */\n      0x00\n        /* \"#utility.yul\":11164:11166   */\n      0x20\n        /* \"#utility.yul\":11152:11161   */\n      dup3\n        /* \"#utility.yul\":11143:11150   */\n      dup5\n        /* \"#utility.yul\":11139:11162   */\n      sub\n        /* \"#utility.yul\":11135:11167   */\n      slt\n        /* \"#utility.yul\":11132:11251   */\n      iszero\n      tag_241\n      jumpi\n        /* \"#utility.yul\":11170:11249   */\n      tag_242\n      tag_87\n      jump\t// in\n    tag_242:\n        /* \"#utility.yul\":11132:11251   */\n    tag_241:\n        /* \"#utility.yul\":11290:11291   */\n      0x00\n        /* \"#utility.yul\":11315:11376   */\n      tag_243\n        /* \"#utility.yul\":11368:11375   */\n      dup5\n        /* \"#utility.yul\":11359:11365   */\n      dup3\n        /* \"#utility.yul\":11348:11357   */\n      dup6\n        /* \"#utility.yul\":11344:11366   */\n      add\n        /* \"#utility.yul\":11315:11376   */\n      tag_109\n      jump\t// in\n    tag_243:\n        /* \"#utility.yul\":11305:11376   */\n      swap2\n      pop\n        /* \"#utility.yul\":11261:11386   */\n      pop\n        /* \"#utility.yul\":11048:11393   */\n      swap3\n      swap2\n      pop\n      pop\n      jump\t// out\n        /* \"#utility.yul\":11399:11508   */\n    tag_110:\n        /* \"#utility.yul\":11480:11501   */\n      tag_245\n        /* \"#utility.yul\":11495:11500   */\n      dup2\n        /* \"#utility.yul\":11480:11501   */\n      tag_107\n      jump\t// in\n    tag_245:\n        /* \"#utility.yul\":11475:11478   */\n      dup3\n        /* \"#utility.yul\":11468:11502   */\n      mstore\n        /* \"#utility.yul\":11399:11508   */\n      pop\n      pop\n      jump\t// out\n        /* \"#utility.yul\":11514:11834   */\n    tag_61:\n        /* \"#utility.yul\":11629:11633   */\n      0x00\n        /* \"#utility.yul\":11667:11669   */\n      0x40\n        /* \"#utility.yul\":11656:11665   */\n      dup3\n        /* \"#utility.yul\":11652:11670   */\n      add\n        /* \"#utility.yul\":11644:11670   */\n      swap1\n      pop\n        /* \"#utility.yul\":11680:11745   */\n      tag_247\n        /* \"#utility.yul\":11742:11743   */\n      0x00\n        /* \"#utility.yul\":11731:11740   */\n      dup4\n        /* \"#utility.yul\":11727:11744   */\n      add\n        /* \"#utility.yul\":11718:11724   */\n      dup6\n        /* \"#utility.yul\":11680:11745   */\n      tag_110\n      jump\t// in\n    tag_247:\n        /* \"#utility.yul\":11755:11827   */\n      tag_248\n        /* \"#utility.yul\":11823:11825   */\n      0x20\n        /* \"#utility.yul\":11812:11821   */\n      dup4\n        /* \"#utility.yul\":11808:11826   */\n      add\n        /* \"#utility.yul\":11799:11805   */\n      dup5\n        /* \"#utility.yul\":11755:11827   */\n      tag_73\n      jump\t// in\n    tag_248:\n        /* \"#utility.yul\":11514:11834   */\n      swap4\n      swap3\n      pop\n      pop\n      pop\n      jump\t// out\n        /* \"#utility.yul\":11840:11987   */\n    tag_111:\n        /* \"#utility.yul\":11941:11952   */\n      0x00\n        /* \"#utility.yul\":11978:11981   */\n      dup2\n        /* \"#utility.yul\":11963:11981   */\n      swap1\n      pop\n        /* \"#utility.yul\":11840:11987   */\n      swap3\n      swap2\n      pop\n      pop\n      jump\t// out\n        /* \"#utility.yul\":11993:12107   */\n    tag_112:\n      pop\n      jump\t// out\n        /* \"#utility.yul\":12113:12511   */\n    tag_113:\n        /* \"#utility.yul\":12272:12275   */\n      0x00\n        /* \"#utility.yul\":12293:12376   */\n      tag_252\n        /* \"#utility.yul\":12374:12375   */\n      0x00\n        /* \"#utility.yul\":12369:12372   */\n      dup4\n        /* \"#utility.yul\":12293:12376   */\n      tag_111\n      jump\t// in\n    tag_252:\n        /* \"#utility.yul\":12286:12376   */\n      swap2\n      pop\n        /* \"#utility.yul\":12385:12478   */\n      tag_253\n        /* \"#utility.yul\":12474:12477   */\n      dup3\n        /* \"#utility.yul\":12385:12478   */\n      tag_112\n      jump\t// in\n    tag_253:\n        /* \"#utility.yul\":12503:12504   */\n      0x00\n        /* \"#utility.yul\":12498:12501   */\n      dup3\n        /* \"#utility.yul\":12494:12505   */\n      add\n        /* \"#utility.yul\":12487:12505   */\n      swap1\n      pop\n        /* \"#utility.yul\":12113:12511   */\n      swap2\n      swap1\n      pop\n      jump\t// out\n        /* \"#utility.yul\":12517:12896   */\n    tag_65:\n        /* \"#utility.yul\":12701:12704   */\n      0x00\n        /* \"#utility.yul\":12723:12870   */\n      tag_255\n        /* \"#utility.yul\":12866:12869   */\n      dup3\n        /* \"#utility.yul\":12723:12870   */\n      tag_113\n      jump\t// in\n    tag_255:\n        /* \"#utility.yul\":12716:12870   */\n      swap2\n      pop\n        /* \"#utility.yul\":12887:12890   */\n      dup2\n        /* \"#utility.yul\":12880:12890   */\n      swap1\n      pop\n        /* \"#utility.yul\":12517:12896   */\n      swap2\n      swap1\n      pop\n      jump\t// out\n        /* \"#utility.yul\":12902:13072   */\n    tag_114:\n        /* \"#utility.yul\":13042:13064   */\n      0x4661696c656420746f2073656e64204574686572000000000000000000000000\n        /* \"#utility.yul\":13038:13039   */\n      0x00\n        /* \"#utility.yul\":13030:13036   */\n      dup3\n        /* \"#utility.yul\":13026:13040   */\n      add\n        /* \"#utility.yul\":13019:13065   */\n      mstore\n        /* \"#utility.yul\":12902:13072   */\n      pop\n      jump\t// out\n        /* \"#utility.yul\":13078:13444   */\n    tag_115:\n        /* \"#utility.yul\":13220:13223   */\n      0x00\n        /* \"#utility.yul\":13241:13308   */\n      tag_258\n        /* \"#utility.yul\":13305:13307   */\n      0x14\n        /* \"#utility.yul\":13300:13303   */\n      dup4\n        /* \"#utility.yul\":13241:13308   */\n      tag_105\n      jump\t// in\n    tag_258:\n        /* \"#utility.yul\":13234:13308   */\n      swap2\n      pop\n        /* \"#utility.yul\":13317:13410   */\n      tag_259\n        /* \"#utility.yul\":13406:13409   */\n      dup3\n        /* \"#utility.yul\":13317:13410   */\n      tag_114\n      jump\t// in\n    tag_259:\n        /* \"#utility.yul\":13435:13437   */\n      0x20\n        /* \"#utility.yul\":13430:13433   */\n      dup3\n        /* \"#utility.yul\":13426:13438   */\n      add\n        /* \"#utility.yul\":13419:13438   */\n      swap1\n      pop\n        /* \"#utility.yul\":13078:13444   */\n      swap2\n      swap1\n      pop\n      jump\t// out\n        /* \"#utility.yul\":13450:13869   */\n    tag_71:\n        /* \"#utility.yul\":13616:13620   */\n      0x00\n        /* \"#utility.yul\":13654:13656   */\n      0x20\n        /* \"#utility.yul\":13643:13652   */\n      dup3\n        /* \"#utility.yul\":13639:13657   */\n      add\n        /* \"#utility.yul\":13631:13657   */\n      swap1\n      pop\n        /* \"#utility.yul\":13703:13712   */\n      dup2\n        /* \"#utility.yul\":13697:13701   */\n      dup2\n        /* \"#utility.yul\":13693:13713   */\n      sub\n        /* \"#utility.yul\":13689:13690   */\n      0x00\n        /* \"#utility.yul\":13678:13687   */\n      dup4\n        /* \"#utility.yul\":13674:13691   */\n      add\n        /* \"#utility.yul\":13667:13714   */\n      mstore\n        /* \"#utility.yul\":13731:13862   */\n      tag_261\n        /* \"#utility.yul\":13857:13861   */\n      dup2\n        /* \"#utility.yul\":13731:13862   */\n      tag_115\n      jump\t// in\n    tag_261:\n        /* \"#utility.yul\":13723:13862   */\n      swap1\n      pop\n        /* \"#utility.yul\":13450:13869   */\n      swap2\n      swap1\n      pop\n      jump\t// out\n\n    auxdata: 0xa2646970667358221220e8b3bae1f7d6e558b3a83c0f471e2864777ec91ac894cb97df15ecfb4ca3e37864736f6c63430008110033\n}\n",
				"bytecode": {
					"linkReferences": {},
					"object": "608060405260405162000fa738038062000fa7833981810160405281019062000029919062000297565b600073ffffffffffffffffffffffffffffffffffffffff168373ffffffffffffffffffffffffffffffffffffffff16036200009b576040517f08c379a0000000000000000000000000000000000000000000000000000000008152600401620000929062000354565b60405180910390fd5b336000806101000a81548173ffffffffffffffffffffffffffffffffffffffff021916908373ffffffffffffffffffffffffffffffffffffffff16021790555082600160006101000a81548173ffffffffffffffffffffffffffffffffffffffff021916908373ffffffffffffffffffffffffffffffffffffffff16021790555081600260006101000a81548173ffffffffffffffffffffffffffffffffffffffff021916908373ffffffffffffffffffffffffffffffffffffffff16021790555081600360006101000a81548173ffffffffffffffffffffffffffffffffffffffff021916908373ffffffffffffffffffffffffffffffffffffffff16021790555080600460006101000a81548173ffffffffffffffffffffffffffffffffffffffff021916908373ffffffffffffffffffffffffffffffffffffffff16021790555050505062000376565b600080fd5b600073ffffffffffffffffffffffffffffffffffffffff82169050919050565b60006200021a82620001ed565b9050919050565b6200022c816200020d565b81146200023857600080fd5b50565b6000815190506200024c8162000221565b92915050565b60006200025f82620001ed565b9050919050565b620002718162000252565b81146200027d57600080fd5b50565b600081519050620002918162000266565b92915050565b600080600060608486031215620002b357620002b2620001e8565b5b6000620002c3868287016200023b565b9350506020620002d68682870162000280565b9250506040620002e98682870162000280565b9150509250925092565b600082825260208201905092915050565b7f7265636569766572203d207a65726f2061646472657373000000000000000000600082015250565b60006200033c601783620002f3565b9150620003498262000304565b602082019050919050565b600060208201905081810360008301526200036f816200032d565b9050919050565b610c2180620003866000396000f3fe60806040526004361061007b5760003560e01c806390d6b45f1161004e57806390d6b45f14610118578063dbd81fc114610143578063dd6ff7fa1461014d578063f7260d3e146101785761007b565b806312065fe0146100805780633d6cfcd1146100ab57806349b85a16146100c257806367e404ce146100ed575b600080fd5b34801561008c57600080fd5b506100956101a3565b6040516100a2919061053c565b60405180910390f35b3480156100b757600080fd5b506100c06101ab565b005b3480156100ce57600080fd5b506100d761038c565b6040516100e49190610598565b60405180910390f35b3480156100f957600080fd5b506101026103b2565b60405161010f91906105d4565b60405180910390f35b34801561012457600080fd5b5061012d6103d6565b60405161013a919061064e565b60405180910390f35b61014b6103fc565b005b34801561015957600080fd5b506101626104d7565b60405161016f919061068a565b60405180910390f35b34801561018457600080fd5b5061018d6104fd565b60405161019a91906105d4565b60405180910390f35b600047905090565b6000600360009054906101000a900473ffffffffffffffffffffffffffffffffffffffff1673ffffffffffffffffffffffffffffffffffffffff16636386c1c760008054906101000a900473ffffffffffffffffffffffffffffffffffffffff166040518263ffffffff1660e01b815260040161022891906105d4565b600060405180830381865afa158015610245573d6000803e3d6000fd5b505050506040513d6000823e3d601f19601f8201168201806040525081019061026e91906109ac565b60c0015190507fc35d6dbbad810bb0fb26d3fd7c07a09c5afd64d647208c93d211dcac94b8349b81426040516102a5929190610a4a565b60405180910390a16000600460009054906101000a900473ffffffffffffffffffffffffffffffffffffffff1673ffffffffffffffffffffffffffffffffffffffff16637b0b53f0836040518263ffffffff1660e01b815260040161030a9190610a7a565b6020604051808303816000875af1158015610329573d6000803e3d6000fd5b505050506040513d601f19601f8201168201806040525081019061034d9190610ad4565b90507fa3f71817a4bb3c731156d4c88f7003b46c734965f0e46d3fa428a5e2e70afc558142604051610380929190610b10565b60405180910390a15050565b600260009054906101000a900473ffffffffffffffffffffffffffffffffffffffff1681565b60008054906101000a900473ffffffffffffffffffffffffffffffffffffffff1681565b600360009054906101000a900473ffffffffffffffffffffffffffffffffffffffff1681565b600080600160009054906101000a900473ffffffffffffffffffffffffffffffffffffffff1673ffffffffffffffffffffffffffffffffffffffff166104406101a3565b60405161044c90610b6a565b60006040518083038185875af1925050503d8060008114610489576040519150601f19603f3d011682016040523d82523d6000602084013e61048e565b606091505b5091509150816104d3576040517f08c379a00000000000000000000000000000000000000000000000000000000081526004016104ca90610bcb565b60405180910390fd5b5050565b600460009054906101000a900473ffffffffffffffffffffffffffffffffffffffff1681565b600160009054906101000a900473ffffffffffffffffffffffffffffffffffffffff1681565b6000819050919050565b61053681610523565b82525050565b6000602082019050610551600083018461052d565b92915050565b600073ffffffffffffffffffffffffffffffffffffffff82169050919050565b600061058282610557565b9050919050565b61059281610577565b82525050565b60006020820190506105ad6000830184610589565b92915050565b60006105be82610557565b9050919050565b6105ce816105b3565b82525050565b60006020820190506105e960008301846105c5565b92915050565b6000819050919050565b600061061461060f61060a84610557565b6105ef565b610557565b9050919050565b6000610626826105f9565b9050919050565b60006106388261061b565b9050919050565b6106488161062d565b82525050565b6000602082019050610663600083018461063f565b92915050565b60006106748261061b565b9050919050565b61068481610669565b82525050565b600060208201905061069f600083018461067b565b92915050565b6000604051905090565b600080fd5b600080fd5b600080fd5b6000601f19601f8301169050919050565b7f4e487b7100000000000000000000000000000000000000000000000000000000600052604160045260246000fd5b610707826106be565b810181811067ffffffffffffffff82111715610726576107256106cf565b5b80604052505050565b60006107396106a5565b905061074582826106fe565b919050565b600080fd5b61075881610577565b811461076357600080fd5b50565b6000815190506107758161074f565b92915050565b600080fd5b600080fd5b600067ffffffffffffffff8211156107a05761079f6106cf565b5b6107a9826106be565b9050602081019050919050565b60005b838110156107d45780820151818401526020810190506107b9565b60008484015250505050565b60006107f36107ee84610785565b61072f565b90508281526020810184848401111561080f5761080e610780565b5b61081a8482856107b6565b509392505050565b600082601f8301126108375761083661077b565b5b81516108478482602086016107e0565b91505092915050565b600060e08284031215610866576108656106b9565b5b61087060e061072f565b9050600061088084828501610766565b600083015250602082015167ffffffffffffffff8111156108a4576108a361074a565b5b6108b084828501610822565b602083015250604082015167ffffffffffffffff8111156108d4576108d361074a565b5b6108e084828501610822565b604083015250606082015167ffffffffffffffff8111156109045761090361074a565b5b61091084828501610822565b606083015250608082015167ffffffffffffffff8111156109345761093361074a565b5b61094084828501610822565b60808301525060a082015167ffffffffffffffff8111156109645761096361074a565b5b61097084828501610822565b60a08301525060c082015167ffffffffffffffff8111156109945761099361074a565b5b6109a084828501610822565b60c08301525092915050565b6000602082840312156109c2576109c16106af565b5b600082015167ffffffffffffffff8111156109e0576109df6106b4565b5b6109ec84828501610850565b91505092915050565b600081519050919050565b600082825260208201905092915050565b6000610a1c826109f5565b610a268185610a00565b9350610a368185602086016107b6565b610a3f816106be565b840191505092915050565b60006040820190508181036000830152610a648185610a11565b9050610a73602083018461052d565b9392505050565b60006020820190508181036000830152610a948184610a11565b905092915050565b60008115159050919050565b610ab181610a9c565b8114610abc57600080fd5b50565b600081519050610ace81610aa8565b92915050565b600060208284031215610aea57610ae96106af565b5b6000610af884828501610abf565b91505092915050565b610b0a81610a9c565b82525050565b6000604082019050610b256000830185610b01565b610b32602083018461052d565b9392505050565b600081905092915050565b50565b6000610b54600083610b39565b9150610b5f82610b44565b600082019050919050565b6000610b7582610b47565b9150819050919050565b7f4661696c656420746f2073656e64204574686572000000000000000000000000600082015250565b6000610bb5601483610a00565b9150610bc082610b7f565b602082019050919050565b60006020820190508181036000830152610be481610ba8565b905091905056fea2646970667358221220e8b3bae1f7d6e558b3a83c0f471e2864777ec91ac894cb97df15ecfb4ca3e37864736f6c63430008110033",
					"opcodes": "PUSH1 0x80 PUSH1 0x40 MSTORE PUSH1 0x40 MLOAD PUSH3 0xFA7 CODESIZE SUB DUP1 PUSH3 0xFA7 DUP4 CODECOPY DUP2 DUP2 ADD PUSH1 0x40 MSTORE DUP2 ADD SWAP1 PUSH3 0x29 SWAP2 SWAP1 PUSH3 0x297 JUMP JUMPDEST PUSH1 0x0 PUSH20 0xFFFFFFFFFFFFFFFFFFFFFFFFFFFFFFFFFFFFFFFF AND DUP4 PUSH20 0xFFFFFFFFFFFFFFFFFFFFFFFFFFFFFFFFFFFFFFFF AND SUB PUSH3 0x9B JUMPI PUSH1 0x40 MLOAD PUSH32 0x8C379A000000000000000000000000000000000000000000000000000000000 DUP2 MSTORE PUSH1 0x4 ADD PUSH3 0x92 SWAP1 PUSH3 0x354 JUMP JUMPDEST PUSH1 0x40 MLOAD DUP1 SWAP2 SUB SWAP1 REVERT JUMPDEST CALLER PUSH1 0x0 DUP1 PUSH2 0x100 EXP DUP2 SLOAD DUP2 PUSH20 0xFFFFFFFFFFFFFFFFFFFFFFFFFFFFFFFFFFFFFFFF MUL NOT AND SWAP1 DUP4 PUSH20 0xFFFFFFFFFFFFFFFFFFFFFFFFFFFFFFFFFFFFFFFF AND MUL OR SWAP1 SSTORE POP DUP3 PUSH1 0x1 PUSH1 0x0 PUSH2 0x100 EXP DUP2 SLOAD DUP2 PUSH20 0xFFFFFFFFFFFFFFFFFFFFFFFFFFFFFFFFFFFFFFFF MUL NOT AND SWAP1 DUP4 PUSH20 0xFFFFFFFFFFFFFFFFFFFFFFFFFFFFFFFFFFFFFFFF AND MUL OR SWAP1 SSTORE POP DUP2 PUSH1 0x2 PUSH1 0x0 PUSH2 0x100 EXP DUP2 SLOAD DUP2 PUSH20 0xFFFFFFFFFFFFFFFFFFFFFFFFFFFFFFFFFFFFFFFF MUL NOT AND SWAP1 DUP4 PUSH20 0xFFFFFFFFFFFFFFFFFFFFFFFFFFFFFFFFFFFFFFFF AND MUL OR SWAP1 SSTORE POP DUP2 PUSH1 0x3 PUSH1 0x0 PUSH2 0x100 EXP DUP2 SLOAD DUP2 PUSH20 0xFFFFFFFFFFFFFFFFFFFFFFFFFFFFFFFFFFFFFFFF MUL NOT AND SWAP1 DUP4 PUSH20 0xFFFFFFFFFFFFFFFFFFFFFFFFFFFFFFFFFFFFFFFF AND MUL OR SWAP1 SSTORE POP DUP1 PUSH1 0x4 PUSH1 0x0 PUSH2 0x100 EXP DUP2 SLOAD DUP2 PUSH20 0xFFFFFFFFFFFFFFFFFFFFFFFFFFFFFFFFFFFFFFFF MUL NOT AND SWAP1 DUP4 PUSH20 0xFFFFFFFFFFFFFFFFFFFFFFFFFFFFFFFFFFFFFFFF AND MUL OR SWAP1 SSTORE POP POP POP POP PUSH3 0x376 JUMP JUMPDEST PUSH1 0x0 DUP1 REVERT JUMPDEST PUSH1 0x0 PUSH20 0xFFFFFFFFFFFFFFFFFFFFFFFFFFFFFFFFFFFFFFFF DUP3 AND SWAP1 POP SWAP2 SWAP1 POP JUMP JUMPDEST PUSH1 0x0 PUSH3 0x21A DUP3 PUSH3 0x1ED JUMP JUMPDEST SWAP1 POP SWAP2 SWAP1 POP JUMP JUMPDEST PUSH3 0x22C DUP2 PUSH3 0x20D JUMP JUMPDEST DUP2 EQ PUSH3 0x238 JUMPI PUSH1 0x0 DUP1 REVERT JUMPDEST POP JUMP JUMPDEST PUSH1 0x0 DUP2 MLOAD SWAP1 POP PUSH3 0x24C DUP2 PUSH3 0x221 JUMP JUMPDEST SWAP3 SWAP2 POP POP JUMP JUMPDEST PUSH1 0x0 PUSH3 0x25F DUP3 PUSH3 0x1ED JUMP JUMPDEST SWAP1 POP SWAP2 SWAP1 POP JUMP JUMPDEST PUSH3 0x271 DUP2 PUSH3 0x252 JUMP JUMPDEST DUP2 EQ PUSH3 0x27D JUMPI PUSH1 0x0 DUP1 REVERT JUMPDEST POP JUMP JUMPDEST PUSH1 0x0 DUP2 MLOAD SWAP1 POP PUSH3 0x291 DUP2 PUSH3 0x266 JUMP JUMPDEST SWAP3 SWAP2 POP POP JUMP JUMPDEST PUSH1 0x0 DUP1 PUSH1 0x0 PUSH1 0x60 DUP5 DUP7 SUB SLT ISZERO PUSH3 0x2B3 JUMPI PUSH3 0x2B2 PUSH3 0x1E8 JUMP JUMPDEST JUMPDEST PUSH1 0x0 PUSH3 0x2C3 DUP7 DUP3 DUP8 ADD PUSH3 0x23B JUMP JUMPDEST SWAP4 POP POP PUSH1 0x20 PUSH3 0x2D6 DUP7 DUP3 DUP8 ADD PUSH3 0x280 JUMP JUMPDEST SWAP3 POP POP PUSH1 0x40 PUSH3 0x2E9 DUP7 DUP3 DUP8 ADD PUSH3 0x280 JUMP JUMPDEST SWAP2 POP POP SWAP3 POP SWAP3 POP SWAP3 JUMP JUMPDEST PUSH1 0x0 DUP3 DUP3 MSTORE PUSH1 0x20 DUP3 ADD SWAP1 POP SWAP3 SWAP2 POP POP JUMP JUMPDEST PUSH32 0x7265636569766572203D207A65726F2061646472657373000000000000000000 PUSH1 0x0 DUP3 ADD MSTORE POP JUMP JUMPDEST PUSH1 0x0 PUSH3 0x33C PUSH1 0x17 DUP4 PUSH3 0x2F3 JUMP JUMPDEST SWAP2 POP PUSH3 0x349 DUP3 PUSH3 0x304 JUMP JUMPDEST PUSH1 0x20 DUP3 ADD SWAP1 POP SWAP2 SWAP1 POP JUMP JUMPDEST PUSH1 0x0 PUSH1 0x20 DUP3 ADD SWAP1 POP DUP2 DUP2 SUB PUSH1 0x0 DUP4 ADD MSTORE PUSH3 0x36F DUP2 PUSH3 0x32D JUMP JUMPDEST SWAP1 POP SWAP2 SWAP1 POP JUMP JUMPDEST PUSH2 0xC21 DUP1 PUSH3 0x386 PUSH1 0x0 CODECOPY PUSH1 0x0 RETURN INVALID PUSH1 0x80 PUSH1 0x40 MSTORE PUSH1 0x4 CALLDATASIZE LT PUSH2 0x7B JUMPI PUSH1 0x0 CALLDATALOAD PUSH1 0xE0 SHR DUP1 PUSH4 0x90D6B45F GT PUSH2 0x4E JUMPI DUP1 PUSH4 0x90D6B45F EQ PUSH2 0x118 JUMPI DUP1 PUSH4 0xDBD81FC1 EQ PUSH2 0x143 JUMPI DUP1 PUSH4 0xDD6FF7FA EQ PUSH2 0x14D JUMPI DUP1 PUSH4 0xF7260D3E EQ PUSH2 0x178 JUMPI PUSH2 0x7B JUMP JUMPDEST DUP1 PUSH4 0x12065FE0 EQ PUSH2 0x80 JUMPI DUP1 PUSH4 0x3D6CFCD1 EQ PUSH2 0xAB JUMPI DUP1 PUSH4 0x49B85A16 EQ PUSH2 0xC2 JUMPI DUP1 PUSH4 0x67E404CE EQ PUSH2 0xED JUMPI JUMPDEST PUSH1 0x0 DUP1 REVERT JUMPDEST CALLVALUE DUP1 ISZERO PUSH2 0x8C JUMPI PUSH1 0x0 DUP1 REVERT JUMPDEST POP PUSH2 0x95 PUSH2 0x1A3 JUMP JUMPDEST PUSH1 0x40 MLOAD PUSH2 0xA2 SWAP2 SWAP1 PUSH2 0x53C JUMP JUMPDEST PUSH1 0x40 MLOAD DUP1 SWAP2 SUB SWAP1 RETURN JUMPDEST CALLVALUE DUP1 ISZERO PUSH2 0xB7 JUMPI PUSH1 0x0 DUP1 REVERT JUMPDEST POP PUSH2 0xC0 PUSH2 0x1AB JUMP JUMPDEST STOP JUMPDEST CALLVALUE DUP1 ISZERO PUSH2 0xCE JUMPI PUSH1 0x0 DUP1 REVERT JUMPDEST POP PUSH2 0xD7 PUSH2 0x38C JUMP JUMPDEST PUSH1 0x40 MLOAD PUSH2 0xE4 SWAP2 SWAP1 PUSH2 0x598 JUMP JUMPDEST PUSH1 0x40 MLOAD DUP1 SWAP2 SUB SWAP1 RETURN JUMPDEST CALLVALUE DUP1 ISZERO PUSH2 0xF9 JUMPI PUSH1 0x0 DUP1 REVERT JUMPDEST POP PUSH2 0x102 PUSH2 0x3B2 JUMP JUMPDEST PUSH1 0x40 MLOAD PUSH2 0x10F SWAP2 SWAP1 PUSH2 0x5D4 JUMP JUMPDEST PUSH1 0x40 MLOAD DUP1 SWAP2 SUB SWAP1 RETURN JUMPDEST CALLVALUE DUP1 ISZERO PUSH2 0x124 JUMPI PUSH1 0x0 DUP1 REVERT JUMPDEST POP PUSH2 0x12D PUSH2 0x3D6 JUMP JUMPDEST PUSH1 0x40 MLOAD PUSH2 0x13A SWAP2 SWAP1 PUSH2 0x64E JUMP JUMPDEST PUSH1 0x40 MLOAD DUP1 SWAP2 SUB SWAP1 RETURN JUMPDEST PUSH2 0x14B PUSH2 0x3FC JUMP JUMPDEST STOP JUMPDEST CALLVALUE DUP1 ISZERO PUSH2 0x159 JUMPI PUSH1 0x0 DUP1 REVERT JUMPDEST POP PUSH2 0x162 PUSH2 0x4D7 JUMP JUMPDEST PUSH1 0x40 MLOAD PUSH2 0x16F SWAP2 SWAP1 PUSH2 0x68A JUMP JUMPDEST PUSH1 0x40 MLOAD DUP1 SWAP2 SUB SWAP1 RETURN JUMPDEST CALLVALUE DUP1 ISZERO PUSH2 0x184 JUMPI PUSH1 0x0 DUP1 REVERT JUMPDEST POP PUSH2 0x18D PUSH2 0x4FD JUMP JUMPDEST PUSH1 0x40 MLOAD PUSH2 0x19A SWAP2 SWAP1 PUSH2 0x5D4 JUMP JUMPDEST PUSH1 0x40 MLOAD DUP1 SWAP2 SUB SWAP1 RETURN JUMPDEST PUSH1 0x0 SELFBALANCE SWAP1 POP SWAP1 JUMP JUMPDEST PUSH1 0x0 PUSH1 0x3 PUSH1 0x0 SWAP1 SLOAD SWAP1 PUSH2 0x100 EXP SWAP1 DIV PUSH20 0xFFFFFFFFFFFFFFFFFFFFFFFFFFFFFFFFFFFFFFFF AND PUSH20 0xFFFFFFFFFFFFFFFFFFFFFFFFFFFFFFFFFFFFFFFF AND PUSH4 0x6386C1C7 PUSH1 0x0 DUP1 SLOAD SWAP1 PUSH2 0x100 EXP SWAP1 DIV PUSH20 0xFFFFFFFFFFFFFFFFFFFFFFFFFFFFFFFFFFFFFFFF AND PUSH1 0x40 MLOAD DUP3 PUSH4 0xFFFFFFFF AND PUSH1 0xE0 SHL DUP2 MSTORE PUSH1 0x4 ADD PUSH2 0x228 SWAP2 SWAP1 PUSH2 0x5D4 JUMP JUMPDEST PUSH1 0x0 PUSH1 0x40 MLOAD DUP1 DUP4 SUB DUP2 DUP7 GAS STATICCALL ISZERO DUP1 ISZERO PUSH2 0x245 JUMPI RETURNDATASIZE PUSH1 0x0 DUP1 RETURNDATACOPY RETURNDATASIZE PUSH1 0x0 REVERT JUMPDEST POP POP POP POP PUSH1 0x40 MLOAD RETURNDATASIZE PUSH1 0x0 DUP3 RETURNDATACOPY RETURNDATASIZE PUSH1 0x1F NOT PUSH1 0x1F DUP3 ADD AND DUP3 ADD DUP1 PUSH1 0x40 MSTORE POP DUP2 ADD SWAP1 PUSH2 0x26E SWAP2 SWAP1 PUSH2 0x9AC JUMP JUMPDEST PUSH1 0xC0 ADD MLOAD SWAP1 POP PUSH32 0xC35D6DBBAD810BB0FB26D3FD7C07A09C5AFD64D647208C93D211DCAC94B8349B DUP2 TIMESTAMP PUSH1 0x40 MLOAD PUSH2 0x2A5 SWAP3 SWAP2 SWAP1 PUSH2 0xA4A JUMP JUMPDEST PUSH1 0x40 MLOAD DUP1 SWAP2 SUB SWAP1 LOG1 PUSH1 0x0 PUSH1 0x4 PUSH1 0x0 SWAP1 SLOAD SWAP1 PUSH2 0x100 EXP SWAP1 DIV PUSH20 0xFFFFFFFFFFFFFFFFFFFFFFFFFFFFFFFFFFFFFFFF AND PUSH20 0xFFFFFFFFFFFFFFFFFFFFFFFFFFFFFFFFFFFFFFFF AND PUSH4 0x7B0B53F0 DUP4 PUSH1 0x40 MLOAD DUP3 PUSH4 0xFFFFFFFF AND PUSH1 0xE0 SHL DUP2 MSTORE PUSH1 0x4 ADD PUSH2 0x30A SWAP2 SWAP1 PUSH2 0xA7A JUMP JUMPDEST PUSH1 0x20 PUSH1 0x40 MLOAD DUP1 DUP4 SUB DUP2 PUSH1 0x0 DUP8 GAS CALL ISZERO DUP1 ISZERO PUSH2 0x329 JUMPI RETURNDATASIZE PUSH1 0x0 DUP1 RETURNDATACOPY RETURNDATASIZE PUSH1 0x0 REVERT JUMPDEST POP POP POP POP PUSH1 0x40 MLOAD RETURNDATASIZE PUSH1 0x1F NOT PUSH1 0x1F DUP3 ADD AND DUP3 ADD DUP1 PUSH1 0x40 MSTORE POP DUP2 ADD SWAP1 PUSH2 0x34D SWAP2 SWAP1 PUSH2 0xAD4 JUMP JUMPDEST SWAP1 POP PUSH32 0xA3F71817A4BB3C731156D4C88F7003B46C734965F0E46D3FA428A5E2E70AFC55 DUP2 TIMESTAMP PUSH1 0x40 MLOAD PUSH2 0x380 SWAP3 SWAP2 SWAP1 PUSH2 0xB10 JUMP JUMPDEST PUSH1 0x40 MLOAD DUP1 SWAP2 SUB SWAP1 LOG1 POP POP JUMP JUMPDEST PUSH1 0x2 PUSH1 0x0 SWAP1 SLOAD SWAP1 PUSH2 0x100 EXP SWAP1 DIV PUSH20 0xFFFFFFFFFFFFFFFFFFFFFFFFFFFFFFFFFFFFFFFF AND DUP2 JUMP JUMPDEST PUSH1 0x0 DUP1 SLOAD SWAP1 PUSH2 0x100 EXP SWAP1 DIV PUSH20 0xFFFFFFFFFFFFFFFFFFFFFFFFFFFFFFFFFFFFFFFF AND DUP2 JUMP JUMPDEST PUSH1 0x3 PUSH1 0x0 SWAP1 SLOAD SWAP1 PUSH2 0x100 EXP SWAP1 DIV PUSH20 0xFFFFFFFFFFFFFFFFFFFFFFFFFFFFFFFFFFFFFFFF AND DUP2 JUMP JUMPDEST PUSH1 0x0 DUP1 PUSH1 0x1 PUSH1 0x0 SWAP1 SLOAD SWAP1 PUSH2 0x100 EXP SWAP1 DIV PUSH20 0xFFFFFFFFFFFFFFFFFFFFFFFFFFFFFFFFFFFFFFFF AND PUSH20 0xFFFFFFFFFFFFFFFFFFFFFFFFFFFFFFFFFFFFFFFF AND PUSH2 0x440 PUSH2 0x1A3 JUMP JUMPDEST PUSH1 0x40 MLOAD PUSH2 0x44C SWAP1 PUSH2 0xB6A JUMP JUMPDEST PUSH1 0x0 PUSH1 0x40 MLOAD DUP1 DUP4 SUB DUP2 DUP6 DUP8 GAS CALL SWAP3 POP POP POP RETURNDATASIZE DUP1 PUSH1 0x0 DUP2 EQ PUSH2 0x489 JUMPI PUSH1 0x40 MLOAD SWAP2 POP PUSH1 0x1F NOT PUSH1 0x3F RETURNDATASIZE ADD AND DUP3 ADD PUSH1 0x40 MSTORE RETURNDATASIZE DUP3 MSTORE RETURNDATASIZE PUSH1 0x0 PUSH1 0x20 DUP5 ADD RETURNDATACOPY PUSH2 0x48E JUMP JUMPDEST PUSH1 0x60 SWAP2 POP JUMPDEST POP SWAP2 POP SWAP2 POP DUP2 PUSH2 0x4D3 JUMPI PUSH1 0x40 MLOAD PUSH32 0x8C379A000000000000000000000000000000000000000000000000000000000 DUP2 MSTORE PUSH1 0x4 ADD PUSH2 0x4CA SWAP1 PUSH2 0xBCB JUMP JUMPDEST PUSH1 0x40 MLOAD DUP1 SWAP2 SUB SWAP1 REVERT JUMPDEST POP POP JUMP JUMPDEST PUSH1 0x4 PUSH1 0x0 SWAP1 SLOAD SWAP1 PUSH2 0x100 EXP SWAP1 DIV PUSH20 0xFFFFFFFFFFFFFFFFFFFFFFFFFFFFFFFFFFFFFFFF AND DUP2 JUMP JUMPDEST PUSH1 0x1 PUSH1 0x0 SWAP1 SLOAD SWAP1 PUSH2 0x100 EXP SWAP1 DIV PUSH20 0xFFFFFFFFFFFFFFFFFFFFFFFFFFFFFFFFFFFFFFFF AND DUP2 JUMP JUMPDEST PUSH1 0x0 DUP2 SWAP1 POP SWAP2 SWAP1 POP JUMP JUMPDEST PUSH2 0x536 DUP2 PUSH2 0x523 JUMP JUMPDEST DUP3 MSTORE POP POP JUMP JUMPDEST PUSH1 0x0 PUSH1 0x20 DUP3 ADD SWAP1 POP PUSH2 0x551 PUSH1 0x0 DUP4 ADD DUP5 PUSH2 0x52D JUMP JUMPDEST SWAP3 SWAP2 POP POP JUMP JUMPDEST PUSH1 0x0 PUSH20 0xFFFFFFFFFFFFFFFFFFFFFFFFFFFFFFFFFFFFFFFF DUP3 AND SWAP1 POP SWAP2 SWAP1 POP JUMP JUMPDEST PUSH1 0x0 PUSH2 0x582 DUP3 PUSH2 0x557 JUMP JUMPDEST SWAP1 POP SWAP2 SWAP1 POP JUMP JUMPDEST PUSH2 0x592 DUP2 PUSH2 0x577 JUMP JUMPDEST DUP3 MSTORE POP POP JUMP JUMPDEST PUSH1 0x0 PUSH1 0x20 DUP3 ADD SWAP1 POP PUSH2 0x5AD PUSH1 0x0 DUP4 ADD DUP5 PUSH2 0x589 JUMP JUMPDEST SWAP3 SWAP2 POP POP JUMP JUMPDEST PUSH1 0x0 PUSH2 0x5BE DUP3 PUSH2 0x557 JUMP JUMPDEST SWAP1 POP SWAP2 SWAP1 POP JUMP JUMPDEST PUSH2 0x5CE DUP2 PUSH2 0x5B3 JUMP JUMPDEST DUP3 MSTORE POP POP JUMP JUMPDEST PUSH1 0x0 PUSH1 0x20 DUP3 ADD SWAP1 POP PUSH2 0x5E9 PUSH1 0x0 DUP4 ADD DUP5 PUSH2 0x5C5 JUMP JUMPDEST SWAP3 SWAP2 POP POP JUMP JUMPDEST PUSH1 0x0 DUP2 SWAP1 POP SWAP2 SWAP1 POP JUMP JUMPDEST PUSH1 0x0 PUSH2 0x614 PUSH2 0x60F PUSH2 0x60A DUP5 PUSH2 0x557 JUMP JUMPDEST PUSH2 0x5EF JUMP JUMPDEST PUSH2 0x557 JUMP JUMPDEST SWAP1 POP SWAP2 SWAP1 POP JUMP JUMPDEST PUSH1 0x0 PUSH2 0x626 DUP3 PUSH2 0x5F9 JUMP JUMPDEST SWAP1 POP SWAP2 SWAP1 POP JUMP JUMPDEST PUSH1 0x0 PUSH2 0x638 DUP3 PUSH2 0x61B JUMP JUMPDEST SWAP1 POP SWAP2 SWAP1 POP JUMP JUMPDEST PUSH2 0x648 DUP2 PUSH2 0x62D JUMP JUMPDEST DUP3 MSTORE POP POP JUMP JUMPDEST PUSH1 0x0 PUSH1 0x20 DUP3 ADD SWAP1 POP PUSH2 0x663 PUSH1 0x0 DUP4 ADD DUP5 PUSH2 0x63F JUMP JUMPDEST SWAP3 SWAP2 POP POP JUMP JUMPDEST PUSH1 0x0 PUSH2 0x674 DUP3 PUSH2 0x61B JUMP JUMPDEST SWAP1 POP SWAP2 SWAP1 POP JUMP JUMPDEST PUSH2 0x684 DUP2 PUSH2 0x669 JUMP JUMPDEST DUP3 MSTORE POP POP JUMP JUMPDEST PUSH1 0x0 PUSH1 0x20 DUP3 ADD SWAP1 POP PUSH2 0x69F PUSH1 0x0 DUP4 ADD DUP5 PUSH2 0x67B JUMP JUMPDEST SWAP3 SWAP2 POP POP JUMP JUMPDEST PUSH1 0x0 PUSH1 0x40 MLOAD SWAP1 POP SWAP1 JUMP JUMPDEST PUSH1 0x0 DUP1 REVERT JUMPDEST PUSH1 0x0 DUP1 REVERT JUMPDEST PUSH1 0x0 DUP1 REVERT JUMPDEST PUSH1 0x0 PUSH1 0x1F NOT PUSH1 0x1F DUP4 ADD AND SWAP1 POP SWAP2 SWAP1 POP JUMP JUMPDEST PUSH32 0x4E487B7100000000000000000000000000000000000000000000000000000000 PUSH1 0x0 MSTORE PUSH1 0x41 PUSH1 0x4 MSTORE PUSH1 0x24 PUSH1 0x0 REVERT JUMPDEST PUSH2 0x707 DUP3 PUSH2 0x6BE JUMP JUMPDEST DUP2 ADD DUP2 DUP2 LT PUSH8 0xFFFFFFFFFFFFFFFF DUP3 GT OR ISZERO PUSH2 0x726 JUMPI PUSH2 0x725 PUSH2 0x6CF JUMP JUMPDEST JUMPDEST DUP1 PUSH1 0x40 MSTORE POP POP POP JUMP JUMPDEST PUSH1 0x0 PUSH2 0x739 PUSH2 0x6A5 JUMP JUMPDEST SWAP1 POP PUSH2 0x745 DUP3 DUP3 PUSH2 0x6FE JUMP JUMPDEST SWAP2 SWAP1 POP JUMP JUMPDEST PUSH1 0x0 DUP1 REVERT JUMPDEST PUSH2 0x758 DUP2 PUSH2 0x577 JUMP JUMPDEST DUP2 EQ PUSH2 0x763 JUMPI PUSH1 0x0 DUP1 REVERT JUMPDEST POP JUMP JUMPDEST PUSH1 0x0 DUP2 MLOAD SWAP1 POP PUSH2 0x775 DUP2 PUSH2 0x74F JUMP JUMPDEST SWAP3 SWAP2 POP POP JUMP JUMPDEST PUSH1 0x0 DUP1 REVERT JUMPDEST PUSH1 0x0 DUP1 REVERT JUMPDEST PUSH1 0x0 PUSH8 0xFFFFFFFFFFFFFFFF DUP3 GT ISZERO PUSH2 0x7A0 JUMPI PUSH2 0x79F PUSH2 0x6CF JUMP JUMPDEST JUMPDEST PUSH2 0x7A9 DUP3 PUSH2 0x6BE JUMP JUMPDEST SWAP1 POP PUSH1 0x20 DUP2 ADD SWAP1 POP SWAP2 SWAP1 POP JUMP JUMPDEST PUSH1 0x0 JUMPDEST DUP4 DUP2 LT ISZERO PUSH2 0x7D4 JUMPI DUP1 DUP3 ADD MLOAD DUP2 DUP5 ADD MSTORE PUSH1 0x20 DUP2 ADD SWAP1 POP PUSH2 0x7B9 JUMP JUMPDEST PUSH1 0x0 DUP5 DUP5 ADD MSTORE POP POP POP POP JUMP JUMPDEST PUSH1 0x0 PUSH2 0x7F3 PUSH2 0x7EE DUP5 PUSH2 0x785 JUMP JUMPDEST PUSH2 0x72F JUMP JUMPDEST SWAP1 POP DUP3 DUP2 MSTORE PUSH1 0x20 DUP2 ADD DUP5 DUP5 DUP5 ADD GT ISZERO PUSH2 0x80F JUMPI PUSH2 0x80E PUSH2 0x780 JUMP JUMPDEST JUMPDEST PUSH2 0x81A DUP5 DUP3 DUP6 PUSH2 0x7B6 JUMP JUMPDEST POP SWAP4 SWAP3 POP POP POP JUMP JUMPDEST PUSH1 0x0 DUP3 PUSH1 0x1F DUP4 ADD SLT PUSH2 0x837 JUMPI PUSH2 0x836 PUSH2 0x77B JUMP JUMPDEST JUMPDEST DUP2 MLOAD PUSH2 0x847 DUP5 DUP3 PUSH1 0x20 DUP7 ADD PUSH2 0x7E0 JUMP JUMPDEST SWAP2 POP POP SWAP3 SWAP2 POP POP JUMP JUMPDEST PUSH1 0x0 PUSH1 0xE0 DUP3 DUP5 SUB SLT ISZERO PUSH2 0x866 JUMPI PUSH2 0x865 PUSH2 0x6B9 JUMP JUMPDEST JUMPDEST PUSH2 0x870 PUSH1 0xE0 PUSH2 0x72F JUMP JUMPDEST SWAP1 POP PUSH1 0x0 PUSH2 0x880 DUP5 DUP3 DUP6 ADD PUSH2 0x766 JUMP JUMPDEST PUSH1 0x0 DUP4 ADD MSTORE POP PUSH1 0x20 DUP3 ADD MLOAD PUSH8 0xFFFFFFFFFFFFFFFF DUP2 GT ISZERO PUSH2 0x8A4 JUMPI PUSH2 0x8A3 PUSH2 0x74A JUMP JUMPDEST JUMPDEST PUSH2 0x8B0 DUP5 DUP3 DUP6 ADD PUSH2 0x822 JUMP JUMPDEST PUSH1 0x20 DUP4 ADD MSTORE POP PUSH1 0x40 DUP3 ADD MLOAD PUSH8 0xFFFFFFFFFFFFFFFF DUP2 GT ISZERO PUSH2 0x8D4 JUMPI PUSH2 0x8D3 PUSH2 0x74A JUMP JUMPDEST JUMPDEST PUSH2 0x8E0 DUP5 DUP3 DUP6 ADD PUSH2 0x822 JUMP JUMPDEST PUSH1 0x40 DUP4 ADD MSTORE POP PUSH1 0x60 DUP3 ADD MLOAD PUSH8 0xFFFFFFFFFFFFFFFF DUP2 GT ISZERO PUSH2 0x904 JUMPI PUSH2 0x903 PUSH2 0x74A JUMP JUMPDEST JUMPDEST PUSH2 0x910 DUP5 DUP3 DUP6 ADD PUSH2 0x822 JUMP JUMPDEST PUSH1 0x60 DUP4 ADD MSTORE POP PUSH1 0x80 DUP3 ADD MLOAD PUSH8 0xFFFFFFFFFFFFFFFF DUP2 GT ISZERO PUSH2 0x934 JUMPI PUSH2 0x933 PUSH2 0x74A JUMP JUMPDEST JUMPDEST PUSH2 0x940 DUP5 DUP3 DUP6 ADD PUSH2 0x822 JUMP JUMPDEST PUSH1 0x80 DUP4 ADD MSTORE POP PUSH1 0xA0 DUP3 ADD MLOAD PUSH8 0xFFFFFFFFFFFFFFFF DUP2 GT ISZERO PUSH2 0x964 JUMPI PUSH2 0x963 PUSH2 0x74A JUMP JUMPDEST JUMPDEST PUSH2 0x970 DUP5 DUP3 DUP6 ADD PUSH2 0x822 JUMP JUMPDEST PUSH1 0xA0 DUP4 ADD MSTORE POP PUSH1 0xC0 DUP3 ADD MLOAD PUSH8 0xFFFFFFFFFFFFFFFF DUP2 GT ISZERO PUSH2 0x994 JUMPI PUSH2 0x993 PUSH2 0x74A JUMP JUMPDEST JUMPDEST PUSH2 0x9A0 DUP5 DUP3 DUP6 ADD PUSH2 0x822 JUMP JUMPDEST PUSH1 0xC0 DUP4 ADD MSTORE POP SWAP3 SWAP2 POP POP JUMP JUMPDEST PUSH1 0x0 PUSH1 0x20 DUP3 DUP5 SUB SLT ISZERO PUSH2 0x9C2 JUMPI PUSH2 0x9C1 PUSH2 0x6AF JUMP JUMPDEST JUMPDEST PUSH1 0x0 DUP3 ADD MLOAD PUSH8 0xFFFFFFFFFFFFFFFF DUP2 GT ISZERO PUSH2 0x9E0 JUMPI PUSH2 0x9DF PUSH2 0x6B4 JUMP JUMPDEST JUMPDEST PUSH2 0x9EC DUP5 DUP3 DUP6 ADD PUSH2 0x850 JUMP JUMPDEST SWAP2 POP POP SWAP3 SWAP2 POP POP JUMP JUMPDEST PUSH1 0x0 DUP2 MLOAD SWAP1 POP SWAP2 SWAP1 POP JUMP JUMPDEST PUSH1 0x0 DUP3 DUP3 MSTORE PUSH1 0x20 DUP3 ADD SWAP1 POP SWAP3 SWAP2 POP POP JUMP JUMPDEST PUSH1 0x0 PUSH2 0xA1C DUP3 PUSH2 0x9F5 JUMP JUMPDEST PUSH2 0xA26 DUP2 DUP6 PUSH2 0xA00 JUMP JUMPDEST SWAP4 POP PUSH2 0xA36 DUP2 DUP6 PUSH1 0x20 DUP7 ADD PUSH2 0x7B6 JUMP JUMPDEST PUSH2 0xA3F DUP2 PUSH2 0x6BE JUMP JUMPDEST DUP5 ADD SWAP2 POP POP SWAP3 SWAP2 POP POP JUMP JUMPDEST PUSH1 0x0 PUSH1 0x40 DUP3 ADD SWAP1 POP DUP2 DUP2 SUB PUSH1 0x0 DUP4 ADD MSTORE PUSH2 0xA64 DUP2 DUP6 PUSH2 0xA11 JUMP JUMPDEST SWAP1 POP PUSH2 0xA73 PUSH1 0x20 DUP4 ADD DUP5 PUSH2 0x52D JUMP JUMPDEST SWAP4 SWAP3 POP POP POP JUMP JUMPDEST PUSH1 0x0 PUSH1 0x20 DUP3 ADD SWAP1 POP DUP2 DUP2 SUB PUSH1 0x0 DUP4 ADD MSTORE PUSH2 0xA94 DUP2 DUP5 PUSH2 0xA11 JUMP JUMPDEST SWAP1 POP SWAP3 SWAP2 POP POP JUMP JUMPDEST PUSH1 0x0 DUP2 ISZERO ISZERO SWAP1 POP SWAP2 SWAP1 POP JUMP JUMPDEST PUSH2 0xAB1 DUP2 PUSH2 0xA9C JUMP JUMPDEST DUP2 EQ PUSH2 0xABC JUMPI PUSH1 0x0 DUP1 REVERT JUMPDEST POP JUMP JUMPDEST PUSH1 0x0 DUP2 MLOAD SWAP1 POP PUSH2 0xACE DUP2 PUSH2 0xAA8 JUMP JUMPDEST SWAP3 SWAP2 POP POP JUMP JUMPDEST PUSH1 0x0 PUSH1 0x20 DUP3 DUP5 SUB SLT ISZERO PUSH2 0xAEA JUMPI PUSH2 0xAE9 PUSH2 0x6AF JUMP JUMPDEST JUMPDEST PUSH1 0x0 PUSH2 0xAF8 DUP5 DUP3 DUP6 ADD PUSH2 0xABF JUMP JUMPDEST SWAP2 POP POP SWAP3 SWAP2 POP POP JUMP JUMPDEST PUSH2 0xB0A DUP2 PUSH2 0xA9C JUMP JUMPDEST DUP3 MSTORE POP POP JUMP JUMPDEST PUSH1 0x0 PUSH1 0x40 DUP3 ADD SWAP1 POP PUSH2 0xB25 PUSH1 0x0 DUP4 ADD DUP6 PUSH2 0xB01 JUMP JUMPDEST PUSH2 0xB32 PUSH1 0x20 DUP4 ADD DUP5 PUSH2 0x52D JUMP JUMPDEST SWAP4 SWAP3 POP POP POP JUMP JUMPDEST PUSH1 0x0 DUP2 SWAP1 POP SWAP3 SWAP2 POP POP JUMP JUMPDEST POP JUMP JUMPDEST PUSH1 0x0 PUSH2 0xB54 PUSH1 0x0 DUP4 PUSH2 0xB39 JUMP JUMPDEST SWAP2 POP PUSH2 0xB5F DUP3 PUSH2 0xB44 JUMP JUMPDEST PUSH1 0x0 DUP3 ADD SWAP1 POP SWAP2 SWAP1 POP JUMP JUMPDEST PUSH1 0x0 PUSH2 0xB75 DUP3 PUSH2 0xB47 JUMP JUMPDEST SWAP2 POP DUP2 SWAP1 POP SWAP2 SWAP1 POP JUMP JUMPDEST PUSH32 0x4661696C656420746F2073656E64204574686572000000000000000000000000 PUSH1 0x0 DUP3 ADD MSTORE POP JUMP JUMPDEST PUSH1 0x0 PUSH2 0xBB5 PUSH1 0x14 DUP4 PUSH2 0xA00 JUMP JUMPDEST SWAP2 POP PUSH2 0xBC0 DUP3 PUSH2 0xB7F JUMP JUMPDEST PUSH1 0x20 DUP3 ADD SWAP1 POP SWAP2 SWAP1 POP JUMP JUMPDEST PUSH1 0x0 PUSH1 0x20 DUP3 ADD SWAP1 POP DUP2 DUP2 SUB PUSH1 0x0 DUP4 ADD MSTORE PUSH2 0xBE4 DUP2 PUSH2 0xBA8 JUMP JUMPDEST SWAP1 POP SWAP2 SWAP1 POP JUMP INVALID LOG2 PUSH5 0x6970667358 0x22 SLT KECCAK256 0xE8 0xB3 0xBA 0xE1 0xF7 0xD6 0xE5 PC 0xB3 0xA8 EXTCODECOPY 0xF SELFBALANCE 0x1E 0x28 PUSH5 0x777EC91AC8 SWAP5 0xCB SWAP8 0xDF ISZERO 0xEC 0xFB 0x4C LOG3 0xE3 PUSH25 0x64736F6C634300081100330000000000000000000000000000 "
				},
				"gasEstimates": {
					"creation": {
						"codeDepositCost": "621000",
						"executionCost": "infinite",
						"totalCost": "infinite"
					},
					"external": {
						"aml()": "infinite",
						"getBalance()": "340",
						"kyc()": "infinite",
						"kycAddress()": "2559",
						"processing()": "infinite",
						"receiver()": "2580",
						"sendViaCall()": "infinite",
						"sender()": "2578"
					}
				},
				"methodIdentifiers": {
					"aml()": "dd6ff7fa",
					"getBalance()": "12065fe0",
					"kyc()": "90d6b45f",
					"kycAddress()": "49b85a16",
					"processing()": "3d6cfcd1",
					"receiver()": "f7260d3e",
					"sendViaCall()": "dbd81fc1",
					"sender()": "67e404ce"
				}
			},
			"storageLayout": {
				"storage": [
					{
						"astId": 171,
						"contract": "contracts/TransactionProcessing.sol:TransactionProcessing",
						"label": "sender",
						"offset": 0,
						"slot": "0",
						"type": "t_address_payable"
					},
					{
						"astId": 173,
						"contract": "contracts/TransactionProcessing.sol:TransactionProcessing",
						"label": "receiver",
						"offset": 0,
						"slot": "1",
						"type": "t_address_payable"
					},
					{
						"astId": 175,
						"contract": "contracts/TransactionProcessing.sol:TransactionProcessing",
						"label": "kycAddress",
						"offset": 0,
						"slot": "2",
						"type": "t_address"
					},
					{
						"astId": 178,
						"contract": "contracts/TransactionProcessing.sol:TransactionProcessing",
						"label": "kyc",
						"offset": 0,
						"slot": "3",
						"type": "t_contract(KYC)153"
					},
					{
						"astId": 181,
						"contract": "contracts/TransactionProcessing.sol:TransactionProcessing",
						"label": "aml",
						"offset": 0,
						"slot": "4",
						"type": "t_contract(AML)71"
					}
				],
				"types": {
					"t_address": {
						"encoding": "inplace",
						"label": "address",
						"numberOfBytes": "20"
					},
					"t_address_payable": {
						"encoding": "inplace",
						"label": "address payable",
						"numberOfBytes": "20"
					},
					"t_contract(AML)71": {
						"encoding": "inplace",
						"label": "contract AML",
						"numberOfBytes": "20"
					},
					"t_contract(KYC)153": {
						"encoding": "inplace",
						"label": "contract KYC",
						"numberOfBytes": "20"
					}
				}
			},
			"userdoc": {
				"kind": "user",
				"methods": {},
				"version": 1
			}
		}
	}
}