{
	"contracts/AML.sol": {
		"AML": {
			"abi": [
				{
					"inputs": [
						{
							"internalType": "string",
							"name": "userNationality",
							"type": "string"
						}
					],
					"name": "checkNationality",
					"outputs": [
						{
							"internalType": "bool",
							"name": "",
							"type": "bool"
						}
					],
					"stateMutability": "nonpayable",
					"type": "function"
				}
			],
			"devdoc": {
				"kind": "dev",
				"methods": {},
				"version": 1
			},
			"evm": {
				"assembly": "    /* \"contracts/AML.sol\":60:652  contract AML{... */\n  mstore(0x40, 0x80)\n  callvalue\n  dup1\n  iszero\n  tag_1\n  jumpi\n  0x00\n  dup1\n  revert\ntag_1:\n  pop\n  dataSize(sub_0)\n  dup1\n  dataOffset(sub_0)\n  0x00\n  codecopy\n  0x00\n  return\nstop\n\nsub_0: assembly {\n        /* \"contracts/AML.sol\":60:652  contract AML{... */\n      mstore(0x40, 0x80)\n      callvalue\n      dup1\n      iszero\n      tag_1\n      jumpi\n      0x00\n      dup1\n      revert\n    tag_1:\n      pop\n      jumpi(tag_2, lt(calldatasize, 0x04))\n      shr(0xe0, calldataload(0x00))\n      dup1\n      0x7b0b53f0\n      eq\n      tag_3\n      jumpi\n    tag_2:\n      0x00\n      dup1\n      revert\n        /* \"contracts/AML.sol\":114:649  function checkNationality(string memory userNationality) public returns(bool){... */\n    tag_3:\n      tag_4\n      0x04\n      dup1\n      calldatasize\n      sub\n      dup2\n      add\n      swap1\n      tag_5\n      swap2\n      swap1\n      tag_6\n      jump\t// in\n    tag_5:\n      tag_7\n      jump\t// in\n    tag_4:\n      mload(0x40)\n      tag_8\n      swap2\n      swap1\n      tag_9\n      jump\t// in\n    tag_8:\n      mload(0x40)\n      dup1\n      swap2\n      sub\n      swap1\n      return\n    tag_7:\n        /* \"contracts/AML.sol\":186:190  bool */\n      0x00\n        /* \"contracts/AML.sol\":204:219  bannedCountries */\n      dup1\n        /* \"contracts/AML.sol\":204:232  bannedCountries.push(\"Iran\") */\n      dup1\n      0x01\n      dup2\n      sload\n      add\n      dup1\n      dup3\n      sstore\n      dup1\n      swap2\n      pop\n      pop\n      0x01\n      swap1\n      sub\n      swap1\n      0x00\n      mstore\n      keccak256(0x00, 0x20)\n      add\n      0x00\n      mload(0x40)\n      dup1\n      0x40\n      add\n      0x40\n      mstore\n      dup1\n      0x04\n      dup2\n      mstore\n      0x20\n      add\n      0x4972616e00000000000000000000000000000000000000000000000000000000\n      dup2\n      mstore\n      pop\n      swap1\n      swap2\n      swap1\n      swap2\n      pop\n      swap1\n      dup2\n      tag_12\n      swap2\n      swap1\n      tag_13\n      jump\t// in\n    tag_12:\n      pop\n        /* \"contracts/AML.sol\":243:258  bannedCountries */\n      0x00\n        /* \"contracts/AML.sol\":243:277  bannedCountries.push(\"Afganistan\") */\n      dup1\n      0x01\n      dup2\n      sload\n      add\n      dup1\n      dup3\n      sstore\n      dup1\n      swap2\n      pop\n      pop\n      0x01\n      swap1\n      sub\n      swap1\n      0x00\n      mstore\n      keccak256(0x00, 0x20)\n      add\n      0x00\n      mload(0x40)\n      dup1\n      0x40\n      add\n      0x40\n      mstore\n      dup1\n      0x0a\n      dup2\n      mstore\n      0x20\n      add\n      0x416667616e697374616e00000000000000000000000000000000000000000000\n      dup2\n      mstore\n      pop\n      swap1\n      swap2\n      swap1\n      swap2\n      pop\n      swap1\n      dup2\n      tag_15\n      swap2\n      swap1\n      tag_13\n      jump\t// in\n    tag_15:\n      pop\n        /* \"contracts/AML.sol\":288:303  bannedCountries */\n      0x00\n        /* \"contracts/AML.sol\":288:324  bannedCountries.push(\"Turkmenistan\") */\n      dup1\n      0x01\n      dup2\n      sload\n      add\n      dup1\n      dup3\n      sstore\n      dup1\n      swap2\n      pop\n      pop\n      0x01\n      swap1\n      sub\n      swap1\n      0x00\n      mstore\n      keccak256(0x00, 0x20)\n      add\n      0x00\n      mload(0x40)\n      dup1\n      0x40\n      add\n      0x40\n      mstore\n      dup1\n      0x0c\n      dup2\n      mstore\n      0x20\n      add\n      0x5475726b6d656e697374616e0000000000000000000000000000000000000000\n      dup2\n      mstore\n      pop\n      swap1\n      swap2\n      swap1\n      swap2\n      pop\n      swap1\n      dup2\n      tag_17\n      swap2\n      swap1\n      tag_13\n      jump\t// in\n    tag_17:\n      pop\n        /* \"contracts/AML.sol\":335:350  bannedCountries */\n      0x00\n        /* \"contracts/AML.sol\":335:369  bannedCountries.push(\"Kyrgyzstan\") */\n      dup1\n      0x01\n      dup2\n      sload\n      add\n      dup1\n      dup3\n      sstore\n      dup1\n      swap2\n      pop\n      pop\n      0x01\n      swap1\n      sub\n      swap1\n      0x00\n      mstore\n      keccak256(0x00, 0x20)\n      add\n      0x00\n      mload(0x40)\n      dup1\n      0x40\n      add\n      0x40\n      mstore\n      dup1\n      0x0a\n      dup2\n      mstore\n      0x20\n      add\n      0x4b797267797a7374616e00000000000000000000000000000000000000000000\n      dup2\n      mstore\n      pop\n      swap1\n      swap2\n      swap1\n      swap2\n      pop\n      swap1\n      dup2\n      tag_19\n      swap2\n      swap1\n      tag_13\n      jump\t// in\n    tag_19:\n      pop\n        /* \"contracts/AML.sol\":634:639  false */\n      0x00\n        /* \"contracts/AML.sol\":627:639  return false */\n      swap1\n      pop\n        /* \"contracts/AML.sol\":114:649  function checkNationality(string memory userNationality) public returns(bool){... */\n      swap2\n      swap1\n      pop\n      jump\t// out\n        /* \"#utility.yul\":7:82   */\n    tag_20:\n        /* \"#utility.yul\":40:46   */\n      0x00\n        /* \"#utility.yul\":73:75   */\n      0x40\n        /* \"#utility.yul\":67:76   */\n      mload\n        /* \"#utility.yul\":57:76   */\n      swap1\n      pop\n        /* \"#utility.yul\":7:82   */\n      swap1\n      jump\t// out\n        /* \"#utility.yul\":88:205   */\n    tag_21:\n        /* \"#utility.yul\":197:198   */\n      0x00\n        /* \"#utility.yul\":194:195   */\n      dup1\n        /* \"#utility.yul\":187:199   */\n      revert\n        /* \"#utility.yul\":211:328   */\n    tag_22:\n        /* \"#utility.yul\":320:321   */\n      0x00\n        /* \"#utility.yul\":317:318   */\n      dup1\n        /* \"#utility.yul\":310:322   */\n      revert\n        /* \"#utility.yul\":334:451   */\n    tag_23:\n        /* \"#utility.yul\":443:444   */\n      0x00\n        /* \"#utility.yul\":440:441   */\n      dup1\n        /* \"#utility.yul\":433:445   */\n      revert\n        /* \"#utility.yul\":457:574   */\n    tag_24:\n        /* \"#utility.yul\":566:567   */\n      0x00\n        /* \"#utility.yul\":563:564   */\n      dup1\n        /* \"#utility.yul\":556:568   */\n      revert\n        /* \"#utility.yul\":580:682   */\n    tag_25:\n        /* \"#utility.yul\":621:627   */\n      0x00\n        /* \"#utility.yul\":672:674   */\n      0x1f\n        /* \"#utility.yul\":668:675   */\n      not\n        /* \"#utility.yul\":663:665   */\n      0x1f\n        /* \"#utility.yul\":656:661   */\n      dup4\n        /* \"#utility.yul\":652:666   */\n      add\n        /* \"#utility.yul\":648:676   */\n      and\n        /* \"#utility.yul\":638:676   */\n      swap1\n      pop\n        /* \"#utility.yul\":580:682   */\n      swap2\n      swap1\n      pop\n      jump\t// out\n        /* \"#utility.yul\":688:868   */\n    tag_26:\n        /* \"#utility.yul\":736:813   */\n      0x4e487b7100000000000000000000000000000000000000000000000000000000\n        /* \"#utility.yul\":733:734   */\n      0x00\n        /* \"#utility.yul\":726:814   */\n      mstore\n        /* \"#utility.yul\":833:837   */\n      0x41\n        /* \"#utility.yul\":830:831   */\n      0x04\n        /* \"#utility.yul\":823:838   */\n      mstore\n        /* \"#utility.yul\":857:861   */\n      0x24\n        /* \"#utility.yul\":854:855   */\n      0x00\n        /* \"#utility.yul\":847:862   */\n      revert\n        /* \"#utility.yul\":874:1155   */\n    tag_27:\n        /* \"#utility.yul\":957:984   */\n      tag_63\n        /* \"#utility.yul\":979:983   */\n      dup3\n        /* \"#utility.yul\":957:984   */\n      tag_25\n      jump\t// in\n    tag_63:\n        /* \"#utility.yul\":949:955   */\n      dup2\n        /* \"#utility.yul\":945:985   */\n      add\n        /* \"#utility.yul\":1087:1093   */\n      dup2\n        /* \"#utility.yul\":1075:1085   */\n      dup2\n        /* \"#utility.yul\":1072:1094   */\n      lt\n        /* \"#utility.yul\":1051:1069   */\n      0xffffffffffffffff\n        /* \"#utility.yul\":1039:1049   */\n      dup3\n        /* \"#utility.yul\":1036:1070   */\n      gt\n        /* \"#utility.yul\":1033:1095   */\n      or\n        /* \"#utility.yul\":1030:1118   */\n      iszero\n      tag_64\n      jumpi\n        /* \"#utility.yul\":1098:1116   */\n      tag_65\n      tag_26\n      jump\t// in\n    tag_65:\n        /* \"#utility.yul\":1030:1118   */\n    tag_64:\n        /* \"#utility.yul\":1138:1148   */\n      dup1\n        /* \"#utility.yul\":1134:1136   */\n      0x40\n        /* \"#utility.yul\":1127:1149   */\n      mstore\n        /* \"#utility.yul\":917:1155   */\n      pop\n        /* \"#utility.yul\":874:1155   */\n      pop\n      pop\n      jump\t// out\n        /* \"#utility.yul\":1161:1290   */\n    tag_28:\n        /* \"#utility.yul\":1195:1201   */\n      0x00\n        /* \"#utility.yul\":1222:1242   */\n      tag_67\n      tag_20\n      jump\t// in\n    tag_67:\n        /* \"#utility.yul\":1212:1242   */\n      swap1\n      pop\n        /* \"#utility.yul\":1251:1284   */\n      tag_68\n        /* \"#utility.yul\":1279:1283   */\n      dup3\n        /* \"#utility.yul\":1271:1277   */\n      dup3\n        /* \"#utility.yul\":1251:1284   */\n      tag_27\n      jump\t// in\n    tag_68:\n        /* \"#utility.yul\":1161:1290   */\n      swap2\n      swap1\n      pop\n      jump\t// out\n        /* \"#utility.yul\":1296:1604   */\n    tag_29:\n        /* \"#utility.yul\":1358:1362   */\n      0x00\n        /* \"#utility.yul\":1448:1466   */\n      0xffffffffffffffff\n        /* \"#utility.yul\":1440:1446   */\n      dup3\n        /* \"#utility.yul\":1437:1467   */\n      gt\n        /* \"#utility.yul\":1434:1490   */\n      iszero\n      tag_70\n      jumpi\n        /* \"#utility.yul\":1470:1488   */\n      tag_71\n      tag_26\n      jump\t// in\n    tag_71:\n        /* \"#utility.yul\":1434:1490   */\n    tag_70:\n        /* \"#utility.yul\":1508:1537   */\n      tag_72\n        /* \"#utility.yul\":1530:1536   */\n      dup3\n        /* \"#utility.yul\":1508:1537   */\n      tag_25\n      jump\t// in\n    tag_72:\n        /* \"#utility.yul\":1500:1537   */\n      swap1\n      pop\n        /* \"#utility.yul\":1592:1596   */\n      0x20\n        /* \"#utility.yul\":1586:1590   */\n      dup2\n        /* \"#utility.yul\":1582:1597   */\n      add\n        /* \"#utility.yul\":1574:1597   */\n      swap1\n      pop\n        /* \"#utility.yul\":1296:1604   */\n      swap2\n      swap1\n      pop\n      jump\t// out\n        /* \"#utility.yul\":1610:1756   */\n    tag_30:\n        /* \"#utility.yul\":1707:1713   */\n      dup3\n        /* \"#utility.yul\":1702:1705   */\n      dup2\n        /* \"#utility.yul\":1697:1700   */\n      dup4\n        /* \"#utility.yul\":1684:1714   */\n      calldatacopy\n        /* \"#utility.yul\":1748:1749   */\n      0x00\n        /* \"#utility.yul\":1739:1745   */\n      dup4\n        /* \"#utility.yul\":1734:1737   */\n      dup4\n        /* \"#utility.yul\":1730:1746   */\n      add\n        /* \"#utility.yul\":1723:1750   */\n      mstore\n        /* \"#utility.yul\":1610:1756   */\n      pop\n      pop\n      pop\n      jump\t// out\n        /* \"#utility.yul\":1762:2187   */\n    tag_31:\n        /* \"#utility.yul\":1840:1845   */\n      0x00\n        /* \"#utility.yul\":1865:1931   */\n      tag_75\n        /* \"#utility.yul\":1881:1930   */\n      tag_76\n        /* \"#utility.yul\":1923:1929   */\n      dup5\n        /* \"#utility.yul\":1881:1930   */\n      tag_29\n      jump\t// in\n    tag_76:\n        /* \"#utility.yul\":1865:1931   */\n      tag_28\n      jump\t// in\n    tag_75:\n        /* \"#utility.yul\":1856:1931   */\n      swap1\n      pop\n        /* \"#utility.yul\":1954:1960   */\n      dup3\n        /* \"#utility.yul\":1947:1952   */\n      dup2\n        /* \"#utility.yul\":1940:1961   */\n      mstore\n        /* \"#utility.yul\":1992:1996   */\n      0x20\n        /* \"#utility.yul\":1985:1990   */\n      dup2\n        /* \"#utility.yul\":1981:1997   */\n      add\n        /* \"#utility.yul\":2030:2033   */\n      dup5\n        /* \"#utility.yul\":2021:2027   */\n      dup5\n        /* \"#utility.yul\":2016:2019   */\n      dup5\n        /* \"#utility.yul\":2012:2028   */\n      add\n        /* \"#utility.yul\":2009:2034   */\n      gt\n        /* \"#utility.yul\":2006:2118   */\n      iszero\n      tag_77\n      jumpi\n        /* \"#utility.yul\":2037:2116   */\n      tag_78\n      tag_24\n      jump\t// in\n    tag_78:\n        /* \"#utility.yul\":2006:2118   */\n    tag_77:\n        /* \"#utility.yul\":2127:2181   */\n      tag_79\n        /* \"#utility.yul\":2174:2180   */\n      dup5\n        /* \"#utility.yul\":2169:2172   */\n      dup3\n        /* \"#utility.yul\":2164:2167   */\n      dup6\n        /* \"#utility.yul\":2127:2181   */\n      tag_30\n      jump\t// in\n    tag_79:\n        /* \"#utility.yul\":1846:2187   */\n      pop\n        /* \"#utility.yul\":1762:2187   */\n      swap4\n      swap3\n      pop\n      pop\n      pop\n      jump\t// out\n        /* \"#utility.yul\":2207:2547   */\n    tag_32:\n        /* \"#utility.yul\":2263:2268   */\n      0x00\n        /* \"#utility.yul\":2312:2315   */\n      dup3\n        /* \"#utility.yul\":2305:2309   */\n      0x1f\n        /* \"#utility.yul\":2297:2303   */\n      dup4\n        /* \"#utility.yul\":2293:2310   */\n      add\n        /* \"#utility.yul\":2289:2316   */\n      slt\n        /* \"#utility.yul\":2279:2401   */\n      tag_81\n      jumpi\n        /* \"#utility.yul\":2320:2399   */\n      tag_82\n      tag_23\n      jump\t// in\n    tag_82:\n        /* \"#utility.yul\":2279:2401   */\n    tag_81:\n        /* \"#utility.yul\":2437:2443   */\n      dup2\n        /* \"#utility.yul\":2424:2444   */\n      calldataload\n        /* \"#utility.yul\":2462:2541   */\n      tag_83\n        /* \"#utility.yul\":2537:2540   */\n      dup5\n        /* \"#utility.yul\":2529:2535   */\n      dup3\n        /* \"#utility.yul\":2522:2526   */\n      0x20\n        /* \"#utility.yul\":2514:2520   */\n      dup7\n        /* \"#utility.yul\":2510:2527   */\n      add\n        /* \"#utility.yul\":2462:2541   */\n      tag_31\n      jump\t// in\n    tag_83:\n        /* \"#utility.yul\":2453:2541   */\n      swap2\n      pop\n        /* \"#utility.yul\":2269:2547   */\n      pop\n        /* \"#utility.yul\":2207:2547   */\n      swap3\n      swap2\n      pop\n      pop\n      jump\t// out\n        /* \"#utility.yul\":2553:3062   */\n    tag_6:\n        /* \"#utility.yul\":2622:2628   */\n      0x00\n        /* \"#utility.yul\":2671:2673   */\n      0x20\n        /* \"#utility.yul\":2659:2668   */\n      dup3\n        /* \"#utility.yul\":2650:2657   */\n      dup5\n        /* \"#utility.yul\":2646:2669   */\n      sub\n        /* \"#utility.yul\":2642:2674   */\n      slt\n        /* \"#utility.yul\":2639:2758   */\n      iszero\n      tag_85\n      jumpi\n        /* \"#utility.yul\":2677:2756   */\n      tag_86\n      tag_21\n      jump\t// in\n    tag_86:\n        /* \"#utility.yul\":2639:2758   */\n    tag_85:\n        /* \"#utility.yul\":2825:2826   */\n      0x00\n        /* \"#utility.yul\":2814:2823   */\n      dup3\n        /* \"#utility.yul\":2810:2827   */\n      add\n        /* \"#utility.yul\":2797:2828   */\n      calldataload\n        /* \"#utility.yul\":2855:2873   */\n      0xffffffffffffffff\n        /* \"#utility.yul\":2847:2853   */\n      dup2\n        /* \"#utility.yul\":2844:2874   */\n      gt\n        /* \"#utility.yul\":2841:2958   */\n      iszero\n      tag_87\n      jumpi\n        /* \"#utility.yul\":2877:2956   */\n      tag_88\n      tag_22\n      jump\t// in\n    tag_88:\n        /* \"#utility.yul\":2841:2958   */\n    tag_87:\n        /* \"#utility.yul\":2982:3045   */\n      tag_89\n        /* \"#utility.yul\":3037:3044   */\n      dup5\n        /* \"#utility.yul\":3028:3034   */\n      dup3\n        /* \"#utility.yul\":3017:3026   */\n      dup6\n        /* \"#utility.yul\":3013:3035   */\n      add\n        /* \"#utility.yul\":2982:3045   */\n      tag_32\n      jump\t// in\n    tag_89:\n        /* \"#utility.yul\":2972:3045   */\n      swap2\n      pop\n        /* \"#utility.yul\":2768:3055   */\n      pop\n        /* \"#utility.yul\":2553:3062   */\n      swap3\n      swap2\n      pop\n      pop\n      jump\t// out\n        /* \"#utility.yul\":3068:3158   */\n    tag_33:\n        /* \"#utility.yul\":3102:3109   */\n      0x00\n        /* \"#utility.yul\":3145:3150   */\n      dup2\n        /* \"#utility.yul\":3138:3151   */\n      iszero\n        /* \"#utility.yul\":3131:3152   */\n      iszero\n        /* \"#utility.yul\":3120:3152   */\n      swap1\n      pop\n        /* \"#utility.yul\":3068:3158   */\n      swap2\n      swap1\n      pop\n      jump\t// out\n        /* \"#utility.yul\":3164:3273   */\n    tag_34:\n        /* \"#utility.yul\":3245:3266   */\n      tag_92\n        /* \"#utility.yul\":3260:3265   */\n      dup2\n        /* \"#utility.yul\":3245:3266   */\n      tag_33\n      jump\t// in\n    tag_92:\n        /* \"#utility.yul\":3240:3243   */\n      dup3\n        /* \"#utility.yul\":3233:3267   */\n      mstore\n        /* \"#utility.yul\":3164:3273   */\n      pop\n      pop\n      jump\t// out\n        /* \"#utility.yul\":3279:3489   */\n    tag_9:\n        /* \"#utility.yul\":3366:3370   */\n      0x00\n        /* \"#utility.yul\":3404:3406   */\n      0x20\n        /* \"#utility.yul\":3393:3402   */\n      dup3\n        /* \"#utility.yul\":3389:3407   */\n      add\n        /* \"#utility.yul\":3381:3407   */\n      swap1\n      pop\n        /* \"#utility.yul\":3417:3482   */\n      tag_94\n        /* \"#utility.yul\":3479:3480   */\n      0x00\n        /* \"#utility.yul\":3468:3477   */\n      dup4\n        /* \"#utility.yul\":3464:3481   */\n      add\n        /* \"#utility.yul\":3455:3461   */\n      dup5\n        /* \"#utility.yul\":3417:3482   */\n      tag_34\n      jump\t// in\n    tag_94:\n        /* \"#utility.yul\":3279:3489   */\n      swap3\n      swap2\n      pop\n      pop\n      jump\t// out\n        /* \"#utility.yul\":3495:3594   */\n    tag_35:\n        /* \"#utility.yul\":3547:3553   */\n      0x00\n        /* \"#utility.yul\":3581:3586   */\n      dup2\n        /* \"#utility.yul\":3575:3587   */\n      mload\n        /* \"#utility.yul\":3565:3587   */\n      swap1\n      pop\n        /* \"#utility.yul\":3495:3594   */\n      swap2\n      swap1\n      pop\n      jump\t// out\n        /* \"#utility.yul\":3600:3780   */\n    tag_36:\n        /* \"#utility.yul\":3648:3725   */\n      0x4e487b7100000000000000000000000000000000000000000000000000000000\n        /* \"#utility.yul\":3645:3646   */\n      0x00\n        /* \"#utility.yul\":3638:3726   */\n      mstore\n        /* \"#utility.yul\":3745:3749   */\n      0x22\n        /* \"#utility.yul\":3742:3743   */\n      0x04\n        /* \"#utility.yul\":3735:3750   */\n      mstore\n        /* \"#utility.yul\":3769:3773   */\n      0x24\n        /* \"#utility.yul\":3766:3767   */\n      0x00\n        /* \"#utility.yul\":3759:3774   */\n      revert\n        /* \"#utility.yul\":3786:4106   */\n    tag_37:\n        /* \"#utility.yul\":3830:3836   */\n      0x00\n        /* \"#utility.yul\":3867:3868   */\n      0x02\n        /* \"#utility.yul\":3861:3865   */\n      dup3\n        /* \"#utility.yul\":3857:3869   */\n      div\n        /* \"#utility.yul\":3847:3869   */\n      swap1\n      pop\n        /* \"#utility.yul\":3914:3915   */\n      0x01\n        /* \"#utility.yul\":3908:3912   */\n      dup3\n        /* \"#utility.yul\":3904:3916   */\n      and\n        /* \"#utility.yul\":3935:3953   */\n      dup1\n        /* \"#utility.yul\":3925:4006   */\n      tag_98\n      jumpi\n        /* \"#utility.yul\":3991:3995   */\n      0x7f\n        /* \"#utility.yul\":3983:3989   */\n      dup3\n        /* \"#utility.yul\":3979:3996   */\n      and\n        /* \"#utility.yul\":3969:3996   */\n      swap2\n      pop\n        /* \"#utility.yul\":3925:4006   */\n    tag_98:\n        /* \"#utility.yul\":4053:4055   */\n      0x20\n        /* \"#utility.yul\":4045:4051   */\n      dup3\n        /* \"#utility.yul\":4042:4056   */\n      lt\n        /* \"#utility.yul\":4022:4040   */\n      dup2\n        /* \"#utility.yul\":4019:4057   */\n      sub\n        /* \"#utility.yul\":4016:4100   */\n      tag_99\n      jumpi\n        /* \"#utility.yul\":4072:4090   */\n      tag_100\n      tag_36\n      jump\t// in\n    tag_100:\n        /* \"#utility.yul\":4016:4100   */\n    tag_99:\n        /* \"#utility.yul\":3837:4106   */\n      pop\n        /* \"#utility.yul\":3786:4106   */\n      swap2\n      swap1\n      pop\n      jump\t// out\n        /* \"#utility.yul\":4112:4253   */\n    tag_38:\n        /* \"#utility.yul\":4161:4165   */\n      0x00\n        /* \"#utility.yul\":4184:4187   */\n      dup2\n        /* \"#utility.yul\":4176:4187   */\n      swap1\n      pop\n        /* \"#utility.yul\":4207:4210   */\n      dup2\n        /* \"#utility.yul\":4204:4205   */\n      0x00\n        /* \"#utility.yul\":4197:4211   */\n      mstore\n        /* \"#utility.yul\":4241:4245   */\n      0x20\n        /* \"#utility.yul\":4238:4239   */\n      0x00\n        /* \"#utility.yul\":4228:4246   */\n      keccak256\n        /* \"#utility.yul\":4220:4246   */\n      swap1\n      pop\n        /* \"#utility.yul\":4112:4253   */\n      swap2\n      swap1\n      pop\n      jump\t// out\n        /* \"#utility.yul\":4259:4352   */\n    tag_39:\n        /* \"#utility.yul\":4296:4302   */\n      0x00\n        /* \"#utility.yul\":4343:4345   */\n      0x20\n        /* \"#utility.yul\":4338:4340   */\n      0x1f\n        /* \"#utility.yul\":4331:4336   */\n      dup4\n        /* \"#utility.yul\":4327:4341   */\n      add\n        /* \"#utility.yul\":4323:4346   */\n      div\n        /* \"#utility.yul\":4313:4346   */\n      swap1\n      pop\n        /* \"#utility.yul\":4259:4352   */\n      swap2\n      swap1\n      pop\n      jump\t// out\n        /* \"#utility.yul\":4358:4465   */\n    tag_40:\n        /* \"#utility.yul\":4402:4410   */\n      0x00\n        /* \"#utility.yul\":4452:4457   */\n      dup3\n        /* \"#utility.yul\":4446:4450   */\n      dup3\n        /* \"#utility.yul\":4442:4458   */\n      shl\n        /* \"#utility.yul\":4421:4458   */\n      swap1\n      pop\n        /* \"#utility.yul\":4358:4465   */\n      swap3\n      swap2\n      pop\n      pop\n      jump\t// out\n        /* \"#utility.yul\":4471:4864   */\n    tag_41:\n        /* \"#utility.yul\":4540:4546   */\n      0x00\n        /* \"#utility.yul\":4590:4591   */\n      0x08\n        /* \"#utility.yul\":4578:4588   */\n      dup4\n        /* \"#utility.yul\":4574:4592   */\n      mul\n        /* \"#utility.yul\":4613:4710   */\n      tag_105\n        /* \"#utility.yul\":4643:4709   */\n      0xffffffffffffffffffffffffffffffffffffffffffffffffffffffffffffffff\n        /* \"#utility.yul\":4632:4641   */\n      dup3\n        /* \"#utility.yul\":4613:4710   */\n      tag_40\n      jump\t// in\n    tag_105:\n        /* \"#utility.yul\":4731:4770   */\n      tag_106\n        /* \"#utility.yul\":4761:4769   */\n      dup7\n        /* \"#utility.yul\":4750:4759   */\n      dup4\n        /* \"#utility.yul\":4731:4770   */\n      tag_40\n      jump\t// in\n    tag_106:\n        /* \"#utility.yul\":4719:4770   */\n      swap6\n      pop\n        /* \"#utility.yul\":4803:4807   */\n      dup1\n        /* \"#utility.yul\":4799:4808   */\n      not\n        /* \"#utility.yul\":4792:4797   */\n      dup5\n        /* \"#utility.yul\":4788:4809   */\n      and\n        /* \"#utility.yul\":4779:4809   */\n      swap4\n      pop\n        /* \"#utility.yul\":4852:4856   */\n      dup1\n        /* \"#utility.yul\":4842:4850   */\n      dup7\n        /* \"#utility.yul\":4838:4857   */\n      and\n        /* \"#utility.yul\":4831:4836   */\n      dup5\n        /* \"#utility.yul\":4828:4858   */\n      or\n        /* \"#utility.yul\":4818:4858   */\n      swap3\n      pop\n        /* \"#utility.yul\":4547:4864   */\n      pop\n      pop\n        /* \"#utility.yul\":4471:4864   */\n      swap4\n      swap3\n      pop\n      pop\n      pop\n      jump\t// out\n        /* \"#utility.yul\":4870:4947   */\n    tag_42:\n        /* \"#utility.yul\":4907:4914   */\n      0x00\n        /* \"#utility.yul\":4936:4941   */\n      dup2\n        /* \"#utility.yul\":4925:4941   */\n      swap1\n      pop\n        /* \"#utility.yul\":4870:4947   */\n      swap2\n      swap1\n      pop\n      jump\t// out\n        /* \"#utility.yul\":4953:5013   */\n    tag_43:\n        /* \"#utility.yul\":4981:4984   */\n      0x00\n        /* \"#utility.yul\":5002:5007   */\n      dup2\n        /* \"#utility.yul\":4995:5007   */\n      swap1\n      pop\n        /* \"#utility.yul\":4953:5013   */\n      swap2\n      swap1\n      pop\n      jump\t// out\n        /* \"#utility.yul\":5019:5161   */\n    tag_44:\n        /* \"#utility.yul\":5069:5078   */\n      0x00\n        /* \"#utility.yul\":5102:5155   */\n      tag_110\n        /* \"#utility.yul\":5120:5154   */\n      tag_111\n        /* \"#utility.yul\":5129:5153   */\n      tag_112\n        /* \"#utility.yul\":5147:5152   */\n      dup5\n        /* \"#utility.yul\":5129:5153   */\n      tag_42\n      jump\t// in\n    tag_112:\n        /* \"#utility.yul\":5120:5154   */\n      tag_43\n      jump\t// in\n    tag_111:\n        /* \"#utility.yul\":5102:5155   */\n      tag_42\n      jump\t// in\n    tag_110:\n        /* \"#utility.yul\":5089:5155   */\n      swap1\n      pop\n        /* \"#utility.yul\":5019:5161   */\n      swap2\n      swap1\n      pop\n      jump\t// out\n        /* \"#utility.yul\":5167:5242   */\n    tag_45:\n        /* \"#utility.yul\":5210:5213   */\n      0x00\n        /* \"#utility.yul\":5231:5236   */\n      dup2\n        /* \"#utility.yul\":5224:5236   */\n      swap1\n      pop\n        /* \"#utility.yul\":5167:5242   */\n      swap2\n      swap1\n      pop\n      jump\t// out\n        /* \"#utility.yul\":5248:5517   */\n    tag_46:\n        /* \"#utility.yul\":5358:5397   */\n      tag_115\n        /* \"#utility.yul\":5389:5396   */\n      dup4\n        /* \"#utility.yul\":5358:5397   */\n      tag_44\n      jump\t// in\n    tag_115:\n        /* \"#utility.yul\":5419:5510   */\n      tag_116\n        /* \"#utility.yul\":5468:5509   */\n      tag_117\n        /* \"#utility.yul\":5492:5508   */\n      dup3\n        /* \"#utility.yul\":5468:5509   */\n      tag_45\n      jump\t// in\n    tag_117:\n        /* \"#utility.yul\":5460:5466   */\n      dup5\n        /* \"#utility.yul\":5453:5457   */\n      dup5\n        /* \"#utility.yul\":5447:5458   */\n      sload\n        /* \"#utility.yul\":5419:5510   */\n      tag_41\n      jump\t// in\n    tag_116:\n        /* \"#utility.yul\":5413:5417   */\n      dup3\n        /* \"#utility.yul\":5406:5511   */\n      sstore\n        /* \"#utility.yul\":5324:5517   */\n      pop\n        /* \"#utility.yul\":5248:5517   */\n      pop\n      pop\n      pop\n      jump\t// out\n        /* \"#utility.yul\":5523:5596   */\n    tag_47:\n        /* \"#utility.yul\":5568:5571   */\n      0x00\n        /* \"#utility.yul\":5523:5596   */\n      swap1\n      jump\t// out\n        /* \"#utility.yul\":5602:5791   */\n    tag_48:\n        /* \"#utility.yul\":5679:5711   */\n      tag_120\n      tag_47\n      jump\t// in\n    tag_120:\n        /* \"#utility.yul\":5720:5785   */\n      tag_121\n        /* \"#utility.yul\":5778:5784   */\n      dup2\n        /* \"#utility.yul\":5770:5776   */\n      dup5\n        /* \"#utility.yul\":5764:5768   */\n      dup5\n        /* \"#utility.yul\":5720:5785   */\n      tag_46\n      jump\t// in\n    tag_121:\n        /* \"#utility.yul\":5655:5791   */\n      pop\n        /* \"#utility.yul\":5602:5791   */\n      pop\n      pop\n      jump\t// out\n        /* \"#utility.yul\":5797:5983   */\n    tag_49:\n        /* \"#utility.yul\":5857:5977   */\n    tag_123:\n        /* \"#utility.yul\":5874:5877   */\n      dup2\n        /* \"#utility.yul\":5867:5872   */\n      dup2\n        /* \"#utility.yul\":5864:5878   */\n      lt\n        /* \"#utility.yul\":5857:5977   */\n      iszero\n      tag_125\n      jumpi\n        /* \"#utility.yul\":5928:5967   */\n      tag_126\n        /* \"#utility.yul\":5965:5966   */\n      0x00\n        /* \"#utility.yul\":5958:5963   */\n      dup3\n        /* \"#utility.yul\":5928:5967   */\n      tag_48\n      jump\t// in\n    tag_126:\n        /* \"#utility.yul\":5901:5902   */\n      0x01\n        /* \"#utility.yul\":5894:5899   */\n      dup2\n        /* \"#utility.yul\":5890:5903   */\n      add\n        /* \"#utility.yul\":5881:5903   */\n      swap1\n      pop\n        /* \"#utility.yul\":5857:5977   */\n      jump(tag_123)\n    tag_125:\n        /* \"#utility.yul\":5797:5983   */\n      pop\n      pop\n      jump\t// out\n        /* \"#utility.yul\":5989:6532   */\n    tag_50:\n        /* \"#utility.yul\":6090:6092   */\n      0x1f\n        /* \"#utility.yul\":6085:6088   */\n      dup3\n        /* \"#utility.yul\":6082:6093   */\n      gt\n        /* \"#utility.yul\":6079:6525   */\n      iszero\n      tag_128\n      jumpi\n        /* \"#utility.yul\":6124:6162   */\n      tag_129\n        /* \"#utility.yul\":6156:6161   */\n      dup2\n        /* \"#utility.yul\":6124:6162   */\n      tag_38\n      jump\t// in\n    tag_129:\n        /* \"#utility.yul\":6208:6237   */\n      tag_130\n        /* \"#utility.yul\":6226:6236   */\n      dup5\n        /* \"#utility.yul\":6208:6237   */\n      tag_39\n      jump\t// in\n    tag_130:\n        /* \"#utility.yul\":6198:6206   */\n      dup2\n        /* \"#utility.yul\":6194:6238   */\n      add\n        /* \"#utility.yul\":6391:6393   */\n      0x20\n        /* \"#utility.yul\":6379:6389   */\n      dup6\n        /* \"#utility.yul\":6376:6394   */\n      lt\n        /* \"#utility.yul\":6373:6422   */\n      iszero\n      tag_131\n      jumpi\n        /* \"#utility.yul\":6412:6420   */\n      dup2\n        /* \"#utility.yul\":6397:6420   */\n      swap1\n      pop\n        /* \"#utility.yul\":6373:6422   */\n    tag_131:\n        /* \"#utility.yul\":6435:6515   */\n      tag_132\n        /* \"#utility.yul\":6491:6513   */\n      tag_133\n        /* \"#utility.yul\":6509:6512   */\n      dup6\n        /* \"#utility.yul\":6491:6513   */\n      tag_39\n      jump\t// in\n    tag_133:\n        /* \"#utility.yul\":6481:6489   */\n      dup4\n        /* \"#utility.yul\":6477:6514   */\n      add\n        /* \"#utility.yul\":6464:6475   */\n      dup3\n        /* \"#utility.yul\":6435:6515   */\n      tag_49\n      jump\t// in\n    tag_132:\n        /* \"#utility.yul\":6094:6525   */\n      pop\n      pop\n        /* \"#utility.yul\":6079:6525   */\n    tag_128:\n        /* \"#utility.yul\":5989:6532   */\n      pop\n      pop\n      pop\n      jump\t// out\n        /* \"#utility.yul\":6538:6655   */\n    tag_51:\n        /* \"#utility.yul\":6592:6600   */\n      0x00\n        /* \"#utility.yul\":6642:6647   */\n      dup3\n        /* \"#utility.yul\":6636:6640   */\n      dup3\n        /* \"#utility.yul\":6632:6648   */\n      shr\n        /* \"#utility.yul\":6611:6648   */\n      swap1\n      pop\n        /* \"#utility.yul\":6538:6655   */\n      swap3\n      swap2\n      pop\n      pop\n      jump\t// out\n        /* \"#utility.yul\":6661:6830   */\n    tag_52:\n        /* \"#utility.yul\":6705:6711   */\n      0x00\n        /* \"#utility.yul\":6738:6789   */\n      tag_136\n        /* \"#utility.yul\":6786:6787   */\n      0x00\n        /* \"#utility.yul\":6782:6788   */\n      not\n        /* \"#utility.yul\":6774:6779   */\n      dup5\n        /* \"#utility.yul\":6771:6772   */\n      0x08\n        /* \"#utility.yul\":6767:6780   */\n      mul\n        /* \"#utility.yul\":6738:6789   */\n      tag_51\n      jump\t// in\n    tag_136:\n        /* \"#utility.yul\":6734:6790   */\n      not\n        /* \"#utility.yul\":6819:6823   */\n      dup1\n        /* \"#utility.yul\":6813:6817   */\n      dup4\n        /* \"#utility.yul\":6809:6824   */\n      and\n        /* \"#utility.yul\":6799:6824   */\n      swap2\n      pop\n        /* \"#utility.yul\":6712:6830   */\n      pop\n        /* \"#utility.yul\":6661:6830   */\n      swap3\n      swap2\n      pop\n      pop\n      jump\t// out\n        /* \"#utility.yul\":6835:7130   */\n    tag_53:\n        /* \"#utility.yul\":6911:6915   */\n      0x00\n        /* \"#utility.yul\":7057:7086   */\n      tag_138\n        /* \"#utility.yul\":7082:7085   */\n      dup4\n        /* \"#utility.yul\":7076:7080   */\n      dup4\n        /* \"#utility.yul\":7057:7086   */\n      tag_52\n      jump\t// in\n    tag_138:\n        /* \"#utility.yul\":7049:7086   */\n      swap2\n      pop\n        /* \"#utility.yul\":7119:7122   */\n      dup3\n        /* \"#utility.yul\":7116:7117   */\n      0x02\n        /* \"#utility.yul\":7112:7123   */\n      mul\n        /* \"#utility.yul\":7106:7110   */\n      dup3\n        /* \"#utility.yul\":7103:7124   */\n      or\n        /* \"#utility.yul\":7095:7124   */\n      swap1\n      pop\n        /* \"#utility.yul\":6835:7130   */\n      swap3\n      swap2\n      pop\n      pop\n      jump\t// out\n        /* \"#utility.yul\":7135:8530   */\n    tag_13:\n        /* \"#utility.yul\":7252:7289   */\n      tag_140\n        /* \"#utility.yul\":7285:7288   */\n      dup3\n        /* \"#utility.yul\":7252:7289   */\n      tag_35\n      jump\t// in\n    tag_140:\n        /* \"#utility.yul\":7354:7372   */\n      0xffffffffffffffff\n        /* \"#utility.yul\":7346:7352   */\n      dup2\n        /* \"#utility.yul\":7343:7373   */\n      gt\n        /* \"#utility.yul\":7340:7396   */\n      iszero\n      tag_141\n      jumpi\n        /* \"#utility.yul\":7376:7394   */\n      tag_142\n      tag_26\n      jump\t// in\n    tag_142:\n        /* \"#utility.yul\":7340:7396   */\n    tag_141:\n        /* \"#utility.yul\":7420:7458   */\n      tag_143\n        /* \"#utility.yul\":7452:7456   */\n      dup3\n        /* \"#utility.yul\":7446:7457   */\n      sload\n        /* \"#utility.yul\":7420:7458   */\n      tag_37\n      jump\t// in\n    tag_143:\n        /* \"#utility.yul\":7505:7572   */\n      tag_144\n        /* \"#utility.yul\":7565:7571   */\n      dup3\n        /* \"#utility.yul\":7557:7563   */\n      dup3\n        /* \"#utility.yul\":7551:7555   */\n      dup6\n        /* \"#utility.yul\":7505:7572   */\n      tag_50\n      jump\t// in\n    tag_144:\n        /* \"#utility.yul\":7599:7600   */\n      0x00\n        /* \"#utility.yul\":7623:7627   */\n      0x20\n        /* \"#utility.yul\":7610:7627   */\n      swap1\n      pop\n        /* \"#utility.yul\":7655:7657   */\n      0x1f\n        /* \"#utility.yul\":7647:7653   */\n      dup4\n        /* \"#utility.yul\":7644:7658   */\n      gt\n        /* \"#utility.yul\":7672:7673   */\n      0x01\n        /* \"#utility.yul\":7667:8285   */\n      dup2\n      eq\n      tag_146\n      jumpi\n        /* \"#utility.yul\":8329:8330   */\n      0x00\n        /* \"#utility.yul\":8346:8352   */\n      dup5\n        /* \"#utility.yul\":8343:8420   */\n      iszero\n      tag_147\n      jumpi\n        /* \"#utility.yul\":8395:8404   */\n      dup3\n        /* \"#utility.yul\":8390:8393   */\n      dup8\n        /* \"#utility.yul\":8386:8405   */\n      add\n        /* \"#utility.yul\":8380:8406   */\n      mload\n        /* \"#utility.yul\":8371:8406   */\n      swap1\n      pop\n        /* \"#utility.yul\":8343:8420   */\n    tag_147:\n        /* \"#utility.yul\":8446:8513   */\n      tag_148\n        /* \"#utility.yul\":8506:8512   */\n      dup6\n        /* \"#utility.yul\":8499:8504   */\n      dup3\n        /* \"#utility.yul\":8446:8513   */\n      tag_53\n      jump\t// in\n    tag_148:\n        /* \"#utility.yul\":8440:8444   */\n      dup7\n        /* \"#utility.yul\":8433:8514   */\n      sstore\n        /* \"#utility.yul\":8302:8524   */\n      pop\n        /* \"#utility.yul\":7637:8524   */\n      jump(tag_145)\n        /* \"#utility.yul\":7667:8285   */\n    tag_146:\n        /* \"#utility.yul\":7719:7723   */\n      0x1f\n        /* \"#utility.yul\":7715:7724   */\n      not\n        /* \"#utility.yul\":7707:7713   */\n      dup5\n        /* \"#utility.yul\":7703:7725   */\n      and\n        /* \"#utility.yul\":7753:7790   */\n      tag_149\n        /* \"#utility.yul\":7785:7789   */\n      dup7\n        /* \"#utility.yul\":7753:7790   */\n      tag_38\n      jump\t// in\n    tag_149:\n        /* \"#utility.yul\":7812:7813   */\n      0x00\n        /* \"#utility.yul\":7826:8034   */\n    tag_150:\n        /* \"#utility.yul\":7840:7847   */\n      dup3\n        /* \"#utility.yul\":7837:7838   */\n      dup2\n        /* \"#utility.yul\":7834:7848   */\n      lt\n        /* \"#utility.yul\":7826:8034   */\n      iszero\n      tag_152\n      jumpi\n        /* \"#utility.yul\":7919:7928   */\n      dup5\n        /* \"#utility.yul\":7914:7917   */\n      dup10\n        /* \"#utility.yul\":7910:7929   */\n      add\n        /* \"#utility.yul\":7904:7930   */\n      mload\n        /* \"#utility.yul\":7896:7902   */\n      dup3\n        /* \"#utility.yul\":7889:7931   */\n      sstore\n        /* \"#utility.yul\":7970:7971   */\n      0x01\n        /* \"#utility.yul\":7962:7968   */\n      dup3\n        /* \"#utility.yul\":7958:7972   */\n      add\n        /* \"#utility.yul\":7948:7972   */\n      swap2\n      pop\n        /* \"#utility.yul\":8017:8019   */\n      0x20\n        /* \"#utility.yul\":8006:8015   */\n      dup6\n        /* \"#utility.yul\":8002:8020   */\n      add\n        /* \"#utility.yul\":7989:8020   */\n      swap5\n      pop\n        /* \"#utility.yul\":7863:7867   */\n      0x20\n        /* \"#utility.yul\":7860:7861   */\n      dup2\n        /* \"#utility.yul\":7856:7868   */\n      add\n        /* \"#utility.yul\":7851:7868   */\n      swap1\n      pop\n        /* \"#utility.yul\":7826:8034   */\n      jump(tag_150)\n    tag_152:\n        /* \"#utility.yul\":8062:8068   */\n      dup7\n        /* \"#utility.yul\":8053:8060   */\n      dup4\n        /* \"#utility.yul\":8050:8069   */\n      lt\n        /* \"#utility.yul\":8047:8226   */\n      iszero\n      tag_153\n      jumpi\n        /* \"#utility.yul\":8120:8129   */\n      dup5\n        /* \"#utility.yul\":8115:8118   */\n      dup10\n        /* \"#utility.yul\":8111:8130   */\n      add\n        /* \"#utility.yul\":8105:8131   */\n      mload\n        /* \"#utility.yul\":8163:8211   */\n      tag_154\n        /* \"#utility.yul\":8205:8209   */\n      0x1f\n        /* \"#utility.yul\":8197:8203   */\n      dup10\n        /* \"#utility.yul\":8193:8210   */\n      and\n        /* \"#utility.yul\":8182:8191   */\n      dup3\n        /* \"#utility.yul\":8163:8211   */\n      tag_52\n      jump\t// in\n    tag_154:\n        /* \"#utility.yul\":8155:8161   */\n      dup4\n        /* \"#utility.yul\":8148:8212   */\n      sstore\n        /* \"#utility.yul\":8070:8226   */\n      pop\n        /* \"#utility.yul\":8047:8226   */\n    tag_153:\n        /* \"#utility.yul\":8272:8273   */\n      0x01\n        /* \"#utility.yul\":8268:8269   */\n      0x02\n        /* \"#utility.yul\":8260:8266   */\n      dup9\n        /* \"#utility.yul\":8256:8270   */\n      mul\n        /* \"#utility.yul\":8252:8274   */\n      add\n        /* \"#utility.yul\":8246:8250   */\n      dup9\n        /* \"#utility.yul\":8239:8275   */\n      sstore\n        /* \"#utility.yul\":7674:8285   */\n      pop\n      pop\n      pop\n        /* \"#utility.yul\":7637:8524   */\n    tag_145:\n      pop\n        /* \"#utility.yul\":7227:8530   */\n      pop\n      pop\n      pop\n        /* \"#utility.yul\":7135:8530   */\n      pop\n      pop\n      jump\t// out\n\n    auxdata: 0xa26469706673582212200c43cf41d344280519ca440ddd6e048258656697da58d67e9ab08915d5d76c0a64736f6c63430008110033\n}\n",
				"bytecode": {
					"linkReferences": {},
					"object": "608060405234801561001057600080fd5b50610708806100206000396000f3fe608060405234801561001057600080fd5b506004361061002b5760003560e01c80637b0b53f014610030575b600080fd5b61004a60048036038101906100459190610360565b610060565b60405161005791906103c4565b60405180910390f35b60008080600181540180825580915050600190039060005260206000200160006040518060400160405280600481526020017f4972616e00000000000000000000000000000000000000000000000000000000815250909190915090816100c79190610600565b50600080600181540180825580915050600190039060005260206000200160006040518060400160405280600a81526020017f416667616e697374616e000000000000000000000000000000000000000000008152509091909150908161012e9190610600565b50600080600181540180825580915050600190039060005260206000200160006040518060400160405280600c81526020017f5475726b6d656e697374616e0000000000000000000000000000000000000000815250909190915090816101959190610600565b50600080600181540180825580915050600190039060005260206000200160006040518060400160405280600a81526020017f4b797267797a7374616e00000000000000000000000000000000000000000000815250909190915090816101fc9190610600565b5060009050919050565b6000604051905090565b600080fd5b600080fd5b600080fd5b600080fd5b6000601f19601f8301169050919050565b7f4e487b7100000000000000000000000000000000000000000000000000000000600052604160045260246000fd5b61026d82610224565b810181811067ffffffffffffffff8211171561028c5761028b610235565b5b80604052505050565b600061029f610206565b90506102ab8282610264565b919050565b600067ffffffffffffffff8211156102cb576102ca610235565b5b6102d482610224565b9050602081019050919050565b82818337600083830152505050565b60006103036102fe846102b0565b610295565b90508281526020810184848401111561031f5761031e61021f565b5b61032a8482856102e1565b509392505050565b600082601f8301126103475761034661021a565b5b81356103578482602086016102f0565b91505092915050565b60006020828403121561037657610375610210565b5b600082013567ffffffffffffffff81111561039457610393610215565b5b6103a084828501610332565b91505092915050565b60008115159050919050565b6103be816103a9565b82525050565b60006020820190506103d960008301846103b5565b92915050565b600081519050919050565b7f4e487b7100000000000000000000000000000000000000000000000000000000600052602260045260246000fd5b6000600282049050600182168061043157607f821691505b602082108103610444576104436103ea565b5b50919050565b60008190508160005260206000209050919050565b60006020601f8301049050919050565b600082821b905092915050565b6000600883026104ac7fffffffffffffffffffffffffffffffffffffffffffffffffffffffffffffffff8261046f565b6104b6868361046f565b95508019841693508086168417925050509392505050565b6000819050919050565b6000819050919050565b60006104fd6104f86104f3846104ce565b6104d8565b6104ce565b9050919050565b6000819050919050565b610517836104e2565b61052b61052382610504565b84845461047c565b825550505050565b600090565b610540610533565b61054b81848461050e565b505050565b5b8181101561056f57610564600082610538565b600181019050610551565b5050565b601f8211156105b4576105858161044a565b61058e8461045f565b8101602085101561059d578190505b6105b16105a98561045f565b830182610550565b50505b505050565b600082821c905092915050565b60006105d7600019846008026105b9565b1980831691505092915050565b60006105f083836105c6565b9150826002028217905092915050565b610609826103df565b67ffffffffffffffff81111561062257610621610235565b5b61062c8254610419565b610637828285610573565b600060209050601f83116001811461066a5760008415610658578287015190505b61066285826105e4565b8655506106ca565b601f1984166106788661044a565b60005b828110156106a05784890151825560018201915060208501945060208101905061067b565b868310156106bd57848901516106b9601f8916826105c6565b8355505b6001600288020188555050505b50505050505056fea26469706673582212200c43cf41d344280519ca440ddd6e048258656697da58d67e9ab08915d5d76c0a64736f6c63430008110033",
					"opcodes": "PUSH1 0x80 PUSH1 0x40 MSTORE CALLVALUE DUP1 ISZERO PUSH2 0x10 JUMPI PUSH1 0x0 DUP1 REVERT JUMPDEST POP PUSH2 0x708 DUP1 PUSH2 0x20 PUSH1 0x0 CODECOPY PUSH1 0x0 RETURN INVALID PUSH1 0x80 PUSH1 0x40 MSTORE CALLVALUE DUP1 ISZERO PUSH2 0x10 JUMPI PUSH1 0x0 DUP1 REVERT JUMPDEST POP PUSH1 0x4 CALLDATASIZE LT PUSH2 0x2B JUMPI PUSH1 0x0 CALLDATALOAD PUSH1 0xE0 SHR DUP1 PUSH4 0x7B0B53F0 EQ PUSH2 0x30 JUMPI JUMPDEST PUSH1 0x0 DUP1 REVERT JUMPDEST PUSH2 0x4A PUSH1 0x4 DUP1 CALLDATASIZE SUB DUP2 ADD SWAP1 PUSH2 0x45 SWAP2 SWAP1 PUSH2 0x360 JUMP JUMPDEST PUSH2 0x60 JUMP JUMPDEST PUSH1 0x40 MLOAD PUSH2 0x57 SWAP2 SWAP1 PUSH2 0x3C4 JUMP JUMPDEST PUSH1 0x40 MLOAD DUP1 SWAP2 SUB SWAP1 RETURN JUMPDEST PUSH1 0x0 DUP1 DUP1 PUSH1 0x1 DUP2 SLOAD ADD DUP1 DUP3 SSTORE DUP1 SWAP2 POP POP PUSH1 0x1 SWAP1 SUB SWAP1 PUSH1 0x0 MSTORE PUSH1 0x20 PUSH1 0x0 KECCAK256 ADD PUSH1 0x0 PUSH1 0x40 MLOAD DUP1 PUSH1 0x40 ADD PUSH1 0x40 MSTORE DUP1 PUSH1 0x4 DUP2 MSTORE PUSH1 0x20 ADD PUSH32 0x4972616E00000000000000000000000000000000000000000000000000000000 DUP2 MSTORE POP SWAP1 SWAP2 SWAP1 SWAP2 POP SWAP1 DUP2 PUSH2 0xC7 SWAP2 SWAP1 PUSH2 0x600 JUMP JUMPDEST POP PUSH1 0x0 DUP1 PUSH1 0x1 DUP2 SLOAD ADD DUP1 DUP3 SSTORE DUP1 SWAP2 POP POP PUSH1 0x1 SWAP1 SUB SWAP1 PUSH1 0x0 MSTORE PUSH1 0x20 PUSH1 0x0 KECCAK256 ADD PUSH1 0x0 PUSH1 0x40 MLOAD DUP1 PUSH1 0x40 ADD PUSH1 0x40 MSTORE DUP1 PUSH1 0xA DUP2 MSTORE PUSH1 0x20 ADD PUSH32 0x416667616E697374616E00000000000000000000000000000000000000000000 DUP2 MSTORE POP SWAP1 SWAP2 SWAP1 SWAP2 POP SWAP1 DUP2 PUSH2 0x12E SWAP2 SWAP1 PUSH2 0x600 JUMP JUMPDEST POP PUSH1 0x0 DUP1 PUSH1 0x1 DUP2 SLOAD ADD DUP1 DUP3 SSTORE DUP1 SWAP2 POP POP PUSH1 0x1 SWAP1 SUB SWAP1 PUSH1 0x0 MSTORE PUSH1 0x20 PUSH1 0x0 KECCAK256 ADD PUSH1 0x0 PUSH1 0x40 MLOAD DUP1 PUSH1 0x40 ADD PUSH1 0x40 MSTORE DUP1 PUSH1 0xC DUP2 MSTORE PUSH1 0x20 ADD PUSH32 0x5475726B6D656E697374616E0000000000000000000000000000000000000000 DUP2 MSTORE POP SWAP1 SWAP2 SWAP1 SWAP2 POP SWAP1 DUP2 PUSH2 0x195 SWAP2 SWAP1 PUSH2 0x600 JUMP JUMPDEST POP PUSH1 0x0 DUP1 PUSH1 0x1 DUP2 SLOAD ADD DUP1 DUP3 SSTORE DUP1 SWAP2 POP POP PUSH1 0x1 SWAP1 SUB SWAP1 PUSH1 0x0 MSTORE PUSH1 0x20 PUSH1 0x0 KECCAK256 ADD PUSH1 0x0 PUSH1 0x40 MLOAD DUP1 PUSH1 0x40 ADD PUSH1 0x40 MSTORE DUP1 PUSH1 0xA DUP2 MSTORE PUSH1 0x20 ADD PUSH32 0x4B797267797A7374616E00000000000000000000000000000000000000000000 DUP2 MSTORE POP SWAP1 SWAP2 SWAP1 SWAP2 POP SWAP1 DUP2 PUSH2 0x1FC SWAP2 SWAP1 PUSH2 0x600 JUMP JUMPDEST POP PUSH1 0x0 SWAP1 POP SWAP2 SWAP1 POP JUMP JUMPDEST PUSH1 0x0 PUSH1 0x40 MLOAD SWAP1 POP SWAP1 JUMP JUMPDEST PUSH1 0x0 DUP1 REVERT JUMPDEST PUSH1 0x0 DUP1 REVERT JUMPDEST PUSH1 0x0 DUP1 REVERT JUMPDEST PUSH1 0x0 DUP1 REVERT JUMPDEST PUSH1 0x0 PUSH1 0x1F NOT PUSH1 0x1F DUP4 ADD AND SWAP1 POP SWAP2 SWAP1 POP JUMP JUMPDEST PUSH32 0x4E487B7100000000000000000000000000000000000000000000000000000000 PUSH1 0x0 MSTORE PUSH1 0x41 PUSH1 0x4 MSTORE PUSH1 0x24 PUSH1 0x0 REVERT JUMPDEST PUSH2 0x26D DUP3 PUSH2 0x224 JUMP JUMPDEST DUP2 ADD DUP2 DUP2 LT PUSH8 0xFFFFFFFFFFFFFFFF DUP3 GT OR ISZERO PUSH2 0x28C JUMPI PUSH2 0x28B PUSH2 0x235 JUMP JUMPDEST JUMPDEST DUP1 PUSH1 0x40 MSTORE POP POP POP JUMP JUMPDEST PUSH1 0x0 PUSH2 0x29F PUSH2 0x206 JUMP JUMPDEST SWAP1 POP PUSH2 0x2AB DUP3 DUP3 PUSH2 0x264 JUMP JUMPDEST SWAP2 SWAP1 POP JUMP JUMPDEST PUSH1 0x0 PUSH8 0xFFFFFFFFFFFFFFFF DUP3 GT ISZERO PUSH2 0x2CB JUMPI PUSH2 0x2CA PUSH2 0x235 JUMP JUMPDEST JUMPDEST PUSH2 0x2D4 DUP3 PUSH2 0x224 JUMP JUMPDEST SWAP1 POP PUSH1 0x20 DUP2 ADD SWAP1 POP SWAP2 SWAP1 POP JUMP JUMPDEST DUP3 DUP2 DUP4 CALLDATACOPY PUSH1 0x0 DUP4 DUP4 ADD MSTORE POP POP POP JUMP JUMPDEST PUSH1 0x0 PUSH2 0x303 PUSH2 0x2FE DUP5 PUSH2 0x2B0 JUMP JUMPDEST PUSH2 0x295 JUMP JUMPDEST SWAP1 POP DUP3 DUP2 MSTORE PUSH1 0x20 DUP2 ADD DUP5 DUP5 DUP5 ADD GT ISZERO PUSH2 0x31F JUMPI PUSH2 0x31E PUSH2 0x21F JUMP JUMPDEST JUMPDEST PUSH2 0x32A DUP5 DUP3 DUP6 PUSH2 0x2E1 JUMP JUMPDEST POP SWAP4 SWAP3 POP POP POP JUMP JUMPDEST PUSH1 0x0 DUP3 PUSH1 0x1F DUP4 ADD SLT PUSH2 0x347 JUMPI PUSH2 0x346 PUSH2 0x21A JUMP JUMPDEST JUMPDEST DUP2 CALLDATALOAD PUSH2 0x357 DUP5 DUP3 PUSH1 0x20 DUP7 ADD PUSH2 0x2F0 JUMP JUMPDEST SWAP2 POP POP SWAP3 SWAP2 POP POP JUMP JUMPDEST PUSH1 0x0 PUSH1 0x20 DUP3 DUP5 SUB SLT ISZERO PUSH2 0x376 JUMPI PUSH2 0x375 PUSH2 0x210 JUMP JUMPDEST JUMPDEST PUSH1 0x0 DUP3 ADD CALLDATALOAD PUSH8 0xFFFFFFFFFFFFFFFF DUP2 GT ISZERO PUSH2 0x394 JUMPI PUSH2 0x393 PUSH2 0x215 JUMP JUMPDEST JUMPDEST PUSH2 0x3A0 DUP5 DUP3 DUP6 ADD PUSH2 0x332 JUMP JUMPDEST SWAP2 POP POP SWAP3 SWAP2 POP POP JUMP JUMPDEST PUSH1 0x0 DUP2 ISZERO ISZERO SWAP1 POP SWAP2 SWAP1 POP JUMP JUMPDEST PUSH2 0x3BE DUP2 PUSH2 0x3A9 JUMP JUMPDEST DUP3 MSTORE POP POP JUMP JUMPDEST PUSH1 0x0 PUSH1 0x20 DUP3 ADD SWAP1 POP PUSH2 0x3D9 PUSH1 0x0 DUP4 ADD DUP5 PUSH2 0x3B5 JUMP JUMPDEST SWAP3 SWAP2 POP POP JUMP JUMPDEST PUSH1 0x0 DUP2 MLOAD SWAP1 POP SWAP2 SWAP1 POP JUMP JUMPDEST PUSH32 0x4E487B7100000000000000000000000000000000000000000000000000000000 PUSH1 0x0 MSTORE PUSH1 0x22 PUSH1 0x4 MSTORE PUSH1 0x24 PUSH1 0x0 REVERT JUMPDEST PUSH1 0x0 PUSH1 0x2 DUP3 DIV SWAP1 POP PUSH1 0x1 DUP3 AND DUP1 PUSH2 0x431 JUMPI PUSH1 0x7F DUP3 AND SWAP2 POP JUMPDEST PUSH1 0x20 DUP3 LT DUP2 SUB PUSH2 0x444 JUMPI PUSH2 0x443 PUSH2 0x3EA JUMP JUMPDEST JUMPDEST POP SWAP2 SWAP1 POP JUMP JUMPDEST PUSH1 0x0 DUP2 SWAP1 POP DUP2 PUSH1 0x0 MSTORE PUSH1 0x20 PUSH1 0x0 KECCAK256 SWAP1 POP SWAP2 SWAP1 POP JUMP JUMPDEST PUSH1 0x0 PUSH1 0x20 PUSH1 0x1F DUP4 ADD DIV SWAP1 POP SWAP2 SWAP1 POP JUMP JUMPDEST PUSH1 0x0 DUP3 DUP3 SHL SWAP1 POP SWAP3 SWAP2 POP POP JUMP JUMPDEST PUSH1 0x0 PUSH1 0x8 DUP4 MUL PUSH2 0x4AC PUSH32 0xFFFFFFFFFFFFFFFFFFFFFFFFFFFFFFFFFFFFFFFFFFFFFFFFFFFFFFFFFFFFFFFF DUP3 PUSH2 0x46F JUMP JUMPDEST PUSH2 0x4B6 DUP7 DUP4 PUSH2 0x46F JUMP JUMPDEST SWAP6 POP DUP1 NOT DUP5 AND SWAP4 POP DUP1 DUP7 AND DUP5 OR SWAP3 POP POP POP SWAP4 SWAP3 POP POP POP JUMP JUMPDEST PUSH1 0x0 DUP2 SWAP1 POP SWAP2 SWAP1 POP JUMP JUMPDEST PUSH1 0x0 DUP2 SWAP1 POP SWAP2 SWAP1 POP JUMP JUMPDEST PUSH1 0x0 PUSH2 0x4FD PUSH2 0x4F8 PUSH2 0x4F3 DUP5 PUSH2 0x4CE JUMP JUMPDEST PUSH2 0x4D8 JUMP JUMPDEST PUSH2 0x4CE JUMP JUMPDEST SWAP1 POP SWAP2 SWAP1 POP JUMP JUMPDEST PUSH1 0x0 DUP2 SWAP1 POP SWAP2 SWAP1 POP JUMP JUMPDEST PUSH2 0x517 DUP4 PUSH2 0x4E2 JUMP JUMPDEST PUSH2 0x52B PUSH2 0x523 DUP3 PUSH2 0x504 JUMP JUMPDEST DUP5 DUP5 SLOAD PUSH2 0x47C JUMP JUMPDEST DUP3 SSTORE POP POP POP POP JUMP JUMPDEST PUSH1 0x0 SWAP1 JUMP JUMPDEST PUSH2 0x540 PUSH2 0x533 JUMP JUMPDEST PUSH2 0x54B DUP2 DUP5 DUP5 PUSH2 0x50E JUMP JUMPDEST POP POP POP JUMP JUMPDEST JUMPDEST DUP2 DUP2 LT ISZERO PUSH2 0x56F JUMPI PUSH2 0x564 PUSH1 0x0 DUP3 PUSH2 0x538 JUMP JUMPDEST PUSH1 0x1 DUP2 ADD SWAP1 POP PUSH2 0x551 JUMP JUMPDEST POP POP JUMP JUMPDEST PUSH1 0x1F DUP3 GT ISZERO PUSH2 0x5B4 JUMPI PUSH2 0x585 DUP2 PUSH2 0x44A JUMP JUMPDEST PUSH2 0x58E DUP5 PUSH2 0x45F JUMP JUMPDEST DUP2 ADD PUSH1 0x20 DUP6 LT ISZERO PUSH2 0x59D JUMPI DUP2 SWAP1 POP JUMPDEST PUSH2 0x5B1 PUSH2 0x5A9 DUP6 PUSH2 0x45F JUMP JUMPDEST DUP4 ADD DUP3 PUSH2 0x550 JUMP JUMPDEST POP POP JUMPDEST POP POP POP JUMP JUMPDEST PUSH1 0x0 DUP3 DUP3 SHR SWAP1 POP SWAP3 SWAP2 POP POP JUMP JUMPDEST PUSH1 0x0 PUSH2 0x5D7 PUSH1 0x0 NOT DUP5 PUSH1 0x8 MUL PUSH2 0x5B9 JUMP JUMPDEST NOT DUP1 DUP4 AND SWAP2 POP POP SWAP3 SWAP2 POP POP JUMP JUMPDEST PUSH1 0x0 PUSH2 0x5F0 DUP4 DUP4 PUSH2 0x5C6 JUMP JUMPDEST SWAP2 POP DUP3 PUSH1 0x2 MUL DUP3 OR SWAP1 POP SWAP3 SWAP2 POP POP JUMP JUMPDEST PUSH2 0x609 DUP3 PUSH2 0x3DF JUMP JUMPDEST PUSH8 0xFFFFFFFFFFFFFFFF DUP2 GT ISZERO PUSH2 0x622 JUMPI PUSH2 0x621 PUSH2 0x235 JUMP JUMPDEST JUMPDEST PUSH2 0x62C DUP3 SLOAD PUSH2 0x419 JUMP JUMPDEST PUSH2 0x637 DUP3 DUP3 DUP6 PUSH2 0x573 JUMP JUMPDEST PUSH1 0x0 PUSH1 0x20 SWAP1 POP PUSH1 0x1F DUP4 GT PUSH1 0x1 DUP2 EQ PUSH2 0x66A JUMPI PUSH1 0x0 DUP5 ISZERO PUSH2 0x658 JUMPI DUP3 DUP8 ADD MLOAD SWAP1 POP JUMPDEST PUSH2 0x662 DUP6 DUP3 PUSH2 0x5E4 JUMP JUMPDEST DUP7 SSTORE POP PUSH2 0x6CA JUMP JUMPDEST PUSH1 0x1F NOT DUP5 AND PUSH2 0x678 DUP7 PUSH2 0x44A JUMP JUMPDEST PUSH1 0x0 JUMPDEST DUP3 DUP2 LT ISZERO PUSH2 0x6A0 JUMPI DUP5 DUP10 ADD MLOAD DUP3 SSTORE PUSH1 0x1 DUP3 ADD SWAP2 POP PUSH1 0x20 DUP6 ADD SWAP5 POP PUSH1 0x20 DUP2 ADD SWAP1 POP PUSH2 0x67B JUMP JUMPDEST DUP7 DUP4 LT ISZERO PUSH2 0x6BD JUMPI DUP5 DUP10 ADD MLOAD PUSH2 0x6B9 PUSH1 0x1F DUP10 AND DUP3 PUSH2 0x5C6 JUMP JUMPDEST DUP4 SSTORE POP JUMPDEST PUSH1 0x1 PUSH1 0x2 DUP9 MUL ADD DUP9 SSTORE POP POP POP JUMPDEST POP POP POP POP POP POP JUMP INVALID LOG2 PUSH5 0x6970667358 0x22 SLT KECCAK256 0xC NUMBER 0xCF COINBASE 0xD3 DIFFICULTY 0x28 SDIV NOT 0xCA DIFFICULTY 0xD 0xDD PUSH15 0x48258656697DA58D67E9AB08915D5 0xD7 PUSH13 0xA64736F6C6343000811003300 "
				},
				"gasEstimates": {
					"creation": {
						"codeDepositCost": "360000",
						"executionCost": "399",
						"totalCost": "360399"
					},
					"external": {
						"checkNationality(string)": "infinite"
					}
				},
				"methodIdentifiers": {
					"checkNationality(string)": "7b0b53f0"
				}
			},
			"storageLayout": {
				"storage": [
					{
						"astId": 4,
						"contract": "contracts/AML.sol:AML",
						"label": "bannedCountries",
						"offset": 0,
						"slot": "0",
						"type": "t_array(t_string_storage)dyn_storage"
					}
				],
				"types": {
					"t_array(t_string_storage)dyn_storage": {
						"base": "t_string_storage",
						"encoding": "dynamic_array",
						"label": "string[]",
						"numberOfBytes": "32"
					},
					"t_string_storage": {
						"encoding": "bytes",
						"label": "string",
						"numberOfBytes": "32"
					}
				}
			},
			"userdoc": {
				"kind": "user",
				"methods": {},
				"version": 1
			}
		}
	}
}