{
	"contracts/AusAML.sol": {
		"AusAML": {
			"abi": [
				{
					"anonymous": false,
					"inputs": [
						{
							"indexed": false,
							"internalType": "string",
							"name": "exceedAmt",
							"type": "string"
						},
						{
							"indexed": false,
							"internalType": "uint256",
							"name": "timestamp",
							"type": "uint256"
						}
					],
					"name": "CreateExceededMaxAmtErrorLog",
					"type": "event"
				},
				{
					"anonymous": false,
					"inputs": [
						{
							"indexed": false,
							"internalType": "string",
							"name": "nationality",
							"type": "string"
						},
						{
							"indexed": false,
							"internalType": "uint256",
							"name": "timestamp",
							"type": "uint256"
						}
					],
					"name": "CreateNationalityErrorLog",
					"type": "event"
				},
				{
					"anonymous": false,
					"inputs": [
						{
							"indexed": false,
							"internalType": "string",
							"name": "politicallyExposed",
							"type": "string"
						},
						{
							"indexed": false,
							"internalType": "uint256",
							"name": "timestamp",
							"type": "uint256"
						}
					],
					"name": "CreatePoliticallyExposedErrorLog",
					"type": "event"
				},
				{
					"anonymous": false,
					"inputs": [
						{
							"indexed": false,
							"internalType": "string",
							"name": "wantedInd",
							"type": "string"
						},
						{
							"indexed": false,
							"internalType": "uint256",
							"name": "timestamp",
							"type": "uint256"
						}
					],
					"name": "CreateWantedIndividualErrorLog",
					"type": "event"
				},
				{
					"inputs": [
						{
							"internalType": "address payable",
							"name": "sender",
							"type": "address"
						},
						{
							"internalType": "uint256",
							"name": "amount",
							"type": "uint256"
						}
					],
					"name": "checkAmt",
					"outputs": [
						{
							"internalType": "bool",
							"name": "",
							"type": "bool"
						}
					],
					"stateMutability": "payable",
					"type": "function"
				},
				{
					"inputs": [
						{
							"components": [
								{
									"internalType": "address",
									"name": "userAddress",
									"type": "address"
								},
								{
									"internalType": "string",
									"name": "role",
									"type": "string"
								},
								{
									"internalType": "string",
									"name": "firstName",
									"type": "string"
								},
								{
									"internalType": "string",
									"name": "lastName",
									"type": "string"
								},
								{
									"internalType": "string",
									"name": "country",
									"type": "string"
								},
								{
									"internalType": "string",
									"name": "location",
									"type": "string"
								},
								{
									"internalType": "string",
									"name": "nationality",
									"type": "string"
								},
								{
									"internalType": "bool",
									"name": "isPoliticallyExposed",
									"type": "bool"
								}
							],
							"internalType": "struct UserInfoLibrary.UserInfoStruct",
							"name": "senderUserInfo",
							"type": "tuple"
						},
						{
							"components": [
								{
									"internalType": "address",
									"name": "userAddress",
									"type": "address"
								},
								{
									"internalType": "string",
									"name": "role",
									"type": "string"
								},
								{
									"internalType": "string",
									"name": "firstName",
									"type": "string"
								},
								{
									"internalType": "string",
									"name": "lastName",
									"type": "string"
								},
								{
									"internalType": "string",
									"name": "country",
									"type": "string"
								},
								{
									"internalType": "string",
									"name": "location",
									"type": "string"
								},
								{
									"internalType": "string",
									"name": "nationality",
									"type": "string"
								},
								{
									"internalType": "bool",
									"name": "isPoliticallyExposed",
									"type": "bool"
								}
							],
							"internalType": "struct UserInfoLibrary.UserInfoStruct",
							"name": "receiverUserInfo",
							"type": "tuple"
						}
					],
					"name": "checkNationality",
					"outputs": [
						{
							"internalType": "bool",
							"name": "",
							"type": "bool"
						}
					],
					"stateMutability": "nonpayable",
					"type": "function"
				},
				{
					"inputs": [
						{
							"components": [
								{
									"internalType": "address",
									"name": "userAddress",
									"type": "address"
								},
								{
									"internalType": "string",
									"name": "role",
									"type": "string"
								},
								{
									"internalType": "string",
									"name": "firstName",
									"type": "string"
								},
								{
									"internalType": "string",
									"name": "lastName",
									"type": "string"
								},
								{
									"internalType": "string",
									"name": "country",
									"type": "string"
								},
								{
									"internalType": "string",
									"name": "location",
									"type": "string"
								},
								{
									"internalType": "string",
									"name": "nationality",
									"type": "string"
								},
								{
									"internalType": "bool",
									"name": "isPoliticallyExposed",
									"type": "bool"
								}
							],
							"internalType": "struct UserInfoLibrary.UserInfoStruct",
							"name": "senderUserInfo",
							"type": "tuple"
						},
						{
							"components": [
								{
									"internalType": "address",
									"name": "userAddress",
									"type": "address"
								},
								{
									"internalType": "string",
									"name": "role",
									"type": "string"
								},
								{
									"internalType": "string",
									"name": "firstName",
									"type": "string"
								},
								{
									"internalType": "string",
									"name": "lastName",
									"type": "string"
								},
								{
									"internalType": "string",
									"name": "country",
									"type": "string"
								},
								{
									"internalType": "string",
									"name": "location",
									"type": "string"
								},
								{
									"internalType": "string",
									"name": "nationality",
									"type": "string"
								},
								{
									"internalType": "bool",
									"name": "isPoliticallyExposed",
									"type": "bool"
								}
							],
							"internalType": "struct UserInfoLibrary.UserInfoStruct",
							"name": "receiverUserInfo",
							"type": "tuple"
						}
					],
					"name": "checkPoliticalStatus",
					"outputs": [
						{
							"internalType": "bool",
							"name": "",
							"type": "bool"
						}
					],
					"stateMutability": "nonpayable",
					"type": "function"
				},
				{
					"inputs": [
						{
							"components": [
								{
									"internalType": "address",
									"name": "userAddress",
									"type": "address"
								},
								{
									"internalType": "string",
									"name": "role",
									"type": "string"
								},
								{
									"internalType": "string",
									"name": "firstName",
									"type": "string"
								},
								{
									"internalType": "string",
									"name": "lastName",
									"type": "string"
								},
								{
									"internalType": "string",
									"name": "country",
									"type": "string"
								},
								{
									"internalType": "string",
									"name": "location",
									"type": "string"
								},
								{
									"internalType": "string",
									"name": "nationality",
									"type": "string"
								},
								{
									"internalType": "bool",
									"name": "isPoliticallyExposed",
									"type": "bool"
								}
							],
							"internalType": "struct UserInfoLibrary.UserInfoStruct",
							"name": "senderUserInfo",
							"type": "tuple"
						},
						{
							"components": [
								{
									"internalType": "address",
									"name": "userAddress",
									"type": "address"
								},
								{
									"internalType": "string",
									"name": "role",
									"type": "string"
								},
								{
									"internalType": "string",
									"name": "firstName",
									"type": "string"
								},
								{
									"internalType": "string",
									"name": "lastName",
									"type": "string"
								},
								{
									"internalType": "string",
									"name": "country",
									"type": "string"
								},
								{
									"internalType": "string",
									"name": "location",
									"type": "string"
								},
								{
									"internalType": "string",
									"name": "nationality",
									"type": "string"
								},
								{
									"internalType": "bool",
									"name": "isPoliticallyExposed",
									"type": "bool"
								}
							],
							"internalType": "struct UserInfoLibrary.UserInfoStruct",
							"name": "receiverUserInfo",
							"type": "tuple"
						},
						{
							"internalType": "address",
							"name": "receiver",
							"type": "address"
						}
					],
					"name": "checkWantedIndividual",
					"outputs": [
						{
							"internalType": "bool",
							"name": "",
							"type": "bool"
						}
					],
					"stateMutability": "nonpayable",
					"type": "function"
				}
			],
			"devdoc": {
				"kind": "dev",
				"methods": {},
				"version": 1
			},
			"evm": {
				"assembly": "    /* \"contracts/AusAML.sol\":93:2990  contract AusAML{... */\n  mstore(0x40, 0x80)\n    /* \"contracts/AusAML.sol\":443:519  string[] bannedCountries = [\"Iran\",\"Afganistan\",\"Turkmenistan\",\"Kyrgyzstan\"] */\n  mload(0x40)\n  dup1\n  0x80\n  add\n  0x40\n  mstore\n  dup1\n  mload(0x40)\n  dup1\n  0x40\n  add\n  0x40\n  mstore\n  dup1\n  0x04\n  dup2\n  mstore\n  0x20\n  add\n  0x4972616e00000000000000000000000000000000000000000000000000000000\n  dup2\n  mstore\n  pop\n  dup2\n  mstore\n  0x20\n  add\n  mload(0x40)\n  dup1\n  0x40\n  add\n  0x40\n  mstore\n  dup1\n  0x0a\n  dup2\n  mstore\n  0x20\n  add\n  0x416667616e697374616e00000000000000000000000000000000000000000000\n  dup2\n  mstore\n  pop\n  dup2\n  mstore\n  0x20\n  add\n  mload(0x40)\n  dup1\n  0x40\n  add\n  0x40\n  mstore\n  dup1\n  0x0c\n  dup2\n  mstore\n  0x20\n  add\n  0x5475726b6d656e697374616e0000000000000000000000000000000000000000\n  dup2\n  mstore\n  pop\n  dup2\n  mstore\n  0x20\n  add\n  mload(0x40)\n  dup1\n  0x40\n  add\n  0x40\n  mstore\n  dup1\n  0x0a\n  dup2\n  mstore\n  0x20\n  add\n  0x4b797267797a7374616e00000000000000000000000000000000000000000000\n  dup2\n  mstore\n  pop\n  dup2\n  mstore\n  pop\n  0x00\n  swap1\n  0x04\n  tag_1\n  swap3\n  swap2\n  swap1\n  tag_2\n  jump\t// in\ntag_1:\n  pop\n    /* \"contracts/AusAML.sol\":526:600  address[] wantedIndividuals = [0x72A4Bbe493FC0A724460C9940eE6FAE5f9209D61] */\n  mload(0x40)\n  dup1\n  0x20\n  add\n  0x40\n  mstore\n  dup1\n    /* \"contracts/AusAML.sol\":557:599  0x72A4Bbe493FC0A724460C9940eE6FAE5f9209D61 */\n  0x72a4bbe493fc0a724460c9940ee6fae5f9209d61\n    /* \"contracts/AusAML.sol\":526:600  address[] wantedIndividuals = [0x72A4Bbe493FC0A724460C9940eE6FAE5f9209D61] */\n  0xffffffffffffffffffffffffffffffffffffffff\n  and\n  0xffffffffffffffffffffffffffffffffffffffff\n  and\n  dup2\n  mstore\n  pop\n  0x01\n  swap1\n  0x01\n  tag_3\n  swap3\n  swap2\n  swap1\n  tag_4\n  jump\t// in\ntag_3:\n  pop\n    /* \"contracts/AusAML.sol\":627:629  40 */\n  0x28\n    /* \"contracts/AusAML.sol\":607:629  uint256 maxAmount = 40 */\n  0x02\n  sstore\n    /* \"contracts/AusAML.sol\":93:2990  contract AusAML{... */\n  callvalue\n  dup1\n  iszero\n  tag_5\n  jumpi\n  0x00\n  dup1\n  revert\ntag_5:\n  pop\n  jump(tag_6)\ntag_2:\n  dup3\n  dup1\n  sload\n  dup3\n  dup3\n  sstore\n  swap1\n  0x00\n  mstore\n  keccak256(0x00, 0x20)\n  swap1\n  dup2\n  add\n  swap3\n  dup3\n  iszero\n  tag_7\n  jumpi\n  swap2\n  0x20\n  mul\n  dup3\n  add\ntag_8:\n  dup3\n  dup2\n  gt\n  iszero\n  tag_9\n  jumpi\n  dup3\n  mload\n  dup3\n  swap1\n  dup2\n  tag_10\n  swap2\n  swap1\n  tag_11\n  jump\t// in\ntag_10:\n  pop\n  swap2\n  0x20\n  add\n  swap2\n  swap1\n  0x01\n  add\n  swap1\n  jump(tag_8)\ntag_9:\ntag_7:\n  pop\n  swap1\n  pop\n  tag_12\n  swap2\n  swap1\n  tag_13\n  jump\t// in\ntag_12:\n  pop\n  swap1\n  jump\t// out\ntag_4:\n  dup3\n  dup1\n  sload\n  dup3\n  dup3\n  sstore\n  swap1\n  0x00\n  mstore\n  keccak256(0x00, 0x20)\n  swap1\n  dup2\n  add\n  swap3\n  dup3\n  iszero\n  tag_14\n  jumpi\n  swap2\n  0x20\n  mul\n  dup3\n  add\ntag_15:\n  dup3\n  dup2\n  gt\n  iszero\n  tag_16\n  jumpi\n  dup3\n  mload\n  dup3\n  exp(0x0100, 0x00)\n  dup2\n  sload\n  dup2\n  0xffffffffffffffffffffffffffffffffffffffff\n  mul\n  not\n  and\n  swap1\n  dup4\n  0xffffffffffffffffffffffffffffffffffffffff\n  and\n  mul\n  or\n  swap1\n  sstore\n  pop\n  swap2\n  0x20\n  add\n  swap2\n  swap1\n  0x01\n  add\n  swap1\n  jump(tag_15)\ntag_16:\ntag_14:\n  pop\n  swap1\n  pop\n  tag_17\n  swap2\n  swap1\n  tag_18\n  jump\t// in\ntag_17:\n  pop\n  swap1\n  jump\t// out\ntag_13:\ntag_19:\n  dup1\n  dup3\n  gt\n  iszero\n  tag_20\n  jumpi\n  0x00\n  dup2\n  dup2\n  tag_21\n  swap2\n  swap1\n  tag_22\n  jump\t// in\ntag_21:\n  pop\n  0x01\n  add\n  jump(tag_19)\ntag_20:\n  pop\n  swap1\n  jump\t// out\ntag_18:\ntag_23:\n  dup1\n  dup3\n  gt\n  iszero\n  tag_24\n  jumpi\n  0x00\n  dup2\n  0x00\n  swap1\n  sstore\n  pop\n  0x01\n  add\n  jump(tag_23)\ntag_24:\n  pop\n  swap1\n  jump\t// out\ntag_22:\n  pop\n  dup1\n  sload\n  tag_25\n  swap1\n  tag_26\n  jump\t// in\ntag_25:\n  0x00\n  dup3\n  sstore\n  dup1\n  0x1f\n  lt\n  tag_28\n  jumpi\n  pop\n  jump(tag_27)\ntag_28:\n  0x1f\n  add\n  0x20\n  swap1\n  div\n  swap1\n  0x00\n  mstore\n  keccak256(0x00, 0x20)\n  swap1\n  dup2\n  add\n  swap1\n  tag_29\n  swap2\n  swap1\n  tag_18\n  jump\t// in\ntag_29:\ntag_27:\n  pop\n  jump\t// out\n    /* \"#utility.yul\":7:106   */\ntag_30:\n    /* \"#utility.yul\":59:65   */\n  0x00\n    /* \"#utility.yul\":93:98   */\n  dup2\n    /* \"#utility.yul\":87:99   */\n  mload\n    /* \"#utility.yul\":77:99   */\n  swap1\n  pop\n    /* \"#utility.yul\":7:106   */\n  swap2\n  swap1\n  pop\n  jump\t// out\n    /* \"#utility.yul\":112:292   */\ntag_31:\n    /* \"#utility.yul\":160:237   */\n  0x4e487b7100000000000000000000000000000000000000000000000000000000\n    /* \"#utility.yul\":157:158   */\n  0x00\n    /* \"#utility.yul\":150:238   */\n  mstore\n    /* \"#utility.yul\":257:261   */\n  0x41\n    /* \"#utility.yul\":254:255   */\n  0x04\n    /* \"#utility.yul\":247:262   */\n  mstore\n    /* \"#utility.yul\":281:285   */\n  0x24\n    /* \"#utility.yul\":278:279   */\n  0x00\n    /* \"#utility.yul\":271:286   */\n  revert\n    /* \"#utility.yul\":298:478   */\ntag_32:\n    /* \"#utility.yul\":346:423   */\n  0x4e487b7100000000000000000000000000000000000000000000000000000000\n    /* \"#utility.yul\":343:344   */\n  0x00\n    /* \"#utility.yul\":336:424   */\n  mstore\n    /* \"#utility.yul\":443:447   */\n  0x22\n    /* \"#utility.yul\":440:441   */\n  0x04\n    /* \"#utility.yul\":433:448   */\n  mstore\n    /* \"#utility.yul\":467:471   */\n  0x24\n    /* \"#utility.yul\":464:465   */\n  0x00\n    /* \"#utility.yul\":457:472   */\n  revert\n    /* \"#utility.yul\":484:804   */\ntag_26:\n    /* \"#utility.yul\":528:534   */\n  0x00\n    /* \"#utility.yul\":565:566   */\n  0x02\n    /* \"#utility.yul\":559:563   */\n  dup3\n    /* \"#utility.yul\":555:567   */\n  div\n    /* \"#utility.yul\":545:567   */\n  swap1\n  pop\n    /* \"#utility.yul\":612:613   */\n  0x01\n    /* \"#utility.yul\":606:610   */\n  dup3\n    /* \"#utility.yul\":602:614   */\n  and\n    /* \"#utility.yul\":633:651   */\n  dup1\n    /* \"#utility.yul\":623:704   */\n  tag_54\n  jumpi\n    /* \"#utility.yul\":689:693   */\n  0x7f\n    /* \"#utility.yul\":681:687   */\n  dup3\n    /* \"#utility.yul\":677:694   */\n  and\n    /* \"#utility.yul\":667:694   */\n  swap2\n  pop\n    /* \"#utility.yul\":623:704   */\ntag_54:\n    /* \"#utility.yul\":751:753   */\n  0x20\n    /* \"#utility.yul\":743:749   */\n  dup3\n    /* \"#utility.yul\":740:754   */\n  lt\n    /* \"#utility.yul\":720:738   */\n  dup2\n    /* \"#utility.yul\":717:755   */\n  sub\n    /* \"#utility.yul\":714:798   */\n  tag_55\n  jumpi\n    /* \"#utility.yul\":770:788   */\n  tag_56\n  tag_32\n  jump\t// in\ntag_56:\n    /* \"#utility.yul\":714:798   */\ntag_55:\n    /* \"#utility.yul\":535:804   */\n  pop\n    /* \"#utility.yul\":484:804   */\n  swap2\n  swap1\n  pop\n  jump\t// out\n    /* \"#utility.yul\":810:951   */\ntag_33:\n    /* \"#utility.yul\":859:863   */\n  0x00\n    /* \"#utility.yul\":882:885   */\n  dup2\n    /* \"#utility.yul\":874:885   */\n  swap1\n  pop\n    /* \"#utility.yul\":905:908   */\n  dup2\n    /* \"#utility.yul\":902:903   */\n  0x00\n    /* \"#utility.yul\":895:909   */\n  mstore\n    /* \"#utility.yul\":939:943   */\n  0x20\n    /* \"#utility.yul\":936:937   */\n  0x00\n    /* \"#utility.yul\":926:944   */\n  keccak256\n    /* \"#utility.yul\":918:944   */\n  swap1\n  pop\n    /* \"#utility.yul\":810:951   */\n  swap2\n  swap1\n  pop\n  jump\t// out\n    /* \"#utility.yul\":957:1050   */\ntag_34:\n    /* \"#utility.yul\":994:1000   */\n  0x00\n    /* \"#utility.yul\":1041:1043   */\n  0x20\n    /* \"#utility.yul\":1036:1038   */\n  0x1f\n    /* \"#utility.yul\":1029:1034   */\n  dup4\n    /* \"#utility.yul\":1025:1039   */\n  add\n    /* \"#utility.yul\":1021:1044   */\n  div\n    /* \"#utility.yul\":1011:1044   */\n  swap1\n  pop\n    /* \"#utility.yul\":957:1050   */\n  swap2\n  swap1\n  pop\n  jump\t// out\n    /* \"#utility.yul\":1056:1163   */\ntag_35:\n    /* \"#utility.yul\":1100:1108   */\n  0x00\n    /* \"#utility.yul\":1150:1155   */\n  dup3\n    /* \"#utility.yul\":1144:1148   */\n  dup3\n    /* \"#utility.yul\":1140:1156   */\n  shl\n    /* \"#utility.yul\":1119:1156   */\n  swap1\n  pop\n    /* \"#utility.yul\":1056:1163   */\n  swap3\n  swap2\n  pop\n  pop\n  jump\t// out\n    /* \"#utility.yul\":1169:1562   */\ntag_36:\n    /* \"#utility.yul\":1238:1244   */\n  0x00\n    /* \"#utility.yul\":1288:1289   */\n  0x08\n    /* \"#utility.yul\":1276:1286   */\n  dup4\n    /* \"#utility.yul\":1272:1290   */\n  mul\n    /* \"#utility.yul\":1311:1408   */\n  tag_61\n    /* \"#utility.yul\":1341:1407   */\n  0xffffffffffffffffffffffffffffffffffffffffffffffffffffffffffffffff\n    /* \"#utility.yul\":1330:1339   */\n  dup3\n    /* \"#utility.yul\":1311:1408   */\n  tag_35\n  jump\t// in\ntag_61:\n    /* \"#utility.yul\":1429:1468   */\n  tag_62\n    /* \"#utility.yul\":1459:1467   */\n  dup7\n    /* \"#utility.yul\":1448:1457   */\n  dup4\n    /* \"#utility.yul\":1429:1468   */\n  tag_35\n  jump\t// in\ntag_62:\n    /* \"#utility.yul\":1417:1468   */\n  swap6\n  pop\n    /* \"#utility.yul\":1501:1505   */\n  dup1\n    /* \"#utility.yul\":1497:1506   */\n  not\n    /* \"#utility.yul\":1490:1495   */\n  dup5\n    /* \"#utility.yul\":1486:1507   */\n  and\n    /* \"#utility.yul\":1477:1507   */\n  swap4\n  pop\n    /* \"#utility.yul\":1550:1554   */\n  dup1\n    /* \"#utility.yul\":1540:1548   */\n  dup7\n    /* \"#utility.yul\":1536:1555   */\n  and\n    /* \"#utility.yul\":1529:1534   */\n  dup5\n    /* \"#utility.yul\":1526:1556   */\n  or\n    /* \"#utility.yul\":1516:1556   */\n  swap3\n  pop\n    /* \"#utility.yul\":1245:1562   */\n  pop\n  pop\n    /* \"#utility.yul\":1169:1562   */\n  swap4\n  swap3\n  pop\n  pop\n  pop\n  jump\t// out\n    /* \"#utility.yul\":1568:1645   */\ntag_37:\n    /* \"#utility.yul\":1605:1612   */\n  0x00\n    /* \"#utility.yul\":1634:1639   */\n  dup2\n    /* \"#utility.yul\":1623:1639   */\n  swap1\n  pop\n    /* \"#utility.yul\":1568:1645   */\n  swap2\n  swap1\n  pop\n  jump\t// out\n    /* \"#utility.yul\":1651:1711   */\ntag_38:\n    /* \"#utility.yul\":1679:1682   */\n  0x00\n    /* \"#utility.yul\":1700:1705   */\n  dup2\n    /* \"#utility.yul\":1693:1705   */\n  swap1\n  pop\n    /* \"#utility.yul\":1651:1711   */\n  swap2\n  swap1\n  pop\n  jump\t// out\n    /* \"#utility.yul\":1717:1859   */\ntag_39:\n    /* \"#utility.yul\":1767:1776   */\n  0x00\n    /* \"#utility.yul\":1800:1853   */\n  tag_66\n    /* \"#utility.yul\":1818:1852   */\n  tag_67\n    /* \"#utility.yul\":1827:1851   */\n  tag_68\n    /* \"#utility.yul\":1845:1850   */\n  dup5\n    /* \"#utility.yul\":1827:1851   */\n  tag_37\n  jump\t// in\ntag_68:\n    /* \"#utility.yul\":1818:1852   */\n  tag_38\n  jump\t// in\ntag_67:\n    /* \"#utility.yul\":1800:1853   */\n  tag_37\n  jump\t// in\ntag_66:\n    /* \"#utility.yul\":1787:1853   */\n  swap1\n  pop\n    /* \"#utility.yul\":1717:1859   */\n  swap2\n  swap1\n  pop\n  jump\t// out\n    /* \"#utility.yul\":1865:1940   */\ntag_40:\n    /* \"#utility.yul\":1908:1911   */\n  0x00\n    /* \"#utility.yul\":1929:1934   */\n  dup2\n    /* \"#utility.yul\":1922:1934   */\n  swap1\n  pop\n    /* \"#utility.yul\":1865:1940   */\n  swap2\n  swap1\n  pop\n  jump\t// out\n    /* \"#utility.yul\":1946:2215   */\ntag_41:\n    /* \"#utility.yul\":2056:2095   */\n  tag_71\n    /* \"#utility.yul\":2087:2094   */\n  dup4\n    /* \"#utility.yul\":2056:2095   */\n  tag_39\n  jump\t// in\ntag_71:\n    /* \"#utility.yul\":2117:2208   */\n  tag_72\n    /* \"#utility.yul\":2166:2207   */\n  tag_73\n    /* \"#utility.yul\":2190:2206   */\n  dup3\n    /* \"#utility.yul\":2166:2207   */\n  tag_40\n  jump\t// in\ntag_73:\n    /* \"#utility.yul\":2158:2164   */\n  dup5\n    /* \"#utility.yul\":2151:2155   */\n  dup5\n    /* \"#utility.yul\":2145:2156   */\n  sload\n    /* \"#utility.yul\":2117:2208   */\n  tag_36\n  jump\t// in\ntag_72:\n    /* \"#utility.yul\":2111:2115   */\n  dup3\n    /* \"#utility.yul\":2104:2209   */\n  sstore\n    /* \"#utility.yul\":2022:2215   */\n  pop\n    /* \"#utility.yul\":1946:2215   */\n  pop\n  pop\n  pop\n  jump\t// out\n    /* \"#utility.yul\":2221:2294   */\ntag_42:\n    /* \"#utility.yul\":2266:2269   */\n  0x00\n    /* \"#utility.yul\":2221:2294   */\n  swap1\n  jump\t// out\n    /* \"#utility.yul\":2300:2489   */\ntag_43:\n    /* \"#utility.yul\":2377:2409   */\n  tag_76\n  tag_42\n  jump\t// in\ntag_76:\n    /* \"#utility.yul\":2418:2483   */\n  tag_77\n    /* \"#utility.yul\":2476:2482   */\n  dup2\n    /* \"#utility.yul\":2468:2474   */\n  dup5\n    /* \"#utility.yul\":2462:2466   */\n  dup5\n    /* \"#utility.yul\":2418:2483   */\n  tag_41\n  jump\t// in\ntag_77:\n    /* \"#utility.yul\":2353:2489   */\n  pop\n    /* \"#utility.yul\":2300:2489   */\n  pop\n  pop\n  jump\t// out\n    /* \"#utility.yul\":2495:2681   */\ntag_44:\n    /* \"#utility.yul\":2555:2675   */\ntag_79:\n    /* \"#utility.yul\":2572:2575   */\n  dup2\n    /* \"#utility.yul\":2565:2570   */\n  dup2\n    /* \"#utility.yul\":2562:2576   */\n  lt\n    /* \"#utility.yul\":2555:2675   */\n  iszero\n  tag_81\n  jumpi\n    /* \"#utility.yul\":2626:2665   */\n  tag_82\n    /* \"#utility.yul\":2663:2664   */\n  0x00\n    /* \"#utility.yul\":2656:2661   */\n  dup3\n    /* \"#utility.yul\":2626:2665   */\n  tag_43\n  jump\t// in\ntag_82:\n    /* \"#utility.yul\":2599:2600   */\n  0x01\n    /* \"#utility.yul\":2592:2597   */\n  dup2\n    /* \"#utility.yul\":2588:2601   */\n  add\n    /* \"#utility.yul\":2579:2601   */\n  swap1\n  pop\n    /* \"#utility.yul\":2555:2675   */\n  jump(tag_79)\ntag_81:\n    /* \"#utility.yul\":2495:2681   */\n  pop\n  pop\n  jump\t// out\n    /* \"#utility.yul\":2687:3230   */\ntag_45:\n    /* \"#utility.yul\":2788:2790   */\n  0x1f\n    /* \"#utility.yul\":2783:2786   */\n  dup3\n    /* \"#utility.yul\":2780:2791   */\n  gt\n    /* \"#utility.yul\":2777:3223   */\n  iszero\n  tag_84\n  jumpi\n    /* \"#utility.yul\":2822:2860   */\n  tag_85\n    /* \"#utility.yul\":2854:2859   */\n  dup2\n    /* \"#utility.yul\":2822:2860   */\n  tag_33\n  jump\t// in\ntag_85:\n    /* \"#utility.yul\":2906:2935   */\n  tag_86\n    /* \"#utility.yul\":2924:2934   */\n  dup5\n    /* \"#utility.yul\":2906:2935   */\n  tag_34\n  jump\t// in\ntag_86:\n    /* \"#utility.yul\":2896:2904   */\n  dup2\n    /* \"#utility.yul\":2892:2936   */\n  add\n    /* \"#utility.yul\":3089:3091   */\n  0x20\n    /* \"#utility.yul\":3077:3087   */\n  dup6\n    /* \"#utility.yul\":3074:3092   */\n  lt\n    /* \"#utility.yul\":3071:3120   */\n  iszero\n  tag_87\n  jumpi\n    /* \"#utility.yul\":3110:3118   */\n  dup2\n    /* \"#utility.yul\":3095:3118   */\n  swap1\n  pop\n    /* \"#utility.yul\":3071:3120   */\ntag_87:\n    /* \"#utility.yul\":3133:3213   */\n  tag_88\n    /* \"#utility.yul\":3189:3211   */\n  tag_89\n    /* \"#utility.yul\":3207:3210   */\n  dup6\n    /* \"#utility.yul\":3189:3211   */\n  tag_34\n  jump\t// in\ntag_89:\n    /* \"#utility.yul\":3179:3187   */\n  dup4\n    /* \"#utility.yul\":3175:3212   */\n  add\n    /* \"#utility.yul\":3162:3173   */\n  dup3\n    /* \"#utility.yul\":3133:3213   */\n  tag_44\n  jump\t// in\ntag_88:\n    /* \"#utility.yul\":2792:3223   */\n  pop\n  pop\n    /* \"#utility.yul\":2777:3223   */\ntag_84:\n    /* \"#utility.yul\":2687:3230   */\n  pop\n  pop\n  pop\n  jump\t// out\n    /* \"#utility.yul\":3236:3353   */\ntag_46:\n    /* \"#utility.yul\":3290:3298   */\n  0x00\n    /* \"#utility.yul\":3340:3345   */\n  dup3\n    /* \"#utility.yul\":3334:3338   */\n  dup3\n    /* \"#utility.yul\":3330:3346   */\n  shr\n    /* \"#utility.yul\":3309:3346   */\n  swap1\n  pop\n    /* \"#utility.yul\":3236:3353   */\n  swap3\n  swap2\n  pop\n  pop\n  jump\t// out\n    /* \"#utility.yul\":3359:3528   */\ntag_47:\n    /* \"#utility.yul\":3403:3409   */\n  0x00\n    /* \"#utility.yul\":3436:3487   */\n  tag_92\n    /* \"#utility.yul\":3484:3485   */\n  0x00\n    /* \"#utility.yul\":3480:3486   */\n  not\n    /* \"#utility.yul\":3472:3477   */\n  dup5\n    /* \"#utility.yul\":3469:3470   */\n  0x08\n    /* \"#utility.yul\":3465:3478   */\n  mul\n    /* \"#utility.yul\":3436:3487   */\n  tag_46\n  jump\t// in\ntag_92:\n    /* \"#utility.yul\":3432:3488   */\n  not\n    /* \"#utility.yul\":3517:3521   */\n  dup1\n    /* \"#utility.yul\":3511:3515   */\n  dup4\n    /* \"#utility.yul\":3507:3522   */\n  and\n    /* \"#utility.yul\":3497:3522   */\n  swap2\n  pop\n    /* \"#utility.yul\":3410:3528   */\n  pop\n    /* \"#utility.yul\":3359:3528   */\n  swap3\n  swap2\n  pop\n  pop\n  jump\t// out\n    /* \"#utility.yul\":3533:3828   */\ntag_48:\n    /* \"#utility.yul\":3609:3613   */\n  0x00\n    /* \"#utility.yul\":3755:3784   */\n  tag_94\n    /* \"#utility.yul\":3780:3783   */\n  dup4\n    /* \"#utility.yul\":3774:3778   */\n  dup4\n    /* \"#utility.yul\":3755:3784   */\n  tag_47\n  jump\t// in\ntag_94:\n    /* \"#utility.yul\":3747:3784   */\n  swap2\n  pop\n    /* \"#utility.yul\":3817:3820   */\n  dup3\n    /* \"#utility.yul\":3814:3815   */\n  0x02\n    /* \"#utility.yul\":3810:3821   */\n  mul\n    /* \"#utility.yul\":3804:3808   */\n  dup3\n    /* \"#utility.yul\":3801:3822   */\n  or\n    /* \"#utility.yul\":3793:3822   */\n  swap1\n  pop\n    /* \"#utility.yul\":3533:3828   */\n  swap3\n  swap2\n  pop\n  pop\n  jump\t// out\n    /* \"#utility.yul\":3833:5228   */\ntag_11:\n    /* \"#utility.yul\":3950:3987   */\n  tag_96\n    /* \"#utility.yul\":3983:3986   */\n  dup3\n    /* \"#utility.yul\":3950:3987   */\n  tag_30\n  jump\t// in\ntag_96:\n    /* \"#utility.yul\":4052:4070   */\n  0xffffffffffffffff\n    /* \"#utility.yul\":4044:4050   */\n  dup2\n    /* \"#utility.yul\":4041:4071   */\n  gt\n    /* \"#utility.yul\":4038:4094   */\n  iszero\n  tag_97\n  jumpi\n    /* \"#utility.yul\":4074:4092   */\n  tag_98\n  tag_31\n  jump\t// in\ntag_98:\n    /* \"#utility.yul\":4038:4094   */\ntag_97:\n    /* \"#utility.yul\":4118:4156   */\n  tag_99\n    /* \"#utility.yul\":4150:4154   */\n  dup3\n    /* \"#utility.yul\":4144:4155   */\n  sload\n    /* \"#utility.yul\":4118:4156   */\n  tag_26\n  jump\t// in\ntag_99:\n    /* \"#utility.yul\":4203:4270   */\n  tag_100\n    /* \"#utility.yul\":4263:4269   */\n  dup3\n    /* \"#utility.yul\":4255:4261   */\n  dup3\n    /* \"#utility.yul\":4249:4253   */\n  dup6\n    /* \"#utility.yul\":4203:4270   */\n  tag_45\n  jump\t// in\ntag_100:\n    /* \"#utility.yul\":4297:4298   */\n  0x00\n    /* \"#utility.yul\":4321:4325   */\n  0x20\n    /* \"#utility.yul\":4308:4325   */\n  swap1\n  pop\n    /* \"#utility.yul\":4353:4355   */\n  0x1f\n    /* \"#utility.yul\":4345:4351   */\n  dup4\n    /* \"#utility.yul\":4342:4356   */\n  gt\n    /* \"#utility.yul\":4370:4371   */\n  0x01\n    /* \"#utility.yul\":4365:4983   */\n  dup2\n  eq\n  tag_102\n  jumpi\n    /* \"#utility.yul\":5027:5028   */\n  0x00\n    /* \"#utility.yul\":5044:5050   */\n  dup5\n    /* \"#utility.yul\":5041:5118   */\n  iszero\n  tag_103\n  jumpi\n    /* \"#utility.yul\":5093:5102   */\n  dup3\n    /* \"#utility.yul\":5088:5091   */\n  dup8\n    /* \"#utility.yul\":5084:5103   */\n  add\n    /* \"#utility.yul\":5078:5104   */\n  mload\n    /* \"#utility.yul\":5069:5104   */\n  swap1\n  pop\n    /* \"#utility.yul\":5041:5118   */\ntag_103:\n    /* \"#utility.yul\":5144:5211   */\n  tag_104\n    /* \"#utility.yul\":5204:5210   */\n  dup6\n    /* \"#utility.yul\":5197:5202   */\n  dup3\n    /* \"#utility.yul\":5144:5211   */\n  tag_48\n  jump\t// in\ntag_104:\n    /* \"#utility.yul\":5138:5142   */\n  dup7\n    /* \"#utility.yul\":5131:5212   */\n  sstore\n    /* \"#utility.yul\":5000:5222   */\n  pop\n    /* \"#utility.yul\":4335:5222   */\n  jump(tag_101)\n    /* \"#utility.yul\":4365:4983   */\ntag_102:\n    /* \"#utility.yul\":4417:4421   */\n  0x1f\n    /* \"#utility.yul\":4413:4422   */\n  not\n    /* \"#utility.yul\":4405:4411   */\n  dup5\n    /* \"#utility.yul\":4401:4423   */\n  and\n    /* \"#utility.yul\":4451:4488   */\n  tag_105\n    /* \"#utility.yul\":4483:4487   */\n  dup7\n    /* \"#utility.yul\":4451:4488   */\n  tag_33\n  jump\t// in\ntag_105:\n    /* \"#utility.yul\":4510:4511   */\n  0x00\n    /* \"#utility.yul\":4524:4732   */\ntag_106:\n    /* \"#utility.yul\":4538:4545   */\n  dup3\n    /* \"#utility.yul\":4535:4536   */\n  dup2\n    /* \"#utility.yul\":4532:4546   */\n  lt\n    /* \"#utility.yul\":4524:4732   */\n  iszero\n  tag_108\n  jumpi\n    /* \"#utility.yul\":4617:4626   */\n  dup5\n    /* \"#utility.yul\":4612:4615   */\n  dup10\n    /* \"#utility.yul\":4608:4627   */\n  add\n    /* \"#utility.yul\":4602:4628   */\n  mload\n    /* \"#utility.yul\":4594:4600   */\n  dup3\n    /* \"#utility.yul\":4587:4629   */\n  sstore\n    /* \"#utility.yul\":4668:4669   */\n  0x01\n    /* \"#utility.yul\":4660:4666   */\n  dup3\n    /* \"#utility.yul\":4656:4670   */\n  add\n    /* \"#utility.yul\":4646:4670   */\n  swap2\n  pop\n    /* \"#utility.yul\":4715:4717   */\n  0x20\n    /* \"#utility.yul\":4704:4713   */\n  dup6\n    /* \"#utility.yul\":4700:4718   */\n  add\n    /* \"#utility.yul\":4687:4718   */\n  swap5\n  pop\n    /* \"#utility.yul\":4561:4565   */\n  0x20\n    /* \"#utility.yul\":4558:4559   */\n  dup2\n    /* \"#utility.yul\":4554:4566   */\n  add\n    /* \"#utility.yul\":4549:4566   */\n  swap1\n  pop\n    /* \"#utility.yul\":4524:4732   */\n  jump(tag_106)\ntag_108:\n    /* \"#utility.yul\":4760:4766   */\n  dup7\n    /* \"#utility.yul\":4751:4758   */\n  dup4\n    /* \"#utility.yul\":4748:4767   */\n  lt\n    /* \"#utility.yul\":4745:4924   */\n  iszero\n  tag_109\n  jumpi\n    /* \"#utility.yul\":4818:4827   */\n  dup5\n    /* \"#utility.yul\":4813:4816   */\n  dup10\n    /* \"#utility.yul\":4809:4828   */\n  add\n    /* \"#utility.yul\":4803:4829   */\n  mload\n    /* \"#utility.yul\":4861:4909   */\n  tag_110\n    /* \"#utility.yul\":4903:4907   */\n  0x1f\n    /* \"#utility.yul\":4895:4901   */\n  dup10\n    /* \"#utility.yul\":4891:4908   */\n  and\n    /* \"#utility.yul\":4880:4889   */\n  dup3\n    /* \"#utility.yul\":4861:4909   */\n  tag_47\n  jump\t// in\ntag_110:\n    /* \"#utility.yul\":4853:4859   */\n  dup4\n    /* \"#utility.yul\":4846:4910   */\n  sstore\n    /* \"#utility.yul\":4768:4924   */\n  pop\n    /* \"#utility.yul\":4745:4924   */\ntag_109:\n    /* \"#utility.yul\":4970:4971   */\n  0x01\n    /* \"#utility.yul\":4966:4967   */\n  0x02\n    /* \"#utility.yul\":4958:4964   */\n  dup9\n    /* \"#utility.yul\":4954:4968   */\n  mul\n    /* \"#utility.yul\":4950:4972   */\n  add\n    /* \"#utility.yul\":4944:4948   */\n  dup9\n    /* \"#utility.yul\":4937:4973   */\n  sstore\n    /* \"#utility.yul\":4372:4983   */\n  pop\n  pop\n  pop\n    /* \"#utility.yul\":4335:5222   */\ntag_101:\n  pop\n    /* \"#utility.yul\":3925:5228   */\n  pop\n  pop\n  pop\n    /* \"#utility.yul\":3833:5228   */\n  pop\n  pop\n  jump\t// out\n    /* \"contracts/AusAML.sol\":93:2990  contract AusAML{... */\ntag_6:\n  dataSize(sub_0)\n  dup1\n  dataOffset(sub_0)\n  0x00\n  codecopy\n  0x00\n  return\nstop\n\nsub_0: assembly {\n        /* \"contracts/AusAML.sol\":93:2990  contract AusAML{... */\n      mstore(0x40, 0x80)\n      jumpi(tag_1, lt(calldatasize, 0x04))\n      shr(0xe0, calldataload(0x00))\n      dup1\n      0x4eb5f247\n      eq\n      tag_2\n      jumpi\n      dup1\n      0xbd799295\n      eq\n      tag_3\n      jumpi\n      dup1\n      0xdd0ae4d6\n      eq\n      tag_4\n      jumpi\n      dup1\n      0xf9e26ef6\n      eq\n      tag_5\n      jumpi\n    tag_1:\n      0x00\n      dup1\n      revert\n        /* \"contracts/AusAML.sol\":2329:2987  function checkWantedIndividual(... */\n    tag_2:\n      callvalue\n      dup1\n      iszero\n      tag_6\n      jumpi\n      0x00\n      dup1\n      revert\n    tag_6:\n      pop\n      tag_7\n      0x04\n      dup1\n      calldatasize\n      sub\n      dup2\n      add\n      swap1\n      tag_8\n      swap2\n      swap1\n      tag_9\n      jump\t// in\n    tag_8:\n      tag_10\n      jump\t// in\n    tag_7:\n      mload(0x40)\n      tag_11\n      swap2\n      swap1\n      tag_12\n      jump\t// in\n    tag_11:\n      mload(0x40)\n      dup1\n      swap2\n      sub\n      swap1\n      return\n        /* \"contracts/AusAML.sol\":1938:2321  function checkAmt(address payable sender, uint256 amount)... */\n    tag_3:\n      tag_13\n      0x04\n      dup1\n      calldatasize\n      sub\n      dup2\n      add\n      swap1\n      tag_14\n      swap2\n      swap1\n      tag_15\n      jump\t// in\n    tag_14:\n      tag_16\n      jump\t// in\n    tag_13:\n      mload(0x40)\n      tag_17\n      swap2\n      swap1\n      tag_12\n      jump\t// in\n    tag_17:\n      mload(0x40)\n      dup1\n      swap2\n      sub\n      swap1\n      return\n        /* \"contracts/AusAML.sol\":632:1458  function checkNationality(... */\n    tag_4:\n      callvalue\n      dup1\n      iszero\n      tag_18\n      jumpi\n      0x00\n      dup1\n      revert\n    tag_18:\n      pop\n      tag_19\n      0x04\n      dup1\n      calldatasize\n      sub\n      dup2\n      add\n      swap1\n      tag_20\n      swap2\n      swap1\n      tag_21\n      jump\t// in\n    tag_20:\n      tag_22\n      jump\t// in\n    tag_19:\n      mload(0x40)\n      tag_23\n      swap2\n      swap1\n      tag_12\n      jump\t// in\n    tag_23:\n      mload(0x40)\n      dup1\n      swap2\n      sub\n      swap1\n      return\n        /* \"contracts/AusAML.sol\":1466:1930  function checkPoliticalStatus(... */\n    tag_5:\n      callvalue\n      dup1\n      iszero\n      tag_24\n      jumpi\n      0x00\n      dup1\n      revert\n    tag_24:\n      pop\n      tag_25\n      0x04\n      dup1\n      calldatasize\n      sub\n      dup2\n      add\n      swap1\n      tag_26\n      swap2\n      swap1\n      tag_21\n      jump\t// in\n    tag_26:\n      tag_27\n      jump\t// in\n    tag_25:\n      mload(0x40)\n      tag_28\n      swap2\n      swap1\n      tag_12\n      jump\t// in\n    tag_28:\n      mload(0x40)\n      dup1\n      swap2\n      sub\n      swap1\n      return\n        /* \"contracts/AusAML.sol\":2329:2987  function checkWantedIndividual(... */\n    tag_10:\n        /* \"contracts/AusAML.sol\":2538:2542  bool */\n      0x00\n        /* \"contracts/AusAML.sol\":2560:2569  uint256 i */\n      dup1\n        /* \"contracts/AusAML.sol\":2572:2573  0 */\n      0x00\n        /* \"contracts/AusAML.sol\":2560:2573  uint256 i = 0 */\n      swap1\n      pop\n        /* \"contracts/AusAML.sol\":2555:2957  for (uint256 i = 0; i < wantedIndividuals.length; i++) {... */\n    tag_30:\n        /* \"contracts/AusAML.sol\":2579:2596  wantedIndividuals */\n      0x01\n        /* \"contracts/AusAML.sol\":2579:2603  wantedIndividuals.length */\n      dup1\n      sload\n      swap1\n      pop\n        /* \"contracts/AusAML.sol\":2575:2576  i */\n      dup2\n        /* \"contracts/AusAML.sol\":2575:2603  i < wantedIndividuals.length */\n      lt\n        /* \"contracts/AusAML.sol\":2555:2957  for (uint256 i = 0; i < wantedIndividuals.length; i++) {... */\n      iszero\n      tag_31\n      jumpi\n        /* \"contracts/AusAML.sol\":2672:2686  senderUserInfo */\n      dup5\n        /* \"contracts/AusAML.sol\":2672:2698  senderUserInfo.userAddress */\n      0x00\n      add\n      mload\n        /* \"contracts/AusAML.sol\":2648:2698  wantedIndividuals[i] == senderUserInfo.userAddress */\n      0xffffffffffffffffffffffffffffffffffffffff\n      and\n        /* \"contracts/AusAML.sol\":2648:2665  wantedIndividuals */\n      0x01\n        /* \"contracts/AusAML.sol\":2666:2667  i */\n      dup3\n        /* \"contracts/AusAML.sol\":2648:2668  wantedIndividuals[i] */\n      dup2\n      sload\n      dup2\n      lt\n      tag_33\n      jumpi\n      tag_34\n      tag_35\n      jump\t// in\n    tag_34:\n    tag_33:\n      swap1\n      0x00\n      mstore\n      keccak256(0x00, 0x20)\n      add\n      0x00\n      swap1\n      sload\n      swap1\n      0x0100\n      exp\n      swap1\n      div\n      0xffffffffffffffffffffffffffffffffffffffff\n      and\n        /* \"contracts/AusAML.sol\":2648:2698  wantedIndividuals[i] == senderUserInfo.userAddress */\n      0xffffffffffffffffffffffffffffffffffffffff\n      and\n      eq\n        /* \"contracts/AusAML.sol\":2647:2774  (wantedIndividuals[i] == senderUserInfo.userAddress) ||... */\n      dup1\n      tag_37\n      jumpi\n      pop\n        /* \"contracts/AusAML.sol\":2745:2761  receiverUserInfo */\n      dup4\n        /* \"contracts/AusAML.sol\":2745:2773  receiverUserInfo.userAddress */\n      0x00\n      add\n      mload\n        /* \"contracts/AusAML.sol\":2721:2773  wantedIndividuals[i] == receiverUserInfo.userAddress */\n      0xffffffffffffffffffffffffffffffffffffffff\n      and\n        /* \"contracts/AusAML.sol\":2721:2738  wantedIndividuals */\n      0x01\n        /* \"contracts/AusAML.sol\":2739:2740  i */\n      dup3\n        /* \"contracts/AusAML.sol\":2721:2741  wantedIndividuals[i] */\n      dup2\n      sload\n      dup2\n      lt\n      tag_38\n      jumpi\n      tag_39\n      tag_35\n      jump\t// in\n    tag_39:\n    tag_38:\n      swap1\n      0x00\n      mstore\n      keccak256(0x00, 0x20)\n      add\n      0x00\n      swap1\n      sload\n      swap1\n      0x0100\n      exp\n      swap1\n      div\n      0xffffffffffffffffffffffffffffffffffffffff\n      and\n        /* \"contracts/AusAML.sol\":2721:2773  wantedIndividuals[i] == receiverUserInfo.userAddress */\n      0xffffffffffffffffffffffffffffffffffffffff\n      and\n      eq\n        /* \"contracts/AusAML.sol\":2647:2774  (wantedIndividuals[i] == senderUserInfo.userAddress) ||... */\n    tag_37:\n        /* \"contracts/AusAML.sol\":2625:2946  if (... */\n      iszero\n      tag_41\n      jumpi\n        /* \"contracts/AusAML.sol\":2832:2900  CreateWantedIndividualErrorLog(\"wanted Individual\", block.timestamp) */\n      0x3eb7b4618223a419acf4654a8ccab76f089242b23c05eb5ca310e68779589f13\n        /* \"contracts/AusAML.sol\":2884:2899  block.timestamp */\n      timestamp\n        /* \"contracts/AusAML.sol\":2832:2900  CreateWantedIndividualErrorLog(\"wanted Individual\", block.timestamp) */\n      mload(0x40)\n      tag_42\n      swap2\n      swap1\n      tag_43\n      jump\t// in\n    tag_42:\n      mload(0x40)\n      dup1\n      swap2\n      sub\n      swap1\n      log1\n        /* \"contracts/AusAML.sol\":2926:2930  true */\n      0x01\n        /* \"contracts/AusAML.sol\":2919:2930  return true */\n      swap2\n      pop\n      pop\n      jump(tag_29)\n        /* \"contracts/AusAML.sol\":2625:2946  if (... */\n    tag_41:\n        /* \"contracts/AusAML.sol\":2605:2608  i++ */\n      dup1\n      dup1\n      tag_44\n      swap1\n      tag_45\n      jump\t// in\n    tag_44:\n      swap2\n      pop\n      pop\n        /* \"contracts/AusAML.sol\":2555:2957  for (uint256 i = 0; i < wantedIndividuals.length; i++) {... */\n      jump(tag_30)\n    tag_31:\n      pop\n        /* \"contracts/AusAML.sol\":2974:2979  false */\n      0x00\n        /* \"contracts/AusAML.sol\":2967:2979  return false */\n      swap1\n      pop\n        /* \"contracts/AusAML.sol\":2329:2987  function checkWantedIndividual(... */\n    tag_29:\n      swap4\n      swap3\n      pop\n      pop\n      pop\n      jump\t// out\n        /* \"contracts/AusAML.sol\":1938:2321  function checkAmt(address payable sender, uint256 amount)... */\n    tag_16:\n        /* \"contracts/AusAML.sol\":2047:2051  bool */\n      0x00\n        /* \"contracts/AusAML.sol\":2082:2091  maxAmount */\n      sload(0x02)\n        /* \"contracts/AusAML.sol\":2073:2079  amount */\n      dup3\n        /* \"contracts/AusAML.sol\":2073:2091  amount > maxAmount */\n      gt\n        /* \"contracts/AusAML.sol\":2069:2257  if (amount > maxAmount) {... */\n      iszero\n      tag_47\n      jumpi\n        /* \"contracts/AusAML.sol\":2108:2114  sender */\n      dup3\n        /* \"contracts/AusAML.sol\":2108:2123  sender.transfer */\n      0xffffffffffffffffffffffffffffffffffffffff\n      and\n        /* \"contracts/AusAML.sol\":2108:2131  sender.transfer(amount) */\n      0x08fc\n        /* \"contracts/AusAML.sol\":2124:2130  amount */\n      dup4\n        /* \"contracts/AusAML.sol\":2108:2131  sender.transfer(amount) */\n      swap1\n      dup2\n      iszero\n      mul\n      swap1\n      mload(0x40)\n      0x00\n      mload(0x40)\n      dup1\n      dup4\n      sub\n      dup2\n      dup6\n      dup9\n      dup9\n      call\n      swap4\n      pop\n      pop\n      pop\n      pop\n      iszero\n      dup1\n      iszero\n      tag_49\n      jumpi\n      returndatasize\n      0x00\n      dup1\n      returndatacopy\n      revert(0x00, returndatasize)\n    tag_49:\n      pop\n        /* \"contracts/AusAML.sol\":2151:2219  CreateExceededMaxAmtErrorLog(\"Exceeded Max Amount\", block.timestamp) */\n      0x695633452b1d0063d6f5ae521db19faef8382a4f1d9896180fed154ab1f54c25\n        /* \"contracts/AusAML.sol\":2203:2218  block.timestamp */\n      timestamp\n        /* \"contracts/AusAML.sol\":2151:2219  CreateExceededMaxAmtErrorLog(\"Exceeded Max Amount\", block.timestamp) */\n      mload(0x40)\n      tag_50\n      swap2\n      swap1\n      tag_51\n      jump\t// in\n    tag_50:\n      mload(0x40)\n      dup1\n      swap2\n      sub\n      swap1\n      log1\n        /* \"contracts/AusAML.sol\":2241:2245  true */\n      0x01\n        /* \"contracts/AusAML.sol\":2234:2245  return true */\n      swap1\n      pop\n      jump(tag_46)\n        /* \"contracts/AusAML.sol\":2069:2257  if (amount > maxAmount) {... */\n    tag_47:\n        /* \"contracts/AusAML.sol\":2267:2273  sender */\n      dup3\n        /* \"contracts/AusAML.sol\":2267:2282  sender.transfer */\n      0xffffffffffffffffffffffffffffffffffffffff\n      and\n        /* \"contracts/AusAML.sol\":2267:2290  sender.transfer(amount) */\n      0x08fc\n        /* \"contracts/AusAML.sol\":2283:2289  amount */\n      dup4\n        /* \"contracts/AusAML.sol\":2267:2290  sender.transfer(amount) */\n      swap1\n      dup2\n      iszero\n      mul\n      swap1\n      mload(0x40)\n      0x00\n      mload(0x40)\n      dup1\n      dup4\n      sub\n      dup2\n      dup6\n      dup9\n      dup9\n      call\n      swap4\n      pop\n      pop\n      pop\n      pop\n      iszero\n      dup1\n      iszero\n      tag_53\n      jumpi\n      returndatasize\n      0x00\n      dup1\n      returndatacopy\n      revert(0x00, returndatasize)\n    tag_53:\n      pop\n        /* \"contracts/AusAML.sol\":2308:2313  false */\n      0x00\n        /* \"contracts/AusAML.sol\":2301:2313  return false */\n      swap1\n      pop\n        /* \"contracts/AusAML.sol\":1938:2321  function checkAmt(address payable sender, uint256 amount)... */\n    tag_46:\n      swap3\n      swap2\n      pop\n      pop\n      jump\t// out\n        /* \"contracts/AusAML.sol\":632:1458  function checkNationality(... */\n    tag_22:\n        /* \"contracts/AusAML.sol\":809:813  bool */\n      0x00\n        /* \"contracts/AusAML.sol\":886:895  uint256 i */\n      dup1\n        /* \"contracts/AusAML.sol\":898:899  0 */\n      0x00\n        /* \"contracts/AusAML.sol\":886:899  uint256 i = 0 */\n      swap1\n      pop\n        /* \"contracts/AusAML.sol\":881:1428  for (uint256 i = 0; i < bannedCountries.length; i++) {... */\n    tag_55:\n        /* \"contracts/AusAML.sol\":905:920  bannedCountries */\n      0x00\n        /* \"contracts/AusAML.sol\":905:927  bannedCountries.length */\n      dup1\n      sload\n      swap1\n      pop\n        /* \"contracts/AusAML.sol\":901:902  i */\n      dup2\n        /* \"contracts/AusAML.sol\":901:927  i < bannedCountries.length */\n      lt\n        /* \"contracts/AusAML.sol\":881:1428  for (uint256 i = 0; i < bannedCountries.length; i++) {... */\n      iszero\n      tag_56\n      jumpi\n        /* \"contracts/AusAML.sol\":1066:1080  senderUserInfo */\n      dup4\n        /* \"contracts/AusAML.sol\":1066:1092  senderUserInfo.nationality */\n      0xc0\n      add\n      mload\n        /* \"contracts/AusAML.sol\":1049:1093  abi.encodePacked(senderUserInfo.nationality) */\n      add(0x20, mload(0x40))\n      tag_58\n      swap2\n      swap1\n      tag_59\n      jump\t// in\n    tag_58:\n      mload(0x40)\n      0x20\n      dup2\n      dup4\n      sub\n      sub\n      dup2\n      mstore\n      swap1\n      0x40\n      mstore\n        /* \"contracts/AusAML.sol\":1039:1094  keccak256(abi.encodePacked(senderUserInfo.nationality)) */\n      dup1\n      mload\n      swap1\n      0x20\n      add\n      keccak256\n        /* \"contracts/AusAML.sol\":998:1013  bannedCountries */\n      0x00\n        /* \"contracts/AusAML.sol\":1014:1015  i */\n      dup3\n        /* \"contracts/AusAML.sol\":998:1016  bannedCountries[i] */\n      dup2\n      sload\n      dup2\n      lt\n      tag_60\n      jumpi\n      tag_61\n      tag_35\n      jump\t// in\n    tag_61:\n    tag_60:\n      swap1\n      0x00\n      mstore\n      keccak256(0x00, 0x20)\n      add\n        /* \"contracts/AusAML.sol\":981:1017  abi.encodePacked(bannedCountries[i]) */\n      add(0x20, mload(0x40))\n      tag_63\n      swap2\n      swap1\n      tag_64\n      jump\t// in\n    tag_63:\n      mload(0x40)\n      0x20\n      dup2\n      dup4\n      sub\n      sub\n      dup2\n      mstore\n      swap1\n      0x40\n      mstore\n        /* \"contracts/AusAML.sol\":971:1018  keccak256(abi.encodePacked(bannedCountries[i])) */\n      dup1\n      mload\n      swap1\n      0x20\n      add\n      keccak256\n        /* \"contracts/AusAML.sol\":971:1094  keccak256(abi.encodePacked(bannedCountries[i])) ==... */\n      eq\n        /* \"contracts/AusAML.sol\":971:1240  keccak256(abi.encodePacked(bannedCountries[i])) ==... */\n      dup1\n      tag_65\n      jumpi\n      pop\n        /* \"contracts/AusAML.sol\":1210:1226  receiverUserInfo */\n      dup3\n        /* \"contracts/AusAML.sol\":1210:1238  receiverUserInfo.nationality */\n      0xc0\n      add\n      mload\n        /* \"contracts/AusAML.sol\":1193:1239  abi.encodePacked(receiverUserInfo.nationality) */\n      add(0x20, mload(0x40))\n      tag_66\n      swap2\n      swap1\n      tag_59\n      jump\t// in\n    tag_66:\n      mload(0x40)\n      0x20\n      dup2\n      dup4\n      sub\n      sub\n      dup2\n      mstore\n      swap1\n      0x40\n      mstore\n        /* \"contracts/AusAML.sol\":1183:1240  keccak256(abi.encodePacked(receiverUserInfo.nationality)) */\n      dup1\n      mload\n      swap1\n      0x20\n      add\n      keccak256\n        /* \"contracts/AusAML.sol\":1142:1157  bannedCountries */\n      0x00\n        /* \"contracts/AusAML.sol\":1158:1159  i */\n      dup3\n        /* \"contracts/AusAML.sol\":1142:1160  bannedCountries[i] */\n      dup2\n      sload\n      dup2\n      lt\n      tag_67\n      jumpi\n      tag_68\n      tag_35\n      jump\t// in\n    tag_68:\n    tag_67:\n      swap1\n      0x00\n      mstore\n      keccak256(0x00, 0x20)\n      add\n        /* \"contracts/AusAML.sol\":1125:1161  abi.encodePacked(bannedCountries[i]) */\n      add(0x20, mload(0x40))\n      tag_70\n      swap2\n      swap1\n      tag_64\n      jump\t// in\n    tag_70:\n      mload(0x40)\n      0x20\n      dup2\n      dup4\n      sub\n      sub\n      dup2\n      mstore\n      swap1\n      0x40\n      mstore\n        /* \"contracts/AusAML.sol\":1115:1162  keccak256(abi.encodePacked(bannedCountries[i])) */\n      dup1\n      mload\n      swap1\n      0x20\n      add\n      keccak256\n        /* \"contracts/AusAML.sol\":1115:1240  keccak256(abi.encodePacked(bannedCountries[i])) ==... */\n      eq\n        /* \"contracts/AusAML.sol\":971:1240  keccak256(abi.encodePacked(bannedCountries[i])) ==... */\n    tag_65:\n        /* \"contracts/AusAML.sol\":949:1417  if (... */\n      iszero\n      tag_71\n      jumpi\n        /* \"contracts/AusAML.sol\":1282:1369  CreateNationalityErrorLog(\"User's Nationality is in banned countries\", block.timestamp) */\n      0x51d9a94b04f50acc666f49c396523e970bfb47916f94955849977c62fc0e8e0b\n        /* \"contracts/AusAML.sol\":1353:1368  block.timestamp */\n      timestamp\n        /* \"contracts/AusAML.sol\":1282:1369  CreateNationalityErrorLog(\"User's Nationality is in banned countries\", block.timestamp) */\n      mload(0x40)\n      tag_72\n      swap2\n      swap1\n      tag_73\n      jump\t// in\n    tag_72:\n      mload(0x40)\n      dup1\n      swap2\n      sub\n      swap1\n      log1\n        /* \"contracts/AusAML.sol\":1397:1401  true */\n      0x01\n        /* \"contracts/AusAML.sol\":1390:1401  return true */\n      swap2\n      pop\n      pop\n      jump(tag_54)\n        /* \"contracts/AusAML.sol\":949:1417  if (... */\n    tag_71:\n        /* \"contracts/AusAML.sol\":929:932  i++ */\n      dup1\n      dup1\n      tag_74\n      swap1\n      tag_45\n      jump\t// in\n    tag_74:\n      swap2\n      pop\n      pop\n        /* \"contracts/AusAML.sol\":881:1428  for (uint256 i = 0; i < bannedCountries.length; i++) {... */\n      jump(tag_55)\n    tag_56:\n      pop\n        /* \"contracts/AusAML.sol\":1445:1450  false */\n      0x00\n        /* \"contracts/AusAML.sol\":1438:1450  return false */\n      swap1\n      pop\n        /* \"contracts/AusAML.sol\":632:1458  function checkNationality(... */\n    tag_54:\n      swap3\n      swap2\n      pop\n      pop\n      jump\t// out\n        /* \"contracts/AusAML.sol\":1466:1930  function checkPoliticalStatus(... */\n    tag_27:\n        /* \"contracts/AusAML.sol\":1647:1651  bool */\n      0x00\n        /* \"contracts/AusAML.sol\":1669:1683  senderUserInfo */\n      dup3\n        /* \"contracts/AusAML.sol\":1669:1704  senderUserInfo.isPoliticallyExposed */\n      0xe0\n      add\n      mload\n        /* \"contracts/AusAML.sol\":1669:1745  senderUserInfo.isPoliticallyExposed || receiverUserInfo.isPoliticallyExposed */\n      dup1\n      tag_76\n      jumpi\n      pop\n        /* \"contracts/AusAML.sol\":1708:1724  receiverUserInfo */\n      dup2\n        /* \"contracts/AusAML.sol\":1708:1745  receiverUserInfo.isPoliticallyExposed */\n      0xe0\n      add\n      mload\n        /* \"contracts/AusAML.sol\":1669:1745  senderUserInfo.isPoliticallyExposed || receiverUserInfo.isPoliticallyExposed */\n    tag_76:\n        /* \"contracts/AusAML.sol\":1666:1884  if(senderUserInfo.isPoliticallyExposed || receiverUserInfo.isPoliticallyExposed){... */\n      iszero\n      tag_77\n      jumpi\n        /* \"contracts/AusAML.sol\":1766:1846  CreatePoliticallyExposedErrorLog(\"User is politically exposed\", block.timestamp) */\n      0x6f0574c43ca8dc8a1e98aa228b41dd7b659ec8f259189f8bfa33ed065dd30df9\n        /* \"contracts/AusAML.sol\":1830:1845  block.timestamp */\n      timestamp\n        /* \"contracts/AusAML.sol\":1766:1846  CreatePoliticallyExposedErrorLog(\"User is politically exposed\", block.timestamp) */\n      mload(0x40)\n      tag_78\n      swap2\n      swap1\n      tag_79\n      jump\t// in\n    tag_78:\n      mload(0x40)\n      dup1\n      swap2\n      sub\n      swap1\n      log1\n        /* \"contracts/AusAML.sol\":1868:1872  true */\n      0x01\n        /* \"contracts/AusAML.sol\":1861:1872  return true */\n      swap1\n      pop\n      jump(tag_75)\n        /* \"contracts/AusAML.sol\":1666:1884  if(senderUserInfo.isPoliticallyExposed || receiverUserInfo.isPoliticallyExposed){... */\n    tag_77:\n        /* \"contracts/AusAML.sol\":1903:1908  false */\n      0x00\n        /* \"contracts/AusAML.sol\":1896:1908  return false */\n      swap1\n      pop\n        /* \"contracts/AusAML.sol\":1466:1930  function checkPoliticalStatus(... */\n    tag_75:\n      swap3\n      swap2\n      pop\n      pop\n      jump\t// out\n        /* \"#utility.yul\":7:82   */\n    tag_80:\n        /* \"#utility.yul\":40:46   */\n      0x00\n        /* \"#utility.yul\":73:75   */\n      0x40\n        /* \"#utility.yul\":67:76   */\n      mload\n        /* \"#utility.yul\":57:76   */\n      swap1\n      pop\n        /* \"#utility.yul\":7:82   */\n      swap1\n      jump\t// out\n        /* \"#utility.yul\":88:205   */\n    tag_81:\n        /* \"#utility.yul\":197:198   */\n      0x00\n        /* \"#utility.yul\":194:195   */\n      dup1\n        /* \"#utility.yul\":187:199   */\n      revert\n        /* \"#utility.yul\":211:328   */\n    tag_82:\n        /* \"#utility.yul\":320:321   */\n      0x00\n        /* \"#utility.yul\":317:318   */\n      dup1\n        /* \"#utility.yul\":310:322   */\n      revert\n        /* \"#utility.yul\":334:451   */\n    tag_83:\n        /* \"#utility.yul\":443:444   */\n      0x00\n        /* \"#utility.yul\":440:441   */\n      dup1\n        /* \"#utility.yul\":433:445   */\n      revert\n        /* \"#utility.yul\":457:559   */\n    tag_84:\n        /* \"#utility.yul\":498:504   */\n      0x00\n        /* \"#utility.yul\":549:551   */\n      0x1f\n        /* \"#utility.yul\":545:552   */\n      not\n        /* \"#utility.yul\":540:542   */\n      0x1f\n        /* \"#utility.yul\":533:538   */\n      dup4\n        /* \"#utility.yul\":529:543   */\n      add\n        /* \"#utility.yul\":525:553   */\n      and\n        /* \"#utility.yul\":515:553   */\n      swap1\n      pop\n        /* \"#utility.yul\":457:559   */\n      swap2\n      swap1\n      pop\n      jump\t// out\n        /* \"#utility.yul\":565:745   */\n    tag_85:\n        /* \"#utility.yul\":613:690   */\n      0x4e487b7100000000000000000000000000000000000000000000000000000000\n        /* \"#utility.yul\":610:611   */\n      0x00\n        /* \"#utility.yul\":603:691   */\n      mstore\n        /* \"#utility.yul\":710:714   */\n      0x41\n        /* \"#utility.yul\":707:708   */\n      0x04\n        /* \"#utility.yul\":700:715   */\n      mstore\n        /* \"#utility.yul\":734:738   */\n      0x24\n        /* \"#utility.yul\":731:732   */\n      0x00\n        /* \"#utility.yul\":724:739   */\n      revert\n        /* \"#utility.yul\":751:1032   */\n    tag_86:\n        /* \"#utility.yul\":834:861   */\n      tag_137\n        /* \"#utility.yul\":856:860   */\n      dup3\n        /* \"#utility.yul\":834:861   */\n      tag_84\n      jump\t// in\n    tag_137:\n        /* \"#utility.yul\":826:832   */\n      dup2\n        /* \"#utility.yul\":822:862   */\n      add\n        /* \"#utility.yul\":964:970   */\n      dup2\n        /* \"#utility.yul\":952:962   */\n      dup2\n        /* \"#utility.yul\":949:971   */\n      lt\n        /* \"#utility.yul\":928:946   */\n      0xffffffffffffffff\n        /* \"#utility.yul\":916:926   */\n      dup3\n        /* \"#utility.yul\":913:947   */\n      gt\n        /* \"#utility.yul\":910:972   */\n      or\n        /* \"#utility.yul\":907:995   */\n      iszero\n      tag_138\n      jumpi\n        /* \"#utility.yul\":975:993   */\n      tag_139\n      tag_85\n      jump\t// in\n    tag_139:\n        /* \"#utility.yul\":907:995   */\n    tag_138:\n        /* \"#utility.yul\":1015:1025   */\n      dup1\n        /* \"#utility.yul\":1011:1013   */\n      0x40\n        /* \"#utility.yul\":1004:1026   */\n      mstore\n        /* \"#utility.yul\":794:1032   */\n      pop\n        /* \"#utility.yul\":751:1032   */\n      pop\n      pop\n      jump\t// out\n        /* \"#utility.yul\":1038:1167   */\n    tag_87:\n        /* \"#utility.yul\":1072:1078   */\n      0x00\n        /* \"#utility.yul\":1099:1119   */\n      tag_141\n      tag_80\n      jump\t// in\n    tag_141:\n        /* \"#utility.yul\":1089:1119   */\n      swap1\n      pop\n        /* \"#utility.yul\":1128:1161   */\n      tag_142\n        /* \"#utility.yul\":1156:1160   */\n      dup3\n        /* \"#utility.yul\":1148:1154   */\n      dup3\n        /* \"#utility.yul\":1128:1161   */\n      tag_86\n      jump\t// in\n    tag_142:\n        /* \"#utility.yul\":1038:1167   */\n      swap2\n      swap1\n      pop\n      jump\t// out\n        /* \"#utility.yul\":1173:1290   */\n    tag_88:\n        /* \"#utility.yul\":1282:1283   */\n      0x00\n        /* \"#utility.yul\":1279:1280   */\n      dup1\n        /* \"#utility.yul\":1272:1284   */\n      revert\n        /* \"#utility.yul\":1296:1422   */\n    tag_89:\n        /* \"#utility.yul\":1333:1340   */\n      0x00\n        /* \"#utility.yul\":1373:1415   */\n      0xffffffffffffffffffffffffffffffffffffffff\n        /* \"#utility.yul\":1366:1371   */\n      dup3\n        /* \"#utility.yul\":1362:1416   */\n      and\n        /* \"#utility.yul\":1351:1416   */\n      swap1\n      pop\n        /* \"#utility.yul\":1296:1422   */\n      swap2\n      swap1\n      pop\n      jump\t// out\n        /* \"#utility.yul\":1428:1524   */\n    tag_90:\n        /* \"#utility.yul\":1465:1472   */\n      0x00\n        /* \"#utility.yul\":1494:1518   */\n      tag_146\n        /* \"#utility.yul\":1512:1517   */\n      dup3\n        /* \"#utility.yul\":1494:1518   */\n      tag_89\n      jump\t// in\n    tag_146:\n        /* \"#utility.yul\":1483:1518   */\n      swap1\n      pop\n        /* \"#utility.yul\":1428:1524   */\n      swap2\n      swap1\n      pop\n      jump\t// out\n        /* \"#utility.yul\":1530:1652   */\n    tag_91:\n        /* \"#utility.yul\":1603:1627   */\n      tag_148\n        /* \"#utility.yul\":1621:1626   */\n      dup2\n        /* \"#utility.yul\":1603:1627   */\n      tag_90\n      jump\t// in\n    tag_148:\n        /* \"#utility.yul\":1596:1601   */\n      dup2\n        /* \"#utility.yul\":1593:1628   */\n      eq\n        /* \"#utility.yul\":1583:1646   */\n      tag_149\n      jumpi\n        /* \"#utility.yul\":1642:1643   */\n      0x00\n        /* \"#utility.yul\":1639:1640   */\n      dup1\n        /* \"#utility.yul\":1632:1644   */\n      revert\n        /* \"#utility.yul\":1583:1646   */\n    tag_149:\n        /* \"#utility.yul\":1530:1652   */\n      pop\n      jump\t// out\n        /* \"#utility.yul\":1658:1797   */\n    tag_92:\n        /* \"#utility.yul\":1704:1709   */\n      0x00\n        /* \"#utility.yul\":1742:1748   */\n      dup2\n        /* \"#utility.yul\":1729:1749   */\n      calldataload\n        /* \"#utility.yul\":1720:1749   */\n      swap1\n      pop\n        /* \"#utility.yul\":1758:1791   */\n      tag_151\n        /* \"#utility.yul\":1785:1790   */\n      dup2\n        /* \"#utility.yul\":1758:1791   */\n      tag_91\n      jump\t// in\n    tag_151:\n        /* \"#utility.yul\":1658:1797   */\n      swap3\n      swap2\n      pop\n      pop\n      jump\t// out\n        /* \"#utility.yul\":1803:1920   */\n    tag_93:\n        /* \"#utility.yul\":1912:1913   */\n      0x00\n        /* \"#utility.yul\":1909:1910   */\n      dup1\n        /* \"#utility.yul\":1902:1914   */\n      revert\n        /* \"#utility.yul\":1926:2043   */\n    tag_94:\n        /* \"#utility.yul\":2035:2036   */\n      0x00\n        /* \"#utility.yul\":2032:2033   */\n      dup1\n        /* \"#utility.yul\":2025:2037   */\n      revert\n        /* \"#utility.yul\":2049:2357   */\n    tag_95:\n        /* \"#utility.yul\":2111:2115   */\n      0x00\n        /* \"#utility.yul\":2201:2219   */\n      0xffffffffffffffff\n        /* \"#utility.yul\":2193:2199   */\n      dup3\n        /* \"#utility.yul\":2190:2220   */\n      gt\n        /* \"#utility.yul\":2187:2243   */\n      iszero\n      tag_155\n      jumpi\n        /* \"#utility.yul\":2223:2241   */\n      tag_156\n      tag_85\n      jump\t// in\n    tag_156:\n        /* \"#utility.yul\":2187:2243   */\n    tag_155:\n        /* \"#utility.yul\":2261:2290   */\n      tag_157\n        /* \"#utility.yul\":2283:2289   */\n      dup3\n        /* \"#utility.yul\":2261:2290   */\n      tag_84\n      jump\t// in\n    tag_157:\n        /* \"#utility.yul\":2253:2290   */\n      swap1\n      pop\n        /* \"#utility.yul\":2345:2349   */\n      0x20\n        /* \"#utility.yul\":2339:2343   */\n      dup2\n        /* \"#utility.yul\":2335:2350   */\n      add\n        /* \"#utility.yul\":2327:2350   */\n      swap1\n      pop\n        /* \"#utility.yul\":2049:2357   */\n      swap2\n      swap1\n      pop\n      jump\t// out\n        /* \"#utility.yul\":2363:2509   */\n    tag_96:\n        /* \"#utility.yul\":2460:2466   */\n      dup3\n        /* \"#utility.yul\":2455:2458   */\n      dup2\n        /* \"#utility.yul\":2450:2453   */\n      dup4\n        /* \"#utility.yul\":2437:2467   */\n      calldatacopy\n        /* \"#utility.yul\":2501:2502   */\n      0x00\n        /* \"#utility.yul\":2492:2498   */\n      dup4\n        /* \"#utility.yul\":2487:2490   */\n      dup4\n        /* \"#utility.yul\":2483:2499   */\n      add\n        /* \"#utility.yul\":2476:2503   */\n      mstore\n        /* \"#utility.yul\":2363:2509   */\n      pop\n      pop\n      pop\n      jump\t// out\n        /* \"#utility.yul\":2515:2940   */\n    tag_97:\n        /* \"#utility.yul\":2593:2598   */\n      0x00\n        /* \"#utility.yul\":2618:2684   */\n      tag_160\n        /* \"#utility.yul\":2634:2683   */\n      tag_161\n        /* \"#utility.yul\":2676:2682   */\n      dup5\n        /* \"#utility.yul\":2634:2683   */\n      tag_95\n      jump\t// in\n    tag_161:\n        /* \"#utility.yul\":2618:2684   */\n      tag_87\n      jump\t// in\n    tag_160:\n        /* \"#utility.yul\":2609:2684   */\n      swap1\n      pop\n        /* \"#utility.yul\":2707:2713   */\n      dup3\n        /* \"#utility.yul\":2700:2705   */\n      dup2\n        /* \"#utility.yul\":2693:2714   */\n      mstore\n        /* \"#utility.yul\":2745:2749   */\n      0x20\n        /* \"#utility.yul\":2738:2743   */\n      dup2\n        /* \"#utility.yul\":2734:2750   */\n      add\n        /* \"#utility.yul\":2783:2786   */\n      dup5\n        /* \"#utility.yul\":2774:2780   */\n      dup5\n        /* \"#utility.yul\":2769:2772   */\n      dup5\n        /* \"#utility.yul\":2765:2781   */\n      add\n        /* \"#utility.yul\":2762:2787   */\n      gt\n        /* \"#utility.yul\":2759:2871   */\n      iszero\n      tag_162\n      jumpi\n        /* \"#utility.yul\":2790:2869   */\n      tag_163\n      tag_94\n      jump\t// in\n    tag_163:\n        /* \"#utility.yul\":2759:2871   */\n    tag_162:\n        /* \"#utility.yul\":2880:2934   */\n      tag_164\n        /* \"#utility.yul\":2927:2933   */\n      dup5\n        /* \"#utility.yul\":2922:2925   */\n      dup3\n        /* \"#utility.yul\":2917:2920   */\n      dup6\n        /* \"#utility.yul\":2880:2934   */\n      tag_96\n      jump\t// in\n    tag_164:\n        /* \"#utility.yul\":2599:2940   */\n      pop\n        /* \"#utility.yul\":2515:2940   */\n      swap4\n      swap3\n      pop\n      pop\n      pop\n      jump\t// out\n        /* \"#utility.yul\":2960:3300   */\n    tag_98:\n        /* \"#utility.yul\":3016:3021   */\n      0x00\n        /* \"#utility.yul\":3065:3068   */\n      dup3\n        /* \"#utility.yul\":3058:3062   */\n      0x1f\n        /* \"#utility.yul\":3050:3056   */\n      dup4\n        /* \"#utility.yul\":3046:3063   */\n      add\n        /* \"#utility.yul\":3042:3069   */\n      slt\n        /* \"#utility.yul\":3032:3154   */\n      tag_166\n      jumpi\n        /* \"#utility.yul\":3073:3152   */\n      tag_167\n      tag_93\n      jump\t// in\n    tag_167:\n        /* \"#utility.yul\":3032:3154   */\n    tag_166:\n        /* \"#utility.yul\":3190:3196   */\n      dup2\n        /* \"#utility.yul\":3177:3197   */\n      calldataload\n        /* \"#utility.yul\":3215:3294   */\n      tag_168\n        /* \"#utility.yul\":3290:3293   */\n      dup5\n        /* \"#utility.yul\":3282:3288   */\n      dup3\n        /* \"#utility.yul\":3275:3279   */\n      0x20\n        /* \"#utility.yul\":3267:3273   */\n      dup7\n        /* \"#utility.yul\":3263:3280   */\n      add\n        /* \"#utility.yul\":3215:3294   */\n      tag_97\n      jump\t// in\n    tag_168:\n        /* \"#utility.yul\":3206:3294   */\n      swap2\n      pop\n        /* \"#utility.yul\":3022:3300   */\n      pop\n        /* \"#utility.yul\":2960:3300   */\n      swap3\n      swap2\n      pop\n      pop\n      jump\t// out\n        /* \"#utility.yul\":3306:3396   */\n    tag_99:\n        /* \"#utility.yul\":3340:3347   */\n      0x00\n        /* \"#utility.yul\":3383:3388   */\n      dup2\n        /* \"#utility.yul\":3376:3389   */\n      iszero\n        /* \"#utility.yul\":3369:3390   */\n      iszero\n        /* \"#utility.yul\":3358:3390   */\n      swap1\n      pop\n        /* \"#utility.yul\":3306:3396   */\n      swap2\n      swap1\n      pop\n      jump\t// out\n        /* \"#utility.yul\":3402:3518   */\n    tag_100:\n        /* \"#utility.yul\":3472:3493   */\n      tag_171\n        /* \"#utility.yul\":3487:3492   */\n      dup2\n        /* \"#utility.yul\":3472:3493   */\n      tag_99\n      jump\t// in\n    tag_171:\n        /* \"#utility.yul\":3465:3470   */\n      dup2\n        /* \"#utility.yul\":3462:3494   */\n      eq\n        /* \"#utility.yul\":3452:3512   */\n      tag_172\n      jumpi\n        /* \"#utility.yul\":3508:3509   */\n      0x00\n        /* \"#utility.yul\":3505:3506   */\n      dup1\n        /* \"#utility.yul\":3498:3510   */\n      revert\n        /* \"#utility.yul\":3452:3512   */\n    tag_172:\n        /* \"#utility.yul\":3402:3518   */\n      pop\n      jump\t// out\n        /* \"#utility.yul\":3524:3657   */\n    tag_101:\n        /* \"#utility.yul\":3567:3572   */\n      0x00\n        /* \"#utility.yul\":3605:3611   */\n      dup2\n        /* \"#utility.yul\":3592:3612   */\n      calldataload\n        /* \"#utility.yul\":3583:3612   */\n      swap1\n      pop\n        /* \"#utility.yul\":3621:3651   */\n      tag_174\n        /* \"#utility.yul\":3645:3650   */\n      dup2\n        /* \"#utility.yul\":3621:3651   */\n      tag_100\n      jump\t// in\n    tag_174:\n        /* \"#utility.yul\":3524:3657   */\n      swap3\n      swap2\n      pop\n      pop\n      jump\t// out\n        /* \"#utility.yul\":3708:6325   */\n    tag_102:\n        /* \"#utility.yul\":3788:3793   */\n      0x00\n        /* \"#utility.yul\":3832:3838   */\n      0x0100\n        /* \"#utility.yul\":3820:3829   */\n      dup3\n        /* \"#utility.yul\":3815:3818   */\n      dup5\n        /* \"#utility.yul\":3811:3830   */\n      sub\n        /* \"#utility.yul\":3807:3839   */\n      slt\n        /* \"#utility.yul\":3804:3923   */\n      iszero\n      tag_176\n      jumpi\n        /* \"#utility.yul\":3842:3921   */\n      tag_177\n      tag_83\n      jump\t// in\n    tag_177:\n        /* \"#utility.yul\":3804:3923   */\n    tag_176:\n        /* \"#utility.yul\":3941:3964   */\n      tag_178\n        /* \"#utility.yul\":3957:3963   */\n      0x0100\n        /* \"#utility.yul\":3941:3964   */\n      tag_87\n      jump\t// in\n    tag_178:\n        /* \"#utility.yul\":3932:3964   */\n      swap1\n      pop\n        /* \"#utility.yul\":4030:4031   */\n      0x00\n        /* \"#utility.yul\":4070:4119   */\n      tag_179\n        /* \"#utility.yul\":4115:4118   */\n      dup5\n        /* \"#utility.yul\":4106:4112   */\n      dup3\n        /* \"#utility.yul\":4095:4104   */\n      dup6\n        /* \"#utility.yul\":4091:4113   */\n      add\n        /* \"#utility.yul\":4070:4119   */\n      tag_92\n      jump\t// in\n    tag_179:\n        /* \"#utility.yul\":4063:4067   */\n      0x00\n        /* \"#utility.yul\":4056:4061   */\n      dup4\n        /* \"#utility.yul\":4052:4068   */\n      add\n        /* \"#utility.yul\":4045:4120   */\n      mstore\n        /* \"#utility.yul\":3974:4131   */\n      pop\n        /* \"#utility.yul\":4218:4220   */\n      0x20\n        /* \"#utility.yul\":4207:4216   */\n      dup3\n        /* \"#utility.yul\":4203:4221   */\n      add\n        /* \"#utility.yul\":4190:4222   */\n      calldataload\n        /* \"#utility.yul\":4249:4267   */\n      0xffffffffffffffff\n        /* \"#utility.yul\":4241:4247   */\n      dup2\n        /* \"#utility.yul\":4238:4268   */\n      gt\n        /* \"#utility.yul\":4235:4352   */\n      iszero\n      tag_180\n      jumpi\n        /* \"#utility.yul\":4271:4350   */\n      tag_181\n      tag_88\n      jump\t// in\n    tag_181:\n        /* \"#utility.yul\":4235:4352   */\n    tag_180:\n        /* \"#utility.yul\":4391:4450   */\n      tag_182\n        /* \"#utility.yul\":4446:4449   */\n      dup5\n        /* \"#utility.yul\":4437:4443   */\n      dup3\n        /* \"#utility.yul\":4426:4435   */\n      dup6\n        /* \"#utility.yul\":4422:4444   */\n      add\n        /* \"#utility.yul\":4391:4450   */\n      tag_98\n      jump\t// in\n    tag_182:\n        /* \"#utility.yul\":4384:4388   */\n      0x20\n        /* \"#utility.yul\":4377:4382   */\n      dup4\n        /* \"#utility.yul\":4373:4389   */\n      add\n        /* \"#utility.yul\":4366:4451   */\n      mstore\n        /* \"#utility.yul\":4141:4462   */\n      pop\n        /* \"#utility.yul\":4554:4556   */\n      0x40\n        /* \"#utility.yul\":4543:4552   */\n      dup3\n        /* \"#utility.yul\":4539:4557   */\n      add\n        /* \"#utility.yul\":4526:4558   */\n      calldataload\n        /* \"#utility.yul\":4585:4603   */\n      0xffffffffffffffff\n        /* \"#utility.yul\":4577:4583   */\n      dup2\n        /* \"#utility.yul\":4574:4604   */\n      gt\n        /* \"#utility.yul\":4571:4688   */\n      iszero\n      tag_183\n      jumpi\n        /* \"#utility.yul\":4607:4686   */\n      tag_184\n      tag_88\n      jump\t// in\n    tag_184:\n        /* \"#utility.yul\":4571:4688   */\n    tag_183:\n        /* \"#utility.yul\":4727:4786   */\n      tag_185\n        /* \"#utility.yul\":4782:4785   */\n      dup5\n        /* \"#utility.yul\":4773:4779   */\n      dup3\n        /* \"#utility.yul\":4762:4771   */\n      dup6\n        /* \"#utility.yul\":4758:4780   */\n      add\n        /* \"#utility.yul\":4727:4786   */\n      tag_98\n      jump\t// in\n    tag_185:\n        /* \"#utility.yul\":4720:4724   */\n      0x40\n        /* \"#utility.yul\":4713:4718   */\n      dup4\n        /* \"#utility.yul\":4709:4725   */\n      add\n        /* \"#utility.yul\":4702:4787   */\n      mstore\n        /* \"#utility.yul\":4472:4798   */\n      pop\n        /* \"#utility.yul\":4889:4891   */\n      0x60\n        /* \"#utility.yul\":4878:4887   */\n      dup3\n        /* \"#utility.yul\":4874:4892   */\n      add\n        /* \"#utility.yul\":4861:4893   */\n      calldataload\n        /* \"#utility.yul\":4920:4938   */\n      0xffffffffffffffff\n        /* \"#utility.yul\":4912:4918   */\n      dup2\n        /* \"#utility.yul\":4909:4939   */\n      gt\n        /* \"#utility.yul\":4906:5023   */\n      iszero\n      tag_186\n      jumpi\n        /* \"#utility.yul\":4942:5021   */\n      tag_187\n      tag_88\n      jump\t// in\n    tag_187:\n        /* \"#utility.yul\":4906:5023   */\n    tag_186:\n        /* \"#utility.yul\":5062:5121   */\n      tag_188\n        /* \"#utility.yul\":5117:5120   */\n      dup5\n        /* \"#utility.yul\":5108:5114   */\n      dup3\n        /* \"#utility.yul\":5097:5106   */\n      dup6\n        /* \"#utility.yul\":5093:5115   */\n      add\n        /* \"#utility.yul\":5062:5121   */\n      tag_98\n      jump\t// in\n    tag_188:\n        /* \"#utility.yul\":5055:5059   */\n      0x60\n        /* \"#utility.yul\":5048:5053   */\n      dup4\n        /* \"#utility.yul\":5044:5060   */\n      add\n        /* \"#utility.yul\":5037:5122   */\n      mstore\n        /* \"#utility.yul\":4808:5133   */\n      pop\n        /* \"#utility.yul\":5223:5226   */\n      0x80\n        /* \"#utility.yul\":5212:5221   */\n      dup3\n        /* \"#utility.yul\":5208:5227   */\n      add\n        /* \"#utility.yul\":5195:5228   */\n      calldataload\n        /* \"#utility.yul\":5255:5273   */\n      0xffffffffffffffff\n        /* \"#utility.yul\":5247:5253   */\n      dup2\n        /* \"#utility.yul\":5244:5274   */\n      gt\n        /* \"#utility.yul\":5241:5358   */\n      iszero\n      tag_189\n      jumpi\n        /* \"#utility.yul\":5277:5356   */\n      tag_190\n      tag_88\n      jump\t// in\n    tag_190:\n        /* \"#utility.yul\":5241:5358   */\n    tag_189:\n        /* \"#utility.yul\":5397:5456   */\n      tag_191\n        /* \"#utility.yul\":5452:5455   */\n      dup5\n        /* \"#utility.yul\":5443:5449   */\n      dup3\n        /* \"#utility.yul\":5432:5441   */\n      dup6\n        /* \"#utility.yul\":5428:5450   */\n      add\n        /* \"#utility.yul\":5397:5456   */\n      tag_98\n      jump\t// in\n    tag_191:\n        /* \"#utility.yul\":5390:5394   */\n      0x80\n        /* \"#utility.yul\":5383:5388   */\n      dup4\n        /* \"#utility.yul\":5379:5395   */\n      add\n        /* \"#utility.yul\":5372:5457   */\n      mstore\n        /* \"#utility.yul\":5143:5468   */\n      pop\n        /* \"#utility.yul\":5559:5562   */\n      0xa0\n        /* \"#utility.yul\":5548:5557   */\n      dup3\n        /* \"#utility.yul\":5544:5563   */\n      add\n        /* \"#utility.yul\":5531:5564   */\n      calldataload\n        /* \"#utility.yul\":5591:5609   */\n      0xffffffffffffffff\n        /* \"#utility.yul\":5583:5589   */\n      dup2\n        /* \"#utility.yul\":5580:5610   */\n      gt\n        /* \"#utility.yul\":5577:5694   */\n      iszero\n      tag_192\n      jumpi\n        /* \"#utility.yul\":5613:5692   */\n      tag_193\n      tag_88\n      jump\t// in\n    tag_193:\n        /* \"#utility.yul\":5577:5694   */\n    tag_192:\n        /* \"#utility.yul\":5733:5792   */\n      tag_194\n        /* \"#utility.yul\":5788:5791   */\n      dup5\n        /* \"#utility.yul\":5779:5785   */\n      dup3\n        /* \"#utility.yul\":5768:5777   */\n      dup6\n        /* \"#utility.yul\":5764:5786   */\n      add\n        /* \"#utility.yul\":5733:5792   */\n      tag_98\n      jump\t// in\n    tag_194:\n        /* \"#utility.yul\":5726:5730   */\n      0xa0\n        /* \"#utility.yul\":5719:5724   */\n      dup4\n        /* \"#utility.yul\":5715:5731   */\n      add\n        /* \"#utility.yul\":5708:5793   */\n      mstore\n        /* \"#utility.yul\":5478:5804   */\n      pop\n        /* \"#utility.yul\":5898:5901   */\n      0xc0\n        /* \"#utility.yul\":5887:5896   */\n      dup3\n        /* \"#utility.yul\":5883:5902   */\n      add\n        /* \"#utility.yul\":5870:5903   */\n      calldataload\n        /* \"#utility.yul\":5930:5948   */\n      0xffffffffffffffff\n        /* \"#utility.yul\":5922:5928   */\n      dup2\n        /* \"#utility.yul\":5919:5949   */\n      gt\n        /* \"#utility.yul\":5916:6033   */\n      iszero\n      tag_195\n      jumpi\n        /* \"#utility.yul\":5952:6031   */\n      tag_196\n      tag_88\n      jump\t// in\n    tag_196:\n        /* \"#utility.yul\":5916:6033   */\n    tag_195:\n        /* \"#utility.yul\":6072:6131   */\n      tag_197\n        /* \"#utility.yul\":6127:6130   */\n      dup5\n        /* \"#utility.yul\":6118:6124   */\n      dup3\n        /* \"#utility.yul\":6107:6116   */\n      dup6\n        /* \"#utility.yul\":6103:6125   */\n      add\n        /* \"#utility.yul\":6072:6131   */\n      tag_98\n      jump\t// in\n    tag_197:\n        /* \"#utility.yul\":6065:6069   */\n      0xc0\n        /* \"#utility.yul\":6058:6063   */\n      dup4\n        /* \"#utility.yul\":6054:6070   */\n      add\n        /* \"#utility.yul\":6047:6132   */\n      mstore\n        /* \"#utility.yul\":5814:6143   */\n      pop\n        /* \"#utility.yul\":6218:6221   */\n      0xe0\n        /* \"#utility.yul\":6260:6306   */\n      tag_198\n        /* \"#utility.yul\":6302:6305   */\n      dup5\n        /* \"#utility.yul\":6293:6299   */\n      dup3\n        /* \"#utility.yul\":6282:6291   */\n      dup6\n        /* \"#utility.yul\":6278:6300   */\n      add\n        /* \"#utility.yul\":6260:6306   */\n      tag_101\n      jump\t// in\n    tag_198:\n        /* \"#utility.yul\":6253:6257   */\n      0xe0\n        /* \"#utility.yul\":6246:6251   */\n      dup4\n        /* \"#utility.yul\":6242:6258   */\n      add\n        /* \"#utility.yul\":6235:6307   */\n      mstore\n        /* \"#utility.yul\":6153:6318   */\n      pop\n        /* \"#utility.yul\":3708:6325   */\n      swap3\n      swap2\n      pop\n      pop\n      jump\t// out\n        /* \"#utility.yul\":6331:7394   */\n    tag_9:\n        /* \"#utility.yul\":6470:6476   */\n      0x00\n        /* \"#utility.yul\":6478:6484   */\n      dup1\n        /* \"#utility.yul\":6486:6492   */\n      0x00\n        /* \"#utility.yul\":6535:6537   */\n      0x60\n        /* \"#utility.yul\":6523:6532   */\n      dup5\n        /* \"#utility.yul\":6514:6521   */\n      dup7\n        /* \"#utility.yul\":6510:6533   */\n      sub\n        /* \"#utility.yul\":6506:6538   */\n      slt\n        /* \"#utility.yul\":6503:6622   */\n      iszero\n      tag_200\n      jumpi\n        /* \"#utility.yul\":6541:6620   */\n      tag_201\n      tag_81\n      jump\t// in\n    tag_201:\n        /* \"#utility.yul\":6503:6622   */\n    tag_200:\n        /* \"#utility.yul\":6689:6690   */\n      0x00\n        /* \"#utility.yul\":6678:6687   */\n      dup5\n        /* \"#utility.yul\":6674:6691   */\n      add\n        /* \"#utility.yul\":6661:6692   */\n      calldataload\n        /* \"#utility.yul\":6719:6737   */\n      0xffffffffffffffff\n        /* \"#utility.yul\":6711:6717   */\n      dup2\n        /* \"#utility.yul\":6708:6738   */\n      gt\n        /* \"#utility.yul\":6705:6822   */\n      iszero\n      tag_202\n      jumpi\n        /* \"#utility.yul\":6741:6820   */\n      tag_203\n      tag_82\n      jump\t// in\n    tag_203:\n        /* \"#utility.yul\":6705:6822   */\n    tag_202:\n        /* \"#utility.yul\":6846:6930   */\n      tag_204\n        /* \"#utility.yul\":6922:6929   */\n      dup7\n        /* \"#utility.yul\":6913:6919   */\n      dup3\n        /* \"#utility.yul\":6902:6911   */\n      dup8\n        /* \"#utility.yul\":6898:6920   */\n      add\n        /* \"#utility.yul\":6846:6930   */\n      tag_102\n      jump\t// in\n    tag_204:\n        /* \"#utility.yul\":6836:6930   */\n      swap4\n      pop\n        /* \"#utility.yul\":6632:6940   */\n      pop\n        /* \"#utility.yul\":7007:7009   */\n      0x20\n        /* \"#utility.yul\":6996:7005   */\n      dup5\n        /* \"#utility.yul\":6992:7010   */\n      add\n        /* \"#utility.yul\":6979:7011   */\n      calldataload\n        /* \"#utility.yul\":7038:7056   */\n      0xffffffffffffffff\n        /* \"#utility.yul\":7030:7036   */\n      dup2\n        /* \"#utility.yul\":7027:7057   */\n      gt\n        /* \"#utility.yul\":7024:7141   */\n      iszero\n      tag_205\n      jumpi\n        /* \"#utility.yul\":7060:7139   */\n      tag_206\n      tag_82\n      jump\t// in\n    tag_206:\n        /* \"#utility.yul\":7024:7141   */\n    tag_205:\n        /* \"#utility.yul\":7165:7249   */\n      tag_207\n        /* \"#utility.yul\":7241:7248   */\n      dup7\n        /* \"#utility.yul\":7232:7238   */\n      dup3\n        /* \"#utility.yul\":7221:7230   */\n      dup8\n        /* \"#utility.yul\":7217:7239   */\n      add\n        /* \"#utility.yul\":7165:7249   */\n      tag_102\n      jump\t// in\n    tag_207:\n        /* \"#utility.yul\":7155:7249   */\n      swap3\n      pop\n        /* \"#utility.yul\":6950:7259   */\n      pop\n        /* \"#utility.yul\":7298:7300   */\n      0x40\n        /* \"#utility.yul\":7324:7377   */\n      tag_208\n        /* \"#utility.yul\":7369:7376   */\n      dup7\n        /* \"#utility.yul\":7360:7366   */\n      dup3\n        /* \"#utility.yul\":7349:7358   */\n      dup8\n        /* \"#utility.yul\":7345:7367   */\n      add\n        /* \"#utility.yul\":7324:7377   */\n      tag_92\n      jump\t// in\n    tag_208:\n        /* \"#utility.yul\":7314:7377   */\n      swap2\n      pop\n        /* \"#utility.yul\":7269:7387   */\n      pop\n        /* \"#utility.yul\":6331:7394   */\n      swap3\n      pop\n      swap3\n      pop\n      swap3\n      jump\t// out\n        /* \"#utility.yul\":7400:7509   */\n    tag_103:\n        /* \"#utility.yul\":7481:7502   */\n      tag_210\n        /* \"#utility.yul\":7496:7501   */\n      dup2\n        /* \"#utility.yul\":7481:7502   */\n      tag_99\n      jump\t// in\n    tag_210:\n        /* \"#utility.yul\":7476:7479   */\n      dup3\n        /* \"#utility.yul\":7469:7503   */\n      mstore\n        /* \"#utility.yul\":7400:7509   */\n      pop\n      pop\n      jump\t// out\n        /* \"#utility.yul\":7515:7725   */\n    tag_12:\n        /* \"#utility.yul\":7602:7606   */\n      0x00\n        /* \"#utility.yul\":7640:7642   */\n      0x20\n        /* \"#utility.yul\":7629:7638   */\n      dup3\n        /* \"#utility.yul\":7625:7643   */\n      add\n        /* \"#utility.yul\":7617:7643   */\n      swap1\n      pop\n        /* \"#utility.yul\":7653:7718   */\n      tag_212\n        /* \"#utility.yul\":7715:7716   */\n      0x00\n        /* \"#utility.yul\":7704:7713   */\n      dup4\n        /* \"#utility.yul\":7700:7717   */\n      add\n        /* \"#utility.yul\":7691:7697   */\n      dup5\n        /* \"#utility.yul\":7653:7718   */\n      tag_103\n      jump\t// in\n    tag_212:\n        /* \"#utility.yul\":7515:7725   */\n      swap3\n      swap2\n      pop\n      pop\n      jump\t// out\n        /* \"#utility.yul\":7731:7835   */\n    tag_104:\n        /* \"#utility.yul\":7776:7783   */\n      0x00\n        /* \"#utility.yul\":7805:7829   */\n      tag_214\n        /* \"#utility.yul\":7823:7828   */\n      dup3\n        /* \"#utility.yul\":7805:7829   */\n      tag_89\n      jump\t// in\n    tag_214:\n        /* \"#utility.yul\":7794:7829   */\n      swap1\n      pop\n        /* \"#utility.yul\":7731:7835   */\n      swap2\n      swap1\n      pop\n      jump\t// out\n        /* \"#utility.yul\":7841:7979   */\n    tag_105:\n        /* \"#utility.yul\":7922:7954   */\n      tag_216\n        /* \"#utility.yul\":7948:7953   */\n      dup2\n        /* \"#utility.yul\":7922:7954   */\n      tag_104\n      jump\t// in\n    tag_216:\n        /* \"#utility.yul\":7915:7920   */\n      dup2\n        /* \"#utility.yul\":7912:7955   */\n      eq\n        /* \"#utility.yul\":7902:7973   */\n      tag_217\n      jumpi\n        /* \"#utility.yul\":7969:7970   */\n      0x00\n        /* \"#utility.yul\":7966:7967   */\n      dup1\n        /* \"#utility.yul\":7959:7971   */\n      revert\n        /* \"#utility.yul\":7902:7973   */\n    tag_217:\n        /* \"#utility.yul\":7841:7979   */\n      pop\n      jump\t// out\n        /* \"#utility.yul\":7985:8140   */\n    tag_106:\n        /* \"#utility.yul\":8039:8044   */\n      0x00\n        /* \"#utility.yul\":8077:8083   */\n      dup2\n        /* \"#utility.yul\":8064:8084   */\n      calldataload\n        /* \"#utility.yul\":8055:8084   */\n      swap1\n      pop\n        /* \"#utility.yul\":8093:8134   */\n      tag_219\n        /* \"#utility.yul\":8128:8133   */\n      dup2\n        /* \"#utility.yul\":8093:8134   */\n      tag_105\n      jump\t// in\n    tag_219:\n        /* \"#utility.yul\":7985:8140   */\n      swap3\n      swap2\n      pop\n      pop\n      jump\t// out\n        /* \"#utility.yul\":8146:8223   */\n    tag_107:\n        /* \"#utility.yul\":8183:8190   */\n      0x00\n        /* \"#utility.yul\":8212:8217   */\n      dup2\n        /* \"#utility.yul\":8201:8217   */\n      swap1\n      pop\n        /* \"#utility.yul\":8146:8223   */\n      swap2\n      swap1\n      pop\n      jump\t// out\n        /* \"#utility.yul\":8229:8351   */\n    tag_108:\n        /* \"#utility.yul\":8302:8326   */\n      tag_222\n        /* \"#utility.yul\":8320:8325   */\n      dup2\n        /* \"#utility.yul\":8302:8326   */\n      tag_107\n      jump\t// in\n    tag_222:\n        /* \"#utility.yul\":8295:8300   */\n      dup2\n        /* \"#utility.yul\":8292:8327   */\n      eq\n        /* \"#utility.yul\":8282:8345   */\n      tag_223\n      jumpi\n        /* \"#utility.yul\":8341:8342   */\n      0x00\n        /* \"#utility.yul\":8338:8339   */\n      dup1\n        /* \"#utility.yul\":8331:8343   */\n      revert\n        /* \"#utility.yul\":8282:8345   */\n    tag_223:\n        /* \"#utility.yul\":8229:8351   */\n      pop\n      jump\t// out\n        /* \"#utility.yul\":8357:8496   */\n    tag_109:\n        /* \"#utility.yul\":8403:8408   */\n      0x00\n        /* \"#utility.yul\":8441:8447   */\n      dup2\n        /* \"#utility.yul\":8428:8448   */\n      calldataload\n        /* \"#utility.yul\":8419:8448   */\n      swap1\n      pop\n        /* \"#utility.yul\":8457:8490   */\n      tag_225\n        /* \"#utility.yul\":8484:8489   */\n      dup2\n        /* \"#utility.yul\":8457:8490   */\n      tag_108\n      jump\t// in\n    tag_225:\n        /* \"#utility.yul\":8357:8496   */\n      swap3\n      swap2\n      pop\n      pop\n      jump\t// out\n        /* \"#utility.yul\":8502:8992   */\n    tag_15:\n        /* \"#utility.yul\":8578:8584   */\n      0x00\n        /* \"#utility.yul\":8586:8592   */\n      dup1\n        /* \"#utility.yul\":8635:8637   */\n      0x40\n        /* \"#utility.yul\":8623:8632   */\n      dup4\n        /* \"#utility.yul\":8614:8621   */\n      dup6\n        /* \"#utility.yul\":8610:8633   */\n      sub\n        /* \"#utility.yul\":8606:8638   */\n      slt\n        /* \"#utility.yul\":8603:8722   */\n      iszero\n      tag_227\n      jumpi\n        /* \"#utility.yul\":8641:8720   */\n      tag_228\n      tag_81\n      jump\t// in\n    tag_228:\n        /* \"#utility.yul\":8603:8722   */\n    tag_227:\n        /* \"#utility.yul\":8761:8762   */\n      0x00\n        /* \"#utility.yul\":8786:8847   */\n      tag_229\n        /* \"#utility.yul\":8839:8846   */\n      dup6\n        /* \"#utility.yul\":8830:8836   */\n      dup3\n        /* \"#utility.yul\":8819:8828   */\n      dup7\n        /* \"#utility.yul\":8815:8837   */\n      add\n        /* \"#utility.yul\":8786:8847   */\n      tag_106\n      jump\t// in\n    tag_229:\n        /* \"#utility.yul\":8776:8847   */\n      swap3\n      pop\n        /* \"#utility.yul\":8732:8857   */\n      pop\n        /* \"#utility.yul\":8896:8898   */\n      0x20\n        /* \"#utility.yul\":8922:8975   */\n      tag_230\n        /* \"#utility.yul\":8967:8974   */\n      dup6\n        /* \"#utility.yul\":8958:8964   */\n      dup3\n        /* \"#utility.yul\":8947:8956   */\n      dup7\n        /* \"#utility.yul\":8943:8965   */\n      add\n        /* \"#utility.yul\":8922:8975   */\n      tag_109\n      jump\t// in\n    tag_230:\n        /* \"#utility.yul\":8912:8975   */\n      swap2\n      pop\n        /* \"#utility.yul\":8867:8985   */\n      pop\n        /* \"#utility.yul\":8502:8992   */\n      swap3\n      pop\n      swap3\n      swap1\n      pop\n      jump\t// out\n        /* \"#utility.yul\":8998:9916   */\n    tag_21:\n        /* \"#utility.yul\":9128:9134   */\n      0x00\n        /* \"#utility.yul\":9136:9142   */\n      dup1\n        /* \"#utility.yul\":9185:9187   */\n      0x40\n        /* \"#utility.yul\":9173:9182   */\n      dup4\n        /* \"#utility.yul\":9164:9171   */\n      dup6\n        /* \"#utility.yul\":9160:9183   */\n      sub\n        /* \"#utility.yul\":9156:9188   */\n      slt\n        /* \"#utility.yul\":9153:9272   */\n      iszero\n      tag_232\n      jumpi\n        /* \"#utility.yul\":9191:9270   */\n      tag_233\n      tag_81\n      jump\t// in\n    tag_233:\n        /* \"#utility.yul\":9153:9272   */\n    tag_232:\n        /* \"#utility.yul\":9339:9340   */\n      0x00\n        /* \"#utility.yul\":9328:9337   */\n      dup4\n        /* \"#utility.yul\":9324:9341   */\n      add\n        /* \"#utility.yul\":9311:9342   */\n      calldataload\n        /* \"#utility.yul\":9369:9387   */\n      0xffffffffffffffff\n        /* \"#utility.yul\":9361:9367   */\n      dup2\n        /* \"#utility.yul\":9358:9388   */\n      gt\n        /* \"#utility.yul\":9355:9472   */\n      iszero\n      tag_234\n      jumpi\n        /* \"#utility.yul\":9391:9470   */\n      tag_235\n      tag_82\n      jump\t// in\n    tag_235:\n        /* \"#utility.yul\":9355:9472   */\n    tag_234:\n        /* \"#utility.yul\":9496:9580   */\n      tag_236\n        /* \"#utility.yul\":9572:9579   */\n      dup6\n        /* \"#utility.yul\":9563:9569   */\n      dup3\n        /* \"#utility.yul\":9552:9561   */\n      dup7\n        /* \"#utility.yul\":9548:9570   */\n      add\n        /* \"#utility.yul\":9496:9580   */\n      tag_102\n      jump\t// in\n    tag_236:\n        /* \"#utility.yul\":9486:9580   */\n      swap3\n      pop\n        /* \"#utility.yul\":9282:9590   */\n      pop\n        /* \"#utility.yul\":9657:9659   */\n      0x20\n        /* \"#utility.yul\":9646:9655   */\n      dup4\n        /* \"#utility.yul\":9642:9660   */\n      add\n        /* \"#utility.yul\":9629:9661   */\n      calldataload\n        /* \"#utility.yul\":9688:9706   */\n      0xffffffffffffffff\n        /* \"#utility.yul\":9680:9686   */\n      dup2\n        /* \"#utility.yul\":9677:9707   */\n      gt\n        /* \"#utility.yul\":9674:9791   */\n      iszero\n      tag_237\n      jumpi\n        /* \"#utility.yul\":9710:9789   */\n      tag_238\n      tag_82\n      jump\t// in\n    tag_238:\n        /* \"#utility.yul\":9674:9791   */\n    tag_237:\n        /* \"#utility.yul\":9815:9899   */\n      tag_239\n        /* \"#utility.yul\":9891:9898   */\n      dup6\n        /* \"#utility.yul\":9882:9888   */\n      dup3\n        /* \"#utility.yul\":9871:9880   */\n      dup7\n        /* \"#utility.yul\":9867:9889   */\n      add\n        /* \"#utility.yul\":9815:9899   */\n      tag_102\n      jump\t// in\n    tag_239:\n        /* \"#utility.yul\":9805:9899   */\n      swap2\n      pop\n        /* \"#utility.yul\":9600:9909   */\n      pop\n        /* \"#utility.yul\":8998:9916   */\n      swap3\n      pop\n      swap3\n      swap1\n      pop\n      jump\t// out\n        /* \"#utility.yul\":9922:10102   */\n    tag_35:\n        /* \"#utility.yul\":9970:10047   */\n      0x4e487b7100000000000000000000000000000000000000000000000000000000\n        /* \"#utility.yul\":9967:9968   */\n      0x00\n        /* \"#utility.yul\":9960:10048   */\n      mstore\n        /* \"#utility.yul\":10067:10071   */\n      0x32\n        /* \"#utility.yul\":10064:10065   */\n      0x04\n        /* \"#utility.yul\":10057:10072   */\n      mstore\n        /* \"#utility.yul\":10091:10095   */\n      0x24\n        /* \"#utility.yul\":10088:10089   */\n      0x00\n        /* \"#utility.yul\":10081:10096   */\n      revert\n        /* \"#utility.yul\":10108:10277   */\n    tag_110:\n        /* \"#utility.yul\":10192:10203   */\n      0x00\n        /* \"#utility.yul\":10226:10232   */\n      dup3\n        /* \"#utility.yul\":10221:10224   */\n      dup3\n        /* \"#utility.yul\":10214:10233   */\n      mstore\n        /* \"#utility.yul\":10266:10270   */\n      0x20\n        /* \"#utility.yul\":10261:10264   */\n      dup3\n        /* \"#utility.yul\":10257:10271   */\n      add\n        /* \"#utility.yul\":10242:10271   */\n      swap1\n      pop\n        /* \"#utility.yul\":10108:10277   */\n      swap3\n      swap2\n      pop\n      pop\n      jump\t// out\n        /* \"#utility.yul\":10283:10450   */\n    tag_111:\n        /* \"#utility.yul\":10423:10442   */\n      0x77616e74656420496e646976696475616c000000000000000000000000000000\n        /* \"#utility.yul\":10419:10420   */\n      0x00\n        /* \"#utility.yul\":10411:10417   */\n      dup3\n        /* \"#utility.yul\":10407:10421   */\n      add\n        /* \"#utility.yul\":10400:10443   */\n      mstore\n        /* \"#utility.yul\":10283:10450   */\n      pop\n      jump\t// out\n        /* \"#utility.yul\":10456:10822   */\n    tag_112:\n        /* \"#utility.yul\":10598:10601   */\n      0x00\n        /* \"#utility.yul\":10619:10686   */\n      tag_244\n        /* \"#utility.yul\":10683:10685   */\n      0x11\n        /* \"#utility.yul\":10678:10681   */\n      dup4\n        /* \"#utility.yul\":10619:10686   */\n      tag_110\n      jump\t// in\n    tag_244:\n        /* \"#utility.yul\":10612:10686   */\n      swap2\n      pop\n        /* \"#utility.yul\":10695:10788   */\n      tag_245\n        /* \"#utility.yul\":10784:10787   */\n      dup3\n        /* \"#utility.yul\":10695:10788   */\n      tag_111\n      jump\t// in\n    tag_245:\n        /* \"#utility.yul\":10813:10815   */\n      0x20\n        /* \"#utility.yul\":10808:10811   */\n      dup3\n        /* \"#utility.yul\":10804:10816   */\n      add\n        /* \"#utility.yul\":10797:10816   */\n      swap1\n      pop\n        /* \"#utility.yul\":10456:10822   */\n      swap2\n      swap1\n      pop\n      jump\t// out\n        /* \"#utility.yul\":10828:10946   */\n    tag_113:\n        /* \"#utility.yul\":10915:10939   */\n      tag_247\n        /* \"#utility.yul\":10933:10938   */\n      dup2\n        /* \"#utility.yul\":10915:10939   */\n      tag_107\n      jump\t// in\n    tag_247:\n        /* \"#utility.yul\":10910:10913   */\n      dup3\n        /* \"#utility.yul\":10903:10940   */\n      mstore\n        /* \"#utility.yul\":10828:10946   */\n      pop\n      pop\n      jump\t// out\n        /* \"#utility.yul\":10952:11481   */\n    tag_43:\n        /* \"#utility.yul\":11146:11150   */\n      0x00\n        /* \"#utility.yul\":11184:11186   */\n      0x40\n        /* \"#utility.yul\":11173:11182   */\n      dup3\n        /* \"#utility.yul\":11169:11187   */\n      add\n        /* \"#utility.yul\":11161:11187   */\n      swap1\n      pop\n        /* \"#utility.yul\":11233:11242   */\n      dup2\n        /* \"#utility.yul\":11227:11231   */\n      dup2\n        /* \"#utility.yul\":11223:11243   */\n      sub\n        /* \"#utility.yul\":11219:11220   */\n      0x00\n        /* \"#utility.yul\":11208:11217   */\n      dup4\n        /* \"#utility.yul\":11204:11221   */\n      add\n        /* \"#utility.yul\":11197:11244   */\n      mstore\n        /* \"#utility.yul\":11261:11392   */\n      tag_249\n        /* \"#utility.yul\":11387:11391   */\n      dup2\n        /* \"#utility.yul\":11261:11392   */\n      tag_112\n      jump\t// in\n    tag_249:\n        /* \"#utility.yul\":11253:11392   */\n      swap1\n      pop\n        /* \"#utility.yul\":11402:11474   */\n      tag_250\n        /* \"#utility.yul\":11470:11472   */\n      0x20\n        /* \"#utility.yul\":11459:11468   */\n      dup4\n        /* \"#utility.yul\":11455:11473   */\n      add\n        /* \"#utility.yul\":11446:11452   */\n      dup5\n        /* \"#utility.yul\":11402:11474   */\n      tag_113\n      jump\t// in\n    tag_250:\n        /* \"#utility.yul\":10952:11481   */\n      swap3\n      swap2\n      pop\n      pop\n      jump\t// out\n        /* \"#utility.yul\":11487:11667   */\n    tag_114:\n        /* \"#utility.yul\":11535:11612   */\n      0x4e487b7100000000000000000000000000000000000000000000000000000000\n        /* \"#utility.yul\":11532:11533   */\n      0x00\n        /* \"#utility.yul\":11525:11613   */\n      mstore\n        /* \"#utility.yul\":11632:11636   */\n      0x11\n        /* \"#utility.yul\":11629:11630   */\n      0x04\n        /* \"#utility.yul\":11622:11637   */\n      mstore\n        /* \"#utility.yul\":11656:11660   */\n      0x24\n        /* \"#utility.yul\":11653:11654   */\n      0x00\n        /* \"#utility.yul\":11646:11661   */\n      revert\n        /* \"#utility.yul\":11673:11906   */\n    tag_45:\n        /* \"#utility.yul\":11712:11715   */\n      0x00\n        /* \"#utility.yul\":11735:11759   */\n      tag_253\n        /* \"#utility.yul\":11753:11758   */\n      dup3\n        /* \"#utility.yul\":11735:11759   */\n      tag_107\n      jump\t// in\n    tag_253:\n        /* \"#utility.yul\":11726:11759   */\n      swap2\n      pop\n        /* \"#utility.yul\":11781:11847   */\n      0xffffffffffffffffffffffffffffffffffffffffffffffffffffffffffffffff\n        /* \"#utility.yul\":11774:11779   */\n      dup3\n        /* \"#utility.yul\":11771:11848   */\n      sub\n        /* \"#utility.yul\":11768:11871   */\n      tag_254\n      jumpi\n        /* \"#utility.yul\":11851:11869   */\n      tag_255\n      tag_114\n      jump\t// in\n    tag_255:\n        /* \"#utility.yul\":11768:11871   */\n    tag_254:\n        /* \"#utility.yul\":11898:11899   */\n      0x01\n        /* \"#utility.yul\":11891:11896   */\n      dup3\n        /* \"#utility.yul\":11887:11900   */\n      add\n        /* \"#utility.yul\":11880:11900   */\n      swap1\n      pop\n        /* \"#utility.yul\":11673:11906   */\n      swap2\n      swap1\n      pop\n      jump\t// out\n        /* \"#utility.yul\":11912:12081   */\n    tag_115:\n        /* \"#utility.yul\":12052:12073   */\n      0x4578636565646564204d617820416d6f756e7400000000000000000000000000\n        /* \"#utility.yul\":12048:12049   */\n      0x00\n        /* \"#utility.yul\":12040:12046   */\n      dup3\n        /* \"#utility.yul\":12036:12050   */\n      add\n        /* \"#utility.yul\":12029:12074   */\n      mstore\n        /* \"#utility.yul\":11912:12081   */\n      pop\n      jump\t// out\n        /* \"#utility.yul\":12087:12453   */\n    tag_116:\n        /* \"#utility.yul\":12229:12232   */\n      0x00\n        /* \"#utility.yul\":12250:12317   */\n      tag_258\n        /* \"#utility.yul\":12314:12316   */\n      0x13\n        /* \"#utility.yul\":12309:12312   */\n      dup4\n        /* \"#utility.yul\":12250:12317   */\n      tag_110\n      jump\t// in\n    tag_258:\n        /* \"#utility.yul\":12243:12317   */\n      swap2\n      pop\n        /* \"#utility.yul\":12326:12419   */\n      tag_259\n        /* \"#utility.yul\":12415:12418   */\n      dup3\n        /* \"#utility.yul\":12326:12419   */\n      tag_115\n      jump\t// in\n    tag_259:\n        /* \"#utility.yul\":12444:12446   */\n      0x20\n        /* \"#utility.yul\":12439:12442   */\n      dup3\n        /* \"#utility.yul\":12435:12447   */\n      add\n        /* \"#utility.yul\":12428:12447   */\n      swap1\n      pop\n        /* \"#utility.yul\":12087:12453   */\n      swap2\n      swap1\n      pop\n      jump\t// out\n        /* \"#utility.yul\":12459:12988   */\n    tag_51:\n        /* \"#utility.yul\":12653:12657   */\n      0x00\n        /* \"#utility.yul\":12691:12693   */\n      0x40\n        /* \"#utility.yul\":12680:12689   */\n      dup3\n        /* \"#utility.yul\":12676:12694   */\n      add\n        /* \"#utility.yul\":12668:12694   */\n      swap1\n      pop\n        /* \"#utility.yul\":12740:12749   */\n      dup2\n        /* \"#utility.yul\":12734:12738   */\n      dup2\n        /* \"#utility.yul\":12730:12750   */\n      sub\n        /* \"#utility.yul\":12726:12727   */\n      0x00\n        /* \"#utility.yul\":12715:12724   */\n      dup4\n        /* \"#utility.yul\":12711:12728   */\n      add\n        /* \"#utility.yul\":12704:12751   */\n      mstore\n        /* \"#utility.yul\":12768:12899   */\n      tag_261\n        /* \"#utility.yul\":12894:12898   */\n      dup2\n        /* \"#utility.yul\":12768:12899   */\n      tag_116\n      jump\t// in\n    tag_261:\n        /* \"#utility.yul\":12760:12899   */\n      swap1\n      pop\n        /* \"#utility.yul\":12909:12981   */\n      tag_262\n        /* \"#utility.yul\":12977:12979   */\n      0x20\n        /* \"#utility.yul\":12966:12975   */\n      dup4\n        /* \"#utility.yul\":12962:12980   */\n      add\n        /* \"#utility.yul\":12953:12959   */\n      dup5\n        /* \"#utility.yul\":12909:12981   */\n      tag_113\n      jump\t// in\n    tag_262:\n        /* \"#utility.yul\":12459:12988   */\n      swap3\n      swap2\n      pop\n      pop\n      jump\t// out\n        /* \"#utility.yul\":12994:13093   */\n    tag_117:\n        /* \"#utility.yul\":13046:13052   */\n      0x00\n        /* \"#utility.yul\":13080:13085   */\n      dup2\n        /* \"#utility.yul\":13074:13086   */\n      mload\n        /* \"#utility.yul\":13064:13086   */\n      swap1\n      pop\n        /* \"#utility.yul\":12994:13093   */\n      swap2\n      swap1\n      pop\n      jump\t// out\n        /* \"#utility.yul\":13099:13247   */\n    tag_118:\n        /* \"#utility.yul\":13201:13212   */\n      0x00\n        /* \"#utility.yul\":13238:13241   */\n      dup2\n        /* \"#utility.yul\":13223:13241   */\n      swap1\n      pop\n        /* \"#utility.yul\":13099:13247   */\n      swap3\n      swap2\n      pop\n      pop\n      jump\t// out\n        /* \"#utility.yul\":13253:13499   */\n    tag_119:\n        /* \"#utility.yul\":13334:13335   */\n      0x00\n        /* \"#utility.yul\":13344:13457   */\n    tag_266:\n        /* \"#utility.yul\":13358:13364   */\n      dup4\n        /* \"#utility.yul\":13355:13356   */\n      dup2\n        /* \"#utility.yul\":13352:13365   */\n      lt\n        /* \"#utility.yul\":13344:13457   */\n      iszero\n      tag_268\n      jumpi\n        /* \"#utility.yul\":13443:13444   */\n      dup1\n        /* \"#utility.yul\":13438:13441   */\n      dup3\n        /* \"#utility.yul\":13434:13445   */\n      add\n        /* \"#utility.yul\":13428:13446   */\n      mload\n        /* \"#utility.yul\":13424:13425   */\n      dup2\n        /* \"#utility.yul\":13419:13422   */\n      dup5\n        /* \"#utility.yul\":13415:13426   */\n      add\n        /* \"#utility.yul\":13408:13447   */\n      mstore\n        /* \"#utility.yul\":13380:13382   */\n      0x20\n        /* \"#utility.yul\":13377:13378   */\n      dup2\n        /* \"#utility.yul\":13373:13383   */\n      add\n        /* \"#utility.yul\":13368:13383   */\n      swap1\n      pop\n        /* \"#utility.yul\":13344:13457   */\n      jump(tag_266)\n    tag_268:\n        /* \"#utility.yul\":13491:13492   */\n      0x00\n        /* \"#utility.yul\":13482:13488   */\n      dup5\n        /* \"#utility.yul\":13477:13480   */\n      dup5\n        /* \"#utility.yul\":13473:13489   */\n      add\n        /* \"#utility.yul\":13466:13493   */\n      mstore\n        /* \"#utility.yul\":13315:13499   */\n      pop\n        /* \"#utility.yul\":13253:13499   */\n      pop\n      pop\n      pop\n      jump\t// out\n        /* \"#utility.yul\":13505:13895   */\n    tag_120:\n        /* \"#utility.yul\":13611:13614   */\n      0x00\n        /* \"#utility.yul\":13639:13678   */\n      tag_270\n        /* \"#utility.yul\":13672:13677   */\n      dup3\n        /* \"#utility.yul\":13639:13678   */\n      tag_117\n      jump\t// in\n    tag_270:\n        /* \"#utility.yul\":13694:13783   */\n      tag_271\n        /* \"#utility.yul\":13776:13782   */\n      dup2\n        /* \"#utility.yul\":13771:13774   */\n      dup6\n        /* \"#utility.yul\":13694:13783   */\n      tag_118\n      jump\t// in\n    tag_271:\n        /* \"#utility.yul\":13687:13783   */\n      swap4\n      pop\n        /* \"#utility.yul\":13792:13857   */\n      tag_272\n        /* \"#utility.yul\":13850:13856   */\n      dup2\n        /* \"#utility.yul\":13845:13848   */\n      dup6\n        /* \"#utility.yul\":13838:13842   */\n      0x20\n        /* \"#utility.yul\":13831:13836   */\n      dup7\n        /* \"#utility.yul\":13827:13843   */\n      add\n        /* \"#utility.yul\":13792:13857   */\n      tag_119\n      jump\t// in\n    tag_272:\n        /* \"#utility.yul\":13882:13888   */\n      dup1\n        /* \"#utility.yul\":13877:13880   */\n      dup5\n        /* \"#utility.yul\":13873:13889   */\n      add\n        /* \"#utility.yul\":13866:13889   */\n      swap2\n      pop\n        /* \"#utility.yul\":13615:13895   */\n      pop\n        /* \"#utility.yul\":13505:13895   */\n      swap3\n      swap2\n      pop\n      pop\n      jump\t// out\n        /* \"#utility.yul\":13901:14176   */\n    tag_59:\n        /* \"#utility.yul\":14033:14036   */\n      0x00\n        /* \"#utility.yul\":14055:14150   */\n      tag_274\n        /* \"#utility.yul\":14146:14149   */\n      dup3\n        /* \"#utility.yul\":14137:14143   */\n      dup5\n        /* \"#utility.yul\":14055:14150   */\n      tag_120\n      jump\t// in\n    tag_274:\n        /* \"#utility.yul\":14048:14150   */\n      swap2\n      pop\n        /* \"#utility.yul\":14167:14170   */\n      dup2\n        /* \"#utility.yul\":14160:14170   */\n      swap1\n      pop\n        /* \"#utility.yul\":13901:14176   */\n      swap3\n      swap2\n      pop\n      pop\n      jump\t// out\n        /* \"#utility.yul\":14182:14362   */\n    tag_121:\n        /* \"#utility.yul\":14230:14307   */\n      0x4e487b7100000000000000000000000000000000000000000000000000000000\n        /* \"#utility.yul\":14227:14228   */\n      0x00\n        /* \"#utility.yul\":14220:14308   */\n      mstore\n        /* \"#utility.yul\":14327:14331   */\n      0x22\n        /* \"#utility.yul\":14324:14325   */\n      0x04\n        /* \"#utility.yul\":14317:14332   */\n      mstore\n        /* \"#utility.yul\":14351:14355   */\n      0x24\n        /* \"#utility.yul\":14348:14349   */\n      0x00\n        /* \"#utility.yul\":14341:14356   */\n      revert\n        /* \"#utility.yul\":14368:14688   */\n    tag_122:\n        /* \"#utility.yul\":14412:14418   */\n      0x00\n        /* \"#utility.yul\":14449:14450   */\n      0x02\n        /* \"#utility.yul\":14443:14447   */\n      dup3\n        /* \"#utility.yul\":14439:14451   */\n      div\n        /* \"#utility.yul\":14429:14451   */\n      swap1\n      pop\n        /* \"#utility.yul\":14496:14497   */\n      0x01\n        /* \"#utility.yul\":14490:14494   */\n      dup3\n        /* \"#utility.yul\":14486:14498   */\n      and\n        /* \"#utility.yul\":14517:14535   */\n      dup1\n        /* \"#utility.yul\":14507:14588   */\n      tag_277\n      jumpi\n        /* \"#utility.yul\":14573:14577   */\n      0x7f\n        /* \"#utility.yul\":14565:14571   */\n      dup3\n        /* \"#utility.yul\":14561:14578   */\n      and\n        /* \"#utility.yul\":14551:14578   */\n      swap2\n      pop\n        /* \"#utility.yul\":14507:14588   */\n    tag_277:\n        /* \"#utility.yul\":14635:14637   */\n      0x20\n        /* \"#utility.yul\":14627:14633   */\n      dup3\n        /* \"#utility.yul\":14624:14638   */\n      lt\n        /* \"#utility.yul\":14604:14622   */\n      dup2\n        /* \"#utility.yul\":14601:14639   */\n      sub\n        /* \"#utility.yul\":14598:14682   */\n      tag_278\n      jumpi\n        /* \"#utility.yul\":14654:14672   */\n      tag_279\n      tag_121\n      jump\t// in\n    tag_279:\n        /* \"#utility.yul\":14598:14682   */\n    tag_278:\n        /* \"#utility.yul\":14419:14688   */\n      pop\n        /* \"#utility.yul\":14368:14688   */\n      swap2\n      swap1\n      pop\n      jump\t// out\n        /* \"#utility.yul\":14694:14835   */\n    tag_123:\n        /* \"#utility.yul\":14743:14747   */\n      0x00\n        /* \"#utility.yul\":14766:14769   */\n      dup2\n        /* \"#utility.yul\":14758:14769   */\n      swap1\n      pop\n        /* \"#utility.yul\":14789:14792   */\n      dup2\n        /* \"#utility.yul\":14786:14787   */\n      0x00\n        /* \"#utility.yul\":14779:14793   */\n      mstore\n        /* \"#utility.yul\":14823:14827   */\n      0x20\n        /* \"#utility.yul\":14820:14821   */\n      0x00\n        /* \"#utility.yul\":14810:14828   */\n      keccak256\n        /* \"#utility.yul\":14802:14828   */\n      swap1\n      pop\n        /* \"#utility.yul\":14694:14835   */\n      swap2\n      swap1\n      pop\n      jump\t// out\n        /* \"#utility.yul\":14865:15739   */\n    tag_124:\n        /* \"#utility.yul\":14968:14971   */\n      0x00\n        /* \"#utility.yul\":15005:15010   */\n      dup2\n        /* \"#utility.yul\":14999:15011   */\n      sload\n        /* \"#utility.yul\":15034:15070   */\n      tag_282\n        /* \"#utility.yul\":15060:15069   */\n      dup2\n        /* \"#utility.yul\":15034:15070   */\n      tag_122\n      jump\t// in\n    tag_282:\n        /* \"#utility.yul\":15086:15175   */\n      tag_283\n        /* \"#utility.yul\":15168:15174   */\n      dup2\n        /* \"#utility.yul\":15163:15166   */\n      dup7\n        /* \"#utility.yul\":15086:15175   */\n      tag_118\n      jump\t// in\n    tag_283:\n        /* \"#utility.yul\":15079:15175   */\n      swap5\n      pop\n        /* \"#utility.yul\":15206:15207   */\n      0x01\n        /* \"#utility.yul\":15195:15204   */\n      dup3\n        /* \"#utility.yul\":15191:15208   */\n      and\n        /* \"#utility.yul\":15222:15223   */\n      0x00\n        /* \"#utility.yul\":15217:15383   */\n      dup2\n      eq\n      tag_285\n      jumpi\n        /* \"#utility.yul\":15397:15398   */\n      0x01\n        /* \"#utility.yul\":15392:15733   */\n      dup2\n      eq\n      tag_286\n      jumpi\n        /* \"#utility.yul\":15184:15733   */\n      jump(tag_284)\n        /* \"#utility.yul\":15217:15383   */\n    tag_285:\n        /* \"#utility.yul\":15301:15305   */\n      0xff\n        /* \"#utility.yul\":15297:15306   */\n      not\n        /* \"#utility.yul\":15286:15295   */\n      dup4\n        /* \"#utility.yul\":15282:15307   */\n      and\n        /* \"#utility.yul\":15277:15280   */\n      dup7\n        /* \"#utility.yul\":15270:15308   */\n      mstore\n        /* \"#utility.yul\":15363:15369   */\n      dup2\n        /* \"#utility.yul\":15356:15370   */\n      iszero\n        /* \"#utility.yul\":15349:15371   */\n      iszero\n        /* \"#utility.yul\":15341:15347   */\n      dup3\n        /* \"#utility.yul\":15337:15372   */\n      mul\n        /* \"#utility.yul\":15332:15335   */\n      dup7\n        /* \"#utility.yul\":15328:15373   */\n      add\n        /* \"#utility.yul\":15321:15373   */\n      swap4\n      pop\n        /* \"#utility.yul\":15217:15383   */\n      jump(tag_284)\n        /* \"#utility.yul\":15392:15733   */\n    tag_286:\n        /* \"#utility.yul\":15459:15497   */\n      tag_287\n        /* \"#utility.yul\":15491:15496   */\n      dup6\n        /* \"#utility.yul\":15459:15497   */\n      tag_123\n      jump\t// in\n    tag_287:\n        /* \"#utility.yul\":15519:15520   */\n      0x00\n        /* \"#utility.yul\":15533:15687   */\n    tag_288:\n        /* \"#utility.yul\":15547:15553   */\n      dup4\n        /* \"#utility.yul\":15544:15545   */\n      dup2\n        /* \"#utility.yul\":15541:15554   */\n      lt\n        /* \"#utility.yul\":15533:15687   */\n      iszero\n      tag_290\n      jumpi\n        /* \"#utility.yul\":15621:15628   */\n      dup2\n        /* \"#utility.yul\":15615:15629   */\n      sload\n        /* \"#utility.yul\":15611:15612   */\n      dup2\n        /* \"#utility.yul\":15606:15609   */\n      dup10\n        /* \"#utility.yul\":15602:15613   */\n      add\n        /* \"#utility.yul\":15595:15630   */\n      mstore\n        /* \"#utility.yul\":15671:15672   */\n      0x01\n        /* \"#utility.yul\":15662:15669   */\n      dup3\n        /* \"#utility.yul\":15658:15673   */\n      add\n        /* \"#utility.yul\":15647:15673   */\n      swap2\n      pop\n        /* \"#utility.yul\":15569:15573   */\n      0x20\n        /* \"#utility.yul\":15566:15567   */\n      dup2\n        /* \"#utility.yul\":15562:15574   */\n      add\n        /* \"#utility.yul\":15557:15574   */\n      swap1\n      pop\n        /* \"#utility.yul\":15533:15687   */\n      jump(tag_288)\n    tag_290:\n        /* \"#utility.yul\":15716:15722   */\n      dup4\n        /* \"#utility.yul\":15711:15714   */\n      dup9\n        /* \"#utility.yul\":15707:15723   */\n      add\n        /* \"#utility.yul\":15700:15723   */\n      swap6\n      pop\n        /* \"#utility.yul\":15399:15733   */\n      pop\n      pop\n        /* \"#utility.yul\":15184:15733   */\n    tag_284:\n      pop\n        /* \"#utility.yul\":14972:15739   */\n      pop\n      pop\n        /* \"#utility.yul\":14865:15739   */\n      swap3\n      swap2\n      pop\n      pop\n      jump\t// out\n        /* \"#utility.yul\":15745:16014   */\n    tag_64:\n        /* \"#utility.yul\":15874:15877   */\n      0x00\n        /* \"#utility.yul\":15896:15988   */\n      tag_292\n        /* \"#utility.yul\":15984:15987   */\n      dup3\n        /* \"#utility.yul\":15975:15981   */\n      dup5\n        /* \"#utility.yul\":15896:15988   */\n      tag_124\n      jump\t// in\n    tag_292:\n        /* \"#utility.yul\":15889:15988   */\n      swap2\n      pop\n        /* \"#utility.yul\":16005:16008   */\n      dup2\n        /* \"#utility.yul\":15998:16008   */\n      swap1\n      pop\n        /* \"#utility.yul\":15745:16014   */\n      swap3\n      swap2\n      pop\n      pop\n      jump\t// out\n        /* \"#utility.yul\":16020:16248   */\n    tag_125:\n        /* \"#utility.yul\":16160:16194   */\n      0x557365722773204e6174696f6e616c69747920697320696e2062616e6e656420\n        /* \"#utility.yul\":16156:16157   */\n      0x00\n        /* \"#utility.yul\":16148:16154   */\n      dup3\n        /* \"#utility.yul\":16144:16158   */\n      add\n        /* \"#utility.yul\":16137:16195   */\n      mstore\n        /* \"#utility.yul\":16229:16240   */\n      0x636f756e74726965730000000000000000000000000000000000000000000000\n        /* \"#utility.yul\":16224:16226   */\n      0x20\n        /* \"#utility.yul\":16216:16222   */\n      dup3\n        /* \"#utility.yul\":16212:16227   */\n      add\n        /* \"#utility.yul\":16205:16241   */\n      mstore\n        /* \"#utility.yul\":16020:16248   */\n      pop\n      jump\t// out\n        /* \"#utility.yul\":16254:16620   */\n    tag_126:\n        /* \"#utility.yul\":16396:16399   */\n      0x00\n        /* \"#utility.yul\":16417:16484   */\n      tag_295\n        /* \"#utility.yul\":16481:16483   */\n      0x29\n        /* \"#utility.yul\":16476:16479   */\n      dup4\n        /* \"#utility.yul\":16417:16484   */\n      tag_110\n      jump\t// in\n    tag_295:\n        /* \"#utility.yul\":16410:16484   */\n      swap2\n      pop\n        /* \"#utility.yul\":16493:16586   */\n      tag_296\n        /* \"#utility.yul\":16582:16585   */\n      dup3\n        /* \"#utility.yul\":16493:16586   */\n      tag_125\n      jump\t// in\n    tag_296:\n        /* \"#utility.yul\":16611:16613   */\n      0x40\n        /* \"#utility.yul\":16606:16609   */\n      dup3\n        /* \"#utility.yul\":16602:16614   */\n      add\n        /* \"#utility.yul\":16595:16614   */\n      swap1\n      pop\n        /* \"#utility.yul\":16254:16620   */\n      swap2\n      swap1\n      pop\n      jump\t// out\n        /* \"#utility.yul\":16626:17155   */\n    tag_73:\n        /* \"#utility.yul\":16820:16824   */\n      0x00\n        /* \"#utility.yul\":16858:16860   */\n      0x40\n        /* \"#utility.yul\":16847:16856   */\n      dup3\n        /* \"#utility.yul\":16843:16861   */\n      add\n        /* \"#utility.yul\":16835:16861   */\n      swap1\n      pop\n        /* \"#utility.yul\":16907:16916   */\n      dup2\n        /* \"#utility.yul\":16901:16905   */\n      dup2\n        /* \"#utility.yul\":16897:16917   */\n      sub\n        /* \"#utility.yul\":16893:16894   */\n      0x00\n        /* \"#utility.yul\":16882:16891   */\n      dup4\n        /* \"#utility.yul\":16878:16895   */\n      add\n        /* \"#utility.yul\":16871:16918   */\n      mstore\n        /* \"#utility.yul\":16935:17066   */\n      tag_298\n        /* \"#utility.yul\":17061:17065   */\n      dup2\n        /* \"#utility.yul\":16935:17066   */\n      tag_126\n      jump\t// in\n    tag_298:\n        /* \"#utility.yul\":16927:17066   */\n      swap1\n      pop\n        /* \"#utility.yul\":17076:17148   */\n      tag_299\n        /* \"#utility.yul\":17144:17146   */\n      0x20\n        /* \"#utility.yul\":17133:17142   */\n      dup4\n        /* \"#utility.yul\":17129:17147   */\n      add\n        /* \"#utility.yul\":17120:17126   */\n      dup5\n        /* \"#utility.yul\":17076:17148   */\n      tag_113\n      jump\t// in\n    tag_299:\n        /* \"#utility.yul\":16626:17155   */\n      swap3\n      swap2\n      pop\n      pop\n      jump\t// out\n        /* \"#utility.yul\":17161:17338   */\n    tag_127:\n        /* \"#utility.yul\":17301:17330   */\n      0x5573657220697320706f6c69746963616c6c79206578706f7365640000000000\n        /* \"#utility.yul\":17297:17298   */\n      0x00\n        /* \"#utility.yul\":17289:17295   */\n      dup3\n        /* \"#utility.yul\":17285:17299   */\n      add\n        /* \"#utility.yul\":17278:17331   */\n      mstore\n        /* \"#utility.yul\":17161:17338   */\n      pop\n      jump\t// out\n        /* \"#utility.yul\":17344:17710   */\n    tag_128:\n        /* \"#utility.yul\":17486:17489   */\n      0x00\n        /* \"#utility.yul\":17507:17574   */\n      tag_302\n        /* \"#utility.yul\":17571:17573   */\n      0x1b\n        /* \"#utility.yul\":17566:17569   */\n      dup4\n        /* \"#utility.yul\":17507:17574   */\n      tag_110\n      jump\t// in\n    tag_302:\n        /* \"#utility.yul\":17500:17574   */\n      swap2\n      pop\n        /* \"#utility.yul\":17583:17676   */\n      tag_303\n        /* \"#utility.yul\":17672:17675   */\n      dup3\n        /* \"#utility.yul\":17583:17676   */\n      tag_127\n      jump\t// in\n    tag_303:\n        /* \"#utility.yul\":17701:17703   */\n      0x20\n        /* \"#utility.yul\":17696:17699   */\n      dup3\n        /* \"#utility.yul\":17692:17704   */\n      add\n        /* \"#utility.yul\":17685:17704   */\n      swap1\n      pop\n        /* \"#utility.yul\":17344:17710   */\n      swap2\n      swap1\n      pop\n      jump\t// out\n        /* \"#utility.yul\":17716:18245   */\n    tag_79:\n        /* \"#utility.yul\":17910:17914   */\n      0x00\n        /* \"#utility.yul\":17948:17950   */\n      0x40\n        /* \"#utility.yul\":17937:17946   */\n      dup3\n        /* \"#utility.yul\":17933:17951   */\n      add\n        /* \"#utility.yul\":17925:17951   */\n      swap1\n      pop\n        /* \"#utility.yul\":17997:18006   */\n      dup2\n        /* \"#utility.yul\":17991:17995   */\n      dup2\n        /* \"#utility.yul\":17987:18007   */\n      sub\n        /* \"#utility.yul\":17983:17984   */\n      0x00\n        /* \"#utility.yul\":17972:17981   */\n      dup4\n        /* \"#utility.yul\":17968:17985   */\n      add\n        /* \"#utility.yul\":17961:18008   */\n      mstore\n        /* \"#utility.yul\":18025:18156   */\n      tag_305\n        /* \"#utility.yul\":18151:18155   */\n      dup2\n        /* \"#utility.yul\":18025:18156   */\n      tag_128\n      jump\t// in\n    tag_305:\n        /* \"#utility.yul\":18017:18156   */\n      swap1\n      pop\n        /* \"#utility.yul\":18166:18238   */\n      tag_306\n        /* \"#utility.yul\":18234:18236   */\n      0x20\n        /* \"#utility.yul\":18223:18232   */\n      dup4\n        /* \"#utility.yul\":18219:18237   */\n      add\n        /* \"#utility.yul\":18210:18216   */\n      dup5\n        /* \"#utility.yul\":18166:18238   */\n      tag_113\n      jump\t// in\n    tag_306:\n        /* \"#utility.yul\":17716:18245   */\n      swap3\n      swap2\n      pop\n      pop\n      jump\t// out\n\n    auxdata: 0xa2646970667358221220ea9bf0630e7606bb971c56a15fcd1a5ff9871d748a19a15198ac4cdb28cffb5d64736f6c63430008110033\n}\n",
				"bytecode": {
					"linkReferences": {},
					"object": "608060405260405180608001604052806040518060400160405280600481526020017f4972616e0000000000000000000000000000000000000000000000000000000081525081526020016040518060400160405280600a81526020017f416667616e697374616e0000000000000000000000000000000000000000000081525081526020016040518060400160405280600c81526020017f5475726b6d656e697374616e000000000000000000000000000000000000000081525081526020016040518060400160405280600a81526020017f4b797267797a7374616e0000000000000000000000000000000000000000000081525081525060009060046200010b92919062000187565b5060405180602001604052807372a4bbe493fc0a724460c9940ee6fae5f9209d6173ffffffffffffffffffffffffffffffffffffffff1673ffffffffffffffffffffffffffffffffffffffff1681525060019060016200016d929190620001e7565b5060286002553480156200018057600080fd5b5062000664565b828054828255906000526020600020908101928215620001d4579160200282015b82811115620001d3578251829081620001c291906200057d565b5091602001919060010190620001a8565b5b509050620001e3919062000276565b5090565b82805482825590600052602060002090810192821562000263579160200282015b82811115620002625782518260006101000a81548173ffffffffffffffffffffffffffffffffffffffff021916908373ffffffffffffffffffffffffffffffffffffffff1602179055509160200191906001019062000208565b5b5090506200027291906200029e565b5090565b5b808211156200029a5760008181620002909190620002bd565b5060010162000277565b5090565b5b80821115620002b95760008160009055506001016200029f565b5090565b508054620002cb906200036c565b6000825580601f10620002df575062000300565b601f016020900490600052602060002090810190620002ff91906200029e565b5b50565b600081519050919050565b7f4e487b7100000000000000000000000000000000000000000000000000000000600052604160045260246000fd5b7f4e487b7100000000000000000000000000000000000000000000000000000000600052602260045260246000fd5b600060028204905060018216806200038557607f821691505b6020821081036200039b576200039a6200033d565b5b50919050565b60008190508160005260206000209050919050565b60006020601f8301049050919050565b600082821b905092915050565b600060088302620004057fffffffffffffffffffffffffffffffffffffffffffffffffffffffffffffffff82620003c6565b620004118683620003c6565b95508019841693508086168417925050509392505050565b6000819050919050565b6000819050919050565b60006200045e62000458620004528462000429565b62000433565b62000429565b9050919050565b6000819050919050565b6200047a836200043d565b62000492620004898262000465565b848454620003d3565b825550505050565b600090565b620004a96200049a565b620004b68184846200046f565b505050565b5b81811015620004de57620004d26000826200049f565b600181019050620004bc565b5050565b601f8211156200052d57620004f781620003a1565b6200050284620003b6565b8101602085101562000512578190505b6200052a6200052185620003b6565b830182620004bb565b50505b505050565b600082821c905092915050565b6000620005526000198460080262000532565b1980831691505092915050565b60006200056d83836200053f565b9150826002028217905092915050565b620005888262000303565b67ffffffffffffffff811115620005a457620005a36200030e565b5b620005b082546200036c565b620005bd828285620004e2565b600060209050601f831160018114620005f55760008415620005e0578287015190505b620005ec85826200055f565b8655506200065c565b601f1984166200060586620003a1565b60005b828110156200062f5784890151825560018201915060208501945060208101905062000608565b868310156200064f57848901516200064b601f8916826200053f565b8355505b6001600288020188555050505b505050505050565b610f2680620006746000396000f3fe60806040526004361061003f5760003560e01c80634eb5f24714610044578063bd79929514610081578063dd0ae4d6146100b1578063f9e26ef6146100ee575b600080fd5b34801561005057600080fd5b5061006b600480360381019061006691906108a4565b61012b565b604051610078919061093e565b60405180910390f35b61009b600480360381019061009691906109cd565b61028f565b6040516100a8919061093e565b60405180910390f35b3480156100bd57600080fd5b506100d860048036038101906100d39190610a0d565b610374565b6040516100e5919061093e565b60405180910390f35b3480156100fa57600080fd5b5061011560048036038101906101109190610a0d565b6104d5565b604051610122919061093e565b60405180910390f35b600080600090505b60018054905081101561028257846000015173ffffffffffffffffffffffffffffffffffffffff166001828154811061016f5761016e610a85565b5b9060005260206000200160009054906101000a900473ffffffffffffffffffffffffffffffffffffffff1673ffffffffffffffffffffffffffffffffffffffff1614806102295750836000015173ffffffffffffffffffffffffffffffffffffffff16600182815481106101e6576101e5610a85565b5b9060005260206000200160009054906101000a900473ffffffffffffffffffffffffffffffffffffffff1673ffffffffffffffffffffffffffffffffffffffff16145b1561026f577f3eb7b4618223a419acf4654a8ccab76f089242b23c05eb5ca310e68779589f134260405161025d9190610b20565b60405180910390a16001915050610288565b808061027a90610b7d565b915050610133565b50600090505b9392505050565b6000600254821115610322578273ffffffffffffffffffffffffffffffffffffffff166108fc839081150290604051600060405180830381858888f193505050501580156102e1573d6000803e3d6000fd5b507f695633452b1d0063d6f5ae521db19faef8382a4f1d9896180fed154ab1f54c25426040516103119190610c11565b60405180910390a16001905061036e565b8273ffffffffffffffffffffffffffffffffffffffff166108fc839081150290604051600060405180830381858888f19350505050158015610368573d6000803e3d6000fd5b50600090505b92915050565b600080600090505b6000805490508110156104c9578360c0015160405160200161039e9190610cb0565b60405160208183030381529060405280519060200120600082815481106103c8576103c7610a85565b5b906000526020600020016040516020016103e29190610dbf565b60405160208183030381529060405280519060200120148061047057508260c001516040516020016104149190610cb0565b604051602081830303815290604052805190602001206000828154811061043e5761043d610a85565b5b906000526020600020016040516020016104589190610dbf565b60405160208183030381529060405280519060200120145b156104b6577f51d9a94b04f50acc666f49c396523e970bfb47916f94955849977c62fc0e8e0b426040516104a49190610e48565b60405180910390a160019150506104cf565b80806104c190610b7d565b91505061037c565b50600090505b92915050565b60008260e00151806104e857508160e001515b1561052d577f6f0574c43ca8dc8a1e98aa228b41dd7b659ec8f259189f8bfa33ed065dd30df94260405161051c9190610ec2565b60405180910390a160019050610532565b600090505b92915050565b6000604051905090565b600080fd5b600080fd5b600080fd5b6000601f19601f8301169050919050565b7f4e487b7100000000000000000000000000000000000000000000000000000000600052604160045260246000fd5b61059a82610551565b810181811067ffffffffffffffff821117156105b9576105b8610562565b5b80604052505050565b60006105cc610538565b90506105d88282610591565b919050565b600080fd5b600073ffffffffffffffffffffffffffffffffffffffff82169050919050565b600061060d826105e2565b9050919050565b61061d81610602565b811461062857600080fd5b50565b60008135905061063a81610614565b92915050565b600080fd5b600080fd5b600067ffffffffffffffff82111561066557610664610562565b5b61066e82610551565b9050602081019050919050565b82818337600083830152505050565b600061069d6106988461064a565b6105c2565b9050828152602081018484840111156106b9576106b8610645565b5b6106c484828561067b565b509392505050565b600082601f8301126106e1576106e0610640565b5b81356106f184826020860161068a565b91505092915050565b60008115159050919050565b61070f816106fa565b811461071a57600080fd5b50565b60008135905061072c81610706565b92915050565b600061010082840312156107495761074861054c565b5b6107546101006105c2565b905060006107648482850161062b565b600083015250602082013567ffffffffffffffff811115610788576107876105dd565b5b610794848285016106cc565b602083015250604082013567ffffffffffffffff8111156107b8576107b76105dd565b5b6107c4848285016106cc565b604083015250606082013567ffffffffffffffff8111156107e8576107e76105dd565b5b6107f4848285016106cc565b606083015250608082013567ffffffffffffffff811115610818576108176105dd565b5b610824848285016106cc565b60808301525060a082013567ffffffffffffffff811115610848576108476105dd565b5b610854848285016106cc565b60a08301525060c082013567ffffffffffffffff811115610878576108776105dd565b5b610884848285016106cc565b60c08301525060e06108988482850161071d565b60e08301525092915050565b6000806000606084860312156108bd576108bc610542565b5b600084013567ffffffffffffffff8111156108db576108da610547565b5b6108e786828701610732565b935050602084013567ffffffffffffffff81111561090857610907610547565b5b61091486828701610732565b92505060406109258682870161062b565b9150509250925092565b610938816106fa565b82525050565b6000602082019050610953600083018461092f565b92915050565b6000610964826105e2565b9050919050565b61097481610959565b811461097f57600080fd5b50565b6000813590506109918161096b565b92915050565b6000819050919050565b6109aa81610997565b81146109b557600080fd5b50565b6000813590506109c7816109a1565b92915050565b600080604083850312156109e4576109e3610542565b5b60006109f285828601610982565b9250506020610a03858286016109b8565b9150509250929050565b60008060408385031215610a2457610a23610542565b5b600083013567ffffffffffffffff811115610a4257610a41610547565b5b610a4e85828601610732565b925050602083013567ffffffffffffffff811115610a6f57610a6e610547565b5b610a7b85828601610732565b9150509250929050565b7f4e487b7100000000000000000000000000000000000000000000000000000000600052603260045260246000fd5b600082825260208201905092915050565b7f77616e74656420496e646976696475616c000000000000000000000000000000600082015250565b6000610afb601183610ab4565b9150610b0682610ac5565b602082019050919050565b610b1a81610997565b82525050565b60006040820190508181036000830152610b3981610aee565b9050610b486020830184610b11565b92915050565b7f4e487b7100000000000000000000000000000000000000000000000000000000600052601160045260246000fd5b6000610b8882610997565b91507fffffffffffffffffffffffffffffffffffffffffffffffffffffffffffffffff8203610bba57610bb9610b4e565b5b600182019050919050565b7f4578636565646564204d617820416d6f756e7400000000000000000000000000600082015250565b6000610bfb601383610ab4565b9150610c0682610bc5565b602082019050919050565b60006040820190508181036000830152610c2a81610bee565b9050610c396020830184610b11565b92915050565b600081519050919050565b600081905092915050565b60005b83811015610c73578082015181840152602081019050610c58565b60008484015250505050565b6000610c8a82610c3f565b610c948185610c4a565b9350610ca4818560208601610c55565b80840191505092915050565b6000610cbc8284610c7f565b915081905092915050565b7f4e487b7100000000000000000000000000000000000000000000000000000000600052602260045260246000fd5b60006002820490506001821680610d0e57607f821691505b602082108103610d2157610d20610cc7565b5b50919050565b60008190508160005260206000209050919050565b60008154610d4981610cf6565b610d538186610c4a565b94506001821660008114610d6e5760018114610d8357610db6565b60ff1983168652811515820286019350610db6565b610d8c85610d27565b60005b83811015610dae57815481890152600182019150602081019050610d8f565b838801955050505b50505092915050565b6000610dcb8284610d3c565b915081905092915050565b7f557365722773204e6174696f6e616c69747920697320696e2062616e6e65642060008201527f636f756e74726965730000000000000000000000000000000000000000000000602082015250565b6000610e32602983610ab4565b9150610e3d82610dd6565b604082019050919050565b60006040820190508181036000830152610e6181610e25565b9050610e706020830184610b11565b92915050565b7f5573657220697320706f6c69746963616c6c79206578706f7365640000000000600082015250565b6000610eac601b83610ab4565b9150610eb782610e76565b602082019050919050565b60006040820190508181036000830152610edb81610e9f565b9050610eea6020830184610b11565b9291505056fea2646970667358221220ea9bf0630e7606bb971c56a15fcd1a5ff9871d748a19a15198ac4cdb28cffb5d64736f6c63430008110033",
					"opcodes": "PUSH1 0x80 PUSH1 0x40 MSTORE PUSH1 0x40 MLOAD DUP1 PUSH1 0x80 ADD PUSH1 0x40 MSTORE DUP1 PUSH1 0x40 MLOAD DUP1 PUSH1 0x40 ADD PUSH1 0x40 MSTORE DUP1 PUSH1 0x4 DUP2 MSTORE PUSH1 0x20 ADD PUSH32 0x4972616E00000000000000000000000000000000000000000000000000000000 DUP2 MSTORE POP DUP2 MSTORE PUSH1 0x20 ADD PUSH1 0x40 MLOAD DUP1 PUSH1 0x40 ADD PUSH1 0x40 MSTORE DUP1 PUSH1 0xA DUP2 MSTORE PUSH1 0x20 ADD PUSH32 0x416667616E697374616E00000000000000000000000000000000000000000000 DUP2 MSTORE POP DUP2 MSTORE PUSH1 0x20 ADD PUSH1 0x40 MLOAD DUP1 PUSH1 0x40 ADD PUSH1 0x40 MSTORE DUP1 PUSH1 0xC DUP2 MSTORE PUSH1 0x20 ADD PUSH32 0x5475726B6D656E697374616E0000000000000000000000000000000000000000 DUP2 MSTORE POP DUP2 MSTORE PUSH1 0x20 ADD PUSH1 0x40 MLOAD DUP1 PUSH1 0x40 ADD PUSH1 0x40 MSTORE DUP1 PUSH1 0xA DUP2 MSTORE PUSH1 0x20 ADD PUSH32 0x4B797267797A7374616E00000000000000000000000000000000000000000000 DUP2 MSTORE POP DUP2 MSTORE POP PUSH1 0x0 SWAP1 PUSH1 0x4 PUSH3 0x10B SWAP3 SWAP2 SWAP1 PUSH3 0x187 JUMP JUMPDEST POP PUSH1 0x40 MLOAD DUP1 PUSH1 0x20 ADD PUSH1 0x40 MSTORE DUP1 PUSH20 0x72A4BBE493FC0A724460C9940EE6FAE5F9209D61 PUSH20 0xFFFFFFFFFFFFFFFFFFFFFFFFFFFFFFFFFFFFFFFF AND PUSH20 0xFFFFFFFFFFFFFFFFFFFFFFFFFFFFFFFFFFFFFFFF AND DUP2 MSTORE POP PUSH1 0x1 SWAP1 PUSH1 0x1 PUSH3 0x16D SWAP3 SWAP2 SWAP1 PUSH3 0x1E7 JUMP JUMPDEST POP PUSH1 0x28 PUSH1 0x2 SSTORE CALLVALUE DUP1 ISZERO PUSH3 0x180 JUMPI PUSH1 0x0 DUP1 REVERT JUMPDEST POP PUSH3 0x664 JUMP JUMPDEST DUP3 DUP1 SLOAD DUP3 DUP3 SSTORE SWAP1 PUSH1 0x0 MSTORE PUSH1 0x20 PUSH1 0x0 KECCAK256 SWAP1 DUP2 ADD SWAP3 DUP3 ISZERO PUSH3 0x1D4 JUMPI SWAP2 PUSH1 0x20 MUL DUP3 ADD JUMPDEST DUP3 DUP2 GT ISZERO PUSH3 0x1D3 JUMPI DUP3 MLOAD DUP3 SWAP1 DUP2 PUSH3 0x1C2 SWAP2 SWAP1 PUSH3 0x57D JUMP JUMPDEST POP SWAP2 PUSH1 0x20 ADD SWAP2 SWAP1 PUSH1 0x1 ADD SWAP1 PUSH3 0x1A8 JUMP JUMPDEST JUMPDEST POP SWAP1 POP PUSH3 0x1E3 SWAP2 SWAP1 PUSH3 0x276 JUMP JUMPDEST POP SWAP1 JUMP JUMPDEST DUP3 DUP1 SLOAD DUP3 DUP3 SSTORE SWAP1 PUSH1 0x0 MSTORE PUSH1 0x20 PUSH1 0x0 KECCAK256 SWAP1 DUP2 ADD SWAP3 DUP3 ISZERO PUSH3 0x263 JUMPI SWAP2 PUSH1 0x20 MUL DUP3 ADD JUMPDEST DUP3 DUP2 GT ISZERO PUSH3 0x262 JUMPI DUP3 MLOAD DUP3 PUSH1 0x0 PUSH2 0x100 EXP DUP2 SLOAD DUP2 PUSH20 0xFFFFFFFFFFFFFFFFFFFFFFFFFFFFFFFFFFFFFFFF MUL NOT AND SWAP1 DUP4 PUSH20 0xFFFFFFFFFFFFFFFFFFFFFFFFFFFFFFFFFFFFFFFF AND MUL OR SWAP1 SSTORE POP SWAP2 PUSH1 0x20 ADD SWAP2 SWAP1 PUSH1 0x1 ADD SWAP1 PUSH3 0x208 JUMP JUMPDEST JUMPDEST POP SWAP1 POP PUSH3 0x272 SWAP2 SWAP1 PUSH3 0x29E JUMP JUMPDEST POP SWAP1 JUMP JUMPDEST JUMPDEST DUP1 DUP3 GT ISZERO PUSH3 0x29A JUMPI PUSH1 0x0 DUP2 DUP2 PUSH3 0x290 SWAP2 SWAP1 PUSH3 0x2BD JUMP JUMPDEST POP PUSH1 0x1 ADD PUSH3 0x277 JUMP JUMPDEST POP SWAP1 JUMP JUMPDEST JUMPDEST DUP1 DUP3 GT ISZERO PUSH3 0x2B9 JUMPI PUSH1 0x0 DUP2 PUSH1 0x0 SWAP1 SSTORE POP PUSH1 0x1 ADD PUSH3 0x29F JUMP JUMPDEST POP SWAP1 JUMP JUMPDEST POP DUP1 SLOAD PUSH3 0x2CB SWAP1 PUSH3 0x36C JUMP JUMPDEST PUSH1 0x0 DUP3 SSTORE DUP1 PUSH1 0x1F LT PUSH3 0x2DF JUMPI POP PUSH3 0x300 JUMP JUMPDEST PUSH1 0x1F ADD PUSH1 0x20 SWAP1 DIV SWAP1 PUSH1 0x0 MSTORE PUSH1 0x20 PUSH1 0x0 KECCAK256 SWAP1 DUP2 ADD SWAP1 PUSH3 0x2FF SWAP2 SWAP1 PUSH3 0x29E JUMP JUMPDEST JUMPDEST POP JUMP JUMPDEST PUSH1 0x0 DUP2 MLOAD SWAP1 POP SWAP2 SWAP1 POP JUMP JUMPDEST PUSH32 0x4E487B7100000000000000000000000000000000000000000000000000000000 PUSH1 0x0 MSTORE PUSH1 0x41 PUSH1 0x4 MSTORE PUSH1 0x24 PUSH1 0x0 REVERT JUMPDEST PUSH32 0x4E487B7100000000000000000000000000000000000000000000000000000000 PUSH1 0x0 MSTORE PUSH1 0x22 PUSH1 0x4 MSTORE PUSH1 0x24 PUSH1 0x0 REVERT JUMPDEST PUSH1 0x0 PUSH1 0x2 DUP3 DIV SWAP1 POP PUSH1 0x1 DUP3 AND DUP1 PUSH3 0x385 JUMPI PUSH1 0x7F DUP3 AND SWAP2 POP JUMPDEST PUSH1 0x20 DUP3 LT DUP2 SUB PUSH3 0x39B JUMPI PUSH3 0x39A PUSH3 0x33D JUMP JUMPDEST JUMPDEST POP SWAP2 SWAP1 POP JUMP JUMPDEST PUSH1 0x0 DUP2 SWAP1 POP DUP2 PUSH1 0x0 MSTORE PUSH1 0x20 PUSH1 0x0 KECCAK256 SWAP1 POP SWAP2 SWAP1 POP JUMP JUMPDEST PUSH1 0x0 PUSH1 0x20 PUSH1 0x1F DUP4 ADD DIV SWAP1 POP SWAP2 SWAP1 POP JUMP JUMPDEST PUSH1 0x0 DUP3 DUP3 SHL SWAP1 POP SWAP3 SWAP2 POP POP JUMP JUMPDEST PUSH1 0x0 PUSH1 0x8 DUP4 MUL PUSH3 0x405 PUSH32 0xFFFFFFFFFFFFFFFFFFFFFFFFFFFFFFFFFFFFFFFFFFFFFFFFFFFFFFFFFFFFFFFF DUP3 PUSH3 0x3C6 JUMP JUMPDEST PUSH3 0x411 DUP7 DUP4 PUSH3 0x3C6 JUMP JUMPDEST SWAP6 POP DUP1 NOT DUP5 AND SWAP4 POP DUP1 DUP7 AND DUP5 OR SWAP3 POP POP POP SWAP4 SWAP3 POP POP POP JUMP JUMPDEST PUSH1 0x0 DUP2 SWAP1 POP SWAP2 SWAP1 POP JUMP JUMPDEST PUSH1 0x0 DUP2 SWAP1 POP SWAP2 SWAP1 POP JUMP JUMPDEST PUSH1 0x0 PUSH3 0x45E PUSH3 0x458 PUSH3 0x452 DUP5 PUSH3 0x429 JUMP JUMPDEST PUSH3 0x433 JUMP JUMPDEST PUSH3 0x429 JUMP JUMPDEST SWAP1 POP SWAP2 SWAP1 POP JUMP JUMPDEST PUSH1 0x0 DUP2 SWAP1 POP SWAP2 SWAP1 POP JUMP JUMPDEST PUSH3 0x47A DUP4 PUSH3 0x43D JUMP JUMPDEST PUSH3 0x492 PUSH3 0x489 DUP3 PUSH3 0x465 JUMP JUMPDEST DUP5 DUP5 SLOAD PUSH3 0x3D3 JUMP JUMPDEST DUP3 SSTORE POP POP POP POP JUMP JUMPDEST PUSH1 0x0 SWAP1 JUMP JUMPDEST PUSH3 0x4A9 PUSH3 0x49A JUMP JUMPDEST PUSH3 0x4B6 DUP2 DUP5 DUP5 PUSH3 0x46F JUMP JUMPDEST POP POP POP JUMP JUMPDEST JUMPDEST DUP2 DUP2 LT ISZERO PUSH3 0x4DE JUMPI PUSH3 0x4D2 PUSH1 0x0 DUP3 PUSH3 0x49F JUMP JUMPDEST PUSH1 0x1 DUP2 ADD SWAP1 POP PUSH3 0x4BC JUMP JUMPDEST POP POP JUMP JUMPDEST PUSH1 0x1F DUP3 GT ISZERO PUSH3 0x52D JUMPI PUSH3 0x4F7 DUP2 PUSH3 0x3A1 JUMP JUMPDEST PUSH3 0x502 DUP5 PUSH3 0x3B6 JUMP JUMPDEST DUP2 ADD PUSH1 0x20 DUP6 LT ISZERO PUSH3 0x512 JUMPI DUP2 SWAP1 POP JUMPDEST PUSH3 0x52A PUSH3 0x521 DUP6 PUSH3 0x3B6 JUMP JUMPDEST DUP4 ADD DUP3 PUSH3 0x4BB JUMP JUMPDEST POP POP JUMPDEST POP POP POP JUMP JUMPDEST PUSH1 0x0 DUP3 DUP3 SHR SWAP1 POP SWAP3 SWAP2 POP POP JUMP JUMPDEST PUSH1 0x0 PUSH3 0x552 PUSH1 0x0 NOT DUP5 PUSH1 0x8 MUL PUSH3 0x532 JUMP JUMPDEST NOT DUP1 DUP4 AND SWAP2 POP POP SWAP3 SWAP2 POP POP JUMP JUMPDEST PUSH1 0x0 PUSH3 0x56D DUP4 DUP4 PUSH3 0x53F JUMP JUMPDEST SWAP2 POP DUP3 PUSH1 0x2 MUL DUP3 OR SWAP1 POP SWAP3 SWAP2 POP POP JUMP JUMPDEST PUSH3 0x588 DUP3 PUSH3 0x303 JUMP JUMPDEST PUSH8 0xFFFFFFFFFFFFFFFF DUP2 GT ISZERO PUSH3 0x5A4 JUMPI PUSH3 0x5A3 PUSH3 0x30E JUMP JUMPDEST JUMPDEST PUSH3 0x5B0 DUP3 SLOAD PUSH3 0x36C JUMP JUMPDEST PUSH3 0x5BD DUP3 DUP3 DUP6 PUSH3 0x4E2 JUMP JUMPDEST PUSH1 0x0 PUSH1 0x20 SWAP1 POP PUSH1 0x1F DUP4 GT PUSH1 0x1 DUP2 EQ PUSH3 0x5F5 JUMPI PUSH1 0x0 DUP5 ISZERO PUSH3 0x5E0 JUMPI DUP3 DUP8 ADD MLOAD SWAP1 POP JUMPDEST PUSH3 0x5EC DUP6 DUP3 PUSH3 0x55F JUMP JUMPDEST DUP7 SSTORE POP PUSH3 0x65C JUMP JUMPDEST PUSH1 0x1F NOT DUP5 AND PUSH3 0x605 DUP7 PUSH3 0x3A1 JUMP JUMPDEST PUSH1 0x0 JUMPDEST DUP3 DUP2 LT ISZERO PUSH3 0x62F JUMPI DUP5 DUP10 ADD MLOAD DUP3 SSTORE PUSH1 0x1 DUP3 ADD SWAP2 POP PUSH1 0x20 DUP6 ADD SWAP5 POP PUSH1 0x20 DUP2 ADD SWAP1 POP PUSH3 0x608 JUMP JUMPDEST DUP7 DUP4 LT ISZERO PUSH3 0x64F JUMPI DUP5 DUP10 ADD MLOAD PUSH3 0x64B PUSH1 0x1F DUP10 AND DUP3 PUSH3 0x53F JUMP JUMPDEST DUP4 SSTORE POP JUMPDEST PUSH1 0x1 PUSH1 0x2 DUP9 MUL ADD DUP9 SSTORE POP POP POP JUMPDEST POP POP POP POP POP POP JUMP JUMPDEST PUSH2 0xF26 DUP1 PUSH3 0x674 PUSH1 0x0 CODECOPY PUSH1 0x0 RETURN INVALID PUSH1 0x80 PUSH1 0x40 MSTORE PUSH1 0x4 CALLDATASIZE LT PUSH2 0x3F JUMPI PUSH1 0x0 CALLDATALOAD PUSH1 0xE0 SHR DUP1 PUSH4 0x4EB5F247 EQ PUSH2 0x44 JUMPI DUP1 PUSH4 0xBD799295 EQ PUSH2 0x81 JUMPI DUP1 PUSH4 0xDD0AE4D6 EQ PUSH2 0xB1 JUMPI DUP1 PUSH4 0xF9E26EF6 EQ PUSH2 0xEE JUMPI JUMPDEST PUSH1 0x0 DUP1 REVERT JUMPDEST CALLVALUE DUP1 ISZERO PUSH2 0x50 JUMPI PUSH1 0x0 DUP1 REVERT JUMPDEST POP PUSH2 0x6B PUSH1 0x4 DUP1 CALLDATASIZE SUB DUP2 ADD SWAP1 PUSH2 0x66 SWAP2 SWAP1 PUSH2 0x8A4 JUMP JUMPDEST PUSH2 0x12B JUMP JUMPDEST PUSH1 0x40 MLOAD PUSH2 0x78 SWAP2 SWAP1 PUSH2 0x93E JUMP JUMPDEST PUSH1 0x40 MLOAD DUP1 SWAP2 SUB SWAP1 RETURN JUMPDEST PUSH2 0x9B PUSH1 0x4 DUP1 CALLDATASIZE SUB DUP2 ADD SWAP1 PUSH2 0x96 SWAP2 SWAP1 PUSH2 0x9CD JUMP JUMPDEST PUSH2 0x28F JUMP JUMPDEST PUSH1 0x40 MLOAD PUSH2 0xA8 SWAP2 SWAP1 PUSH2 0x93E JUMP JUMPDEST PUSH1 0x40 MLOAD DUP1 SWAP2 SUB SWAP1 RETURN JUMPDEST CALLVALUE DUP1 ISZERO PUSH2 0xBD JUMPI PUSH1 0x0 DUP1 REVERT JUMPDEST POP PUSH2 0xD8 PUSH1 0x4 DUP1 CALLDATASIZE SUB DUP2 ADD SWAP1 PUSH2 0xD3 SWAP2 SWAP1 PUSH2 0xA0D JUMP JUMPDEST PUSH2 0x374 JUMP JUMPDEST PUSH1 0x40 MLOAD PUSH2 0xE5 SWAP2 SWAP1 PUSH2 0x93E JUMP JUMPDEST PUSH1 0x40 MLOAD DUP1 SWAP2 SUB SWAP1 RETURN JUMPDEST CALLVALUE DUP1 ISZERO PUSH2 0xFA JUMPI PUSH1 0x0 DUP1 REVERT JUMPDEST POP PUSH2 0x115 PUSH1 0x4 DUP1 CALLDATASIZE SUB DUP2 ADD SWAP1 PUSH2 0x110 SWAP2 SWAP1 PUSH2 0xA0D JUMP JUMPDEST PUSH2 0x4D5 JUMP JUMPDEST PUSH1 0x40 MLOAD PUSH2 0x122 SWAP2 SWAP1 PUSH2 0x93E JUMP JUMPDEST PUSH1 0x40 MLOAD DUP1 SWAP2 SUB SWAP1 RETURN JUMPDEST PUSH1 0x0 DUP1 PUSH1 0x0 SWAP1 POP JUMPDEST PUSH1 0x1 DUP1 SLOAD SWAP1 POP DUP2 LT ISZERO PUSH2 0x282 JUMPI DUP5 PUSH1 0x0 ADD MLOAD PUSH20 0xFFFFFFFFFFFFFFFFFFFFFFFFFFFFFFFFFFFFFFFF AND PUSH1 0x1 DUP3 DUP2 SLOAD DUP2 LT PUSH2 0x16F JUMPI PUSH2 0x16E PUSH2 0xA85 JUMP JUMPDEST JUMPDEST SWAP1 PUSH1 0x0 MSTORE PUSH1 0x20 PUSH1 0x0 KECCAK256 ADD PUSH1 0x0 SWAP1 SLOAD SWAP1 PUSH2 0x100 EXP SWAP1 DIV PUSH20 0xFFFFFFFFFFFFFFFFFFFFFFFFFFFFFFFFFFFFFFFF AND PUSH20 0xFFFFFFFFFFFFFFFFFFFFFFFFFFFFFFFFFFFFFFFF AND EQ DUP1 PUSH2 0x229 JUMPI POP DUP4 PUSH1 0x0 ADD MLOAD PUSH20 0xFFFFFFFFFFFFFFFFFFFFFFFFFFFFFFFFFFFFFFFF AND PUSH1 0x1 DUP3 DUP2 SLOAD DUP2 LT PUSH2 0x1E6 JUMPI PUSH2 0x1E5 PUSH2 0xA85 JUMP JUMPDEST JUMPDEST SWAP1 PUSH1 0x0 MSTORE PUSH1 0x20 PUSH1 0x0 KECCAK256 ADD PUSH1 0x0 SWAP1 SLOAD SWAP1 PUSH2 0x100 EXP SWAP1 DIV PUSH20 0xFFFFFFFFFFFFFFFFFFFFFFFFFFFFFFFFFFFFFFFF AND PUSH20 0xFFFFFFFFFFFFFFFFFFFFFFFFFFFFFFFFFFFFFFFF AND EQ JUMPDEST ISZERO PUSH2 0x26F JUMPI PUSH32 0x3EB7B4618223A419ACF4654A8CCAB76F089242B23C05EB5CA310E68779589F13 TIMESTAMP PUSH1 0x40 MLOAD PUSH2 0x25D SWAP2 SWAP1 PUSH2 0xB20 JUMP JUMPDEST PUSH1 0x40 MLOAD DUP1 SWAP2 SUB SWAP1 LOG1 PUSH1 0x1 SWAP2 POP POP PUSH2 0x288 JUMP JUMPDEST DUP1 DUP1 PUSH2 0x27A SWAP1 PUSH2 0xB7D JUMP JUMPDEST SWAP2 POP POP PUSH2 0x133 JUMP JUMPDEST POP PUSH1 0x0 SWAP1 POP JUMPDEST SWAP4 SWAP3 POP POP POP JUMP JUMPDEST PUSH1 0x0 PUSH1 0x2 SLOAD DUP3 GT ISZERO PUSH2 0x322 JUMPI DUP3 PUSH20 0xFFFFFFFFFFFFFFFFFFFFFFFFFFFFFFFFFFFFFFFF AND PUSH2 0x8FC DUP4 SWAP1 DUP2 ISZERO MUL SWAP1 PUSH1 0x40 MLOAD PUSH1 0x0 PUSH1 0x40 MLOAD DUP1 DUP4 SUB DUP2 DUP6 DUP9 DUP9 CALL SWAP4 POP POP POP POP ISZERO DUP1 ISZERO PUSH2 0x2E1 JUMPI RETURNDATASIZE PUSH1 0x0 DUP1 RETURNDATACOPY RETURNDATASIZE PUSH1 0x0 REVERT JUMPDEST POP PUSH32 0x695633452B1D0063D6F5AE521DB19FAEF8382A4F1D9896180FED154AB1F54C25 TIMESTAMP PUSH1 0x40 MLOAD PUSH2 0x311 SWAP2 SWAP1 PUSH2 0xC11 JUMP JUMPDEST PUSH1 0x40 MLOAD DUP1 SWAP2 SUB SWAP1 LOG1 PUSH1 0x1 SWAP1 POP PUSH2 0x36E JUMP JUMPDEST DUP3 PUSH20 0xFFFFFFFFFFFFFFFFFFFFFFFFFFFFFFFFFFFFFFFF AND PUSH2 0x8FC DUP4 SWAP1 DUP2 ISZERO MUL SWAP1 PUSH1 0x40 MLOAD PUSH1 0x0 PUSH1 0x40 MLOAD DUP1 DUP4 SUB DUP2 DUP6 DUP9 DUP9 CALL SWAP4 POP POP POP POP ISZERO DUP1 ISZERO PUSH2 0x368 JUMPI RETURNDATASIZE PUSH1 0x0 DUP1 RETURNDATACOPY RETURNDATASIZE PUSH1 0x0 REVERT JUMPDEST POP PUSH1 0x0 SWAP1 POP JUMPDEST SWAP3 SWAP2 POP POP JUMP JUMPDEST PUSH1 0x0 DUP1 PUSH1 0x0 SWAP1 POP JUMPDEST PUSH1 0x0 DUP1 SLOAD SWAP1 POP DUP2 LT ISZERO PUSH2 0x4C9 JUMPI DUP4 PUSH1 0xC0 ADD MLOAD PUSH1 0x40 MLOAD PUSH1 0x20 ADD PUSH2 0x39E SWAP2 SWAP1 PUSH2 0xCB0 JUMP JUMPDEST PUSH1 0x40 MLOAD PUSH1 0x20 DUP2 DUP4 SUB SUB DUP2 MSTORE SWAP1 PUSH1 0x40 MSTORE DUP1 MLOAD SWAP1 PUSH1 0x20 ADD KECCAK256 PUSH1 0x0 DUP3 DUP2 SLOAD DUP2 LT PUSH2 0x3C8 JUMPI PUSH2 0x3C7 PUSH2 0xA85 JUMP JUMPDEST JUMPDEST SWAP1 PUSH1 0x0 MSTORE PUSH1 0x20 PUSH1 0x0 KECCAK256 ADD PUSH1 0x40 MLOAD PUSH1 0x20 ADD PUSH2 0x3E2 SWAP2 SWAP1 PUSH2 0xDBF JUMP JUMPDEST PUSH1 0x40 MLOAD PUSH1 0x20 DUP2 DUP4 SUB SUB DUP2 MSTORE SWAP1 PUSH1 0x40 MSTORE DUP1 MLOAD SWAP1 PUSH1 0x20 ADD KECCAK256 EQ DUP1 PUSH2 0x470 JUMPI POP DUP3 PUSH1 0xC0 ADD MLOAD PUSH1 0x40 MLOAD PUSH1 0x20 ADD PUSH2 0x414 SWAP2 SWAP1 PUSH2 0xCB0 JUMP JUMPDEST PUSH1 0x40 MLOAD PUSH1 0x20 DUP2 DUP4 SUB SUB DUP2 MSTORE SWAP1 PUSH1 0x40 MSTORE DUP1 MLOAD SWAP1 PUSH1 0x20 ADD KECCAK256 PUSH1 0x0 DUP3 DUP2 SLOAD DUP2 LT PUSH2 0x43E JUMPI PUSH2 0x43D PUSH2 0xA85 JUMP JUMPDEST JUMPDEST SWAP1 PUSH1 0x0 MSTORE PUSH1 0x20 PUSH1 0x0 KECCAK256 ADD PUSH1 0x40 MLOAD PUSH1 0x20 ADD PUSH2 0x458 SWAP2 SWAP1 PUSH2 0xDBF JUMP JUMPDEST PUSH1 0x40 MLOAD PUSH1 0x20 DUP2 DUP4 SUB SUB DUP2 MSTORE SWAP1 PUSH1 0x40 MSTORE DUP1 MLOAD SWAP1 PUSH1 0x20 ADD KECCAK256 EQ JUMPDEST ISZERO PUSH2 0x4B6 JUMPI PUSH32 0x51D9A94B04F50ACC666F49C396523E970BFB47916F94955849977C62FC0E8E0B TIMESTAMP PUSH1 0x40 MLOAD PUSH2 0x4A4 SWAP2 SWAP1 PUSH2 0xE48 JUMP JUMPDEST PUSH1 0x40 MLOAD DUP1 SWAP2 SUB SWAP1 LOG1 PUSH1 0x1 SWAP2 POP POP PUSH2 0x4CF JUMP JUMPDEST DUP1 DUP1 PUSH2 0x4C1 SWAP1 PUSH2 0xB7D JUMP JUMPDEST SWAP2 POP POP PUSH2 0x37C JUMP JUMPDEST POP PUSH1 0x0 SWAP1 POP JUMPDEST SWAP3 SWAP2 POP POP JUMP JUMPDEST PUSH1 0x0 DUP3 PUSH1 0xE0 ADD MLOAD DUP1 PUSH2 0x4E8 JUMPI POP DUP2 PUSH1 0xE0 ADD MLOAD JUMPDEST ISZERO PUSH2 0x52D JUMPI PUSH32 0x6F0574C43CA8DC8A1E98AA228B41DD7B659EC8F259189F8BFA33ED065DD30DF9 TIMESTAMP PUSH1 0x40 MLOAD PUSH2 0x51C SWAP2 SWAP1 PUSH2 0xEC2 JUMP JUMPDEST PUSH1 0x40 MLOAD DUP1 SWAP2 SUB SWAP1 LOG1 PUSH1 0x1 SWAP1 POP PUSH2 0x532 JUMP JUMPDEST PUSH1 0x0 SWAP1 POP JUMPDEST SWAP3 SWAP2 POP POP JUMP JUMPDEST PUSH1 0x0 PUSH1 0x40 MLOAD SWAP1 POP SWAP1 JUMP JUMPDEST PUSH1 0x0 DUP1 REVERT JUMPDEST PUSH1 0x0 DUP1 REVERT JUMPDEST PUSH1 0x0 DUP1 REVERT JUMPDEST PUSH1 0x0 PUSH1 0x1F NOT PUSH1 0x1F DUP4 ADD AND SWAP1 POP SWAP2 SWAP1 POP JUMP JUMPDEST PUSH32 0x4E487B7100000000000000000000000000000000000000000000000000000000 PUSH1 0x0 MSTORE PUSH1 0x41 PUSH1 0x4 MSTORE PUSH1 0x24 PUSH1 0x0 REVERT JUMPDEST PUSH2 0x59A DUP3 PUSH2 0x551 JUMP JUMPDEST DUP2 ADD DUP2 DUP2 LT PUSH8 0xFFFFFFFFFFFFFFFF DUP3 GT OR ISZERO PUSH2 0x5B9 JUMPI PUSH2 0x5B8 PUSH2 0x562 JUMP JUMPDEST JUMPDEST DUP1 PUSH1 0x40 MSTORE POP POP POP JUMP JUMPDEST PUSH1 0x0 PUSH2 0x5CC PUSH2 0x538 JUMP JUMPDEST SWAP1 POP PUSH2 0x5D8 DUP3 DUP3 PUSH2 0x591 JUMP JUMPDEST SWAP2 SWAP1 POP JUMP JUMPDEST PUSH1 0x0 DUP1 REVERT JUMPDEST PUSH1 0x0 PUSH20 0xFFFFFFFFFFFFFFFFFFFFFFFFFFFFFFFFFFFFFFFF DUP3 AND SWAP1 POP SWAP2 SWAP1 POP JUMP JUMPDEST PUSH1 0x0 PUSH2 0x60D DUP3 PUSH2 0x5E2 JUMP JUMPDEST SWAP1 POP SWAP2 SWAP1 POP JUMP JUMPDEST PUSH2 0x61D DUP2 PUSH2 0x602 JUMP JUMPDEST DUP2 EQ PUSH2 0x628 JUMPI PUSH1 0x0 DUP1 REVERT JUMPDEST POP JUMP JUMPDEST PUSH1 0x0 DUP2 CALLDATALOAD SWAP1 POP PUSH2 0x63A DUP2 PUSH2 0x614 JUMP JUMPDEST SWAP3 SWAP2 POP POP JUMP JUMPDEST PUSH1 0x0 DUP1 REVERT JUMPDEST PUSH1 0x0 DUP1 REVERT JUMPDEST PUSH1 0x0 PUSH8 0xFFFFFFFFFFFFFFFF DUP3 GT ISZERO PUSH2 0x665 JUMPI PUSH2 0x664 PUSH2 0x562 JUMP JUMPDEST JUMPDEST PUSH2 0x66E DUP3 PUSH2 0x551 JUMP JUMPDEST SWAP1 POP PUSH1 0x20 DUP2 ADD SWAP1 POP SWAP2 SWAP1 POP JUMP JUMPDEST DUP3 DUP2 DUP4 CALLDATACOPY PUSH1 0x0 DUP4 DUP4 ADD MSTORE POP POP POP JUMP JUMPDEST PUSH1 0x0 PUSH2 0x69D PUSH2 0x698 DUP5 PUSH2 0x64A JUMP JUMPDEST PUSH2 0x5C2 JUMP JUMPDEST SWAP1 POP DUP3 DUP2 MSTORE PUSH1 0x20 DUP2 ADD DUP5 DUP5 DUP5 ADD GT ISZERO PUSH2 0x6B9 JUMPI PUSH2 0x6B8 PUSH2 0x645 JUMP JUMPDEST JUMPDEST PUSH2 0x6C4 DUP5 DUP3 DUP6 PUSH2 0x67B JUMP JUMPDEST POP SWAP4 SWAP3 POP POP POP JUMP JUMPDEST PUSH1 0x0 DUP3 PUSH1 0x1F DUP4 ADD SLT PUSH2 0x6E1 JUMPI PUSH2 0x6E0 PUSH2 0x640 JUMP JUMPDEST JUMPDEST DUP2 CALLDATALOAD PUSH2 0x6F1 DUP5 DUP3 PUSH1 0x20 DUP7 ADD PUSH2 0x68A JUMP JUMPDEST SWAP2 POP POP SWAP3 SWAP2 POP POP JUMP JUMPDEST PUSH1 0x0 DUP2 ISZERO ISZERO SWAP1 POP SWAP2 SWAP1 POP JUMP JUMPDEST PUSH2 0x70F DUP2 PUSH2 0x6FA JUMP JUMPDEST DUP2 EQ PUSH2 0x71A JUMPI PUSH1 0x0 DUP1 REVERT JUMPDEST POP JUMP JUMPDEST PUSH1 0x0 DUP2 CALLDATALOAD SWAP1 POP PUSH2 0x72C DUP2 PUSH2 0x706 JUMP JUMPDEST SWAP3 SWAP2 POP POP JUMP JUMPDEST PUSH1 0x0 PUSH2 0x100 DUP3 DUP5 SUB SLT ISZERO PUSH2 0x749 JUMPI PUSH2 0x748 PUSH2 0x54C JUMP JUMPDEST JUMPDEST PUSH2 0x754 PUSH2 0x100 PUSH2 0x5C2 JUMP JUMPDEST SWAP1 POP PUSH1 0x0 PUSH2 0x764 DUP5 DUP3 DUP6 ADD PUSH2 0x62B JUMP JUMPDEST PUSH1 0x0 DUP4 ADD MSTORE POP PUSH1 0x20 DUP3 ADD CALLDATALOAD PUSH8 0xFFFFFFFFFFFFFFFF DUP2 GT ISZERO PUSH2 0x788 JUMPI PUSH2 0x787 PUSH2 0x5DD JUMP JUMPDEST JUMPDEST PUSH2 0x794 DUP5 DUP3 DUP6 ADD PUSH2 0x6CC JUMP JUMPDEST PUSH1 0x20 DUP4 ADD MSTORE POP PUSH1 0x40 DUP3 ADD CALLDATALOAD PUSH8 0xFFFFFFFFFFFFFFFF DUP2 GT ISZERO PUSH2 0x7B8 JUMPI PUSH2 0x7B7 PUSH2 0x5DD JUMP JUMPDEST JUMPDEST PUSH2 0x7C4 DUP5 DUP3 DUP6 ADD PUSH2 0x6CC JUMP JUMPDEST PUSH1 0x40 DUP4 ADD MSTORE POP PUSH1 0x60 DUP3 ADD CALLDATALOAD PUSH8 0xFFFFFFFFFFFFFFFF DUP2 GT ISZERO PUSH2 0x7E8 JUMPI PUSH2 0x7E7 PUSH2 0x5DD JUMP JUMPDEST JUMPDEST PUSH2 0x7F4 DUP5 DUP3 DUP6 ADD PUSH2 0x6CC JUMP JUMPDEST PUSH1 0x60 DUP4 ADD MSTORE POP PUSH1 0x80 DUP3 ADD CALLDATALOAD PUSH8 0xFFFFFFFFFFFFFFFF DUP2 GT ISZERO PUSH2 0x818 JUMPI PUSH2 0x817 PUSH2 0x5DD JUMP JUMPDEST JUMPDEST PUSH2 0x824 DUP5 DUP3 DUP6 ADD PUSH2 0x6CC JUMP JUMPDEST PUSH1 0x80 DUP4 ADD MSTORE POP PUSH1 0xA0 DUP3 ADD CALLDATALOAD PUSH8 0xFFFFFFFFFFFFFFFF DUP2 GT ISZERO PUSH2 0x848 JUMPI PUSH2 0x847 PUSH2 0x5DD JUMP JUMPDEST JUMPDEST PUSH2 0x854 DUP5 DUP3 DUP6 ADD PUSH2 0x6CC JUMP JUMPDEST PUSH1 0xA0 DUP4 ADD MSTORE POP PUSH1 0xC0 DUP3 ADD CALLDATALOAD PUSH8 0xFFFFFFFFFFFFFFFF DUP2 GT ISZERO PUSH2 0x878 JUMPI PUSH2 0x877 PUSH2 0x5DD JUMP JUMPDEST JUMPDEST PUSH2 0x884 DUP5 DUP3 DUP6 ADD PUSH2 0x6CC JUMP JUMPDEST PUSH1 0xC0 DUP4 ADD MSTORE POP PUSH1 0xE0 PUSH2 0x898 DUP5 DUP3 DUP6 ADD PUSH2 0x71D JUMP JUMPDEST PUSH1 0xE0 DUP4 ADD MSTORE POP SWAP3 SWAP2 POP POP JUMP JUMPDEST PUSH1 0x0 DUP1 PUSH1 0x0 PUSH1 0x60 DUP5 DUP7 SUB SLT ISZERO PUSH2 0x8BD JUMPI PUSH2 0x8BC PUSH2 0x542 JUMP JUMPDEST JUMPDEST PUSH1 0x0 DUP5 ADD CALLDATALOAD PUSH8 0xFFFFFFFFFFFFFFFF DUP2 GT ISZERO PUSH2 0x8DB JUMPI PUSH2 0x8DA PUSH2 0x547 JUMP JUMPDEST JUMPDEST PUSH2 0x8E7 DUP7 DUP3 DUP8 ADD PUSH2 0x732 JUMP JUMPDEST SWAP4 POP POP PUSH1 0x20 DUP5 ADD CALLDATALOAD PUSH8 0xFFFFFFFFFFFFFFFF DUP2 GT ISZERO PUSH2 0x908 JUMPI PUSH2 0x907 PUSH2 0x547 JUMP JUMPDEST JUMPDEST PUSH2 0x914 DUP7 DUP3 DUP8 ADD PUSH2 0x732 JUMP JUMPDEST SWAP3 POP POP PUSH1 0x40 PUSH2 0x925 DUP7 DUP3 DUP8 ADD PUSH2 0x62B JUMP JUMPDEST SWAP2 POP POP SWAP3 POP SWAP3 POP SWAP3 JUMP JUMPDEST PUSH2 0x938 DUP2 PUSH2 0x6FA JUMP JUMPDEST DUP3 MSTORE POP POP JUMP JUMPDEST PUSH1 0x0 PUSH1 0x20 DUP3 ADD SWAP1 POP PUSH2 0x953 PUSH1 0x0 DUP4 ADD DUP5 PUSH2 0x92F JUMP JUMPDEST SWAP3 SWAP2 POP POP JUMP JUMPDEST PUSH1 0x0 PUSH2 0x964 DUP3 PUSH2 0x5E2 JUMP JUMPDEST SWAP1 POP SWAP2 SWAP1 POP JUMP JUMPDEST PUSH2 0x974 DUP2 PUSH2 0x959 JUMP JUMPDEST DUP2 EQ PUSH2 0x97F JUMPI PUSH1 0x0 DUP1 REVERT JUMPDEST POP JUMP JUMPDEST PUSH1 0x0 DUP2 CALLDATALOAD SWAP1 POP PUSH2 0x991 DUP2 PUSH2 0x96B JUMP JUMPDEST SWAP3 SWAP2 POP POP JUMP JUMPDEST PUSH1 0x0 DUP2 SWAP1 POP SWAP2 SWAP1 POP JUMP JUMPDEST PUSH2 0x9AA DUP2 PUSH2 0x997 JUMP JUMPDEST DUP2 EQ PUSH2 0x9B5 JUMPI PUSH1 0x0 DUP1 REVERT JUMPDEST POP JUMP JUMPDEST PUSH1 0x0 DUP2 CALLDATALOAD SWAP1 POP PUSH2 0x9C7 DUP2 PUSH2 0x9A1 JUMP JUMPDEST SWAP3 SWAP2 POP POP JUMP JUMPDEST PUSH1 0x0 DUP1 PUSH1 0x40 DUP4 DUP6 SUB SLT ISZERO PUSH2 0x9E4 JUMPI PUSH2 0x9E3 PUSH2 0x542 JUMP JUMPDEST JUMPDEST PUSH1 0x0 PUSH2 0x9F2 DUP6 DUP3 DUP7 ADD PUSH2 0x982 JUMP JUMPDEST SWAP3 POP POP PUSH1 0x20 PUSH2 0xA03 DUP6 DUP3 DUP7 ADD PUSH2 0x9B8 JUMP JUMPDEST SWAP2 POP POP SWAP3 POP SWAP3 SWAP1 POP JUMP JUMPDEST PUSH1 0x0 DUP1 PUSH1 0x40 DUP4 DUP6 SUB SLT ISZERO PUSH2 0xA24 JUMPI PUSH2 0xA23 PUSH2 0x542 JUMP JUMPDEST JUMPDEST PUSH1 0x0 DUP4 ADD CALLDATALOAD PUSH8 0xFFFFFFFFFFFFFFFF DUP2 GT ISZERO PUSH2 0xA42 JUMPI PUSH2 0xA41 PUSH2 0x547 JUMP JUMPDEST JUMPDEST PUSH2 0xA4E DUP6 DUP3 DUP7 ADD PUSH2 0x732 JUMP JUMPDEST SWAP3 POP POP PUSH1 0x20 DUP4 ADD CALLDATALOAD PUSH8 0xFFFFFFFFFFFFFFFF DUP2 GT ISZERO PUSH2 0xA6F JUMPI PUSH2 0xA6E PUSH2 0x547 JUMP JUMPDEST JUMPDEST PUSH2 0xA7B DUP6 DUP3 DUP7 ADD PUSH2 0x732 JUMP JUMPDEST SWAP2 POP POP SWAP3 POP SWAP3 SWAP1 POP JUMP JUMPDEST PUSH32 0x4E487B7100000000000000000000000000000000000000000000000000000000 PUSH1 0x0 MSTORE PUSH1 0x32 PUSH1 0x4 MSTORE PUSH1 0x24 PUSH1 0x0 REVERT JUMPDEST PUSH1 0x0 DUP3 DUP3 MSTORE PUSH1 0x20 DUP3 ADD SWAP1 POP SWAP3 SWAP2 POP POP JUMP JUMPDEST PUSH32 0x77616E74656420496E646976696475616C000000000000000000000000000000 PUSH1 0x0 DUP3 ADD MSTORE POP JUMP JUMPDEST PUSH1 0x0 PUSH2 0xAFB PUSH1 0x11 DUP4 PUSH2 0xAB4 JUMP JUMPDEST SWAP2 POP PUSH2 0xB06 DUP3 PUSH2 0xAC5 JUMP JUMPDEST PUSH1 0x20 DUP3 ADD SWAP1 POP SWAP2 SWAP1 POP JUMP JUMPDEST PUSH2 0xB1A DUP2 PUSH2 0x997 JUMP JUMPDEST DUP3 MSTORE POP POP JUMP JUMPDEST PUSH1 0x0 PUSH1 0x40 DUP3 ADD SWAP1 POP DUP2 DUP2 SUB PUSH1 0x0 DUP4 ADD MSTORE PUSH2 0xB39 DUP2 PUSH2 0xAEE JUMP JUMPDEST SWAP1 POP PUSH2 0xB48 PUSH1 0x20 DUP4 ADD DUP5 PUSH2 0xB11 JUMP JUMPDEST SWAP3 SWAP2 POP POP JUMP JUMPDEST PUSH32 0x4E487B7100000000000000000000000000000000000000000000000000000000 PUSH1 0x0 MSTORE PUSH1 0x11 PUSH1 0x4 MSTORE PUSH1 0x24 PUSH1 0x0 REVERT JUMPDEST PUSH1 0x0 PUSH2 0xB88 DUP3 PUSH2 0x997 JUMP JUMPDEST SWAP2 POP PUSH32 0xFFFFFFFFFFFFFFFFFFFFFFFFFFFFFFFFFFFFFFFFFFFFFFFFFFFFFFFFFFFFFFFF DUP3 SUB PUSH2 0xBBA JUMPI PUSH2 0xBB9 PUSH2 0xB4E JUMP JUMPDEST JUMPDEST PUSH1 0x1 DUP3 ADD SWAP1 POP SWAP2 SWAP1 POP JUMP JUMPDEST PUSH32 0x4578636565646564204D617820416D6F756E7400000000000000000000000000 PUSH1 0x0 DUP3 ADD MSTORE POP JUMP JUMPDEST PUSH1 0x0 PUSH2 0xBFB PUSH1 0x13 DUP4 PUSH2 0xAB4 JUMP JUMPDEST SWAP2 POP PUSH2 0xC06 DUP3 PUSH2 0xBC5 JUMP JUMPDEST PUSH1 0x20 DUP3 ADD SWAP1 POP SWAP2 SWAP1 POP JUMP JUMPDEST PUSH1 0x0 PUSH1 0x40 DUP3 ADD SWAP1 POP DUP2 DUP2 SUB PUSH1 0x0 DUP4 ADD MSTORE PUSH2 0xC2A DUP2 PUSH2 0xBEE JUMP JUMPDEST SWAP1 POP PUSH2 0xC39 PUSH1 0x20 DUP4 ADD DUP5 PUSH2 0xB11 JUMP JUMPDEST SWAP3 SWAP2 POP POP JUMP JUMPDEST PUSH1 0x0 DUP2 MLOAD SWAP1 POP SWAP2 SWAP1 POP JUMP JUMPDEST PUSH1 0x0 DUP2 SWAP1 POP SWAP3 SWAP2 POP POP JUMP JUMPDEST PUSH1 0x0 JUMPDEST DUP4 DUP2 LT ISZERO PUSH2 0xC73 JUMPI DUP1 DUP3 ADD MLOAD DUP2 DUP5 ADD MSTORE PUSH1 0x20 DUP2 ADD SWAP1 POP PUSH2 0xC58 JUMP JUMPDEST PUSH1 0x0 DUP5 DUP5 ADD MSTORE POP POP POP POP JUMP JUMPDEST PUSH1 0x0 PUSH2 0xC8A DUP3 PUSH2 0xC3F JUMP JUMPDEST PUSH2 0xC94 DUP2 DUP6 PUSH2 0xC4A JUMP JUMPDEST SWAP4 POP PUSH2 0xCA4 DUP2 DUP6 PUSH1 0x20 DUP7 ADD PUSH2 0xC55 JUMP JUMPDEST DUP1 DUP5 ADD SWAP2 POP POP SWAP3 SWAP2 POP POP JUMP JUMPDEST PUSH1 0x0 PUSH2 0xCBC DUP3 DUP5 PUSH2 0xC7F JUMP JUMPDEST SWAP2 POP DUP2 SWAP1 POP SWAP3 SWAP2 POP POP JUMP JUMPDEST PUSH32 0x4E487B7100000000000000000000000000000000000000000000000000000000 PUSH1 0x0 MSTORE PUSH1 0x22 PUSH1 0x4 MSTORE PUSH1 0x24 PUSH1 0x0 REVERT JUMPDEST PUSH1 0x0 PUSH1 0x2 DUP3 DIV SWAP1 POP PUSH1 0x1 DUP3 AND DUP1 PUSH2 0xD0E JUMPI PUSH1 0x7F DUP3 AND SWAP2 POP JUMPDEST PUSH1 0x20 DUP3 LT DUP2 SUB PUSH2 0xD21 JUMPI PUSH2 0xD20 PUSH2 0xCC7 JUMP JUMPDEST JUMPDEST POP SWAP2 SWAP1 POP JUMP JUMPDEST PUSH1 0x0 DUP2 SWAP1 POP DUP2 PUSH1 0x0 MSTORE PUSH1 0x20 PUSH1 0x0 KECCAK256 SWAP1 POP SWAP2 SWAP1 POP JUMP JUMPDEST PUSH1 0x0 DUP2 SLOAD PUSH2 0xD49 DUP2 PUSH2 0xCF6 JUMP JUMPDEST PUSH2 0xD53 DUP2 DUP7 PUSH2 0xC4A JUMP JUMPDEST SWAP5 POP PUSH1 0x1 DUP3 AND PUSH1 0x0 DUP2 EQ PUSH2 0xD6E JUMPI PUSH1 0x1 DUP2 EQ PUSH2 0xD83 JUMPI PUSH2 0xDB6 JUMP JUMPDEST PUSH1 0xFF NOT DUP4 AND DUP7 MSTORE DUP2 ISZERO ISZERO DUP3 MUL DUP7 ADD SWAP4 POP PUSH2 0xDB6 JUMP JUMPDEST PUSH2 0xD8C DUP6 PUSH2 0xD27 JUMP JUMPDEST PUSH1 0x0 JUMPDEST DUP4 DUP2 LT ISZERO PUSH2 0xDAE JUMPI DUP2 SLOAD DUP2 DUP10 ADD MSTORE PUSH1 0x1 DUP3 ADD SWAP2 POP PUSH1 0x20 DUP2 ADD SWAP1 POP PUSH2 0xD8F JUMP JUMPDEST DUP4 DUP9 ADD SWAP6 POP POP POP JUMPDEST POP POP POP SWAP3 SWAP2 POP POP JUMP JUMPDEST PUSH1 0x0 PUSH2 0xDCB DUP3 DUP5 PUSH2 0xD3C JUMP JUMPDEST SWAP2 POP DUP2 SWAP1 POP SWAP3 SWAP2 POP POP JUMP JUMPDEST PUSH32 0x557365722773204E6174696F6E616C69747920697320696E2062616E6E656420 PUSH1 0x0 DUP3 ADD MSTORE PUSH32 0x636F756E74726965730000000000000000000000000000000000000000000000 PUSH1 0x20 DUP3 ADD MSTORE POP JUMP JUMPDEST PUSH1 0x0 PUSH2 0xE32 PUSH1 0x29 DUP4 PUSH2 0xAB4 JUMP JUMPDEST SWAP2 POP PUSH2 0xE3D DUP3 PUSH2 0xDD6 JUMP JUMPDEST PUSH1 0x40 DUP3 ADD SWAP1 POP SWAP2 SWAP1 POP JUMP JUMPDEST PUSH1 0x0 PUSH1 0x40 DUP3 ADD SWAP1 POP DUP2 DUP2 SUB PUSH1 0x0 DUP4 ADD MSTORE PUSH2 0xE61 DUP2 PUSH2 0xE25 JUMP JUMPDEST SWAP1 POP PUSH2 0xE70 PUSH1 0x20 DUP4 ADD DUP5 PUSH2 0xB11 JUMP JUMPDEST SWAP3 SWAP2 POP POP JUMP JUMPDEST PUSH32 0x5573657220697320706F6C69746963616C6C79206578706F7365640000000000 PUSH1 0x0 DUP3 ADD MSTORE POP JUMP JUMPDEST PUSH1 0x0 PUSH2 0xEAC PUSH1 0x1B DUP4 PUSH2 0xAB4 JUMP JUMPDEST SWAP2 POP PUSH2 0xEB7 DUP3 PUSH2 0xE76 JUMP JUMPDEST PUSH1 0x20 DUP3 ADD SWAP1 POP SWAP2 SWAP1 POP JUMP JUMPDEST PUSH1 0x0 PUSH1 0x40 DUP3 ADD SWAP1 POP DUP2 DUP2 SUB PUSH1 0x0 DUP4 ADD MSTORE PUSH2 0xEDB DUP2 PUSH2 0xE9F JUMP JUMPDEST SWAP1 POP PUSH2 0xEEA PUSH1 0x20 DUP4 ADD DUP5 PUSH2 0xB11 JUMP JUMPDEST SWAP3 SWAP2 POP POP JUMP INVALID LOG2 PUSH5 0x6970667358 0x22 SLT KECCAK256 0xEA SWAP12 CREATE PUSH4 0xE7606BB SWAP8 SHR JUMP LOG1 0x5F 0xCD BYTE 0x5F 0xF9 DUP8 SAR PUSH21 0x8A19A15198AC4CDB28CFFB5D64736F6C6343000811 STOP CALLER "
				},
				"gasEstimates": {
					"creation": {
						"codeDepositCost": "775600",
						"executionCost": "infinite",
						"totalCost": "infinite"
					},
					"external": {
						"checkAmt(address,uint256)": "infinite",
						"checkNationality((address,string,string,string,string,string,string,bool),(address,string,string,string,string,string,string,bool))": "infinite",
						"checkPoliticalStatus((address,string,string,string,string,string,string,bool),(address,string,string,string,string,string,string,bool))": "infinite",
						"checkWantedIndividual((address,string,string,string,string,string,string,bool),(address,string,string,string,string,string,string,bool),address)": "infinite"
					}
				},
				"methodIdentifiers": {
					"checkAmt(address,uint256)": "bd799295",
					"checkNationality((address,string,string,string,string,string,string,bool),(address,string,string,string,string,string,string,bool))": "dd0ae4d6",
					"checkPoliticalStatus((address,string,string,string,string,string,string,bool),(address,string,string,string,string,string,string,bool))": "f9e26ef6",
					"checkWantedIndividual((address,string,string,string,string,string,string,bool),(address,string,string,string,string,string,string,bool),address)": "4eb5f247"
				}
			},
			"storageLayout": {
				"storage": [
					{
						"astId": 34,
						"contract": "contracts/AusAML.sol:AusAML",
						"label": "bannedCountries",
						"offset": 0,
						"slot": "0",
						"type": "t_array(t_string_storage)dyn_storage"
					},
					{
						"astId": 39,
						"contract": "contracts/AusAML.sol:AusAML",
						"label": "wantedIndividuals",
						"offset": 0,
						"slot": "1",
						"type": "t_array(t_address)dyn_storage"
					},
					{
						"astId": 42,
						"contract": "contracts/AusAML.sol:AusAML",
						"label": "maxAmount",
						"offset": 0,
						"slot": "2",
						"type": "t_uint256"
					}
				],
				"types": {
					"t_address": {
						"encoding": "inplace",
						"label": "address",
						"numberOfBytes": "20"
					},
					"t_array(t_address)dyn_storage": {
						"base": "t_address",
						"encoding": "dynamic_array",
						"label": "address[]",
						"numberOfBytes": "32"
					},
					"t_array(t_string_storage)dyn_storage": {
						"base": "t_string_storage",
						"encoding": "dynamic_array",
						"label": "string[]",
						"numberOfBytes": "32"
					},
					"t_string_storage": {
						"encoding": "bytes",
						"label": "string",
						"numberOfBytes": "32"
					},
					"t_uint256": {
						"encoding": "inplace",
						"label": "uint256",
						"numberOfBytes": "32"
					}
				}
			},
			"userdoc": {
				"kind": "user",
				"methods": {},
				"version": 1
			}
		}
	}
}