{
	"contracts/SgAML.sol": {
		"SgAML": {
			"abi": [
				{
					"inputs": [
						{
							"internalType": "string",
							"name": "userNationality",
							"type": "string"
						}
					],
					"name": "checkNationality",
					"outputs": [
						{
							"internalType": "bool",
							"name": "",
							"type": "bool"
						}
					],
					"stateMutability": "view",
					"type": "function"
				},
				{
					"inputs": [
						{
							"internalType": "bool",
							"name": "isPoliticallyExposed",
							"type": "bool"
						}
					],
					"name": "checkPoliticalStatus",
					"outputs": [
						{
							"internalType": "bool",
							"name": "",
							"type": "bool"
						}
					],
					"stateMutability": "pure",
					"type": "function"
				}
			],
			"devdoc": {
				"kind": "dev",
				"methods": {},
				"version": 1
			},
			"evm": {
				"assembly": "    /* \"contracts/SgAML.sol\":60:849  contract SgAML{... */\n  mstore(0x40, 0x80)\n    /* \"contracts/SgAML.sol\":83:141  string[] bannedCountries = [\"Iraq\",\"North Korea\",\"Russia\"] */\n  mload(0x40)\n  dup1\n  0x60\n  add\n  0x40\n  mstore\n  dup1\n  mload(0x40)\n  dup1\n  0x40\n  add\n  0x40\n  mstore\n  dup1\n  0x04\n  dup2\n  mstore\n  0x20\n  add\n  0x4972617100000000000000000000000000000000000000000000000000000000\n  dup2\n  mstore\n  pop\n  dup2\n  mstore\n  0x20\n  add\n  mload(0x40)\n  dup1\n  0x40\n  add\n  0x40\n  mstore\n  dup1\n  0x0b\n  dup2\n  mstore\n  0x20\n  add\n  0x4e6f727468204b6f726561000000000000000000000000000000000000000000\n  dup2\n  mstore\n  pop\n  dup2\n  mstore\n  0x20\n  add\n  mload(0x40)\n  dup1\n  0x40\n  add\n  0x40\n  mstore\n  dup1\n  0x06\n  dup2\n  mstore\n  0x20\n  add\n  0x5275737369610000000000000000000000000000000000000000000000000000\n  dup2\n  mstore\n  pop\n  dup2\n  mstore\n  pop\n  0x00\n  swap1\n  0x03\n  tag_1\n  swap3\n  swap2\n  swap1\n  tag_2\n  jump\t// in\ntag_1:\n  pop\n    /* \"contracts/SgAML.sol\":60:849  contract SgAML{... */\n  callvalue\n  dup1\n  iszero\n  tag_3\n  jumpi\n  0x00\n  dup1\n  revert\ntag_3:\n  pop\n  jump(tag_4)\ntag_2:\n  dup3\n  dup1\n  sload\n  dup3\n  dup3\n  sstore\n  swap1\n  0x00\n  mstore\n  keccak256(0x00, 0x20)\n  swap1\n  dup2\n  add\n  swap3\n  dup3\n  iszero\n  tag_5\n  jumpi\n  swap2\n  0x20\n  mul\n  dup3\n  add\ntag_6:\n  dup3\n  dup2\n  gt\n  iszero\n  tag_7\n  jumpi\n  dup3\n  mload\n  dup3\n  swap1\n  dup2\n  tag_8\n  swap2\n  swap1\n  tag_9\n  jump\t// in\ntag_8:\n  pop\n  swap2\n  0x20\n  add\n  swap2\n  swap1\n  0x01\n  add\n  swap1\n  jump(tag_6)\ntag_7:\ntag_5:\n  pop\n  swap1\n  pop\n  tag_10\n  swap2\n  swap1\n  tag_11\n  jump\t// in\ntag_10:\n  pop\n  swap1\n  jump\t// out\ntag_11:\ntag_12:\n  dup1\n  dup3\n  gt\n  iszero\n  tag_13\n  jumpi\n  0x00\n  dup2\n  dup2\n  tag_14\n  swap2\n  swap1\n  tag_15\n  jump\t// in\ntag_14:\n  pop\n  0x01\n  add\n  jump(tag_12)\ntag_13:\n  pop\n  swap1\n  jump\t// out\ntag_15:\n  pop\n  dup1\n  sload\n  tag_16\n  swap1\n  tag_17\n  jump\t// in\ntag_16:\n  0x00\n  dup3\n  sstore\n  dup1\n  0x1f\n  lt\n  tag_19\n  jumpi\n  pop\n  jump(tag_18)\ntag_19:\n  0x1f\n  add\n  0x20\n  swap1\n  div\n  swap1\n  0x00\n  mstore\n  keccak256(0x00, 0x20)\n  swap1\n  dup2\n  add\n  swap1\n  tag_20\n  swap2\n  swap1\n  tag_21\n  jump\t// in\ntag_20:\ntag_18:\n  pop\n  jump\t// out\ntag_21:\ntag_22:\n  dup1\n  dup3\n  gt\n  iszero\n  tag_23\n  jumpi\n  0x00\n  dup2\n  0x00\n  swap1\n  sstore\n  pop\n  0x01\n  add\n  jump(tag_22)\ntag_23:\n  pop\n  swap1\n  jump\t// out\n    /* \"#utility.yul\":7:106   */\ntag_24:\n    /* \"#utility.yul\":59:65   */\n  0x00\n    /* \"#utility.yul\":93:98   */\n  dup2\n    /* \"#utility.yul\":87:99   */\n  mload\n    /* \"#utility.yul\":77:99   */\n  swap1\n  pop\n    /* \"#utility.yul\":7:106   */\n  swap2\n  swap1\n  pop\n  jump\t// out\n    /* \"#utility.yul\":112:292   */\ntag_25:\n    /* \"#utility.yul\":160:237   */\n  0x4e487b7100000000000000000000000000000000000000000000000000000000\n    /* \"#utility.yul\":157:158   */\n  0x00\n    /* \"#utility.yul\":150:238   */\n  mstore\n    /* \"#utility.yul\":257:261   */\n  0x41\n    /* \"#utility.yul\":254:255   */\n  0x04\n    /* \"#utility.yul\":247:262   */\n  mstore\n    /* \"#utility.yul\":281:285   */\n  0x24\n    /* \"#utility.yul\":278:279   */\n  0x00\n    /* \"#utility.yul\":271:286   */\n  revert\n    /* \"#utility.yul\":298:478   */\ntag_26:\n    /* \"#utility.yul\":346:423   */\n  0x4e487b7100000000000000000000000000000000000000000000000000000000\n    /* \"#utility.yul\":343:344   */\n  0x00\n    /* \"#utility.yul\":336:424   */\n  mstore\n    /* \"#utility.yul\":443:447   */\n  0x22\n    /* \"#utility.yul\":440:441   */\n  0x04\n    /* \"#utility.yul\":433:448   */\n  mstore\n    /* \"#utility.yul\":467:471   */\n  0x24\n    /* \"#utility.yul\":464:465   */\n  0x00\n    /* \"#utility.yul\":457:472   */\n  revert\n    /* \"#utility.yul\":484:804   */\ntag_17:\n    /* \"#utility.yul\":528:534   */\n  0x00\n    /* \"#utility.yul\":565:566   */\n  0x02\n    /* \"#utility.yul\":559:563   */\n  dup3\n    /* \"#utility.yul\":555:567   */\n  div\n    /* \"#utility.yul\":545:567   */\n  swap1\n  pop\n    /* \"#utility.yul\":612:613   */\n  0x01\n    /* \"#utility.yul\":606:610   */\n  dup3\n    /* \"#utility.yul\":602:614   */\n  and\n    /* \"#utility.yul\":633:651   */\n  dup1\n    /* \"#utility.yul\":623:704   */\n  tag_48\n  jumpi\n    /* \"#utility.yul\":689:693   */\n  0x7f\n    /* \"#utility.yul\":681:687   */\n  dup3\n    /* \"#utility.yul\":677:694   */\n  and\n    /* \"#utility.yul\":667:694   */\n  swap2\n  pop\n    /* \"#utility.yul\":623:704   */\ntag_48:\n    /* \"#utility.yul\":751:753   */\n  0x20\n    /* \"#utility.yul\":743:749   */\n  dup3\n    /* \"#utility.yul\":740:754   */\n  lt\n    /* \"#utility.yul\":720:738   */\n  dup2\n    /* \"#utility.yul\":717:755   */\n  sub\n    /* \"#utility.yul\":714:798   */\n  tag_49\n  jumpi\n    /* \"#utility.yul\":770:788   */\n  tag_50\n  tag_26\n  jump\t// in\ntag_50:\n    /* \"#utility.yul\":714:798   */\ntag_49:\n    /* \"#utility.yul\":535:804   */\n  pop\n    /* \"#utility.yul\":484:804   */\n  swap2\n  swap1\n  pop\n  jump\t// out\n    /* \"#utility.yul\":810:951   */\ntag_27:\n    /* \"#utility.yul\":859:863   */\n  0x00\n    /* \"#utility.yul\":882:885   */\n  dup2\n    /* \"#utility.yul\":874:885   */\n  swap1\n  pop\n    /* \"#utility.yul\":905:908   */\n  dup2\n    /* \"#utility.yul\":902:903   */\n  0x00\n    /* \"#utility.yul\":895:909   */\n  mstore\n    /* \"#utility.yul\":939:943   */\n  0x20\n    /* \"#utility.yul\":936:937   */\n  0x00\n    /* \"#utility.yul\":926:944   */\n  keccak256\n    /* \"#utility.yul\":918:944   */\n  swap1\n  pop\n    /* \"#utility.yul\":810:951   */\n  swap2\n  swap1\n  pop\n  jump\t// out\n    /* \"#utility.yul\":957:1050   */\ntag_28:\n    /* \"#utility.yul\":994:1000   */\n  0x00\n    /* \"#utility.yul\":1041:1043   */\n  0x20\n    /* \"#utility.yul\":1036:1038   */\n  0x1f\n    /* \"#utility.yul\":1029:1034   */\n  dup4\n    /* \"#utility.yul\":1025:1039   */\n  add\n    /* \"#utility.yul\":1021:1044   */\n  div\n    /* \"#utility.yul\":1011:1044   */\n  swap1\n  pop\n    /* \"#utility.yul\":957:1050   */\n  swap2\n  swap1\n  pop\n  jump\t// out\n    /* \"#utility.yul\":1056:1163   */\ntag_29:\n    /* \"#utility.yul\":1100:1108   */\n  0x00\n    /* \"#utility.yul\":1150:1155   */\n  dup3\n    /* \"#utility.yul\":1144:1148   */\n  dup3\n    /* \"#utility.yul\":1140:1156   */\n  shl\n    /* \"#utility.yul\":1119:1156   */\n  swap1\n  pop\n    /* \"#utility.yul\":1056:1163   */\n  swap3\n  swap2\n  pop\n  pop\n  jump\t// out\n    /* \"#utility.yul\":1169:1562   */\ntag_30:\n    /* \"#utility.yul\":1238:1244   */\n  0x00\n    /* \"#utility.yul\":1288:1289   */\n  0x08\n    /* \"#utility.yul\":1276:1286   */\n  dup4\n    /* \"#utility.yul\":1272:1290   */\n  mul\n    /* \"#utility.yul\":1311:1408   */\n  tag_55\n    /* \"#utility.yul\":1341:1407   */\n  0xffffffffffffffffffffffffffffffffffffffffffffffffffffffffffffffff\n    /* \"#utility.yul\":1330:1339   */\n  dup3\n    /* \"#utility.yul\":1311:1408   */\n  tag_29\n  jump\t// in\ntag_55:\n    /* \"#utility.yul\":1429:1468   */\n  tag_56\n    /* \"#utility.yul\":1459:1467   */\n  dup7\n    /* \"#utility.yul\":1448:1457   */\n  dup4\n    /* \"#utility.yul\":1429:1468   */\n  tag_29\n  jump\t// in\ntag_56:\n    /* \"#utility.yul\":1417:1468   */\n  swap6\n  pop\n    /* \"#utility.yul\":1501:1505   */\n  dup1\n    /* \"#utility.yul\":1497:1506   */\n  not\n    /* \"#utility.yul\":1490:1495   */\n  dup5\n    /* \"#utility.yul\":1486:1507   */\n  and\n    /* \"#utility.yul\":1477:1507   */\n  swap4\n  pop\n    /* \"#utility.yul\":1550:1554   */\n  dup1\n    /* \"#utility.yul\":1540:1548   */\n  dup7\n    /* \"#utility.yul\":1536:1555   */\n  and\n    /* \"#utility.yul\":1529:1534   */\n  dup5\n    /* \"#utility.yul\":1526:1556   */\n  or\n    /* \"#utility.yul\":1516:1556   */\n  swap3\n  pop\n    /* \"#utility.yul\":1245:1562   */\n  pop\n  pop\n    /* \"#utility.yul\":1169:1562   */\n  swap4\n  swap3\n  pop\n  pop\n  pop\n  jump\t// out\n    /* \"#utility.yul\":1568:1645   */\ntag_31:\n    /* \"#utility.yul\":1605:1612   */\n  0x00\n    /* \"#utility.yul\":1634:1639   */\n  dup2\n    /* \"#utility.yul\":1623:1639   */\n  swap1\n  pop\n    /* \"#utility.yul\":1568:1645   */\n  swap2\n  swap1\n  pop\n  jump\t// out\n    /* \"#utility.yul\":1651:1711   */\ntag_32:\n    /* \"#utility.yul\":1679:1682   */\n  0x00\n    /* \"#utility.yul\":1700:1705   */\n  dup2\n    /* \"#utility.yul\":1693:1705   */\n  swap1\n  pop\n    /* \"#utility.yul\":1651:1711   */\n  swap2\n  swap1\n  pop\n  jump\t// out\n    /* \"#utility.yul\":1717:1859   */\ntag_33:\n    /* \"#utility.yul\":1767:1776   */\n  0x00\n    /* \"#utility.yul\":1800:1853   */\n  tag_60\n    /* \"#utility.yul\":1818:1852   */\n  tag_61\n    /* \"#utility.yul\":1827:1851   */\n  tag_62\n    /* \"#utility.yul\":1845:1850   */\n  dup5\n    /* \"#utility.yul\":1827:1851   */\n  tag_31\n  jump\t// in\ntag_62:\n    /* \"#utility.yul\":1818:1852   */\n  tag_32\n  jump\t// in\ntag_61:\n    /* \"#utility.yul\":1800:1853   */\n  tag_31\n  jump\t// in\ntag_60:\n    /* \"#utility.yul\":1787:1853   */\n  swap1\n  pop\n    /* \"#utility.yul\":1717:1859   */\n  swap2\n  swap1\n  pop\n  jump\t// out\n    /* \"#utility.yul\":1865:1940   */\ntag_34:\n    /* \"#utility.yul\":1908:1911   */\n  0x00\n    /* \"#utility.yul\":1929:1934   */\n  dup2\n    /* \"#utility.yul\":1922:1934   */\n  swap1\n  pop\n    /* \"#utility.yul\":1865:1940   */\n  swap2\n  swap1\n  pop\n  jump\t// out\n    /* \"#utility.yul\":1946:2215   */\ntag_35:\n    /* \"#utility.yul\":2056:2095   */\n  tag_65\n    /* \"#utility.yul\":2087:2094   */\n  dup4\n    /* \"#utility.yul\":2056:2095   */\n  tag_33\n  jump\t// in\ntag_65:\n    /* \"#utility.yul\":2117:2208   */\n  tag_66\n    /* \"#utility.yul\":2166:2207   */\n  tag_67\n    /* \"#utility.yul\":2190:2206   */\n  dup3\n    /* \"#utility.yul\":2166:2207   */\n  tag_34\n  jump\t// in\ntag_67:\n    /* \"#utility.yul\":2158:2164   */\n  dup5\n    /* \"#utility.yul\":2151:2155   */\n  dup5\n    /* \"#utility.yul\":2145:2156   */\n  sload\n    /* \"#utility.yul\":2117:2208   */\n  tag_30\n  jump\t// in\ntag_66:\n    /* \"#utility.yul\":2111:2115   */\n  dup3\n    /* \"#utility.yul\":2104:2209   */\n  sstore\n    /* \"#utility.yul\":2022:2215   */\n  pop\n    /* \"#utility.yul\":1946:2215   */\n  pop\n  pop\n  pop\n  jump\t// out\n    /* \"#utility.yul\":2221:2294   */\ntag_36:\n    /* \"#utility.yul\":2266:2269   */\n  0x00\n    /* \"#utility.yul\":2221:2294   */\n  swap1\n  jump\t// out\n    /* \"#utility.yul\":2300:2489   */\ntag_37:\n    /* \"#utility.yul\":2377:2409   */\n  tag_70\n  tag_36\n  jump\t// in\ntag_70:\n    /* \"#utility.yul\":2418:2483   */\n  tag_71\n    /* \"#utility.yul\":2476:2482   */\n  dup2\n    /* \"#utility.yul\":2468:2474   */\n  dup5\n    /* \"#utility.yul\":2462:2466   */\n  dup5\n    /* \"#utility.yul\":2418:2483   */\n  tag_35\n  jump\t// in\ntag_71:\n    /* \"#utility.yul\":2353:2489   */\n  pop\n    /* \"#utility.yul\":2300:2489   */\n  pop\n  pop\n  jump\t// out\n    /* \"#utility.yul\":2495:2681   */\ntag_38:\n    /* \"#utility.yul\":2555:2675   */\ntag_73:\n    /* \"#utility.yul\":2572:2575   */\n  dup2\n    /* \"#utility.yul\":2565:2570   */\n  dup2\n    /* \"#utility.yul\":2562:2576   */\n  lt\n    /* \"#utility.yul\":2555:2675   */\n  iszero\n  tag_75\n  jumpi\n    /* \"#utility.yul\":2626:2665   */\n  tag_76\n    /* \"#utility.yul\":2663:2664   */\n  0x00\n    /* \"#utility.yul\":2656:2661   */\n  dup3\n    /* \"#utility.yul\":2626:2665   */\n  tag_37\n  jump\t// in\ntag_76:\n    /* \"#utility.yul\":2599:2600   */\n  0x01\n    /* \"#utility.yul\":2592:2597   */\n  dup2\n    /* \"#utility.yul\":2588:2601   */\n  add\n    /* \"#utility.yul\":2579:2601   */\n  swap1\n  pop\n    /* \"#utility.yul\":2555:2675   */\n  jump(tag_73)\ntag_75:\n    /* \"#utility.yul\":2495:2681   */\n  pop\n  pop\n  jump\t// out\n    /* \"#utility.yul\":2687:3230   */\ntag_39:\n    /* \"#utility.yul\":2788:2790   */\n  0x1f\n    /* \"#utility.yul\":2783:2786   */\n  dup3\n    /* \"#utility.yul\":2780:2791   */\n  gt\n    /* \"#utility.yul\":2777:3223   */\n  iszero\n  tag_78\n  jumpi\n    /* \"#utility.yul\":2822:2860   */\n  tag_79\n    /* \"#utility.yul\":2854:2859   */\n  dup2\n    /* \"#utility.yul\":2822:2860   */\n  tag_27\n  jump\t// in\ntag_79:\n    /* \"#utility.yul\":2906:2935   */\n  tag_80\n    /* \"#utility.yul\":2924:2934   */\n  dup5\n    /* \"#utility.yul\":2906:2935   */\n  tag_28\n  jump\t// in\ntag_80:\n    /* \"#utility.yul\":2896:2904   */\n  dup2\n    /* \"#utility.yul\":2892:2936   */\n  add\n    /* \"#utility.yul\":3089:3091   */\n  0x20\n    /* \"#utility.yul\":3077:3087   */\n  dup6\n    /* \"#utility.yul\":3074:3092   */\n  lt\n    /* \"#utility.yul\":3071:3120   */\n  iszero\n  tag_81\n  jumpi\n    /* \"#utility.yul\":3110:3118   */\n  dup2\n    /* \"#utility.yul\":3095:3118   */\n  swap1\n  pop\n    /* \"#utility.yul\":3071:3120   */\ntag_81:\n    /* \"#utility.yul\":3133:3213   */\n  tag_82\n    /* \"#utility.yul\":3189:3211   */\n  tag_83\n    /* \"#utility.yul\":3207:3210   */\n  dup6\n    /* \"#utility.yul\":3189:3211   */\n  tag_28\n  jump\t// in\ntag_83:\n    /* \"#utility.yul\":3179:3187   */\n  dup4\n    /* \"#utility.yul\":3175:3212   */\n  add\n    /* \"#utility.yul\":3162:3173   */\n  dup3\n    /* \"#utility.yul\":3133:3213   */\n  tag_38\n  jump\t// in\ntag_82:\n    /* \"#utility.yul\":2792:3223   */\n  pop\n  pop\n    /* \"#utility.yul\":2777:3223   */\ntag_78:\n    /* \"#utility.yul\":2687:3230   */\n  pop\n  pop\n  pop\n  jump\t// out\n    /* \"#utility.yul\":3236:3353   */\ntag_40:\n    /* \"#utility.yul\":3290:3298   */\n  0x00\n    /* \"#utility.yul\":3340:3345   */\n  dup3\n    /* \"#utility.yul\":3334:3338   */\n  dup3\n    /* \"#utility.yul\":3330:3346   */\n  shr\n    /* \"#utility.yul\":3309:3346   */\n  swap1\n  pop\n    /* \"#utility.yul\":3236:3353   */\n  swap3\n  swap2\n  pop\n  pop\n  jump\t// out\n    /* \"#utility.yul\":3359:3528   */\ntag_41:\n    /* \"#utility.yul\":3403:3409   */\n  0x00\n    /* \"#utility.yul\":3436:3487   */\n  tag_86\n    /* \"#utility.yul\":3484:3485   */\n  0x00\n    /* \"#utility.yul\":3480:3486   */\n  not\n    /* \"#utility.yul\":3472:3477   */\n  dup5\n    /* \"#utility.yul\":3469:3470   */\n  0x08\n    /* \"#utility.yul\":3465:3478   */\n  mul\n    /* \"#utility.yul\":3436:3487   */\n  tag_40\n  jump\t// in\ntag_86:\n    /* \"#utility.yul\":3432:3488   */\n  not\n    /* \"#utility.yul\":3517:3521   */\n  dup1\n    /* \"#utility.yul\":3511:3515   */\n  dup4\n    /* \"#utility.yul\":3507:3522   */\n  and\n    /* \"#utility.yul\":3497:3522   */\n  swap2\n  pop\n    /* \"#utility.yul\":3410:3528   */\n  pop\n    /* \"#utility.yul\":3359:3528   */\n  swap3\n  swap2\n  pop\n  pop\n  jump\t// out\n    /* \"#utility.yul\":3533:3828   */\ntag_42:\n    /* \"#utility.yul\":3609:3613   */\n  0x00\n    /* \"#utility.yul\":3755:3784   */\n  tag_88\n    /* \"#utility.yul\":3780:3783   */\n  dup4\n    /* \"#utility.yul\":3774:3778   */\n  dup4\n    /* \"#utility.yul\":3755:3784   */\n  tag_41\n  jump\t// in\ntag_88:\n    /* \"#utility.yul\":3747:3784   */\n  swap2\n  pop\n    /* \"#utility.yul\":3817:3820   */\n  dup3\n    /* \"#utility.yul\":3814:3815   */\n  0x02\n    /* \"#utility.yul\":3810:3821   */\n  mul\n    /* \"#utility.yul\":3804:3808   */\n  dup3\n    /* \"#utility.yul\":3801:3822   */\n  or\n    /* \"#utility.yul\":3793:3822   */\n  swap1\n  pop\n    /* \"#utility.yul\":3533:3828   */\n  swap3\n  swap2\n  pop\n  pop\n  jump\t// out\n    /* \"#utility.yul\":3833:5228   */\ntag_9:\n    /* \"#utility.yul\":3950:3987   */\n  tag_90\n    /* \"#utility.yul\":3983:3986   */\n  dup3\n    /* \"#utility.yul\":3950:3987   */\n  tag_24\n  jump\t// in\ntag_90:\n    /* \"#utility.yul\":4052:4070   */\n  0xffffffffffffffff\n    /* \"#utility.yul\":4044:4050   */\n  dup2\n    /* \"#utility.yul\":4041:4071   */\n  gt\n    /* \"#utility.yul\":4038:4094   */\n  iszero\n  tag_91\n  jumpi\n    /* \"#utility.yul\":4074:4092   */\n  tag_92\n  tag_25\n  jump\t// in\ntag_92:\n    /* \"#utility.yul\":4038:4094   */\ntag_91:\n    /* \"#utility.yul\":4118:4156   */\n  tag_93\n    /* \"#utility.yul\":4150:4154   */\n  dup3\n    /* \"#utility.yul\":4144:4155   */\n  sload\n    /* \"#utility.yul\":4118:4156   */\n  tag_17\n  jump\t// in\ntag_93:\n    /* \"#utility.yul\":4203:4270   */\n  tag_94\n    /* \"#utility.yul\":4263:4269   */\n  dup3\n    /* \"#utility.yul\":4255:4261   */\n  dup3\n    /* \"#utility.yul\":4249:4253   */\n  dup6\n    /* \"#utility.yul\":4203:4270   */\n  tag_39\n  jump\t// in\ntag_94:\n    /* \"#utility.yul\":4297:4298   */\n  0x00\n    /* \"#utility.yul\":4321:4325   */\n  0x20\n    /* \"#utility.yul\":4308:4325   */\n  swap1\n  pop\n    /* \"#utility.yul\":4353:4355   */\n  0x1f\n    /* \"#utility.yul\":4345:4351   */\n  dup4\n    /* \"#utility.yul\":4342:4356   */\n  gt\n    /* \"#utility.yul\":4370:4371   */\n  0x01\n    /* \"#utility.yul\":4365:4983   */\n  dup2\n  eq\n  tag_96\n  jumpi\n    /* \"#utility.yul\":5027:5028   */\n  0x00\n    /* \"#utility.yul\":5044:5050   */\n  dup5\n    /* \"#utility.yul\":5041:5118   */\n  iszero\n  tag_97\n  jumpi\n    /* \"#utility.yul\":5093:5102   */\n  dup3\n    /* \"#utility.yul\":5088:5091   */\n  dup8\n    /* \"#utility.yul\":5084:5103   */\n  add\n    /* \"#utility.yul\":5078:5104   */\n  mload\n    /* \"#utility.yul\":5069:5104   */\n  swap1\n  pop\n    /* \"#utility.yul\":5041:5118   */\ntag_97:\n    /* \"#utility.yul\":5144:5211   */\n  tag_98\n    /* \"#utility.yul\":5204:5210   */\n  dup6\n    /* \"#utility.yul\":5197:5202   */\n  dup3\n    /* \"#utility.yul\":5144:5211   */\n  tag_42\n  jump\t// in\ntag_98:\n    /* \"#utility.yul\":5138:5142   */\n  dup7\n    /* \"#utility.yul\":5131:5212   */\n  sstore\n    /* \"#utility.yul\":5000:5222   */\n  pop\n    /* \"#utility.yul\":4335:5222   */\n  jump(tag_95)\n    /* \"#utility.yul\":4365:4983   */\ntag_96:\n    /* \"#utility.yul\":4417:4421   */\n  0x1f\n    /* \"#utility.yul\":4413:4422   */\n  not\n    /* \"#utility.yul\":4405:4411   */\n  dup5\n    /* \"#utility.yul\":4401:4423   */\n  and\n    /* \"#utility.yul\":4451:4488   */\n  tag_99\n    /* \"#utility.yul\":4483:4487   */\n  dup7\n    /* \"#utility.yul\":4451:4488   */\n  tag_27\n  jump\t// in\ntag_99:\n    /* \"#utility.yul\":4510:4511   */\n  0x00\n    /* \"#utility.yul\":4524:4732   */\ntag_100:\n    /* \"#utility.yul\":4538:4545   */\n  dup3\n    /* \"#utility.yul\":4535:4536   */\n  dup2\n    /* \"#utility.yul\":4532:4546   */\n  lt\n    /* \"#utility.yul\":4524:4732   */\n  iszero\n  tag_102\n  jumpi\n    /* \"#utility.yul\":4617:4626   */\n  dup5\n    /* \"#utility.yul\":4612:4615   */\n  dup10\n    /* \"#utility.yul\":4608:4627   */\n  add\n    /* \"#utility.yul\":4602:4628   */\n  mload\n    /* \"#utility.yul\":4594:4600   */\n  dup3\n    /* \"#utility.yul\":4587:4629   */\n  sstore\n    /* \"#utility.yul\":4668:4669   */\n  0x01\n    /* \"#utility.yul\":4660:4666   */\n  dup3\n    /* \"#utility.yul\":4656:4670   */\n  add\n    /* \"#utility.yul\":4646:4670   */\n  swap2\n  pop\n    /* \"#utility.yul\":4715:4717   */\n  0x20\n    /* \"#utility.yul\":4704:4713   */\n  dup6\n    /* \"#utility.yul\":4700:4718   */\n  add\n    /* \"#utility.yul\":4687:4718   */\n  swap5\n  pop\n    /* \"#utility.yul\":4561:4565   */\n  0x20\n    /* \"#utility.yul\":4558:4559   */\n  dup2\n    /* \"#utility.yul\":4554:4566   */\n  add\n    /* \"#utility.yul\":4549:4566   */\n  swap1\n  pop\n    /* \"#utility.yul\":4524:4732   */\n  jump(tag_100)\ntag_102:\n    /* \"#utility.yul\":4760:4766   */\n  dup7\n    /* \"#utility.yul\":4751:4758   */\n  dup4\n    /* \"#utility.yul\":4748:4767   */\n  lt\n    /* \"#utility.yul\":4745:4924   */\n  iszero\n  tag_103\n  jumpi\n    /* \"#utility.yul\":4818:4827   */\n  dup5\n    /* \"#utility.yul\":4813:4816   */\n  dup10\n    /* \"#utility.yul\":4809:4828   */\n  add\n    /* \"#utility.yul\":4803:4829   */\n  mload\n    /* \"#utility.yul\":4861:4909   */\n  tag_104\n    /* \"#utility.yul\":4903:4907   */\n  0x1f\n    /* \"#utility.yul\":4895:4901   */\n  dup10\n    /* \"#utility.yul\":4891:4908   */\n  and\n    /* \"#utility.yul\":4880:4889   */\n  dup3\n    /* \"#utility.yul\":4861:4909   */\n  tag_41\n  jump\t// in\ntag_104:\n    /* \"#utility.yul\":4853:4859   */\n  dup4\n    /* \"#utility.yul\":4846:4910   */\n  sstore\n    /* \"#utility.yul\":4768:4924   */\n  pop\n    /* \"#utility.yul\":4745:4924   */\ntag_103:\n    /* \"#utility.yul\":4970:4971   */\n  0x01\n    /* \"#utility.yul\":4966:4967   */\n  0x02\n    /* \"#utility.yul\":4958:4964   */\n  dup9\n    /* \"#utility.yul\":4954:4968   */\n  mul\n    /* \"#utility.yul\":4950:4972   */\n  add\n    /* \"#utility.yul\":4944:4948   */\n  dup9\n    /* \"#utility.yul\":4937:4973   */\n  sstore\n    /* \"#utility.yul\":4372:4983   */\n  pop\n  pop\n  pop\n    /* \"#utility.yul\":4335:5222   */\ntag_95:\n  pop\n    /* \"#utility.yul\":3925:5228   */\n  pop\n  pop\n  pop\n    /* \"#utility.yul\":3833:5228   */\n  pop\n  pop\n  jump\t// out\n    /* \"contracts/SgAML.sol\":60:849  contract SgAML{... */\ntag_4:\n  dataSize(sub_0)\n  dup1\n  dataOffset(sub_0)\n  0x00\n  codecopy\n  0x00\n  return\nstop\n\nsub_0: assembly {\n        /* \"contracts/SgAML.sol\":60:849  contract SgAML{... */\n      mstore(0x40, 0x80)\n      callvalue\n      dup1\n      iszero\n      tag_1\n      jumpi\n      0x00\n      dup1\n      revert\n    tag_1:\n      pop\n      jumpi(tag_2, lt(calldatasize, 0x04))\n      shr(0xe0, calldataload(0x00))\n      dup1\n      0x708c079d\n      eq\n      tag_3\n      jumpi\n      dup1\n      0x7b0b53f0\n      eq\n      tag_4\n      jumpi\n    tag_2:\n      0x00\n      dup1\n      revert\n        /* \"contracts/SgAML.sol\":561:840  function checkPoliticalStatus(bool isPoliticallyExposed) public pure returns(bool){... */\n    tag_3:\n      tag_5\n      0x04\n      dup1\n      calldatasize\n      sub\n      dup2\n      add\n      swap1\n      tag_6\n      swap2\n      swap1\n      tag_7\n      jump\t// in\n    tag_6:\n      tag_8\n      jump\t// in\n    tag_5:\n      mload(0x40)\n      tag_9\n      swap2\n      swap1\n      tag_10\n      jump\t// in\n    tag_9:\n      mload(0x40)\n      dup1\n      swap2\n      sub\n      swap1\n      return\n        /* \"contracts/SgAML.sol\":152:551  function checkNationality(string memory userNationality) public view returns(bool){... */\n    tag_4:\n      tag_11\n      0x04\n      dup1\n      calldatasize\n      sub\n      dup2\n      add\n      swap1\n      tag_12\n      swap2\n      swap1\n      tag_13\n      jump\t// in\n    tag_12:\n      tag_14\n      jump\t// in\n    tag_11:\n      mload(0x40)\n      tag_15\n      swap2\n      swap1\n      tag_10\n      jump\t// in\n    tag_15:\n      mload(0x40)\n      dup1\n      swap2\n      sub\n      swap1\n      return\n        /* \"contracts/SgAML.sol\":561:840  function checkPoliticalStatus(bool isPoliticallyExposed) public pure returns(bool){... */\n    tag_8:\n        /* \"contracts/SgAML.sol\":638:642  bool */\n      0x00\n        /* \"contracts/SgAML.sol\":561:840  function checkPoliticalStatus(bool isPoliticallyExposed) public pure returns(bool){... */\n      swap2\n      swap1\n      pop\n      jump\t// out\n        /* \"contracts/SgAML.sol\":152:551  function checkNationality(string memory userNationality) public view returns(bool){... */\n    tag_14:\n        /* \"contracts/SgAML.sol\":229:233  bool */\n      0x00\n        /* \"contracts/SgAML.sol\":307:313  uint i */\n      dup1\n        /* \"contracts/SgAML.sol\":316:317  0 */\n      0x00\n        /* \"contracts/SgAML.sol\":307:317  uint i = 0 */\n      swap1\n      pop\n        /* \"contracts/SgAML.sol\":302:521  for (uint i = 0; i < bannedCountries.length; i++) {... */\n    tag_18:\n        /* \"contracts/SgAML.sol\":323:338  bannedCountries */\n      0x00\n        /* \"contracts/SgAML.sol\":323:345  bannedCountries.length */\n      dup1\n      sload\n      swap1\n      pop\n        /* \"contracts/SgAML.sol\":319:320  i */\n      dup2\n        /* \"contracts/SgAML.sol\":319:345  i < bannedCountries.length */\n      lt\n        /* \"contracts/SgAML.sol\":302:521  for (uint i = 0; i < bannedCountries.length; i++) {... */\n      iszero\n      tag_19\n      jumpi\n        /* \"contracts/SgAML.sol\":449:464  userNationality */\n      dup3\n        /* \"contracts/SgAML.sol\":432:465  abi.encodePacked(userNationality) */\n      add(0x20, mload(0x40))\n      tag_21\n      swap2\n      swap1\n      tag_22\n      jump\t// in\n    tag_21:\n      mload(0x40)\n      0x20\n      dup2\n      dup4\n      sub\n      sub\n      dup2\n      mstore\n      swap1\n      0x40\n      mstore\n        /* \"contracts/SgAML.sol\":422:466  keccak256(abi.encodePacked(userNationality)) */\n      dup1\n      mload\n      swap1\n      0x20\n      add\n      keccak256\n        /* \"contracts/SgAML.sol\":398:413  bannedCountries */\n      0x00\n        /* \"contracts/SgAML.sol\":414:415  i */\n      dup3\n        /* \"contracts/SgAML.sol\":398:416  bannedCountries[i] */\n      dup2\n      sload\n      dup2\n      lt\n      tag_23\n      jumpi\n      tag_24\n      tag_25\n      jump\t// in\n    tag_24:\n    tag_23:\n      swap1\n      0x00\n      mstore\n      keccak256(0x00, 0x20)\n      add\n        /* \"contracts/SgAML.sol\":381:417  abi.encodePacked(bannedCountries[i]) */\n      add(0x20, mload(0x40))\n      tag_27\n      swap2\n      swap1\n      tag_28\n      jump\t// in\n    tag_27:\n      mload(0x40)\n      0x20\n      dup2\n      dup4\n      sub\n      sub\n      dup2\n      mstore\n      swap1\n      0x40\n      mstore\n        /* \"contracts/SgAML.sol\":371:418  keccak256(abi.encodePacked(bannedCountries[i])) */\n      dup1\n      mload\n      swap1\n      0x20\n      add\n      keccak256\n        /* \"contracts/SgAML.sol\":371:466  keccak256(abi.encodePacked(bannedCountries[i])) == keccak256(abi.encodePacked(userNationality)) */\n      sub\n        /* \"contracts/SgAML.sol\":367:510  if (keccak256(abi.encodePacked(bannedCountries[i])) == keccak256(abi.encodePacked(userNationality))) {... */\n      tag_29\n      jumpi\n        /* \"contracts/SgAML.sol\":490:494  true */\n      0x01\n        /* \"contracts/SgAML.sol\":483:494  return true */\n      swap2\n      pop\n      pop\n      jump(tag_17)\n        /* \"contracts/SgAML.sol\":367:510  if (keccak256(abi.encodePacked(bannedCountries[i])) == keccak256(abi.encodePacked(userNationality))) {... */\n    tag_29:\n        /* \"contracts/SgAML.sol\":347:350  i++ */\n      dup1\n      dup1\n      tag_30\n      swap1\n      tag_31\n      jump\t// in\n    tag_30:\n      swap2\n      pop\n      pop\n        /* \"contracts/SgAML.sol\":302:521  for (uint i = 0; i < bannedCountries.length; i++) {... */\n      jump(tag_18)\n    tag_19:\n      pop\n        /* \"contracts/SgAML.sol\":538:543  false */\n      0x00\n        /* \"contracts/SgAML.sol\":531:543  return false */\n      swap1\n      pop\n        /* \"contracts/SgAML.sol\":152:551  function checkNationality(string memory userNationality) public view returns(bool){... */\n    tag_17:\n      swap2\n      swap1\n      pop\n      jump\t// out\n        /* \"#utility.yul\":7:82   */\n    tag_32:\n        /* \"#utility.yul\":40:46   */\n      0x00\n        /* \"#utility.yul\":73:75   */\n      0x40\n        /* \"#utility.yul\":67:76   */\n      mload\n        /* \"#utility.yul\":57:76   */\n      swap1\n      pop\n        /* \"#utility.yul\":7:82   */\n      swap1\n      jump\t// out\n        /* \"#utility.yul\":88:205   */\n    tag_33:\n        /* \"#utility.yul\":197:198   */\n      0x00\n        /* \"#utility.yul\":194:195   */\n      dup1\n        /* \"#utility.yul\":187:199   */\n      revert\n        /* \"#utility.yul\":211:328   */\n    tag_34:\n        /* \"#utility.yul\":320:321   */\n      0x00\n        /* \"#utility.yul\":317:318   */\n      dup1\n        /* \"#utility.yul\":310:322   */\n      revert\n        /* \"#utility.yul\":334:424   */\n    tag_35:\n        /* \"#utility.yul\":368:375   */\n      0x00\n        /* \"#utility.yul\":411:416   */\n      dup2\n        /* \"#utility.yul\":404:417   */\n      iszero\n        /* \"#utility.yul\":397:418   */\n      iszero\n        /* \"#utility.yul\":386:418   */\n      swap1\n      pop\n        /* \"#utility.yul\":334:424   */\n      swap2\n      swap1\n      pop\n      jump\t// out\n        /* \"#utility.yul\":430:546   */\n    tag_36:\n        /* \"#utility.yul\":500:521   */\n      tag_65\n        /* \"#utility.yul\":515:520   */\n      dup2\n        /* \"#utility.yul\":500:521   */\n      tag_35\n      jump\t// in\n    tag_65:\n        /* \"#utility.yul\":493:498   */\n      dup2\n        /* \"#utility.yul\":490:522   */\n      eq\n        /* \"#utility.yul\":480:540   */\n      tag_66\n      jumpi\n        /* \"#utility.yul\":536:537   */\n      0x00\n        /* \"#utility.yul\":533:534   */\n      dup1\n        /* \"#utility.yul\":526:538   */\n      revert\n        /* \"#utility.yul\":480:540   */\n    tag_66:\n        /* \"#utility.yul\":430:546   */\n      pop\n      jump\t// out\n        /* \"#utility.yul\":552:685   */\n    tag_37:\n        /* \"#utility.yul\":595:600   */\n      0x00\n        /* \"#utility.yul\":633:639   */\n      dup2\n        /* \"#utility.yul\":620:640   */\n      calldataload\n        /* \"#utility.yul\":611:640   */\n      swap1\n      pop\n        /* \"#utility.yul\":649:679   */\n      tag_68\n        /* \"#utility.yul\":673:678   */\n      dup2\n        /* \"#utility.yul\":649:679   */\n      tag_36\n      jump\t// in\n    tag_68:\n        /* \"#utility.yul\":552:685   */\n      swap3\n      swap2\n      pop\n      pop\n      jump\t// out\n        /* \"#utility.yul\":691:1014   */\n    tag_7:\n        /* \"#utility.yul\":747:753   */\n      0x00\n        /* \"#utility.yul\":796:798   */\n      0x20\n        /* \"#utility.yul\":784:793   */\n      dup3\n        /* \"#utility.yul\":775:782   */\n      dup5\n        /* \"#utility.yul\":771:794   */\n      sub\n        /* \"#utility.yul\":767:799   */\n      slt\n        /* \"#utility.yul\":764:883   */\n      iszero\n      tag_70\n      jumpi\n        /* \"#utility.yul\":802:881   */\n      tag_71\n      tag_33\n      jump\t// in\n    tag_71:\n        /* \"#utility.yul\":764:883   */\n    tag_70:\n        /* \"#utility.yul\":922:923   */\n      0x00\n        /* \"#utility.yul\":947:997   */\n      tag_72\n        /* \"#utility.yul\":989:996   */\n      dup5\n        /* \"#utility.yul\":980:986   */\n      dup3\n        /* \"#utility.yul\":969:978   */\n      dup6\n        /* \"#utility.yul\":965:987   */\n      add\n        /* \"#utility.yul\":947:997   */\n      tag_37\n      jump\t// in\n    tag_72:\n        /* \"#utility.yul\":937:997   */\n      swap2\n      pop\n        /* \"#utility.yul\":893:1007   */\n      pop\n        /* \"#utility.yul\":691:1014   */\n      swap3\n      swap2\n      pop\n      pop\n      jump\t// out\n        /* \"#utility.yul\":1020:1129   */\n    tag_38:\n        /* \"#utility.yul\":1101:1122   */\n      tag_74\n        /* \"#utility.yul\":1116:1121   */\n      dup2\n        /* \"#utility.yul\":1101:1122   */\n      tag_35\n      jump\t// in\n    tag_74:\n        /* \"#utility.yul\":1096:1099   */\n      dup3\n        /* \"#utility.yul\":1089:1123   */\n      mstore\n        /* \"#utility.yul\":1020:1129   */\n      pop\n      pop\n      jump\t// out\n        /* \"#utility.yul\":1135:1345   */\n    tag_10:\n        /* \"#utility.yul\":1222:1226   */\n      0x00\n        /* \"#utility.yul\":1260:1262   */\n      0x20\n        /* \"#utility.yul\":1249:1258   */\n      dup3\n        /* \"#utility.yul\":1245:1263   */\n      add\n        /* \"#utility.yul\":1237:1263   */\n      swap1\n      pop\n        /* \"#utility.yul\":1273:1338   */\n      tag_76\n        /* \"#utility.yul\":1335:1336   */\n      0x00\n        /* \"#utility.yul\":1324:1333   */\n      dup4\n        /* \"#utility.yul\":1320:1337   */\n      add\n        /* \"#utility.yul\":1311:1317   */\n      dup5\n        /* \"#utility.yul\":1273:1338   */\n      tag_38\n      jump\t// in\n    tag_76:\n        /* \"#utility.yul\":1135:1345   */\n      swap3\n      swap2\n      pop\n      pop\n      jump\t// out\n        /* \"#utility.yul\":1351:1468   */\n    tag_39:\n        /* \"#utility.yul\":1460:1461   */\n      0x00\n        /* \"#utility.yul\":1457:1458   */\n      dup1\n        /* \"#utility.yul\":1450:1462   */\n      revert\n        /* \"#utility.yul\":1474:1591   */\n    tag_40:\n        /* \"#utility.yul\":1583:1584   */\n      0x00\n        /* \"#utility.yul\":1580:1581   */\n      dup1\n        /* \"#utility.yul\":1573:1585   */\n      revert\n        /* \"#utility.yul\":1597:1699   */\n    tag_41:\n        /* \"#utility.yul\":1638:1644   */\n      0x00\n        /* \"#utility.yul\":1689:1691   */\n      0x1f\n        /* \"#utility.yul\":1685:1692   */\n      not\n        /* \"#utility.yul\":1680:1682   */\n      0x1f\n        /* \"#utility.yul\":1673:1678   */\n      dup4\n        /* \"#utility.yul\":1669:1683   */\n      add\n        /* \"#utility.yul\":1665:1693   */\n      and\n        /* \"#utility.yul\":1655:1693   */\n      swap1\n      pop\n        /* \"#utility.yul\":1597:1699   */\n      swap2\n      swap1\n      pop\n      jump\t// out\n        /* \"#utility.yul\":1705:1885   */\n    tag_42:\n        /* \"#utility.yul\":1753:1830   */\n      0x4e487b7100000000000000000000000000000000000000000000000000000000\n        /* \"#utility.yul\":1750:1751   */\n      0x00\n        /* \"#utility.yul\":1743:1831   */\n      mstore\n        /* \"#utility.yul\":1850:1854   */\n      0x41\n        /* \"#utility.yul\":1847:1848   */\n      0x04\n        /* \"#utility.yul\":1840:1855   */\n      mstore\n        /* \"#utility.yul\":1874:1878   */\n      0x24\n        /* \"#utility.yul\":1871:1872   */\n      0x00\n        /* \"#utility.yul\":1864:1879   */\n      revert\n        /* \"#utility.yul\":1891:2172   */\n    tag_43:\n        /* \"#utility.yul\":1974:2001   */\n      tag_82\n        /* \"#utility.yul\":1996:2000   */\n      dup3\n        /* \"#utility.yul\":1974:2001   */\n      tag_41\n      jump\t// in\n    tag_82:\n        /* \"#utility.yul\":1966:1972   */\n      dup2\n        /* \"#utility.yul\":1962:2002   */\n      add\n        /* \"#utility.yul\":2104:2110   */\n      dup2\n        /* \"#utility.yul\":2092:2102   */\n      dup2\n        /* \"#utility.yul\":2089:2111   */\n      lt\n        /* \"#utility.yul\":2068:2086   */\n      0xffffffffffffffff\n        /* \"#utility.yul\":2056:2066   */\n      dup3\n        /* \"#utility.yul\":2053:2087   */\n      gt\n        /* \"#utility.yul\":2050:2112   */\n      or\n        /* \"#utility.yul\":2047:2135   */\n      iszero\n      tag_83\n      jumpi\n        /* \"#utility.yul\":2115:2133   */\n      tag_84\n      tag_42\n      jump\t// in\n    tag_84:\n        /* \"#utility.yul\":2047:2135   */\n    tag_83:\n        /* \"#utility.yul\":2155:2165   */\n      dup1\n        /* \"#utility.yul\":2151:2153   */\n      0x40\n        /* \"#utility.yul\":2144:2166   */\n      mstore\n        /* \"#utility.yul\":1934:2172   */\n      pop\n        /* \"#utility.yul\":1891:2172   */\n      pop\n      pop\n      jump\t// out\n        /* \"#utility.yul\":2178:2307   */\n    tag_44:\n        /* \"#utility.yul\":2212:2218   */\n      0x00\n        /* \"#utility.yul\":2239:2259   */\n      tag_86\n      tag_32\n      jump\t// in\n    tag_86:\n        /* \"#utility.yul\":2229:2259   */\n      swap1\n      pop\n        /* \"#utility.yul\":2268:2301   */\n      tag_87\n        /* \"#utility.yul\":2296:2300   */\n      dup3\n        /* \"#utility.yul\":2288:2294   */\n      dup3\n        /* \"#utility.yul\":2268:2301   */\n      tag_43\n      jump\t// in\n    tag_87:\n        /* \"#utility.yul\":2178:2307   */\n      swap2\n      swap1\n      pop\n      jump\t// out\n        /* \"#utility.yul\":2313:2621   */\n    tag_45:\n        /* \"#utility.yul\":2375:2379   */\n      0x00\n        /* \"#utility.yul\":2465:2483   */\n      0xffffffffffffffff\n        /* \"#utility.yul\":2457:2463   */\n      dup3\n        /* \"#utility.yul\":2454:2484   */\n      gt\n        /* \"#utility.yul\":2451:2507   */\n      iszero\n      tag_89\n      jumpi\n        /* \"#utility.yul\":2487:2505   */\n      tag_90\n      tag_42\n      jump\t// in\n    tag_90:\n        /* \"#utility.yul\":2451:2507   */\n    tag_89:\n        /* \"#utility.yul\":2525:2554   */\n      tag_91\n        /* \"#utility.yul\":2547:2553   */\n      dup3\n        /* \"#utility.yul\":2525:2554   */\n      tag_41\n      jump\t// in\n    tag_91:\n        /* \"#utility.yul\":2517:2554   */\n      swap1\n      pop\n        /* \"#utility.yul\":2609:2613   */\n      0x20\n        /* \"#utility.yul\":2603:2607   */\n      dup2\n        /* \"#utility.yul\":2599:2614   */\n      add\n        /* \"#utility.yul\":2591:2614   */\n      swap1\n      pop\n        /* \"#utility.yul\":2313:2621   */\n      swap2\n      swap1\n      pop\n      jump\t// out\n        /* \"#utility.yul\":2627:2773   */\n    tag_46:\n        /* \"#utility.yul\":2724:2730   */\n      dup3\n        /* \"#utility.yul\":2719:2722   */\n      dup2\n        /* \"#utility.yul\":2714:2717   */\n      dup4\n        /* \"#utility.yul\":2701:2731   */\n      calldatacopy\n        /* \"#utility.yul\":2765:2766   */\n      0x00\n        /* \"#utility.yul\":2756:2762   */\n      dup4\n        /* \"#utility.yul\":2751:2754   */\n      dup4\n        /* \"#utility.yul\":2747:2763   */\n      add\n        /* \"#utility.yul\":2740:2767   */\n      mstore\n        /* \"#utility.yul\":2627:2773   */\n      pop\n      pop\n      pop\n      jump\t// out\n        /* \"#utility.yul\":2779:3204   */\n    tag_47:\n        /* \"#utility.yul\":2857:2862   */\n      0x00\n        /* \"#utility.yul\":2882:2948   */\n      tag_94\n        /* \"#utility.yul\":2898:2947   */\n      tag_95\n        /* \"#utility.yul\":2940:2946   */\n      dup5\n        /* \"#utility.yul\":2898:2947   */\n      tag_45\n      jump\t// in\n    tag_95:\n        /* \"#utility.yul\":2882:2948   */\n      tag_44\n      jump\t// in\n    tag_94:\n        /* \"#utility.yul\":2873:2948   */\n      swap1\n      pop\n        /* \"#utility.yul\":2971:2977   */\n      dup3\n        /* \"#utility.yul\":2964:2969   */\n      dup2\n        /* \"#utility.yul\":2957:2978   */\n      mstore\n        /* \"#utility.yul\":3009:3013   */\n      0x20\n        /* \"#utility.yul\":3002:3007   */\n      dup2\n        /* \"#utility.yul\":2998:3014   */\n      add\n        /* \"#utility.yul\":3047:3050   */\n      dup5\n        /* \"#utility.yul\":3038:3044   */\n      dup5\n        /* \"#utility.yul\":3033:3036   */\n      dup5\n        /* \"#utility.yul\":3029:3045   */\n      add\n        /* \"#utility.yul\":3026:3051   */\n      gt\n        /* \"#utility.yul\":3023:3135   */\n      iszero\n      tag_96\n      jumpi\n        /* \"#utility.yul\":3054:3133   */\n      tag_97\n      tag_40\n      jump\t// in\n    tag_97:\n        /* \"#utility.yul\":3023:3135   */\n    tag_96:\n        /* \"#utility.yul\":3144:3198   */\n      tag_98\n        /* \"#utility.yul\":3191:3197   */\n      dup5\n        /* \"#utility.yul\":3186:3189   */\n      dup3\n        /* \"#utility.yul\":3181:3184   */\n      dup6\n        /* \"#utility.yul\":3144:3198   */\n      tag_46\n      jump\t// in\n    tag_98:\n        /* \"#utility.yul\":2863:3204   */\n      pop\n        /* \"#utility.yul\":2779:3204   */\n      swap4\n      swap3\n      pop\n      pop\n      pop\n      jump\t// out\n        /* \"#utility.yul\":3224:3564   */\n    tag_48:\n        /* \"#utility.yul\":3280:3285   */\n      0x00\n        /* \"#utility.yul\":3329:3332   */\n      dup3\n        /* \"#utility.yul\":3322:3326   */\n      0x1f\n        /* \"#utility.yul\":3314:3320   */\n      dup4\n        /* \"#utility.yul\":3310:3327   */\n      add\n        /* \"#utility.yul\":3306:3333   */\n      slt\n        /* \"#utility.yul\":3296:3418   */\n      tag_100\n      jumpi\n        /* \"#utility.yul\":3337:3416   */\n      tag_101\n      tag_39\n      jump\t// in\n    tag_101:\n        /* \"#utility.yul\":3296:3418   */\n    tag_100:\n        /* \"#utility.yul\":3454:3460   */\n      dup2\n        /* \"#utility.yul\":3441:3461   */\n      calldataload\n        /* \"#utility.yul\":3479:3558   */\n      tag_102\n        /* \"#utility.yul\":3554:3557   */\n      dup5\n        /* \"#utility.yul\":3546:3552   */\n      dup3\n        /* \"#utility.yul\":3539:3543   */\n      0x20\n        /* \"#utility.yul\":3531:3537   */\n      dup7\n        /* \"#utility.yul\":3527:3544   */\n      add\n        /* \"#utility.yul\":3479:3558   */\n      tag_47\n      jump\t// in\n    tag_102:\n        /* \"#utility.yul\":3470:3558   */\n      swap2\n      pop\n        /* \"#utility.yul\":3286:3564   */\n      pop\n        /* \"#utility.yul\":3224:3564   */\n      swap3\n      swap2\n      pop\n      pop\n      jump\t// out\n        /* \"#utility.yul\":3570:4079   */\n    tag_13:\n        /* \"#utility.yul\":3639:3645   */\n      0x00\n        /* \"#utility.yul\":3688:3690   */\n      0x20\n        /* \"#utility.yul\":3676:3685   */\n      dup3\n        /* \"#utility.yul\":3667:3674   */\n      dup5\n        /* \"#utility.yul\":3663:3686   */\n      sub\n        /* \"#utility.yul\":3659:3691   */\n      slt\n        /* \"#utility.yul\":3656:3775   */\n      iszero\n      tag_104\n      jumpi\n        /* \"#utility.yul\":3694:3773   */\n      tag_105\n      tag_33\n      jump\t// in\n    tag_105:\n        /* \"#utility.yul\":3656:3775   */\n    tag_104:\n        /* \"#utility.yul\":3842:3843   */\n      0x00\n        /* \"#utility.yul\":3831:3840   */\n      dup3\n        /* \"#utility.yul\":3827:3844   */\n      add\n        /* \"#utility.yul\":3814:3845   */\n      calldataload\n        /* \"#utility.yul\":3872:3890   */\n      0xffffffffffffffff\n        /* \"#utility.yul\":3864:3870   */\n      dup2\n        /* \"#utility.yul\":3861:3891   */\n      gt\n        /* \"#utility.yul\":3858:3975   */\n      iszero\n      tag_106\n      jumpi\n        /* \"#utility.yul\":3894:3973   */\n      tag_107\n      tag_34\n      jump\t// in\n    tag_107:\n        /* \"#utility.yul\":3858:3975   */\n    tag_106:\n        /* \"#utility.yul\":3999:4062   */\n      tag_108\n        /* \"#utility.yul\":4054:4061   */\n      dup5\n        /* \"#utility.yul\":4045:4051   */\n      dup3\n        /* \"#utility.yul\":4034:4043   */\n      dup6\n        /* \"#utility.yul\":4030:4052   */\n      add\n        /* \"#utility.yul\":3999:4062   */\n      tag_48\n      jump\t// in\n    tag_108:\n        /* \"#utility.yul\":3989:4062   */\n      swap2\n      pop\n        /* \"#utility.yul\":3785:4072   */\n      pop\n        /* \"#utility.yul\":3570:4079   */\n      swap3\n      swap2\n      pop\n      pop\n      jump\t// out\n        /* \"#utility.yul\":4085:4184   */\n    tag_49:\n        /* \"#utility.yul\":4137:4143   */\n      0x00\n        /* \"#utility.yul\":4171:4176   */\n      dup2\n        /* \"#utility.yul\":4165:4177   */\n      mload\n        /* \"#utility.yul\":4155:4177   */\n      swap1\n      pop\n        /* \"#utility.yul\":4085:4184   */\n      swap2\n      swap1\n      pop\n      jump\t// out\n        /* \"#utility.yul\":4190:4338   */\n    tag_50:\n        /* \"#utility.yul\":4292:4303   */\n      0x00\n        /* \"#utility.yul\":4329:4332   */\n      dup2\n        /* \"#utility.yul\":4314:4332   */\n      swap1\n      pop\n        /* \"#utility.yul\":4190:4338   */\n      swap3\n      swap2\n      pop\n      pop\n      jump\t// out\n        /* \"#utility.yul\":4344:4590   */\n    tag_51:\n        /* \"#utility.yul\":4425:4426   */\n      0x00\n        /* \"#utility.yul\":4435:4548   */\n    tag_112:\n        /* \"#utility.yul\":4449:4455   */\n      dup4\n        /* \"#utility.yul\":4446:4447   */\n      dup2\n        /* \"#utility.yul\":4443:4456   */\n      lt\n        /* \"#utility.yul\":4435:4548   */\n      iszero\n      tag_114\n      jumpi\n        /* \"#utility.yul\":4534:4535   */\n      dup1\n        /* \"#utility.yul\":4529:4532   */\n      dup3\n        /* \"#utility.yul\":4525:4536   */\n      add\n        /* \"#utility.yul\":4519:4537   */\n      mload\n        /* \"#utility.yul\":4515:4516   */\n      dup2\n        /* \"#utility.yul\":4510:4513   */\n      dup5\n        /* \"#utility.yul\":4506:4517   */\n      add\n        /* \"#utility.yul\":4499:4538   */\n      mstore\n        /* \"#utility.yul\":4471:4473   */\n      0x20\n        /* \"#utility.yul\":4468:4469   */\n      dup2\n        /* \"#utility.yul\":4464:4474   */\n      add\n        /* \"#utility.yul\":4459:4474   */\n      swap1\n      pop\n        /* \"#utility.yul\":4435:4548   */\n      jump(tag_112)\n    tag_114:\n        /* \"#utility.yul\":4582:4583   */\n      0x00\n        /* \"#utility.yul\":4573:4579   */\n      dup5\n        /* \"#utility.yul\":4568:4571   */\n      dup5\n        /* \"#utility.yul\":4564:4580   */\n      add\n        /* \"#utility.yul\":4557:4584   */\n      mstore\n        /* \"#utility.yul\":4406:4590   */\n      pop\n        /* \"#utility.yul\":4344:4590   */\n      pop\n      pop\n      pop\n      jump\t// out\n        /* \"#utility.yul\":4596:4986   */\n    tag_52:\n        /* \"#utility.yul\":4702:4705   */\n      0x00\n        /* \"#utility.yul\":4730:4769   */\n      tag_116\n        /* \"#utility.yul\":4763:4768   */\n      dup3\n        /* \"#utility.yul\":4730:4769   */\n      tag_49\n      jump\t// in\n    tag_116:\n        /* \"#utility.yul\":4785:4874   */\n      tag_117\n        /* \"#utility.yul\":4867:4873   */\n      dup2\n        /* \"#utility.yul\":4862:4865   */\n      dup6\n        /* \"#utility.yul\":4785:4874   */\n      tag_50\n      jump\t// in\n    tag_117:\n        /* \"#utility.yul\":4778:4874   */\n      swap4\n      pop\n        /* \"#utility.yul\":4883:4948   */\n      tag_118\n        /* \"#utility.yul\":4941:4947   */\n      dup2\n        /* \"#utility.yul\":4936:4939   */\n      dup6\n        /* \"#utility.yul\":4929:4933   */\n      0x20\n        /* \"#utility.yul\":4922:4927   */\n      dup7\n        /* \"#utility.yul\":4918:4934   */\n      add\n        /* \"#utility.yul\":4883:4948   */\n      tag_51\n      jump\t// in\n    tag_118:\n        /* \"#utility.yul\":4973:4979   */\n      dup1\n        /* \"#utility.yul\":4968:4971   */\n      dup5\n        /* \"#utility.yul\":4964:4980   */\n      add\n        /* \"#utility.yul\":4957:4980   */\n      swap2\n      pop\n        /* \"#utility.yul\":4706:4986   */\n      pop\n        /* \"#utility.yul\":4596:4986   */\n      swap3\n      swap2\n      pop\n      pop\n      jump\t// out\n        /* \"#utility.yul\":4992:5267   */\n    tag_22:\n        /* \"#utility.yul\":5124:5127   */\n      0x00\n        /* \"#utility.yul\":5146:5241   */\n      tag_120\n        /* \"#utility.yul\":5237:5240   */\n      dup3\n        /* \"#utility.yul\":5228:5234   */\n      dup5\n        /* \"#utility.yul\":5146:5241   */\n      tag_52\n      jump\t// in\n    tag_120:\n        /* \"#utility.yul\":5139:5241   */\n      swap2\n      pop\n        /* \"#utility.yul\":5258:5261   */\n      dup2\n        /* \"#utility.yul\":5251:5261   */\n      swap1\n      pop\n        /* \"#utility.yul\":4992:5267   */\n      swap3\n      swap2\n      pop\n      pop\n      jump\t// out\n        /* \"#utility.yul\":5273:5453   */\n    tag_25:\n        /* \"#utility.yul\":5321:5398   */\n      0x4e487b7100000000000000000000000000000000000000000000000000000000\n        /* \"#utility.yul\":5318:5319   */\n      0x00\n        /* \"#utility.yul\":5311:5399   */\n      mstore\n        /* \"#utility.yul\":5418:5422   */\n      0x32\n        /* \"#utility.yul\":5415:5416   */\n      0x04\n        /* \"#utility.yul\":5408:5423   */\n      mstore\n        /* \"#utility.yul\":5442:5446   */\n      0x24\n        /* \"#utility.yul\":5439:5440   */\n      0x00\n        /* \"#utility.yul\":5432:5447   */\n      revert\n        /* \"#utility.yul\":5459:5639   */\n    tag_53:\n        /* \"#utility.yul\":5507:5584   */\n      0x4e487b7100000000000000000000000000000000000000000000000000000000\n        /* \"#utility.yul\":5504:5505   */\n      0x00\n        /* \"#utility.yul\":5497:5585   */\n      mstore\n        /* \"#utility.yul\":5604:5608   */\n      0x22\n        /* \"#utility.yul\":5601:5602   */\n      0x04\n        /* \"#utility.yul\":5594:5609   */\n      mstore\n        /* \"#utility.yul\":5628:5632   */\n      0x24\n        /* \"#utility.yul\":5625:5626   */\n      0x00\n        /* \"#utility.yul\":5618:5633   */\n      revert\n        /* \"#utility.yul\":5645:5965   */\n    tag_54:\n        /* \"#utility.yul\":5689:5695   */\n      0x00\n        /* \"#utility.yul\":5726:5727   */\n      0x02\n        /* \"#utility.yul\":5720:5724   */\n      dup3\n        /* \"#utility.yul\":5716:5728   */\n      div\n        /* \"#utility.yul\":5706:5728   */\n      swap1\n      pop\n        /* \"#utility.yul\":5773:5774   */\n      0x01\n        /* \"#utility.yul\":5767:5771   */\n      dup3\n        /* \"#utility.yul\":5763:5775   */\n      and\n        /* \"#utility.yul\":5794:5812   */\n      dup1\n        /* \"#utility.yul\":5784:5865   */\n      tag_124\n      jumpi\n        /* \"#utility.yul\":5850:5854   */\n      0x7f\n        /* \"#utility.yul\":5842:5848   */\n      dup3\n        /* \"#utility.yul\":5838:5855   */\n      and\n        /* \"#utility.yul\":5828:5855   */\n      swap2\n      pop\n        /* \"#utility.yul\":5784:5865   */\n    tag_124:\n        /* \"#utility.yul\":5912:5914   */\n      0x20\n        /* \"#utility.yul\":5904:5910   */\n      dup3\n        /* \"#utility.yul\":5901:5915   */\n      lt\n        /* \"#utility.yul\":5881:5899   */\n      dup2\n        /* \"#utility.yul\":5878:5916   */\n      sub\n        /* \"#utility.yul\":5875:5959   */\n      tag_125\n      jumpi\n        /* \"#utility.yul\":5931:5949   */\n      tag_126\n      tag_53\n      jump\t// in\n    tag_126:\n        /* \"#utility.yul\":5875:5959   */\n    tag_125:\n        /* \"#utility.yul\":5696:5965   */\n      pop\n        /* \"#utility.yul\":5645:5965   */\n      swap2\n      swap1\n      pop\n      jump\t// out\n        /* \"#utility.yul\":5971:6112   */\n    tag_55:\n        /* \"#utility.yul\":6020:6024   */\n      0x00\n        /* \"#utility.yul\":6043:6046   */\n      dup2\n        /* \"#utility.yul\":6035:6046   */\n      swap1\n      pop\n        /* \"#utility.yul\":6066:6069   */\n      dup2\n        /* \"#utility.yul\":6063:6064   */\n      0x00\n        /* \"#utility.yul\":6056:6070   */\n      mstore\n        /* \"#utility.yul\":6100:6104   */\n      0x20\n        /* \"#utility.yul\":6097:6098   */\n      0x00\n        /* \"#utility.yul\":6087:6105   */\n      keccak256\n        /* \"#utility.yul\":6079:6105   */\n      swap1\n      pop\n        /* \"#utility.yul\":5971:6112   */\n      swap2\n      swap1\n      pop\n      jump\t// out\n        /* \"#utility.yul\":6142:7016   */\n    tag_56:\n        /* \"#utility.yul\":6245:6248   */\n      0x00\n        /* \"#utility.yul\":6282:6287   */\n      dup2\n        /* \"#utility.yul\":6276:6288   */\n      sload\n        /* \"#utility.yul\":6311:6347   */\n      tag_129\n        /* \"#utility.yul\":6337:6346   */\n      dup2\n        /* \"#utility.yul\":6311:6347   */\n      tag_54\n      jump\t// in\n    tag_129:\n        /* \"#utility.yul\":6363:6452   */\n      tag_130\n        /* \"#utility.yul\":6445:6451   */\n      dup2\n        /* \"#utility.yul\":6440:6443   */\n      dup7\n        /* \"#utility.yul\":6363:6452   */\n      tag_50\n      jump\t// in\n    tag_130:\n        /* \"#utility.yul\":6356:6452   */\n      swap5\n      pop\n        /* \"#utility.yul\":6483:6484   */\n      0x01\n        /* \"#utility.yul\":6472:6481   */\n      dup3\n        /* \"#utility.yul\":6468:6485   */\n      and\n        /* \"#utility.yul\":6499:6500   */\n      0x00\n        /* \"#utility.yul\":6494:6660   */\n      dup2\n      eq\n      tag_132\n      jumpi\n        /* \"#utility.yul\":6674:6675   */\n      0x01\n        /* \"#utility.yul\":6669:7010   */\n      dup2\n      eq\n      tag_133\n      jumpi\n        /* \"#utility.yul\":6461:7010   */\n      jump(tag_131)\n        /* \"#utility.yul\":6494:6660   */\n    tag_132:\n        /* \"#utility.yul\":6578:6582   */\n      0xff\n        /* \"#utility.yul\":6574:6583   */\n      not\n        /* \"#utility.yul\":6563:6572   */\n      dup4\n        /* \"#utility.yul\":6559:6584   */\n      and\n        /* \"#utility.yul\":6554:6557   */\n      dup7\n        /* \"#utility.yul\":6547:6585   */\n      mstore\n        /* \"#utility.yul\":6640:6646   */\n      dup2\n        /* \"#utility.yul\":6633:6647   */\n      iszero\n        /* \"#utility.yul\":6626:6648   */\n      iszero\n        /* \"#utility.yul\":6618:6624   */\n      dup3\n        /* \"#utility.yul\":6614:6649   */\n      mul\n        /* \"#utility.yul\":6609:6612   */\n      dup7\n        /* \"#utility.yul\":6605:6650   */\n      add\n        /* \"#utility.yul\":6598:6650   */\n      swap4\n      pop\n        /* \"#utility.yul\":6494:6660   */\n      jump(tag_131)\n        /* \"#utility.yul\":6669:7010   */\n    tag_133:\n        /* \"#utility.yul\":6736:6774   */\n      tag_134\n        /* \"#utility.yul\":6768:6773   */\n      dup6\n        /* \"#utility.yul\":6736:6774   */\n      tag_55\n      jump\t// in\n    tag_134:\n        /* \"#utility.yul\":6796:6797   */\n      0x00\n        /* \"#utility.yul\":6810:6964   */\n    tag_135:\n        /* \"#utility.yul\":6824:6830   */\n      dup4\n        /* \"#utility.yul\":6821:6822   */\n      dup2\n        /* \"#utility.yul\":6818:6831   */\n      lt\n        /* \"#utility.yul\":6810:6964   */\n      iszero\n      tag_137\n      jumpi\n        /* \"#utility.yul\":6898:6905   */\n      dup2\n        /* \"#utility.yul\":6892:6906   */\n      sload\n        /* \"#utility.yul\":6888:6889   */\n      dup2\n        /* \"#utility.yul\":6883:6886   */\n      dup10\n        /* \"#utility.yul\":6879:6890   */\n      add\n        /* \"#utility.yul\":6872:6907   */\n      mstore\n        /* \"#utility.yul\":6948:6949   */\n      0x01\n        /* \"#utility.yul\":6939:6946   */\n      dup3\n        /* \"#utility.yul\":6935:6950   */\n      add\n        /* \"#utility.yul\":6924:6950   */\n      swap2\n      pop\n        /* \"#utility.yul\":6846:6850   */\n      0x20\n        /* \"#utility.yul\":6843:6844   */\n      dup2\n        /* \"#utility.yul\":6839:6851   */\n      add\n        /* \"#utility.yul\":6834:6851   */\n      swap1\n      pop\n        /* \"#utility.yul\":6810:6964   */\n      jump(tag_135)\n    tag_137:\n        /* \"#utility.yul\":6993:6999   */\n      dup4\n        /* \"#utility.yul\":6988:6991   */\n      dup9\n        /* \"#utility.yul\":6984:7000   */\n      add\n        /* \"#utility.yul\":6977:7000   */\n      swap6\n      pop\n        /* \"#utility.yul\":6676:7010   */\n      pop\n      pop\n        /* \"#utility.yul\":6461:7010   */\n    tag_131:\n      pop\n        /* \"#utility.yul\":6249:7016   */\n      pop\n      pop\n        /* \"#utility.yul\":6142:7016   */\n      swap3\n      swap2\n      pop\n      pop\n      jump\t// out\n        /* \"#utility.yul\":7022:7291   */\n    tag_28:\n        /* \"#utility.yul\":7151:7154   */\n      0x00\n        /* \"#utility.yul\":7173:7265   */\n      tag_139\n        /* \"#utility.yul\":7261:7264   */\n      dup3\n        /* \"#utility.yul\":7252:7258   */\n      dup5\n        /* \"#utility.yul\":7173:7265   */\n      tag_56\n      jump\t// in\n    tag_139:\n        /* \"#utility.yul\":7166:7265   */\n      swap2\n      pop\n        /* \"#utility.yul\":7282:7285   */\n      dup2\n        /* \"#utility.yul\":7275:7285   */\n      swap1\n      pop\n        /* \"#utility.yul\":7022:7291   */\n      swap3\n      swap2\n      pop\n      pop\n      jump\t// out\n        /* \"#utility.yul\":7297:7477   */\n    tag_57:\n        /* \"#utility.yul\":7345:7422   */\n      0x4e487b7100000000000000000000000000000000000000000000000000000000\n        /* \"#utility.yul\":7342:7343   */\n      0x00\n        /* \"#utility.yul\":7335:7423   */\n      mstore\n        /* \"#utility.yul\":7442:7446   */\n      0x11\n        /* \"#utility.yul\":7439:7440   */\n      0x04\n        /* \"#utility.yul\":7432:7447   */\n      mstore\n        /* \"#utility.yul\":7466:7470   */\n      0x24\n        /* \"#utility.yul\":7463:7464   */\n      0x00\n        /* \"#utility.yul\":7456:7471   */\n      revert\n        /* \"#utility.yul\":7483:7560   */\n    tag_58:\n        /* \"#utility.yul\":7520:7527   */\n      0x00\n        /* \"#utility.yul\":7549:7554   */\n      dup2\n        /* \"#utility.yul\":7538:7554   */\n      swap1\n      pop\n        /* \"#utility.yul\":7483:7560   */\n      swap2\n      swap1\n      pop\n      jump\t// out\n        /* \"#utility.yul\":7566:7799   */\n    tag_31:\n        /* \"#utility.yul\":7605:7608   */\n      0x00\n        /* \"#utility.yul\":7628:7652   */\n      tag_143\n        /* \"#utility.yul\":7646:7651   */\n      dup3\n        /* \"#utility.yul\":7628:7652   */\n      tag_58\n      jump\t// in\n    tag_143:\n        /* \"#utility.yul\":7619:7652   */\n      swap2\n      pop\n        /* \"#utility.yul\":7674:7740   */\n      0xffffffffffffffffffffffffffffffffffffffffffffffffffffffffffffffff\n        /* \"#utility.yul\":7667:7672   */\n      dup3\n        /* \"#utility.yul\":7664:7741   */\n      sub\n        /* \"#utility.yul\":7661:7764   */\n      tag_144\n      jumpi\n        /* \"#utility.yul\":7744:7762   */\n      tag_145\n      tag_57\n      jump\t// in\n    tag_145:\n        /* \"#utility.yul\":7661:7764   */\n    tag_144:\n        /* \"#utility.yul\":7791:7792   */\n      0x01\n        /* \"#utility.yul\":7784:7789   */\n      dup3\n        /* \"#utility.yul\":7780:7793   */\n      add\n        /* \"#utility.yul\":7773:7793   */\n      swap1\n      pop\n        /* \"#utility.yul\":7566:7799   */\n      swap2\n      swap1\n      pop\n      jump\t// out\n\n    auxdata: 0xa2646970667358221220e3e0d090983e75b7f7288e5de37b36ef2cbdf9a8b409528c06962c6fef9d4ca164736f6c63430008110033\n}\n",
				"bytecode": {
					"linkReferences": {},
					"object": "608060405260405180606001604052806040518060400160405280600481526020017f497261710000000000000000000000000000000000000000000000000000000081525081526020016040518060400160405280600b81526020017f4e6f727468204b6f72656100000000000000000000000000000000000000000081525081526020016040518060400160405280600681526020017f52757373696100000000000000000000000000000000000000000000000000008152508152506000906003620000d0929190620000e5565b50348015620000de57600080fd5b5062000533565b82805482825590600052602060002090810192821562000132579160200282015b82811115620001315782518290816200012091906200044c565b509160200191906001019062000106565b5b50905062000141919062000145565b5090565b5b808211156200016957600081816200015f91906200016d565b5060010162000146565b5090565b5080546200017b906200023b565b6000825580601f106200018f5750620001b0565b601f016020900490600052602060002090810190620001af9190620001b3565b5b50565b5b80821115620001ce576000816000905550600101620001b4565b5090565b600081519050919050565b7f4e487b7100000000000000000000000000000000000000000000000000000000600052604160045260246000fd5b7f4e487b7100000000000000000000000000000000000000000000000000000000600052602260045260246000fd5b600060028204905060018216806200025457607f821691505b6020821081036200026a57620002696200020c565b5b50919050565b60008190508160005260206000209050919050565b60006020601f8301049050919050565b600082821b905092915050565b600060088302620002d47fffffffffffffffffffffffffffffffffffffffffffffffffffffffffffffffff8262000295565b620002e0868362000295565b95508019841693508086168417925050509392505050565b6000819050919050565b6000819050919050565b60006200032d620003276200032184620002f8565b62000302565b620002f8565b9050919050565b6000819050919050565b62000349836200030c565b62000361620003588262000334565b848454620002a2565b825550505050565b600090565b6200037862000369565b620003858184846200033e565b505050565b5b81811015620003ad57620003a16000826200036e565b6001810190506200038b565b5050565b601f821115620003fc57620003c68162000270565b620003d18462000285565b81016020851015620003e1578190505b620003f9620003f08562000285565b8301826200038a565b50505b505050565b600082821c905092915050565b6000620004216000198460080262000401565b1980831691505092915050565b60006200043c83836200040e565b9150826002028217905092915050565b6200045782620001d2565b67ffffffffffffffff811115620004735762000472620001dd565b5b6200047f82546200023b565b6200048c828285620003b1565b600060209050601f831160018114620004c45760008415620004af578287015190505b620004bb85826200042e565b8655506200052b565b601f198416620004d48662000270565b60005b82811015620004fe57848901518255600182019150602085019450602081019050620004d7565b868310156200051e57848901516200051a601f8916826200040e565b8355505b6001600288020188555050505b505050505050565b6105fe80620005436000396000f3fe608060405234801561001057600080fd5b50600436106100365760003560e01c8063708c079d1461003b5780637b0b53f01461006b575b600080fd5b6100556004803603810190610050919061019b565b61009b565b60405161006291906101d7565b60405180910390f35b61008560048036038101906100809190610338565b6100a2565b60405161009291906101d7565b60405180910390f35b6000919050565b600080600090505b60008054905081101561014457826040516020016100c891906103f2565b60405160208183030381529060405280519060200120600082815481106100f2576100f1610409565b5b9060005260206000200160405160200161010c9190610530565b604051602081830303815290604052805190602001200361013157600191505061014a565b808061013c90610580565b9150506100aa565b50600090505b919050565b6000604051905090565b600080fd5b600080fd5b60008115159050919050565b61017881610163565b811461018357600080fd5b50565b6000813590506101958161016f565b92915050565b6000602082840312156101b1576101b0610159565b5b60006101bf84828501610186565b91505092915050565b6101d181610163565b82525050565b60006020820190506101ec60008301846101c8565b92915050565b600080fd5b600080fd5b6000601f19601f8301169050919050565b7f4e487b7100000000000000000000000000000000000000000000000000000000600052604160045260246000fd5b610245826101fc565b810181811067ffffffffffffffff821117156102645761026361020d565b5b80604052505050565b600061027761014f565b9050610283828261023c565b919050565b600067ffffffffffffffff8211156102a3576102a261020d565b5b6102ac826101fc565b9050602081019050919050565b82818337600083830152505050565b60006102db6102d684610288565b61026d565b9050828152602081018484840111156102f7576102f66101f7565b5b6103028482856102b9565b509392505050565b600082601f83011261031f5761031e6101f2565b5b813561032f8482602086016102c8565b91505092915050565b60006020828403121561034e5761034d610159565b5b600082013567ffffffffffffffff81111561036c5761036b61015e565b5b6103788482850161030a565b91505092915050565b600081519050919050565b600081905092915050565b60005b838110156103b557808201518184015260208101905061039a565b60008484015250505050565b60006103cc82610381565b6103d6818561038c565b93506103e6818560208601610397565b80840191505092915050565b60006103fe82846103c1565b915081905092915050565b7f4e487b7100000000000000000000000000000000000000000000000000000000600052603260045260246000fd5b7f4e487b7100000000000000000000000000000000000000000000000000000000600052602260045260246000fd5b6000600282049050600182168061047f57607f821691505b60208210810361049257610491610438565b5b50919050565b60008190508160005260206000209050919050565b600081546104ba81610467565b6104c4818661038c565b945060018216600081146104df57600181146104f457610527565b60ff1983168652811515820286019350610527565b6104fd85610498565b60005b8381101561051f57815481890152600182019150602081019050610500565b838801955050505b50505092915050565b600061053c82846104ad565b915081905092915050565b7f4e487b7100000000000000000000000000000000000000000000000000000000600052601160045260246000fd5b6000819050919050565b600061058b82610576565b91507fffffffffffffffffffffffffffffffffffffffffffffffffffffffffffffffff82036105bd576105bc610547565b5b60018201905091905056fea2646970667358221220e3e0d090983e75b7f7288e5de37b36ef2cbdf9a8b409528c06962c6fef9d4ca164736f6c63430008110033",
					"opcodes": "PUSH1 0x80 PUSH1 0x40 MSTORE PUSH1 0x40 MLOAD DUP1 PUSH1 0x60 ADD PUSH1 0x40 MSTORE DUP1 PUSH1 0x40 MLOAD DUP1 PUSH1 0x40 ADD PUSH1 0x40 MSTORE DUP1 PUSH1 0x4 DUP2 MSTORE PUSH1 0x20 ADD PUSH32 0x4972617100000000000000000000000000000000000000000000000000000000 DUP2 MSTORE POP DUP2 MSTORE PUSH1 0x20 ADD PUSH1 0x40 MLOAD DUP1 PUSH1 0x40 ADD PUSH1 0x40 MSTORE DUP1 PUSH1 0xB DUP2 MSTORE PUSH1 0x20 ADD PUSH32 0x4E6F727468204B6F726561000000000000000000000000000000000000000000 DUP2 MSTORE POP DUP2 MSTORE PUSH1 0x20 ADD PUSH1 0x40 MLOAD DUP1 PUSH1 0x40 ADD PUSH1 0x40 MSTORE DUP1 PUSH1 0x6 DUP2 MSTORE PUSH1 0x20 ADD PUSH32 0x5275737369610000000000000000000000000000000000000000000000000000 DUP2 MSTORE POP DUP2 MSTORE POP PUSH1 0x0 SWAP1 PUSH1 0x3 PUSH3 0xD0 SWAP3 SWAP2 SWAP1 PUSH3 0xE5 JUMP JUMPDEST POP CALLVALUE DUP1 ISZERO PUSH3 0xDE JUMPI PUSH1 0x0 DUP1 REVERT JUMPDEST POP PUSH3 0x533 JUMP JUMPDEST DUP3 DUP1 SLOAD DUP3 DUP3 SSTORE SWAP1 PUSH1 0x0 MSTORE PUSH1 0x20 PUSH1 0x0 KECCAK256 SWAP1 DUP2 ADD SWAP3 DUP3 ISZERO PUSH3 0x132 JUMPI SWAP2 PUSH1 0x20 MUL DUP3 ADD JUMPDEST DUP3 DUP2 GT ISZERO PUSH3 0x131 JUMPI DUP3 MLOAD DUP3 SWAP1 DUP2 PUSH3 0x120 SWAP2 SWAP1 PUSH3 0x44C JUMP JUMPDEST POP SWAP2 PUSH1 0x20 ADD SWAP2 SWAP1 PUSH1 0x1 ADD SWAP1 PUSH3 0x106 JUMP JUMPDEST JUMPDEST POP SWAP1 POP PUSH3 0x141 SWAP2 SWAP1 PUSH3 0x145 JUMP JUMPDEST POP SWAP1 JUMP JUMPDEST JUMPDEST DUP1 DUP3 GT ISZERO PUSH3 0x169 JUMPI PUSH1 0x0 DUP2 DUP2 PUSH3 0x15F SWAP2 SWAP1 PUSH3 0x16D JUMP JUMPDEST POP PUSH1 0x1 ADD PUSH3 0x146 JUMP JUMPDEST POP SWAP1 JUMP JUMPDEST POP DUP1 SLOAD PUSH3 0x17B SWAP1 PUSH3 0x23B JUMP JUMPDEST PUSH1 0x0 DUP3 SSTORE DUP1 PUSH1 0x1F LT PUSH3 0x18F JUMPI POP PUSH3 0x1B0 JUMP JUMPDEST PUSH1 0x1F ADD PUSH1 0x20 SWAP1 DIV SWAP1 PUSH1 0x0 MSTORE PUSH1 0x20 PUSH1 0x0 KECCAK256 SWAP1 DUP2 ADD SWAP1 PUSH3 0x1AF SWAP2 SWAP1 PUSH3 0x1B3 JUMP JUMPDEST JUMPDEST POP JUMP JUMPDEST JUMPDEST DUP1 DUP3 GT ISZERO PUSH3 0x1CE JUMPI PUSH1 0x0 DUP2 PUSH1 0x0 SWAP1 SSTORE POP PUSH1 0x1 ADD PUSH3 0x1B4 JUMP JUMPDEST POP SWAP1 JUMP JUMPDEST PUSH1 0x0 DUP2 MLOAD SWAP1 POP SWAP2 SWAP1 POP JUMP JUMPDEST PUSH32 0x4E487B7100000000000000000000000000000000000000000000000000000000 PUSH1 0x0 MSTORE PUSH1 0x41 PUSH1 0x4 MSTORE PUSH1 0x24 PUSH1 0x0 REVERT JUMPDEST PUSH32 0x4E487B7100000000000000000000000000000000000000000000000000000000 PUSH1 0x0 MSTORE PUSH1 0x22 PUSH1 0x4 MSTORE PUSH1 0x24 PUSH1 0x0 REVERT JUMPDEST PUSH1 0x0 PUSH1 0x2 DUP3 DIV SWAP1 POP PUSH1 0x1 DUP3 AND DUP1 PUSH3 0x254 JUMPI PUSH1 0x7F DUP3 AND SWAP2 POP JUMPDEST PUSH1 0x20 DUP3 LT DUP2 SUB PUSH3 0x26A JUMPI PUSH3 0x269 PUSH3 0x20C JUMP JUMPDEST JUMPDEST POP SWAP2 SWAP1 POP JUMP JUMPDEST PUSH1 0x0 DUP2 SWAP1 POP DUP2 PUSH1 0x0 MSTORE PUSH1 0x20 PUSH1 0x0 KECCAK256 SWAP1 POP SWAP2 SWAP1 POP JUMP JUMPDEST PUSH1 0x0 PUSH1 0x20 PUSH1 0x1F DUP4 ADD DIV SWAP1 POP SWAP2 SWAP1 POP JUMP JUMPDEST PUSH1 0x0 DUP3 DUP3 SHL SWAP1 POP SWAP3 SWAP2 POP POP JUMP JUMPDEST PUSH1 0x0 PUSH1 0x8 DUP4 MUL PUSH3 0x2D4 PUSH32 0xFFFFFFFFFFFFFFFFFFFFFFFFFFFFFFFFFFFFFFFFFFFFFFFFFFFFFFFFFFFFFFFF DUP3 PUSH3 0x295 JUMP JUMPDEST PUSH3 0x2E0 DUP7 DUP4 PUSH3 0x295 JUMP JUMPDEST SWAP6 POP DUP1 NOT DUP5 AND SWAP4 POP DUP1 DUP7 AND DUP5 OR SWAP3 POP POP POP SWAP4 SWAP3 POP POP POP JUMP JUMPDEST PUSH1 0x0 DUP2 SWAP1 POP SWAP2 SWAP1 POP JUMP JUMPDEST PUSH1 0x0 DUP2 SWAP1 POP SWAP2 SWAP1 POP JUMP JUMPDEST PUSH1 0x0 PUSH3 0x32D PUSH3 0x327 PUSH3 0x321 DUP5 PUSH3 0x2F8 JUMP JUMPDEST PUSH3 0x302 JUMP JUMPDEST PUSH3 0x2F8 JUMP JUMPDEST SWAP1 POP SWAP2 SWAP1 POP JUMP JUMPDEST PUSH1 0x0 DUP2 SWAP1 POP SWAP2 SWAP1 POP JUMP JUMPDEST PUSH3 0x349 DUP4 PUSH3 0x30C JUMP JUMPDEST PUSH3 0x361 PUSH3 0x358 DUP3 PUSH3 0x334 JUMP JUMPDEST DUP5 DUP5 SLOAD PUSH3 0x2A2 JUMP JUMPDEST DUP3 SSTORE POP POP POP POP JUMP JUMPDEST PUSH1 0x0 SWAP1 JUMP JUMPDEST PUSH3 0x378 PUSH3 0x369 JUMP JUMPDEST PUSH3 0x385 DUP2 DUP5 DUP5 PUSH3 0x33E JUMP JUMPDEST POP POP POP JUMP JUMPDEST JUMPDEST DUP2 DUP2 LT ISZERO PUSH3 0x3AD JUMPI PUSH3 0x3A1 PUSH1 0x0 DUP3 PUSH3 0x36E JUMP JUMPDEST PUSH1 0x1 DUP2 ADD SWAP1 POP PUSH3 0x38B JUMP JUMPDEST POP POP JUMP JUMPDEST PUSH1 0x1F DUP3 GT ISZERO PUSH3 0x3FC JUMPI PUSH3 0x3C6 DUP2 PUSH3 0x270 JUMP JUMPDEST PUSH3 0x3D1 DUP5 PUSH3 0x285 JUMP JUMPDEST DUP2 ADD PUSH1 0x20 DUP6 LT ISZERO PUSH3 0x3E1 JUMPI DUP2 SWAP1 POP JUMPDEST PUSH3 0x3F9 PUSH3 0x3F0 DUP6 PUSH3 0x285 JUMP JUMPDEST DUP4 ADD DUP3 PUSH3 0x38A JUMP JUMPDEST POP POP JUMPDEST POP POP POP JUMP JUMPDEST PUSH1 0x0 DUP3 DUP3 SHR SWAP1 POP SWAP3 SWAP2 POP POP JUMP JUMPDEST PUSH1 0x0 PUSH3 0x421 PUSH1 0x0 NOT DUP5 PUSH1 0x8 MUL PUSH3 0x401 JUMP JUMPDEST NOT DUP1 DUP4 AND SWAP2 POP POP SWAP3 SWAP2 POP POP JUMP JUMPDEST PUSH1 0x0 PUSH3 0x43C DUP4 DUP4 PUSH3 0x40E JUMP JUMPDEST SWAP2 POP DUP3 PUSH1 0x2 MUL DUP3 OR SWAP1 POP SWAP3 SWAP2 POP POP JUMP JUMPDEST PUSH3 0x457 DUP3 PUSH3 0x1D2 JUMP JUMPDEST PUSH8 0xFFFFFFFFFFFFFFFF DUP2 GT ISZERO PUSH3 0x473 JUMPI PUSH3 0x472 PUSH3 0x1DD JUMP JUMPDEST JUMPDEST PUSH3 0x47F DUP3 SLOAD PUSH3 0x23B JUMP JUMPDEST PUSH3 0x48C DUP3 DUP3 DUP6 PUSH3 0x3B1 JUMP JUMPDEST PUSH1 0x0 PUSH1 0x20 SWAP1 POP PUSH1 0x1F DUP4 GT PUSH1 0x1 DUP2 EQ PUSH3 0x4C4 JUMPI PUSH1 0x0 DUP5 ISZERO PUSH3 0x4AF JUMPI DUP3 DUP8 ADD MLOAD SWAP1 POP JUMPDEST PUSH3 0x4BB DUP6 DUP3 PUSH3 0x42E JUMP JUMPDEST DUP7 SSTORE POP PUSH3 0x52B JUMP JUMPDEST PUSH1 0x1F NOT DUP5 AND PUSH3 0x4D4 DUP7 PUSH3 0x270 JUMP JUMPDEST PUSH1 0x0 JUMPDEST DUP3 DUP2 LT ISZERO PUSH3 0x4FE JUMPI DUP5 DUP10 ADD MLOAD DUP3 SSTORE PUSH1 0x1 DUP3 ADD SWAP2 POP PUSH1 0x20 DUP6 ADD SWAP5 POP PUSH1 0x20 DUP2 ADD SWAP1 POP PUSH3 0x4D7 JUMP JUMPDEST DUP7 DUP4 LT ISZERO PUSH3 0x51E JUMPI DUP5 DUP10 ADD MLOAD PUSH3 0x51A PUSH1 0x1F DUP10 AND DUP3 PUSH3 0x40E JUMP JUMPDEST DUP4 SSTORE POP JUMPDEST PUSH1 0x1 PUSH1 0x2 DUP9 MUL ADD DUP9 SSTORE POP POP POP JUMPDEST POP POP POP POP POP POP JUMP JUMPDEST PUSH2 0x5FE DUP1 PUSH3 0x543 PUSH1 0x0 CODECOPY PUSH1 0x0 RETURN INVALID PUSH1 0x80 PUSH1 0x40 MSTORE CALLVALUE DUP1 ISZERO PUSH2 0x10 JUMPI PUSH1 0x0 DUP1 REVERT JUMPDEST POP PUSH1 0x4 CALLDATASIZE LT PUSH2 0x36 JUMPI PUSH1 0x0 CALLDATALOAD PUSH1 0xE0 SHR DUP1 PUSH4 0x708C079D EQ PUSH2 0x3B JUMPI DUP1 PUSH4 0x7B0B53F0 EQ PUSH2 0x6B JUMPI JUMPDEST PUSH1 0x0 DUP1 REVERT JUMPDEST PUSH2 0x55 PUSH1 0x4 DUP1 CALLDATASIZE SUB DUP2 ADD SWAP1 PUSH2 0x50 SWAP2 SWAP1 PUSH2 0x19B JUMP JUMPDEST PUSH2 0x9B JUMP JUMPDEST PUSH1 0x40 MLOAD PUSH2 0x62 SWAP2 SWAP1 PUSH2 0x1D7 JUMP JUMPDEST PUSH1 0x40 MLOAD DUP1 SWAP2 SUB SWAP1 RETURN JUMPDEST PUSH2 0x85 PUSH1 0x4 DUP1 CALLDATASIZE SUB DUP2 ADD SWAP1 PUSH2 0x80 SWAP2 SWAP1 PUSH2 0x338 JUMP JUMPDEST PUSH2 0xA2 JUMP JUMPDEST PUSH1 0x40 MLOAD PUSH2 0x92 SWAP2 SWAP1 PUSH2 0x1D7 JUMP JUMPDEST PUSH1 0x40 MLOAD DUP1 SWAP2 SUB SWAP1 RETURN JUMPDEST PUSH1 0x0 SWAP2 SWAP1 POP JUMP JUMPDEST PUSH1 0x0 DUP1 PUSH1 0x0 SWAP1 POP JUMPDEST PUSH1 0x0 DUP1 SLOAD SWAP1 POP DUP2 LT ISZERO PUSH2 0x144 JUMPI DUP3 PUSH1 0x40 MLOAD PUSH1 0x20 ADD PUSH2 0xC8 SWAP2 SWAP1 PUSH2 0x3F2 JUMP JUMPDEST PUSH1 0x40 MLOAD PUSH1 0x20 DUP2 DUP4 SUB SUB DUP2 MSTORE SWAP1 PUSH1 0x40 MSTORE DUP1 MLOAD SWAP1 PUSH1 0x20 ADD KECCAK256 PUSH1 0x0 DUP3 DUP2 SLOAD DUP2 LT PUSH2 0xF2 JUMPI PUSH2 0xF1 PUSH2 0x409 JUMP JUMPDEST JUMPDEST SWAP1 PUSH1 0x0 MSTORE PUSH1 0x20 PUSH1 0x0 KECCAK256 ADD PUSH1 0x40 MLOAD PUSH1 0x20 ADD PUSH2 0x10C SWAP2 SWAP1 PUSH2 0x530 JUMP JUMPDEST PUSH1 0x40 MLOAD PUSH1 0x20 DUP2 DUP4 SUB SUB DUP2 MSTORE SWAP1 PUSH1 0x40 MSTORE DUP1 MLOAD SWAP1 PUSH1 0x20 ADD KECCAK256 SUB PUSH2 0x131 JUMPI PUSH1 0x1 SWAP2 POP POP PUSH2 0x14A JUMP JUMPDEST DUP1 DUP1 PUSH2 0x13C SWAP1 PUSH2 0x580 JUMP JUMPDEST SWAP2 POP POP PUSH2 0xAA JUMP JUMPDEST POP PUSH1 0x0 SWAP1 POP JUMPDEST SWAP2 SWAP1 POP JUMP JUMPDEST PUSH1 0x0 PUSH1 0x40 MLOAD SWAP1 POP SWAP1 JUMP JUMPDEST PUSH1 0x0 DUP1 REVERT JUMPDEST PUSH1 0x0 DUP1 REVERT JUMPDEST PUSH1 0x0 DUP2 ISZERO ISZERO SWAP1 POP SWAP2 SWAP1 POP JUMP JUMPDEST PUSH2 0x178 DUP2 PUSH2 0x163 JUMP JUMPDEST DUP2 EQ PUSH2 0x183 JUMPI PUSH1 0x0 DUP1 REVERT JUMPDEST POP JUMP JUMPDEST PUSH1 0x0 DUP2 CALLDATALOAD SWAP1 POP PUSH2 0x195 DUP2 PUSH2 0x16F JUMP JUMPDEST SWAP3 SWAP2 POP POP JUMP JUMPDEST PUSH1 0x0 PUSH1 0x20 DUP3 DUP5 SUB SLT ISZERO PUSH2 0x1B1 JUMPI PUSH2 0x1B0 PUSH2 0x159 JUMP JUMPDEST JUMPDEST PUSH1 0x0 PUSH2 0x1BF DUP5 DUP3 DUP6 ADD PUSH2 0x186 JUMP JUMPDEST SWAP2 POP POP SWAP3 SWAP2 POP POP JUMP JUMPDEST PUSH2 0x1D1 DUP2 PUSH2 0x163 JUMP JUMPDEST DUP3 MSTORE POP POP JUMP JUMPDEST PUSH1 0x0 PUSH1 0x20 DUP3 ADD SWAP1 POP PUSH2 0x1EC PUSH1 0x0 DUP4 ADD DUP5 PUSH2 0x1C8 JUMP JUMPDEST SWAP3 SWAP2 POP POP JUMP JUMPDEST PUSH1 0x0 DUP1 REVERT JUMPDEST PUSH1 0x0 DUP1 REVERT JUMPDEST PUSH1 0x0 PUSH1 0x1F NOT PUSH1 0x1F DUP4 ADD AND SWAP1 POP SWAP2 SWAP1 POP JUMP JUMPDEST PUSH32 0x4E487B7100000000000000000000000000000000000000000000000000000000 PUSH1 0x0 MSTORE PUSH1 0x41 PUSH1 0x4 MSTORE PUSH1 0x24 PUSH1 0x0 REVERT JUMPDEST PUSH2 0x245 DUP3 PUSH2 0x1FC JUMP JUMPDEST DUP2 ADD DUP2 DUP2 LT PUSH8 0xFFFFFFFFFFFFFFFF DUP3 GT OR ISZERO PUSH2 0x264 JUMPI PUSH2 0x263 PUSH2 0x20D JUMP JUMPDEST JUMPDEST DUP1 PUSH1 0x40 MSTORE POP POP POP JUMP JUMPDEST PUSH1 0x0 PUSH2 0x277 PUSH2 0x14F JUMP JUMPDEST SWAP1 POP PUSH2 0x283 DUP3 DUP3 PUSH2 0x23C JUMP JUMPDEST SWAP2 SWAP1 POP JUMP JUMPDEST PUSH1 0x0 PUSH8 0xFFFFFFFFFFFFFFFF DUP3 GT ISZERO PUSH2 0x2A3 JUMPI PUSH2 0x2A2 PUSH2 0x20D JUMP JUMPDEST JUMPDEST PUSH2 0x2AC DUP3 PUSH2 0x1FC JUMP JUMPDEST SWAP1 POP PUSH1 0x20 DUP2 ADD SWAP1 POP SWAP2 SWAP1 POP JUMP JUMPDEST DUP3 DUP2 DUP4 CALLDATACOPY PUSH1 0x0 DUP4 DUP4 ADD MSTORE POP POP POP JUMP JUMPDEST PUSH1 0x0 PUSH2 0x2DB PUSH2 0x2D6 DUP5 PUSH2 0x288 JUMP JUMPDEST PUSH2 0x26D JUMP JUMPDEST SWAP1 POP DUP3 DUP2 MSTORE PUSH1 0x20 DUP2 ADD DUP5 DUP5 DUP5 ADD GT ISZERO PUSH2 0x2F7 JUMPI PUSH2 0x2F6 PUSH2 0x1F7 JUMP JUMPDEST JUMPDEST PUSH2 0x302 DUP5 DUP3 DUP6 PUSH2 0x2B9 JUMP JUMPDEST POP SWAP4 SWAP3 POP POP POP JUMP JUMPDEST PUSH1 0x0 DUP3 PUSH1 0x1F DUP4 ADD SLT PUSH2 0x31F JUMPI PUSH2 0x31E PUSH2 0x1F2 JUMP JUMPDEST JUMPDEST DUP2 CALLDATALOAD PUSH2 0x32F DUP5 DUP3 PUSH1 0x20 DUP7 ADD PUSH2 0x2C8 JUMP JUMPDEST SWAP2 POP POP SWAP3 SWAP2 POP POP JUMP JUMPDEST PUSH1 0x0 PUSH1 0x20 DUP3 DUP5 SUB SLT ISZERO PUSH2 0x34E JUMPI PUSH2 0x34D PUSH2 0x159 JUMP JUMPDEST JUMPDEST PUSH1 0x0 DUP3 ADD CALLDATALOAD PUSH8 0xFFFFFFFFFFFFFFFF DUP2 GT ISZERO PUSH2 0x36C JUMPI PUSH2 0x36B PUSH2 0x15E JUMP JUMPDEST JUMPDEST PUSH2 0x378 DUP5 DUP3 DUP6 ADD PUSH2 0x30A JUMP JUMPDEST SWAP2 POP POP SWAP3 SWAP2 POP POP JUMP JUMPDEST PUSH1 0x0 DUP2 MLOAD SWAP1 POP SWAP2 SWAP1 POP JUMP JUMPDEST PUSH1 0x0 DUP2 SWAP1 POP SWAP3 SWAP2 POP POP JUMP JUMPDEST PUSH1 0x0 JUMPDEST DUP4 DUP2 LT ISZERO PUSH2 0x3B5 JUMPI DUP1 DUP3 ADD MLOAD DUP2 DUP5 ADD MSTORE PUSH1 0x20 DUP2 ADD SWAP1 POP PUSH2 0x39A JUMP JUMPDEST PUSH1 0x0 DUP5 DUP5 ADD MSTORE POP POP POP POP JUMP JUMPDEST PUSH1 0x0 PUSH2 0x3CC DUP3 PUSH2 0x381 JUMP JUMPDEST PUSH2 0x3D6 DUP2 DUP6 PUSH2 0x38C JUMP JUMPDEST SWAP4 POP PUSH2 0x3E6 DUP2 DUP6 PUSH1 0x20 DUP7 ADD PUSH2 0x397 JUMP JUMPDEST DUP1 DUP5 ADD SWAP2 POP POP SWAP3 SWAP2 POP POP JUMP JUMPDEST PUSH1 0x0 PUSH2 0x3FE DUP3 DUP5 PUSH2 0x3C1 JUMP JUMPDEST SWAP2 POP DUP2 SWAP1 POP SWAP3 SWAP2 POP POP JUMP JUMPDEST PUSH32 0x4E487B7100000000000000000000000000000000000000000000000000000000 PUSH1 0x0 MSTORE PUSH1 0x32 PUSH1 0x4 MSTORE PUSH1 0x24 PUSH1 0x0 REVERT JUMPDEST PUSH32 0x4E487B7100000000000000000000000000000000000000000000000000000000 PUSH1 0x0 MSTORE PUSH1 0x22 PUSH1 0x4 MSTORE PUSH1 0x24 PUSH1 0x0 REVERT JUMPDEST PUSH1 0x0 PUSH1 0x2 DUP3 DIV SWAP1 POP PUSH1 0x1 DUP3 AND DUP1 PUSH2 0x47F JUMPI PUSH1 0x7F DUP3 AND SWAP2 POP JUMPDEST PUSH1 0x20 DUP3 LT DUP2 SUB PUSH2 0x492 JUMPI PUSH2 0x491 PUSH2 0x438 JUMP JUMPDEST JUMPDEST POP SWAP2 SWAP1 POP JUMP JUMPDEST PUSH1 0x0 DUP2 SWAP1 POP DUP2 PUSH1 0x0 MSTORE PUSH1 0x20 PUSH1 0x0 KECCAK256 SWAP1 POP SWAP2 SWAP1 POP JUMP JUMPDEST PUSH1 0x0 DUP2 SLOAD PUSH2 0x4BA DUP2 PUSH2 0x467 JUMP JUMPDEST PUSH2 0x4C4 DUP2 DUP7 PUSH2 0x38C JUMP JUMPDEST SWAP5 POP PUSH1 0x1 DUP3 AND PUSH1 0x0 DUP2 EQ PUSH2 0x4DF JUMPI PUSH1 0x1 DUP2 EQ PUSH2 0x4F4 JUMPI PUSH2 0x527 JUMP JUMPDEST PUSH1 0xFF NOT DUP4 AND DUP7 MSTORE DUP2 ISZERO ISZERO DUP3 MUL DUP7 ADD SWAP4 POP PUSH2 0x527 JUMP JUMPDEST PUSH2 0x4FD DUP6 PUSH2 0x498 JUMP JUMPDEST PUSH1 0x0 JUMPDEST DUP4 DUP2 LT ISZERO PUSH2 0x51F JUMPI DUP2 SLOAD DUP2 DUP10 ADD MSTORE PUSH1 0x1 DUP3 ADD SWAP2 POP PUSH1 0x20 DUP2 ADD SWAP1 POP PUSH2 0x500 JUMP JUMPDEST DUP4 DUP9 ADD SWAP6 POP POP POP JUMPDEST POP POP POP SWAP3 SWAP2 POP POP JUMP JUMPDEST PUSH1 0x0 PUSH2 0x53C DUP3 DUP5 PUSH2 0x4AD JUMP JUMPDEST SWAP2 POP DUP2 SWAP1 POP SWAP3 SWAP2 POP POP JUMP JUMPDEST PUSH32 0x4E487B7100000000000000000000000000000000000000000000000000000000 PUSH1 0x0 MSTORE PUSH1 0x11 PUSH1 0x4 MSTORE PUSH1 0x24 PUSH1 0x0 REVERT JUMPDEST PUSH1 0x0 DUP2 SWAP1 POP SWAP2 SWAP1 POP JUMP JUMPDEST PUSH1 0x0 PUSH2 0x58B DUP3 PUSH2 0x576 JUMP JUMPDEST SWAP2 POP PUSH32 0xFFFFFFFFFFFFFFFFFFFFFFFFFFFFFFFFFFFFFFFFFFFFFFFFFFFFFFFFFFFFFFFF DUP3 SUB PUSH2 0x5BD JUMPI PUSH2 0x5BC PUSH2 0x547 JUMP JUMPDEST JUMPDEST PUSH1 0x1 DUP3 ADD SWAP1 POP SWAP2 SWAP1 POP JUMP INVALID LOG2 PUSH5 0x6970667358 0x22 SLT KECCAK256 0xE3 0xE0 0xD0 SWAP1 SWAP9 RETURNDATACOPY PUSH22 0xB7F7288E5DE37B36EF2CBDF9A8B409528C06962C6FEF SWAP14 0x4C LOG1 PUSH5 0x736F6C6343 STOP ADDMOD GT STOP CALLER "
				},
				"gasEstimates": {
					"creation": {
						"codeDepositCost": "306800",
						"executionCost": "infinite",
						"totalCost": "infinite"
					},
					"external": {
						"checkNationality(string)": "infinite",
						"checkPoliticalStatus(bool)": "infinite"
					}
				},
				"methodIdentifiers": {
					"checkNationality(string)": "7b0b53f0",
					"checkPoliticalStatus(bool)": "708c079d"
				}
			},
			"storageLayout": {
				"storage": [
					{
						"astId": 8,
						"contract": "contracts/SgAML.sol:SgAML",
						"label": "bannedCountries",
						"offset": 0,
						"slot": "0",
						"type": "t_array(t_string_storage)dyn_storage"
					}
				],
				"types": {
					"t_array(t_string_storage)dyn_storage": {
						"base": "t_string_storage",
						"encoding": "dynamic_array",
						"label": "string[]",
						"numberOfBytes": "32"
					},
					"t_string_storage": {
						"encoding": "bytes",
						"label": "string",
						"numberOfBytes": "32"
					}
				}
			},
			"userdoc": {
				"kind": "user",
				"methods": {},
				"version": 1
			}
		}
	}
}