{
	"data": {
		"bytecode": {
			"linkReferences": {},
			"object": "608060405234801561001057600080fd5b50610964806100206000396000f3fe608060405234801561001057600080fd5b506004361061002b5760003560e01c80637b0b53f014610030575b600080fd5b61004a600480360381019061004591906103ff565b610060565b6040516100579190610463565b60405180910390f35b60008080600181540180825580915050600190039060005260206000200160006040518060400160405280600481526020017f4972616e00000000000000000000000000000000000000000000000000000000815250909190915090816100c7919061069f565b50600080600181540180825580915050600190039060005260206000200160006040518060400160405280600a81526020017f416667616e697374616e000000000000000000000000000000000000000000008152509091909150908161012e919061069f565b50600080600181540180825580915050600190039060005260206000200160006040518060400160405280600c81526020017f5475726b6d656e697374616e000000000000000000000000000000000000000081525090919091509081610195919061069f565b50600080600181540180825580915050600190039060005260206000200160006040518060400160405280600a81526020017f4b797267797a7374616e00000000000000000000000000000000000000000000815250909190915090816101fc919061069f565b5060005b60008054905081101561029a578260405160200161021e91906107d7565b6040516020818303038152906040528051906020012060008281548110610248576102476107ee565b5b9060005260206000200160405160200161026291906108a0565b60405160208183030381529060405280519060200120036102875760019150506102a0565b8080610292906108e6565b915050610200565b50600090505b919050565b6000604051905090565b600080fd5b600080fd5b600080fd5b600080fd5b6000601f19601f8301169050919050565b7f4e487b7100000000000000000000000000000000000000000000000000000000600052604160045260246000fd5b61030c826102c3565b810181811067ffffffffffffffff8211171561032b5761032a6102d4565b5b80604052505050565b600061033e6102a5565b905061034a8282610303565b919050565b600067ffffffffffffffff82111561036a576103696102d4565b5b610373826102c3565b9050602081019050919050565b82818337600083830152505050565b60006103a261039d8461034f565b610334565b9050828152602081018484840111156103be576103bd6102be565b5b6103c9848285610380565b509392505050565b600082601f8301126103e6576103e56102b9565b5b81356103f684826020860161038f565b91505092915050565b600060208284031215610415576104146102af565b5b600082013567ffffffffffffffff811115610433576104326102b4565b5b61043f848285016103d1565b91505092915050565b60008115159050919050565b61045d81610448565b82525050565b60006020820190506104786000830184610454565b92915050565b600081519050919050565b7f4e487b7100000000000000000000000000000000000000000000000000000000600052602260045260246000fd5b600060028204905060018216806104d057607f821691505b6020821081036104e3576104e2610489565b5b50919050565b60008190508160005260206000209050919050565b60006020601f8301049050919050565b600082821b905092915050565b60006008830261054b7fffffffffffffffffffffffffffffffffffffffffffffffffffffffffffffffff8261050e565b610555868361050e565b95508019841693508086168417925050509392505050565b6000819050919050565b6000819050919050565b600061059c6105976105928461056d565b610577565b61056d565b9050919050565b6000819050919050565b6105b683610581565b6105ca6105c2826105a3565b84845461051b565b825550505050565b600090565b6105df6105d2565b6105ea8184846105ad565b505050565b5b8181101561060e576106036000826105d7565b6001810190506105f0565b5050565b601f82111561065357610624816104e9565b61062d846104fe565b8101602085101561063c578190505b610650610648856104fe565b8301826105ef565b50505b505050565b600082821c905092915050565b600061067660001984600802610658565b1980831691505092915050565b600061068f8383610665565b9150826002028217905092915050565b6106a88261047e565b67ffffffffffffffff8111156106c1576106c06102d4565b5b6106cb82546104b8565b6106d6828285610612565b600060209050601f83116001811461070957600084156106f7578287015190505b6107018582610683565b865550610769565b601f198416610717866104e9565b60005b8281101561073f5784890151825560018201915060208501945060208101905061071a565b8683101561075c5784890151610758601f891682610665565b8355505b6001600288020188555050505b505050505050565b600081905092915050565b60005b8381101561079a57808201518184015260208101905061077f565b60008484015250505050565b60006107b18261047e565b6107bb8185610771565b93506107cb81856020860161077c565b80840191505092915050565b60006107e382846107a6565b915081905092915050565b7f4e487b7100000000000000000000000000000000000000000000000000000000600052603260045260246000fd5b6000815461082a816104b8565b6108348186610771565b9450600182166000811461084f576001811461086457610897565b60ff1983168652811515820286019350610897565b61086d856104e9565b60005b8381101561088f57815481890152600182019150602081019050610870565b838801955050505b50505092915050565b60006108ac828461081d565b915081905092915050565b7f4e487b7100000000000000000000000000000000000000000000000000000000600052601160045260246000fd5b60006108f18261056d565b91507fffffffffffffffffffffffffffffffffffffffffffffffffffffffffffffffff8203610923576109226108b7565b5b60018201905091905056fea2646970667358221220a24b586303b70bc160b16c1ad3c236342b9ce85114041db50b120468a1c3fc4a64736f6c63430008110033",
			"opcodes": "PUSH1 0x80 PUSH1 0x40 MSTORE CALLVALUE DUP1 ISZERO PUSH2 0x10 JUMPI PUSH1 0x0 DUP1 REVERT JUMPDEST POP PUSH2 0x964 DUP1 PUSH2 0x20 PUSH1 0x0 CODECOPY PUSH1 0x0 RETURN INVALID PUSH1 0x80 PUSH1 0x40 MSTORE CALLVALUE DUP1 ISZERO PUSH2 0x10 JUMPI PUSH1 0x0 DUP1 REVERT JUMPDEST POP PUSH1 0x4 CALLDATASIZE LT PUSH2 0x2B JUMPI PUSH1 0x0 CALLDATALOAD PUSH1 0xE0 SHR DUP1 PUSH4 0x7B0B53F0 EQ PUSH2 0x30 JUMPI JUMPDEST PUSH1 0x0 DUP1 REVERT JUMPDEST PUSH2 0x4A PUSH1 0x4 DUP1 CALLDATASIZE SUB DUP2 ADD SWAP1 PUSH2 0x45 SWAP2 SWAP1 PUSH2 0x3FF JUMP JUMPDEST PUSH2 0x60 JUMP JUMPDEST PUSH1 0x40 MLOAD PUSH2 0x57 SWAP2 SWAP1 PUSH2 0x463 JUMP JUMPDEST PUSH1 0x40 MLOAD DUP1 SWAP2 SUB SWAP1 RETURN JUMPDEST PUSH1 0x0 DUP1 DUP1 PUSH1 0x1 DUP2 SLOAD ADD DUP1 DUP3 SSTORE DUP1 SWAP2 POP POP PUSH1 0x1 SWAP1 SUB SWAP1 PUSH1 0x0 MSTORE PUSH1 0x20 PUSH1 0x0 KECCAK256 ADD PUSH1 0x0 PUSH1 0x40 MLOAD DUP1 PUSH1 0x40 ADD PUSH1 0x40 MSTORE DUP1 PUSH1 0x4 DUP2 MSTORE PUSH1 0x20 ADD PUSH32 0x4972616E00000000000000000000000000000000000000000000000000000000 DUP2 MSTORE POP SWAP1 SWAP2 SWAP1 SWAP2 POP SWAP1 DUP2 PUSH2 0xC7 SWAP2 SWAP1 PUSH2 0x69F JUMP JUMPDEST POP PUSH1 0x0 DUP1 PUSH1 0x1 DUP2 SLOAD ADD DUP1 DUP3 SSTORE DUP1 SWAP2 POP POP PUSH1 0x1 SWAP1 SUB SWAP1 PUSH1 0x0 MSTORE PUSH1 0x20 PUSH1 0x0 KECCAK256 ADD PUSH1 0x0 PUSH1 0x40 MLOAD DUP1 PUSH1 0x40 ADD PUSH1 0x40 MSTORE DUP1 PUSH1 0xA DUP2 MSTORE PUSH1 0x20 ADD PUSH32 0x416667616E697374616E00000000000000000000000000000000000000000000 DUP2 MSTORE POP SWAP1 SWAP2 SWAP1 SWAP2 POP SWAP1 DUP2 PUSH2 0x12E SWAP2 SWAP1 PUSH2 0x69F JUMP JUMPDEST POP PUSH1 0x0 DUP1 PUSH1 0x1 DUP2 SLOAD ADD DUP1 DUP3 SSTORE DUP1 SWAP2 POP POP PUSH1 0x1 SWAP1 SUB SWAP1 PUSH1 0x0 MSTORE PUSH1 0x20 PUSH1 0x0 KECCAK256 ADD PUSH1 0x0 PUSH1 0x40 MLOAD DUP1 PUSH1 0x40 ADD PUSH1 0x40 MSTORE DUP1 PUSH1 0xC DUP2 MSTORE PUSH1 0x20 ADD PUSH32 0x5475726B6D656E697374616E0000000000000000000000000000000000000000 DUP2 MSTORE POP SWAP1 SWAP2 SWAP1 SWAP2 POP SWAP1 DUP2 PUSH2 0x195 SWAP2 SWAP1 PUSH2 0x69F JUMP JUMPDEST POP PUSH1 0x0 DUP1 PUSH1 0x1 DUP2 SLOAD ADD DUP1 DUP3 SSTORE DUP1 SWAP2 POP POP PUSH1 0x1 SWAP1 SUB SWAP1 PUSH1 0x0 MSTORE PUSH1 0x20 PUSH1 0x0 KECCAK256 ADD PUSH1 0x0 PUSH1 0x40 MLOAD DUP1 PUSH1 0x40 ADD PUSH1 0x40 MSTORE DUP1 PUSH1 0xA DUP2 MSTORE PUSH1 0x20 ADD PUSH32 0x4B797267797A7374616E00000000000000000000000000000000000000000000 DUP2 MSTORE POP SWAP1 SWAP2 SWAP1 SWAP2 POP SWAP1 DUP2 PUSH2 0x1FC SWAP2 SWAP1 PUSH2 0x69F JUMP JUMPDEST POP PUSH1 0x0 JUMPDEST PUSH1 0x0 DUP1 SLOAD SWAP1 POP DUP2 LT ISZERO PUSH2 0x29A JUMPI DUP3 PUSH1 0x40 MLOAD PUSH1 0x20 ADD PUSH2 0x21E SWAP2 SWAP1 PUSH2 0x7D7 JUMP JUMPDEST PUSH1 0x40 MLOAD PUSH1 0x20 DUP2 DUP4 SUB SUB DUP2 MSTORE SWAP1 PUSH1 0x40 MSTORE DUP1 MLOAD SWAP1 PUSH1 0x20 ADD KECCAK256 PUSH1 0x0 DUP3 DUP2 SLOAD DUP2 LT PUSH2 0x248 JUMPI PUSH2 0x247 PUSH2 0x7EE JUMP JUMPDEST JUMPDEST SWAP1 PUSH1 0x0 MSTORE PUSH1 0x20 PUSH1 0x0 KECCAK256 ADD PUSH1 0x40 MLOAD PUSH1 0x20 ADD PUSH2 0x262 SWAP2 SWAP1 PUSH2 0x8A0 JUMP JUMPDEST PUSH1 0x40 MLOAD PUSH1 0x20 DUP2 DUP4 SUB SUB DUP2 MSTORE SWAP1 PUSH1 0x40 MSTORE DUP1 MLOAD SWAP1 PUSH1 0x20 ADD KECCAK256 SUB PUSH2 0x287 JUMPI PUSH1 0x1 SWAP2 POP POP PUSH2 0x2A0 JUMP JUMPDEST DUP1 DUP1 PUSH2 0x292 SWAP1 PUSH2 0x8E6 JUMP JUMPDEST SWAP2 POP POP PUSH2 0x200 JUMP JUMPDEST POP PUSH1 0x0 SWAP1 POP JUMPDEST SWAP2 SWAP1 POP JUMP JUMPDEST PUSH1 0x0 PUSH1 0x40 MLOAD SWAP1 POP SWAP1 JUMP JUMPDEST PUSH1 0x0 DUP1 REVERT JUMPDEST PUSH1 0x0 DUP1 REVERT JUMPDEST PUSH1 0x0 DUP1 REVERT JUMPDEST PUSH1 0x0 DUP1 REVERT JUMPDEST PUSH1 0x0 PUSH1 0x1F NOT PUSH1 0x1F DUP4 ADD AND SWAP1 POP SWAP2 SWAP1 POP JUMP JUMPDEST PUSH32 0x4E487B7100000000000000000000000000000000000000000000000000000000 PUSH1 0x0 MSTORE PUSH1 0x41 PUSH1 0x4 MSTORE PUSH1 0x24 PUSH1 0x0 REVERT JUMPDEST PUSH2 0x30C DUP3 PUSH2 0x2C3 JUMP JUMPDEST DUP2 ADD DUP2 DUP2 LT PUSH8 0xFFFFFFFFFFFFFFFF DUP3 GT OR ISZERO PUSH2 0x32B JUMPI PUSH2 0x32A PUSH2 0x2D4 JUMP JUMPDEST JUMPDEST DUP1 PUSH1 0x40 MSTORE POP POP POP JUMP JUMPDEST PUSH1 0x0 PUSH2 0x33E PUSH2 0x2A5 JUMP JUMPDEST SWAP1 POP PUSH2 0x34A DUP3 DUP3 PUSH2 0x303 JUMP JUMPDEST SWAP2 SWAP1 POP JUMP JUMPDEST PUSH1 0x0 PUSH8 0xFFFFFFFFFFFFFFFF DUP3 GT ISZERO PUSH2 0x36A JUMPI PUSH2 0x369 PUSH2 0x2D4 JUMP JUMPDEST JUMPDEST PUSH2 0x373 DUP3 PUSH2 0x2C3 JUMP JUMPDEST SWAP1 POP PUSH1 0x20 DUP2 ADD SWAP1 POP SWAP2 SWAP1 POP JUMP JUMPDEST DUP3 DUP2 DUP4 CALLDATACOPY PUSH1 0x0 DUP4 DUP4 ADD MSTORE POP POP POP JUMP JUMPDEST PUSH1 0x0 PUSH2 0x3A2 PUSH2 0x39D DUP5 PUSH2 0x34F JUMP JUMPDEST PUSH2 0x334 JUMP JUMPDEST SWAP1 POP DUP3 DUP2 MSTORE PUSH1 0x20 DUP2 ADD DUP5 DUP5 DUP5 ADD GT ISZERO PUSH2 0x3BE JUMPI PUSH2 0x3BD PUSH2 0x2BE JUMP JUMPDEST JUMPDEST PUSH2 0x3C9 DUP5 DUP3 DUP6 PUSH2 0x380 JUMP JUMPDEST POP SWAP4 SWAP3 POP POP POP JUMP JUMPDEST PUSH1 0x0 DUP3 PUSH1 0x1F DUP4 ADD SLT PUSH2 0x3E6 JUMPI PUSH2 0x3E5 PUSH2 0x2B9 JUMP JUMPDEST JUMPDEST DUP2 CALLDATALOAD PUSH2 0x3F6 DUP5 DUP3 PUSH1 0x20 DUP7 ADD PUSH2 0x38F JUMP JUMPDEST SWAP2 POP POP SWAP3 SWAP2 POP POP JUMP JUMPDEST PUSH1 0x0 PUSH1 0x20 DUP3 DUP5 SUB SLT ISZERO PUSH2 0x415 JUMPI PUSH2 0x414 PUSH2 0x2AF JUMP JUMPDEST JUMPDEST PUSH1 0x0 DUP3 ADD CALLDATALOAD PUSH8 0xFFFFFFFFFFFFFFFF DUP2 GT ISZERO PUSH2 0x433 JUMPI PUSH2 0x432 PUSH2 0x2B4 JUMP JUMPDEST JUMPDEST PUSH2 0x43F DUP5 DUP3 DUP6 ADD PUSH2 0x3D1 JUMP JUMPDEST SWAP2 POP POP SWAP3 SWAP2 POP POP JUMP JUMPDEST PUSH1 0x0 DUP2 ISZERO ISZERO SWAP1 POP SWAP2 SWAP1 POP JUMP JUMPDEST PUSH2 0x45D DUP2 PUSH2 0x448 JUMP JUMPDEST DUP3 MSTORE POP POP JUMP JUMPDEST PUSH1 0x0 PUSH1 0x20 DUP3 ADD SWAP1 POP PUSH2 0x478 PUSH1 0x0 DUP4 ADD DUP5 PUSH2 0x454 JUMP JUMPDEST SWAP3 SWAP2 POP POP JUMP JUMPDEST PUSH1 0x0 DUP2 MLOAD SWAP1 POP SWAP2 SWAP1 POP JUMP JUMPDEST PUSH32 0x4E487B7100000000000000000000000000000000000000000000000000000000 PUSH1 0x0 MSTORE PUSH1 0x22 PUSH1 0x4 MSTORE PUSH1 0x24 PUSH1 0x0 REVERT JUMPDEST PUSH1 0x0 PUSH1 0x2 DUP3 DIV SWAP1 POP PUSH1 0x1 DUP3 AND DUP1 PUSH2 0x4D0 JUMPI PUSH1 0x7F DUP3 AND SWAP2 POP JUMPDEST PUSH1 0x20 DUP3 LT DUP2 SUB PUSH2 0x4E3 JUMPI PUSH2 0x4E2 PUSH2 0x489 JUMP JUMPDEST JUMPDEST POP SWAP2 SWAP1 POP JUMP JUMPDEST PUSH1 0x0 DUP2 SWAP1 POP DUP2 PUSH1 0x0 MSTORE PUSH1 0x20 PUSH1 0x0 KECCAK256 SWAP1 POP SWAP2 SWAP1 POP JUMP JUMPDEST PUSH1 0x0 PUSH1 0x20 PUSH1 0x1F DUP4 ADD DIV SWAP1 POP SWAP2 SWAP1 POP JUMP JUMPDEST PUSH1 0x0 DUP3 DUP3 SHL SWAP1 POP SWAP3 SWAP2 POP POP JUMP JUMPDEST PUSH1 0x0 PUSH1 0x8 DUP4 MUL PUSH2 0x54B PUSH32 0xFFFFFFFFFFFFFFFFFFFFFFFFFFFFFFFFFFFFFFFFFFFFFFFFFFFFFFFFFFFFFFFF DUP3 PUSH2 0x50E JUMP JUMPDEST PUSH2 0x555 DUP7 DUP4 PUSH2 0x50E JUMP JUMPDEST SWAP6 POP DUP1 NOT DUP5 AND SWAP4 POP DUP1 DUP7 AND DUP5 OR SWAP3 POP POP POP SWAP4 SWAP3 POP POP POP JUMP JUMPDEST PUSH1 0x0 DUP2 SWAP1 POP SWAP2 SWAP1 POP JUMP JUMPDEST PUSH1 0x0 DUP2 SWAP1 POP SWAP2 SWAP1 POP JUMP JUMPDEST PUSH1 0x0 PUSH2 0x59C PUSH2 0x597 PUSH2 0x592 DUP5 PUSH2 0x56D JUMP JUMPDEST PUSH2 0x577 JUMP JUMPDEST PUSH2 0x56D JUMP JUMPDEST SWAP1 POP SWAP2 SWAP1 POP JUMP JUMPDEST PUSH1 0x0 DUP2 SWAP1 POP SWAP2 SWAP1 POP JUMP JUMPDEST PUSH2 0x5B6 DUP4 PUSH2 0x581 JUMP JUMPDEST PUSH2 0x5CA PUSH2 0x5C2 DUP3 PUSH2 0x5A3 JUMP JUMPDEST DUP5 DUP5 SLOAD PUSH2 0x51B JUMP JUMPDEST DUP3 SSTORE POP POP POP POP JUMP JUMPDEST PUSH1 0x0 SWAP1 JUMP JUMPDEST PUSH2 0x5DF PUSH2 0x5D2 JUMP JUMPDEST PUSH2 0x5EA DUP2 DUP5 DUP5 PUSH2 0x5AD JUMP JUMPDEST POP POP POP JUMP JUMPDEST JUMPDEST DUP2 DUP2 LT ISZERO PUSH2 0x60E JUMPI PUSH2 0x603 PUSH1 0x0 DUP3 PUSH2 0x5D7 JUMP JUMPDEST PUSH1 0x1 DUP2 ADD SWAP1 POP PUSH2 0x5F0 JUMP JUMPDEST POP POP JUMP JUMPDEST PUSH1 0x1F DUP3 GT ISZERO PUSH2 0x653 JUMPI PUSH2 0x624 DUP2 PUSH2 0x4E9 JUMP JUMPDEST PUSH2 0x62D DUP5 PUSH2 0x4FE JUMP JUMPDEST DUP2 ADD PUSH1 0x20 DUP6 LT ISZERO PUSH2 0x63C JUMPI DUP2 SWAP1 POP JUMPDEST PUSH2 0x650 PUSH2 0x648 DUP6 PUSH2 0x4FE JUMP JUMPDEST DUP4 ADD DUP3 PUSH2 0x5EF JUMP JUMPDEST POP POP JUMPDEST POP POP POP JUMP JUMPDEST PUSH1 0x0 DUP3 DUP3 SHR SWAP1 POP SWAP3 SWAP2 POP POP JUMP JUMPDEST PUSH1 0x0 PUSH2 0x676 PUSH1 0x0 NOT DUP5 PUSH1 0x8 MUL PUSH2 0x658 JUMP JUMPDEST NOT DUP1 DUP4 AND SWAP2 POP POP SWAP3 SWAP2 POP POP JUMP JUMPDEST PUSH1 0x0 PUSH2 0x68F DUP4 DUP4 PUSH2 0x665 JUMP JUMPDEST SWAP2 POP DUP3 PUSH1 0x2 MUL DUP3 OR SWAP1 POP SWAP3 SWAP2 POP POP JUMP JUMPDEST PUSH2 0x6A8 DUP3 PUSH2 0x47E JUMP JUMPDEST PUSH8 0xFFFFFFFFFFFFFFFF DUP2 GT ISZERO PUSH2 0x6C1 JUMPI PUSH2 0x6C0 PUSH2 0x2D4 JUMP JUMPDEST JUMPDEST PUSH2 0x6CB DUP3 SLOAD PUSH2 0x4B8 JUMP JUMPDEST PUSH2 0x6D6 DUP3 DUP3 DUP6 PUSH2 0x612 JUMP JUMPDEST PUSH1 0x0 PUSH1 0x20 SWAP1 POP PUSH1 0x1F DUP4 GT PUSH1 0x1 DUP2 EQ PUSH2 0x709 JUMPI PUSH1 0x0 DUP5 ISZERO PUSH2 0x6F7 JUMPI DUP3 DUP8 ADD MLOAD SWAP1 POP JUMPDEST PUSH2 0x701 DUP6 DUP3 PUSH2 0x683 JUMP JUMPDEST DUP7 SSTORE POP PUSH2 0x769 JUMP JUMPDEST PUSH1 0x1F NOT DUP5 AND PUSH2 0x717 DUP7 PUSH2 0x4E9 JUMP JUMPDEST PUSH1 0x0 JUMPDEST DUP3 DUP2 LT ISZERO PUSH2 0x73F JUMPI DUP5 DUP10 ADD MLOAD DUP3 SSTORE PUSH1 0x1 DUP3 ADD SWAP2 POP PUSH1 0x20 DUP6 ADD SWAP5 POP PUSH1 0x20 DUP2 ADD SWAP1 POP PUSH2 0x71A JUMP JUMPDEST DUP7 DUP4 LT ISZERO PUSH2 0x75C JUMPI DUP5 DUP10 ADD MLOAD PUSH2 0x758 PUSH1 0x1F DUP10 AND DUP3 PUSH2 0x665 JUMP JUMPDEST DUP4 SSTORE POP JUMPDEST PUSH1 0x1 PUSH1 0x2 DUP9 MUL ADD DUP9 SSTORE POP POP POP JUMPDEST POP POP POP POP POP POP JUMP JUMPDEST PUSH1 0x0 DUP2 SWAP1 POP SWAP3 SWAP2 POP POP JUMP JUMPDEST PUSH1 0x0 JUMPDEST DUP4 DUP2 LT ISZERO PUSH2 0x79A JUMPI DUP1 DUP3 ADD MLOAD DUP2 DUP5 ADD MSTORE PUSH1 0x20 DUP2 ADD SWAP1 POP PUSH2 0x77F JUMP JUMPDEST PUSH1 0x0 DUP5 DUP5 ADD MSTORE POP POP POP POP JUMP JUMPDEST PUSH1 0x0 PUSH2 0x7B1 DUP3 PUSH2 0x47E JUMP JUMPDEST PUSH2 0x7BB DUP2 DUP6 PUSH2 0x771 JUMP JUMPDEST SWAP4 POP PUSH2 0x7CB DUP2 DUP6 PUSH1 0x20 DUP7 ADD PUSH2 0x77C JUMP JUMPDEST DUP1 DUP5 ADD SWAP2 POP POP SWAP3 SWAP2 POP POP JUMP JUMPDEST PUSH1 0x0 PUSH2 0x7E3 DUP3 DUP5 PUSH2 0x7A6 JUMP JUMPDEST SWAP2 POP DUP2 SWAP1 POP SWAP3 SWAP2 POP POP JUMP JUMPDEST PUSH32 0x4E487B7100000000000000000000000000000000000000000000000000000000 PUSH1 0x0 MSTORE PUSH1 0x32 PUSH1 0x4 MSTORE PUSH1 0x24 PUSH1 0x0 REVERT JUMPDEST PUSH1 0x0 DUP2 SLOAD PUSH2 0x82A DUP2 PUSH2 0x4B8 JUMP JUMPDEST PUSH2 0x834 DUP2 DUP7 PUSH2 0x771 JUMP JUMPDEST SWAP5 POP PUSH1 0x1 DUP3 AND PUSH1 0x0 DUP2 EQ PUSH2 0x84F JUMPI PUSH1 0x1 DUP2 EQ PUSH2 0x864 JUMPI PUSH2 0x897 JUMP JUMPDEST PUSH1 0xFF NOT DUP4 AND DUP7 MSTORE DUP2 ISZERO ISZERO DUP3 MUL DUP7 ADD SWAP4 POP PUSH2 0x897 JUMP JUMPDEST PUSH2 0x86D DUP6 PUSH2 0x4E9 JUMP JUMPDEST PUSH1 0x0 JUMPDEST DUP4 DUP2 LT ISZERO PUSH2 0x88F JUMPI DUP2 SLOAD DUP2 DUP10 ADD MSTORE PUSH1 0x1 DUP3 ADD SWAP2 POP PUSH1 0x20 DUP2 ADD SWAP1 POP PUSH2 0x870 JUMP JUMPDEST DUP4 DUP9 ADD SWAP6 POP POP POP JUMPDEST POP POP POP SWAP3 SWAP2 POP POP JUMP JUMPDEST PUSH1 0x0 PUSH2 0x8AC DUP3 DUP5 PUSH2 0x81D JUMP JUMPDEST SWAP2 POP DUP2 SWAP1 POP SWAP3 SWAP2 POP POP JUMP JUMPDEST PUSH32 0x4E487B7100000000000000000000000000000000000000000000000000000000 PUSH1 0x0 MSTORE PUSH1 0x11 PUSH1 0x4 MSTORE PUSH1 0x24 PUSH1 0x0 REVERT JUMPDEST PUSH1 0x0 PUSH2 0x8F1 DUP3 PUSH2 0x56D JUMP JUMPDEST SWAP2 POP PUSH32 0xFFFFFFFFFFFFFFFFFFFFFFFFFFFFFFFFFFFFFFFFFFFFFFFFFFFFFFFFFFFFFFFF DUP3 SUB PUSH2 0x923 JUMPI PUSH2 0x922 PUSH2 0x8B7 JUMP JUMPDEST JUMPDEST PUSH1 0x1 DUP3 ADD SWAP1 POP SWAP2 SWAP1 POP JUMP INVALID LOG2 PUSH5 0x6970667358 0x22 SLT KECCAK256 LOG2 0x4B PC PUSH4 0x3B70BC1 PUSH1 0xB1 PUSH13 0x1AD3C236342B9CE85114041DB5 SIGNEXTEND SLT DIV PUSH9 0xA1C3FC4A64736F6C63 NUMBER STOP ADDMOD GT STOP CALLER "
		},
		"gasEstimates": {
			"creation": {
				"codeDepositCost": "480800",
				"executionCost": "518",
				"totalCost": "481318"
			},
			"external": {
				"checkNationality(string)": "infinite"
			}
		},
		"methodIdentifiers": {
			"checkNationality(string)": "7b0b53f0"
		}
	},
	"abi": [
		{
			"inputs": [
				{
					"internalType": "string",
					"name": "userNationality",
					"type": "string"
				}
			],
			"name": "checkNationality",
			"outputs": [
				{
					"internalType": "bool",
					"name": "",
					"type": "bool"
				}
			],
			"stateMutability": "nonpayable",
			"type": "function"
		}
	]
}