{
	"data": {
		"bytecode": {
			"linkReferences": {},
			"object": "608060405260405180606001604052806040518060400160405280600481526020017f497261710000000000000000000000000000000000000000000000000000000081525081526020016040518060400160405280600b81526020017f4e6f727468204b6f72656100000000000000000000000000000000000000000081525081526020016040518060400160405280600681526020017f52757373696100000000000000000000000000000000000000000000000000008152508152506000906003620000d09291906200014c565b50601e60015560405180602001604052807372a4bbe493fc0a724460c9940ee6fae5f9209d6173ffffffffffffffffffffffffffffffffffffffff1673ffffffffffffffffffffffffffffffffffffffff16815250600290600162000137929190620001ac565b503480156200014557600080fd5b5062000629565b82805482825590600052602060002090810192821562000199579160200282015b828111156200019857825182908162000187919062000542565b50916020019190600101906200016d565b5b509050620001a891906200023b565b5090565b82805482825590600052602060002090810192821562000228579160200282015b82811115620002275782518260006101000a81548173ffffffffffffffffffffffffffffffffffffffff021916908373ffffffffffffffffffffffffffffffffffffffff16021790555091602001919060010190620001cd565b5b50905062000237919062000263565b5090565b5b808211156200025f576000818162000255919062000282565b506001016200023c565b5090565b5b808211156200027e57600081600090555060010162000264565b5090565b508054620002909062000331565b6000825580601f10620002a45750620002c5565b601f016020900490600052602060002090810190620002c4919062000263565b5b50565b600081519050919050565b7f4e487b7100000000000000000000000000000000000000000000000000000000600052604160045260246000fd5b7f4e487b7100000000000000000000000000000000000000000000000000000000600052602260045260246000fd5b600060028204905060018216806200034a57607f821691505b60208210810362000360576200035f62000302565b5b50919050565b60008190508160005260206000209050919050565b60006020601f8301049050919050565b600082821b905092915050565b600060088302620003ca7fffffffffffffffffffffffffffffffffffffffffffffffffffffffffffffffff826200038b565b620003d686836200038b565b95508019841693508086168417925050509392505050565b6000819050919050565b6000819050919050565b6000620004236200041d6200041784620003ee565b620003f8565b620003ee565b9050919050565b6000819050919050565b6200043f8362000402565b620004576200044e826200042a565b84845462000398565b825550505050565b600090565b6200046e6200045f565b6200047b81848462000434565b505050565b5b81811015620004a3576200049760008262000464565b60018101905062000481565b5050565b601f821115620004f257620004bc8162000366565b620004c7846200037b565b81016020851015620004d7578190505b620004ef620004e6856200037b565b83018262000480565b50505b505050565b600082821c905092915050565b60006200051760001984600802620004f7565b1980831691505092915050565b600062000532838362000504565b9150826002028217905092915050565b6200054d82620002c8565b67ffffffffffffffff811115620005695762000568620002d3565b5b62000575825462000331565b62000582828285620004a7565b600060209050601f831160018114620005ba5760008415620005a5578287015190505b620005b1858262000524565b86555062000621565b601f198416620005ca8662000366565b60005b82811015620005f457848901518255600182019150602085019450602081019050620005cd565b8683101562000614578489015162000610601f89168262000504565b8355505b6001600288020188555050505b505050505050565b610e9a80620006396000396000f3fe60806040526004361061003f5760003560e01c8063083a061514610044578063bd79929514610081578063dd0ae4d6146100b1578063f9e26ef6146100ee575b600080fd5b34801561005057600080fd5b5061006b600480360381019061006691906108a3565b61012b565b604051610078919061092a565b60405180910390f35b61009b600480360381019061009691906109b9565b61028e565b6040516100a8919061092a565b60405180910390f35b3480156100bd57600080fd5b506100d860048036038101906100d391906108a3565b610373565b6040516100e5919061092a565b60405180910390f35b3480156100fa57600080fd5b50610115600480360381019061011091906108a3565b6104d4565b604051610122919061092a565b60405180910390f35b600080600090505b60028054905081101561028257836000015173ffffffffffffffffffffffffffffffffffffffff166002828154811061016f5761016e6109f9565b5b9060005260206000200160009054906101000a900473ffffffffffffffffffffffffffffffffffffffff1673ffffffffffffffffffffffffffffffffffffffff1614806102295750826000015173ffffffffffffffffffffffffffffffffffffffff16600282815481106101e6576101e56109f9565b5b9060005260206000200160009054906101000a900473ffffffffffffffffffffffffffffffffffffffff1673ffffffffffffffffffffffffffffffffffffffff16145b1561026f577f3eb7b4618223a419acf4654a8ccab76f089242b23c05eb5ca310e68779589f134260405161025d9190610a94565b60405180910390a16001915050610288565b808061027a90610af1565b915050610133565b50600090505b92915050565b6000600154821115610321578273ffffffffffffffffffffffffffffffffffffffff166108fc839081150290604051600060405180830381858888f193505050501580156102e0573d6000803e3d6000fd5b507f695633452b1d0063d6f5ae521db19faef8382a4f1d9896180fed154ab1f54c25426040516103109190610b85565b60405180910390a16001905061036d565b8273ffffffffffffffffffffffffffffffffffffffff166108fc839081150290604051600060405180830381858888f19350505050158015610367573d6000803e3d6000fd5b50600090505b92915050565b600080600090505b6000805490508110156104c8578360c0015160405160200161039d9190610c24565b60405160208183030381529060405280519060200120600082815481106103c7576103c66109f9565b5b906000526020600020016040516020016103e19190610d33565b60405160208183030381529060405280519060200120148061046f57508260c001516040516020016104139190610c24565b604051602081830303815290604052805190602001206000828154811061043d5761043c6109f9565b5b906000526020600020016040516020016104579190610d33565b60405160208183030381529060405280519060200120145b156104b5577f51d9a94b04f50acc666f49c396523e970bfb47916f94955849977c62fc0e8e0b426040516104a39190610dbc565b60405180910390a160019150506104ce565b80806104c090610af1565b91505061037b565b50600090505b92915050565b60008260e00151806104e757508160e001515b1561052c577f6f0574c43ca8dc8a1e98aa228b41dd7b659ec8f259189f8bfa33ed065dd30df94260405161051b9190610e36565b60405180910390a160019050610531565b600090505b92915050565b6000604051905090565b600080fd5b600080fd5b600080fd5b6000601f19601f8301169050919050565b7f4e487b7100000000000000000000000000000000000000000000000000000000600052604160045260246000fd5b61059982610550565b810181811067ffffffffffffffff821117156105b8576105b7610561565b5b80604052505050565b60006105cb610537565b90506105d78282610590565b919050565b600080fd5b600073ffffffffffffffffffffffffffffffffffffffff82169050919050565b600061060c826105e1565b9050919050565b61061c81610601565b811461062757600080fd5b50565b60008135905061063981610613565b92915050565b600080fd5b600080fd5b600067ffffffffffffffff82111561066457610663610561565b5b61066d82610550565b9050602081019050919050565b82818337600083830152505050565b600061069c61069784610649565b6105c1565b9050828152602081018484840111156106b8576106b7610644565b5b6106c384828561067a565b509392505050565b600082601f8301126106e0576106df61063f565b5b81356106f0848260208601610689565b91505092915050565b60008115159050919050565b61070e816106f9565b811461071957600080fd5b50565b60008135905061072b81610705565b92915050565b600061010082840312156107485761074761054b565b5b6107536101006105c1565b905060006107638482850161062a565b600083015250602082013567ffffffffffffffff811115610787576107866105dc565b5b610793848285016106cb565b602083015250604082013567ffffffffffffffff8111156107b7576107b66105dc565b5b6107c3848285016106cb565b604083015250606082013567ffffffffffffffff8111156107e7576107e66105dc565b5b6107f3848285016106cb565b606083015250608082013567ffffffffffffffff811115610817576108166105dc565b5b610823848285016106cb565b60808301525060a082013567ffffffffffffffff811115610847576108466105dc565b5b610853848285016106cb565b60a08301525060c082013567ffffffffffffffff811115610877576108766105dc565b5b610883848285016106cb565b60c08301525060e06108978482850161071c565b60e08301525092915050565b600080604083850312156108ba576108b9610541565b5b600083013567ffffffffffffffff8111156108d8576108d7610546565b5b6108e485828601610731565b925050602083013567ffffffffffffffff81111561090557610904610546565b5b61091185828601610731565b9150509250929050565b610924816106f9565b82525050565b600060208201905061093f600083018461091b565b92915050565b6000610950826105e1565b9050919050565b61096081610945565b811461096b57600080fd5b50565b60008135905061097d81610957565b92915050565b6000819050919050565b61099681610983565b81146109a157600080fd5b50565b6000813590506109b38161098d565b92915050565b600080604083850312156109d0576109cf610541565b5b60006109de8582860161096e565b92505060206109ef858286016109a4565b9150509250929050565b7f4e487b7100000000000000000000000000000000000000000000000000000000600052603260045260246000fd5b600082825260208201905092915050565b7f77616e74656420496e646976696475616c000000000000000000000000000000600082015250565b6000610a6f601183610a28565b9150610a7a82610a39565b602082019050919050565b610a8e81610983565b82525050565b60006040820190508181036000830152610aad81610a62565b9050610abc6020830184610a85565b92915050565b7f4e487b7100000000000000000000000000000000000000000000000000000000600052601160045260246000fd5b6000610afc82610983565b91507fffffffffffffffffffffffffffffffffffffffffffffffffffffffffffffffff8203610b2e57610b2d610ac2565b5b600182019050919050565b7f4578636565646564204d617820416d6f756e7400000000000000000000000000600082015250565b6000610b6f601383610a28565b9150610b7a82610b39565b602082019050919050565b60006040820190508181036000830152610b9e81610b62565b9050610bad6020830184610a85565b92915050565b600081519050919050565b600081905092915050565b60005b83811015610be7578082015181840152602081019050610bcc565b60008484015250505050565b6000610bfe82610bb3565b610c088185610bbe565b9350610c18818560208601610bc9565b80840191505092915050565b6000610c308284610bf3565b915081905092915050565b7f4e487b7100000000000000000000000000000000000000000000000000000000600052602260045260246000fd5b60006002820490506001821680610c8257607f821691505b602082108103610c9557610c94610c3b565b5b50919050565b60008190508160005260206000209050919050565b60008154610cbd81610c6a565b610cc78186610bbe565b94506001821660008114610ce25760018114610cf757610d2a565b60ff1983168652811515820286019350610d2a565b610d0085610c9b565b60005b83811015610d2257815481890152600182019150602081019050610d03565b838801955050505b50505092915050565b6000610d3f8284610cb0565b915081905092915050565b7f557365722773204e6174696f6e616c69747920697320696e2062616e6e65642060008201527f636f756e74726965730000000000000000000000000000000000000000000000602082015250565b6000610da6602983610a28565b9150610db182610d4a565b604082019050919050565b60006040820190508181036000830152610dd581610d99565b9050610de46020830184610a85565b92915050565b7f5573657220697320706f6c69746963616c6c79206578706f7365640000000000600082015250565b6000610e20601b83610a28565b9150610e2b82610dea565b602082019050919050565b60006040820190508181036000830152610e4f81610e13565b9050610e5e6020830184610a85565b9291505056fea2646970667358221220b858c8f6908efe6091f2522289339c566357bb0297eedc8bee25329a7fe4368164736f6c63430008110033",
			"opcodes": "PUSH1 0x80 PUSH1 0x40 MSTORE PUSH1 0x40 MLOAD DUP1 PUSH1 0x60 ADD PUSH1 0x40 MSTORE DUP1 PUSH1 0x40 MLOAD DUP1 PUSH1 0x40 ADD PUSH1 0x40 MSTORE DUP1 PUSH1 0x4 DUP2 MSTORE PUSH1 0x20 ADD PUSH32 0x4972617100000000000000000000000000000000000000000000000000000000 DUP2 MSTORE POP DUP2 MSTORE PUSH1 0x20 ADD PUSH1 0x40 MLOAD DUP1 PUSH1 0x40 ADD PUSH1 0x40 MSTORE DUP1 PUSH1 0xB DUP2 MSTORE PUSH1 0x20 ADD PUSH32 0x4E6F727468204B6F726561000000000000000000000000000000000000000000 DUP2 MSTORE POP DUP2 MSTORE PUSH1 0x20 ADD PUSH1 0x40 MLOAD DUP1 PUSH1 0x40 ADD PUSH1 0x40 MSTORE DUP1 PUSH1 0x6 DUP2 MSTORE PUSH1 0x20 ADD PUSH32 0x5275737369610000000000000000000000000000000000000000000000000000 DUP2 MSTORE POP DUP2 MSTORE POP PUSH1 0x0 SWAP1 PUSH1 0x3 PUSH3 0xD0 SWAP3 SWAP2 SWAP1 PUSH3 0x14C JUMP JUMPDEST POP PUSH1 0x1E PUSH1 0x1 SSTORE PUSH1 0x40 MLOAD DUP1 PUSH1 0x20 ADD PUSH1 0x40 MSTORE DUP1 PUSH20 0x72A4BBE493FC0A724460C9940EE6FAE5F9209D61 PUSH20 0xFFFFFFFFFFFFFFFFFFFFFFFFFFFFFFFFFFFFFFFF AND PUSH20 0xFFFFFFFFFFFFFFFFFFFFFFFFFFFFFFFFFFFFFFFF AND DUP2 MSTORE POP PUSH1 0x2 SWAP1 PUSH1 0x1 PUSH3 0x137 SWAP3 SWAP2 SWAP1 PUSH3 0x1AC JUMP JUMPDEST POP CALLVALUE DUP1 ISZERO PUSH3 0x145 JUMPI PUSH1 0x0 DUP1 REVERT JUMPDEST POP PUSH3 0x629 JUMP JUMPDEST DUP3 DUP1 SLOAD DUP3 DUP3 SSTORE SWAP1 PUSH1 0x0 MSTORE PUSH1 0x20 PUSH1 0x0 KECCAK256 SWAP1 DUP2 ADD SWAP3 DUP3 ISZERO PUSH3 0x199 JUMPI SWAP2 PUSH1 0x20 MUL DUP3 ADD JUMPDEST DUP3 DUP2 GT ISZERO PUSH3 0x198 JUMPI DUP3 MLOAD DUP3 SWAP1 DUP2 PUSH3 0x187 SWAP2 SWAP1 PUSH3 0x542 JUMP JUMPDEST POP SWAP2 PUSH1 0x20 ADD SWAP2 SWAP1 PUSH1 0x1 ADD SWAP1 PUSH3 0x16D JUMP JUMPDEST JUMPDEST POP SWAP1 POP PUSH3 0x1A8 SWAP2 SWAP1 PUSH3 0x23B JUMP JUMPDEST POP SWAP1 JUMP JUMPDEST DUP3 DUP1 SLOAD DUP3 DUP3 SSTORE SWAP1 PUSH1 0x0 MSTORE PUSH1 0x20 PUSH1 0x0 KECCAK256 SWAP1 DUP2 ADD SWAP3 DUP3 ISZERO PUSH3 0x228 JUMPI SWAP2 PUSH1 0x20 MUL DUP3 ADD JUMPDEST DUP3 DUP2 GT ISZERO PUSH3 0x227 JUMPI DUP3 MLOAD DUP3 PUSH1 0x0 PUSH2 0x100 EXP DUP2 SLOAD DUP2 PUSH20 0xFFFFFFFFFFFFFFFFFFFFFFFFFFFFFFFFFFFFFFFF MUL NOT AND SWAP1 DUP4 PUSH20 0xFFFFFFFFFFFFFFFFFFFFFFFFFFFFFFFFFFFFFFFF AND MUL OR SWAP1 SSTORE POP SWAP2 PUSH1 0x20 ADD SWAP2 SWAP1 PUSH1 0x1 ADD SWAP1 PUSH3 0x1CD JUMP JUMPDEST JUMPDEST POP SWAP1 POP PUSH3 0x237 SWAP2 SWAP1 PUSH3 0x263 JUMP JUMPDEST POP SWAP1 JUMP JUMPDEST JUMPDEST DUP1 DUP3 GT ISZERO PUSH3 0x25F JUMPI PUSH1 0x0 DUP2 DUP2 PUSH3 0x255 SWAP2 SWAP1 PUSH3 0x282 JUMP JUMPDEST POP PUSH1 0x1 ADD PUSH3 0x23C JUMP JUMPDEST POP SWAP1 JUMP JUMPDEST JUMPDEST DUP1 DUP3 GT ISZERO PUSH3 0x27E JUMPI PUSH1 0x0 DUP2 PUSH1 0x0 SWAP1 SSTORE POP PUSH1 0x1 ADD PUSH3 0x264 JUMP JUMPDEST POP SWAP1 JUMP JUMPDEST POP DUP1 SLOAD PUSH3 0x290 SWAP1 PUSH3 0x331 JUMP JUMPDEST PUSH1 0x0 DUP3 SSTORE DUP1 PUSH1 0x1F LT PUSH3 0x2A4 JUMPI POP PUSH3 0x2C5 JUMP JUMPDEST PUSH1 0x1F ADD PUSH1 0x20 SWAP1 DIV SWAP1 PUSH1 0x0 MSTORE PUSH1 0x20 PUSH1 0x0 KECCAK256 SWAP1 DUP2 ADD SWAP1 PUSH3 0x2C4 SWAP2 SWAP1 PUSH3 0x263 JUMP JUMPDEST JUMPDEST POP JUMP JUMPDEST PUSH1 0x0 DUP2 MLOAD SWAP1 POP SWAP2 SWAP1 POP JUMP JUMPDEST PUSH32 0x4E487B7100000000000000000000000000000000000000000000000000000000 PUSH1 0x0 MSTORE PUSH1 0x41 PUSH1 0x4 MSTORE PUSH1 0x24 PUSH1 0x0 REVERT JUMPDEST PUSH32 0x4E487B7100000000000000000000000000000000000000000000000000000000 PUSH1 0x0 MSTORE PUSH1 0x22 PUSH1 0x4 MSTORE PUSH1 0x24 PUSH1 0x0 REVERT JUMPDEST PUSH1 0x0 PUSH1 0x2 DUP3 DIV SWAP1 POP PUSH1 0x1 DUP3 AND DUP1 PUSH3 0x34A JUMPI PUSH1 0x7F DUP3 AND SWAP2 POP JUMPDEST PUSH1 0x20 DUP3 LT DUP2 SUB PUSH3 0x360 JUMPI PUSH3 0x35F PUSH3 0x302 JUMP JUMPDEST JUMPDEST POP SWAP2 SWAP1 POP JUMP JUMPDEST PUSH1 0x0 DUP2 SWAP1 POP DUP2 PUSH1 0x0 MSTORE PUSH1 0x20 PUSH1 0x0 KECCAK256 SWAP1 POP SWAP2 SWAP1 POP JUMP JUMPDEST PUSH1 0x0 PUSH1 0x20 PUSH1 0x1F DUP4 ADD DIV SWAP1 POP SWAP2 SWAP1 POP JUMP JUMPDEST PUSH1 0x0 DUP3 DUP3 SHL SWAP1 POP SWAP3 SWAP2 POP POP JUMP JUMPDEST PUSH1 0x0 PUSH1 0x8 DUP4 MUL PUSH3 0x3CA PUSH32 0xFFFFFFFFFFFFFFFFFFFFFFFFFFFFFFFFFFFFFFFFFFFFFFFFFFFFFFFFFFFFFFFF DUP3 PUSH3 0x38B JUMP JUMPDEST PUSH3 0x3D6 DUP7 DUP4 PUSH3 0x38B JUMP JUMPDEST SWAP6 POP DUP1 NOT DUP5 AND SWAP4 POP DUP1 DUP7 AND DUP5 OR SWAP3 POP POP POP SWAP4 SWAP3 POP POP POP JUMP JUMPDEST PUSH1 0x0 DUP2 SWAP1 POP SWAP2 SWAP1 POP JUMP JUMPDEST PUSH1 0x0 DUP2 SWAP1 POP SWAP2 SWAP1 POP JUMP JUMPDEST PUSH1 0x0 PUSH3 0x423 PUSH3 0x41D PUSH3 0x417 DUP5 PUSH3 0x3EE JUMP JUMPDEST PUSH3 0x3F8 JUMP JUMPDEST PUSH3 0x3EE JUMP JUMPDEST SWAP1 POP SWAP2 SWAP1 POP JUMP JUMPDEST PUSH1 0x0 DUP2 SWAP1 POP SWAP2 SWAP1 POP JUMP JUMPDEST PUSH3 0x43F DUP4 PUSH3 0x402 JUMP JUMPDEST PUSH3 0x457 PUSH3 0x44E DUP3 PUSH3 0x42A JUMP JUMPDEST DUP5 DUP5 SLOAD PUSH3 0x398 JUMP JUMPDEST DUP3 SSTORE POP POP POP POP JUMP JUMPDEST PUSH1 0x0 SWAP1 JUMP JUMPDEST PUSH3 0x46E PUSH3 0x45F JUMP JUMPDEST PUSH3 0x47B DUP2 DUP5 DUP5 PUSH3 0x434 JUMP JUMPDEST POP POP POP JUMP JUMPDEST JUMPDEST DUP2 DUP2 LT ISZERO PUSH3 0x4A3 JUMPI PUSH3 0x497 PUSH1 0x0 DUP3 PUSH3 0x464 JUMP JUMPDEST PUSH1 0x1 DUP2 ADD SWAP1 POP PUSH3 0x481 JUMP JUMPDEST POP POP JUMP JUMPDEST PUSH1 0x1F DUP3 GT ISZERO PUSH3 0x4F2 JUMPI PUSH3 0x4BC DUP2 PUSH3 0x366 JUMP JUMPDEST PUSH3 0x4C7 DUP5 PUSH3 0x37B JUMP JUMPDEST DUP2 ADD PUSH1 0x20 DUP6 LT ISZERO PUSH3 0x4D7 JUMPI DUP2 SWAP1 POP JUMPDEST PUSH3 0x4EF PUSH3 0x4E6 DUP6 PUSH3 0x37B JUMP JUMPDEST DUP4 ADD DUP3 PUSH3 0x480 JUMP JUMPDEST POP POP JUMPDEST POP POP POP JUMP JUMPDEST PUSH1 0x0 DUP3 DUP3 SHR SWAP1 POP SWAP3 SWAP2 POP POP JUMP JUMPDEST PUSH1 0x0 PUSH3 0x517 PUSH1 0x0 NOT DUP5 PUSH1 0x8 MUL PUSH3 0x4F7 JUMP JUMPDEST NOT DUP1 DUP4 AND SWAP2 POP POP SWAP3 SWAP2 POP POP JUMP JUMPDEST PUSH1 0x0 PUSH3 0x532 DUP4 DUP4 PUSH3 0x504 JUMP JUMPDEST SWAP2 POP DUP3 PUSH1 0x2 MUL DUP3 OR SWAP1 POP SWAP3 SWAP2 POP POP JUMP JUMPDEST PUSH3 0x54D DUP3 PUSH3 0x2C8 JUMP JUMPDEST PUSH8 0xFFFFFFFFFFFFFFFF DUP2 GT ISZERO PUSH3 0x569 JUMPI PUSH3 0x568 PUSH3 0x2D3 JUMP JUMPDEST JUMPDEST PUSH3 0x575 DUP3 SLOAD PUSH3 0x331 JUMP JUMPDEST PUSH3 0x582 DUP3 DUP3 DUP6 PUSH3 0x4A7 JUMP JUMPDEST PUSH1 0x0 PUSH1 0x20 SWAP1 POP PUSH1 0x1F DUP4 GT PUSH1 0x1 DUP2 EQ PUSH3 0x5BA JUMPI PUSH1 0x0 DUP5 ISZERO PUSH3 0x5A5 JUMPI DUP3 DUP8 ADD MLOAD SWAP1 POP JUMPDEST PUSH3 0x5B1 DUP6 DUP3 PUSH3 0x524 JUMP JUMPDEST DUP7 SSTORE POP PUSH3 0x621 JUMP JUMPDEST PUSH1 0x1F NOT DUP5 AND PUSH3 0x5CA DUP7 PUSH3 0x366 JUMP JUMPDEST PUSH1 0x0 JUMPDEST DUP3 DUP2 LT ISZERO PUSH3 0x5F4 JUMPI DUP5 DUP10 ADD MLOAD DUP3 SSTORE PUSH1 0x1 DUP3 ADD SWAP2 POP PUSH1 0x20 DUP6 ADD SWAP5 POP PUSH1 0x20 DUP2 ADD SWAP1 POP PUSH3 0x5CD JUMP JUMPDEST DUP7 DUP4 LT ISZERO PUSH3 0x614 JUMPI DUP5 DUP10 ADD MLOAD PUSH3 0x610 PUSH1 0x1F DUP10 AND DUP3 PUSH3 0x504 JUMP JUMPDEST DUP4 SSTORE POP JUMPDEST PUSH1 0x1 PUSH1 0x2 DUP9 MUL ADD DUP9 SSTORE POP POP POP JUMPDEST POP POP POP POP POP POP JUMP JUMPDEST PUSH2 0xE9A DUP1 PUSH3 0x639 PUSH1 0x0 CODECOPY PUSH1 0x0 RETURN INVALID PUSH1 0x80 PUSH1 0x40 MSTORE PUSH1 0x4 CALLDATASIZE LT PUSH2 0x3F JUMPI PUSH1 0x0 CALLDATALOAD PUSH1 0xE0 SHR DUP1 PUSH4 0x83A0615 EQ PUSH2 0x44 JUMPI DUP1 PUSH4 0xBD799295 EQ PUSH2 0x81 JUMPI DUP1 PUSH4 0xDD0AE4D6 EQ PUSH2 0xB1 JUMPI DUP1 PUSH4 0xF9E26EF6 EQ PUSH2 0xEE JUMPI JUMPDEST PUSH1 0x0 DUP1 REVERT JUMPDEST CALLVALUE DUP1 ISZERO PUSH2 0x50 JUMPI PUSH1 0x0 DUP1 REVERT JUMPDEST POP PUSH2 0x6B PUSH1 0x4 DUP1 CALLDATASIZE SUB DUP2 ADD SWAP1 PUSH2 0x66 SWAP2 SWAP1 PUSH2 0x8A3 JUMP JUMPDEST PUSH2 0x12B JUMP JUMPDEST PUSH1 0x40 MLOAD PUSH2 0x78 SWAP2 SWAP1 PUSH2 0x92A JUMP JUMPDEST PUSH1 0x40 MLOAD DUP1 SWAP2 SUB SWAP1 RETURN JUMPDEST PUSH2 0x9B PUSH1 0x4 DUP1 CALLDATASIZE SUB DUP2 ADD SWAP1 PUSH2 0x96 SWAP2 SWAP1 PUSH2 0x9B9 JUMP JUMPDEST PUSH2 0x28E JUMP JUMPDEST PUSH1 0x40 MLOAD PUSH2 0xA8 SWAP2 SWAP1 PUSH2 0x92A JUMP JUMPDEST PUSH1 0x40 MLOAD DUP1 SWAP2 SUB SWAP1 RETURN JUMPDEST CALLVALUE DUP1 ISZERO PUSH2 0xBD JUMPI PUSH1 0x0 DUP1 REVERT JUMPDEST POP PUSH2 0xD8 PUSH1 0x4 DUP1 CALLDATASIZE SUB DUP2 ADD SWAP1 PUSH2 0xD3 SWAP2 SWAP1 PUSH2 0x8A3 JUMP JUMPDEST PUSH2 0x373 JUMP JUMPDEST PUSH1 0x40 MLOAD PUSH2 0xE5 SWAP2 SWAP1 PUSH2 0x92A JUMP JUMPDEST PUSH1 0x40 MLOAD DUP1 SWAP2 SUB SWAP1 RETURN JUMPDEST CALLVALUE DUP1 ISZERO PUSH2 0xFA JUMPI PUSH1 0x0 DUP1 REVERT JUMPDEST POP PUSH2 0x115 PUSH1 0x4 DUP1 CALLDATASIZE SUB DUP2 ADD SWAP1 PUSH2 0x110 SWAP2 SWAP1 PUSH2 0x8A3 JUMP JUMPDEST PUSH2 0x4D4 JUMP JUMPDEST PUSH1 0x40 MLOAD PUSH2 0x122 SWAP2 SWAP1 PUSH2 0x92A JUMP JUMPDEST PUSH1 0x40 MLOAD DUP1 SWAP2 SUB SWAP1 RETURN JUMPDEST PUSH1 0x0 DUP1 PUSH1 0x0 SWAP1 POP JUMPDEST PUSH1 0x2 DUP1 SLOAD SWAP1 POP DUP2 LT ISZERO PUSH2 0x282 JUMPI DUP4 PUSH1 0x0 ADD MLOAD PUSH20 0xFFFFFFFFFFFFFFFFFFFFFFFFFFFFFFFFFFFFFFFF AND PUSH1 0x2 DUP3 DUP2 SLOAD DUP2 LT PUSH2 0x16F JUMPI PUSH2 0x16E PUSH2 0x9F9 JUMP JUMPDEST JUMPDEST SWAP1 PUSH1 0x0 MSTORE PUSH1 0x20 PUSH1 0x0 KECCAK256 ADD PUSH1 0x0 SWAP1 SLOAD SWAP1 PUSH2 0x100 EXP SWAP1 DIV PUSH20 0xFFFFFFFFFFFFFFFFFFFFFFFFFFFFFFFFFFFFFFFF AND PUSH20 0xFFFFFFFFFFFFFFFFFFFFFFFFFFFFFFFFFFFFFFFF AND EQ DUP1 PUSH2 0x229 JUMPI POP DUP3 PUSH1 0x0 ADD MLOAD PUSH20 0xFFFFFFFFFFFFFFFFFFFFFFFFFFFFFFFFFFFFFFFF AND PUSH1 0x2 DUP3 DUP2 SLOAD DUP2 LT PUSH2 0x1E6 JUMPI PUSH2 0x1E5 PUSH2 0x9F9 JUMP JUMPDEST JUMPDEST SWAP1 PUSH1 0x0 MSTORE PUSH1 0x20 PUSH1 0x0 KECCAK256 ADD PUSH1 0x0 SWAP1 SLOAD SWAP1 PUSH2 0x100 EXP SWAP1 DIV PUSH20 0xFFFFFFFFFFFFFFFFFFFFFFFFFFFFFFFFFFFFFFFF AND PUSH20 0xFFFFFFFFFFFFFFFFFFFFFFFFFFFFFFFFFFFFFFFF AND EQ JUMPDEST ISZERO PUSH2 0x26F JUMPI PUSH32 0x3EB7B4618223A419ACF4654A8CCAB76F089242B23C05EB5CA310E68779589F13 TIMESTAMP PUSH1 0x40 MLOAD PUSH2 0x25D SWAP2 SWAP1 PUSH2 0xA94 JUMP JUMPDEST PUSH1 0x40 MLOAD DUP1 SWAP2 SUB SWAP1 LOG1 PUSH1 0x1 SWAP2 POP POP PUSH2 0x288 JUMP JUMPDEST DUP1 DUP1 PUSH2 0x27A SWAP1 PUSH2 0xAF1 JUMP JUMPDEST SWAP2 POP POP PUSH2 0x133 JUMP JUMPDEST POP PUSH1 0x0 SWAP1 POP JUMPDEST SWAP3 SWAP2 POP POP JUMP JUMPDEST PUSH1 0x0 PUSH1 0x1 SLOAD DUP3 GT ISZERO PUSH2 0x321 JUMPI DUP3 PUSH20 0xFFFFFFFFFFFFFFFFFFFFFFFFFFFFFFFFFFFFFFFF AND PUSH2 0x8FC DUP4 SWAP1 DUP2 ISZERO MUL SWAP1 PUSH1 0x40 MLOAD PUSH1 0x0 PUSH1 0x40 MLOAD DUP1 DUP4 SUB DUP2 DUP6 DUP9 DUP9 CALL SWAP4 POP POP POP POP ISZERO DUP1 ISZERO PUSH2 0x2E0 JUMPI RETURNDATASIZE PUSH1 0x0 DUP1 RETURNDATACOPY RETURNDATASIZE PUSH1 0x0 REVERT JUMPDEST POP PUSH32 0x695633452B1D0063D6F5AE521DB19FAEF8382A4F1D9896180FED154AB1F54C25 TIMESTAMP PUSH1 0x40 MLOAD PUSH2 0x310 SWAP2 SWAP1 PUSH2 0xB85 JUMP JUMPDEST PUSH1 0x40 MLOAD DUP1 SWAP2 SUB SWAP1 LOG1 PUSH1 0x1 SWAP1 POP PUSH2 0x36D JUMP JUMPDEST DUP3 PUSH20 0xFFFFFFFFFFFFFFFFFFFFFFFFFFFFFFFFFFFFFFFF AND PUSH2 0x8FC DUP4 SWAP1 DUP2 ISZERO MUL SWAP1 PUSH1 0x40 MLOAD PUSH1 0x0 PUSH1 0x40 MLOAD DUP1 DUP4 SUB DUP2 DUP6 DUP9 DUP9 CALL SWAP4 POP POP POP POP ISZERO DUP1 ISZERO PUSH2 0x367 JUMPI RETURNDATASIZE PUSH1 0x0 DUP1 RETURNDATACOPY RETURNDATASIZE PUSH1 0x0 REVERT JUMPDEST POP PUSH1 0x0 SWAP1 POP JUMPDEST SWAP3 SWAP2 POP POP JUMP JUMPDEST PUSH1 0x0 DUP1 PUSH1 0x0 SWAP1 POP JUMPDEST PUSH1 0x0 DUP1 SLOAD SWAP1 POP DUP2 LT ISZERO PUSH2 0x4C8 JUMPI DUP4 PUSH1 0xC0 ADD MLOAD PUSH1 0x40 MLOAD PUSH1 0x20 ADD PUSH2 0x39D SWAP2 SWAP1 PUSH2 0xC24 JUMP JUMPDEST PUSH1 0x40 MLOAD PUSH1 0x20 DUP2 DUP4 SUB SUB DUP2 MSTORE SWAP1 PUSH1 0x40 MSTORE DUP1 MLOAD SWAP1 PUSH1 0x20 ADD KECCAK256 PUSH1 0x0 DUP3 DUP2 SLOAD DUP2 LT PUSH2 0x3C7 JUMPI PUSH2 0x3C6 PUSH2 0x9F9 JUMP JUMPDEST JUMPDEST SWAP1 PUSH1 0x0 MSTORE PUSH1 0x20 PUSH1 0x0 KECCAK256 ADD PUSH1 0x40 MLOAD PUSH1 0x20 ADD PUSH2 0x3E1 SWAP2 SWAP1 PUSH2 0xD33 JUMP JUMPDEST PUSH1 0x40 MLOAD PUSH1 0x20 DUP2 DUP4 SUB SUB DUP2 MSTORE SWAP1 PUSH1 0x40 MSTORE DUP1 MLOAD SWAP1 PUSH1 0x20 ADD KECCAK256 EQ DUP1 PUSH2 0x46F JUMPI POP DUP3 PUSH1 0xC0 ADD MLOAD PUSH1 0x40 MLOAD PUSH1 0x20 ADD PUSH2 0x413 SWAP2 SWAP1 PUSH2 0xC24 JUMP JUMPDEST PUSH1 0x40 MLOAD PUSH1 0x20 DUP2 DUP4 SUB SUB DUP2 MSTORE SWAP1 PUSH1 0x40 MSTORE DUP1 MLOAD SWAP1 PUSH1 0x20 ADD KECCAK256 PUSH1 0x0 DUP3 DUP2 SLOAD DUP2 LT PUSH2 0x43D JUMPI PUSH2 0x43C PUSH2 0x9F9 JUMP JUMPDEST JUMPDEST SWAP1 PUSH1 0x0 MSTORE PUSH1 0x20 PUSH1 0x0 KECCAK256 ADD PUSH1 0x40 MLOAD PUSH1 0x20 ADD PUSH2 0x457 SWAP2 SWAP1 PUSH2 0xD33 JUMP JUMPDEST PUSH1 0x40 MLOAD PUSH1 0x20 DUP2 DUP4 SUB SUB DUP2 MSTORE SWAP1 PUSH1 0x40 MSTORE DUP1 MLOAD SWAP1 PUSH1 0x20 ADD KECCAK256 EQ JUMPDEST ISZERO PUSH2 0x4B5 JUMPI PUSH32 0x51D9A94B04F50ACC666F49C396523E970BFB47916F94955849977C62FC0E8E0B TIMESTAMP PUSH1 0x40 MLOAD PUSH2 0x4A3 SWAP2 SWAP1 PUSH2 0xDBC JUMP JUMPDEST PUSH1 0x40 MLOAD DUP1 SWAP2 SUB SWAP1 LOG1 PUSH1 0x1 SWAP2 POP POP PUSH2 0x4CE JUMP JUMPDEST DUP1 DUP1 PUSH2 0x4C0 SWAP1 PUSH2 0xAF1 JUMP JUMPDEST SWAP2 POP POP PUSH2 0x37B JUMP JUMPDEST POP PUSH1 0x0 SWAP1 POP JUMPDEST SWAP3 SWAP2 POP POP JUMP JUMPDEST PUSH1 0x0 DUP3 PUSH1 0xE0 ADD MLOAD DUP1 PUSH2 0x4E7 JUMPI POP DUP2 PUSH1 0xE0 ADD MLOAD JUMPDEST ISZERO PUSH2 0x52C JUMPI PUSH32 0x6F0574C43CA8DC8A1E98AA228B41DD7B659EC8F259189F8BFA33ED065DD30DF9 TIMESTAMP PUSH1 0x40 MLOAD PUSH2 0x51B SWAP2 SWAP1 PUSH2 0xE36 JUMP JUMPDEST PUSH1 0x40 MLOAD DUP1 SWAP2 SUB SWAP1 LOG1 PUSH1 0x1 SWAP1 POP PUSH2 0x531 JUMP JUMPDEST PUSH1 0x0 SWAP1 POP JUMPDEST SWAP3 SWAP2 POP POP JUMP JUMPDEST PUSH1 0x0 PUSH1 0x40 MLOAD SWAP1 POP SWAP1 JUMP JUMPDEST PUSH1 0x0 DUP1 REVERT JUMPDEST PUSH1 0x0 DUP1 REVERT JUMPDEST PUSH1 0x0 DUP1 REVERT JUMPDEST PUSH1 0x0 PUSH1 0x1F NOT PUSH1 0x1F DUP4 ADD AND SWAP1 POP SWAP2 SWAP1 POP JUMP JUMPDEST PUSH32 0x4E487B7100000000000000000000000000000000000000000000000000000000 PUSH1 0x0 MSTORE PUSH1 0x41 PUSH1 0x4 MSTORE PUSH1 0x24 PUSH1 0x0 REVERT JUMPDEST PUSH2 0x599 DUP3 PUSH2 0x550 JUMP JUMPDEST DUP2 ADD DUP2 DUP2 LT PUSH8 0xFFFFFFFFFFFFFFFF DUP3 GT OR ISZERO PUSH2 0x5B8 JUMPI PUSH2 0x5B7 PUSH2 0x561 JUMP JUMPDEST JUMPDEST DUP1 PUSH1 0x40 MSTORE POP POP POP JUMP JUMPDEST PUSH1 0x0 PUSH2 0x5CB PUSH2 0x537 JUMP JUMPDEST SWAP1 POP PUSH2 0x5D7 DUP3 DUP3 PUSH2 0x590 JUMP JUMPDEST SWAP2 SWAP1 POP JUMP JUMPDEST PUSH1 0x0 DUP1 REVERT JUMPDEST PUSH1 0x0 PUSH20 0xFFFFFFFFFFFFFFFFFFFFFFFFFFFFFFFFFFFFFFFF DUP3 AND SWAP1 POP SWAP2 SWAP1 POP JUMP JUMPDEST PUSH1 0x0 PUSH2 0x60C DUP3 PUSH2 0x5E1 JUMP JUMPDEST SWAP1 POP SWAP2 SWAP1 POP JUMP JUMPDEST PUSH2 0x61C DUP2 PUSH2 0x601 JUMP JUMPDEST DUP2 EQ PUSH2 0x627 JUMPI PUSH1 0x0 DUP1 REVERT JUMPDEST POP JUMP JUMPDEST PUSH1 0x0 DUP2 CALLDATALOAD SWAP1 POP PUSH2 0x639 DUP2 PUSH2 0x613 JUMP JUMPDEST SWAP3 SWAP2 POP POP JUMP JUMPDEST PUSH1 0x0 DUP1 REVERT JUMPDEST PUSH1 0x0 DUP1 REVERT JUMPDEST PUSH1 0x0 PUSH8 0xFFFFFFFFFFFFFFFF DUP3 GT ISZERO PUSH2 0x664 JUMPI PUSH2 0x663 PUSH2 0x561 JUMP JUMPDEST JUMPDEST PUSH2 0x66D DUP3 PUSH2 0x550 JUMP JUMPDEST SWAP1 POP PUSH1 0x20 DUP2 ADD SWAP1 POP SWAP2 SWAP1 POP JUMP JUMPDEST DUP3 DUP2 DUP4 CALLDATACOPY PUSH1 0x0 DUP4 DUP4 ADD MSTORE POP POP POP JUMP JUMPDEST PUSH1 0x0 PUSH2 0x69C PUSH2 0x697 DUP5 PUSH2 0x649 JUMP JUMPDEST PUSH2 0x5C1 JUMP JUMPDEST SWAP1 POP DUP3 DUP2 MSTORE PUSH1 0x20 DUP2 ADD DUP5 DUP5 DUP5 ADD GT ISZERO PUSH2 0x6B8 JUMPI PUSH2 0x6B7 PUSH2 0x644 JUMP JUMPDEST JUMPDEST PUSH2 0x6C3 DUP5 DUP3 DUP6 PUSH2 0x67A JUMP JUMPDEST POP SWAP4 SWAP3 POP POP POP JUMP JUMPDEST PUSH1 0x0 DUP3 PUSH1 0x1F DUP4 ADD SLT PUSH2 0x6E0 JUMPI PUSH2 0x6DF PUSH2 0x63F JUMP JUMPDEST JUMPDEST DUP2 CALLDATALOAD PUSH2 0x6F0 DUP5 DUP3 PUSH1 0x20 DUP7 ADD PUSH2 0x689 JUMP JUMPDEST SWAP2 POP POP SWAP3 SWAP2 POP POP JUMP JUMPDEST PUSH1 0x0 DUP2 ISZERO ISZERO SWAP1 POP SWAP2 SWAP1 POP JUMP JUMPDEST PUSH2 0x70E DUP2 PUSH2 0x6F9 JUMP JUMPDEST DUP2 EQ PUSH2 0x719 JUMPI PUSH1 0x0 DUP1 REVERT JUMPDEST POP JUMP JUMPDEST PUSH1 0x0 DUP2 CALLDATALOAD SWAP1 POP PUSH2 0x72B DUP2 PUSH2 0x705 JUMP JUMPDEST SWAP3 SWAP2 POP POP JUMP JUMPDEST PUSH1 0x0 PUSH2 0x100 DUP3 DUP5 SUB SLT ISZERO PUSH2 0x748 JUMPI PUSH2 0x747 PUSH2 0x54B JUMP JUMPDEST JUMPDEST PUSH2 0x753 PUSH2 0x100 PUSH2 0x5C1 JUMP JUMPDEST SWAP1 POP PUSH1 0x0 PUSH2 0x763 DUP5 DUP3 DUP6 ADD PUSH2 0x62A JUMP JUMPDEST PUSH1 0x0 DUP4 ADD MSTORE POP PUSH1 0x20 DUP3 ADD CALLDATALOAD PUSH8 0xFFFFFFFFFFFFFFFF DUP2 GT ISZERO PUSH2 0x787 JUMPI PUSH2 0x786 PUSH2 0x5DC JUMP JUMPDEST JUMPDEST PUSH2 0x793 DUP5 DUP3 DUP6 ADD PUSH2 0x6CB JUMP JUMPDEST PUSH1 0x20 DUP4 ADD MSTORE POP PUSH1 0x40 DUP3 ADD CALLDATALOAD PUSH8 0xFFFFFFFFFFFFFFFF DUP2 GT ISZERO PUSH2 0x7B7 JUMPI PUSH2 0x7B6 PUSH2 0x5DC JUMP JUMPDEST JUMPDEST PUSH2 0x7C3 DUP5 DUP3 DUP6 ADD PUSH2 0x6CB JUMP JUMPDEST PUSH1 0x40 DUP4 ADD MSTORE POP PUSH1 0x60 DUP3 ADD CALLDATALOAD PUSH8 0xFFFFFFFFFFFFFFFF DUP2 GT ISZERO PUSH2 0x7E7 JUMPI PUSH2 0x7E6 PUSH2 0x5DC JUMP JUMPDEST JUMPDEST PUSH2 0x7F3 DUP5 DUP3 DUP6 ADD PUSH2 0x6CB JUMP JUMPDEST PUSH1 0x60 DUP4 ADD MSTORE POP PUSH1 0x80 DUP3 ADD CALLDATALOAD PUSH8 0xFFFFFFFFFFFFFFFF DUP2 GT ISZERO PUSH2 0x817 JUMPI PUSH2 0x816 PUSH2 0x5DC JUMP JUMPDEST JUMPDEST PUSH2 0x823 DUP5 DUP3 DUP6 ADD PUSH2 0x6CB JUMP JUMPDEST PUSH1 0x80 DUP4 ADD MSTORE POP PUSH1 0xA0 DUP3 ADD CALLDATALOAD PUSH8 0xFFFFFFFFFFFFFFFF DUP2 GT ISZERO PUSH2 0x847 JUMPI PUSH2 0x846 PUSH2 0x5DC JUMP JUMPDEST JUMPDEST PUSH2 0x853 DUP5 DUP3 DUP6 ADD PUSH2 0x6CB JUMP JUMPDEST PUSH1 0xA0 DUP4 ADD MSTORE POP PUSH1 0xC0 DUP3 ADD CALLDATALOAD PUSH8 0xFFFFFFFFFFFFFFFF DUP2 GT ISZERO PUSH2 0x877 JUMPI PUSH2 0x876 PUSH2 0x5DC JUMP JUMPDEST JUMPDEST PUSH2 0x883 DUP5 DUP3 DUP6 ADD PUSH2 0x6CB JUMP JUMPDEST PUSH1 0xC0 DUP4 ADD MSTORE POP PUSH1 0xE0 PUSH2 0x897 DUP5 DUP3 DUP6 ADD PUSH2 0x71C JUMP JUMPDEST PUSH1 0xE0 DUP4 ADD MSTORE POP SWAP3 SWAP2 POP POP JUMP JUMPDEST PUSH1 0x0 DUP1 PUSH1 0x40 DUP4 DUP6 SUB SLT ISZERO PUSH2 0x8BA JUMPI PUSH2 0x8B9 PUSH2 0x541 JUMP JUMPDEST JUMPDEST PUSH1 0x0 DUP4 ADD CALLDATALOAD PUSH8 0xFFFFFFFFFFFFFFFF DUP2 GT ISZERO PUSH2 0x8D8 JUMPI PUSH2 0x8D7 PUSH2 0x546 JUMP JUMPDEST JUMPDEST PUSH2 0x8E4 DUP6 DUP3 DUP7 ADD PUSH2 0x731 JUMP JUMPDEST SWAP3 POP POP PUSH1 0x20 DUP4 ADD CALLDATALOAD PUSH8 0xFFFFFFFFFFFFFFFF DUP2 GT ISZERO PUSH2 0x905 JUMPI PUSH2 0x904 PUSH2 0x546 JUMP JUMPDEST JUMPDEST PUSH2 0x911 DUP6 DUP3 DUP7 ADD PUSH2 0x731 JUMP JUMPDEST SWAP2 POP POP SWAP3 POP SWAP3 SWAP1 POP JUMP JUMPDEST PUSH2 0x924 DUP2 PUSH2 0x6F9 JUMP JUMPDEST DUP3 MSTORE POP POP JUMP JUMPDEST PUSH1 0x0 PUSH1 0x20 DUP3 ADD SWAP1 POP PUSH2 0x93F PUSH1 0x0 DUP4 ADD DUP5 PUSH2 0x91B JUMP JUMPDEST SWAP3 SWAP2 POP POP JUMP JUMPDEST PUSH1 0x0 PUSH2 0x950 DUP3 PUSH2 0x5E1 JUMP JUMPDEST SWAP1 POP SWAP2 SWAP1 POP JUMP JUMPDEST PUSH2 0x960 DUP2 PUSH2 0x945 JUMP JUMPDEST DUP2 EQ PUSH2 0x96B JUMPI PUSH1 0x0 DUP1 REVERT JUMPDEST POP JUMP JUMPDEST PUSH1 0x0 DUP2 CALLDATALOAD SWAP1 POP PUSH2 0x97D DUP2 PUSH2 0x957 JUMP JUMPDEST SWAP3 SWAP2 POP POP JUMP JUMPDEST PUSH1 0x0 DUP2 SWAP1 POP SWAP2 SWAP1 POP JUMP JUMPDEST PUSH2 0x996 DUP2 PUSH2 0x983 JUMP JUMPDEST DUP2 EQ PUSH2 0x9A1 JUMPI PUSH1 0x0 DUP1 REVERT JUMPDEST POP JUMP JUMPDEST PUSH1 0x0 DUP2 CALLDATALOAD SWAP1 POP PUSH2 0x9B3 DUP2 PUSH2 0x98D JUMP JUMPDEST SWAP3 SWAP2 POP POP JUMP JUMPDEST PUSH1 0x0 DUP1 PUSH1 0x40 DUP4 DUP6 SUB SLT ISZERO PUSH2 0x9D0 JUMPI PUSH2 0x9CF PUSH2 0x541 JUMP JUMPDEST JUMPDEST PUSH1 0x0 PUSH2 0x9DE DUP6 DUP3 DUP7 ADD PUSH2 0x96E JUMP JUMPDEST SWAP3 POP POP PUSH1 0x20 PUSH2 0x9EF DUP6 DUP3 DUP7 ADD PUSH2 0x9A4 JUMP JUMPDEST SWAP2 POP POP SWAP3 POP SWAP3 SWAP1 POP JUMP JUMPDEST PUSH32 0x4E487B7100000000000000000000000000000000000000000000000000000000 PUSH1 0x0 MSTORE PUSH1 0x32 PUSH1 0x4 MSTORE PUSH1 0x24 PUSH1 0x0 REVERT JUMPDEST PUSH1 0x0 DUP3 DUP3 MSTORE PUSH1 0x20 DUP3 ADD SWAP1 POP SWAP3 SWAP2 POP POP JUMP JUMPDEST PUSH32 0x77616E74656420496E646976696475616C000000000000000000000000000000 PUSH1 0x0 DUP3 ADD MSTORE POP JUMP JUMPDEST PUSH1 0x0 PUSH2 0xA6F PUSH1 0x11 DUP4 PUSH2 0xA28 JUMP JUMPDEST SWAP2 POP PUSH2 0xA7A DUP3 PUSH2 0xA39 JUMP JUMPDEST PUSH1 0x20 DUP3 ADD SWAP1 POP SWAP2 SWAP1 POP JUMP JUMPDEST PUSH2 0xA8E DUP2 PUSH2 0x983 JUMP JUMPDEST DUP3 MSTORE POP POP JUMP JUMPDEST PUSH1 0x0 PUSH1 0x40 DUP3 ADD SWAP1 POP DUP2 DUP2 SUB PUSH1 0x0 DUP4 ADD MSTORE PUSH2 0xAAD DUP2 PUSH2 0xA62 JUMP JUMPDEST SWAP1 POP PUSH2 0xABC PUSH1 0x20 DUP4 ADD DUP5 PUSH2 0xA85 JUMP JUMPDEST SWAP3 SWAP2 POP POP JUMP JUMPDEST PUSH32 0x4E487B7100000000000000000000000000000000000000000000000000000000 PUSH1 0x0 MSTORE PUSH1 0x11 PUSH1 0x4 MSTORE PUSH1 0x24 PUSH1 0x0 REVERT JUMPDEST PUSH1 0x0 PUSH2 0xAFC DUP3 PUSH2 0x983 JUMP JUMPDEST SWAP2 POP PUSH32 0xFFFFFFFFFFFFFFFFFFFFFFFFFFFFFFFFFFFFFFFFFFFFFFFFFFFFFFFFFFFFFFFF DUP3 SUB PUSH2 0xB2E JUMPI PUSH2 0xB2D PUSH2 0xAC2 JUMP JUMPDEST JUMPDEST PUSH1 0x1 DUP3 ADD SWAP1 POP SWAP2 SWAP1 POP JUMP JUMPDEST PUSH32 0x4578636565646564204D617820416D6F756E7400000000000000000000000000 PUSH1 0x0 DUP3 ADD MSTORE POP JUMP JUMPDEST PUSH1 0x0 PUSH2 0xB6F PUSH1 0x13 DUP4 PUSH2 0xA28 JUMP JUMPDEST SWAP2 POP PUSH2 0xB7A DUP3 PUSH2 0xB39 JUMP JUMPDEST PUSH1 0x20 DUP3 ADD SWAP1 POP SWAP2 SWAP1 POP JUMP JUMPDEST PUSH1 0x0 PUSH1 0x40 DUP3 ADD SWAP1 POP DUP2 DUP2 SUB PUSH1 0x0 DUP4 ADD MSTORE PUSH2 0xB9E DUP2 PUSH2 0xB62 JUMP JUMPDEST SWAP1 POP PUSH2 0xBAD PUSH1 0x20 DUP4 ADD DUP5 PUSH2 0xA85 JUMP JUMPDEST SWAP3 SWAP2 POP POP JUMP JUMPDEST PUSH1 0x0 DUP2 MLOAD SWAP1 POP SWAP2 SWAP1 POP JUMP JUMPDEST PUSH1 0x0 DUP2 SWAP1 POP SWAP3 SWAP2 POP POP JUMP JUMPDEST PUSH1 0x0 JUMPDEST DUP4 DUP2 LT ISZERO PUSH2 0xBE7 JUMPI DUP1 DUP3 ADD MLOAD DUP2 DUP5 ADD MSTORE PUSH1 0x20 DUP2 ADD SWAP1 POP PUSH2 0xBCC JUMP JUMPDEST PUSH1 0x0 DUP5 DUP5 ADD MSTORE POP POP POP POP JUMP JUMPDEST PUSH1 0x0 PUSH2 0xBFE DUP3 PUSH2 0xBB3 JUMP JUMPDEST PUSH2 0xC08 DUP2 DUP6 PUSH2 0xBBE JUMP JUMPDEST SWAP4 POP PUSH2 0xC18 DUP2 DUP6 PUSH1 0x20 DUP7 ADD PUSH2 0xBC9 JUMP JUMPDEST DUP1 DUP5 ADD SWAP2 POP POP SWAP3 SWAP2 POP POP JUMP JUMPDEST PUSH1 0x0 PUSH2 0xC30 DUP3 DUP5 PUSH2 0xBF3 JUMP JUMPDEST SWAP2 POP DUP2 SWAP1 POP SWAP3 SWAP2 POP POP JUMP JUMPDEST PUSH32 0x4E487B7100000000000000000000000000000000000000000000000000000000 PUSH1 0x0 MSTORE PUSH1 0x22 PUSH1 0x4 MSTORE PUSH1 0x24 PUSH1 0x0 REVERT JUMPDEST PUSH1 0x0 PUSH1 0x2 DUP3 DIV SWAP1 POP PUSH1 0x1 DUP3 AND DUP1 PUSH2 0xC82 JUMPI PUSH1 0x7F DUP3 AND SWAP2 POP JUMPDEST PUSH1 0x20 DUP3 LT DUP2 SUB PUSH2 0xC95 JUMPI PUSH2 0xC94 PUSH2 0xC3B JUMP JUMPDEST JUMPDEST POP SWAP2 SWAP1 POP JUMP JUMPDEST PUSH1 0x0 DUP2 SWAP1 POP DUP2 PUSH1 0x0 MSTORE PUSH1 0x20 PUSH1 0x0 KECCAK256 SWAP1 POP SWAP2 SWAP1 POP JUMP JUMPDEST PUSH1 0x0 DUP2 SLOAD PUSH2 0xCBD DUP2 PUSH2 0xC6A JUMP JUMPDEST PUSH2 0xCC7 DUP2 DUP7 PUSH2 0xBBE JUMP JUMPDEST SWAP5 POP PUSH1 0x1 DUP3 AND PUSH1 0x0 DUP2 EQ PUSH2 0xCE2 JUMPI PUSH1 0x1 DUP2 EQ PUSH2 0xCF7 JUMPI PUSH2 0xD2A JUMP JUMPDEST PUSH1 0xFF NOT DUP4 AND DUP7 MSTORE DUP2 ISZERO ISZERO DUP3 MUL DUP7 ADD SWAP4 POP PUSH2 0xD2A JUMP JUMPDEST PUSH2 0xD00 DUP6 PUSH2 0xC9B JUMP JUMPDEST PUSH1 0x0 JUMPDEST DUP4 DUP2 LT ISZERO PUSH2 0xD22 JUMPI DUP2 SLOAD DUP2 DUP10 ADD MSTORE PUSH1 0x1 DUP3 ADD SWAP2 POP PUSH1 0x20 DUP2 ADD SWAP1 POP PUSH2 0xD03 JUMP JUMPDEST DUP4 DUP9 ADD SWAP6 POP POP POP JUMPDEST POP POP POP SWAP3 SWAP2 POP POP JUMP JUMPDEST PUSH1 0x0 PUSH2 0xD3F DUP3 DUP5 PUSH2 0xCB0 JUMP JUMPDEST SWAP2 POP DUP2 SWAP1 POP SWAP3 SWAP2 POP POP JUMP JUMPDEST PUSH32 0x557365722773204E6174696F6E616C69747920697320696E2062616E6E656420 PUSH1 0x0 DUP3 ADD MSTORE PUSH32 0x636F756E74726965730000000000000000000000000000000000000000000000 PUSH1 0x20 DUP3 ADD MSTORE POP JUMP JUMPDEST PUSH1 0x0 PUSH2 0xDA6 PUSH1 0x29 DUP4 PUSH2 0xA28 JUMP JUMPDEST SWAP2 POP PUSH2 0xDB1 DUP3 PUSH2 0xD4A JUMP JUMPDEST PUSH1 0x40 DUP3 ADD SWAP1 POP SWAP2 SWAP1 POP JUMP JUMPDEST PUSH1 0x0 PUSH1 0x40 DUP3 ADD SWAP1 POP DUP2 DUP2 SUB PUSH1 0x0 DUP4 ADD MSTORE PUSH2 0xDD5 DUP2 PUSH2 0xD99 JUMP JUMPDEST SWAP1 POP PUSH2 0xDE4 PUSH1 0x20 DUP4 ADD DUP5 PUSH2 0xA85 JUMP JUMPDEST SWAP3 SWAP2 POP POP JUMP JUMPDEST PUSH32 0x5573657220697320706F6C69746963616C6C79206578706F7365640000000000 PUSH1 0x0 DUP3 ADD MSTORE POP JUMP JUMPDEST PUSH1 0x0 PUSH2 0xE20 PUSH1 0x1B DUP4 PUSH2 0xA28 JUMP JUMPDEST SWAP2 POP PUSH2 0xE2B DUP3 PUSH2 0xDEA JUMP JUMPDEST PUSH1 0x20 DUP3 ADD SWAP1 POP SWAP2 SWAP1 POP JUMP JUMPDEST PUSH1 0x0 PUSH1 0x40 DUP3 ADD SWAP1 POP DUP2 DUP2 SUB PUSH1 0x0 DUP4 ADD MSTORE PUSH2 0xE4F DUP2 PUSH2 0xE13 JUMP JUMPDEST SWAP1 POP PUSH2 0xE5E PUSH1 0x20 DUP4 ADD DUP5 PUSH2 0xA85 JUMP JUMPDEST SWAP3 SWAP2 POP POP JUMP INVALID LOG2 PUSH5 0x6970667358 0x22 SLT KECCAK256 0xB8 PC 0xC8 0xF6 SWAP1 DUP15 INVALID PUSH1 0x91 CALLCODE MSTORE 0x22 DUP10 CALLER SWAP13 JUMP PUSH4 0x57BB0297 0xEE 0xDC DUP12 0xEE 0x25 ORIGIN SWAP11 PUSH32 0xE4368164736F6C63430008110033000000000000000000000000000000000000 "
		},
		"gasEstimates": {
			"creation": {
				"codeDepositCost": "747600",
				"executionCost": "infinite",
				"totalCost": "infinite"
			},
			"external": {
				"checkAmt(address,uint256)": "infinite",
				"checkNationality((address,string,string,string,string,string,string,bool),(address,string,string,string,string,string,string,bool))": "infinite",
				"checkPoliticalStatus((address,string,string,string,string,string,string,bool),(address,string,string,string,string,string,string,bool))": "infinite",
				"checkWantedIndividual((address,string,string,string,string,string,string,bool),(address,string,string,string,string,string,string,bool))": "infinite"
			}
		},
		"methodIdentifiers": {
			"checkAmt(address,uint256)": "bd799295",
			"checkNationality((address,string,string,string,string,string,string,bool),(address,string,string,string,string,string,string,bool))": "dd0ae4d6",
			"checkPoliticalStatus((address,string,string,string,string,string,string,bool),(address,string,string,string,string,string,string,bool))": "f9e26ef6",
			"checkWantedIndividual((address,string,string,string,string,string,string,bool),(address,string,string,string,string,string,string,bool))": "083a0615"
		}
	},
	"abi": [
		{
			"anonymous": false,
			"inputs": [
				{
					"indexed": false,
					"internalType": "string",
					"name": "exceedAmt",
					"type": "string"
				},
				{
					"indexed": false,
					"internalType": "uint256",
					"name": "timestamp",
					"type": "uint256"
				}
			],
			"name": "CreateExceededMaxAmtErrorLog",
			"type": "event"
		},
		{
			"anonymous": false,
			"inputs": [
				{
					"indexed": false,
					"internalType": "string",
					"name": "nationality",
					"type": "string"
				},
				{
					"indexed": false,
					"internalType": "uint256",
					"name": "timestamp",
					"type": "uint256"
				}
			],
			"name": "CreateNationalityErrorLog",
			"type": "event"
		},
		{
			"anonymous": false,
			"inputs": [
				{
					"indexed": false,
					"internalType": "string",
					"name": "politicallyExposed",
					"type": "string"
				},
				{
					"indexed": false,
					"internalType": "uint256",
					"name": "timestamp",
					"type": "uint256"
				}
			],
			"name": "CreatePoliticallyExposedErrorLog",
			"type": "event"
		},
		{
			"anonymous": false,
			"inputs": [
				{
					"indexed": false,
					"internalType": "string",
					"name": "wantedInd",
					"type": "string"
				},
				{
					"indexed": false,
					"internalType": "uint256",
					"name": "timestamp",
					"type": "uint256"
				}
			],
			"name": "CreateWantedIndividualErrorLog",
			"type": "event"
		},
		{
			"inputs": [
				{
					"internalType": "address payable",
					"name": "sender",
					"type": "address"
				},
				{
					"internalType": "uint256",
					"name": "amount",
					"type": "uint256"
				}
			],
			"name": "checkAmt",
			"outputs": [
				{
					"internalType": "bool",
					"name": "",
					"type": "bool"
				}
			],
			"stateMutability": "payable",
			"type": "function"
		},
		{
			"inputs": [
				{
					"components": [
						{
							"internalType": "address",
							"name": "userAddress",
							"type": "address"
						},
						{
							"internalType": "string",
							"name": "role",
							"type": "string"
						},
						{
							"internalType": "string",
							"name": "firstName",
							"type": "string"
						},
						{
							"internalType": "string",
							"name": "lastName",
							"type": "string"
						},
						{
							"internalType": "string",
							"name": "country",
							"type": "string"
						},
						{
							"internalType": "string",
							"name": "location",
							"type": "string"
						},
						{
							"internalType": "string",
							"name": "nationality",
							"type": "string"
						},
						{
							"internalType": "bool",
							"name": "isPoliticallyExposed",
							"type": "bool"
						}
					],
					"internalType": "struct UserInfoLibrary.UserInfoStruct",
					"name": "senderUserInfo",
					"type": "tuple"
				},
				{
					"components": [
						{
							"internalType": "address",
							"name": "userAddress",
							"type": "address"
						},
						{
							"internalType": "string",
							"name": "role",
							"type": "string"
						},
						{
							"internalType": "string",
							"name": "firstName",
							"type": "string"
						},
						{
							"internalType": "string",
							"name": "lastName",
							"type": "string"
						},
						{
							"internalType": "string",
							"name": "country",
							"type": "string"
						},
						{
							"internalType": "string",
							"name": "location",
							"type": "string"
						},
						{
							"internalType": "string",
							"name": "nationality",
							"type": "string"
						},
						{
							"internalType": "bool",
							"name": "isPoliticallyExposed",
							"type": "bool"
						}
					],
					"internalType": "struct UserInfoLibrary.UserInfoStruct",
					"name": "receiverUserInfo",
					"type": "tuple"
				}
			],
			"name": "checkNationality",
			"outputs": [
				{
					"internalType": "bool",
					"name": "",
					"type": "bool"
				}
			],
			"stateMutability": "nonpayable",
			"type": "function"
		},
		{
			"inputs": [
				{
					"components": [
						{
							"internalType": "address",
							"name": "userAddress",
							"type": "address"
						},
						{
							"internalType": "string",
							"name": "role",
							"type": "string"
						},
						{
							"internalType": "string",
							"name": "firstName",
							"type": "string"
						},
						{
							"internalType": "string",
							"name": "lastName",
							"type": "string"
						},
						{
							"internalType": "string",
							"name": "country",
							"type": "string"
						},
						{
							"internalType": "string",
							"name": "location",
							"type": "string"
						},
						{
							"internalType": "string",
							"name": "nationality",
							"type": "string"
						},
						{
							"internalType": "bool",
							"name": "isPoliticallyExposed",
							"type": "bool"
						}
					],
					"internalType": "struct UserInfoLibrary.UserInfoStruct",
					"name": "senderUserInfo",
					"type": "tuple"
				},
				{
					"components": [
						{
							"internalType": "address",
							"name": "userAddress",
							"type": "address"
						},
						{
							"internalType": "string",
							"name": "role",
							"type": "string"
						},
						{
							"internalType": "string",
							"name": "firstName",
							"type": "string"
						},
						{
							"internalType": "string",
							"name": "lastName",
							"type": "string"
						},
						{
							"internalType": "string",
							"name": "country",
							"type": "string"
						},
						{
							"internalType": "string",
							"name": "location",
							"type": "string"
						},
						{
							"internalType": "string",
							"name": "nationality",
							"type": "string"
						},
						{
							"internalType": "bool",
							"name": "isPoliticallyExposed",
							"type": "bool"
						}
					],
					"internalType": "struct UserInfoLibrary.UserInfoStruct",
					"name": "receiverUserInfo",
					"type": "tuple"
				}
			],
			"name": "checkPoliticalStatus",
			"outputs": [
				{
					"internalType": "bool",
					"name": "",
					"type": "bool"
				}
			],
			"stateMutability": "nonpayable",
			"type": "function"
		},
		{
			"inputs": [
				{
					"components": [
						{
							"internalType": "address",
							"name": "userAddress",
							"type": "address"
						},
						{
							"internalType": "string",
							"name": "role",
							"type": "string"
						},
						{
							"internalType": "string",
							"name": "firstName",
							"type": "string"
						},
						{
							"internalType": "string",
							"name": "lastName",
							"type": "string"
						},
						{
							"internalType": "string",
							"name": "country",
							"type": "string"
						},
						{
							"internalType": "string",
							"name": "location",
							"type": "string"
						},
						{
							"internalType": "string",
							"name": "nationality",
							"type": "string"
						},
						{
							"internalType": "bool",
							"name": "isPoliticallyExposed",
							"type": "bool"
						}
					],
					"internalType": "struct UserInfoLibrary.UserInfoStruct",
					"name": "senderUserInfo",
					"type": "tuple"
				},
				{
					"components": [
						{
							"internalType": "address",
							"name": "userAddress",
							"type": "address"
						},
						{
							"internalType": "string",
							"name": "role",
							"type": "string"
						},
						{
							"internalType": "string",
							"name": "firstName",
							"type": "string"
						},
						{
							"internalType": "string",
							"name": "lastName",
							"type": "string"
						},
						{
							"internalType": "string",
							"name": "country",
							"type": "string"
						},
						{
							"internalType": "string",
							"name": "location",
							"type": "string"
						},
						{
							"internalType": "string",
							"name": "nationality",
							"type": "string"
						},
						{
							"internalType": "bool",
							"name": "isPoliticallyExposed",
							"type": "bool"
						}
					],
					"internalType": "struct UserInfoLibrary.UserInfoStruct",
					"name": "receiverUserInfo",
					"type": "tuple"
				}
			],
			"name": "checkWantedIndividual",
			"outputs": [
				{
					"internalType": "bool",
					"name": "",
					"type": "bool"
				}
			],
			"stateMutability": "nonpayable",
			"type": "function"
		}
	]
}